{
  "_format": "hh-sol-artifact-1",
  "contractName": "SouvenirGenerator",
  "sourceName": "contracts/SouvenirGenerator.sol",
  "abi": [
    {
      "inputs": [],
      "stateMutability": "nonpayable",
      "type": "constructor"
    },
    {
      "anonymous": false,
      "inputs": [
        {
          "indexed": true,
          "internalType": "address",
          "name": "owner",
          "type": "address"
        },
        {
          "indexed": true,
          "internalType": "address",
          "name": "approved",
          "type": "address"
        },
        {
          "indexed": true,
          "internalType": "uint256",
          "name": "tokenId",
          "type": "uint256"
        }
      ],
      "name": "Approval",
      "type": "event"
    },
    {
      "anonymous": false,
      "inputs": [
        {
          "indexed": true,
          "internalType": "address",
          "name": "owner",
          "type": "address"
        },
        {
          "indexed": true,
          "internalType": "address",
          "name": "operator",
          "type": "address"
        },
        {
          "indexed": false,
          "internalType": "bool",
          "name": "approved",
          "type": "bool"
        }
      ],
      "name": "ApprovalForAll",
      "type": "event"
    },
    {
      "anonymous": false,
      "inputs": [
        {
          "indexed": true,
          "internalType": "address",
          "name": "creator",
          "type": "address"
        },
        {
          "indexed": true,
          "internalType": "address",
          "name": "recipient",
          "type": "address"
        },
        {
          "indexed": false,
          "internalType": "uint256",
          "name": "tokenId",
          "type": "uint256"
        },
        {
          "indexed": false,
          "internalType": "string",
          "name": "tokenURI",
          "type": "string"
        }
      ],
      "name": "GenerateSouvenir",
      "type": "event"
    },
    {
      "anonymous": false,
      "inputs": [
        {
          "indexed": true,
          "internalType": "address",
          "name": "previousOwner",
          "type": "address"
        },
        {
          "indexed": true,
          "internalType": "address",
          "name": "newOwner",
          "type": "address"
        }
      ],
      "name": "OwnershipTransferred",
      "type": "event"
    },
    {
      "anonymous": false,
      "inputs": [
        {
          "indexed": true,
          "internalType": "address",
          "name": "from",
          "type": "address"
        },
        {
          "indexed": true,
          "internalType": "address",
          "name": "to",
          "type": "address"
        },
        {
          "indexed": true,
          "internalType": "uint256",
          "name": "tokenId",
          "type": "uint256"
        }
      ],
      "name": "Transfer",
      "type": "event"
    },
    {
      "inputs": [
        {
          "internalType": "address",
          "name": "to",
          "type": "address"
        },
        {
          "internalType": "uint256",
          "name": "tokenId",
          "type": "uint256"
        }
      ],
      "name": "approve",
      "outputs": [],
      "stateMutability": "nonpayable",
      "type": "function"
    },
    {
      "inputs": [
        {
          "internalType": "address",
          "name": "owner",
          "type": "address"
        }
      ],
      "name": "balanceOf",
      "outputs": [
        {
          "internalType": "uint256",
          "name": "",
          "type": "uint256"
        }
      ],
      "stateMutability": "view",
      "type": "function"
    },
    {
      "inputs": [
        {
          "internalType": "address",
          "name": "recipient",
          "type": "address"
        },
        {
          "internalType": "string",
          "name": "tokenURI",
          "type": "string"
        }
      ],
      "name": "generateSouvenir",
      "outputs": [
        {
          "internalType": "uint256",
          "name": "",
          "type": "uint256"
        }
      ],
      "stateMutability": "nonpayable",
      "type": "function"
    },
    {
      "inputs": [
        {
          "internalType": "uint256",
          "name": "tokenId",
          "type": "uint256"
        }
      ],
      "name": "getApproved",
      "outputs": [
        {
          "internalType": "address",
          "name": "",
          "type": "address"
        }
      ],
      "stateMutability": "view",
      "type": "function"
    },
    {
      "inputs": [
        {
          "internalType": "uint256",
          "name": "tokenId",
          "type": "uint256"
        }
      ],
      "name": "getSouvenirMetadata",
      "outputs": [
        {
          "internalType": "string",
          "name": "",
          "type": "string"
        }
      ],
      "stateMutability": "view",
      "type": "function"
    },
    {
      "inputs": [
        {
          "internalType": "address",
          "name": "owner",
          "type": "address"
        },
        {
          "internalType": "address",
          "name": "operator",
          "type": "address"
        }
      ],
      "name": "isApprovedForAll",
      "outputs": [
        {
          "internalType": "bool",
          "name": "",
          "type": "bool"
        }
      ],
      "stateMutability": "view",
      "type": "function"
    },
    {
      "inputs": [],
      "name": "name",
      "outputs": [
        {
          "internalType": "string",
          "name": "",
          "type": "string"
        }
      ],
      "stateMutability": "view",
      "type": "function"
    },
    {
      "inputs": [],
      "name": "owner",
      "outputs": [
        {
          "internalType": "address",
          "name": "",
          "type": "address"
        }
      ],
      "stateMutability": "view",
      "type": "function"
    },
    {
      "inputs": [
        {
          "internalType": "uint256",
          "name": "tokenId",
          "type": "uint256"
        }
      ],
      "name": "ownerOf",
      "outputs": [
        {
          "internalType": "address",
          "name": "",
          "type": "address"
        }
      ],
      "stateMutability": "view",
      "type": "function"
    },
    {
      "inputs": [],
      "name": "renounceOwnership",
      "outputs": [],
      "stateMutability": "nonpayable",
      "type": "function"
    },
    {
      "inputs": [
        {
          "internalType": "address",
          "name": "",
          "type": "address"
        },
        {
          "internalType": "address",
          "name": "",
          "type": "address"
        },
        {
          "internalType": "uint256",
          "name": "",
          "type": "uint256"
        }
      ],
      "name": "safeTransferFrom",
      "outputs": [],
      "stateMutability": "pure",
      "type": "function"
    },
    {
      "inputs": [
        {
          "internalType": "address",
          "name": "",
          "type": "address"
        },
        {
          "internalType": "address",
          "name": "",
          "type": "address"
        },
        {
          "internalType": "uint256",
          "name": "",
          "type": "uint256"
        },
        {
          "internalType": "bytes",
          "name": "",
          "type": "bytes"
        }
      ],
      "name": "safeTransferFrom",
      "outputs": [],
      "stateMutability": "pure",
      "type": "function"
    },
    {
      "inputs": [
        {
          "internalType": "address",
          "name": "operator",
          "type": "address"
        },
        {
          "internalType": "bool",
          "name": "approved",
          "type": "bool"
        }
      ],
      "name": "setApprovalForAll",
      "outputs": [],
      "stateMutability": "nonpayable",
      "type": "function"
    },
    {
      "inputs": [
        {
          "internalType": "address",
          "name": "_ticketContractAddress",
          "type": "address"
        }
      ],
      "name": "setTicketContractAddress",
      "outputs": [],
      "stateMutability": "nonpayable",
      "type": "function"
    },
    {
      "inputs": [
        {
          "internalType": "bytes4",
          "name": "interfaceId",
          "type": "bytes4"
        }
      ],
      "name": "supportsInterface",
      "outputs": [
        {
          "internalType": "bool",
          "name": "",
          "type": "bool"
        }
      ],
      "stateMutability": "view",
      "type": "function"
    },
    {
      "inputs": [],
      "name": "symbol",
      "outputs": [
        {
          "internalType": "string",
          "name": "",
          "type": "string"
        }
      ],
      "stateMutability": "view",
      "type": "function"
    },
    {
      "inputs": [
        {
          "internalType": "uint256",
          "name": "tokenId",
          "type": "uint256"
        }
      ],
      "name": "tokenURI",
      "outputs": [
        {
          "internalType": "string",
          "name": "",
          "type": "string"
        }
      ],
      "stateMutability": "view",
      "type": "function"
    },
    {
      "inputs": [
        {
          "internalType": "address",
          "name": "",
          "type": "address"
        },
        {
          "internalType": "address",
          "name": "",
          "type": "address"
        },
        {
          "internalType": "uint256",
          "name": "",
          "type": "uint256"
        }
      ],
      "name": "transferFrom",
      "outputs": [],
      "stateMutability": "pure",
      "type": "function"
    },
    {
      "inputs": [
        {
          "internalType": "address",
          "name": "newOwner",
          "type": "address"
        }
      ],
      "name": "transferOwnership",
      "outputs": [],
      "stateMutability": "nonpayable",
      "type": "function"
    }
  ],
  "bytecode": "0x608060405260006009553480156200001657600080fd5b506040518060400160405280600c81526020016b14dbdd5d995b9a5c8813919560a21b8152506040518060400160405280600381526020016213919560ea1b815250620000726200006c620000a660201b60201c565b620000aa565b815162000087906001906020850190620000fa565b5080516200009d906002906020840190620000fa565b505050620001dd565b3390565b600080546001600160a01b038381166001600160a01b0319831681178455604051919092169283917f8be0079c531659141344cd1fd0a4f28419497f9722a3daafe3b4186f6b6457e09190a35050565b8280546200010890620001a0565b90600052602060002090601f0160209004810192826200012c576000855562000177565b82601f106200014757805160ff191683800117855562000177565b8280016001018555821562000177579182015b82811115620001775782518255916020019190600101906200015a565b506200018592915062000189565b5090565b5b808211156200018557600081556001016200018a565b600181811c90821680620001b557607f821691505b60208210811415620001d757634e487b7160e01b600052602260045260246000fd5b50919050565b6113e680620001ed6000396000f3fe608060405234801561001057600080fd5b50600436106101215760003560e01c806370a08231116100ad578063a22cb46511610071578063a22cb46514610244578063b88d4fde14610257578063c87b56dd14610265578063e985e9c514610278578063f2fde38b146102b457600080fd5b806370a08231146101fd578063715018a6146102105780638da5cb5b1461021857806392826b481461022957806395d89b411461023c57600080fd5b80630d385de1116100f45780630d385de1146101a357806313cd566e146101c457806323b872dd146101d757806342842e0e146101d75780636352211e146101ea57600080fd5b806301ffc9a71461012657806306fdde031461014e578063081812fc14610163578063095ea7b31461018e575b600080fd5b610139610134366004610f51565b6102c7565b60405190151581526020015b60405180910390f35b610156610319565b6040516101459190610fd7565b610176610171366004610fea565b6103ab565b6040516001600160a01b039091168152602001610145565b6101a161019c36600461101f565b6103d2565b005b6101b66101b13660046110d5565b6104ed565b604051908152602001610145565b6101566101d2366004610fea565b610581565b6101a16101e5366004611137565b61058c565b6101766101f8366004610fea565b6105d4565b6101b661020b366004611173565b610634565b6101a16106ba565b6000546001600160a01b0316610176565b6101a1610237366004611173565b6106ce565b6101566106f8565b6101a161025236600461118e565b610707565b6101a16101e53660046111ca565b610156610273366004610fea565b610716565b610139610286366004611246565b6001600160a01b03918216600090815260066020908152604080832093909416825291909152205460ff1690565b6101a16102c2366004611173565b610827565b60006001600160e01b031982166380ac58cd60e01b14806102f857506001600160e01b03198216635b5e139f60e01b145b8061031357506301ffc9a760e01b6001600160e01b03198316145b92915050565b60606001805461032890611279565b80601f016020809104026020016040519081016040528092919081815260200182805461035490611279565b80156103a15780601f10610376576101008083540402835291602001916103a1565b820191906000526020600020905b81548152906001019060200180831161038457829003601f168201915b5050505050905090565b60006103b6826108a0565b506000908152600560205260409020546001600160a01b031690565b60006103dd826105d4565b9050806001600160a01b0316836001600160a01b031614156104505760405162461bcd60e51b815260206004820152602160248201527f4552433732313a20617070726f76616c20746f2063757272656e74206f776e656044820152603960f91b60648201526084015b60405180910390fd5b336001600160a01b038216148061046c575061046c8133610286565b6104de5760405162461bcd60e51b815260206004820152603e60248201527f4552433732313a20617070726f76652063616c6c6572206973206e6f7420746f60448201527f6b656e206f776e6572206e6f7220617070726f76656420666f7220616c6c00006064820152608401610447565b6104e883836108ff565b505050565b600a546000906001600160a01b031633146105705760405162461bcd60e51b815260206004820152603e60248201527f536f7576656e697247656e657261746f723a204f6e6c79205469636b6574206360448201527f6f6e74726163742063616e2063616c6c20746869732066756e6374696f6e00006064820152608401610447565b61057a838361096d565b9392505050565b606061031382610716565b60405162461bcd60e51b815260206004820152601c60248201527f596f752063616e2774207472616e7366657220736f7576656e697273000000006044820152606401610447565b6000818152600360205260408120546001600160a01b0316806103135760405162461bcd60e51b8152602060048201526018602482015277115490cdcc8c4e881a5b9d985b1a59081d1bdad95b88125160421b6044820152606401610447565b60006001600160a01b03821661069e5760405162461bcd60e51b815260206004820152602960248201527f4552433732313a2061646472657373207a65726f206973206e6f7420612076616044820152683634b21037bbb732b960b91b6064820152608401610447565b506001600160a01b031660009081526004602052604090205490565b6106c26109f2565b6106cc6000610a4c565b565b6106d66109f2565b600a80546001600160a01b0319166001600160a01b0392909216919091179055565b60606002805461032890611279565b610712338383610a9c565b5050565b6060610721826108a0565b6000828152600760205260408120805461073a90611279565b80601f016020809104026020016040519081016040528092919081815260200182805461076690611279565b80156107b35780601f10610788576101008083540402835291602001916107b3565b820191906000526020600020905b81548152906001019060200180831161079657829003601f168201915b5050505050905060006107d160408051602081019091526000815290565b90508051600014156107e4575092915050565b8151156108165780826040516020016107fe9291906112b4565b60405160208183030381529060405292505050919050565b61081f84610b6b565b949350505050565b61082f6109f2565b6001600160a01b0381166108945760405162461bcd60e51b815260206004820152602660248201527f4f776e61626c653a206e6577206f776e657220697320746865207a65726f206160448201526564647265737360d01b6064820152608401610447565b61089d81610a4c565b50565b6000818152600360205260409020546001600160a01b031661089d5760405162461bcd60e51b8152602060048201526018602482015277115490cdcc8c4e881a5b9d985b1a59081d1bdad95b88125160421b6044820152606401610447565b600081815260056020526040902080546001600160a01b0319166001600160a01b0384169081179091558190610934826105d4565b6001600160a01b03167f8c5be1e5ebec7d5bd14f71427d1e84f3dd0314c0f7b2291e5b200ac8c7c3b92560405160405180910390a45050565b600061097d600880546001019055565b600061098860085490565b90506109948482610bde565b61099e8184610d20565b836001600160a01b0316336001600160a01b03167fe42ed3601b808464b4a9cdcc3ddf5bb83611e2693ea0c3d4596c18af876fe86a83866040516109e39291906112e3565b60405180910390a39392505050565b6000546001600160a01b031633146106cc5760405162461bcd60e51b815260206004820181905260248201527f4f776e61626c653a2063616c6c6572206973206e6f7420746865206f776e65726044820152606401610447565b600080546001600160a01b038381166001600160a01b0319831681178455604051919092169283917f8be0079c531659141344cd1fd0a4f28419497f9722a3daafe3b4186f6b6457e09190a35050565b816001600160a01b0316836001600160a01b03161415610afe5760405162461bcd60e51b815260206004820152601960248201527f4552433732313a20617070726f766520746f2063616c6c6572000000000000006044820152606401610447565b6001600160a01b03838116600081815260066020908152604080832094871680845294825291829020805460ff191686151590811790915591519182527f17307eab39ab6107e8899845ad3d59bd9653f200f220920489ca2b5937696c31910160405180910390a3505050565b6060610b76826108a0565b6000610b8d60408051602081019091526000815290565b90506000815111610bad576040518060200160405280600081525061057a565b80610bb784610dba565b604051602001610bc89291906112b4565b6040516020818303038152906040529392505050565b6001600160a01b038216610c345760405162461bcd60e51b815260206004820181905260248201527f4552433732313a206d696e7420746f20746865207a65726f20616464726573736044820152606401610447565b6000818152600360205260409020546001600160a01b031615610c995760405162461bcd60e51b815260206004820152601c60248201527f4552433732313a20746f6b656e20616c7265616479206d696e746564000000006044820152606401610447565b6001600160a01b0382166000908152600460205260408120805460019290610cc2908490611312565b909155505060008181526003602052604080822080546001600160a01b0319166001600160a01b03861690811790915590518392907fddf252ad1be2c89b69c2b068fc378daa952ba7f163c4a11628f55a4df523b3ef908290a45050565b6000828152600360205260409020546001600160a01b0316610d9b5760405162461bcd60e51b815260206004820152602e60248201527f45524337323155524953746f726167653a2055524920736574206f66206e6f6e60448201526d32bc34b9ba32b73a103a37b5b2b760911b6064820152608401610447565b600082815260076020908152604090912082516104e892840190610eb8565b606081610dde5750506040805180820190915260018152600360fc1b602082015290565b8160005b8115610e085780610df28161132a565b9150610e019050600a8361135b565b9150610de2565b60008167ffffffffffffffff811115610e2357610e23611049565b6040519080825280601f01601f191660200182016040528015610e4d576020820181803683370190505b5090505b841561081f57610e6260018361136f565b9150610e6f600a86611386565b610e7a906030611312565b60f81b818381518110610e8f57610e8f61139a565b60200101906001600160f81b031916908160001a905350610eb1600a8661135b565b9450610e51565b828054610ec490611279565b90600052602060002090601f016020900481019282610ee65760008555610f2c565b82601f10610eff57805160ff1916838001178555610f2c565b82800160010185558215610f2c579182015b82811115610f2c578251825591602001919060010190610f11565b50610f38929150610f3c565b5090565b5b80821115610f385760008155600101610f3d565b600060208284031215610f6357600080fd5b81356001600160e01b03198116811461057a57600080fd5b60005b83811015610f96578181015183820152602001610f7e565b83811115610fa5576000848401525b50505050565b60008151808452610fc3816020860160208601610f7b565b601f01601f19169290920160200192915050565b60208152600061057a6020830184610fab565b600060208284031215610ffc57600080fd5b5035919050565b80356001600160a01b038116811461101a57600080fd5b919050565b6000806040838503121561103257600080fd5b61103b83611003565b946020939093013593505050565b634e487b7160e01b600052604160045260246000fd5b600067ffffffffffffffff8084111561107a5761107a611049565b604051601f8501601f19908116603f011681019082821181831017156110a2576110a2611049565b816040528093508581528686860111156110bb57600080fd5b858560208301376000602087830101525050509392505050565b600080604083850312156110e857600080fd5b6110f183611003565b9150602083013567ffffffffffffffff81111561110d57600080fd5b8301601f8101851361111e57600080fd5b61112d8582356020840161105f565b9150509250929050565b60008060006060848603121561114c57600080fd5b61115584611003565b925061116360208501611003565b9150604084013590509250925092565b60006020828403121561118557600080fd5b61057a82611003565b600080604083850312156111a157600080fd5b6111aa83611003565b9150602083013580151581146111bf57600080fd5b809150509250929050565b600080600080608085870312156111e057600080fd5b6111e985611003565b93506111f760208601611003565b925060408501359150606085013567ffffffffffffffff81111561121a57600080fd5b8501601f8101871361122b57600080fd5b61123a8782356020840161105f565b91505092959194509250565b6000806040838503121561125957600080fd5b61126283611003565b915061127060208401611003565b90509250929050565b600181811c9082168061128d57607f821691505b602082108114156112ae57634e487b7160e01b600052602260045260246000fd5b50919050565b600083516112c6818460208801610f7b565b8351908301906112da818360208801610f7b565b01949350505050565b82815260406020820152600061081f6040830184610fab565b634e487b7160e01b600052601160045260246000fd5b60008219821115611325576113256112fc565b500190565b600060001982141561133e5761133e6112fc565b5060010190565b634e487b7160e01b600052601260045260246000fd5b60008261136a5761136a611345565b500490565b600082821015611381576113816112fc565b500390565b60008261139557611395611345565b500690565b634e487b7160e01b600052603260045260246000fdfea264697066735822122074c72e09e3547647654f6494deb401c0ff5bf299048b73493bee8c01161fb59264736f6c63430008090033",
  "linkReferences": {},
  "deployedLinkReferences": {}
}