{
  "_format": "hh-sol-artifact-1",
  "contractName": "SouvenirGenerator",
  "sourceName": "contracts/SouvenirGenerator.sol",
  "abi": [
    {
      "inputs": [],
      "stateMutability": "nonpayable",
      "type": "constructor"
    },
    {
      "anonymous": false,
      "inputs": [
        {
          "indexed": true,
          "internalType": "address",
          "name": "owner",
          "type": "address"
        },
        {
          "indexed": true,
          "internalType": "address",
          "name": "approved",
          "type": "address"
        },
        {
          "indexed": true,
          "internalType": "uint256",
          "name": "tokenId",
          "type": "uint256"
        }
      ],
      "name": "Approval",
      "type": "event"
    },
    {
      "anonymous": false,
      "inputs": [
        {
          "indexed": true,
          "internalType": "address",
          "name": "owner",
          "type": "address"
        },
        {
          "indexed": true,
          "internalType": "address",
          "name": "operator",
          "type": "address"
        },
        {
          "indexed": false,
          "internalType": "bool",
          "name": "approved",
          "type": "bool"
        }
      ],
      "name": "ApprovalForAll",
      "type": "event"
    },
    {
      "anonymous": false,
      "inputs": [
        {
          "indexed": true,
          "internalType": "address",
          "name": "creator",
          "type": "address"
        },
        {
          "indexed": true,
          "internalType": "address",
          "name": "recipient",
          "type": "address"
        },
        {
          "indexed": false,
          "internalType": "uint256",
          "name": "tokenId",
          "type": "uint256"
        },
        {
          "indexed": false,
          "internalType": "string",
          "name": "tokenURI",
          "type": "string"
        }
      ],
      "name": "GenerateSouvenir",
      "type": "event"
    },
    {
      "anonymous": false,
      "inputs": [
        {
          "indexed": true,
          "internalType": "address",
          "name": "previousOwner",
          "type": "address"
        },
        {
          "indexed": true,
          "internalType": "address",
          "name": "newOwner",
          "type": "address"
        }
      ],
      "name": "OwnershipTransferred",
      "type": "event"
    },
    {
      "anonymous": false,
      "inputs": [
        {
          "indexed": true,
          "internalType": "address",
          "name": "from",
          "type": "address"
        },
        {
          "indexed": true,
          "internalType": "address",
          "name": "to",
          "type": "address"
        },
        {
          "indexed": true,
          "internalType": "uint256",
          "name": "tokenId",
          "type": "uint256"
        }
      ],
      "name": "Transfer",
      "type": "event"
    },
    {
      "inputs": [
        {
          "internalType": "address",
          "name": "to",
          "type": "address"
        },
        {
          "internalType": "uint256",
          "name": "tokenId",
          "type": "uint256"
        }
      ],
      "name": "approve",
      "outputs": [],
      "stateMutability": "nonpayable",
      "type": "function"
    },
    {
      "inputs": [
        {
          "internalType": "address",
          "name": "owner",
          "type": "address"
        }
      ],
      "name": "balanceOf",
      "outputs": [
        {
          "internalType": "uint256",
          "name": "",
          "type": "uint256"
        }
      ],
      "stateMutability": "view",
      "type": "function"
    },
    {
      "inputs": [
        {
          "internalType": "address",
          "name": "recipient",
          "type": "address"
        },
        {
          "internalType": "string",
          "name": "tokenURI",
          "type": "string"
        }
      ],
      "name": "generateSouvenir",
      "outputs": [
        {
          "internalType": "uint256",
          "name": "",
          "type": "uint256"
        }
      ],
      "stateMutability": "nonpayable",
      "type": "function"
    },
    {
      "inputs": [
        {
          "internalType": "uint256",
          "name": "tokenId",
          "type": "uint256"
        }
      ],
      "name": "getApproved",
      "outputs": [
        {
          "internalType": "address",
          "name": "",
          "type": "address"
        }
      ],
      "stateMutability": "view",
      "type": "function"
    },
    {
      "inputs": [
        {
          "internalType": "uint256",
          "name": "tokenId",
          "type": "uint256"
        }
      ],
      "name": "getSouvenirMetadata",
      "outputs": [
        {
          "internalType": "string",
          "name": "",
          "type": "string"
        }
      ],
      "stateMutability": "view",
      "type": "function"
    },
    {
      "inputs": [
        {
          "internalType": "address",
          "name": "owner",
          "type": "address"
        },
        {
          "internalType": "address",
          "name": "operator",
          "type": "address"
        }
      ],
      "name": "isApprovedForAll",
      "outputs": [
        {
          "internalType": "bool",
          "name": "",
          "type": "bool"
        }
      ],
      "stateMutability": "view",
      "type": "function"
    },
    {
      "inputs": [],
      "name": "name",
      "outputs": [
        {
          "internalType": "string",
          "name": "",
          "type": "string"
        }
      ],
      "stateMutability": "view",
      "type": "function"
    },
    {
      "inputs": [],
      "name": "owner",
      "outputs": [
        {
          "internalType": "address",
          "name": "",
          "type": "address"
        }
      ],
      "stateMutability": "view",
      "type": "function"
    },
    {
      "inputs": [
        {
          "internalType": "uint256",
          "name": "tokenId",
          "type": "uint256"
        }
      ],
      "name": "ownerOf",
      "outputs": [
        {
          "internalType": "address",
          "name": "",
          "type": "address"
        }
      ],
      "stateMutability": "view",
      "type": "function"
    },
    {
      "inputs": [],
      "name": "renounceOwnership",
      "outputs": [],
      "stateMutability": "nonpayable",
      "type": "function"
    },
    {
      "inputs": [
        {
          "internalType": "address",
          "name": "from",
          "type": "address"
        },
        {
          "internalType": "address",
          "name": "to",
          "type": "address"
        },
        {
          "internalType": "uint256",
          "name": "tokenId",
          "type": "uint256"
        }
      ],
      "name": "safeTransferFrom",
      "outputs": [],
      "stateMutability": "nonpayable",
      "type": "function"
    },
    {
      "inputs": [
        {
          "internalType": "address",
          "name": "from",
          "type": "address"
        },
        {
          "internalType": "address",
          "name": "to",
          "type": "address"
        },
        {
          "internalType": "uint256",
          "name": "tokenId",
          "type": "uint256"
        },
        {
          "internalType": "bytes",
          "name": "data",
          "type": "bytes"
        }
      ],
      "name": "safeTransferFrom",
      "outputs": [],
      "stateMutability": "nonpayable",
      "type": "function"
    },
    {
      "inputs": [
        {
          "internalType": "address",
          "name": "operator",
          "type": "address"
        },
        {
          "internalType": "bool",
          "name": "approved",
          "type": "bool"
        }
      ],
      "name": "setApprovalForAll",
      "outputs": [],
      "stateMutability": "nonpayable",
      "type": "function"
    },
    {
      "inputs": [
        {
          "internalType": "address",
          "name": "_ticketContractAddress",
          "type": "address"
        }
      ],
      "name": "setTicketContractAddress",
      "outputs": [],
      "stateMutability": "nonpayable",
      "type": "function"
    },
    {
      "inputs": [
        {
          "internalType": "bytes4",
          "name": "interfaceId",
          "type": "bytes4"
        }
      ],
      "name": "supportsInterface",
      "outputs": [
        {
          "internalType": "bool",
          "name": "",
          "type": "bool"
        }
      ],
      "stateMutability": "view",
      "type": "function"
    },
    {
      "inputs": [],
      "name": "symbol",
      "outputs": [
        {
          "internalType": "string",
          "name": "",
          "type": "string"
        }
      ],
      "stateMutability": "view",
      "type": "function"
    },
    {
      "inputs": [
        {
          "internalType": "uint256",
          "name": "tokenId",
          "type": "uint256"
        }
      ],
      "name": "tokenURI",
      "outputs": [
        {
          "internalType": "string",
          "name": "",
          "type": "string"
        }
      ],
      "stateMutability": "view",
      "type": "function"
    },
    {
      "inputs": [
        {
          "internalType": "address",
          "name": "",
          "type": "address"
        },
        {
          "internalType": "address",
          "name": "",
          "type": "address"
        },
        {
          "internalType": "uint256",
          "name": "",
          "type": "uint256"
        }
      ],
      "name": "transferFrom",
      "outputs": [],
      "stateMutability": "pure",
      "type": "function"
    },
    {
      "inputs": [
        {
          "internalType": "address",
          "name": "newOwner",
          "type": "address"
        }
      ],
      "name": "transferOwnership",
      "outputs": [],
      "stateMutability": "nonpayable",
      "type": "function"
    }
  ],
  "bytecode": "0x608060405260006009553480156200001657600080fd5b506040518060400160405280600c81526020016b14dbdd5d995b9a5c8813919560a21b8152506040518060400160405280600381526020016213919560ea1b815250620000726200006c620000a660201b60201c565b620000aa565b815162000087906001906020850190620000fa565b5080516200009d906002906020840190620000fa565b505050620001dd565b3390565b600080546001600160a01b038381166001600160a01b0319831681178455604051919092169283917f8be0079c531659141344cd1fd0a4f28419497f9722a3daafe3b4186f6b6457e09190a35050565b8280546200010890620001a0565b90600052602060002090601f0160209004810192826200012c576000855562000177565b82601f106200014757805160ff191683800117855562000177565b8280016001018555821562000177579182015b82811115620001775782518255916020019190600101906200015a565b506200018592915062000189565b5090565b5b808211156200018557600081556001016200018a565b600181811c90821680620001b557607f821691505b60208210811415620001d757634e487b7160e01b600052602260045260246000fd5b50919050565b6118a380620001ed6000396000f3fe608060405234801561001057600080fd5b50600436106101215760003560e01c806370a08231116100ad578063a22cb46511610071578063a22cb46514610257578063b88d4fde1461026a578063c87b56dd1461027d578063e985e9c514610290578063f2fde38b146102cc57600080fd5b806370a0823114610210578063715018a6146102235780638da5cb5b1461022b57806392826b481461023c57806395d89b411461024f57600080fd5b80630d385de1116100f45780630d385de1146101a357806313cd566e146101c457806323b872dd146101d757806342842e0e146101ea5780636352211e146101fd57600080fd5b806301ffc9a71461012657806306fdde031461014e578063081812fc14610163578063095ea7b31461018e575b600080fd5b610139610134366004611373565b6102df565b60405190151581526020015b60405180910390f35b610156610331565b60405161014591906113e8565b6101766101713660046113fb565b6103c3565b6040516001600160a01b039091168152602001610145565b6101a161019c366004611430565b6103ea565b005b6101b66101b13660046114e6565b610505565b604051908152602001610145565b6101566101d23660046113fb565b610599565b6101a16101e5366004611548565b6105a4565b6101a16101f8366004611548565b6105ec565b61017661020b3660046113fb565b610607565b6101b661021e366004611584565b610667565b6101a16106ed565b6000546001600160a01b0316610176565b6101a161024a366004611584565b610701565b61015661072b565b6101a161026536600461159f565b61073a565b6101a16102783660046115db565b610749565b61015661028b3660046113fb565b6107c8565b61013961029e366004611657565b6001600160a01b03918216600090815260066020908152604080832093909416825291909152205460ff1690565b6101a16102da366004611584565b6108d9565b60006001600160e01b031982166380ac58cd60e01b148061031057506001600160e01b03198216635b5e139f60e01b145b8061032b57506301ffc9a760e01b6001600160e01b03198316145b92915050565b6060600180546103409061168a565b80601f016020809104026020016040519081016040528092919081815260200182805461036c9061168a565b80156103b95780601f1061038e576101008083540402835291602001916103b9565b820191906000526020600020905b81548152906001019060200180831161039c57829003601f168201915b5050505050905090565b60006103ce82610952565b506000908152600560205260409020546001600160a01b031690565b60006103f582610607565b9050806001600160a01b0316836001600160a01b031614156104685760405162461bcd60e51b815260206004820152602160248201527f4552433732313a20617070726f76616c20746f2063757272656e74206f776e656044820152603960f91b60648201526084015b60405180910390fd5b336001600160a01b03821614806104845750610484813361029e565b6104f65760405162461bcd60e51b815260206004820152603e60248201527f4552433732313a20617070726f76652063616c6c6572206973206e6f7420746f60448201527f6b656e206f776e6572206e6f7220617070726f76656420666f7220616c6c0000606482015260840161045f565b61050083836109b1565b505050565b600a546000906001600160a01b031633146105885760405162461bcd60e51b815260206004820152603e60248201527f536f7576656e697247656e657261746f723a204f6e6c79205469636b6574206360448201527f6f6e74726163742063616e2063616c6c20746869732066756e6374696f6e0000606482015260840161045f565b6105928383610a1f565b9392505050565b606061032b826107c8565b60405162461bcd60e51b815260206004820152601c60248201527f596f752063616e2774207472616e7366657220736f7576656e69727300000000604482015260640161045f565b61050083838360405180602001604052806000815250610749565b6000818152600360205260408120546001600160a01b03168061032b5760405162461bcd60e51b8152602060048201526018602482015277115490cdcc8c4e881a5b9d985b1a59081d1bdad95b88125160421b604482015260640161045f565b60006001600160a01b0382166106d15760405162461bcd60e51b815260206004820152602960248201527f4552433732313a2061646472657373207a65726f206973206e6f7420612076616044820152683634b21037bbb732b960b91b606482015260840161045f565b506001600160a01b031660009081526004602052604090205490565b6106f5610aa4565b6106ff6000610afe565b565b610709610aa4565b600a80546001600160a01b0319166001600160a01b0392909216919091179055565b6060600280546103409061168a565b610745338383610b4e565b5050565b6107533383610c1d565b6107b65760405162461bcd60e51b815260206004820152602e60248201527f4552433732313a2063616c6c6572206973206e6f7420746f6b656e206f776e6560448201526d1c881b9bdc88185c1c1c9bdd995960921b606482015260840161045f565b6107c284848484610c9b565b50505050565b60606107d382610952565b600082815260076020526040812080546107ec9061168a565b80601f01602080910402602001604051908101604052809291908181526020018280546108189061168a565b80156108655780601f1061083a57610100808354040283529160200191610865565b820191906000526020600020905b81548152906001019060200180831161084857829003601f168201915b50505050509050600061088360408051602081019091526000815290565b9050805160001415610896575092915050565b8151156108c85780826040516020016108b09291906116c5565b60405160208183030381529060405292505050919050565b6108d184610cce565b949350505050565b6108e1610aa4565b6001600160a01b0381166109465760405162461bcd60e51b815260206004820152602660248201527f4f776e61626c653a206e6577206f776e657220697320746865207a65726f206160448201526564647265737360d01b606482015260840161045f565b61094f81610afe565b50565b6000818152600360205260409020546001600160a01b031661094f5760405162461bcd60e51b8152602060048201526018602482015277115490cdcc8c4e881a5b9d985b1a59081d1bdad95b88125160421b604482015260640161045f565b600081815260056020526040902080546001600160a01b0319166001600160a01b03841690811790915581906109e682610607565b6001600160a01b03167f8c5be1e5ebec7d5bd14f71427d1e84f3dd0314c0f7b2291e5b200ac8c7c3b92560405160405180910390a45050565b6000610a2f600880546001019055565b6000610a3a60085490565b9050610a468482610d41565b610a508184610e83565b836001600160a01b0316336001600160a01b03167fe42ed3601b808464b4a9cdcc3ddf5bb83611e2693ea0c3d4596c18af876fe86a8386604051610a959291906116f4565b60405180910390a39392505050565b6000546001600160a01b031633146106ff5760405162461bcd60e51b815260206004820181905260248201527f4f776e61626c653a2063616c6c6572206973206e6f7420746865206f776e6572604482015260640161045f565b600080546001600160a01b038381166001600160a01b0319831681178455604051919092169283917f8be0079c531659141344cd1fd0a4f28419497f9722a3daafe3b4186f6b6457e09190a35050565b816001600160a01b0316836001600160a01b03161415610bb05760405162461bcd60e51b815260206004820152601960248201527f4552433732313a20617070726f766520746f2063616c6c657200000000000000604482015260640161045f565b6001600160a01b03838116600081815260066020908152604080832094871680845294825291829020805460ff191686151590811790915591519182527f17307eab39ab6107e8899845ad3d59bd9653f200f220920489ca2b5937696c31910160405180910390a3505050565b600080610c2983610607565b9050806001600160a01b0316846001600160a01b03161480610c7057506001600160a01b0380821660009081526006602090815260408083209388168352929052205460ff165b806108d15750836001600160a01b0316610c89846103c3565b6001600160a01b031614949350505050565b610ca6848484610f1d565b610cb2848484846110b9565b6107c25760405162461bcd60e51b815260040161045f9061170d565b6060610cd982610952565b6000610cf060408051602081019091526000815290565b90506000815111610d105760405180602001604052806000815250610592565b80610d1a846111c6565b604051602001610d2b9291906116c5565b6040516020818303038152906040529392505050565b6001600160a01b038216610d975760405162461bcd60e51b815260206004820181905260248201527f4552433732313a206d696e7420746f20746865207a65726f2061646472657373604482015260640161045f565b6000818152600360205260409020546001600160a01b031615610dfc5760405162461bcd60e51b815260206004820152601c60248201527f4552433732313a20746f6b656e20616c7265616479206d696e74656400000000604482015260640161045f565b6001600160a01b0382166000908152600460205260408120805460019290610e25908490611775565b909155505060008181526003602052604080822080546001600160a01b0319166001600160a01b03861690811790915590518392907fddf252ad1be2c89b69c2b068fc378daa952ba7f163c4a11628f55a4df523b3ef908290a45050565b6000828152600360205260409020546001600160a01b0316610efe5760405162461bcd60e51b815260206004820152602e60248201527f45524337323155524953746f726167653a2055524920736574206f66206e6f6e60448201526d32bc34b9ba32b73a103a37b5b2b760911b606482015260840161045f565b60008281526007602090815260409091208251610500928401906112c4565b826001600160a01b0316610f3082610607565b6001600160a01b031614610f945760405162461bcd60e51b815260206004820152602560248201527f4552433732313a207472616e736665722066726f6d20696e636f72726563742060448201526437bbb732b960d91b606482015260840161045f565b6001600160a01b038216610ff65760405162461bcd60e51b8152602060048201526024808201527f4552433732313a207472616e7366657220746f20746865207a65726f206164646044820152637265737360e01b606482015260840161045f565b6110016000826109b1565b6001600160a01b038316600090815260046020526040812080546001929061102a90849061178d565b90915550506001600160a01b0382166000908152600460205260408120805460019290611058908490611775565b909155505060008181526003602052604080822080546001600160a01b0319166001600160a01b0386811691821790925591518493918716917fddf252ad1be2c89b69c2b068fc378daa952ba7f163c4a11628f55a4df523b3ef91a4505050565b60006001600160a01b0384163b156111bb57604051630a85bd0160e11b81526001600160a01b0385169063150b7a02906110fd9033908990889088906004016117a4565b602060405180830381600087803b15801561111757600080fd5b505af1925050508015611147575060408051601f3d908101601f19168201909252611144918101906117e1565b60015b6111a1573d808015611175576040519150601f19603f3d011682016040523d82523d6000602084013e61117a565b606091505b5080516111995760405162461bcd60e51b815260040161045f9061170d565b805181602001fd5b6001600160e01b031916630a85bd0160e11b1490506108d1565b506001949350505050565b6060816111ea5750506040805180820190915260018152600360fc1b602082015290565b8160005b811561121457806111fe816117fe565b915061120d9050600a8361182f565b91506111ee565b60008167ffffffffffffffff81111561122f5761122f61145a565b6040519080825280601f01601f191660200182016040528015611259576020820181803683370190505b5090505b84156108d15761126e60018361178d565b915061127b600a86611843565b611286906030611775565b60f81b81838151811061129b5761129b611857565b60200101906001600160f81b031916908160001a9053506112bd600a8661182f565b945061125d565b8280546112d09061168a565b90600052602060002090601f0160209004810192826112f25760008555611338565b82601f1061130b57805160ff1916838001178555611338565b82800160010185558215611338579182015b8281111561133857825182559160200191906001019061131d565b50611344929150611348565b5090565b5b808211156113445760008155600101611349565b6001600160e01b03198116811461094f57600080fd5b60006020828403121561138557600080fd5b81356105928161135d565b60005b838110156113ab578181015183820152602001611393565b838111156107c25750506000910152565b600081518084526113d4816020860160208601611390565b601f01601f19169290920160200192915050565b60208152600061059260208301846113bc565b60006020828403121561140d57600080fd5b5035919050565b80356001600160a01b038116811461142b57600080fd5b919050565b6000806040838503121561144357600080fd5b61144c83611414565b946020939093013593505050565b634e487b7160e01b600052604160045260246000fd5b600067ffffffffffffffff8084111561148b5761148b61145a565b604051601f8501601f19908116603f011681019082821181831017156114b3576114b361145a565b816040528093508581528686860111156114cc57600080fd5b858560208301376000602087830101525050509392505050565b600080604083850312156114f957600080fd5b61150283611414565b9150602083013567ffffffffffffffff81111561151e57600080fd5b8301601f8101851361152f57600080fd5b61153e85823560208401611470565b9150509250929050565b60008060006060848603121561155d57600080fd5b61156684611414565b925061157460208501611414565b9150604084013590509250925092565b60006020828403121561159657600080fd5b61059282611414565b600080604083850312156115b257600080fd5b6115bb83611414565b9150602083013580151581146115d057600080fd5b809150509250929050565b600080600080608085870312156115f157600080fd5b6115fa85611414565b935061160860208601611414565b925060408501359150606085013567ffffffffffffffff81111561162b57600080fd5b8501601f8101871361163c57600080fd5b61164b87823560208401611470565b91505092959194509250565b6000806040838503121561166a57600080fd5b61167383611414565b915061168160208401611414565b90509250929050565b600181811c9082168061169e57607f821691505b602082108114156116bf57634e487b7160e01b600052602260045260246000fd5b50919050565b600083516116d7818460208801611390565b8351908301906116eb818360208801611390565b01949350505050565b8281526040602082015260006108d160408301846113bc565b60208082526032908201527f4552433732313a207472616e7366657220746f206e6f6e20455243373231526560408201527131b2b4bb32b91034b6b83632b6b2b73a32b960711b606082015260800190565b634e487b7160e01b600052601160045260246000fd5b600082198211156117885761178861175f565b500190565b60008282101561179f5761179f61175f565b500390565b6001600160a01b03858116825284166020820152604081018390526080606082018190526000906117d7908301846113bc565b9695505050505050565b6000602082840312156117f357600080fd5b81516105928161135d565b60006000198214156118125761181261175f565b5060010190565b634e487b7160e01b600052601260045260246000fd5b60008261183e5761183e611819565b500490565b60008261185257611852611819565b500690565b634e487b7160e01b600052603260045260246000fdfea2646970667358221220ad8d62f7670464b695746c2906432167bbd7b0a1cd1c7a5b8aaa2c513540dbe264736f6c63430008090033",
  "linkReferences": {},
  "deployedLinkReferences": {}
}