{
  "_format": "hh-sol-artifact-1",
  "contractName": "SouvenirGenerator",
  "sourceName": "contracts/SouvenirGenerator.sol",
  "abi": [
    {
      "inputs": [],
      "stateMutability": "nonpayable",
      "type": "constructor"
    },
    {
      "anonymous": false,
      "inputs": [
        {
          "indexed": true,
          "internalType": "address",
          "name": "owner",
          "type": "address"
        },
        {
          "indexed": true,
          "internalType": "address",
          "name": "approved",
          "type": "address"
        },
        {
          "indexed": true,
          "internalType": "uint256",
          "name": "tokenId",
          "type": "uint256"
        }
      ],
      "name": "Approval",
      "type": "event"
    },
    {
      "anonymous": false,
      "inputs": [
        {
          "indexed": true,
          "internalType": "address",
          "name": "owner",
          "type": "address"
        },
        {
          "indexed": true,
          "internalType": "address",
          "name": "operator",
          "type": "address"
        },
        {
          "indexed": false,
          "internalType": "bool",
          "name": "approved",
          "type": "bool"
        }
      ],
      "name": "ApprovalForAll",
      "type": "event"
    },
    {
      "anonymous": false,
      "inputs": [
        {
          "indexed": true,
          "internalType": "address",
          "name": "previousOwner",
          "type": "address"
        },
        {
          "indexed": true,
          "internalType": "address",
          "name": "newOwner",
          "type": "address"
        }
      ],
      "name": "OwnershipTransferred",
      "type": "event"
    },
    {
      "anonymous": false,
      "inputs": [
        {
          "indexed": true,
          "internalType": "address",
          "name": "from",
          "type": "address"
        },
        {
          "indexed": true,
          "internalType": "address",
          "name": "to",
          "type": "address"
        },
        {
          "indexed": true,
          "internalType": "uint256",
          "name": "tokenId",
          "type": "uint256"
        }
      ],
      "name": "Transfer",
      "type": "event"
    },
    {
      "inputs": [
        {
          "internalType": "address",
          "name": "to",
          "type": "address"
        },
        {
          "internalType": "uint256",
          "name": "tokenId",
          "type": "uint256"
        }
      ],
      "name": "approve",
      "outputs": [],
      "stateMutability": "nonpayable",
      "type": "function"
    },
    {
      "inputs": [
        {
          "internalType": "address",
          "name": "owner",
          "type": "address"
        }
      ],
      "name": "balanceOf",
      "outputs": [
        {
          "internalType": "uint256",
          "name": "",
          "type": "uint256"
        }
      ],
      "stateMutability": "view",
      "type": "function"
    },
    {
      "inputs": [
        {
          "internalType": "address",
          "name": "recipient",
          "type": "address"
        },
        {
          "internalType": "string",
          "name": "tokenURI",
          "type": "string"
        }
      ],
      "name": "generateSouvenir",
      "outputs": [
        {
          "internalType": "uint256",
          "name": "",
          "type": "uint256"
        }
      ],
      "stateMutability": "nonpayable",
      "type": "function"
    },
    {
      "inputs": [
        {
          "internalType": "uint256",
          "name": "tokenId",
          "type": "uint256"
        }
      ],
      "name": "getApproved",
      "outputs": [
        {
          "internalType": "address",
          "name": "",
          "type": "address"
        }
      ],
      "stateMutability": "view",
      "type": "function"
    },
    {
      "inputs": [
        {
          "internalType": "address",
          "name": "owner",
          "type": "address"
        },
        {
          "internalType": "address",
          "name": "operator",
          "type": "address"
        }
      ],
      "name": "isApprovedForAll",
      "outputs": [
        {
          "internalType": "bool",
          "name": "",
          "type": "bool"
        }
      ],
      "stateMutability": "view",
      "type": "function"
    },
    {
      "inputs": [],
      "name": "name",
      "outputs": [
        {
          "internalType": "string",
          "name": "",
          "type": "string"
        }
      ],
      "stateMutability": "view",
      "type": "function"
    },
    {
      "inputs": [],
      "name": "owner",
      "outputs": [
        {
          "internalType": "address",
          "name": "",
          "type": "address"
        }
      ],
      "stateMutability": "view",
      "type": "function"
    },
    {
      "inputs": [
        {
          "internalType": "uint256",
          "name": "tokenId",
          "type": "uint256"
        }
      ],
      "name": "ownerOf",
      "outputs": [
        {
          "internalType": "address",
          "name": "",
          "type": "address"
        }
      ],
      "stateMutability": "view",
      "type": "function"
    },
    {
      "inputs": [],
      "name": "renounceOwnership",
      "outputs": [],
      "stateMutability": "nonpayable",
      "type": "function"
    },
    {
      "inputs": [
        {
          "internalType": "address",
          "name": "from",
          "type": "address"
        },
        {
          "internalType": "address",
          "name": "to",
          "type": "address"
        },
        {
          "internalType": "uint256",
          "name": "tokenId",
          "type": "uint256"
        }
      ],
      "name": "safeTransferFrom",
      "outputs": [],
      "stateMutability": "nonpayable",
      "type": "function"
    },
    {
      "inputs": [
        {
          "internalType": "address",
          "name": "from",
          "type": "address"
        },
        {
          "internalType": "address",
          "name": "to",
          "type": "address"
        },
        {
          "internalType": "uint256",
          "name": "tokenId",
          "type": "uint256"
        },
        {
          "internalType": "bytes",
          "name": "data",
          "type": "bytes"
        }
      ],
      "name": "safeTransferFrom",
      "outputs": [],
      "stateMutability": "nonpayable",
      "type": "function"
    },
    {
      "inputs": [
        {
          "internalType": "address",
          "name": "operator",
          "type": "address"
        },
        {
          "internalType": "bool",
          "name": "approved",
          "type": "bool"
        }
      ],
      "name": "setApprovalForAll",
      "outputs": [],
      "stateMutability": "nonpayable",
      "type": "function"
    },
    {
      "inputs": [
        {
          "internalType": "address",
          "name": "_ticketContractAddress",
          "type": "address"
        }
      ],
      "name": "setTicketContractAddress",
      "outputs": [],
      "stateMutability": "nonpayable",
      "type": "function"
    },
    {
      "inputs": [
        {
          "internalType": "bytes4",
          "name": "interfaceId",
          "type": "bytes4"
        }
      ],
      "name": "supportsInterface",
      "outputs": [
        {
          "internalType": "bool",
          "name": "",
          "type": "bool"
        }
      ],
      "stateMutability": "view",
      "type": "function"
    },
    {
      "inputs": [],
      "name": "symbol",
      "outputs": [
        {
          "internalType": "string",
          "name": "",
          "type": "string"
        }
      ],
      "stateMutability": "view",
      "type": "function"
    },
    {
      "inputs": [
        {
          "internalType": "uint256",
          "name": "tokenId",
          "type": "uint256"
        }
      ],
      "name": "tokenURI",
      "outputs": [
        {
          "internalType": "string",
          "name": "",
          "type": "string"
        }
      ],
      "stateMutability": "view",
      "type": "function"
    },
    {
      "inputs": [
        {
          "internalType": "address",
          "name": "",
          "type": "address"
        },
        {
          "internalType": "address",
          "name": "",
          "type": "address"
        },
        {
          "internalType": "uint256",
          "name": "",
          "type": "uint256"
        }
      ],
      "name": "transferFrom",
      "outputs": [],
      "stateMutability": "pure",
      "type": "function"
    },
    {
      "inputs": [
        {
          "internalType": "address",
          "name": "newOwner",
          "type": "address"
        }
      ],
      "name": "transferOwnership",
      "outputs": [],
      "stateMutability": "nonpayable",
      "type": "function"
    }
  ],
  "bytecode": "0x608060405260006009553480156200001657600080fd5b506040518060400160405280600c81526020016b14dbdd5d995b9a5c8813919560a21b8152506040518060400160405280600381526020016213919560ea1b815250620000726200006c620000a660201b60201c565b620000aa565b815162000087906001906020850190620000fa565b5080516200009d906002906020840190620000fa565b505050620001dd565b3390565b600080546001600160a01b038381166001600160a01b0319831681178455604051919092169283917f8be0079c531659141344cd1fd0a4f28419497f9722a3daafe3b4186f6b6457e09190a35050565b8280546200010890620001a0565b90600052602060002090601f0160209004810192826200012c576000855562000177565b82601f106200014757805160ff191683800117855562000177565b8280016001018555821562000177579182015b82811115620001775782518255916020019190600101906200015a565b506200018592915062000189565b5090565b5b808211156200018557600081556001016200018a565b600181811c90821680620001b557607f821691505b60208210811415620001d757634e487b7160e01b600052602260045260246000fd5b50919050565b61180180620001ed6000396000f3fe608060405234801561001057600080fd5b50600436106101165760003560e01c8063715018a6116100a2578063a22cb46511610071578063a22cb46514610239578063b88d4fde1461024c578063c87b56dd1461025f578063e985e9c514610272578063f2fde38b146102ae57600080fd5b8063715018a6146102055780638da5cb5b1461020d57806392826b481461021e57806395d89b411461023157600080fd5b80630d385de1116100e95780630d385de11461019857806323b872dd146101b957806342842e0e146101cc5780636352211e146101df57806370a08231146101f257600080fd5b806301ffc9a71461011b57806306fdde0314610143578063081812fc14610158578063095ea7b314610183575b600080fd5b61012e6101293660046112ea565b6102c1565b60405190151581526020015b60405180910390f35b61014b610313565b60405161013a919061135f565b61016b610166366004611372565b6103a5565b6040516001600160a01b03909116815260200161013a565b6101966101913660046113a7565b6103cc565b005b6101ab6101a636600461145d565b6104e7565b60405190815260200161013a565b6101966101c73660046114bf565b6105a0565b6101966101da3660046114bf565b6105e8565b61016b6101ed366004611372565b610603565b6101ab6102003660046114fb565b610663565b6101966106e9565b6000546001600160a01b031661016b565b61019661022c3660046114fb565b6106fd565b61014b610727565b610196610247366004611516565b610736565b61019661025a366004611552565b610745565b61014b61026d366004611372565b6107c4565b61012e6102803660046115ce565b6001600160a01b03918216600090815260066020908152604080832093909416825291909152205460ff1690565b6101966102bc3660046114fb565b6108d5565b60006001600160e01b031982166380ac58cd60e01b14806102f257506001600160e01b03198216635b5e139f60e01b145b8061030d57506301ffc9a760e01b6001600160e01b03198316145b92915050565b60606001805461032290611601565b80601f016020809104026020016040519081016040528092919081815260200182805461034e90611601565b801561039b5780601f106103705761010080835404028352916020019161039b565b820191906000526020600020905b81548152906001019060200180831161037e57829003601f168201915b5050505050905090565b60006103b08261094e565b506000908152600560205260409020546001600160a01b031690565b60006103d782610603565b9050806001600160a01b0316836001600160a01b0316141561044a5760405162461bcd60e51b815260206004820152602160248201527f4552433732313a20617070726f76616c20746f2063757272656e74206f776e656044820152603960f91b60648201526084015b60405180910390fd5b336001600160a01b038216148061046657506104668133610280565b6104d85760405162461bcd60e51b815260206004820152603e60248201527f4552433732313a20617070726f76652063616c6c6572206973206e6f7420746f60448201527f6b656e206f776e6572206e6f7220617070726f76656420666f7220616c6c00006064820152608401610441565b6104e283836109ad565b505050565b600a546000906001600160a01b0316331461056a5760405162461bcd60e51b815260206004820152603e60248201527f536f7576656e697247656e657261746f723a204f6e6c79205469636b6574206360448201527f6f6e74726163742063616e2063616c6c20746869732066756e6374696f6e00006064820152608401610441565b610578600880546001019055565b600061058360085490565b905061058f8482610a1b565b6105998184610b5d565b9392505050565b60405162461bcd60e51b815260206004820152601c60248201527f596f752063616e2774207472616e7366657220736f7576656e697273000000006044820152606401610441565b6104e283838360405180602001604052806000815250610745565b6000818152600360205260408120546001600160a01b03168061030d5760405162461bcd60e51b8152602060048201526018602482015277115490cdcc8c4e881a5b9d985b1a59081d1bdad95b88125160421b6044820152606401610441565b60006001600160a01b0382166106cd5760405162461bcd60e51b815260206004820152602960248201527f4552433732313a2061646472657373207a65726f206973206e6f7420612076616044820152683634b21037bbb732b960b91b6064820152608401610441565b506001600160a01b031660009081526004602052604090205490565b6106f1610bf7565b6106fb6000610c51565b565b610705610bf7565b600a80546001600160a01b0319166001600160a01b0392909216919091179055565b60606002805461032290611601565b610741338383610ca1565b5050565b61074f3383610d70565b6107b25760405162461bcd60e51b815260206004820152602e60248201527f4552433732313a2063616c6c6572206973206e6f7420746f6b656e206f776e6560448201526d1c881b9bdc88185c1c1c9bdd995960921b6064820152608401610441565b6107be84848484610dee565b50505050565b60606107cf8261094e565b600082815260076020526040812080546107e890611601565b80601f016020809104026020016040519081016040528092919081815260200182805461081490611601565b80156108615780601f1061083657610100808354040283529160200191610861565b820191906000526020600020905b81548152906001019060200180831161084457829003601f168201915b50505050509050600061087f60408051602081019091526000815290565b9050805160001415610892575092915050565b8151156108c45780826040516020016108ac92919061163c565b60405160208183030381529060405292505050919050565b6108cd84610e21565b949350505050565b6108dd610bf7565b6001600160a01b0381166109425760405162461bcd60e51b815260206004820152602660248201527f4f776e61626c653a206e6577206f776e657220697320746865207a65726f206160448201526564647265737360d01b6064820152608401610441565b61094b81610c51565b50565b6000818152600360205260409020546001600160a01b031661094b5760405162461bcd60e51b8152602060048201526018602482015277115490cdcc8c4e881a5b9d985b1a59081d1bdad95b88125160421b6044820152606401610441565b600081815260056020526040902080546001600160a01b0319166001600160a01b03841690811790915581906109e282610603565b6001600160a01b03167f8c5be1e5ebec7d5bd14f71427d1e84f3dd0314c0f7b2291e5b200ac8c7c3b92560405160405180910390a45050565b6001600160a01b038216610a715760405162461bcd60e51b815260206004820181905260248201527f4552433732313a206d696e7420746f20746865207a65726f20616464726573736044820152606401610441565b6000818152600360205260409020546001600160a01b031615610ad65760405162461bcd60e51b815260206004820152601c60248201527f4552433732313a20746f6b656e20616c7265616479206d696e746564000000006044820152606401610441565b6001600160a01b0382166000908152600460205260408120805460019290610aff908490611681565b909155505060008181526003602052604080822080546001600160a01b0319166001600160a01b03861690811790915590518392907fddf252ad1be2c89b69c2b068fc378daa952ba7f163c4a11628f55a4df523b3ef908290a45050565b6000828152600360205260409020546001600160a01b0316610bd85760405162461bcd60e51b815260206004820152602e60248201527f45524337323155524953746f726167653a2055524920736574206f66206e6f6e60448201526d32bc34b9ba32b73a103a37b5b2b760911b6064820152608401610441565b600082815260076020908152604090912082516104e29284019061123b565b6000546001600160a01b031633146106fb5760405162461bcd60e51b815260206004820181905260248201527f4f776e61626c653a2063616c6c6572206973206e6f7420746865206f776e65726044820152606401610441565b600080546001600160a01b038381166001600160a01b0319831681178455604051919092169283917f8be0079c531659141344cd1fd0a4f28419497f9722a3daafe3b4186f6b6457e09190a35050565b816001600160a01b0316836001600160a01b03161415610d035760405162461bcd60e51b815260206004820152601960248201527f4552433732313a20617070726f766520746f2063616c6c6572000000000000006044820152606401610441565b6001600160a01b03838116600081815260066020908152604080832094871680845294825291829020805460ff191686151590811790915591519182527f17307eab39ab6107e8899845ad3d59bd9653f200f220920489ca2b5937696c31910160405180910390a3505050565b600080610d7c83610603565b9050806001600160a01b0316846001600160a01b03161480610dc357506001600160a01b0380821660009081526006602090815260408083209388168352929052205460ff165b806108cd5750836001600160a01b0316610ddc846103a5565b6001600160a01b031614949350505050565b610df9848484610e94565b610e0584848484611030565b6107be5760405162461bcd60e51b815260040161044190611699565b6060610e2c8261094e565b6000610e4360408051602081019091526000815290565b90506000815111610e635760405180602001604052806000815250610599565b80610e6d8461113d565b604051602001610e7e92919061163c565b6040516020818303038152906040529392505050565b826001600160a01b0316610ea782610603565b6001600160a01b031614610f0b5760405162461bcd60e51b815260206004820152602560248201527f4552433732313a207472616e736665722066726f6d20696e636f72726563742060448201526437bbb732b960d91b6064820152608401610441565b6001600160a01b038216610f6d5760405162461bcd60e51b8152602060048201526024808201527f4552433732313a207472616e7366657220746f20746865207a65726f206164646044820152637265737360e01b6064820152608401610441565b610f786000826109ad565b6001600160a01b0383166000908152600460205260408120805460019290610fa19084906116eb565b90915550506001600160a01b0382166000908152600460205260408120805460019290610fcf908490611681565b909155505060008181526003602052604080822080546001600160a01b0319166001600160a01b0386811691821790925591518493918716917fddf252ad1be2c89b69c2b068fc378daa952ba7f163c4a11628f55a4df523b3ef91a4505050565b60006001600160a01b0384163b1561113257604051630a85bd0160e11b81526001600160a01b0385169063150b7a0290611074903390899088908890600401611702565b602060405180830381600087803b15801561108e57600080fd5b505af19250505080156110be575060408051601f3d908101601f191682019092526110bb9181019061173f565b60015b611118573d8080156110ec576040519150601f19603f3d011682016040523d82523d6000602084013e6110f1565b606091505b5080516111105760405162461bcd60e51b815260040161044190611699565b805181602001fd5b6001600160e01b031916630a85bd0160e11b1490506108cd565b506001949350505050565b6060816111615750506040805180820190915260018152600360fc1b602082015290565b8160005b811561118b57806111758161175c565b91506111849050600a8361178d565b9150611165565b60008167ffffffffffffffff8111156111a6576111a66113d1565b6040519080825280601f01601f1916602001820160405280156111d0576020820181803683370190505b5090505b84156108cd576111e56001836116eb565b91506111f2600a866117a1565b6111fd906030611681565b60f81b818381518110611212576112126117b5565b60200101906001600160f81b031916908160001a905350611234600a8661178d565b94506111d4565b82805461124790611601565b90600052602060002090601f01602090048101928261126957600085556112af565b82601f1061128257805160ff19168380011785556112af565b828001600101855582156112af579182015b828111156112af578251825591602001919060010190611294565b506112bb9291506112bf565b5090565b5b808211156112bb57600081556001016112c0565b6001600160e01b03198116811461094b57600080fd5b6000602082840312156112fc57600080fd5b8135610599816112d4565b60005b8381101561132257818101518382015260200161130a565b838111156107be5750506000910152565b6000815180845261134b816020860160208601611307565b601f01601f19169290920160200192915050565b6020815260006105996020830184611333565b60006020828403121561138457600080fd5b5035919050565b80356001600160a01b03811681146113a257600080fd5b919050565b600080604083850312156113ba57600080fd5b6113c38361138b565b946020939093013593505050565b634e487b7160e01b600052604160045260246000fd5b600067ffffffffffffffff80841115611402576114026113d1565b604051601f8501601f19908116603f0116810190828211818310171561142a5761142a6113d1565b8160405280935085815286868601111561144357600080fd5b858560208301376000602087830101525050509392505050565b6000806040838503121561147057600080fd5b6114798361138b565b9150602083013567ffffffffffffffff81111561149557600080fd5b8301601f810185136114a657600080fd5b6114b5858235602084016113e7565b9150509250929050565b6000806000606084860312156114d457600080fd5b6114dd8461138b565b92506114eb6020850161138b565b9150604084013590509250925092565b60006020828403121561150d57600080fd5b6105998261138b565b6000806040838503121561152957600080fd5b6115328361138b565b91506020830135801515811461154757600080fd5b809150509250929050565b6000806000806080858703121561156857600080fd5b6115718561138b565b935061157f6020860161138b565b925060408501359150606085013567ffffffffffffffff8111156115a257600080fd5b8501601f810187136115b357600080fd5b6115c2878235602084016113e7565b91505092959194509250565b600080604083850312156115e157600080fd5b6115ea8361138b565b91506115f86020840161138b565b90509250929050565b600181811c9082168061161557607f821691505b6020821081141561163657634e487b7160e01b600052602260045260246000fd5b50919050565b6000835161164e818460208801611307565b835190830190611662818360208801611307565b01949350505050565b634e487b7160e01b600052601160045260246000fd5b600082198211156116945761169461166b565b500190565b60208082526032908201527f4552433732313a207472616e7366657220746f206e6f6e20455243373231526560408201527131b2b4bb32b91034b6b83632b6b2b73a32b960711b606082015260800190565b6000828210156116fd576116fd61166b565b500390565b6001600160a01b038581168252841660208201526040810183905260806060820181905260009061173590830184611333565b9695505050505050565b60006020828403121561175157600080fd5b8151610599816112d4565b60006000198214156117705761177061166b565b5060010190565b634e487b7160e01b600052601260045260246000fd5b60008261179c5761179c611777565b500490565b6000826117b0576117b0611777565b500690565b634e487b7160e01b600052603260045260246000fdfea2646970667358221220413606828ce5484454ba7448b3f857b571d322246e584236fdd8df57bec57b9e64736f6c63430008090033",
  "linkReferences": {},
  "deployedLinkReferences": {}
}