{
  "_format": "hh-sol-artifact-1",
  "contractName": "SouvenirGenerator",
  "sourceName": "contracts/SouvenirGenerator.sol",
  "abi": [
    {
      "inputs": [],
      "stateMutability": "nonpayable",
      "type": "constructor"
    },
    {
      "anonymous": false,
      "inputs": [
        {
          "indexed": true,
          "internalType": "address",
          "name": "owner",
          "type": "address"
        },
        {
          "indexed": true,
          "internalType": "address",
          "name": "approved",
          "type": "address"
        },
        {
          "indexed": true,
          "internalType": "uint256",
          "name": "tokenId",
          "type": "uint256"
        }
      ],
      "name": "Approval",
      "type": "event"
    },
    {
      "anonymous": false,
      "inputs": [
        {
          "indexed": true,
          "internalType": "address",
          "name": "owner",
          "type": "address"
        },
        {
          "indexed": true,
          "internalType": "address",
          "name": "operator",
          "type": "address"
        },
        {
          "indexed": false,
          "internalType": "bool",
          "name": "approved",
          "type": "bool"
        }
      ],
      "name": "ApprovalForAll",
      "type": "event"
    },
    {
      "anonymous": false,
      "inputs": [
        {
          "indexed": true,
          "internalType": "address",
          "name": "creator",
          "type": "address"
        },
        {
          "indexed": true,
          "internalType": "address",
          "name": "receiver",
          "type": "address"
        },
        {
          "indexed": false,
          "internalType": "uint256",
          "name": "tokenId",
          "type": "uint256"
        },
        {
          "indexed": false,
          "internalType": "string",
          "name": "tokenURI",
          "type": "string"
        }
      ],
      "name": "GenerateSouvenir",
      "type": "event"
    },
    {
      "anonymous": false,
      "inputs": [
        {
          "indexed": true,
          "internalType": "address",
          "name": "previousOwner",
          "type": "address"
        },
        {
          "indexed": true,
          "internalType": "address",
          "name": "newOwner",
          "type": "address"
        }
      ],
      "name": "OwnershipTransferred",
      "type": "event"
    },
    {
      "anonymous": false,
      "inputs": [
        {
          "indexed": true,
          "internalType": "address",
          "name": "from",
          "type": "address"
        },
        {
          "indexed": true,
          "internalType": "address",
          "name": "to",
          "type": "address"
        },
        {
          "indexed": true,
          "internalType": "uint256",
          "name": "tokenId",
          "type": "uint256"
        }
      ],
      "name": "Transfer",
      "type": "event"
    },
    {
      "anonymous": false,
      "inputs": [
        {
          "indexed": true,
          "internalType": "address",
          "name": "sender",
          "type": "address"
        },
        {
          "indexed": true,
          "internalType": "address",
          "name": "receiver",
          "type": "address"
        },
        {
          "indexed": false,
          "internalType": "uint256",
          "name": "tokenId",
          "type": "uint256"
        }
      ],
      "name": "TransferSouvenir",
      "type": "event"
    },
    {
      "inputs": [],
      "name": "EVENT_ORGANIZER",
      "outputs": [
        {
          "internalType": "bytes32",
          "name": "",
          "type": "bytes32"
        }
      ],
      "stateMutability": "view",
      "type": "function"
    },
    {
      "inputs": [],
      "name": "MINTER_ROLE",
      "outputs": [
        {
          "internalType": "bytes32",
          "name": "",
          "type": "bytes32"
        }
      ],
      "stateMutability": "view",
      "type": "function"
    },
    {
      "inputs": [],
      "name": "OWNER_ROLE",
      "outputs": [
        {
          "internalType": "bytes32",
          "name": "",
          "type": "bytes32"
        }
      ],
      "stateMutability": "view",
      "type": "function"
    },
    {
      "inputs": [
        {
          "internalType": "address",
          "name": "to",
          "type": "address"
        },
        {
          "internalType": "uint256",
          "name": "tokenId",
          "type": "uint256"
        }
      ],
      "name": "approve",
      "outputs": [],
      "stateMutability": "nonpayable",
      "type": "function"
    },
    {
      "inputs": [
        {
          "internalType": "address",
          "name": "owner",
          "type": "address"
        }
      ],
      "name": "balanceOf",
      "outputs": [
        {
          "internalType": "uint256",
          "name": "",
          "type": "uint256"
        }
      ],
      "stateMutability": "view",
      "type": "function"
    },
    {
      "inputs": [
        {
          "internalType": "address",
          "name": "recipient",
          "type": "address"
        },
        {
          "internalType": "string",
          "name": "tokenURI",
          "type": "string"
        }
      ],
      "name": "generateSouvenir",
      "outputs": [
        {
          "internalType": "uint256",
          "name": "",
          "type": "uint256"
        }
      ],
      "stateMutability": "nonpayable",
      "type": "function"
    },
    {
      "inputs": [
        {
          "internalType": "uint256",
          "name": "tokenId",
          "type": "uint256"
        }
      ],
      "name": "getApproved",
      "outputs": [
        {
          "internalType": "address",
          "name": "",
          "type": "address"
        }
      ],
      "stateMutability": "view",
      "type": "function"
    },
    {
      "inputs": [
        {
          "internalType": "uint256",
          "name": "tokenId",
          "type": "uint256"
        }
      ],
      "name": "getSouvenirMetadata",
      "outputs": [
        {
          "internalType": "string",
          "name": "",
          "type": "string"
        }
      ],
      "stateMutability": "view",
      "type": "function"
    },
    {
      "inputs": [
        {
          "internalType": "address",
          "name": "owner",
          "type": "address"
        },
        {
          "internalType": "address",
          "name": "operator",
          "type": "address"
        }
      ],
      "name": "isApprovedForAll",
      "outputs": [
        {
          "internalType": "bool",
          "name": "",
          "type": "bool"
        }
      ],
      "stateMutability": "view",
      "type": "function"
    },
    {
      "inputs": [],
      "name": "name",
      "outputs": [
        {
          "internalType": "string",
          "name": "",
          "type": "string"
        }
      ],
      "stateMutability": "view",
      "type": "function"
    },
    {
      "inputs": [],
      "name": "owner",
      "outputs": [
        {
          "internalType": "address",
          "name": "",
          "type": "address"
        }
      ],
      "stateMutability": "view",
      "type": "function"
    },
    {
      "inputs": [
        {
          "internalType": "uint256",
          "name": "tokenId",
          "type": "uint256"
        }
      ],
      "name": "ownerOf",
      "outputs": [
        {
          "internalType": "address",
          "name": "",
          "type": "address"
        }
      ],
      "stateMutability": "view",
      "type": "function"
    },
    {
      "inputs": [],
      "name": "renounceOwnership",
      "outputs": [],
      "stateMutability": "nonpayable",
      "type": "function"
    },
    {
      "inputs": [
        {
          "internalType": "address",
          "name": "from",
          "type": "address"
        },
        {
          "internalType": "address",
          "name": "to",
          "type": "address"
        },
        {
          "internalType": "uint256",
          "name": "tokenId",
          "type": "uint256"
        }
      ],
      "name": "safeTransferFrom",
      "outputs": [],
      "stateMutability": "nonpayable",
      "type": "function"
    },
    {
      "inputs": [
        {
          "internalType": "address",
          "name": "from",
          "type": "address"
        },
        {
          "internalType": "address",
          "name": "to",
          "type": "address"
        },
        {
          "internalType": "uint256",
          "name": "tokenId",
          "type": "uint256"
        },
        {
          "internalType": "bytes",
          "name": "data",
          "type": "bytes"
        }
      ],
      "name": "safeTransferFrom",
      "outputs": [],
      "stateMutability": "nonpayable",
      "type": "function"
    },
    {
      "inputs": [
        {
          "internalType": "address",
          "name": "operator",
          "type": "address"
        },
        {
          "internalType": "bool",
          "name": "approved",
          "type": "bool"
        }
      ],
      "name": "setApprovalForAll",
      "outputs": [],
      "stateMutability": "nonpayable",
      "type": "function"
    },
    {
      "inputs": [
        {
          "internalType": "address",
          "name": "_ticketContractAddress",
          "type": "address"
        }
      ],
      "name": "setTicketContractAddress",
      "outputs": [],
      "stateMutability": "nonpayable",
      "type": "function"
    },
    {
      "inputs": [
        {
          "internalType": "bytes4",
          "name": "interfaceId",
          "type": "bytes4"
        }
      ],
      "name": "supportsInterface",
      "outputs": [
        {
          "internalType": "bool",
          "name": "",
          "type": "bool"
        }
      ],
      "stateMutability": "view",
      "type": "function"
    },
    {
      "inputs": [],
      "name": "symbol",
      "outputs": [
        {
          "internalType": "string",
          "name": "",
          "type": "string"
        }
      ],
      "stateMutability": "view",
      "type": "function"
    },
    {
      "inputs": [
        {
          "internalType": "uint256",
          "name": "tokenId",
          "type": "uint256"
        }
      ],
      "name": "tokenURI",
      "outputs": [
        {
          "internalType": "string",
          "name": "",
          "type": "string"
        }
      ],
      "stateMutability": "view",
      "type": "function"
    },
    {
      "inputs": [
        {
          "internalType": "address",
          "name": "from",
          "type": "address"
        },
        {
          "internalType": "address",
          "name": "to",
          "type": "address"
        },
        {
          "internalType": "uint256",
          "name": "tokenId",
          "type": "uint256"
        }
      ],
      "name": "transferFrom",
      "outputs": [],
      "stateMutability": "nonpayable",
      "type": "function"
    },
    {
      "inputs": [
        {
          "internalType": "address",
          "name": "newOwner",
          "type": "address"
        }
      ],
      "name": "transferOwnership",
      "outputs": [],
      "stateMutability": "nonpayable",
      "type": "function"
    },
    {
      "inputs": [
        {
          "internalType": "address",
          "name": "_receiver",
          "type": "address"
        },
        {
          "internalType": "uint256",
          "name": "_tokenId",
          "type": "uint256"
        }
      ],
      "name": "transferSouvenir",
      "outputs": [],
      "stateMutability": "nonpayable",
      "type": "function"
    }
  ],
  "bytecode": "0x608060405260006009553480156200001657600080fd5b506040518060400160405280600c81526020016b14dbdd5d995b9a5c8813919560a21b8152506040518060400160405280600381526020016213919560ea1b815250620000726200006c620000a660201b60201c565b620000aa565b815162000087906001906020850190620000fa565b5080516200009d906002906020840190620000fa565b505050620001dd565b3390565b600080546001600160a01b038381166001600160a01b0319831681178455604051919092169283917f8be0079c531659141344cd1fd0a4f28419497f9722a3daafe3b4186f6b6457e09190a35050565b8280546200010890620001a0565b90600052602060002090601f0160209004810192826200012c576000855562000177565b82601f106200014757805160ff191683800117855562000177565b8280016001018555821562000177579182015b82811115620001775782518255916020019190600101906200015a565b506200018592915062000189565b5090565b5b808211156200018557600081556001016200018a565b600181811c90821680620001b557607f821691505b60208210811415620001d757634e487b7160e01b600052602260045260246000fd5b50919050565b611a0680620001ed6000396000f3fe608060405234801561001057600080fd5b506004361061014d5760003560e01c80638da5cb5b116100c3578063d098ead61161007c578063d098ead6146102bc578063d5391393146102cf578063dacdd377146102f6578063e58378bb1461031d578063e985e9c514610344578063f2fde38b1461038057600080fd5b80638da5cb5b1461025757806392826b481461026857806395d89b411461027b578063a22cb46514610283578063b88d4fde14610296578063c87b56dd146102a957600080fd5b806313cd566e1161011557806313cd566e146101f057806323b872dd1461020357806342842e0e146102165780636352211e1461022957806370a082311461023c578063715018a61461024f57600080fd5b806301ffc9a71461015257806306fdde031461017a578063081812fc1461018f578063095ea7b3146101ba5780630d385de1146101cf575b600080fd5b610165610160366004611488565b610393565b60405190151581526020015b60405180910390f35b6101826103e5565b60405161017191906114fd565b6101a261019d366004611510565b610477565b6040516001600160a01b039091168152602001610171565b6101cd6101c8366004611545565b61049e565b005b6101e26101dd3660046115fb565b6105b9565b604051908152602001610171565b6101826101fe366004611510565b61064d565b6101cd61021136600461165d565b610658565b6101cd61022436600461165d565b610689565b6101a2610237366004611510565b6106a4565b6101e261024a366004611699565b610704565b6101cd61078a565b6000546001600160a01b03166101a2565b6101cd610276366004611699565b61079e565b6101826107c8565b6101cd6102913660046116b4565b6107d7565b6101cd6102a43660046116f0565b6107e6565b6101826102b7366004611510565b61081e565b6101cd6102ca366004611545565b61092f565b6101e27f9f2df0fed2c77648de5860a4cc508cd0818c85b8b8a1ab4ceeef8d981c8956a681565b6101e27f53862b9283a999da1172fde49c49acd6f83e50293944751a01acf430817ebf3581565b6101e27fb19546dff01e856fb3f010c267a7b1c60363cf8a4664e21cc89c26224620214e81565b61016561035236600461176c565b6001600160a01b03918216600090815260066020908152604080832093909416825291909152205460ff1690565b6101cd61038e366004611699565b6109ee565b60006001600160e01b031982166380ac58cd60e01b14806103c457506001600160e01b03198216635b5e139f60e01b145b806103df57506301ffc9a760e01b6001600160e01b03198316145b92915050565b6060600180546103f49061179f565b80601f01602080910402602001604051908101604052809291908181526020018280546104209061179f565b801561046d5780601f106104425761010080835404028352916020019161046d565b820191906000526020600020905b81548152906001019060200180831161045057829003601f168201915b5050505050905090565b600061048282610a67565b506000908152600560205260409020546001600160a01b031690565b60006104a9826106a4565b9050806001600160a01b0316836001600160a01b0316141561051c5760405162461bcd60e51b815260206004820152602160248201527f4552433732313a20617070726f76616c20746f2063757272656e74206f776e656044820152603960f91b60648201526084015b60405180910390fd5b336001600160a01b038216148061053857506105388133610352565b6105aa5760405162461bcd60e51b815260206004820152603e60248201527f4552433732313a20617070726f76652063616c6c6572206973206e6f7420746f60448201527f6b656e206f776e6572206e6f7220617070726f76656420666f7220616c6c00006064820152608401610513565b6105b48383610ac6565b505050565b600a546000906001600160a01b0316331461063c5760405162461bcd60e51b815260206004820152603e60248201527f536f7576656e697247656e657261746f723a204f6e6c79205469636b6574206360448201527f6f6e74726163742063616e2063616c6c20746869732066756e6374696f6e00006064820152608401610513565b6106468383610b34565b9392505050565b60606103df8261081e565b6106623382610bb9565b61067e5760405162461bcd60e51b8152600401610513906117da565b6105b4838383610c37565b6105b4838383604051806020016040528060008152506107e6565b6000818152600360205260408120546001600160a01b0316806103df5760405162461bcd60e51b8152602060048201526018602482015277115490cdcc8c4e881a5b9d985b1a59081d1bdad95b88125160421b6044820152606401610513565b60006001600160a01b03821661076e5760405162461bcd60e51b815260206004820152602960248201527f4552433732313a2061646472657373207a65726f206973206e6f7420612076616044820152683634b21037bbb732b960b91b6064820152608401610513565b506001600160a01b031660009081526004602052604090205490565b610792610dd3565b61079c6000610e2d565b565b6107a6610dd3565b600a80546001600160a01b0319166001600160a01b0392909216919091179055565b6060600280546103f49061179f565b6107e2338383610e7d565b5050565b6107f03383610bb9565b61080c5760405162461bcd60e51b8152600401610513906117da565b61081884848484610f4c565b50505050565b606061082982610a67565b600082815260076020526040812080546108429061179f565b80601f016020809104026020016040519081016040528092919081815260200182805461086e9061179f565b80156108bb5780601f10610890576101008083540402835291602001916108bb565b820191906000526020600020905b81548152906001019060200180831161089e57829003601f168201915b5050505050905060006108d960408051602081019091526000815290565b90508051600014156108ec575092915050565b81511561091e578082604051602001610906929190611828565b60405160208183030381529060405292505050919050565b61092784610f7f565b949350505050565b6109393382610bb9565b61099f5760405162461bcd60e51b815260206004820152603160248201527f4552433732313a207472616e736665722063616c6c6572206973206e6f74206f6044820152701ddb995c881b9bdc88185c1c1c9bdd9959607a1b6064820152608401610513565b6109aa338383610c37565b6040518181526001600160a01b0383169033907faf870b0bf9d4c6fd1673eb12c4f5cbe44c5092fda78ded901cee87e0f90464ca9060200160405180910390a35050565b6109f6610dd3565b6001600160a01b038116610a5b5760405162461bcd60e51b815260206004820152602660248201527f4f776e61626c653a206e6577206f776e657220697320746865207a65726f206160448201526564647265737360d01b6064820152608401610513565b610a6481610e2d565b50565b6000818152600360205260409020546001600160a01b0316610a645760405162461bcd60e51b8152602060048201526018602482015277115490cdcc8c4e881a5b9d985b1a59081d1bdad95b88125160421b6044820152606401610513565b600081815260056020526040902080546001600160a01b0319166001600160a01b0384169081179091558190610afb826106a4565b6001600160a01b03167f8c5be1e5ebec7d5bd14f71427d1e84f3dd0314c0f7b2291e5b200ac8c7c3b92560405160405180910390a45050565b6000610b44600880546001019055565b6000610b4f60085490565b9050610b5b8482610ff2565b610b658184611134565b836001600160a01b0316336001600160a01b03167fe42ed3601b808464b4a9cdcc3ddf5bb83611e2693ea0c3d4596c18af876fe86a8386604051610baa929190611857565b60405180910390a39392505050565b600080610bc5836106a4565b9050806001600160a01b0316846001600160a01b03161480610c0c57506001600160a01b0380821660009081526006602090815260408083209388168352929052205460ff165b806109275750836001600160a01b0316610c2584610477565b6001600160a01b031614949350505050565b826001600160a01b0316610c4a826106a4565b6001600160a01b031614610cae5760405162461bcd60e51b815260206004820152602560248201527f4552433732313a207472616e736665722066726f6d20696e636f72726563742060448201526437bbb732b960d91b6064820152608401610513565b6001600160a01b038216610d105760405162461bcd60e51b8152602060048201526024808201527f4552433732313a207472616e7366657220746f20746865207a65726f206164646044820152637265737360e01b6064820152608401610513565b610d1b600082610ac6565b6001600160a01b0383166000908152600460205260408120805460019290610d44908490611886565b90915550506001600160a01b0382166000908152600460205260408120805460019290610d7290849061189d565b909155505060008181526003602052604080822080546001600160a01b0319166001600160a01b0386811691821790925591518493918716917fddf252ad1be2c89b69c2b068fc378daa952ba7f163c4a11628f55a4df523b3ef91a4505050565b6000546001600160a01b0316331461079c5760405162461bcd60e51b815260206004820181905260248201527f4f776e61626c653a2063616c6c6572206973206e6f7420746865206f776e65726044820152606401610513565b600080546001600160a01b038381166001600160a01b0319831681178455604051919092169283917f8be0079c531659141344cd1fd0a4f28419497f9722a3daafe3b4186f6b6457e09190a35050565b816001600160a01b0316836001600160a01b03161415610edf5760405162461bcd60e51b815260206004820152601960248201527f4552433732313a20617070726f766520746f2063616c6c6572000000000000006044820152606401610513565b6001600160a01b03838116600081815260066020908152604080832094871680845294825291829020805460ff191686151590811790915591519182527f17307eab39ab6107e8899845ad3d59bd9653f200f220920489ca2b5937696c31910160405180910390a3505050565b610f57848484610c37565b610f63848484846111ce565b6108185760405162461bcd60e51b8152600401610513906118b5565b6060610f8a82610a67565b6000610fa160408051602081019091526000815290565b90506000815111610fc15760405180602001604052806000815250610646565b80610fcb846112db565b604051602001610fdc929190611828565b6040516020818303038152906040529392505050565b6001600160a01b0382166110485760405162461bcd60e51b815260206004820181905260248201527f4552433732313a206d696e7420746f20746865207a65726f20616464726573736044820152606401610513565b6000818152600360205260409020546001600160a01b0316156110ad5760405162461bcd60e51b815260206004820152601c60248201527f4552433732313a20746f6b656e20616c7265616479206d696e746564000000006044820152606401610513565b6001600160a01b03821660009081526004602052604081208054600192906110d690849061189d565b909155505060008181526003602052604080822080546001600160a01b0319166001600160a01b03861690811790915590518392907fddf252ad1be2c89b69c2b068fc378daa952ba7f163c4a11628f55a4df523b3ef908290a45050565b6000828152600360205260409020546001600160a01b03166111af5760405162461bcd60e51b815260206004820152602e60248201527f45524337323155524953746f726167653a2055524920736574206f66206e6f6e60448201526d32bc34b9ba32b73a103a37b5b2b760911b6064820152608401610513565b600082815260076020908152604090912082516105b4928401906113d9565b60006001600160a01b0384163b156112d057604051630a85bd0160e11b81526001600160a01b0385169063150b7a0290611212903390899088908890600401611907565b602060405180830381600087803b15801561122c57600080fd5b505af192505050801561125c575060408051601f3d908101601f1916820190925261125991810190611944565b60015b6112b6573d80801561128a576040519150601f19603f3d011682016040523d82523d6000602084013e61128f565b606091505b5080516112ae5760405162461bcd60e51b8152600401610513906118b5565b805181602001fd5b6001600160e01b031916630a85bd0160e11b149050610927565b506001949350505050565b6060816112ff5750506040805180820190915260018152600360fc1b602082015290565b8160005b8115611329578061131381611961565b91506113229050600a83611992565b9150611303565b60008167ffffffffffffffff8111156113445761134461156f565b6040519080825280601f01601f19166020018201604052801561136e576020820181803683370190505b5090505b841561092757611383600183611886565b9150611390600a866119a6565b61139b90603061189d565b60f81b8183815181106113b0576113b06119ba565b60200101906001600160f81b031916908160001a9053506113d2600a86611992565b9450611372565b8280546113e59061179f565b90600052602060002090601f016020900481019282611407576000855561144d565b82601f1061142057805160ff191683800117855561144d565b8280016001018555821561144d579182015b8281111561144d578251825591602001919060010190611432565b5061145992915061145d565b5090565b5b80821115611459576000815560010161145e565b6001600160e01b031981168114610a6457600080fd5b60006020828403121561149a57600080fd5b813561064681611472565b60005b838110156114c05781810151838201526020016114a8565b838111156108185750506000910152565b600081518084526114e98160208601602086016114a5565b601f01601f19169290920160200192915050565b60208152600061064660208301846114d1565b60006020828403121561152257600080fd5b5035919050565b80356001600160a01b038116811461154057600080fd5b919050565b6000806040838503121561155857600080fd5b61156183611529565b946020939093013593505050565b634e487b7160e01b600052604160045260246000fd5b600067ffffffffffffffff808411156115a0576115a061156f565b604051601f8501601f19908116603f011681019082821181831017156115c8576115c861156f565b816040528093508581528686860111156115e157600080fd5b858560208301376000602087830101525050509392505050565b6000806040838503121561160e57600080fd5b61161783611529565b9150602083013567ffffffffffffffff81111561163357600080fd5b8301601f8101851361164457600080fd5b61165385823560208401611585565b9150509250929050565b60008060006060848603121561167257600080fd5b61167b84611529565b925061168960208501611529565b9150604084013590509250925092565b6000602082840312156116ab57600080fd5b61064682611529565b600080604083850312156116c757600080fd5b6116d083611529565b9150602083013580151581146116e557600080fd5b809150509250929050565b6000806000806080858703121561170657600080fd5b61170f85611529565b935061171d60208601611529565b925060408501359150606085013567ffffffffffffffff81111561174057600080fd5b8501601f8101871361175157600080fd5b61176087823560208401611585565b91505092959194509250565b6000806040838503121561177f57600080fd5b61178883611529565b915061179660208401611529565b90509250929050565b600181811c908216806117b357607f821691505b602082108114156117d457634e487b7160e01b600052602260045260246000fd5b50919050565b6020808252602e908201527f4552433732313a2063616c6c6572206973206e6f7420746f6b656e206f776e6560408201526d1c881b9bdc88185c1c1c9bdd995960921b606082015260800190565b6000835161183a8184602088016114a5565b83519083019061184e8183602088016114a5565b01949350505050565b82815260406020820152600061092760408301846114d1565b634e487b7160e01b600052601160045260246000fd5b60008282101561189857611898611870565b500390565b600082198211156118b0576118b0611870565b500190565b60208082526032908201527f4552433732313a207472616e7366657220746f206e6f6e20455243373231526560408201527131b2b4bb32b91034b6b83632b6b2b73a32b960711b606082015260800190565b6001600160a01b038581168252841660208201526040810183905260806060820181905260009061193a908301846114d1565b9695505050505050565b60006020828403121561195657600080fd5b815161064681611472565b600060001982141561197557611975611870565b5060010190565b634e487b7160e01b600052601260045260246000fd5b6000826119a1576119a161197c565b500490565b6000826119b5576119b561197c565b500690565b634e487b7160e01b600052603260045260246000fdfea2646970667358221220bff1ead74a4af56357f26c0091e814b9e746976a7f2d4cf263e753fee8d5ddfa64736f6c63430008090033",
  "linkReferences": {},
  "deployedLinkReferences": {}
}