{
  "_format": "hh-sol-artifact-1",
  "contractName": "TicketGenerator",
  "sourceName": "contracts/TicketGenerator.sol",
  "abi": [
    {
      "inputs": [
        {
          "internalType": "address",
          "name": "_tokenAddress",
          "type": "address"
        },
        {
          "internalType": "address",
          "name": "_souvenirGeneratorAddress",
          "type": "address"
        }
      ],
      "stateMutability": "nonpayable",
      "type": "constructor"
    },
    {
      "anonymous": false,
      "inputs": [
        {
          "indexed": true,
          "internalType": "bytes32",
          "name": "offerId",
          "type": "bytes32"
        },
        {
          "indexed": true,
          "internalType": "address",
          "name": "buyer",
          "type": "address"
        },
        {
          "indexed": true,
          "internalType": "address",
          "name": "seller",
          "type": "address"
        },
        {
          "indexed": false,
          "internalType": "bytes32",
          "name": "eventId",
          "type": "bytes32"
        },
        {
          "indexed": false,
          "internalType": "bytes32",
          "name": "ticketTypeId",
          "type": "bytes32"
        },
        {
          "indexed": false,
          "internalType": "uint256",
          "name": "ticketId",
          "type": "uint256"
        },
        {
          "indexed": false,
          "internalType": "string",
          "name": "tokenURI",
          "type": "string"
        },
        {
          "indexed": false,
          "internalType": "uint256",
          "name": "price",
          "type": "uint256"
        }
      ],
      "name": "AcceptBuyOffer",
      "type": "event"
    },
    {
      "anonymous": false,
      "inputs": [
        {
          "indexed": true,
          "internalType": "bytes32",
          "name": "offerId",
          "type": "bytes32"
        },
        {
          "indexed": true,
          "internalType": "address",
          "name": "buyer",
          "type": "address"
        },
        {
          "indexed": true,
          "internalType": "address",
          "name": "seller",
          "type": "address"
        },
        {
          "indexed": false,
          "internalType": "bytes32",
          "name": "eventId",
          "type": "bytes32"
        },
        {
          "indexed": false,
          "internalType": "bytes32",
          "name": "ticketTypeId",
          "type": "bytes32"
        },
        {
          "indexed": false,
          "internalType": "uint256",
          "name": "ticketId",
          "type": "uint256"
        },
        {
          "indexed": false,
          "internalType": "string",
          "name": "tokenURI",
          "type": "string"
        },
        {
          "indexed": false,
          "internalType": "uint256",
          "name": "price",
          "type": "uint256"
        }
      ],
      "name": "AcceptSellOffer",
      "type": "event"
    },
    {
      "anonymous": false,
      "inputs": [
        {
          "indexed": true,
          "internalType": "address",
          "name": "owner",
          "type": "address"
        },
        {
          "indexed": true,
          "internalType": "address",
          "name": "approved",
          "type": "address"
        },
        {
          "indexed": true,
          "internalType": "uint256",
          "name": "tokenId",
          "type": "uint256"
        }
      ],
      "name": "Approval",
      "type": "event"
    },
    {
      "anonymous": false,
      "inputs": [
        {
          "indexed": true,
          "internalType": "address",
          "name": "owner",
          "type": "address"
        },
        {
          "indexed": true,
          "internalType": "address",
          "name": "operator",
          "type": "address"
        },
        {
          "indexed": false,
          "internalType": "bool",
          "name": "approved",
          "type": "bool"
        }
      ],
      "name": "ApprovalForAll",
      "type": "event"
    },
    {
      "anonymous": false,
      "inputs": [
        {
          "indexed": true,
          "internalType": "address",
          "name": "account",
          "type": "address"
        }
      ],
      "name": "BecomeOrganizer",
      "type": "event"
    },
    {
      "anonymous": false,
      "inputs": [
        {
          "indexed": true,
          "internalType": "address",
          "name": "buyer",
          "type": "address"
        },
        {
          "indexed": true,
          "internalType": "address",
          "name": "owner",
          "type": "address"
        },
        {
          "indexed": false,
          "internalType": "bytes32",
          "name": "eventId",
          "type": "bytes32"
        },
        {
          "indexed": false,
          "internalType": "bytes32",
          "name": "ticketTypeId",
          "type": "bytes32"
        },
        {
          "indexed": false,
          "internalType": "uint256",
          "name": "tokenId",
          "type": "uint256"
        },
        {
          "indexed": false,
          "internalType": "string",
          "name": "tokenURI",
          "type": "string"
        }
      ],
      "name": "BuyTicket",
      "type": "event"
    },
    {
      "anonymous": false,
      "inputs": [
        {
          "indexed": true,
          "internalType": "bytes32",
          "name": "offerId",
          "type": "bytes32"
        },
        {
          "indexed": true,
          "internalType": "address",
          "name": "sender",
          "type": "address"
        }
      ],
      "name": "CancelOffer",
      "type": "event"
    },
    {
      "anonymous": false,
      "inputs": [
        {
          "indexed": false,
          "internalType": "bytes32",
          "name": "offerId",
          "type": "bytes32"
        },
        {
          "indexed": true,
          "internalType": "address",
          "name": "buyer",
          "type": "address"
        },
        {
          "indexed": false,
          "internalType": "bytes32",
          "name": "eventId",
          "type": "bytes32"
        },
        {
          "indexed": false,
          "internalType": "bytes32",
          "name": "ticketTypeId",
          "type": "bytes32"
        },
        {
          "indexed": false,
          "internalType": "uint256",
          "name": "price",
          "type": "uint256"
        },
        {
          "indexed": false,
          "internalType": "uint256",
          "name": "deadline",
          "type": "uint256"
        }
      ],
      "name": "CreateBuyOffer",
      "type": "event"
    },
    {
      "anonymous": false,
      "inputs": [
        {
          "indexed": true,
          "internalType": "address",
          "name": "creator",
          "type": "address"
        },
        {
          "indexed": false,
          "internalType": "bytes32",
          "name": "eventId",
          "type": "bytes32"
        },
        {
          "indexed": false,
          "internalType": "string",
          "name": "name",
          "type": "string"
        },
        {
          "indexed": false,
          "internalType": "string",
          "name": "description",
          "type": "string"
        },
        {
          "indexed": false,
          "internalType": "string",
          "name": "eventStorage",
          "type": "string"
        },
        {
          "indexed": false,
          "internalType": "string",
          "name": "location",
          "type": "string"
        },
        {
          "indexed": false,
          "internalType": "uint256",
          "name": "startTime",
          "type": "uint256"
        },
        {
          "indexed": false,
          "internalType": "uint256",
          "name": "endTime",
          "type": "uint256"
        }
      ],
      "name": "CreateEvent",
      "type": "event"
    },
    {
      "anonymous": false,
      "inputs": [
        {
          "indexed": true,
          "internalType": "bytes32",
          "name": "offerId",
          "type": "bytes32"
        },
        {
          "indexed": true,
          "internalType": "address",
          "name": "seller",
          "type": "address"
        },
        {
          "indexed": false,
          "internalType": "bytes32",
          "name": "eventId",
          "type": "bytes32"
        },
        {
          "indexed": false,
          "internalType": "bytes32",
          "name": "ticketTypeId",
          "type": "bytes32"
        },
        {
          "indexed": false,
          "internalType": "uint256",
          "name": "ticketId",
          "type": "uint256"
        },
        {
          "indexed": false,
          "internalType": "uint256",
          "name": "price",
          "type": "uint256"
        }
      ],
      "name": "CreateSellOffer",
      "type": "event"
    },
    {
      "anonymous": false,
      "inputs": [
        {
          "indexed": true,
          "internalType": "address",
          "name": "creator",
          "type": "address"
        },
        {
          "indexed": false,
          "internalType": "bytes32",
          "name": "eventId",
          "type": "bytes32"
        },
        {
          "components": [
            {
              "internalType": "bytes32",
              "name": "id",
              "type": "bytes32"
            },
            {
              "internalType": "string",
              "name": "name",
              "type": "string"
            },
            {
              "internalType": "uint256",
              "name": "price",
              "type": "uint256"
            },
            {
              "internalType": "uint256",
              "name": "maxSupply",
              "type": "uint256"
            },
            {
              "internalType": "uint256",
              "name": "currentSupply",
              "type": "uint256"
            },
            {
              "internalType": "string",
              "name": "tokenURI",
              "type": "string"
            },
            {
              "internalType": "string",
              "name": "souvenirTokenURI",
              "type": "string"
            }
          ],
          "indexed": false,
          "internalType": "struct Structs.TicketType",
          "name": "ticketType",
          "type": "tuple"
        }
      ],
      "name": "CreateTicketType",
      "type": "event"
    },
    {
      "anonymous": false,
      "inputs": [
        {
          "indexed": true,
          "internalType": "address",
          "name": "creator",
          "type": "address"
        },
        {
          "indexed": false,
          "internalType": "bytes32",
          "name": "eventId",
          "type": "bytes32"
        }
      ],
      "name": "DeleteEvent",
      "type": "event"
    },
    {
      "anonymous": false,
      "inputs": [
        {
          "indexed": true,
          "internalType": "address",
          "name": "creator",
          "type": "address"
        },
        {
          "indexed": false,
          "internalType": "bytes32",
          "name": "eventId",
          "type": "bytes32"
        },
        {
          "indexed": false,
          "internalType": "bytes32",
          "name": "ticketTypeId",
          "type": "bytes32"
        }
      ],
      "name": "DeleteTicketType",
      "type": "event"
    },
    {
      "anonymous": false,
      "inputs": [
        {
          "indexed": true,
          "internalType": "address",
          "name": "sender",
          "type": "address"
        },
        {
          "indexed": false,
          "internalType": "uint256",
          "name": "amount",
          "type": "uint256"
        }
      ],
      "name": "Deposit",
      "type": "event"
    },
    {
      "anonymous": false,
      "inputs": [
        {
          "indexed": true,
          "internalType": "address",
          "name": "owner",
          "type": "address"
        },
        {
          "components": [
            {
              "internalType": "uint256",
              "name": "id",
              "type": "uint256"
            },
            {
              "internalType": "bytes32",
              "name": "eventId",
              "type": "bytes32"
            },
            {
              "internalType": "bytes32",
              "name": "ticketTypeId",
              "type": "bytes32"
            },
            {
              "internalType": "uint256",
              "name": "souvenirId",
              "type": "uint256"
            },
            {
              "internalType": "address",
              "name": "owner",
              "type": "address"
            },
            {
              "internalType": "bool",
              "name": "souvenirMinted",
              "type": "bool"
            },
            {
              "internalType": "bool",
              "name": "usable",
              "type": "bool"
            },
            {
              "internalType": "bool",
              "name": "used",
              "type": "bool"
            }
          ],
          "indexed": false,
          "internalType": "struct Structs.Ticket",
          "name": "ticket",
          "type": "tuple"
        },
        {
          "indexed": false,
          "internalType": "uint256",
          "name": "tokenId",
          "type": "uint256"
        },
        {
          "indexed": false,
          "internalType": "string",
          "name": "tokenURI",
          "type": "string"
        }
      ],
      "name": "GenerateSouvenir",
      "type": "event"
    },
    {
      "anonymous": false,
      "inputs": [
        {
          "indexed": true,
          "internalType": "bytes32",
          "name": "role",
          "type": "bytes32"
        },
        {
          "indexed": true,
          "internalType": "bytes32",
          "name": "previousAdminRole",
          "type": "bytes32"
        },
        {
          "indexed": true,
          "internalType": "bytes32",
          "name": "newAdminRole",
          "type": "bytes32"
        }
      ],
      "name": "RoleAdminChanged",
      "type": "event"
    },
    {
      "anonymous": false,
      "inputs": [
        {
          "indexed": true,
          "internalType": "bytes32",
          "name": "role",
          "type": "bytes32"
        },
        {
          "indexed": true,
          "internalType": "address",
          "name": "account",
          "type": "address"
        },
        {
          "indexed": true,
          "internalType": "address",
          "name": "sender",
          "type": "address"
        }
      ],
      "name": "RoleGranted",
      "type": "event"
    },
    {
      "anonymous": false,
      "inputs": [
        {
          "indexed": true,
          "internalType": "bytes32",
          "name": "role",
          "type": "bytes32"
        },
        {
          "indexed": true,
          "internalType": "address",
          "name": "account",
          "type": "address"
        },
        {
          "indexed": true,
          "internalType": "address",
          "name": "sender",
          "type": "address"
        }
      ],
      "name": "RoleRevoked",
      "type": "event"
    },
    {
      "anonymous": false,
      "inputs": [
        {
          "indexed": true,
          "internalType": "address",
          "name": "from",
          "type": "address"
        },
        {
          "indexed": true,
          "internalType": "address",
          "name": "to",
          "type": "address"
        },
        {
          "indexed": true,
          "internalType": "uint256",
          "name": "tokenId",
          "type": "uint256"
        }
      ],
      "name": "Transfer",
      "type": "event"
    },
    {
      "anonymous": false,
      "inputs": [
        {
          "indexed": true,
          "internalType": "address",
          "name": "sender",
          "type": "address"
        },
        {
          "indexed": true,
          "internalType": "address",
          "name": "receiver",
          "type": "address"
        },
        {
          "indexed": false,
          "internalType": "uint256",
          "name": "tokenId",
          "type": "uint256"
        }
      ],
      "name": "TransferTicket",
      "type": "event"
    },
    {
      "anonymous": false,
      "inputs": [
        {
          "indexed": true,
          "internalType": "address",
          "name": "creator",
          "type": "address"
        },
        {
          "indexed": false,
          "internalType": "bytes32",
          "name": "eventId",
          "type": "bytes32"
        },
        {
          "indexed": false,
          "internalType": "string",
          "name": "name",
          "type": "string"
        },
        {
          "indexed": false,
          "internalType": "string",
          "name": "description",
          "type": "string"
        },
        {
          "indexed": false,
          "internalType": "string",
          "name": "eventStorage",
          "type": "string"
        },
        {
          "indexed": false,
          "internalType": "string",
          "name": "location",
          "type": "string"
        },
        {
          "indexed": false,
          "internalType": "uint256",
          "name": "startTime",
          "type": "uint256"
        },
        {
          "indexed": false,
          "internalType": "uint256",
          "name": "endTime",
          "type": "uint256"
        }
      ],
      "name": "UpdateEvent",
      "type": "event"
    },
    {
      "anonymous": false,
      "inputs": [
        {
          "indexed": true,
          "internalType": "address",
          "name": "creator",
          "type": "address"
        },
        {
          "indexed": false,
          "internalType": "bytes32",
          "name": "eventId",
          "type": "bytes32"
        },
        {
          "components": [
            {
              "internalType": "bytes32",
              "name": "id",
              "type": "bytes32"
            },
            {
              "internalType": "string",
              "name": "name",
              "type": "string"
            },
            {
              "internalType": "uint256",
              "name": "price",
              "type": "uint256"
            },
            {
              "internalType": "uint256",
              "name": "maxSupply",
              "type": "uint256"
            },
            {
              "internalType": "uint256",
              "name": "currentSupply",
              "type": "uint256"
            },
            {
              "internalType": "string",
              "name": "tokenURI",
              "type": "string"
            },
            {
              "internalType": "string",
              "name": "souvenirTokenURI",
              "type": "string"
            }
          ],
          "indexed": false,
          "internalType": "struct Structs.TicketType",
          "name": "ticketType",
          "type": "tuple"
        }
      ],
      "name": "UpdateTicketType",
      "type": "event"
    },
    {
      "anonymous": false,
      "inputs": [
        {
          "indexed": true,
          "internalType": "address",
          "name": "sender",
          "type": "address"
        },
        {
          "indexed": false,
          "internalType": "uint256",
          "name": "ticketId",
          "type": "uint256"
        }
      ],
      "name": "UseTicket",
      "type": "event"
    },
    {
      "anonymous": false,
      "inputs": [
        {
          "indexed": true,
          "internalType": "address",
          "name": "receiver",
          "type": "address"
        },
        {
          "indexed": false,
          "internalType": "uint256",
          "name": "amount",
          "type": "uint256"
        }
      ],
      "name": "Withdraw",
      "type": "event"
    },
    {
      "inputs": [],
      "name": "DEFAULT_ADMIN_ROLE",
      "outputs": [
        {
          "internalType": "bytes32",
          "name": "",
          "type": "bytes32"
        }
      ],
      "stateMutability": "view",
      "type": "function"
    },
    {
      "inputs": [],
      "name": "MINTER_ROLE",
      "outputs": [
        {
          "internalType": "bytes32",
          "name": "",
          "type": "bytes32"
        }
      ],
      "stateMutability": "view",
      "type": "function"
    },
    {
      "inputs": [],
      "name": "ORGANIZER_ROLE",
      "outputs": [
        {
          "internalType": "bytes32",
          "name": "",
          "type": "bytes32"
        }
      ],
      "stateMutability": "view",
      "type": "function"
    },
    {
      "inputs": [],
      "name": "OWNER_ROLE",
      "outputs": [
        {
          "internalType": "bytes32",
          "name": "",
          "type": "bytes32"
        }
      ],
      "stateMutability": "view",
      "type": "function"
    },
    {
      "inputs": [
        {
          "internalType": "bytes32",
          "name": "id",
          "type": "bytes32"
        },
        {
          "internalType": "uint256",
          "name": "ticketId",
          "type": "uint256"
        }
      ],
      "name": "acceptBuyOffer",
      "outputs": [],
      "stateMutability": "nonpayable",
      "type": "function"
    },
    {
      "inputs": [
        {
          "internalType": "bytes32",
          "name": "id",
          "type": "bytes32"
        },
        {
          "internalType": "uint256",
          "name": "deadline",
          "type": "uint256"
        },
        {
          "internalType": "uint8",
          "name": "v",
          "type": "uint8"
        },
        {
          "internalType": "bytes32",
          "name": "r",
          "type": "bytes32"
        },
        {
          "internalType": "bytes32",
          "name": "s",
          "type": "bytes32"
        }
      ],
      "name": "acceptSellOffer",
      "outputs": [],
      "stateMutability": "nonpayable",
      "type": "function"
    },
    {
      "inputs": [
        {
          "internalType": "address",
          "name": "to",
          "type": "address"
        },
        {
          "internalType": "uint256",
          "name": "tokenId",
          "type": "uint256"
        }
      ],
      "name": "approve",
      "outputs": [],
      "stateMutability": "nonpayable",
      "type": "function"
    },
    {
      "inputs": [
        {
          "internalType": "address",
          "name": "owner",
          "type": "address"
        }
      ],
      "name": "balanceOf",
      "outputs": [
        {
          "internalType": "uint256",
          "name": "",
          "type": "uint256"
        }
      ],
      "stateMutability": "view",
      "type": "function"
    },
    {
      "inputs": [],
      "name": "becomeOrganizer",
      "outputs": [],
      "stateMutability": "nonpayable",
      "type": "function"
    },
    {
      "inputs": [
        {
          "internalType": "bytes32",
          "name": "_eventId",
          "type": "bytes32"
        },
        {
          "internalType": "bytes32",
          "name": "_ticketTypeId",
          "type": "bytes32"
        },
        {
          "internalType": "address",
          "name": "_recipient",
          "type": "address"
        },
        {
          "internalType": "uint256",
          "name": "deadline",
          "type": "uint256"
        },
        {
          "internalType": "uint8",
          "name": "v",
          "type": "uint8"
        },
        {
          "internalType": "bytes32",
          "name": "r",
          "type": "bytes32"
        },
        {
          "internalType": "bytes32",
          "name": "s",
          "type": "bytes32"
        },
        {
          "internalType": "uint256",
          "name": "amount",
          "type": "uint256"
        }
      ],
      "name": "buyTicket",
      "outputs": [
        {
          "internalType": "uint256",
          "name": "",
          "type": "uint256"
        }
      ],
      "stateMutability": "nonpayable",
      "type": "function"
    },
    {
      "inputs": [
        {
          "internalType": "bytes32",
          "name": "id",
          "type": "bytes32"
        }
      ],
      "name": "cancelOffer",
      "outputs": [],
      "stateMutability": "nonpayable",
      "type": "function"
    },
    {
      "inputs": [
        {
          "internalType": "bytes32",
          "name": "eventId",
          "type": "bytes32"
        },
        {
          "internalType": "bytes32",
          "name": "ticketTypeId",
          "type": "bytes32"
        },
        {
          "internalType": "uint256",
          "name": "price",
          "type": "uint256"
        },
        {
          "internalType": "uint256",
          "name": "deadline",
          "type": "uint256"
        },
        {
          "internalType": "uint8",
          "name": "v",
          "type": "uint8"
        },
        {
          "internalType": "bytes32",
          "name": "r",
          "type": "bytes32"
        },
        {
          "internalType": "bytes32",
          "name": "s",
          "type": "bytes32"
        }
      ],
      "name": "createBuyOffer",
      "outputs": [],
      "stateMutability": "nonpayable",
      "type": "function"
    },
    {
      "inputs": [
        {
          "internalType": "string",
          "name": "_name",
          "type": "string"
        },
        {
          "internalType": "string",
          "name": "_description",
          "type": "string"
        },
        {
          "internalType": "string",
          "name": "eventStorage",
          "type": "string"
        },
        {
          "internalType": "string",
          "name": "location",
          "type": "string"
        },
        {
          "internalType": "uint256",
          "name": "startTime",
          "type": "uint256"
        },
        {
          "internalType": "uint256",
          "name": "endTime",
          "type": "uint256"
        }
      ],
      "name": "createEvent",
      "outputs": [],
      "stateMutability": "nonpayable",
      "type": "function"
    },
    {
      "inputs": [
        {
          "internalType": "bytes32",
          "name": "eventId",
          "type": "bytes32"
        },
        {
          "internalType": "bytes32",
          "name": "ticketTypeId",
          "type": "bytes32"
        },
        {
          "internalType": "uint256",
          "name": "ticketId",
          "type": "uint256"
        },
        {
          "internalType": "uint256",
          "name": "price",
          "type": "uint256"
        }
      ],
      "name": "createSellOffer",
      "outputs": [],
      "stateMutability": "nonpayable",
      "type": "function"
    },
    {
      "inputs": [
        {
          "internalType": "bytes32",
          "name": "_eventId",
          "type": "bytes32"
        },
        {
          "internalType": "string",
          "name": "_ticketName",
          "type": "string"
        },
        {
          "internalType": "string",
          "name": "_tokenURI",
          "type": "string"
        },
        {
          "internalType": "string",
          "name": "_souvenirTokenURI",
          "type": "string"
        },
        {
          "internalType": "uint256",
          "name": "_price",
          "type": "uint256"
        },
        {
          "internalType": "uint256",
          "name": "_maxSupply",
          "type": "uint256"
        }
      ],
      "name": "createTicketType",
      "outputs": [],
      "stateMutability": "nonpayable",
      "type": "function"
    },
    {
      "inputs": [
        {
          "internalType": "bytes32",
          "name": "_eventId",
          "type": "bytes32"
        }
      ],
      "name": "deleteEvent",
      "outputs": [],
      "stateMutability": "nonpayable",
      "type": "function"
    },
    {
      "inputs": [
        {
          "internalType": "bytes32",
          "name": "_eventId",
          "type": "bytes32"
        },
        {
          "internalType": "bytes32",
          "name": "_ticketTypeId",
          "type": "bytes32"
        }
      ],
      "name": "deleteTicketType",
      "outputs": [],
      "stateMutability": "nonpayable",
      "type": "function"
    },
    {
      "inputs": [],
      "name": "deposit",
      "outputs": [],
      "stateMutability": "payable",
      "type": "function"
    },
    {
      "inputs": [
        {
          "internalType": "uint256",
          "name": "tokenId",
          "type": "uint256"
        }
      ],
      "name": "getApproved",
      "outputs": [
        {
          "internalType": "address",
          "name": "",
          "type": "address"
        }
      ],
      "stateMutability": "view",
      "type": "function"
    },
    {
      "inputs": [
        {
          "internalType": "uint256",
          "name": "_tokenId",
          "type": "uint256"
        }
      ],
      "name": "getMetadata",
      "outputs": [
        {
          "internalType": "string",
          "name": "",
          "type": "string"
        }
      ],
      "stateMutability": "view",
      "type": "function"
    },
    {
      "inputs": [
        {
          "internalType": "bytes32",
          "name": "role",
          "type": "bytes32"
        }
      ],
      "name": "getRoleAdmin",
      "outputs": [
        {
          "internalType": "bytes32",
          "name": "",
          "type": "bytes32"
        }
      ],
      "stateMutability": "view",
      "type": "function"
    },
    {
      "inputs": [
        {
          "internalType": "uint256",
          "name": "_ticketId",
          "type": "uint256"
        }
      ],
      "name": "getSouvenir",
      "outputs": [
        {
          "internalType": "uint256",
          "name": "",
          "type": "uint256"
        }
      ],
      "stateMutability": "nonpayable",
      "type": "function"
    },
    {
      "inputs": [
        {
          "internalType": "bytes32",
          "name": "role",
          "type": "bytes32"
        },
        {
          "internalType": "address",
          "name": "account",
          "type": "address"
        }
      ],
      "name": "grantRole",
      "outputs": [],
      "stateMutability": "nonpayable",
      "type": "function"
    },
    {
      "inputs": [
        {
          "internalType": "bytes32",
          "name": "role",
          "type": "bytes32"
        },
        {
          "internalType": "address",
          "name": "account",
          "type": "address"
        }
      ],
      "name": "hasRole",
      "outputs": [
        {
          "internalType": "bool",
          "name": "",
          "type": "bool"
        }
      ],
      "stateMutability": "view",
      "type": "function"
    },
    {
      "inputs": [
        {
          "internalType": "address",
          "name": "owner",
          "type": "address"
        },
        {
          "internalType": "address",
          "name": "operator",
          "type": "address"
        }
      ],
      "name": "isApprovedForAll",
      "outputs": [
        {
          "internalType": "bool",
          "name": "",
          "type": "bool"
        }
      ],
      "stateMutability": "view",
      "type": "function"
    },
    {
      "inputs": [],
      "name": "name",
      "outputs": [
        {
          "internalType": "string",
          "name": "",
          "type": "string"
        }
      ],
      "stateMutability": "view",
      "type": "function"
    },
    {
      "inputs": [
        {
          "internalType": "uint256",
          "name": "tokenId",
          "type": "uint256"
        }
      ],
      "name": "ownerOf",
      "outputs": [
        {
          "internalType": "address",
          "name": "",
          "type": "address"
        }
      ],
      "stateMutability": "view",
      "type": "function"
    },
    {
      "inputs": [],
      "name": "ownerWithdraw",
      "outputs": [],
      "stateMutability": "nonpayable",
      "type": "function"
    },
    {
      "inputs": [
        {
          "internalType": "bytes32",
          "name": "role",
          "type": "bytes32"
        },
        {
          "internalType": "address",
          "name": "account",
          "type": "address"
        }
      ],
      "name": "renounceRole",
      "outputs": [],
      "stateMutability": "nonpayable",
      "type": "function"
    },
    {
      "inputs": [
        {
          "internalType": "bytes32",
          "name": "role",
          "type": "bytes32"
        },
        {
          "internalType": "address",
          "name": "account",
          "type": "address"
        }
      ],
      "name": "revokeRole",
      "outputs": [],
      "stateMutability": "nonpayable",
      "type": "function"
    },
    {
      "inputs": [
        {
          "internalType": "address",
          "name": "from",
          "type": "address"
        },
        {
          "internalType": "address",
          "name": "to",
          "type": "address"
        },
        {
          "internalType": "uint256",
          "name": "tokenId",
          "type": "uint256"
        }
      ],
      "name": "safeTransferFrom",
      "outputs": [],
      "stateMutability": "nonpayable",
      "type": "function"
    },
    {
      "inputs": [
        {
          "internalType": "address",
          "name": "from",
          "type": "address"
        },
        {
          "internalType": "address",
          "name": "to",
          "type": "address"
        },
        {
          "internalType": "uint256",
          "name": "tokenId",
          "type": "uint256"
        },
        {
          "internalType": "bytes",
          "name": "data",
          "type": "bytes"
        }
      ],
      "name": "safeTransferFrom",
      "outputs": [],
      "stateMutability": "nonpayable",
      "type": "function"
    },
    {
      "inputs": [
        {
          "internalType": "address",
          "name": "operator",
          "type": "address"
        },
        {
          "internalType": "bool",
          "name": "approved",
          "type": "bool"
        }
      ],
      "name": "setApprovalForAll",
      "outputs": [],
      "stateMutability": "nonpayable",
      "type": "function"
    },
    {
      "inputs": [
        {
          "internalType": "uint256",
          "name": "_organizerDeposit",
          "type": "uint256"
        }
      ],
      "name": "setOrganizerDeposit",
      "outputs": [],
      "stateMutability": "nonpayable",
      "type": "function"
    },
    {
      "inputs": [
        {
          "internalType": "address",
          "name": "_souvenirGeneratorAddress",
          "type": "address"
        }
      ],
      "name": "setSouvenirGeneratorContract",
      "outputs": [],
      "stateMutability": "nonpayable",
      "type": "function"
    },
    {
      "inputs": [
        {
          "internalType": "address",
          "name": "_tokenAddress",
          "type": "address"
        }
      ],
      "name": "setTIKContract",
      "outputs": [],
      "stateMutability": "nonpayable",
      "type": "function"
    },
    {
      "inputs": [
        {
          "internalType": "bytes4",
          "name": "interfaceId",
          "type": "bytes4"
        }
      ],
      "name": "supportsInterface",
      "outputs": [
        {
          "internalType": "bool",
          "name": "",
          "type": "bool"
        }
      ],
      "stateMutability": "view",
      "type": "function"
    },
    {
      "inputs": [],
      "name": "symbol",
      "outputs": [
        {
          "internalType": "string",
          "name": "",
          "type": "string"
        }
      ],
      "stateMutability": "view",
      "type": "function"
    },
    {
      "inputs": [
        {
          "internalType": "uint256",
          "name": "tokenId",
          "type": "uint256"
        }
      ],
      "name": "tokenURI",
      "outputs": [
        {
          "internalType": "string",
          "name": "",
          "type": "string"
        }
      ],
      "stateMutability": "view",
      "type": "function"
    },
    {
      "inputs": [
        {
          "internalType": "address",
          "name": "from",
          "type": "address"
        },
        {
          "internalType": "address",
          "name": "to",
          "type": "address"
        },
        {
          "internalType": "uint256",
          "name": "tokenId",
          "type": "uint256"
        }
      ],
      "name": "transferFrom",
      "outputs": [],
      "stateMutability": "nonpayable",
      "type": "function"
    },
    {
      "inputs": [
        {
          "internalType": "bytes32",
          "name": "_eventId",
          "type": "bytes32"
        },
        {
          "internalType": "string",
          "name": "_name",
          "type": "string"
        },
        {
          "internalType": "string",
          "name": "_description",
          "type": "string"
        },
        {
          "internalType": "string",
          "name": "eventStorage",
          "type": "string"
        },
        {
          "internalType": "string",
          "name": "location",
          "type": "string"
        },
        {
          "internalType": "uint256",
          "name": "startTime",
          "type": "uint256"
        },
        {
          "internalType": "uint256",
          "name": "endTime",
          "type": "uint256"
        }
      ],
      "name": "updateEvent",
      "outputs": [],
      "stateMutability": "nonpayable",
      "type": "function"
    },
    {
      "inputs": [
        {
          "internalType": "bytes32",
          "name": "_eventId",
          "type": "bytes32"
        },
        {
          "internalType": "bytes32",
          "name": "_ticketTypeId",
          "type": "bytes32"
        },
        {
          "internalType": "string",
          "name": "_ticketName",
          "type": "string"
        },
        {
          "internalType": "string",
          "name": "_tokenURI",
          "type": "string"
        },
        {
          "internalType": "string",
          "name": "_souvenirTokenURI",
          "type": "string"
        },
        {
          "internalType": "uint256",
          "name": "_price",
          "type": "uint256"
        },
        {
          "internalType": "uint256",
          "name": "_maxSupply",
          "type": "uint256"
        }
      ],
      "name": "updateTicketType",
      "outputs": [],
      "stateMutability": "nonpayable",
      "type": "function"
    },
    {
      "inputs": [
        {
          "internalType": "uint256",
          "name": "_ticketId",
          "type": "uint256"
        }
      ],
      "name": "useTicket",
      "outputs": [],
      "stateMutability": "nonpayable",
      "type": "function"
    },
    {
      "inputs": [
        {
          "internalType": "uint256",
          "name": "amount",
          "type": "uint256"
        }
      ],
      "name": "userWithdraw",
      "outputs": [],
      "stateMutability": "nonpayable",
      "type": "function"
    }
  ],
  "bytecode": "0x60806040526000600f55600060105566038d7ea4c680006011553480156200002657600080fd5b5060405162005a8538038062005a85833981016040819052620000499162000293565b604080518082018252600a815269151a58dad95d0813919560b21b60208083019182528351808501909452600384526213919560ea1b9084015281519192916200009691600191620001d0565b508051620000ac906002906020840190620001d0565b5050600980546001600160a01b038085166001600160a01b031992831617909255600a805492861692909116919091179055506200010b7fb19546dff01e856fb3f010c267a7b1c60363cf8a4664e21cc89c26224620214e3362000120565b6200011860003362000120565b505062000308565b6200012c828262000130565b5050565b6000828152602081815260408083206001600160a01b038516845290915290205460ff166200012c576000828152602081815260408083206001600160a01b03851684529091529020805460ff191660011790556200018c3390565b6001600160a01b0316816001600160a01b0316837f2f8788117e7eff1d82e926ec794901d17c78024a50270940304540a733656f0d60405160405180910390a45050565b828054620001de90620002cb565b90600052602060002090601f0160209004810192826200020257600085556200024d565b82601f106200021d57805160ff19168380011785556200024d565b828001600101855582156200024d579182015b828111156200024d57825182559160200191906001019062000230565b506200025b9291506200025f565b5090565b5b808211156200025b576000815560010162000260565b80516001600160a01b03811681146200028e57600080fd5b919050565b60008060408385031215620002a757600080fd5b620002b28362000276565b9150620002c26020840162000276565b90509250929050565b600181811c90821680620002e057607f821691505b602082108114156200030257634e487b7160e01b600052602260045260246000fd5b50919050565b61576d80620003186000396000f3fe6080604052600436106102675760003560e01c80636352211e11610144578063baab45fb116100b6578063d547741f1161007a578063d547741f1461074d578063d8827ae51461076d578063e58378bb1461078d578063e5bdaeb7146107af578063e985e9c5146107cf578063f952279e1461081857600080fd5b8063baab45fb146106b1578063c1b9db44146106d1578063c87b56dd146106f1578063d0e30db014610711578063d53913931461071957600080fd5b8063a217fddf11610108578063a217fddf146105fc578063a22cb46514610611578063a38c7eb214610631578063a574cea414610651578063ae1e455414610671578063b88d4fde1461069157600080fd5b80636352211e1461056557806370a08231146105855780637909cb59146105a557806391d14854146105c757806395d89b41146105e757600080fd5b80632d32165f116101dd5780634109ba1f116101a15780634109ba1f146104b057806342842e0e146104d05780634311de8f146104f057806352c0cb6c1461050557806356f725721461052557806363113c6a1461054557600080fd5b80632d32165f146104105780632d3e4094146104305780632f2ff15d1461045057806336568abe146104705780633b9056bf1461049057600080fd5b806315cd972d1161022f57806315cd972d146103325780631cc844bc146103525780631ef791d61461037257806323b872dd14610392578063248a9ca3146103b257806326606448146103f057600080fd5b806301ffc9a71461026c57806306fdde03146102a157806307b17fc9146102c3578063081812fc146102da578063095ea7b314610312575b600080fd5b34801561027857600080fd5b5061028c6102873660046148e5565b610838565b60405190151581526020015b60405180910390f35b3480156102ad57600080fd5b506102b6610849565b604051610298919061495a565b3480156102cf57600080fd5b506102d86108db565b005b3480156102e657600080fd5b506102fa6102f536600461496d565b610ae5565b6040516001600160a01b039091168152602001610298565b34801561031e57600080fd5b506102d861032d3660046149a2565b610b0c565b34801561033e57600080fd5b506102d861034d366004614a78565b610c22565b34801561035e57600080fd5b506102d861036d36600461496d565b610dd3565b34801561037e57600080fd5b506102d861038d366004614b37565b610f98565b34801561039e57600080fd5b506102d86103ad366004614b59565b611219565b3480156103be57600080fd5b506103e26103cd36600461496d565b60009081526020819052604090206001015490565b604051908152602001610298565b3480156103fc57600080fd5b506102d861040b36600461496d565b61124a565b34801561041c57600080fd5b506102d861042b366004614b37565b6114a1565b34801561043c57600080fd5b506103e261044b366004614ba6565b61181c565b34801561045c57600080fd5b506102d861046b366004614c11565b611da4565b34801561047c57600080fd5b506102d861048b366004614c11565b611dc9565b34801561049c57600080fd5b506102d86104ab36600461496d565b611e47565b3480156104bc57600080fd5b506102d86104cb366004614c3d565b612077565b3480156104dc57600080fd5b506102d86104eb366004614b59565b612229565b3480156104fc57600080fd5b506102d8612244565b34801561051157600080fd5b506102d8610520366004614d07565b61234c565b34801561053157600080fd5b506102d8610540366004614d22565b612387565b34801561055157600080fd5b506102d8610560366004614d07565b61267d565b34801561057157600080fd5b506102fa61058036600461496d565b6126b8565b34801561059157600080fd5b506103e26105a0366004614d07565b612718565b3480156105b157600080fd5b506103e260008051602061571883398151915281565b3480156105d357600080fd5b5061028c6105e2366004614c11565b61279e565b3480156105f357600080fd5b506102b66127c7565b34801561060857600080fd5b506103e2600081565b34801561061d57600080fd5b506102d861062c366004614d62565b6127d6565b34801561063d57600080fd5b506103e261064c36600461496d565b6127e1565b34801561065d57600080fd5b506102b661066c36600461496d565b612b1a565b34801561067d57600080fd5b506102d861068c366004614d99565b612b25565b34801561069d57600080fd5b506102d86106ac366004614de0565b612f98565b3480156106bd57600080fd5b506102d86106cc366004614e5c565b612fd0565b3480156106dd57600080fd5b506102d86106ec366004614e9d565b6131dd565b3480156106fd57600080fd5b506102b661070c36600461496d565b6134e5565b6102d86135f6565b34801561072557600080fd5b506103e27f9f2df0fed2c77648de5860a4cc508cd0818c85b8b8a1ab4ceeef8d981c8956a681565b34801561075957600080fd5b506102d8610768366004614c11565b6136a7565b34801561077957600080fd5b506102d8610788366004614ef9565b6136cc565b34801561079957600080fd5b506103e26000805160206156f883398151915281565b3480156107bb57600080fd5b506102d86107ca36600461496d565b61397b565b3480156107db57600080fd5b5061028c6107ea366004614f31565b6001600160a01b03918216600090815260066020908152604080832093909416825291909152205460ff1690565b34801561082457600080fd5b506102d861083336600461496d565b613999565b600061084382613b33565b92915050565b60606001805461085890614f5b565b80601f016020809104026020016040519081016040528092919081815260200182805461088490614f5b565b80156108d15780601f106108a6576101008083540402835291602001916108d1565b820191906000526020600020905b8154815290600101906020018083116108b457829003601f168201915b5050505050905090565b6108f36000805160206157188339815191523361279e565b156109455760405162461bcd60e51b815260206004820152601e60248201527f43616c6c657220697320616c726561647920616e206f7267616e697a6572000060448201526064015b60405180910390fd5b601154600a546040516370a0823160e01b81523360048201526001600160a01b03909116906370a082319060240160206040518083038186803b15801561098b57600080fd5b505afa15801561099f573d6000803e3d6000fd5b505050506040513d601f19601f820116820180604052508101906109c39190614f96565b1015610a1f5760405162461bcd60e51b815260206004820152602560248201527f4e6f7420656e6f75676820746f6b656e7320746f206265636f6d65206f7267616044820152643734bd32b960d91b606482015260840161093c565b600a54601154604051632770a7eb60e21b815233600482015260248101919091526001600160a01b0390911690639dc29fac90604401600060405180830381600087803b158015610a6f57600080fd5b505af1158015610a83573d6000803e3d6000fd5b50505050610a9f60008051602061571883398151915233613b73565b60115460106000828254610ab39190614fc5565b909155505060405133907f05f859dfb18830d36af71675c4fa21aae688563692ab047927d4209bc3270c5f90600090a2565b6000610af082613b7d565b506000908152600560205260409020546001600160a01b031690565b6000610b17826126b8565b9050806001600160a01b0316836001600160a01b03161415610b855760405162461bcd60e51b815260206004820152602160248201527f4552433732313a20617070726f76616c20746f2063757272656e74206f776e656044820152603960f91b606482015260840161093c565b336001600160a01b0382161480610ba15750610ba181336107ea565b610c135760405162461bcd60e51b815260206004820152603e60248201527f4552433732313a20617070726f76652063616c6c6572206973206e6f7420746f60448201527f6b656e206f776e6572206e6f7220617070726f76656420666f7220616c6c0000606482015260840161093c565b610c1d8383613bd0565b505050565b600080516020615718833981519152610c3a81613c3e565b600087604051602001610c4d919061495a565b60408051601f1981840301815291815281516020928301206000818152600b90935291205490915015610cb95760405162461bcd60e51b81526020600482015260146024820152734576656e7420616c72656164792065786973747360601b604482015260640161093c565b6000818152600b602090815260409091208281556001810180546001600160a01b031916331790558951610cf5926002909201918b0190614782565b506000818152600b602090815260409091208851610d1b926005909201918a0190614782565b506000818152600b602090815260409091208751610d4192600790920191890190614782565b506000818152600b602090815260409091208651610d6792600690920191880190614782565b506000818152600b602052604090819020600381018690556004018490555133907fba44e3dea1f095c62db0d9f6facba383bf1c67dd759f22d118d3c81b5fbb36dd90610dc19084908c908c908c908c908c908c90614fdd565b60405180910390a25050505050505050565b6000818152600b60205260409020548190610e005760405162461bcd60e51b815260040161093c90615047565b600080516020615718833981519152610e1881613c3e565b6000838152600b60205260409020600101546001600160a01b03163314610e815760405162461bcd60e51b815260206004820152601f60248201527f4f6e6c79206f7267616e697a65722063616e2072656d6f7665206576656e7400604482015260640161093c565b6000838152600b602052604090206008015415610ee05760405162461bcd60e51b815260206004820152601c60248201527f4576656e74207374696c6c20686173207469636b657420747970657300000000604482015260640161093c565b6000838152600b602052604081208181556001810180546001600160a01b031916905590610f116002830182614806565b60038201600090556004820160009055600582016000610f319190614806565b610f3f600683016000614806565b610f4d600783016000614806565b610f5b600883016000614840565b505060405183815233907f6e3bc81a96d2f5065ad94a6a93273d83748be7ace6c49f293c543738f62a5b6a906020015b60405180910390a2505050565b6000828152600b60205260409020548290610fc55760405162461bcd60e51b815260040161093c90615047565b6000838152600b60209081526040808320858452600a01909152902054839083906110025760405162461bcd60e51b815260040161093c90615075565b60008051602061571883398151915261101a81613c3e565b6000868152600b6020526040902060018101546001600160a01b031633146110975760405162461bcd60e51b815260206004820152602a60248201527f4f6e6c7920746865206f7267616e697a65722063616e2072656d6f7665207469604482015269636b657420747970657360b01b606482015260840161093c565b6000868152600a820160205260408120818155906110b86001830182614806565b6002820160009055600382016000905560048201600090556005820160006110e09190614806565b6110ee600683016000614806565b50506000868152600982016020526040812054600883015460ff9091169190611119906001906150ac565b90506000836008018260ff1681548110611135576111356150cf565b6000918252602080832090910154808352600987019091526040808320805460ff881660ff1991821681179092558d8552919093208054909116905560088601805491935083929091811061118c5761118c6150cf565b600091825260209091200155600884018054806111ab576111ab6150e5565b60019003818190600052602060002001600090559055336001600160a01b03167fd7e867a3c1b30b85f1c4060ae5f328a610ab1b13aabd5415372dd1c8637154ab8b8b604051611205929190918252602082015260400190565b60405180910390a250505050505050505050565b6112233382613c48565b61123f5760405162461bcd60e51b815260040161093c906150fb565b610c1d838383613cc6565b8061125481613e62565b6112705760405162461bcd60e51b815260040161093c90615149565b60008051602061571883398151915261128881613c3e565b6000838152600d6020526040902060040154600160b01b900460ff16156112ea5760405162461bcd60e51b8152602060048201526016602482015275151a58dad95d081a5cc8185b1c9958591e481d5cd95960521b604482015260640161093c565b6000838152600d602090815260408083206001908101548452600b90925290912001546001600160a01b031633146113585760405162461bcd60e51b81526020600482015260116024820152702737ba103a34329037b933b0b734bd32b960791b604482015260640161093c565b6000838152600d60209081526040808320600101548352600b909152902060040154156113e1576000838152600d60209081526040808320600101548352600b90915290206004015442106113e15760405162461bcd60e51b815260206004820152600f60248201526e115d995b9d081a185cc8195b991959608a1b604482015260640161093c565b6000838152600d60209081526040808320600101548352600b90915290206003015442101561144a5760405162461bcd60e51b8152602060048201526015602482015274115d995b9d081a185cc81b9bdd081cdd185c9d1959605a1b604482015260640161093c565b6000838152600d602052604090819020600401805461ffff60a81b1916600160b01b1790555133907f31684b65477a7d1fd4edef84ea40d8f3d6c7531a2e48dfdf9c8c55c8ec5496f990610f8b9086815260200190565b6000828152600e602052604090205482906114ce5760405162461bcd60e51b815260040161093c90615178565b6000838152600e6020526040902060068101546001600160a01b03163314156115395760405162461bcd60e51b815260206004820152601a60248201527f43616e6e6f742062757920796f7572206f776e207469636b6574000000000000604482015260640161093c565b600481810154600a546006840154604051636eb1769f60e11b81526001600160a01b0391821694810194909452306024850152919291169063dd62ed3e9060440160206040518083038186803b15801561159257600080fd5b505afa1580156115a6573d6000803e3d6000fd5b505050506040513d601f19601f820116820180604052508101906115ca9190614f96565b10156115e85760405162461bcd60e51b815260040161093c906151a6565b60038101839055600a5460068201546004808401546040516323b872dd60e01b81526001600160a01b0393841692810192909252336024830152604482015260009291909116906323b872dd90606401602060405180830381600087803b15801561165257600080fd5b505af1158015611666573d6000803e3d6000fd5b505050506040513d601f19601f8201168201806040525081019061168a91906151dd565b9050806116a95760405162461bcd60e51b815260040161093c906151fa565b600682015460038301546116ca9133916001600160a01b0390911690613e7f565b60068201805460ff60a01b198116600160a01b178255600580850180546001600160a01b0319908116339081179092556003870180546000908152600d60209081526040808320600490810180549096166001600160a01b03998a1617909555835483528083208501805460ff60a81b1916600160a81b179055975460018b015460028c01549454818552600b84528a8520868652600a0190935292899020948b0154985195989716968d967f7290e6fa19a97e2b68363bf3455b9fa2fa8b741ea3cb84b7b3eabcb93fd246ec966117a99694959490910191906152c3565b60405180910390a4505050600091825250600e60205260408120818155600181018290556002810182905560038101829055600481018290556005810180546001600160a01b03191690556006810180546001600160a81b03191690556007810191909155600801805461ffff19169055565b6000888152600b602052604081205489906118495760405162461bcd60e51b815260040161093c90615047565b60008a8152600b602090815260408083208c8452600a019091529020548a908a906118865760405162461bcd60e51b815260040161093c90615075565b60008c8152600b602090815260408083208e8452600a810190925290912060048101546118f55760405162461bcd60e51b815260206004820152601f60248201527f5469636b6574732066726f6d2074686973207479706520736f6c64206f757400604482015260640161093c565b8a1561197b57600a60009054906101000a90046001600160a01b03166001600160a01b031663d505accf33308a8f8f8f8f6040518863ffffffff1660e01b815260040161194897969594939291906152fa565b600060405180830381600087803b15801561196257600080fd5b505af1158015611976573d6000803e3d6000fd5b505050505b6002810154600a54604051636eb1769f60e11b81523360048201523060248201526001600160a01b039091169063dd62ed3e9060440160206040518083038186803b1580156119c957600080fd5b505afa1580156119dd573d6000803e3d6000fd5b505050506040513d601f19601f82011682018060405250810190611a019190614f96565b1015611a1f5760405162461bcd60e51b815260040161093c906151a6565b600a54600183015460028301546040516323b872dd60e01b81523360048201526001600160a01b039283166024820152604481019190915260009291909116906323b872dd90606401602060405180830381600087803b158015611a8257600080fd5b505af1158015611a96573d6000803e3d6000fd5b505050506040513d601f19601f82011682018060405250810190611aba91906151dd565b905080611ad95760405162461bcd60e51b815260040161093c906151fa565b600482018054906000611aeb8361533b565b91905055506000611b888e846005018054611b0590614f5b565b80601f0160208091040260200160405190810160405280929190818152602001828054611b3190614f5b565b8015611b7e5780601f10611b5357610100808354040283529160200191611b7e565b820191906000526020600020905b815481529060010190602001808311611b6157829003601f168201915b5050505050613ef6565b6040805161010081018252600080825260208201819052918101829052606081018290526080810182905260a0810182905260c0810182905260e08101919091529091508181600001818152505084600001548160200181815250508f8160400181815250508e81608001906001600160a01b031690816001600160a01b03168152505060018160c001901515908115158152505060008160a001901515908115158152505060008160e001901515908115158152505080600d60008481526020019081526020016000206000820151816000015560208201518160010155604082015181600201556060820151816003015560808201518160040160006101000a8154816001600160a01b0302191690836001600160a01b0316021790555060a08201518160040160146101000a81548160ff02191690831515021790555060c08201518160040160156101000a81548160ff02191690831515021790555060e08201518160040160166101000a81548160ff021916908315150217905550905050600c8290806001815401808255809150506001900390600052602060002001600090919091909150558e6001600160a01b0316336001600160a01b03167fc7ec5a63397c2e4326b9522abeedaab52d40b2ae3118d9f95f5ab2ee4abf03a4836020015184604001518689600501604051611d889493929190615352565b60405180910390a3509f9e505050505050505050505050505050565b600082815260208190526040902060010154611dbf81613c3e565b610c1d8383613f2e565b6001600160a01b0381163314611e395760405162461bcd60e51b815260206004820152602f60248201527f416363657373436f6e74726f6c3a2063616e206f6e6c792072656e6f756e636560448201526e103937b632b9903337b91039b2b63360891b606482015260840161093c565b611e438282613fb2565b5050565b600a546040516370a0823160e01b81523360048201526000916001600160a01b0316906370a082319060240160206040518083038186803b158015611e8b57600080fd5b505afa158015611e9f573d6000803e3d6000fd5b505050506040513d601f19601f82011682018060405250810190611ec39190614f96565b905080821115611f155760405162461bcd60e51b815260206004820152601a60248201527f4e6f7420656e6f75676820746f2062652077697468647261776e000000000000604482015260640161093c565b600f54821115611f675760405162461bcd60e51b815260206004820152601e60248201527f57697468647261772069732063757272656e746c792064697361626c65640000604482015260640161093c565b604051600090339084156108fc0290859084818181858888f19350505050905080611fc25760405162461bcd60e51b815260206004820152600b60248201526a1cd95b990819985a5b195960aa1b604482015260640161093c565b600a54604051632770a7eb60e21b8152336004820152602481018590526001600160a01b0390911690639dc29fac90604401600060405180830381600087803b15801561200e57600080fd5b505af1158015612022573d6000803e3d6000fd5b50506040518581523392507f884edad9ce6fa2440d8a54cc123490eb96d2768479d49ff9c7366125a9424364915060200160405180910390a282600f600082825461206d9190615381565b9091555050505050565b6000878152600b602052604090205487906120a45760405162461bcd60e51b815260040161093c90615047565b6000805160206157188339815191526120bc81613c3e565b6000898152600b60205260409020600101546001600160a01b031633146121255760405162461bcd60e51b815260206004820152601d60248201527f4f6e6c79206f7267616e697a65722063616e2065646974206576656e74000000604482015260640161093c565b6000898152600b60209081526040909120895161214a926002909201918b0190614782565b506000898152600b602090815260409091208851612170926005909201918a0190614782565b506000898152600b60209081526040909120875161219692600790920191890190614782565b506000898152600b6020908152604090912086516121bc92600690920191880190614782565b506000898152600b602052604090819020600381018690556004018490555133907fc6c3b5ce58b3196884cdaee9a17eb22ca93be1fe7ed9dc66fcb99d4c5148d13b90612216908c908c908c908c908c908c908c90614fdd565b60405180910390a2505050505050505050565b610c1d83838360405180602001604052806000815250612f98565b6000805160206156f883398151915261225c81613c3e565b6000601054116122ae5760405162461bcd60e51b815260206004820152601a60248201527f4e6f7420656e6f75676820746f2062652077697468647261776e000000000000604482015260640161093c565b601054604051600091339181156108fc02919084818181858888f1935050505090508061230b5760405162461bcd60e51b815260206004820152600b60248201526a1cd95b990819985a5b195960aa1b604482015260640161093c565b60105460405190815233907f884edad9ce6fa2440d8a54cc123490eb96d2768479d49ff9c7366125a94243649060200160405180910390a250506000601055565b6000805160206156f883398151915261236481613c3e565b50600980546001600160a01b0319166001600160a01b0392909216919091179055565b6000848152600b602052604090205484906123b45760405162461bcd60e51b815260040161093c90615047565b6000858152600b60209081526040808320878452600a01909152902054859085906123f15760405162461bcd60e51b815260040161093c90615075565b846123fb81613e62565b6124175760405162461bcd60e51b815260040161093c90615149565b8533612422826126b8565b6001600160a01b0316146124485760405162461bcd60e51b815260040161093c90615398565b604080513360208201529081018a9052606081018990526080810188905260009060a00160408051808303601f1901815291815281516020928301206000818152600e909352912060080154909150610100900460ff16156124fe5760405162461bcd60e51b815260206004820152602960248201527f53656c6c206f6666657220616c72656164792065786973747320666f722074686044820152681a5cc81d1a58dad95d60ba1b606482015260840161093c565b61250661485e565b8181523360a0820181815260208084018e815260408086018f8152606087018f8152608088018f81526000610100808b018281526101208c0183815260016101408e018181528f8652600e8c528986208f5181559a51918b0191909155965160028a015594516003890155925160048089019190915598516005880180546001600160a01b039283166001600160a01b031990911617905560c08c015160068901805460e08f01511515600160a01b026001600160a81b03199091169290931691909117919091179055915160078701559151600890950180549351151590910261ff00199515159590951661ffff19909316929092179390931790558d8252600d909252819020909101805460ff60a81b191690555183907f0f27c48668db2e12a5e88bc77cf8b459181c7ee1e6264ddb55242efe89d9d03990612668908f908f908f908f9093845260208401929092526040830152606082015260800190565b60405180910390a35050505050505050505050565b6000805160206156f883398151915261269581613c3e565b50600a80546001600160a01b0319166001600160a01b0392909216919091179055565b6000818152600360205260408120546001600160a01b0316806108435760405162461bcd60e51b8152602060048201526018602482015277115490cdcc8c4e881a5b9d985b1a59081d1bdad95b88125160421b604482015260640161093c565b60006001600160a01b0382166127825760405162461bcd60e51b815260206004820152602960248201527f4552433732313a2061646472657373207a65726f206973206e6f7420612076616044820152683634b21037bbb732b960b91b606482015260840161093c565b506001600160a01b031660009081526004602052604090205490565b6000918252602082815260408084206001600160a01b0393909316845291905290205460ff1690565b60606002805461085890614f5b565b611e43338383614017565b6000816127ed81613e62565b6128095760405162461bcd60e51b815260040161093c90615149565b8233612814826126b8565b6001600160a01b03161461283a5760405162461bcd60e51b815260040161093c90615398565b6000848152600d602090815260409182902082516101008101845281548152600182015492810192909252600281015492820192909252600382015460608201526004909101546001600160a01b038116608083015260ff600160a01b8204811615801560a0850152600160a81b83048216151560c0850152600160b01b90920416151560e083015261290f5760405162461bcd60e51b815260206004820152601760248201527f536f7576656e697220616c7265616479206d696e746564000000000000000000604482015260640161093c565b8060e001516129605760405162461bcd60e51b815260206004820152601d60248201527f5469636b6574207374696c6c206861736e2774206265656e2075736564000000604482015260640161093c565b6009546020808301516000908152600b82526040808220818601518352600a019092528181209151630d385de160e01b815290926001600160a01b031691630d385de1916129b89133916006909101906004016153e0565b602060405180830381600087803b1580156129d257600080fd5b505af11580156129e6573d6000803e3d6000fd5b505050506040513d601f19601f82011682018060405250810190612a0a9190614f96565b600160a084018181526060850183815260008a8152600d6020908152604080832089518155828a0151968101879055818a01805160028301559451600382015560808a0151600482018054975160c08d015160e08e01511515600160b01b0260ff60b01b19911515600160a81b029190911661ffff60a81b19921515600160a01b026001600160a81b0319909b166001600160a01b039095169490941799909917169190911796909617909555948252600b815284822092518252600a909201909152829020915192935033927fbfb0d88738cabb67e80487f01fe7851fe075d3a6314462e7576e719ef025892a92612b099291869160060190615404565b60405180910390a295945050505050565b6060610843826134e5565b6000858152600e60205260409020548590612b525760405162461bcd60e51b815260040161093c90615178565b6000868152600e6020526040902060058101546001600160a01b0316331415612bbd5760405162461bcd60e51b815260206004820152601a60248201527f43616e6e6f742062757920796f7572206f776e207469636b6574000000000000604482015260640161093c565b600a5460048083015460405163d505accf60e01b81526001600160a01b039093169263d505accf92612bfb92339230928d918d918d918d91016152fa565b600060405180830381600087803b158015612c1557600080fd5b505af1158015612c29573d6000803e3d6000fd5b50505050600481810154600a54604051636eb1769f60e11b8152339381019390935230602484015290916001600160a01b039091169063dd62ed3e9060440160206040518083038186803b158015612c8057600080fd5b505afa158015612c94573d6000803e3d6000fd5b505050506040513d601f19601f82011682018060405250810190612cb89190614f96565b1015612cd65760405162461bcd60e51b815260040161093c906151a6565b600a5460058201546004808401546040516323b872dd60e01b815233928101929092526001600160a01b039283166024830152604482015260009291909116906323b872dd90606401602060405180830381600087803b158015612d3957600080fd5b505af1158015612d4d573d6000803e3d6000fd5b505050506040513d601f19601f82011682018060405250810190612d7191906151dd565b905080612d905760405162461bcd60e51b815260040161093c906151fa565b60058201546003830154612daf916001600160a01b0316903390613e7f565b60018260060160146101000a81548160ff021916908315150217905550338260060160006101000a8154816001600160a01b0302191690836001600160a01b031602179055506001600d60008460030154815260200190815260200160002060040160156101000a81548160ff0219169083151502179055508160060160009054906101000a90046001600160a01b0316600d60008460030154815260200190815260200160002060040160006101000a8154816001600160a01b0302191690836001600160a01b03160217905550336001600160a01b03168260050160009054906101000a90046001600160a01b03166001600160a01b0316897f74d4a4b83241ac6e92c85cb30050e3a85c7c42122aeef8712fc2f603a3a8c3cb856001015486600201548760030154600b60008a600101548152602001908152602001600020600a0160008a6002015481526020019081526020016000206005018960040154604051612f229594939291906152c3565b60405180910390a450505060009485525050600e602052505060408120818155600181018290556002810182905560038101829055600481018290556005810180546001600160a01b03191690556006810180546001600160a81b03191690556007810191909155600801805461ffff19169055565b612fa23383613c48565b612fbe5760405162461bcd60e51b815260040161093c906150fb565b612fca848484846140de565b50505050565b6000878152600b60205260409020548790612ffd5760405162461bcd60e51b815260040161093c90615047565b6000888152600b602090815260408083208a8452600a019091529020548890889061303a5760405162461bcd60e51b815260040161093c90615075565b60008051602061571883398151915261305281613c3e565b60008b8152600b60205260409020600101546001600160a01b031633146130cc5760405162461bcd60e51b815260206004820152602860248201527f4f6e6c7920746865206f7267616e697a65722063616e2065646974207469636b604482015267657420747970657360c01b606482015260840161093c565b6040805160e0810182528b815260208082018c81528284018a9052606083018990526080830189905260a083018c905260c083018b905260008f8152600b83528481208f8252600a01835293909320825181559251805192938493909261313a926001850192910190614782565b5060408201516002820155606082015160038201556080820151600482015560a08201518051613174916005840191602090910190614782565b5060c08201518051613190916006840191602090910190614782565b50506040513391507ffc051c354a57b794e7a2a34dc7a0ab81839aab32ad19ecc48bc4f2a549d7e469906131c7908f908590615498565b60405180910390a2505050505050505050505050565b6000878152600b6020526040902054879061320a5760405162461bcd60e51b815260040161093c90615047565b6000888152600b602090815260408083208a8452600a01909152902054889088906132475760405162461bcd60e51b815260040161093c90615075565b604080513360208083018290528284018e9052606083018d905260ff8a16608084015260a0830189905260c08084018990528451808503909101815260e08401948590528051910120600a5463d505accf60e01b909452926001600160a01b03169163d505accf916132c79130908e908e908e908e908e9060e4016152fa565b600060405180830381600087803b1580156132e157600080fd5b505af11580156132f5573d6000803e3d6000fd5b5050505061330161485e565b81816000018181525050338160c001906001600160a01b031690816001600160a01b0316815250508b8160200181815250508a81604001818152505089816080018181525050888161010001818152505060018161012001901515908115158152505060008161014001901515908115158152505080600e6000848152602001908152602001600020600082015181600001556020820151816001015560408201518160020155606082015181600301556080820151816004015560a08201518160050160006101000a8154816001600160a01b0302191690836001600160a01b0316021790555060c08201518160060160006101000a8154816001600160a01b0302191690836001600160a01b0316021790555060e08201518160060160146101000a81548160ff02191690831515021790555061010082015181600701556101208201518160080160006101000a81548160ff0219169083151502179055506101408201518160080160016101000a81548160ff021916908315150217905550905050336001600160a01b03167f8c0532da8a9f0675da764e7b35fbb8c2c8868976193fc36ffad259ddb5675ca4838e8e8e8e6040516131c7959493929190948552602085019390935260408401919091526060830152608082015260a00190565b60606134f082613b7d565b6000828152600760205260408120805461350990614f5b565b80601f016020809104026020016040519081016040528092919081815260200182805461353590614f5b565b80156135825780601f1061355757610100808354040283529160200191613582565b820191906000526020600020905b81548152906001019060200180831161356557829003601f168201915b5050505050905060006135a060408051602081019091526000815290565b90508051600014156135b3575092915050565b8151156135e55780826040516020016135cd929190615520565b60405160208183030381529060405292505050919050565b6135ee84614111565b949350505050565b600a546040516340c10f1960e01b81523360048201523460248201526001600160a01b03909116906340c10f1990604401600060405180830381600087803b15801561364157600080fd5b505af1158015613655573d6000803e3d6000fd5b5050505034600f600082825461366b9190614fc5565b909155505060405134815233907fe1fffcc4923d04b559f4d29a8bfc6cda04eb5b0d3c460751c2402c5c5cc9109c9060200160405180910390a2565b6000828152602081905260409020600101546136c281613c3e565b610c1d8383613fb2565b6000868152600b602052604090205486906136f95760405162461bcd60e51b815260040161093c90615047565b60008051602061571883398151915261371181613c3e565b6000888860405160200161372692919061554f565b60408051601f19818403018152918152815160209283012060008c8152600b9093529120600101549091506001600160a01b031633146137ce5760405162461bcd60e51b815260206004820152603760248201527f4f6e6c7920746865206f7267616e697a6572206f662074686973206576656e7460448201527f2063616e20637265617465207469636b65742074797065000000000000000000606482015260840161093c565b6000898152600b60209081526040808320848452600a01909152902054156138385760405162461bcd60e51b815260206004820152601a60248201527f5469636b6574207479706520616c726561647920657869737473000000000000604482015260640161093c565b6040805160e08101825282815260208082018b8152828401899052606083018890526080830188905260a083018b905260c083018a905260008d8152600b8352848120868252600a0183529390932082518155925180519293849390926138a6926001850192910190614782565b5060408201516002820155606082015160038201556080820151600482015560a082015180516138e0916005840191602090910190614782565b5060c082015180516138fc916006840191602090910190614782565b50505060008a8152600b6020818152604080842060088101805488875260099092018452828620805460ff191660ff9093169290921790915592825282546001810184559284529220018390555133907f86f1c49c5e96f57ffd1bbdcf5973aa010e8c5bb16218eaace76fa50c7e66b5b790611205908d908590615498565b6000805160206156f883398151915261399381613c3e565b50601155565b6000818152600e602052604090205481906139c65760405162461bcd60e51b815260040161093c90615178565b6000828152600e6020526040902060068101546001600160a01b0316331480156139f95750600881015460ff1615156001145b80613a2a575060058101546001600160a01b031633148015613a2a5750600881015460ff6101009091041615156001145b613a765760405162461bcd60e51b815260206004820152601c60248201527f4e6f74207468652063726561746f72206f6620746865206f6666657200000000604482015260640161093c565b6000838152600e602081815260408084206003810180548652600d84528286206004908101805460ff60a81b1916600160a81b179055898752949093528481556001810185905560028101859055918490559181018390556005810180546001600160a01b03191690556006810180546001600160a81b031916905560078101839055600801805461ffff1916905551339185917f74aeca155f6310e463cf88472fe14b61a7990f14c88a8f0a03b10306a88da8429190a3505050565b60006001600160e01b031982166380ac58cd60e01b1480613b6457506001600160e01b03198216635b5e139f60e01b145b80610843575061084382614184565b611e438282613f2e565b613b8681613e62565b613bcd5760405162461bcd60e51b8152602060048201526018602482015277115490cdcc8c4e881a5b9d985b1a59081d1bdad95b88125160421b604482015260640161093c565b50565b600081815260056020526040902080546001600160a01b0319166001600160a01b0384169081179091558190613c05826126b8565b6001600160a01b03167f8c5be1e5ebec7d5bd14f71427d1e84f3dd0314c0f7b2291e5b200ac8c7c3b92560405160405180910390a45050565b613bcd81336141b9565b600080613c54836126b8565b9050806001600160a01b0316846001600160a01b03161480613c9b57506001600160a01b0380821660009081526006602090815260408083209388168352929052205460ff165b806135ee5750836001600160a01b0316613cb484610ae5565b6001600160a01b031614949350505050565b826001600160a01b0316613cd9826126b8565b6001600160a01b031614613d3d5760405162461bcd60e51b815260206004820152602560248201527f4552433732313a207472616e736665722066726f6d20696e636f72726563742060448201526437bbb732b960d91b606482015260840161093c565b6001600160a01b038216613d9f5760405162461bcd60e51b8152602060048201526024808201527f4552433732313a207472616e7366657220746f20746865207a65726f206164646044820152637265737360e01b606482015260840161093c565b613daa600082613bd0565b6001600160a01b0383166000908152600460205260408120805460019290613dd3908490615381565b90915550506001600160a01b0382166000908152600460205260408120805460019290613e01908490614fc5565b909155505060008181526003602052604080822080546001600160a01b0319166001600160a01b0386811691821790925591518493918716917fddf252ad1be2c89b69c2b068fc378daa952ba7f163c4a11628f55a4df523b3ef91a4505050565b6000908152600360205260409020546001600160a01b0316151590565b613e8a838383613cc6565b6000818152600d602090815260409182902060040180546001600160a01b0319166001600160a01b038681169182179092559251848152908616917f235a69dc2480d40b13f4bee2b08a32b678f03ca558ff46eba22ce16ace78b6ad91015b60405180910390a3505050565b6000613f06600880546001019055565b6000613f1160085490565b9050613f1d848261421d565b613f278184614350565b9392505050565b613f38828261279e565b611e43576000828152602081815260408083206001600160a01b03851684529091529020805460ff19166001179055613f6e3390565b6001600160a01b0316816001600160a01b0316837f2f8788117e7eff1d82e926ec794901d17c78024a50270940304540a733656f0d60405160405180910390a45050565b613fbc828261279e565b15611e43576000828152602081815260408083206001600160a01b0385168085529252808320805460ff1916905551339285917ff6391f5c32d9c69d2a47ea670b442974b53935d1edc7fd64eb21e047a839171b9190a45050565b816001600160a01b0316836001600160a01b031614156140795760405162461bcd60e51b815260206004820152601960248201527f4552433732313a20617070726f766520746f2063616c6c657200000000000000604482015260640161093c565b6001600160a01b03838116600081815260066020908152604080832094871680845294825291829020805460ff191686151590811790915591519182527f17307eab39ab6107e8899845ad3d59bd9653f200f220920489ca2b5937696c319101613ee9565b6140e9848484613cc6565b6140f5848484846143db565b612fca5760405162461bcd60e51b815260040161093c90615568565b606061411c82613b7d565b600061413360408051602081019091526000815290565b905060008151116141535760405180602001604052806000815250613f27565b8061415d846144e8565b60405160200161416e929190615520565b6040516020818303038152906040529392505050565b60006001600160e01b03198216637965db0b60e01b148061084357506301ffc9a760e01b6001600160e01b0319831614610843565b6141c3828261279e565b611e43576141db816001600160a01b031660146145e6565b6141e68360206145e6565b6040516020016141f79291906155ba565b60408051601f198184030181529082905262461bcd60e51b825261093c9160040161495a565b6001600160a01b0382166142735760405162461bcd60e51b815260206004820181905260248201527f4552433732313a206d696e7420746f20746865207a65726f2061646472657373604482015260640161093c565b61427c81613e62565b156142c95760405162461bcd60e51b815260206004820152601c60248201527f4552433732313a20746f6b656e20616c7265616479206d696e74656400000000604482015260640161093c565b6001600160a01b03821660009081526004602052604081208054600192906142f2908490614fc5565b909155505060008181526003602052604080822080546001600160a01b0319166001600160a01b03861690811790915590518392907fddf252ad1be2c89b69c2b068fc378daa952ba7f163c4a11628f55a4df523b3ef908290a45050565b61435982613e62565b6143bc5760405162461bcd60e51b815260206004820152602e60248201527f45524337323155524953746f726167653a2055524920736574206f66206e6f6e60448201526d32bc34b9ba32b73a103a37b5b2b760911b606482015260840161093c565b60008281526007602090815260409091208251610c1d92840190614782565b60006001600160a01b0384163b156144dd57604051630a85bd0160e11b81526001600160a01b0385169063150b7a029061441f90339089908890889060040161562f565b602060405180830381600087803b15801561443957600080fd5b505af1925050508015614469575060408051601f3d908101601f1916820190925261446691810190615662565b60015b6144c3573d808015614497576040519150601f19603f3d011682016040523d82523d6000602084013e61449c565b606091505b5080516144bb5760405162461bcd60e51b815260040161093c90615568565b805181602001fd5b6001600160e01b031916630a85bd0160e11b1490506135ee565b506001949350505050565b60608161450c5750506040805180820190915260018152600360fc1b602082015290565b8160005b811561453657806145208161567f565b915061452f9050600a836156b0565b9150614510565b60008167ffffffffffffffff811115614551576145516149cc565b6040519080825280601f01601f19166020018201604052801561457b576020820181803683370190505b5090505b84156135ee57614590600183615381565b915061459d600a866156c4565b6145a8906030614fc5565b60f81b8183815181106145bd576145bd6150cf565b60200101906001600160f81b031916908160001a9053506145df600a866156b0565b945061457f565b606060006145f58360026156d8565b614600906002614fc5565b67ffffffffffffffff811115614618576146186149cc565b6040519080825280601f01601f191660200182016040528015614642576020820181803683370190505b509050600360fc1b8160008151811061465d5761465d6150cf565b60200101906001600160f81b031916908160001a905350600f60fb1b8160018151811061468c5761468c6150cf565b60200101906001600160f81b031916908160001a90535060006146b08460026156d8565b6146bb906001614fc5565b90505b6001811115614733576f181899199a1a9b1b9c1cb0b131b232b360811b85600f16601081106146ef576146ef6150cf565b1a60f81b828281518110614705576147056150cf565b60200101906001600160f81b031916908160001a90535060049490941c9361472c8161533b565b90506146be565b508315613f275760405162461bcd60e51b815260206004820181905260248201527f537472696e67733a20686578206c656e67746820696e73756666696369656e74604482015260640161093c565b82805461478e90614f5b565b90600052602060002090601f0160209004810192826147b057600085556147f6565b82601f106147c957805160ff19168380011785556147f6565b828001600101855582156147f6579182015b828111156147f65782518255916020019190600101906147db565b506148029291506148ba565b5090565b50805461481290614f5b565b6000825580601f10614822575050565b601f016020900490600052602060002090810190613bcd91906148ba565b5080546000825590600052602060002090810190613bcd91906148ba565b6040805161016081018252600080825260208201819052918101829052606081018290526080810182905260a0810182905260c0810182905260e081018290526101008101829052610120810182905261014081019190915290565b5b8082111561480257600081556001016148bb565b6001600160e01b031981168114613bcd57600080fd5b6000602082840312156148f757600080fd5b8135613f27816148cf565b60005b8381101561491d578181015183820152602001614905565b83811115612fca5750506000910152565b60008151808452614946816020860160208601614902565b601f01601f19169290920160200192915050565b602081526000613f27602083018461492e565b60006020828403121561497f57600080fd5b5035919050565b80356001600160a01b038116811461499d57600080fd5b919050565b600080604083850312156149b557600080fd5b6149be83614986565b946020939093013593505050565b634e487b7160e01b600052604160045260246000fd5b600067ffffffffffffffff808411156149fd576149fd6149cc565b604051601f8501601f19908116603f01168101908282118183101715614a2557614a256149cc565b81604052809350858152868686011115614a3e57600080fd5b858560208301376000602087830101525050509392505050565b600082601f830112614a6957600080fd5b613f27838335602085016149e2565b60008060008060008060c08789031215614a9157600080fd5b863567ffffffffffffffff80821115614aa957600080fd5b614ab58a838b01614a58565b97506020890135915080821115614acb57600080fd5b614ad78a838b01614a58565b96506040890135915080821115614aed57600080fd5b614af98a838b01614a58565b95506060890135915080821115614b0f57600080fd5b50614b1c89828a01614a58565b9350506080870135915060a087013590509295509295509295565b60008060408385031215614b4a57600080fd5b50508035926020909101359150565b600080600060608486031215614b6e57600080fd5b614b7784614986565b9250614b8560208501614986565b9150604084013590509250925092565b803560ff8116811461499d57600080fd5b600080600080600080600080610100898b031215614bc357600080fd5b8835975060208901359650614bda60408a01614986565b955060608901359450614bef60808a01614b95565b979a969950949793969560a0850135955060c08501359460e001359350915050565b60008060408385031215614c2457600080fd5b82359150614c3460208401614986565b90509250929050565b600080600080600080600060e0888a031215614c5857600080fd5b87359650602088013567ffffffffffffffff80821115614c7757600080fd5b614c838b838c01614a58565b975060408a0135915080821115614c9957600080fd5b614ca58b838c01614a58565b965060608a0135915080821115614cbb57600080fd5b614cc78b838c01614a58565b955060808a0135915080821115614cdd57600080fd5b50614cea8a828b01614a58565b93505060a0880135915060c0880135905092959891949750929550565b600060208284031215614d1957600080fd5b613f2782614986565b60008060008060808587031215614d3857600080fd5b5050823594602084013594506040840135936060013592509050565b8015158114613bcd57600080fd5b60008060408385031215614d7557600080fd5b614d7e83614986565b91506020830135614d8e81614d54565b809150509250929050565b600080600080600060a08688031215614db157600080fd5b8535945060208601359350614dc860408701614b95565b94979396509394606081013594506080013592915050565b60008060008060808587031215614df657600080fd5b614dff85614986565b9350614e0d60208601614986565b925060408501359150606085013567ffffffffffffffff811115614e3057600080fd5b8501601f81018713614e4157600080fd5b614e50878235602084016149e2565b91505092959194509250565b600080600080600080600060e0888a031215614e7757600080fd5b8735965060208801359550604088013567ffffffffffffffff80821115614c9957600080fd5b600080600080600080600060e0888a031215614eb857600080fd5b87359650602088013595506040880135945060608801359350614edd60808901614b95565b925060a0880135915060c0880135905092959891949750929550565b60008060008060008060c08789031215614f1257600080fd5b86359550602087013567ffffffffffffffff80821115614acb57600080fd5b60008060408385031215614f4457600080fd5b614f4d83614986565b9150614c3460208401614986565b600181811c90821680614f6f57607f821691505b60208210811415614f9057634e487b7160e01b600052602260045260246000fd5b50919050565b600060208284031215614fa857600080fd5b5051919050565b634e487b7160e01b600052601160045260246000fd5b60008219821115614fd857614fd8614faf565b500190565b87815260e060208201526000614ff660e083018961492e565b8281036040840152615008818961492e565b9050828103606084015261501c818861492e565b90508281036080840152615030818761492e565b60a0840195909552505060c0015295945050505050565b602080825260149082015273115d995b9d08191bd95cc81b9bdd08195e1a5cdd60621b604082015260600190565b6020808252601a908201527f5469636b6574207479706520646f6573206e6f74206578697374000000000000604082015260600190565b600060ff821660ff8416808210156150c6576150c6614faf565b90039392505050565b634e487b7160e01b600052603260045260246000fd5b634e487b7160e01b600052603160045260246000fd5b6020808252602e908201527f4552433732313a2063616c6c6572206973206e6f7420746f6b656e206f776e6560408201526d1c881b9bdc88185c1c1c9bdd995960921b606082015260800190565b602080825260159082015274151a58dad95d08191bd95cc81b9bdd08195e1a5cdd605a1b604082015260600190565b60208082526014908201527313d999995c88191bd95cc81b9bdd08195e1a5cdd60621b604082015260600190565b60208082526017908201527f546f6b656e20616c6c6f77616e636520746f6f206c6f77000000000000000000604082015260600190565b6000602082840312156151ef57600080fd5b8151613f2781614d54565b6020808252600f908201526e1d1c985b9cd9995c8819985a5b1959608a1b604082015260600190565b8054600090600181811c908083168061523d57607f831692505b602080841082141561525f57634e487b7160e01b600052602260045260246000fd5b8388526020880182801561527a576001811461528b576152b6565b60ff198716825282820197506152b6565b60008981526020902060005b878110156152b057815484820152908601908401615297565b83019850505b5050505050505092915050565b85815284602082015283604082015260a0606082015260006152e860a0830185615223565b90508260808301529695505050505050565b6001600160a01b0397881681529590961660208601526040850193909352606084019190915260ff16608083015260a082015260c081019190915260e00190565b60008161534a5761534a614faf565b506000190190565b8481528360208201528260408201526080606082015260006153776080830184615223565b9695505050505050565b60008282101561539357615393614faf565b500390565b60208082526028908201527f4f6e6c79207469636b6574206f776e65722063616e2063616c6c207468697320604082015267333ab731ba34b7b760c11b606082015260800190565b6001600160a01b03831681526040602082018190526000906135ee90830184615223565b8354815260018401546020820152600284015460408201526003840154606082015260048401546001600160a01b03811660808301526000906101409061545560a0850160ff8360a01c1615159052565b61546960c0850160ff8360a81c1615159052565b61547d60e0850160ff8360b01c1615159052565b50846101008401528061012084015261537781840185615223565b82815260406020820152815160408201526000602083015160e060608401526154c561012084018261492e565b905060408401516080840152606084015160a0840152608084015160c084015260a0840151603f19808584030160e0860152615501838361492e565b925060c08601519150808584030161010086015250615377828261492e565b60008351615532818460208801614902565b835190830190615546818360208801614902565b01949350505050565b8281526040602082015260006135ee604083018461492e565b60208082526032908201527f4552433732313a207472616e7366657220746f206e6f6e20455243373231526560408201527131b2b4bb32b91034b6b83632b6b2b73a32b960711b606082015260800190565b7f416363657373436f6e74726f6c3a206163636f756e74200000000000000000008152600083516155f2816017850160208801614902565b7001034b99036b4b9b9b4b733903937b6329607d1b6017918401918201528351615623816028840160208801614902565b01602801949350505050565b6001600160a01b03858116825284166020820152604081018390526080606082018190526000906153779083018461492e565b60006020828403121561567457600080fd5b8151613f27816148cf565b600060001982141561569357615693614faf565b5060010190565b634e487b7160e01b600052601260045260246000fd5b6000826156bf576156bf61569a565b500490565b6000826156d3576156d361569a565b500690565b60008160001904831182151516156156f2576156f2614faf565b50029056feb19546dff01e856fb3f010c267a7b1c60363cf8a4664e21cc89c26224620214e4d2e7a1e3f5dd6e203f087b15756ccf0e4ccd947fe1b639a38540089a1e47f63a2646970667358221220675bdc281a11fec06e156b178110cfb77f2df92c100a94a95b923c0e1a35bead64736f6c63430008090033",
  "linkReferences": {},
  "deployedLinkReferences": {}
}