{
  "_format": "hh-sol-artifact-1",
  "contractName": "TicketGenerator",
  "sourceName": "contracts/TicketGenerator.sol",
  "abi": [
    {
      "inputs": [
        {
          "internalType": "address",
          "name": "_tokenAddress",
          "type": "address"
        },
        {
          "internalType": "address",
          "name": "_souvenirGeneratorAddress",
          "type": "address"
        }
      ],
      "stateMutability": "nonpayable",
      "type": "constructor"
    },
    {
      "anonymous": false,
      "inputs": [
        {
          "indexed": true,
          "internalType": "bytes32",
          "name": "offerId",
          "type": "bytes32"
        },
        {
          "indexed": true,
          "internalType": "address",
          "name": "buyer",
          "type": "address"
        },
        {
          "indexed": true,
          "internalType": "address",
          "name": "seller",
          "type": "address"
        },
        {
          "indexed": false,
          "internalType": "bytes32",
          "name": "eventId",
          "type": "bytes32"
        },
        {
          "indexed": false,
          "internalType": "bytes32",
          "name": "ticketTypeId",
          "type": "bytes32"
        },
        {
          "indexed": false,
          "internalType": "uint256",
          "name": "ticketId",
          "type": "uint256"
        },
        {
          "indexed": false,
          "internalType": "uint256",
          "name": "price",
          "type": "uint256"
        }
      ],
      "name": "AcceptBuyOffer",
      "type": "event"
    },
    {
      "anonymous": false,
      "inputs": [
        {
          "indexed": true,
          "internalType": "bytes32",
          "name": "offerId",
          "type": "bytes32"
        },
        {
          "indexed": true,
          "internalType": "address",
          "name": "buyer",
          "type": "address"
        },
        {
          "indexed": true,
          "internalType": "address",
          "name": "seller",
          "type": "address"
        },
        {
          "indexed": false,
          "internalType": "bytes32",
          "name": "eventId",
          "type": "bytes32"
        },
        {
          "indexed": false,
          "internalType": "bytes32",
          "name": "ticketTypeId",
          "type": "bytes32"
        },
        {
          "indexed": false,
          "internalType": "uint256",
          "name": "ticketId",
          "type": "uint256"
        },
        {
          "indexed": false,
          "internalType": "uint256",
          "name": "price",
          "type": "uint256"
        }
      ],
      "name": "AcceptSellOffer",
      "type": "event"
    },
    {
      "anonymous": false,
      "inputs": [
        {
          "indexed": true,
          "internalType": "address",
          "name": "owner",
          "type": "address"
        },
        {
          "indexed": true,
          "internalType": "address",
          "name": "approved",
          "type": "address"
        },
        {
          "indexed": true,
          "internalType": "uint256",
          "name": "tokenId",
          "type": "uint256"
        }
      ],
      "name": "Approval",
      "type": "event"
    },
    {
      "anonymous": false,
      "inputs": [
        {
          "indexed": true,
          "internalType": "address",
          "name": "owner",
          "type": "address"
        },
        {
          "indexed": true,
          "internalType": "address",
          "name": "operator",
          "type": "address"
        },
        {
          "indexed": false,
          "internalType": "bool",
          "name": "approved",
          "type": "bool"
        }
      ],
      "name": "ApprovalForAll",
      "type": "event"
    },
    {
      "anonymous": false,
      "inputs": [
        {
          "indexed": true,
          "internalType": "address",
          "name": "buyer",
          "type": "address"
        },
        {
          "indexed": true,
          "internalType": "address",
          "name": "owner",
          "type": "address"
        },
        {
          "indexed": false,
          "internalType": "bytes32",
          "name": "eventId",
          "type": "bytes32"
        },
        {
          "indexed": false,
          "internalType": "bytes32",
          "name": "ticketTypeId",
          "type": "bytes32"
        },
        {
          "indexed": false,
          "internalType": "uint256",
          "name": "tokenId",
          "type": "uint256"
        },
        {
          "indexed": false,
          "internalType": "string",
          "name": "tokenURI",
          "type": "string"
        },
        {
          "indexed": false,
          "internalType": "uint256",
          "name": "eventStartTime",
          "type": "uint256"
        }
      ],
      "name": "BuyTicket",
      "type": "event"
    },
    {
      "anonymous": false,
      "inputs": [
        {
          "indexed": true,
          "internalType": "bytes32",
          "name": "offerId",
          "type": "bytes32"
        },
        {
          "indexed": true,
          "internalType": "address",
          "name": "sender",
          "type": "address"
        }
      ],
      "name": "CancelOffer",
      "type": "event"
    },
    {
      "anonymous": false,
      "inputs": [
        {
          "indexed": false,
          "internalType": "bytes32",
          "name": "offerId",
          "type": "bytes32"
        },
        {
          "indexed": true,
          "internalType": "address",
          "name": "buyer",
          "type": "address"
        },
        {
          "indexed": false,
          "internalType": "bytes32",
          "name": "eventId",
          "type": "bytes32"
        },
        {
          "indexed": false,
          "internalType": "bytes32",
          "name": "ticketTypeId",
          "type": "bytes32"
        },
        {
          "indexed": false,
          "internalType": "uint256",
          "name": "price",
          "type": "uint256"
        },
        {
          "indexed": false,
          "internalType": "uint256",
          "name": "deadline",
          "type": "uint256"
        }
      ],
      "name": "CreateBuyOffer",
      "type": "event"
    },
    {
      "anonymous": false,
      "inputs": [
        {
          "indexed": true,
          "internalType": "address",
          "name": "creator",
          "type": "address"
        },
        {
          "indexed": false,
          "internalType": "bytes32",
          "name": "eventId",
          "type": "bytes32"
        },
        {
          "indexed": false,
          "internalType": "string",
          "name": "name",
          "type": "string"
        },
        {
          "indexed": false,
          "internalType": "string",
          "name": "description",
          "type": "string"
        },
        {
          "indexed": false,
          "internalType": "string",
          "name": "eventStorage",
          "type": "string"
        },
        {
          "indexed": false,
          "internalType": "uint256",
          "name": "startTime",
          "type": "uint256"
        },
        {
          "indexed": false,
          "internalType": "uint256",
          "name": "endTime",
          "type": "uint256"
        }
      ],
      "name": "CreateEvent",
      "type": "event"
    },
    {
      "anonymous": false,
      "inputs": [
        {
          "indexed": true,
          "internalType": "bytes32",
          "name": "offerId",
          "type": "bytes32"
        },
        {
          "indexed": true,
          "internalType": "address",
          "name": "seller",
          "type": "address"
        },
        {
          "indexed": false,
          "internalType": "bytes32",
          "name": "eventId",
          "type": "bytes32"
        },
        {
          "indexed": false,
          "internalType": "bytes32",
          "name": "ticketTypeId",
          "type": "bytes32"
        },
        {
          "indexed": false,
          "internalType": "uint256",
          "name": "ticketId",
          "type": "uint256"
        },
        {
          "indexed": false,
          "internalType": "uint256",
          "name": "price",
          "type": "uint256"
        }
      ],
      "name": "CreateSellOffer",
      "type": "event"
    },
    {
      "anonymous": false,
      "inputs": [
        {
          "indexed": true,
          "internalType": "address",
          "name": "creator",
          "type": "address"
        },
        {
          "indexed": false,
          "internalType": "bytes32",
          "name": "eventId",
          "type": "bytes32"
        },
        {
          "components": [
            {
              "internalType": "bytes32",
              "name": "id",
              "type": "bytes32"
            },
            {
              "internalType": "string",
              "name": "name",
              "type": "string"
            },
            {
              "internalType": "uint256",
              "name": "price",
              "type": "uint256"
            },
            {
              "internalType": "uint256",
              "name": "maxSupply",
              "type": "uint256"
            },
            {
              "internalType": "uint256",
              "name": "currentSupply",
              "type": "uint256"
            },
            {
              "internalType": "string",
              "name": "tokenURI",
              "type": "string"
            },
            {
              "internalType": "string",
              "name": "souvenirTokenURI",
              "type": "string"
            }
          ],
          "indexed": false,
          "internalType": "struct Structs.TicketType",
          "name": "ticketType",
          "type": "tuple"
        }
      ],
      "name": "CreateTicketType",
      "type": "event"
    },
    {
      "anonymous": false,
      "inputs": [
        {
          "indexed": true,
          "internalType": "address",
          "name": "creator",
          "type": "address"
        },
        {
          "indexed": false,
          "internalType": "bytes32",
          "name": "eventId",
          "type": "bytes32"
        }
      ],
      "name": "DeleteEvent",
      "type": "event"
    },
    {
      "anonymous": false,
      "inputs": [
        {
          "indexed": true,
          "internalType": "address",
          "name": "creator",
          "type": "address"
        },
        {
          "indexed": false,
          "internalType": "bytes32",
          "name": "eventId",
          "type": "bytes32"
        },
        {
          "indexed": false,
          "internalType": "bytes32",
          "name": "ticketTypeId",
          "type": "bytes32"
        }
      ],
      "name": "DeleteTickeyType",
      "type": "event"
    },
    {
      "anonymous": false,
      "inputs": [
        {
          "indexed": true,
          "internalType": "address",
          "name": "sender",
          "type": "address"
        },
        {
          "indexed": false,
          "internalType": "uint256",
          "name": "amount",
          "type": "uint256"
        }
      ],
      "name": "Deposit",
      "type": "event"
    },
    {
      "anonymous": false,
      "inputs": [
        {
          "indexed": true,
          "internalType": "address",
          "name": "creator",
          "type": "address"
        },
        {
          "indexed": true,
          "internalType": "address",
          "name": "receiver",
          "type": "address"
        },
        {
          "indexed": false,
          "internalType": "uint256",
          "name": "tokenId",
          "type": "uint256"
        },
        {
          "indexed": false,
          "internalType": "string",
          "name": "tokenURI",
          "type": "string"
        }
      ],
      "name": "GenerateTicket",
      "type": "event"
    },
    {
      "anonymous": false,
      "inputs": [
        {
          "indexed": true,
          "internalType": "bytes32",
          "name": "role",
          "type": "bytes32"
        },
        {
          "indexed": true,
          "internalType": "bytes32",
          "name": "previousAdminRole",
          "type": "bytes32"
        },
        {
          "indexed": true,
          "internalType": "bytes32",
          "name": "newAdminRole",
          "type": "bytes32"
        }
      ],
      "name": "RoleAdminChanged",
      "type": "event"
    },
    {
      "anonymous": false,
      "inputs": [
        {
          "indexed": true,
          "internalType": "bytes32",
          "name": "role",
          "type": "bytes32"
        },
        {
          "indexed": true,
          "internalType": "address",
          "name": "account",
          "type": "address"
        },
        {
          "indexed": true,
          "internalType": "address",
          "name": "sender",
          "type": "address"
        }
      ],
      "name": "RoleGranted",
      "type": "event"
    },
    {
      "anonymous": false,
      "inputs": [
        {
          "indexed": true,
          "internalType": "bytes32",
          "name": "role",
          "type": "bytes32"
        },
        {
          "indexed": true,
          "internalType": "address",
          "name": "account",
          "type": "address"
        },
        {
          "indexed": true,
          "internalType": "address",
          "name": "sender",
          "type": "address"
        }
      ],
      "name": "RoleRevoked",
      "type": "event"
    },
    {
      "anonymous": false,
      "inputs": [
        {
          "indexed": true,
          "internalType": "address",
          "name": "from",
          "type": "address"
        },
        {
          "indexed": true,
          "internalType": "address",
          "name": "to",
          "type": "address"
        },
        {
          "indexed": true,
          "internalType": "uint256",
          "name": "tokenId",
          "type": "uint256"
        }
      ],
      "name": "Transfer",
      "type": "event"
    },
    {
      "anonymous": false,
      "inputs": [
        {
          "indexed": true,
          "internalType": "address",
          "name": "sender",
          "type": "address"
        },
        {
          "indexed": true,
          "internalType": "address",
          "name": "receiver",
          "type": "address"
        },
        {
          "indexed": false,
          "internalType": "uint256",
          "name": "tokenId",
          "type": "uint256"
        }
      ],
      "name": "TransferTicket",
      "type": "event"
    },
    {
      "anonymous": false,
      "inputs": [
        {
          "indexed": true,
          "internalType": "address",
          "name": "creator",
          "type": "address"
        },
        {
          "indexed": false,
          "internalType": "bytes32",
          "name": "eventId",
          "type": "bytes32"
        },
        {
          "indexed": false,
          "internalType": "string",
          "name": "name",
          "type": "string"
        },
        {
          "indexed": false,
          "internalType": "string",
          "name": "description",
          "type": "string"
        },
        {
          "indexed": false,
          "internalType": "string",
          "name": "eventStorage",
          "type": "string"
        },
        {
          "indexed": false,
          "internalType": "uint256",
          "name": "startTime",
          "type": "uint256"
        },
        {
          "indexed": false,
          "internalType": "uint256",
          "name": "endTime",
          "type": "uint256"
        }
      ],
      "name": "UpdateEvent",
      "type": "event"
    },
    {
      "anonymous": false,
      "inputs": [
        {
          "indexed": true,
          "internalType": "address",
          "name": "creator",
          "type": "address"
        },
        {
          "indexed": false,
          "internalType": "bytes32",
          "name": "eventId",
          "type": "bytes32"
        },
        {
          "components": [
            {
              "internalType": "bytes32",
              "name": "id",
              "type": "bytes32"
            },
            {
              "internalType": "string",
              "name": "name",
              "type": "string"
            },
            {
              "internalType": "uint256",
              "name": "price",
              "type": "uint256"
            },
            {
              "internalType": "uint256",
              "name": "maxSupply",
              "type": "uint256"
            },
            {
              "internalType": "uint256",
              "name": "currentSupply",
              "type": "uint256"
            },
            {
              "internalType": "string",
              "name": "tokenURI",
              "type": "string"
            },
            {
              "internalType": "string",
              "name": "souvenirTokenURI",
              "type": "string"
            }
          ],
          "indexed": false,
          "internalType": "struct Structs.TicketType",
          "name": "ticketType",
          "type": "tuple"
        }
      ],
      "name": "UpdateTicketType",
      "type": "event"
    },
    {
      "anonymous": false,
      "inputs": [
        {
          "indexed": true,
          "internalType": "address",
          "name": "receiver",
          "type": "address"
        },
        {
          "indexed": false,
          "internalType": "uint256",
          "name": "amount",
          "type": "uint256"
        }
      ],
      "name": "Withdraw",
      "type": "event"
    },
    {
      "inputs": [],
      "name": "DEFAULT_ADMIN_ROLE",
      "outputs": [
        {
          "internalType": "bytes32",
          "name": "",
          "type": "bytes32"
        }
      ],
      "stateMutability": "view",
      "type": "function"
    },
    {
      "inputs": [],
      "name": "MINTER_ROLE",
      "outputs": [
        {
          "internalType": "bytes32",
          "name": "",
          "type": "bytes32"
        }
      ],
      "stateMutability": "view",
      "type": "function"
    },
    {
      "inputs": [],
      "name": "ORGANIZER_ROLE",
      "outputs": [
        {
          "internalType": "bytes32",
          "name": "",
          "type": "bytes32"
        }
      ],
      "stateMutability": "view",
      "type": "function"
    },
    {
      "inputs": [],
      "name": "OWNER_ROLE",
      "outputs": [
        {
          "internalType": "bytes32",
          "name": "",
          "type": "bytes32"
        }
      ],
      "stateMutability": "view",
      "type": "function"
    },
    {
      "inputs": [
        {
          "internalType": "bytes32",
          "name": "id",
          "type": "bytes32"
        }
      ],
      "name": "acceptBuyOffer",
      "outputs": [],
      "stateMutability": "nonpayable",
      "type": "function"
    },
    {
      "inputs": [
        {
          "internalType": "bytes32",
          "name": "id",
          "type": "bytes32"
        },
        {
          "internalType": "uint256",
          "name": "deadline",
          "type": "uint256"
        },
        {
          "internalType": "uint8",
          "name": "v",
          "type": "uint8"
        },
        {
          "internalType": "bytes32",
          "name": "r",
          "type": "bytes32"
        },
        {
          "internalType": "bytes32",
          "name": "s",
          "type": "bytes32"
        }
      ],
      "name": "acceptSellOffer",
      "outputs": [],
      "stateMutability": "nonpayable",
      "type": "function"
    },
    {
      "inputs": [
        {
          "internalType": "address",
          "name": "to",
          "type": "address"
        },
        {
          "internalType": "uint256",
          "name": "tokenId",
          "type": "uint256"
        }
      ],
      "name": "approve",
      "outputs": [],
      "stateMutability": "nonpayable",
      "type": "function"
    },
    {
      "inputs": [
        {
          "internalType": "address",
          "name": "owner",
          "type": "address"
        }
      ],
      "name": "balanceOf",
      "outputs": [
        {
          "internalType": "uint256",
          "name": "",
          "type": "uint256"
        }
      ],
      "stateMutability": "view",
      "type": "function"
    },
    {
      "inputs": [],
      "name": "becomeOrganizer",
      "outputs": [],
      "stateMutability": "nonpayable",
      "type": "function"
    },
    {
      "inputs": [
        {
          "internalType": "bytes32",
          "name": "_eventId",
          "type": "bytes32"
        },
        {
          "internalType": "bytes32",
          "name": "_ticketTypeId",
          "type": "bytes32"
        },
        {
          "internalType": "address",
          "name": "_recipient",
          "type": "address"
        },
        {
          "internalType": "uint256",
          "name": "deadline",
          "type": "uint256"
        },
        {
          "internalType": "uint8",
          "name": "v",
          "type": "uint8"
        },
        {
          "internalType": "bytes32",
          "name": "r",
          "type": "bytes32"
        },
        {
          "internalType": "bytes32",
          "name": "s",
          "type": "bytes32"
        }
      ],
      "name": "buyTicket",
      "outputs": [
        {
          "internalType": "uint256",
          "name": "",
          "type": "uint256"
        }
      ],
      "stateMutability": "nonpayable",
      "type": "function"
    },
    {
      "inputs": [
        {
          "internalType": "bytes32",
          "name": "id",
          "type": "bytes32"
        }
      ],
      "name": "cancelOffer",
      "outputs": [],
      "stateMutability": "nonpayable",
      "type": "function"
    },
    {
      "inputs": [
        {
          "internalType": "bytes32",
          "name": "id",
          "type": "bytes32"
        },
        {
          "internalType": "bytes32",
          "name": "eventId",
          "type": "bytes32"
        },
        {
          "internalType": "bytes32",
          "name": "ticketTypeId",
          "type": "bytes32"
        },
        {
          "internalType": "uint256",
          "name": "price",
          "type": "uint256"
        },
        {
          "internalType": "uint256",
          "name": "deadline",
          "type": "uint256"
        },
        {
          "internalType": "uint8",
          "name": "v",
          "type": "uint8"
        },
        {
          "internalType": "bytes32",
          "name": "r",
          "type": "bytes32"
        },
        {
          "internalType": "bytes32",
          "name": "s",
          "type": "bytes32"
        }
      ],
      "name": "createBuyOffer",
      "outputs": [],
      "stateMutability": "nonpayable",
      "type": "function"
    },
    {
      "inputs": [
        {
          "internalType": "bytes32",
          "name": "_eventId",
          "type": "bytes32"
        },
        {
          "internalType": "string",
          "name": "_name",
          "type": "string"
        },
        {
          "internalType": "string",
          "name": "_description",
          "type": "string"
        },
        {
          "internalType": "string",
          "name": "eventStorage",
          "type": "string"
        },
        {
          "internalType": "uint256",
          "name": "startTime",
          "type": "uint256"
        },
        {
          "internalType": "uint256",
          "name": "endTime",
          "type": "uint256"
        }
      ],
      "name": "createEvent",
      "outputs": [],
      "stateMutability": "nonpayable",
      "type": "function"
    },
    {
      "inputs": [
        {
          "internalType": "bytes32",
          "name": "id",
          "type": "bytes32"
        },
        {
          "internalType": "bytes32",
          "name": "eventId",
          "type": "bytes32"
        },
        {
          "internalType": "bytes32",
          "name": "ticketTypeId",
          "type": "bytes32"
        },
        {
          "internalType": "uint256",
          "name": "ticketId",
          "type": "uint256"
        },
        {
          "internalType": "uint256",
          "name": "price",
          "type": "uint256"
        }
      ],
      "name": "createSellOffer",
      "outputs": [],
      "stateMutability": "nonpayable",
      "type": "function"
    },
    {
      "inputs": [
        {
          "internalType": "bytes32",
          "name": "_eventId",
          "type": "bytes32"
        },
        {
          "internalType": "bytes32",
          "name": "_ticketTypeId",
          "type": "bytes32"
        },
        {
          "internalType": "string",
          "name": "_ticketName",
          "type": "string"
        },
        {
          "internalType": "string",
          "name": "_tokenURI",
          "type": "string"
        },
        {
          "internalType": "string",
          "name": "_souvenirTokenURI",
          "type": "string"
        },
        {
          "internalType": "uint256",
          "name": "_price",
          "type": "uint256"
        },
        {
          "internalType": "uint256",
          "name": "_maxSupply",
          "type": "uint256"
        }
      ],
      "name": "createTicketType",
      "outputs": [],
      "stateMutability": "nonpayable",
      "type": "function"
    },
    {
      "inputs": [
        {
          "internalType": "bytes32",
          "name": "_eventId",
          "type": "bytes32"
        }
      ],
      "name": "deleteEvent",
      "outputs": [],
      "stateMutability": "nonpayable",
      "type": "function"
    },
    {
      "inputs": [],
      "name": "deposit",
      "outputs": [],
      "stateMutability": "payable",
      "type": "function"
    },
    {
      "inputs": [
        {
          "internalType": "uint256",
          "name": "tokenId",
          "type": "uint256"
        }
      ],
      "name": "getApproved",
      "outputs": [
        {
          "internalType": "address",
          "name": "",
          "type": "address"
        }
      ],
      "stateMutability": "view",
      "type": "function"
    },
    {
      "inputs": [
        {
          "internalType": "bytes32",
          "name": "_eventId",
          "type": "bytes32"
        }
      ],
      "name": "getEvent",
      "outputs": [
        {
          "internalType": "address",
          "name": "",
          "type": "address"
        },
        {
          "internalType": "string",
          "name": "",
          "type": "string"
        },
        {
          "internalType": "string",
          "name": "",
          "type": "string"
        },
        {
          "internalType": "string",
          "name": "",
          "type": "string"
        },
        {
          "internalType": "uint256",
          "name": "",
          "type": "uint256"
        },
        {
          "internalType": "uint256",
          "name": "",
          "type": "uint256"
        },
        {
          "internalType": "bytes32[]",
          "name": "",
          "type": "bytes32[]"
        }
      ],
      "stateMutability": "view",
      "type": "function"
    },
    {
      "inputs": [
        {
          "internalType": "uint256",
          "name": "_tokenId",
          "type": "uint256"
        }
      ],
      "name": "getMetadata",
      "outputs": [
        {
          "internalType": "string",
          "name": "",
          "type": "string"
        }
      ],
      "stateMutability": "view",
      "type": "function"
    },
    {
      "inputs": [
        {
          "internalType": "bytes32",
          "name": "role",
          "type": "bytes32"
        }
      ],
      "name": "getRoleAdmin",
      "outputs": [
        {
          "internalType": "bytes32",
          "name": "",
          "type": "bytes32"
        }
      ],
      "stateMutability": "view",
      "type": "function"
    },
    {
      "inputs": [
        {
          "internalType": "bytes32",
          "name": "_eventId",
          "type": "bytes32"
        },
        {
          "internalType": "bytes32",
          "name": "_ticketTypeId",
          "type": "bytes32"
        },
        {
          "internalType": "uint256",
          "name": "_ticketId",
          "type": "uint256"
        },
        {
          "internalType": "address",
          "name": "_recipient",
          "type": "address"
        }
      ],
      "name": "getSouvenir",
      "outputs": [
        {
          "internalType": "uint256",
          "name": "",
          "type": "uint256"
        }
      ],
      "stateMutability": "nonpayable",
      "type": "function"
    },
    {
      "inputs": [
        {
          "internalType": "uint256",
          "name": "_ticketId",
          "type": "uint256"
        }
      ],
      "name": "getTicket",
      "outputs": [
        {
          "components": [
            {
              "internalType": "uint256",
              "name": "id",
              "type": "uint256"
            },
            {
              "internalType": "bytes32",
              "name": "eventId",
              "type": "bytes32"
            },
            {
              "internalType": "bytes32",
              "name": "ticketTypeId",
              "type": "bytes32"
            },
            {
              "internalType": "uint256",
              "name": "souvenirId",
              "type": "uint256"
            },
            {
              "internalType": "address",
              "name": "owner",
              "type": "address"
            },
            {
              "internalType": "bool",
              "name": "souvenirMinted",
              "type": "bool"
            },
            {
              "internalType": "bool",
              "name": "usable",
              "type": "bool"
            }
          ],
          "internalType": "struct Structs.Ticket",
          "name": "",
          "type": "tuple"
        }
      ],
      "stateMutability": "view",
      "type": "function"
    },
    {
      "inputs": [
        {
          "internalType": "bytes32",
          "name": "_eventId",
          "type": "bytes32"
        },
        {
          "internalType": "bytes32",
          "name": "_ticketTypeId",
          "type": "bytes32"
        }
      ],
      "name": "getTicketType",
      "outputs": [
        {
          "components": [
            {
              "internalType": "bytes32",
              "name": "id",
              "type": "bytes32"
            },
            {
              "internalType": "string",
              "name": "name",
              "type": "string"
            },
            {
              "internalType": "uint256",
              "name": "price",
              "type": "uint256"
            },
            {
              "internalType": "uint256",
              "name": "maxSupply",
              "type": "uint256"
            },
            {
              "internalType": "uint256",
              "name": "currentSupply",
              "type": "uint256"
            },
            {
              "internalType": "string",
              "name": "tokenURI",
              "type": "string"
            },
            {
              "internalType": "string",
              "name": "souvenirTokenURI",
              "type": "string"
            }
          ],
          "internalType": "struct Structs.TicketType",
          "name": "",
          "type": "tuple"
        }
      ],
      "stateMutability": "view",
      "type": "function"
    },
    {
      "inputs": [
        {
          "internalType": "bytes32",
          "name": "role",
          "type": "bytes32"
        },
        {
          "internalType": "address",
          "name": "account",
          "type": "address"
        }
      ],
      "name": "grantRole",
      "outputs": [],
      "stateMutability": "nonpayable",
      "type": "function"
    },
    {
      "inputs": [
        {
          "internalType": "bytes32",
          "name": "role",
          "type": "bytes32"
        },
        {
          "internalType": "address",
          "name": "account",
          "type": "address"
        }
      ],
      "name": "hasRole",
      "outputs": [
        {
          "internalType": "bool",
          "name": "",
          "type": "bool"
        }
      ],
      "stateMutability": "view",
      "type": "function"
    },
    {
      "inputs": [
        {
          "internalType": "address",
          "name": "owner",
          "type": "address"
        },
        {
          "internalType": "address",
          "name": "operator",
          "type": "address"
        }
      ],
      "name": "isApprovedForAll",
      "outputs": [
        {
          "internalType": "bool",
          "name": "",
          "type": "bool"
        }
      ],
      "stateMutability": "view",
      "type": "function"
    },
    {
      "inputs": [],
      "name": "name",
      "outputs": [
        {
          "internalType": "string",
          "name": "",
          "type": "string"
        }
      ],
      "stateMutability": "view",
      "type": "function"
    },
    {
      "inputs": [
        {
          "internalType": "uint256",
          "name": "tokenId",
          "type": "uint256"
        }
      ],
      "name": "ownerOf",
      "outputs": [
        {
          "internalType": "address",
          "name": "",
          "type": "address"
        }
      ],
      "stateMutability": "view",
      "type": "function"
    },
    {
      "inputs": [],
      "name": "ownerWithdraw",
      "outputs": [],
      "stateMutability": "nonpayable",
      "type": "function"
    },
    {
      "inputs": [
        {
          "internalType": "bytes32",
          "name": "_eventId",
          "type": "bytes32"
        },
        {
          "internalType": "bytes32",
          "name": "_ticketTypeId",
          "type": "bytes32"
        }
      ],
      "name": "removeTicketType",
      "outputs": [],
      "stateMutability": "nonpayable",
      "type": "function"
    },
    {
      "inputs": [
        {
          "internalType": "bytes32",
          "name": "role",
          "type": "bytes32"
        },
        {
          "internalType": "address",
          "name": "account",
          "type": "address"
        }
      ],
      "name": "renounceRole",
      "outputs": [],
      "stateMutability": "nonpayable",
      "type": "function"
    },
    {
      "inputs": [
        {
          "internalType": "bytes32",
          "name": "role",
          "type": "bytes32"
        },
        {
          "internalType": "address",
          "name": "account",
          "type": "address"
        }
      ],
      "name": "revokeRole",
      "outputs": [],
      "stateMutability": "nonpayable",
      "type": "function"
    },
    {
      "inputs": [
        {
          "internalType": "address",
          "name": "from",
          "type": "address"
        },
        {
          "internalType": "address",
          "name": "to",
          "type": "address"
        },
        {
          "internalType": "uint256",
          "name": "tokenId",
          "type": "uint256"
        }
      ],
      "name": "safeTransferFrom",
      "outputs": [],
      "stateMutability": "nonpayable",
      "type": "function"
    },
    {
      "inputs": [
        {
          "internalType": "address",
          "name": "from",
          "type": "address"
        },
        {
          "internalType": "address",
          "name": "to",
          "type": "address"
        },
        {
          "internalType": "uint256",
          "name": "tokenId",
          "type": "uint256"
        },
        {
          "internalType": "bytes",
          "name": "data",
          "type": "bytes"
        }
      ],
      "name": "safeTransferFrom",
      "outputs": [],
      "stateMutability": "nonpayable",
      "type": "function"
    },
    {
      "inputs": [
        {
          "internalType": "address",
          "name": "operator",
          "type": "address"
        },
        {
          "internalType": "bool",
          "name": "approved",
          "type": "bool"
        }
      ],
      "name": "setApprovalForAll",
      "outputs": [],
      "stateMutability": "nonpayable",
      "type": "function"
    },
    {
      "inputs": [
        {
          "internalType": "uint256",
          "name": "_organizerDeposit",
          "type": "uint256"
        }
      ],
      "name": "setOrganizerDeposit",
      "outputs": [],
      "stateMutability": "nonpayable",
      "type": "function"
    },
    {
      "inputs": [
        {
          "internalType": "address",
          "name": "_souvenirGeneratorAddress",
          "type": "address"
        }
      ],
      "name": "setSouvenirGeneratorContract",
      "outputs": [],
      "stateMutability": "nonpayable",
      "type": "function"
    },
    {
      "inputs": [
        {
          "internalType": "address",
          "name": "_tokenAddress",
          "type": "address"
        }
      ],
      "name": "setTIKContract",
      "outputs": [],
      "stateMutability": "nonpayable",
      "type": "function"
    },
    {
      "inputs": [
        {
          "internalType": "bytes4",
          "name": "interfaceId",
          "type": "bytes4"
        }
      ],
      "name": "supportsInterface",
      "outputs": [
        {
          "internalType": "bool",
          "name": "",
          "type": "bool"
        }
      ],
      "stateMutability": "view",
      "type": "function"
    },
    {
      "inputs": [],
      "name": "symbol",
      "outputs": [
        {
          "internalType": "string",
          "name": "",
          "type": "string"
        }
      ],
      "stateMutability": "view",
      "type": "function"
    },
    {
      "inputs": [
        {
          "internalType": "uint256",
          "name": "tokenId",
          "type": "uint256"
        }
      ],
      "name": "tokenURI",
      "outputs": [
        {
          "internalType": "string",
          "name": "",
          "type": "string"
        }
      ],
      "stateMutability": "view",
      "type": "function"
    },
    {
      "inputs": [
        {
          "internalType": "address",
          "name": "from",
          "type": "address"
        },
        {
          "internalType": "address",
          "name": "to",
          "type": "address"
        },
        {
          "internalType": "uint256",
          "name": "tokenId",
          "type": "uint256"
        }
      ],
      "name": "transferFrom",
      "outputs": [],
      "stateMutability": "nonpayable",
      "type": "function"
    },
    {
      "inputs": [
        {
          "internalType": "bytes32",
          "name": "_eventId",
          "type": "bytes32"
        },
        {
          "internalType": "string",
          "name": "_name",
          "type": "string"
        },
        {
          "internalType": "string",
          "name": "_description",
          "type": "string"
        },
        {
          "internalType": "string",
          "name": "eventStorage",
          "type": "string"
        },
        {
          "internalType": "uint256",
          "name": "startTime",
          "type": "uint256"
        },
        {
          "internalType": "uint256",
          "name": "endTime",
          "type": "uint256"
        }
      ],
      "name": "updateEvent",
      "outputs": [],
      "stateMutability": "nonpayable",
      "type": "function"
    },
    {
      "inputs": [
        {
          "internalType": "bytes32",
          "name": "_eventId",
          "type": "bytes32"
        },
        {
          "internalType": "bytes32",
          "name": "_ticketTypeId",
          "type": "bytes32"
        },
        {
          "internalType": "string",
          "name": "_ticketName",
          "type": "string"
        },
        {
          "internalType": "string",
          "name": "_tokenURI",
          "type": "string"
        },
        {
          "internalType": "string",
          "name": "_souvenirTokenURI",
          "type": "string"
        },
        {
          "internalType": "uint256",
          "name": "_price",
          "type": "uint256"
        },
        {
          "internalType": "uint256",
          "name": "_maxSupply",
          "type": "uint256"
        }
      ],
      "name": "updateTicketType",
      "outputs": [],
      "stateMutability": "nonpayable",
      "type": "function"
    },
    {
      "inputs": [
        {
          "internalType": "uint256",
          "name": "amount",
          "type": "uint256"
        }
      ],
      "name": "userWithdraw",
      "outputs": [],
      "stateMutability": "nonpayable",
      "type": "function"
    }
  ],
  "bytecode": "0x60806040526000601055600060115566038d7ea4c680006012553480156200002657600080fd5b50604051620059d7380380620059d78339810160408190526200004991620002bf565b604080518082018252600a815269151a58dad95d0813919560b21b60208083019182528351808501909452600384526213919560ea1b9084015281519192916200009691600191620001fc565b508051620000ac906002906020840190620001fc565b5050600980546001600160a01b038085166001600160a01b031992831617909255600a805492861692909116919091179055506200010b7fb19546dff01e856fb3f010c267a7b1c60363cf8a4664e21cc89c26224620214e336200014c565b620001377f4d2e7a1e3f5dd6e203f087b15756ccf0e4ccd947fe1b639a38540089a1e47f63336200014c565b620001446000336200014c565b505062000334565b6200015882826200015c565b5050565b6000828152602081815260408083206001600160a01b038516845290915290205460ff1662000158576000828152602081815260408083206001600160a01b03851684529091529020805460ff19166001179055620001b83390565b6001600160a01b0316816001600160a01b0316837f2f8788117e7eff1d82e926ec794901d17c78024a50270940304540a733656f0d60405160405180910390a45050565b8280546200020a90620002f7565b90600052602060002090601f0160209004810192826200022e576000855562000279565b82601f106200024957805160ff191683800117855562000279565b8280016001018555821562000279579182015b82811115620002795782518255916020019190600101906200025c565b50620002879291506200028b565b5090565b5b808211156200028757600081556001016200028c565b80516001600160a01b0381168114620002ba57600080fd5b919050565b60008060408385031215620002d357600080fd5b620002de83620002a2565b9150620002ee60208401620002a2565b90509250929050565b600181811c908216806200030c57607f821691505b602082108114156200032e57634e487b7160e01b600052602260045260246000fd5b50919050565b61569380620003446000396000f3fe60806040526004361061027d5760003560e01c806391d148541161014f578063b88d4fde116100c1578063d53913931161007a578063d53913931461080d578063d547741f14610841578063e58378bb14610861578063e5bdaeb714610883578063e985e9c5146108a3578063f952279e146108ec57600080fd5b8063b88d4fde14610758578063baab45fb14610778578063c87b56dd14610798578063ceed06d5146107b8578063d0e30db0146107d8578063d3a81930146107e057600080fd5b8063a43329ad11610113578063a43329ad14610698578063a574cea4146106b8578063aa62f41e146106d8578063addece2a146106f8578063ae1e455414610718578063b64babc21461073857600080fd5b806391d148541461060e578063930d8fd91461062e57806395d89b411461064e578063a217fddf14610663578063a22cb4651461067857600080fd5b806336568abe116101f357806363113c6a116101ac57806363113c6a146104db5780636352211e146104fb57806370a082311461051b5780637909cb591461053b5780637dc379fa1461055d5780638c172fa2146105db57600080fd5b806336568abe146104265780633b9056bf1461044657806342842e0e146104665780634311de8f1461048657806352c0cb6c1461049b5780635c9d690e146104bb57600080fd5b8063095ea7b311610245578063095ea7b3146103565780631cc844bc1461037657806323b872dd14610396578063248a9ca3146103b65780632ae563c1146103e65780632f2ff15d1461040657600080fd5b806301ffc9a71461028257806306fdde03146102b757806307b17fc9146102d957806307c88259146102f0578063081812fc1461031e575b600080fd5b34801561028e57600080fd5b506102a261029d3660046148d8565b61090c565b60405190151581526020015b60405180910390f35b3480156102c357600080fd5b506102cc61091d565b6040516102ae919061494d565b3480156102e557600080fd5b506102ee6109af565b005b3480156102fc57600080fd5b5061031061030b36600461498d565b610b8e565b6040519081526020016102ae565b34801561032a57600080fd5b5061033e6103393660046149f0565b6110cf565b6040516001600160a01b0390911681526020016102ae565b34801561036257600080fd5b506102ee610371366004614a09565b6110f6565b34801561038257600080fd5b506102ee6103913660046149f0565b61120c565b3480156103a257600080fd5b506102ee6103b1366004614a33565b6113dd565b3480156103c257600080fd5b506103106103d13660046149f0565b60009081526020819052604090206001015490565b3480156103f257600080fd5b506102ee610401366004614b1b565b61140e565b34801561041257600080fd5b506102ee610421366004614bbf565b6115b3565b34801561043257600080fd5b506102ee610441366004614bbf565b6115d8565b34801561045257600080fd5b506102ee6104613660046149f0565b611656565b34801561047257600080fd5b506102ee610481366004614a33565b611886565b34801561049257600080fd5b506102ee6118a1565b3480156104a757600080fd5b506102ee6104b6366004614beb565b6119ed565b3480156104c757600080fd5b506102ee6104d6366004614b1b565b611a43565b3480156104e757600080fd5b506102ee6104f6366004614beb565b611be7565b34801561050757600080fd5b5061033e6105163660046149f0565b611c3d565b34801561052757600080fd5b50610310610536366004614beb565b611c9d565b34801561054757600080fd5b5061031060008051602061563e83398151915281565b34801561056957600080fd5b5061057d6105783660046149f0565b611d23565b6040516102ae9190815181526020808301519082015260408083015190820152606080830151908201526080808301516001600160a01b03169082015260a08083015115159082015260c09182015115159181019190915260e00190565b3480156105e757600080fd5b506105fb6105f63660046149f0565b611e3a565b6040516102ae9796959493929190614c06565b34801561061a57600080fd5b506102a2610629366004614bbf565b6120c4565b34801561063a57600080fd5b50610310610649366004614ca6565b6120ed565b34801561065a57600080fd5b506102cc612338565b34801561066f57600080fd5b50610310600081565b34801561068457600080fd5b506102ee610693366004614cf3565b612347565b3480156106a457600080fd5b506102ee6106b3366004614d2a565b612352565b3480156106c457600080fd5b506102cc6106d33660046149f0565b6125b5565b3480156106e457600080fd5b506102ee6106f33660046149f0565b6125c0565b34801561070457600080fd5b506102ee610713366004614d90565b6128b3565b34801561072457600080fd5b506102ee610733366004614db2565b612a6f565b34801561074457600080fd5b506102ee610753366004614df9565b612dc8565b34801561076457600080fd5b506102ee610773366004614e34565b612fbc565b34801561078457600080fd5b506102ee610793366004614eb0565b612ff4565b3480156107a457600080fd5b506102cc6107b33660046149f0565b6131e3565b3480156107c457600080fd5b506102ee6107d3366004614eb0565b6132f4565b6102ee61356e565b3480156107ec57600080fd5b506108006107fb366004614d90565b61361f565b6040516102ae9190614fd8565b34801561081957600080fd5b506103107f9f2df0fed2c77648de5860a4cc508cd0818c85b8b8a1ab4ceeef8d981c8956a681565b34801561084d57600080fd5b506102ee61085c366004614bbf565b6138d9565b34801561086d57600080fd5b5061031060008051602061561e83398151915281565b34801561088f57600080fd5b506102ee61089e3660046149f0565b6138fe565b3480156108af57600080fd5b506102a26108be366004614feb565b6001600160a01b03918216600090815260066020908152604080832093909416825291909152205460ff1690565b3480156108f857600080fd5b506102ee6109073660046149f0565b613937565b600061091782613ac8565b92915050565b60606001805461092c90615015565b80601f016020809104026020016040519081016040528092919081815260200182805461095890615015565b80156109a55780601f1061097a576101008083540402835291602001916109a5565b820191906000526020600020905b81548152906001019060200180831161098857829003601f168201915b5050505050905090565b6109c760008051602061563e833981519152336120c4565b15610a195760405162461bcd60e51b815260206004820152601e60248201527f43616c6c657220697320616c726561647920616e206f7267616e697a6572000060448201526064015b60405180910390fd5b601254600a546040516370a0823160e01b81523360048201526001600160a01b03909116906370a082319060240160206040518083038186803b158015610a5f57600080fd5b505afa158015610a73573d6000803e3d6000fd5b505050506040513d601f19601f82011682018060405250810190610a97919061504a565b1015610af35760405162461bcd60e51b815260206004820152602560248201527f4e6f7420656e6f75676820746f6b656e7320746f206265636f6d65206f7267616044820152643734bd32b960d91b6064820152608401610a10565b600a54601254604051632770a7eb60e21b815233600482015260248101919091526001600160a01b0390911690639dc29fac90604401600060405180830381600087803b158015610b4357600080fd5b505af1158015610b57573d6000803e3d6000fd5b50505050610b7360008051602061563e83398151915233613b08565b60125460116000828254610b879190615079565b9091555050565b6000878152600c60205260408120548890610bbb5760405162461bcd60e51b8152600401610a1090615091565b6000898152600c602090815260408083208b845260080190915290205489908990610bf85760405162461bcd60e51b8152600401610a10906150bf565b60008b8152600c602090815260408083208d8452600881019092529091206004810154610c675760405162461bcd60e51b815260206004820152601f60248201527f5469636b6574732066726f6d2074686973207479706520736f6c64206f7574006044820152606401610a10565b600a60009054906101000a90046001600160a01b03166001600160a01b031663d505accf333084600201548e8e8e8e6040518863ffffffff1660e01b8152600401610cb897969594939291906150f6565b600060405180830381600087803b158015610cd257600080fd5b505af1158015610ce6573d6000803e3d6000fd5b505050506002810154600a54604051636eb1769f60e11b81523360048201523060248201526001600160a01b039091169063dd62ed3e9060440160206040518083038186803b158015610d3857600080fd5b505afa158015610d4c573d6000803e3d6000fd5b505050506040513d601f19601f82011682018060405250810190610d70919061504a565b1015610d8e5760405162461bcd60e51b8152600401610a1090615137565b600a54600183015460028301546040516323b872dd60e01b81523360048201526001600160a01b039283166024820152604481019190915260009291909116906323b872dd90606401602060405180830381600087803b158015610df157600080fd5b505af1158015610e05573d6000803e3d6000fd5b505050506040513d601f19601f82011682018060405250810190610e29919061516e565b905080610e485760405162461bcd60e51b8152600401610a109061518b565b600482018054906000610e5a836151b4565b91905055506000610ef78d846005018054610e7490615015565b80601f0160208091040260200160405190810160405280929190818152602001828054610ea090615015565b8015610eed5780601f10610ec257610100808354040283529160200191610eed565b820191906000526020600020905b815481529060010190602001808311610ed057829003601f168201915b5050505050613b12565b9050610f386040805160e081018252600080825260208201819052918101829052606081018290526080810182905260a0810182905260c081019190915290565b818160000181815250508f8160200181815250508e8160400181815250508d81608001906001600160a01b031690816001600160a01b03168152505060018160c001901515908115158152505080600e60008481526020019081526020016000206000820151816000015560208201518160010155604082015181600201556060820151816003015560808201518160040160006101000a8154816001600160a01b0302191690836001600160a01b0316021790555060a08201518160040160146101000a81548160ff02191690831515021790555060c08201518160040160156101000a81548160ff021916908315150217905550905050600d8290806001815401808255809150506001900390600052602060002001600090919091909150558d6001600160a01b0316336001600160a01b03167fa315c04ae5193ef2d9052d2616973c434126e9e2232a0e6b1b693a8289b3caec8360200151846040015186896005018b600301546040516110b495949392919061526b565b60405180910390a3509e9d5050505050505050505050505050565b60006110da82613b97565b506000908152600560205260409020546001600160a01b031690565b600061110182611c3d565b9050806001600160a01b0316836001600160a01b0316141561116f5760405162461bcd60e51b815260206004820152602160248201527f4552433732313a20617070726f76616c20746f2063757272656e74206f776e656044820152603960f91b6064820152608401610a10565b336001600160a01b038216148061118b575061118b81336108be565b6111fd5760405162461bcd60e51b815260206004820152603e60248201527f4552433732313a20617070726f76652063616c6c6572206973206e6f7420746f60448201527f6b656e206f776e6572206e6f7220617070726f76656420666f7220616c6c00006064820152608401610a10565b6112078383613bf9565b505050565b6000818152600c602052604090205481906112395760405162461bcd60e51b8152600401610a1090615091565b61125160008051602061563e833981519152336120c4565b61126d5760405162461bcd60e51b8152600401610a10906152a2565b6000828152600c60205260409020600101546001600160a01b031633146112d65760405162461bcd60e51b815260206004820152601f60248201527f4f6e6c79206f7267616e697a65722063616e2072656d6f7665206576656e74006044820152606401610a10565b6000828152600c6020526040902060070154156113355760405162461bcd60e51b815260206004820152601c60248201527f4576656e74207374696c6c20686173207469636b6574207479706573000000006044820152606401610a10565b6000828152600c602052604081208181556001810180546001600160a01b0319169055906113666002830182614775565b600382016000905560048201600090556005820160006113869190614775565b611394600683016000614775565b6113a26007830160006147af565b505060405182815233907f6e3bc81a96d2f5065ad94a6a93273d83748be7ace6c49f293c543738f62a5b6a9060200160405180910390a25050565b6113e73382613c67565b6114035760405162461bcd60e51b8152600401610a10906152ee565b611207838383613ce5565b61142660008051602061563e833981519152336120c4565b6114425760405162461bcd60e51b8152600401610a10906152a2565b6000868152600c6020526040902054156114955760405162461bcd60e51b81526020600482015260146024820152734576656e7420616c72656164792065786973747360601b6044820152606401610a10565b600b805460018181019092557f0175b7a638427703f0dbe7bb9bbf987a2551717b34e79f33b5b1008d1fa01db9018790556000878152600c6020908152604090912088815591820180546001600160a01b0319163317905586516114ff92600201918801906147cd565b506000868152600c602090815260409091208551611525926005909201918701906147cd565b506000868152600c60209081526040909120845161154b926006909201918601906147cd565b506000868152600c602052604090819020600381018490556004018290555133907f7504b7211fc397a6d4b4a91cead765e14abf7680c1e7671c31087fc8d2c7256e906115a39089908990899089908990899061533c565b60405180910390a2505050505050565b6000828152602081905260409020600101546115ce81613e81565b6112078383613e8b565b6001600160a01b03811633146116485760405162461bcd60e51b815260206004820152602f60248201527f416363657373436f6e74726f6c3a2063616e206f6e6c792072656e6f756e636560448201526e103937b632b9903337b91039b2b63360891b6064820152608401610a10565b6116528282613f0f565b5050565b600a546040516370a0823160e01b81523360048201526000916001600160a01b0316906370a082319060240160206040518083038186803b15801561169a57600080fd5b505afa1580156116ae573d6000803e3d6000fd5b505050506040513d601f19601f820116820180604052508101906116d2919061504a565b9050808211156117245760405162461bcd60e51b815260206004820152601a60248201527f4e6f7420656e6f75676820746f2062652077697468647261776e0000000000006044820152606401610a10565b6010548211156117765760405162461bcd60e51b815260206004820152601e60248201527f57697468647261772069732063757272656e746c792064697361626c656400006044820152606401610a10565b604051600090339084156108fc0290859084818181858888f193505050509050806117d15760405162461bcd60e51b815260206004820152600b60248201526a1cd95b990819985a5b195960aa1b6044820152606401610a10565b600a54604051632770a7eb60e21b8152336004820152602481018590526001600160a01b0390911690639dc29fac90604401600060405180830381600087803b15801561181d57600080fd5b505af1158015611831573d6000803e3d6000fd5b50506040518581523392507f884edad9ce6fa2440d8a54cc123490eb96d2768479d49ff9c7366125a9424364915060200160405180910390a2826010600082825461187c9190615391565b9091555050505050565b61120783838360405180602001604052806000815250612fbc565b6118b960008051602061561e833981519152336120c4565b6118fe5760405162461bcd60e51b815260206004820152601660248201527521b0b63632b91034b9903737ba1030b71037bbb732b960511b6044820152606401610a10565b6000601154116119505760405162461bcd60e51b815260206004820152601a60248201527f4e6f7420656e6f75676820746f2062652077697468647261776e0000000000006044820152606401610a10565b601154604051600091339181156108fc02919084818181858888f193505050509050806119ad5760405162461bcd60e51b815260206004820152600b60248201526a1cd95b990819985a5b195960aa1b6044820152606401610a10565b60115460405190815233907f884edad9ce6fa2440d8a54cc123490eb96d2768479d49ff9c7366125a94243649060200160405180910390a2506000601155565b611a0560008051602061561e833981519152336120c4565b611a215760405162461bcd60e51b8152600401610a10906153a8565b600980546001600160a01b0319166001600160a01b0392909216919091179055565b6000868152600c60205260409020548690611a705760405162461bcd60e51b8152600401610a1090615091565b611a8860008051602061563e833981519152336120c4565b611aa45760405162461bcd60e51b8152600401610a10906152a2565b6000878152600c60205260409020600101546001600160a01b03163314611b0d5760405162461bcd60e51b815260206004820152601d60248201527f4f6e6c79206f7267616e697a65722063616e2065646974206576656e740000006044820152606401610a10565b6000878152600c602090815260409091208751611b32926002909201918901906147cd565b506000878152600c602090815260409091208651611b58926005909201918801906147cd565b506000878152600c602090815260409091208551611b7e926006909201918701906147cd565b506000878152600c602052604090819020600381018590556004018390555133907fc261b9e16c24735219b284c636efee4491a482920a229627b9f62b9eec64cf2690611bd6908a908a908a908a908a908a9061533c565b60405180910390a250505050505050565b611bff60008051602061561e833981519152336120c4565b611c1b5760405162461bcd60e51b8152600401610a10906153a8565b600a80546001600160a01b0319166001600160a01b0392909216919091179055565b6000818152600360205260408120546001600160a01b0316806109175760405162461bcd60e51b8152602060048201526018602482015277115490cdcc8c4e881a5b9d985b1a59081d1bdad95b88125160421b6044820152606401610a10565b60006001600160a01b038216611d075760405162461bcd60e51b815260206004820152602960248201527f4552433732313a2061646472657373207a65726f206973206e6f7420612076616044820152683634b21037bbb732b960b91b6064820152608401610a10565b506001600160a01b031660009081526004602052604090205490565b6040805160e081018252600080825260208201819052918101829052606081018290526080810182905260a0810182905260c081019190915260008281526003602052604090205482906001600160a01b0316611dba5760405162461bcd60e51b8152602060048201526015602482015274151a58dad95d08191bd95cc81b9bdd08195e1a5cdd605a1b6044820152606401610a10565b6000838152600e6020908152604091829020825160e08101845281548152600182015492810192909252600281015492820192909252600382015460608201526004909101546001600160a01b038116608083015260ff600160a01b82048116151560a0840152600160a81b90910416151560c082015291505b50919050565b6000818152600c6020526040812054606090819081908490819083908890611e745760405162461bcd60e51b8152600401610a1090615091565b6000898152600c602052604090206001810154600382015460048301546002840180546001600160a01b039094169390926005860192600687019260078801908690611ebf90615015565b80601f0160208091040260200160405190810160405280929190818152602001828054611eeb90615015565b8015611f385780601f10611f0d57610100808354040283529160200191611f38565b820191906000526020600020905b815481529060010190602001808311611f1b57829003601f168201915b50505050509550848054611f4b90615015565b80601f0160208091040260200160405190810160405280929190818152602001828054611f7790615015565b8015611fc45780601f10611f9957610100808354040283529160200191611fc4565b820191906000526020600020905b815481529060010190602001808311611fa757829003601f168201915b50505050509450838054611fd790615015565b80601f016020809104026020016040519081016040528092919081815260200182805461200390615015565b80156120505780601f1061202557610100808354040283529160200191612050565b820191906000526020600020905b81548152906001019060200180831161203357829003601f168201915b50505050509350808054806020026020016040519081016040528092919081815260200182805480156120a257602002820191906000526020600020905b81548152602001906001019080831161208e575b5050505050905098509850985098509850985098505050919395979092949650565b6000918252602082815260408084206001600160a01b0393909316845291905290205460ff1690565b6000848152600c6020526040812054859061211a5760405162461bcd60e51b8152600401610a1090615091565b6000868152600c60209081526040808320888452600801909152902054869086906121575760405162461bcd60e51b8152600401610a10906150bf565b60008681526003602052604090205486906001600160a01b03166121b55760405162461bcd60e51b8152602060048201526015602482015274151a58dad95d08191bd95cc81b9bdd08195e1a5cdd605a1b6044820152606401610a10565b6000878152600e6020908152604091829020825160e08101845281548152600182015492810192909252600281015492820192909252600382015460608201526004909101546001600160a01b038116608083015260ff600160a01b8204811615801560a0850152600160a81b90920416151560c08301526122795760405162461bcd60e51b815260206004820152601760248201527f536f7576656e697220616c7265616479206d696e7465640000000000000000006044820152606401610a10565b60095460008b8152600c602090815260408083208d84526008019091528082209051630d385de160e01b815291926001600160a01b031691630d385de1916122c9918c91600601906004016153e9565b602060405180830381600087803b1580156122e357600080fd5b505af11580156122f7573d6000803e3d6000fd5b505050506040513d601f19601f8201168201806040525081019061231b919061504a565b600160a08401526060909201829052509998505050505050505050565b60606002805461092c90615015565b611652338383613f74565b600a5460405163d505accf60e01b81526001600160a01b039091169063d505accf9061238e90339030908a908a908a908a908a906004016150f6565b600060405180830381600087803b1580156123a857600080fd5b505af11580156123bc573d6000803e3d6000fd5b505050506123c8614851565b338160c001906001600160a01b031690816001600160a01b031681525050878160200181815250508681604001818152505085816080018181525050848161010001818152505060018161012001901515908115158152505060008161014001901515908115158152505080600f60008b8152602001908152602001600020600082015181600001556020820151816001015560408201518160020155606082015181600301556080820151816004015560a08201518160050160006101000a8154816001600160a01b0302191690836001600160a01b0316021790555060c08201518160060160006101000a8154816001600160a01b0302191690836001600160a01b0316021790555060e08201518160060160146101000a81548160ff02191690831515021790555061010082015181600701556101208201518160080160006101000a81548160ff0219169083151502179055506101408201518160080160016101000a81548160ff021916908315150217905550905050336001600160a01b03167f8c0532da8a9f0675da764e7b35fbb8c2c8868976193fc36ffad259ddb5675ca48a8a8a8a8a6040516125a2959493929190948552602085019390935260408401919091526060830152608082015260a00190565b60405180910390a2505050505050505050565b6060610917826131e3565b6000818152600f6020526040902060068101546001600160a01b031633141561262b5760405162461bcd60e51b815260206004820152601a60248201527f43616e6e6f742062757920796f7572206f776e207469636b65740000000000006044820152606401610a10565b600481810154600a546006840154604051636eb1769f60e11b81526001600160a01b0391821694810194909452306024850152919291169063dd62ed3e9060440160206040518083038186803b15801561268457600080fd5b505afa158015612698573d6000803e3d6000fd5b505050506040513d601f19601f820116820180604052508101906126bc919061504a565b10156126da5760405162461bcd60e51b8152600401610a1090615137565b600a5460068201546004808401546040516323b872dd60e01b81526001600160a01b0393841692810192909252336024830152604482015260009291909116906323b872dd90606401602060405180830381600087803b15801561273d57600080fd5b505af1158015612751573d6000803e3d6000fd5b505050506040513d601f19601f82011682018060405250810190612775919061516e565b9050806127945760405162461bcd60e51b8152600401610a109061518b565b600682015460038301546127b59133916001600160a01b0390911690614044565b60068201805460ff60a01b198116600160a01b179091556005830180546001600160a01b03191633908117909155600184015460028501546003860154600487015460408051948552602085019390935291830152606082015290916001600160a01b03169085907fac2220b05931eaf991777e20d926996c5b09de48166284b659e03b4ca4862c279060800160405180910390a450506000908152600f60205260408120818155600181018290556002810182905560038101829055600481018290556005810180546001600160a01b03191690556006810180546001600160a81b03191690556007810191909155600801805461ffff19169055565b6000828152600c602052604090205482906128e05760405162461bcd60e51b8152600401610a1090615091565b6000838152600c602090815260408083208584526008019091529020548390839061291d5760405162461bcd60e51b8152600401610a10906150bf565b61293560008051602061563e833981519152336120c4565b6129515760405162461bcd60e51b8152600401610a10906152a2565b6000858152600c60205260409020600101546001600160a01b031633146129c85760405162461bcd60e51b815260206004820152602560248201527f4f6e6c79206f7267616e697a65722063616e2072656d6f7665207469636b6574604482015264207479706560d81b6064820152608401610a10565b6000858152600c602090815260408083208784526008019091528120818155906129f56001830182614775565b600282016000905560038201600090556004820160009055600582016000612a1d9190614775565b612a2b600683016000614775565b5050604080518681526020810186905233917fb410e6f99b84b07294f81fef7fc54f574ff6305a91ad7aa82c9e05deb5ca0091910160405180910390a25050505050565b6000858152600f6020526040902060058101546001600160a01b0316331415612ada5760405162461bcd60e51b815260206004820152601a60248201527f43616e6e6f742062757920796f7572206f776e207469636b65740000000000006044820152606401610a10565b600a5460048083015460405163d505accf60e01b81526001600160a01b039093169263d505accf92612b1892339230928c918c918c918c91016150f6565b600060405180830381600087803b158015612b3257600080fd5b505af1158015612b46573d6000803e3d6000fd5b50505050600481810154600a546006840154604051636eb1769f60e11b81526001600160a01b0391821694810194909452306024850152919291169063dd62ed3e9060440160206040518083038186803b158015612ba357600080fd5b505afa158015612bb7573d6000803e3d6000fd5b505050506040513d601f19601f82011682018060405250810190612bdb919061504a565b1015612bf95760405162461bcd60e51b8152600401610a1090615137565b600a5460058201546004808401546040516323b872dd60e01b815233928101929092526001600160a01b039283166024830152604482015260009291909116906323b872dd90606401602060405180830381600087803b158015612c5c57600080fd5b505af1158015612c70573d6000803e3d6000fd5b505050506040513d601f19601f82011682018060405250810190612c94919061516e565b905080612cb35760405162461bcd60e51b8152600401610a109061518b565b60058201546003830154612cd2916001600160a01b0316903390614044565b6006820180546001600160a81b03191633908117600160a01b17909155600583015460018401546002850154600386015460048701546040805194855260208501939093529183015260608201526001600160a01b039091169089907fa8586e88602d9e61e16ab4c1ef48d8e37812253c8b89d4c2be6576f5891b6d279060800160405180910390a450505060009384525050600f6020525060408120818155600181018290556002810182905560038101829055600481018290556005810180546001600160a01b03191690556006810180546001600160a81b03191690556007810191909155600801805461ffff19169055565b612dd0614851565b338160a001906001600160a01b031690816001600160a01b0316815250508481602001818152505083816040018181525050828160600181815250508181608001818152505060008161010001818152505060008161012001901515908115158152505060008161014001901515908115158152505080600f6000888152602001908152602001600020600082015181600001556020820151816001015560408201518160020155606082015181600301556080820151816004015560a08201518160050160006101000a8154816001600160a01b0302191690836001600160a01b0316021790555060c08201518160060160006101000a8154816001600160a01b0302191690836001600160a01b0316021790555060e08201518160060160146101000a81548160ff02191690831515021790555061010082015181600701556101208201518160080160006101000a81548160ff0219169083151502179055506101408201518160080160016101000a81548160ff021916908315150217905550905050336001600160a01b0316867f0f27c48668db2e12a5e88bc77cf8b459181c7ee1e6264ddb55242efe89d9d03987878787604051612fac949392919093845260208401929092526040830152606082015260800190565b60405180910390a3505050505050565b612fc63383613c67565b612fe25760405162461bcd60e51b8152600401610a10906152ee565b612fee848484846140b2565b50505050565b6000878152600c602052604090205487906130215760405162461bcd60e51b8152600401610a1090615091565b6000888152600c602090815260408083208a84526008019091529020548890889061305e5760405162461bcd60e51b8152600401610a10906150bf565b60008a8152600c60205260409020600101546001600160a01b031633146130d35760405162461bcd60e51b815260206004820152602360248201527f4f6e6c79206f7267616e697a65722063616e2065646974207469636b6574207460448201526279706560e81b6064820152608401610a10565b6040805160e0810182528a815260208082018b8152828401899052606083018890526080830188905260a083018b905260c083018a905260008e8152600c83528481208e825260080183529390932082518155925180519293849390926131419260018501929101906147cd565b5060408201516002820155606082015160038201556080820151600482015560a0820151805161317b9160058401916020909101906147cd565b5060c082015180516131979160068401916020909101906147cd565b50506040513391507ffc051c354a57b794e7a2a34dc7a0ab81839aab32ad19ecc48bc4f2a549d7e469906131ce908e90859061540d565b60405180910390a25050505050505050505050565b60606131ee82613b97565b6000828152600760205260408120805461320790615015565b80601f016020809104026020016040519081016040528092919081815260200182805461323390615015565b80156132805780601f1061325557610100808354040283529160200191613280565b820191906000526020600020905b81548152906001019060200180831161326357829003601f168201915b50505050509050600061329e60408051602081019091526000815290565b90508051600014156132b1575092915050565b8151156132e35780826040516020016132cb929190615426565b60405160208183030381529060405292505050919050565b6132ec846140e5565b949350505050565b6000878152600c602052604090205487906133215760405162461bcd60e51b8152600401610a1090615091565b61333960008051602061563e833981519152336120c4565b6133555760405162461bcd60e51b8152600401610a10906152a2565b6000888152600c60205260409020600101546001600160a01b031633146133e45760405162461bcd60e51b815260206004820152603760248201527f4f6e6c7920746865206f7267616e697a6572206f662074686973206576656e7460448201527f2063616e20637265617465207469636b657420747970650000000000000000006064820152608401610a10565b6000888152600c602090815260408083208a84526008019091529020541561344e5760405162461bcd60e51b815260206004820152601a60248201527f5469636b6574207479706520616c7265616479206578697374730000000000006044820152606401610a10565b6040805160e0810182528881526020808201898152828401879052606083018690526080830186905260a0830189905260c0830188905260008c8152600c83528481208c825260080183529390932082518155925180519293849390926134bc9260018501929101906147cd565b5060408201516002820155606082015160038201556080820151600482015560a082015180516134f69160058401916020909101906147cd565b5060c082015180516135129160068401916020909101906147cd565b5050506000898152600c60209081526040808320600701805460018101825590845291909220018990555133907f86f1c49c5e96f57ffd1bbdcf5973aa010e8c5bb16218eaace76fa50c7e66b5b7906125a2908c90859061540d565b600a546040516340c10f1960e01b81523360048201523460248201526001600160a01b03909116906340c10f1990604401600060405180830381600087803b1580156135b957600080fd5b505af11580156135cd573d6000803e3d6000fd5b5050505034601060008282546135e39190615079565b909155505060405134815233907fe1fffcc4923d04b559f4d29a8bfc6cda04eb5b0d3c460751c2402c5c5cc9109c9060200160405180910390a2565b6136626040518060e00160405280600080191681526020016060815260200160008152602001600081526020016000815260200160608152602001606081525090565b6000838152600c6020526040902054839061368f5760405162461bcd60e51b8152600401610a1090615091565b6000848152600c60209081526040808320868452600801909152902054849084906136cc5760405162461bcd60e51b8152600401610a10906150bf565b6000868152600c60209081526040808320888452600801825291829020825160e0810190935280548352600181018054919284019161370a90615015565b80601f016020809104026020016040519081016040528092919081815260200182805461373690615015565b80156137835780601f1061375857610100808354040283529160200191613783565b820191906000526020600020905b81548152906001019060200180831161376657829003601f168201915b505050505081526020016002820154815260200160038201548152602001600482015481526020016005820180546137ba90615015565b80601f01602080910402602001604051908101604052809291908181526020018280546137e690615015565b80156138335780601f1061380857610100808354040283529160200191613833565b820191906000526020600020905b81548152906001019060200180831161381657829003601f168201915b5050505050815260200160068201805461384c90615015565b80601f016020809104026020016040519081016040528092919081815260200182805461387890615015565b80156138c55780601f1061389a576101008083540402835291602001916138c5565b820191906000526020600020905b8154815290600101906020018083116138a857829003601f168201915b505050505081525050935050505092915050565b6000828152602081905260409020600101546138f481613e81565b6112078383613f0f565b61391660008051602061561e833981519152336120c4565b6139325760405162461bcd60e51b8152600401610a10906153a8565b601255565b6000818152600f6020526040902060068101546001600160a01b03163314801561396a5750600881015460ff1615156001145b80613995575060058101546001600160a01b0316331480156139955750600881015460ff1615156001145b6139e15760405162461bcd60e51b815260206004820152601760248201527f4e6f7420746865206275796572206f722073656c6c65720000000000000000006044820152606401610a10565b6006810154600160a01b900460ff1615613a365760405162461bcd60e51b815260206004820152601660248201527513d999995c88185b1c9958591e481858d8d95c1d195960521b6044820152606401610a10565b6000828152600f6020526040808220828155600181018390556002810183905560038101839055600481018390556005810180546001600160a01b03191690556006810180546001600160a81b031916905560078101839055600801805461ffff1916905551339184917f74aeca155f6310e463cf88472fe14b61a7990f14c88a8f0a03b10306a88da8429190a35050565b60006001600160e01b031982166380ac58cd60e01b1480613af957506001600160e01b03198216635b5e139f60e01b145b80610917575061091782614159565b6116528282613e8b565b6000613b22600880546001019055565b6000613b2d60085490565b9050613b39848261418e565b613b4381846142d0565b836001600160a01b0316336001600160a01b03167f3bfd449b4868a01647da19bf179397e8853acef45f717b1a679952bc67693cdd8386604051613b88929190615455565b60405180910390a39392505050565b6000818152600360205260409020546001600160a01b0316613bf65760405162461bcd60e51b8152602060048201526018602482015277115490cdcc8c4e881a5b9d985b1a59081d1bdad95b88125160421b6044820152606401610a10565b50565b600081815260056020526040902080546001600160a01b0319166001600160a01b0384169081179091558190613c2e82611c3d565b6001600160a01b03167f8c5be1e5ebec7d5bd14f71427d1e84f3dd0314c0f7b2291e5b200ac8c7c3b92560405160405180910390a45050565b600080613c7383611c3d565b9050806001600160a01b0316846001600160a01b03161480613cba57506001600160a01b0380821660009081526006602090815260408083209388168352929052205460ff165b806132ec5750836001600160a01b0316613cd3846110cf565b6001600160a01b031614949350505050565b826001600160a01b0316613cf882611c3d565b6001600160a01b031614613d5c5760405162461bcd60e51b815260206004820152602560248201527f4552433732313a207472616e736665722066726f6d20696e636f72726563742060448201526437bbb732b960d91b6064820152608401610a10565b6001600160a01b038216613dbe5760405162461bcd60e51b8152602060048201526024808201527f4552433732313a207472616e7366657220746f20746865207a65726f206164646044820152637265737360e01b6064820152608401610a10565b613dc9600082613bf9565b6001600160a01b0383166000908152600460205260408120805460019290613df2908490615391565b90915550506001600160a01b0382166000908152600460205260408120805460019290613e20908490615079565b909155505060008181526003602052604080822080546001600160a01b0319166001600160a01b0386811691821790925591518493918716917fddf252ad1be2c89b69c2b068fc378daa952ba7f163c4a11628f55a4df523b3ef91a4505050565b613bf6813361436a565b613e9582826120c4565b611652576000828152602081815260408083206001600160a01b03851684529091529020805460ff19166001179055613ecb3390565b6001600160a01b0316816001600160a01b0316837f2f8788117e7eff1d82e926ec794901d17c78024a50270940304540a733656f0d60405160405180910390a45050565b613f1982826120c4565b15611652576000828152602081815260408083206001600160a01b0385168085529252808320805460ff1916905551339285917ff6391f5c32d9c69d2a47ea670b442974b53935d1edc7fd64eb21e047a839171b9190a45050565b816001600160a01b0316836001600160a01b03161415613fd65760405162461bcd60e51b815260206004820152601960248201527f4552433732313a20617070726f766520746f2063616c6c6572000000000000006044820152606401610a10565b6001600160a01b03838116600081815260066020908152604080832094871680845294825291829020805460ff191686151590811790915591519182527f17307eab39ab6107e8899845ad3d59bd9653f200f220920489ca2b5937696c3191015b60405180910390a3505050565b61404f838383613ce5565b6000818152600e602090815260409182902060040180546001600160a01b0319166001600160a01b038681169182179092559251848152908616917f235a69dc2480d40b13f4bee2b08a32b678f03ca558ff46eba22ce16ace78b6ad9101614037565b6140bd848484613ce5565b6140c9848484846143ce565b612fee5760405162461bcd60e51b8152600401610a109061546e565b60606140f082613b97565b600061410760408051602081019091526000815290565b905060008151116141275760405180602001604052806000815250614152565b80614131846144db565b604051602001614142929190615426565b6040516020818303038152906040525b9392505050565b60006001600160e01b03198216637965db0b60e01b148061091757506301ffc9a760e01b6001600160e01b0319831614610917565b6001600160a01b0382166141e45760405162461bcd60e51b815260206004820181905260248201527f4552433732313a206d696e7420746f20746865207a65726f20616464726573736044820152606401610a10565b6000818152600360205260409020546001600160a01b0316156142495760405162461bcd60e51b815260206004820152601c60248201527f4552433732313a20746f6b656e20616c7265616479206d696e746564000000006044820152606401610a10565b6001600160a01b0382166000908152600460205260408120805460019290614272908490615079565b909155505060008181526003602052604080822080546001600160a01b0319166001600160a01b03861690811790915590518392907fddf252ad1be2c89b69c2b068fc378daa952ba7f163c4a11628f55a4df523b3ef908290a45050565b6000828152600360205260409020546001600160a01b031661434b5760405162461bcd60e51b815260206004820152602e60248201527f45524337323155524953746f726167653a2055524920736574206f66206e6f6e60448201526d32bc34b9ba32b73a103a37b5b2b760911b6064820152608401610a10565b60008281526007602090815260409091208251611207928401906147cd565b61437482826120c4565b6116525761438c816001600160a01b031660146145d9565b6143978360206145d9565b6040516020016143a89291906154c0565b60408051601f198184030181529082905262461bcd60e51b8252610a109160040161494d565b60006001600160a01b0384163b156144d057604051630a85bd0160e11b81526001600160a01b0385169063150b7a0290614412903390899088908890600401615535565b602060405180830381600087803b15801561442c57600080fd5b505af192505050801561445c575060408051601f3d908101601f1916820190925261445991810190615572565b60015b6144b6573d80801561448a576040519150601f19603f3d011682016040523d82523d6000602084013e61448f565b606091505b5080516144ae5760405162461bcd60e51b8152600401610a109061546e565b805181602001fd5b6001600160e01b031916630a85bd0160e11b1490506132ec565b506001949350505050565b6060816144ff5750506040805180820190915260018152600360fc1b602082015290565b8160005b811561452957806145138161558f565b91506145229050600a836155c0565b9150614503565b60008167ffffffffffffffff81111561454457614544614a6f565b6040519080825280601f01601f19166020018201604052801561456e576020820181803683370190505b5090505b84156132ec57614583600183615391565b9150614590600a866155d4565b61459b906030615079565b60f81b8183815181106145b0576145b06155e8565b60200101906001600160f81b031916908160001a9053506145d2600a866155c0565b9450614572565b606060006145e88360026155fe565b6145f3906002615079565b67ffffffffffffffff81111561460b5761460b614a6f565b6040519080825280601f01601f191660200182016040528015614635576020820181803683370190505b509050600360fc1b81600081518110614650576146506155e8565b60200101906001600160f81b031916908160001a905350600f60fb1b8160018151811061467f5761467f6155e8565b60200101906001600160f81b031916908160001a90535060006146a38460026155fe565b6146ae906001615079565b90505b6001811115614726576f181899199a1a9b1b9c1cb0b131b232b360811b85600f16601081106146e2576146e26155e8565b1a60f81b8282815181106146f8576146f86155e8565b60200101906001600160f81b031916908160001a90535060049490941c9361471f816151b4565b90506146b1565b5083156141525760405162461bcd60e51b815260206004820181905260248201527f537472696e67733a20686578206c656e67746820696e73756666696369656e746044820152606401610a10565b50805461478190615015565b6000825580601f10614791575050565b601f016020900490600052602060002090810190613bf691906148ad565b5080546000825590600052602060002090810190613bf691906148ad565b8280546147d990615015565b90600052602060002090601f0160209004810192826147fb5760008555614841565b82601f1061481457805160ff1916838001178555614841565b82800160010185558215614841579182015b82811115614841578251825591602001919060010190614826565b5061484d9291506148ad565b5090565b6040805161016081018252600080825260208201819052918101829052606081018290526080810182905260a0810182905260c0810182905260e081018290526101008101829052610120810182905261014081019190915290565b5b8082111561484d57600081556001016148ae565b6001600160e01b031981168114613bf657600080fd5b6000602082840312156148ea57600080fd5b8135614152816148c2565b60005b838110156149105781810151838201526020016148f8565b83811115612fee5750506000910152565b600081518084526149398160208601602086016148f5565b601f01601f19169290920160200192915050565b6020815260006141526020830184614921565b80356001600160a01b038116811461497757600080fd5b919050565b803560ff8116811461497757600080fd5b600080600080600080600060e0888a0312156149a857600080fd5b87359650602088013595506149bf60408901614960565b9450606088013593506149d46080890161497c565b925060a0880135915060c0880135905092959891949750929550565b600060208284031215614a0257600080fd5b5035919050565b60008060408385031215614a1c57600080fd5b614a2583614960565b946020939093013593505050565b600080600060608486031215614a4857600080fd5b614a5184614960565b9250614a5f60208501614960565b9150604084013590509250925092565b634e487b7160e01b600052604160045260246000fd5b600067ffffffffffffffff80841115614aa057614aa0614a6f565b604051601f8501601f19908116603f01168101908282118183101715614ac857614ac8614a6f565b81604052809350858152868686011115614ae157600080fd5b858560208301376000602087830101525050509392505050565b600082601f830112614b0c57600080fd5b61415283833560208501614a85565b60008060008060008060c08789031215614b3457600080fd5b86359550602087013567ffffffffffffffff80821115614b5357600080fd5b614b5f8a838b01614afb565b96506040890135915080821115614b7557600080fd5b614b818a838b01614afb565b95506060890135915080821115614b9757600080fd5b50614ba489828a01614afb565b9350506080870135915060a087013590509295509295509295565b60008060408385031215614bd257600080fd5b82359150614be260208401614960565b90509250929050565b600060208284031215614bfd57600080fd5b61415282614960565b6001600160a01b038816815260e06020808301829052600091614c2b9084018a614921565b8381036040850152614c3d818a614921565b90508381036060850152614c518189614921565b6080850188905260a0850187905284810360c0860152855180825283870192509083019060005b81811015614c9457835183529284019291840191600101614c78565b50909c9b505050505050505050505050565b60008060008060808587031215614cbc57600080fd5b843593506020850135925060408501359150614cda60608601614960565b905092959194509250565b8015158114613bf657600080fd5b60008060408385031215614d0657600080fd5b614d0f83614960565b91506020830135614d1f81614ce5565b809150509250929050565b600080600080600080600080610100898b031215614d4757600080fd5b8835975060208901359650604089013595506060890135945060808901359350614d7360a08a0161497c565b925060c0890135915060e089013590509295985092959890939650565b60008060408385031215614da357600080fd5b50508035926020909101359150565b600080600080600060a08688031215614dca57600080fd5b8535945060208601359350614de16040870161497c565b94979396509394606081013594506080013592915050565b600080600080600060a08688031215614e1157600080fd5b505083359560208501359550604085013594606081013594506080013592509050565b60008060008060808587031215614e4a57600080fd5b614e5385614960565b9350614e6160208601614960565b925060408501359150606085013567ffffffffffffffff811115614e8457600080fd5b8501601f81018713614e9557600080fd5b614ea487823560208401614a85565b91505092959194509250565b600080600080600080600060e0888a031215614ecb57600080fd5b8735965060208801359550604088013567ffffffffffffffff80821115614ef157600080fd5b614efd8b838c01614afb565b965060608a0135915080821115614f1357600080fd5b614f1f8b838c01614afb565b955060808a0135915080821115614f3557600080fd5b50614f428a828b01614afb565b93505060a0880135915060c0880135905092959891949750929550565b805182526000602082015160e06020850152614f7e60e0850182614921565b905060408301516040850152606083015160608501526080830151608085015260a083015184820360a0860152614fb58282614921565b91505060c083015184820360c0860152614fcf8282614921565b95945050505050565b6020815260006141526020830184614f5f565b60008060408385031215614ffe57600080fd5b61500783614960565b9150614be260208401614960565b600181811c9082168061502957607f821691505b60208210811415611e3457634e487b7160e01b600052602260045260246000fd5b60006020828403121561505c57600080fd5b5051919050565b634e487b7160e01b600052601160045260246000fd5b6000821982111561508c5761508c615063565b500190565b602080825260149082015273115d995b9d08191bd95cc81b9bdd08195e1a5cdd60621b604082015260600190565b6020808252601a908201527f5469636b6574207479706520646f6573206e6f74206578697374000000000000604082015260600190565b6001600160a01b0397881681529590961660208601526040850193909352606084019190915260ff16608083015260a082015260c081019190915260e00190565b60208082526017908201527f546f6b656e20616c6c6f77616e636520746f6f206c6f77000000000000000000604082015260600190565b60006020828403121561518057600080fd5b815161415281614ce5565b6020808252600f908201526e1d1c985b9cd9995c8819985a5b1959608a1b604082015260600190565b6000816151c3576151c3615063565b506000190190565b8054600090600181811c90808316806151e557607f831692505b602080841082141561520757634e487b7160e01b600052602260045260246000fd5b8388526020880182801561522257600181146152335761525e565b60ff1987168252828201975061525e565b60008981526020902060005b878110156152585781548482015290860190840161523f565b83019850505b5050505050505092915050565b85815284602082015283604082015260a06060820152600061529060a08301856151cb565b90508260808301529695505050505050565b6020808252602c908201527f4f6e6c79206576656e74206f7267616e697a6572732063616e2063616c6c207460408201526b3434b990333ab731ba34b7b760a11b606082015260800190565b6020808252602e908201527f4552433732313a2063616c6c6572206973206e6f7420746f6b656e206f776e6560408201526d1c881b9bdc88185c1c1c9bdd995960921b606082015260800190565b86815260c06020820152600061535560c0830188614921565b82810360408401526153678188614921565b9050828103606084015261537b8187614921565b6080840195909552505060a00152949350505050565b6000828210156153a3576153a3615063565b500390565b60208082526021908201527f4f6e6c79206f776e65722063616e2063616c6c20746869732066756e6374696f6040820152603760f91b606082015260800190565b6001600160a01b03831681526040602082018190526000906132ec908301846151cb565b8281526040602082015260006132ec6040830184614f5f565b600083516154388184602088016148f5565b83519083019061544c8183602088016148f5565b01949350505050565b8281526040602082015260006132ec6040830184614921565b60208082526032908201527f4552433732313a207472616e7366657220746f206e6f6e20455243373231526560408201527131b2b4bb32b91034b6b83632b6b2b73a32b960711b606082015260800190565b7f416363657373436f6e74726f6c3a206163636f756e74200000000000000000008152600083516154f88160178501602088016148f5565b7001034b99036b4b9b9b4b733903937b6329607d1b60179184019182015283516155298160288401602088016148f5565b01602801949350505050565b6001600160a01b038581168252841660208201526040810183905260806060820181905260009061556890830184614921565b9695505050505050565b60006020828403121561558457600080fd5b8151614152816148c2565b60006000198214156155a3576155a3615063565b5060010190565b634e487b7160e01b600052601260045260246000fd5b6000826155cf576155cf6155aa565b500490565b6000826155e3576155e36155aa565b500690565b634e487b7160e01b600052603260045260246000fd5b600081600019048311821515161561561857615618615063565b50029056feb19546dff01e856fb3f010c267a7b1c60363cf8a4664e21cc89c26224620214e4d2e7a1e3f5dd6e203f087b15756ccf0e4ccd947fe1b639a38540089a1e47f63a26469706673582212200eaf55ec3fc8e8dad8c206061ad650dce0c5ada9dd550343bfd34a9434a6268464736f6c63430008090033",
  "linkReferences": {},
  "deployedLinkReferences": {}
}