{
  "_format": "hh-sol-artifact-1",
  "contractName": "TicketGenerator",
  "sourceName": "contracts/TicketGenerator.sol",
  "abi": [
    {
      "inputs": [
        {
          "internalType": "address",
          "name": "_tokenAddress",
          "type": "address"
        },
        {
          "internalType": "address",
          "name": "_souvenirGeneratorAddress",
          "type": "address"
        }
      ],
      "stateMutability": "nonpayable",
      "type": "constructor"
    },
    {
      "anonymous": false,
      "inputs": [
        {
          "indexed": true,
          "internalType": "bytes32",
          "name": "offerId",
          "type": "bytes32"
        },
        {
          "indexed": true,
          "internalType": "address",
          "name": "buyer",
          "type": "address"
        },
        {
          "indexed": true,
          "internalType": "address",
          "name": "seller",
          "type": "address"
        },
        {
          "indexed": false,
          "internalType": "bytes32",
          "name": "eventId",
          "type": "bytes32"
        },
        {
          "indexed": false,
          "internalType": "bytes32",
          "name": "ticketTypeId",
          "type": "bytes32"
        },
        {
          "indexed": false,
          "internalType": "uint256",
          "name": "ticketId",
          "type": "uint256"
        },
        {
          "indexed": false,
          "internalType": "string",
          "name": "tokenURI",
          "type": "string"
        },
        {
          "indexed": false,
          "internalType": "uint256",
          "name": "price",
          "type": "uint256"
        }
      ],
      "name": "AcceptBuyOffer",
      "type": "event"
    },
    {
      "anonymous": false,
      "inputs": [
        {
          "indexed": true,
          "internalType": "bytes32",
          "name": "offerId",
          "type": "bytes32"
        },
        {
          "indexed": true,
          "internalType": "address",
          "name": "buyer",
          "type": "address"
        },
        {
          "indexed": true,
          "internalType": "address",
          "name": "seller",
          "type": "address"
        },
        {
          "indexed": false,
          "internalType": "bytes32",
          "name": "eventId",
          "type": "bytes32"
        },
        {
          "indexed": false,
          "internalType": "bytes32",
          "name": "ticketTypeId",
          "type": "bytes32"
        },
        {
          "indexed": false,
          "internalType": "uint256",
          "name": "ticketId",
          "type": "uint256"
        },
        {
          "indexed": false,
          "internalType": "string",
          "name": "tokenURI",
          "type": "string"
        },
        {
          "indexed": false,
          "internalType": "uint256",
          "name": "price",
          "type": "uint256"
        }
      ],
      "name": "AcceptSellOffer",
      "type": "event"
    },
    {
      "anonymous": false,
      "inputs": [
        {
          "indexed": true,
          "internalType": "address",
          "name": "owner",
          "type": "address"
        },
        {
          "indexed": true,
          "internalType": "address",
          "name": "approved",
          "type": "address"
        },
        {
          "indexed": true,
          "internalType": "uint256",
          "name": "tokenId",
          "type": "uint256"
        }
      ],
      "name": "Approval",
      "type": "event"
    },
    {
      "anonymous": false,
      "inputs": [
        {
          "indexed": true,
          "internalType": "address",
          "name": "owner",
          "type": "address"
        },
        {
          "indexed": true,
          "internalType": "address",
          "name": "operator",
          "type": "address"
        },
        {
          "indexed": false,
          "internalType": "bool",
          "name": "approved",
          "type": "bool"
        }
      ],
      "name": "ApprovalForAll",
      "type": "event"
    },
    {
      "anonymous": false,
      "inputs": [
        {
          "indexed": true,
          "internalType": "address",
          "name": "buyer",
          "type": "address"
        },
        {
          "indexed": true,
          "internalType": "address",
          "name": "owner",
          "type": "address"
        },
        {
          "indexed": false,
          "internalType": "bytes32",
          "name": "eventId",
          "type": "bytes32"
        },
        {
          "indexed": false,
          "internalType": "bytes32",
          "name": "ticketTypeId",
          "type": "bytes32"
        },
        {
          "indexed": false,
          "internalType": "uint256",
          "name": "tokenId",
          "type": "uint256"
        },
        {
          "indexed": false,
          "internalType": "string",
          "name": "tokenURI",
          "type": "string"
        },
        {
          "indexed": false,
          "internalType": "uint256",
          "name": "eventStartTime",
          "type": "uint256"
        }
      ],
      "name": "BuyTicket",
      "type": "event"
    },
    {
      "anonymous": false,
      "inputs": [
        {
          "indexed": true,
          "internalType": "bytes32",
          "name": "offerId",
          "type": "bytes32"
        },
        {
          "indexed": true,
          "internalType": "address",
          "name": "sender",
          "type": "address"
        }
      ],
      "name": "CancelOffer",
      "type": "event"
    },
    {
      "anonymous": false,
      "inputs": [
        {
          "indexed": false,
          "internalType": "bytes32",
          "name": "offerId",
          "type": "bytes32"
        },
        {
          "indexed": true,
          "internalType": "address",
          "name": "buyer",
          "type": "address"
        },
        {
          "indexed": false,
          "internalType": "bytes32",
          "name": "eventId",
          "type": "bytes32"
        },
        {
          "indexed": false,
          "internalType": "bytes32",
          "name": "ticketTypeId",
          "type": "bytes32"
        },
        {
          "indexed": false,
          "internalType": "uint256",
          "name": "price",
          "type": "uint256"
        },
        {
          "indexed": false,
          "internalType": "uint256",
          "name": "deadline",
          "type": "uint256"
        }
      ],
      "name": "CreateBuyOffer",
      "type": "event"
    },
    {
      "anonymous": false,
      "inputs": [
        {
          "indexed": true,
          "internalType": "address",
          "name": "creator",
          "type": "address"
        },
        {
          "indexed": false,
          "internalType": "bytes32",
          "name": "eventId",
          "type": "bytes32"
        },
        {
          "indexed": false,
          "internalType": "string",
          "name": "name",
          "type": "string"
        },
        {
          "indexed": false,
          "internalType": "string",
          "name": "description",
          "type": "string"
        },
        {
          "indexed": false,
          "internalType": "string",
          "name": "eventStorage",
          "type": "string"
        },
        {
          "indexed": false,
          "internalType": "string",
          "name": "location",
          "type": "string"
        },
        {
          "indexed": false,
          "internalType": "uint256",
          "name": "startTime",
          "type": "uint256"
        },
        {
          "indexed": false,
          "internalType": "uint256",
          "name": "endTime",
          "type": "uint256"
        }
      ],
      "name": "CreateEvent",
      "type": "event"
    },
    {
      "anonymous": false,
      "inputs": [
        {
          "indexed": true,
          "internalType": "bytes32",
          "name": "offerId",
          "type": "bytes32"
        },
        {
          "indexed": true,
          "internalType": "address",
          "name": "seller",
          "type": "address"
        },
        {
          "indexed": false,
          "internalType": "bytes32",
          "name": "eventId",
          "type": "bytes32"
        },
        {
          "indexed": false,
          "internalType": "bytes32",
          "name": "ticketTypeId",
          "type": "bytes32"
        },
        {
          "indexed": false,
          "internalType": "uint256",
          "name": "ticketId",
          "type": "uint256"
        },
        {
          "indexed": false,
          "internalType": "uint256",
          "name": "price",
          "type": "uint256"
        }
      ],
      "name": "CreateSellOffer",
      "type": "event"
    },
    {
      "anonymous": false,
      "inputs": [
        {
          "indexed": true,
          "internalType": "address",
          "name": "creator",
          "type": "address"
        },
        {
          "indexed": false,
          "internalType": "bytes32",
          "name": "eventId",
          "type": "bytes32"
        },
        {
          "components": [
            {
              "internalType": "bytes32",
              "name": "id",
              "type": "bytes32"
            },
            {
              "internalType": "string",
              "name": "name",
              "type": "string"
            },
            {
              "internalType": "uint256",
              "name": "price",
              "type": "uint256"
            },
            {
              "internalType": "uint256",
              "name": "maxSupply",
              "type": "uint256"
            },
            {
              "internalType": "uint256",
              "name": "currentSupply",
              "type": "uint256"
            },
            {
              "internalType": "string",
              "name": "tokenURI",
              "type": "string"
            },
            {
              "internalType": "string",
              "name": "souvenirTokenURI",
              "type": "string"
            }
          ],
          "indexed": false,
          "internalType": "struct Structs.TicketType",
          "name": "ticketType",
          "type": "tuple"
        }
      ],
      "name": "CreateTicketType",
      "type": "event"
    },
    {
      "anonymous": false,
      "inputs": [
        {
          "indexed": true,
          "internalType": "address",
          "name": "creator",
          "type": "address"
        },
        {
          "indexed": false,
          "internalType": "bytes32",
          "name": "eventId",
          "type": "bytes32"
        }
      ],
      "name": "DeleteEvent",
      "type": "event"
    },
    {
      "anonymous": false,
      "inputs": [
        {
          "indexed": true,
          "internalType": "address",
          "name": "creator",
          "type": "address"
        },
        {
          "indexed": false,
          "internalType": "bytes32",
          "name": "eventId",
          "type": "bytes32"
        },
        {
          "indexed": false,
          "internalType": "bytes32",
          "name": "ticketTypeId",
          "type": "bytes32"
        }
      ],
      "name": "DeleteTicketType",
      "type": "event"
    },
    {
      "anonymous": false,
      "inputs": [
        {
          "indexed": true,
          "internalType": "address",
          "name": "sender",
          "type": "address"
        },
        {
          "indexed": false,
          "internalType": "uint256",
          "name": "amount",
          "type": "uint256"
        }
      ],
      "name": "Deposit",
      "type": "event"
    },
    {
      "anonymous": false,
      "inputs": [
        {
          "indexed": true,
          "internalType": "address",
          "name": "owner",
          "type": "address"
        },
        {
          "components": [
            {
              "internalType": "uint256",
              "name": "id",
              "type": "uint256"
            },
            {
              "internalType": "bytes32",
              "name": "eventId",
              "type": "bytes32"
            },
            {
              "internalType": "bytes32",
              "name": "ticketTypeId",
              "type": "bytes32"
            },
            {
              "internalType": "uint256",
              "name": "souvenirId",
              "type": "uint256"
            },
            {
              "internalType": "address",
              "name": "owner",
              "type": "address"
            },
            {
              "internalType": "bool",
              "name": "souvenirMinted",
              "type": "bool"
            },
            {
              "internalType": "bool",
              "name": "usable",
              "type": "bool"
            }
          ],
          "indexed": false,
          "internalType": "struct Structs.Ticket",
          "name": "ticket",
          "type": "tuple"
        },
        {
          "indexed": false,
          "internalType": "uint256",
          "name": "tokenId",
          "type": "uint256"
        },
        {
          "indexed": false,
          "internalType": "string",
          "name": "tokenURI",
          "type": "string"
        }
      ],
      "name": "GenerateSouvenir",
      "type": "event"
    },
    {
      "anonymous": false,
      "inputs": [
        {
          "indexed": true,
          "internalType": "bytes32",
          "name": "role",
          "type": "bytes32"
        },
        {
          "indexed": true,
          "internalType": "bytes32",
          "name": "previousAdminRole",
          "type": "bytes32"
        },
        {
          "indexed": true,
          "internalType": "bytes32",
          "name": "newAdminRole",
          "type": "bytes32"
        }
      ],
      "name": "RoleAdminChanged",
      "type": "event"
    },
    {
      "anonymous": false,
      "inputs": [
        {
          "indexed": true,
          "internalType": "bytes32",
          "name": "role",
          "type": "bytes32"
        },
        {
          "indexed": true,
          "internalType": "address",
          "name": "account",
          "type": "address"
        },
        {
          "indexed": true,
          "internalType": "address",
          "name": "sender",
          "type": "address"
        }
      ],
      "name": "RoleGranted",
      "type": "event"
    },
    {
      "anonymous": false,
      "inputs": [
        {
          "indexed": true,
          "internalType": "bytes32",
          "name": "role",
          "type": "bytes32"
        },
        {
          "indexed": true,
          "internalType": "address",
          "name": "account",
          "type": "address"
        },
        {
          "indexed": true,
          "internalType": "address",
          "name": "sender",
          "type": "address"
        }
      ],
      "name": "RoleRevoked",
      "type": "event"
    },
    {
      "anonymous": false,
      "inputs": [
        {
          "indexed": true,
          "internalType": "address",
          "name": "from",
          "type": "address"
        },
        {
          "indexed": true,
          "internalType": "address",
          "name": "to",
          "type": "address"
        },
        {
          "indexed": true,
          "internalType": "uint256",
          "name": "tokenId",
          "type": "uint256"
        }
      ],
      "name": "Transfer",
      "type": "event"
    },
    {
      "anonymous": false,
      "inputs": [
        {
          "indexed": true,
          "internalType": "address",
          "name": "sender",
          "type": "address"
        },
        {
          "indexed": true,
          "internalType": "address",
          "name": "receiver",
          "type": "address"
        },
        {
          "indexed": false,
          "internalType": "uint256",
          "name": "tokenId",
          "type": "uint256"
        }
      ],
      "name": "TransferTicket",
      "type": "event"
    },
    {
      "anonymous": false,
      "inputs": [
        {
          "indexed": true,
          "internalType": "address",
          "name": "creator",
          "type": "address"
        },
        {
          "indexed": false,
          "internalType": "bytes32",
          "name": "eventId",
          "type": "bytes32"
        },
        {
          "indexed": false,
          "internalType": "string",
          "name": "name",
          "type": "string"
        },
        {
          "indexed": false,
          "internalType": "string",
          "name": "description",
          "type": "string"
        },
        {
          "indexed": false,
          "internalType": "string",
          "name": "eventStorage",
          "type": "string"
        },
        {
          "indexed": false,
          "internalType": "string",
          "name": "location",
          "type": "string"
        },
        {
          "indexed": false,
          "internalType": "uint256",
          "name": "startTime",
          "type": "uint256"
        },
        {
          "indexed": false,
          "internalType": "uint256",
          "name": "endTime",
          "type": "uint256"
        }
      ],
      "name": "UpdateEvent",
      "type": "event"
    },
    {
      "anonymous": false,
      "inputs": [
        {
          "indexed": true,
          "internalType": "address",
          "name": "creator",
          "type": "address"
        },
        {
          "indexed": false,
          "internalType": "bytes32",
          "name": "eventId",
          "type": "bytes32"
        },
        {
          "components": [
            {
              "internalType": "bytes32",
              "name": "id",
              "type": "bytes32"
            },
            {
              "internalType": "string",
              "name": "name",
              "type": "string"
            },
            {
              "internalType": "uint256",
              "name": "price",
              "type": "uint256"
            },
            {
              "internalType": "uint256",
              "name": "maxSupply",
              "type": "uint256"
            },
            {
              "internalType": "uint256",
              "name": "currentSupply",
              "type": "uint256"
            },
            {
              "internalType": "string",
              "name": "tokenURI",
              "type": "string"
            },
            {
              "internalType": "string",
              "name": "souvenirTokenURI",
              "type": "string"
            }
          ],
          "indexed": false,
          "internalType": "struct Structs.TicketType",
          "name": "ticketType",
          "type": "tuple"
        }
      ],
      "name": "UpdateTicketType",
      "type": "event"
    },
    {
      "anonymous": false,
      "inputs": [
        {
          "indexed": true,
          "internalType": "address",
          "name": "sender",
          "type": "address"
        },
        {
          "indexed": false,
          "internalType": "uint256",
          "name": "ticketId",
          "type": "uint256"
        }
      ],
      "name": "UseTicket",
      "type": "event"
    },
    {
      "anonymous": false,
      "inputs": [
        {
          "indexed": true,
          "internalType": "address",
          "name": "receiver",
          "type": "address"
        },
        {
          "indexed": false,
          "internalType": "uint256",
          "name": "amount",
          "type": "uint256"
        }
      ],
      "name": "Withdraw",
      "type": "event"
    },
    {
      "inputs": [],
      "name": "DEFAULT_ADMIN_ROLE",
      "outputs": [
        {
          "internalType": "bytes32",
          "name": "",
          "type": "bytes32"
        }
      ],
      "stateMutability": "view",
      "type": "function"
    },
    {
      "inputs": [],
      "name": "MINTER_ROLE",
      "outputs": [
        {
          "internalType": "bytes32",
          "name": "",
          "type": "bytes32"
        }
      ],
      "stateMutability": "view",
      "type": "function"
    },
    {
      "inputs": [],
      "name": "ORGANIZER_ROLE",
      "outputs": [
        {
          "internalType": "bytes32",
          "name": "",
          "type": "bytes32"
        }
      ],
      "stateMutability": "view",
      "type": "function"
    },
    {
      "inputs": [],
      "name": "OWNER_ROLE",
      "outputs": [
        {
          "internalType": "bytes32",
          "name": "",
          "type": "bytes32"
        }
      ],
      "stateMutability": "view",
      "type": "function"
    },
    {
      "inputs": [
        {
          "internalType": "bytes32",
          "name": "id",
          "type": "bytes32"
        },
        {
          "internalType": "uint256",
          "name": "ticketId",
          "type": "uint256"
        }
      ],
      "name": "acceptBuyOffer",
      "outputs": [],
      "stateMutability": "nonpayable",
      "type": "function"
    },
    {
      "inputs": [
        {
          "internalType": "bytes32",
          "name": "id",
          "type": "bytes32"
        },
        {
          "internalType": "uint256",
          "name": "deadline",
          "type": "uint256"
        },
        {
          "internalType": "uint8",
          "name": "v",
          "type": "uint8"
        },
        {
          "internalType": "bytes32",
          "name": "r",
          "type": "bytes32"
        },
        {
          "internalType": "bytes32",
          "name": "s",
          "type": "bytes32"
        }
      ],
      "name": "acceptSellOffer",
      "outputs": [],
      "stateMutability": "nonpayable",
      "type": "function"
    },
    {
      "inputs": [
        {
          "internalType": "address",
          "name": "to",
          "type": "address"
        },
        {
          "internalType": "uint256",
          "name": "tokenId",
          "type": "uint256"
        }
      ],
      "name": "approve",
      "outputs": [],
      "stateMutability": "nonpayable",
      "type": "function"
    },
    {
      "inputs": [
        {
          "internalType": "address",
          "name": "owner",
          "type": "address"
        }
      ],
      "name": "balanceOf",
      "outputs": [
        {
          "internalType": "uint256",
          "name": "",
          "type": "uint256"
        }
      ],
      "stateMutability": "view",
      "type": "function"
    },
    {
      "inputs": [],
      "name": "becomeOrganizer",
      "outputs": [],
      "stateMutability": "nonpayable",
      "type": "function"
    },
    {
      "inputs": [
        {
          "internalType": "bytes32",
          "name": "_eventId",
          "type": "bytes32"
        },
        {
          "internalType": "bytes32",
          "name": "_ticketTypeId",
          "type": "bytes32"
        },
        {
          "internalType": "address",
          "name": "_recipient",
          "type": "address"
        },
        {
          "internalType": "uint256",
          "name": "deadline",
          "type": "uint256"
        },
        {
          "internalType": "uint8",
          "name": "v",
          "type": "uint8"
        },
        {
          "internalType": "bytes32",
          "name": "r",
          "type": "bytes32"
        },
        {
          "internalType": "bytes32",
          "name": "s",
          "type": "bytes32"
        }
      ],
      "name": "buyTicket",
      "outputs": [
        {
          "internalType": "uint256",
          "name": "",
          "type": "uint256"
        }
      ],
      "stateMutability": "nonpayable",
      "type": "function"
    },
    {
      "inputs": [
        {
          "internalType": "bytes32",
          "name": "id",
          "type": "bytes32"
        }
      ],
      "name": "cancelOffer",
      "outputs": [],
      "stateMutability": "nonpayable",
      "type": "function"
    },
    {
      "inputs": [
        {
          "internalType": "bytes32",
          "name": "id",
          "type": "bytes32"
        },
        {
          "internalType": "bytes32",
          "name": "eventId",
          "type": "bytes32"
        },
        {
          "internalType": "bytes32",
          "name": "ticketTypeId",
          "type": "bytes32"
        },
        {
          "internalType": "uint256",
          "name": "price",
          "type": "uint256"
        },
        {
          "internalType": "uint256",
          "name": "deadline",
          "type": "uint256"
        },
        {
          "internalType": "uint8",
          "name": "v",
          "type": "uint8"
        },
        {
          "internalType": "bytes32",
          "name": "r",
          "type": "bytes32"
        },
        {
          "internalType": "bytes32",
          "name": "s",
          "type": "bytes32"
        }
      ],
      "name": "createBuyOffer",
      "outputs": [],
      "stateMutability": "nonpayable",
      "type": "function"
    },
    {
      "inputs": [
        {
          "internalType": "bytes32",
          "name": "_eventId",
          "type": "bytes32"
        },
        {
          "internalType": "string",
          "name": "_name",
          "type": "string"
        },
        {
          "internalType": "string",
          "name": "_description",
          "type": "string"
        },
        {
          "internalType": "string",
          "name": "eventStorage",
          "type": "string"
        },
        {
          "internalType": "string",
          "name": "location",
          "type": "string"
        },
        {
          "internalType": "uint256",
          "name": "startTime",
          "type": "uint256"
        },
        {
          "internalType": "uint256",
          "name": "endTime",
          "type": "uint256"
        }
      ],
      "name": "createEvent",
      "outputs": [],
      "stateMutability": "nonpayable",
      "type": "function"
    },
    {
      "inputs": [
        {
          "internalType": "bytes32",
          "name": "id",
          "type": "bytes32"
        },
        {
          "internalType": "bytes32",
          "name": "eventId",
          "type": "bytes32"
        },
        {
          "internalType": "bytes32",
          "name": "ticketTypeId",
          "type": "bytes32"
        },
        {
          "internalType": "uint256",
          "name": "ticketId",
          "type": "uint256"
        },
        {
          "internalType": "uint256",
          "name": "price",
          "type": "uint256"
        }
      ],
      "name": "createSellOffer",
      "outputs": [],
      "stateMutability": "nonpayable",
      "type": "function"
    },
    {
      "inputs": [
        {
          "internalType": "bytes32",
          "name": "_eventId",
          "type": "bytes32"
        },
        {
          "internalType": "bytes32",
          "name": "_ticketTypeId",
          "type": "bytes32"
        },
        {
          "internalType": "string",
          "name": "_ticketName",
          "type": "string"
        },
        {
          "internalType": "string",
          "name": "_tokenURI",
          "type": "string"
        },
        {
          "internalType": "string",
          "name": "_souvenirTokenURI",
          "type": "string"
        },
        {
          "internalType": "uint256",
          "name": "_price",
          "type": "uint256"
        },
        {
          "internalType": "uint256",
          "name": "_maxSupply",
          "type": "uint256"
        }
      ],
      "name": "createTicketType",
      "outputs": [],
      "stateMutability": "nonpayable",
      "type": "function"
    },
    {
      "inputs": [
        {
          "internalType": "bytes32",
          "name": "_eventId",
          "type": "bytes32"
        }
      ],
      "name": "deleteEvent",
      "outputs": [],
      "stateMutability": "nonpayable",
      "type": "function"
    },
    {
      "inputs": [
        {
          "internalType": "bytes32",
          "name": "_eventId",
          "type": "bytes32"
        },
        {
          "internalType": "bytes32",
          "name": "_ticketTypeId",
          "type": "bytes32"
        }
      ],
      "name": "deleteTicketType",
      "outputs": [],
      "stateMutability": "nonpayable",
      "type": "function"
    },
    {
      "inputs": [],
      "name": "deposit",
      "outputs": [],
      "stateMutability": "payable",
      "type": "function"
    },
    {
      "inputs": [
        {
          "internalType": "uint256",
          "name": "tokenId",
          "type": "uint256"
        }
      ],
      "name": "getApproved",
      "outputs": [
        {
          "internalType": "address",
          "name": "",
          "type": "address"
        }
      ],
      "stateMutability": "view",
      "type": "function"
    },
    {
      "inputs": [
        {
          "internalType": "bytes32",
          "name": "_eventId",
          "type": "bytes32"
        }
      ],
      "name": "getEvent",
      "outputs": [
        {
          "internalType": "address",
          "name": "",
          "type": "address"
        },
        {
          "internalType": "string",
          "name": "",
          "type": "string"
        },
        {
          "internalType": "string",
          "name": "",
          "type": "string"
        },
        {
          "internalType": "string",
          "name": "",
          "type": "string"
        },
        {
          "internalType": "uint256",
          "name": "",
          "type": "uint256"
        },
        {
          "internalType": "uint256",
          "name": "",
          "type": "uint256"
        },
        {
          "internalType": "bytes32[]",
          "name": "",
          "type": "bytes32[]"
        }
      ],
      "stateMutability": "view",
      "type": "function"
    },
    {
      "inputs": [
        {
          "internalType": "uint256",
          "name": "_tokenId",
          "type": "uint256"
        }
      ],
      "name": "getMetadata",
      "outputs": [
        {
          "internalType": "string",
          "name": "",
          "type": "string"
        }
      ],
      "stateMutability": "view",
      "type": "function"
    },
    {
      "inputs": [
        {
          "internalType": "bytes32",
          "name": "id",
          "type": "bytes32"
        }
      ],
      "name": "getOffer",
      "outputs": [
        {
          "components": [
            {
              "internalType": "bytes32",
              "name": "id",
              "type": "bytes32"
            },
            {
              "internalType": "bytes32",
              "name": "eventId",
              "type": "bytes32"
            },
            {
              "internalType": "bytes32",
              "name": "ticketTypeId",
              "type": "bytes32"
            },
            {
              "internalType": "uint256",
              "name": "ticketId",
              "type": "uint256"
            },
            {
              "internalType": "uint256",
              "name": "price",
              "type": "uint256"
            },
            {
              "internalType": "address",
              "name": "seller",
              "type": "address"
            },
            {
              "internalType": "address",
              "name": "buyer",
              "type": "address"
            },
            {
              "internalType": "bool",
              "name": "accepted",
              "type": "bool"
            },
            {
              "internalType": "uint256",
              "name": "deadline",
              "type": "uint256"
            },
            {
              "internalType": "bool",
              "name": "buyOffer",
              "type": "bool"
            },
            {
              "internalType": "bool",
              "name": "sellOffer",
              "type": "bool"
            }
          ],
          "internalType": "struct Structs.Offer",
          "name": "",
          "type": "tuple"
        }
      ],
      "stateMutability": "view",
      "type": "function"
    },
    {
      "inputs": [
        {
          "internalType": "bytes32",
          "name": "role",
          "type": "bytes32"
        }
      ],
      "name": "getRoleAdmin",
      "outputs": [
        {
          "internalType": "bytes32",
          "name": "",
          "type": "bytes32"
        }
      ],
      "stateMutability": "view",
      "type": "function"
    },
    {
      "inputs": [
        {
          "internalType": "uint256",
          "name": "_ticketId",
          "type": "uint256"
        }
      ],
      "name": "getSouvenir",
      "outputs": [
        {
          "internalType": "uint256",
          "name": "",
          "type": "uint256"
        }
      ],
      "stateMutability": "nonpayable",
      "type": "function"
    },
    {
      "inputs": [
        {
          "internalType": "uint256",
          "name": "_ticketId",
          "type": "uint256"
        }
      ],
      "name": "getTicket",
      "outputs": [
        {
          "components": [
            {
              "internalType": "uint256",
              "name": "id",
              "type": "uint256"
            },
            {
              "internalType": "bytes32",
              "name": "eventId",
              "type": "bytes32"
            },
            {
              "internalType": "bytes32",
              "name": "ticketTypeId",
              "type": "bytes32"
            },
            {
              "internalType": "uint256",
              "name": "souvenirId",
              "type": "uint256"
            },
            {
              "internalType": "address",
              "name": "owner",
              "type": "address"
            },
            {
              "internalType": "bool",
              "name": "souvenirMinted",
              "type": "bool"
            },
            {
              "internalType": "bool",
              "name": "usable",
              "type": "bool"
            }
          ],
          "internalType": "struct Structs.Ticket",
          "name": "",
          "type": "tuple"
        }
      ],
      "stateMutability": "view",
      "type": "function"
    },
    {
      "inputs": [
        {
          "internalType": "bytes32",
          "name": "_eventId",
          "type": "bytes32"
        },
        {
          "internalType": "bytes32",
          "name": "_ticketTypeId",
          "type": "bytes32"
        }
      ],
      "name": "getTicketType",
      "outputs": [
        {
          "components": [
            {
              "internalType": "bytes32",
              "name": "id",
              "type": "bytes32"
            },
            {
              "internalType": "string",
              "name": "name",
              "type": "string"
            },
            {
              "internalType": "uint256",
              "name": "price",
              "type": "uint256"
            },
            {
              "internalType": "uint256",
              "name": "maxSupply",
              "type": "uint256"
            },
            {
              "internalType": "uint256",
              "name": "currentSupply",
              "type": "uint256"
            },
            {
              "internalType": "string",
              "name": "tokenURI",
              "type": "string"
            },
            {
              "internalType": "string",
              "name": "souvenirTokenURI",
              "type": "string"
            }
          ],
          "internalType": "struct Structs.TicketType",
          "name": "",
          "type": "tuple"
        }
      ],
      "stateMutability": "view",
      "type": "function"
    },
    {
      "inputs": [
        {
          "internalType": "bytes32",
          "name": "role",
          "type": "bytes32"
        },
        {
          "internalType": "address",
          "name": "account",
          "type": "address"
        }
      ],
      "name": "grantRole",
      "outputs": [],
      "stateMutability": "nonpayable",
      "type": "function"
    },
    {
      "inputs": [
        {
          "internalType": "bytes32",
          "name": "role",
          "type": "bytes32"
        },
        {
          "internalType": "address",
          "name": "account",
          "type": "address"
        }
      ],
      "name": "hasRole",
      "outputs": [
        {
          "internalType": "bool",
          "name": "",
          "type": "bool"
        }
      ],
      "stateMutability": "view",
      "type": "function"
    },
    {
      "inputs": [
        {
          "internalType": "address",
          "name": "owner",
          "type": "address"
        },
        {
          "internalType": "address",
          "name": "operator",
          "type": "address"
        }
      ],
      "name": "isApprovedForAll",
      "outputs": [
        {
          "internalType": "bool",
          "name": "",
          "type": "bool"
        }
      ],
      "stateMutability": "view",
      "type": "function"
    },
    {
      "inputs": [],
      "name": "name",
      "outputs": [
        {
          "internalType": "string",
          "name": "",
          "type": "string"
        }
      ],
      "stateMutability": "view",
      "type": "function"
    },
    {
      "inputs": [
        {
          "internalType": "uint256",
          "name": "tokenId",
          "type": "uint256"
        }
      ],
      "name": "ownerOf",
      "outputs": [
        {
          "internalType": "address",
          "name": "",
          "type": "address"
        }
      ],
      "stateMutability": "view",
      "type": "function"
    },
    {
      "inputs": [],
      "name": "ownerWithdraw",
      "outputs": [],
      "stateMutability": "nonpayable",
      "type": "function"
    },
    {
      "inputs": [
        {
          "internalType": "bytes32",
          "name": "role",
          "type": "bytes32"
        },
        {
          "internalType": "address",
          "name": "account",
          "type": "address"
        }
      ],
      "name": "renounceRole",
      "outputs": [],
      "stateMutability": "nonpayable",
      "type": "function"
    },
    {
      "inputs": [
        {
          "internalType": "bytes32",
          "name": "role",
          "type": "bytes32"
        },
        {
          "internalType": "address",
          "name": "account",
          "type": "address"
        }
      ],
      "name": "revokeRole",
      "outputs": [],
      "stateMutability": "nonpayable",
      "type": "function"
    },
    {
      "inputs": [
        {
          "internalType": "address",
          "name": "from",
          "type": "address"
        },
        {
          "internalType": "address",
          "name": "to",
          "type": "address"
        },
        {
          "internalType": "uint256",
          "name": "tokenId",
          "type": "uint256"
        }
      ],
      "name": "safeTransferFrom",
      "outputs": [],
      "stateMutability": "nonpayable",
      "type": "function"
    },
    {
      "inputs": [
        {
          "internalType": "address",
          "name": "from",
          "type": "address"
        },
        {
          "internalType": "address",
          "name": "to",
          "type": "address"
        },
        {
          "internalType": "uint256",
          "name": "tokenId",
          "type": "uint256"
        },
        {
          "internalType": "bytes",
          "name": "data",
          "type": "bytes"
        }
      ],
      "name": "safeTransferFrom",
      "outputs": [],
      "stateMutability": "nonpayable",
      "type": "function"
    },
    {
      "inputs": [
        {
          "internalType": "address",
          "name": "operator",
          "type": "address"
        },
        {
          "internalType": "bool",
          "name": "approved",
          "type": "bool"
        }
      ],
      "name": "setApprovalForAll",
      "outputs": [],
      "stateMutability": "nonpayable",
      "type": "function"
    },
    {
      "inputs": [
        {
          "internalType": "uint256",
          "name": "_organizerDeposit",
          "type": "uint256"
        }
      ],
      "name": "setOrganizerDeposit",
      "outputs": [],
      "stateMutability": "nonpayable",
      "type": "function"
    },
    {
      "inputs": [
        {
          "internalType": "address",
          "name": "_souvenirGeneratorAddress",
          "type": "address"
        }
      ],
      "name": "setSouvenirGeneratorContract",
      "outputs": [],
      "stateMutability": "nonpayable",
      "type": "function"
    },
    {
      "inputs": [
        {
          "internalType": "address",
          "name": "_tokenAddress",
          "type": "address"
        }
      ],
      "name": "setTIKContract",
      "outputs": [],
      "stateMutability": "nonpayable",
      "type": "function"
    },
    {
      "inputs": [
        {
          "internalType": "bytes4",
          "name": "interfaceId",
          "type": "bytes4"
        }
      ],
      "name": "supportsInterface",
      "outputs": [
        {
          "internalType": "bool",
          "name": "",
          "type": "bool"
        }
      ],
      "stateMutability": "view",
      "type": "function"
    },
    {
      "inputs": [],
      "name": "symbol",
      "outputs": [
        {
          "internalType": "string",
          "name": "",
          "type": "string"
        }
      ],
      "stateMutability": "view",
      "type": "function"
    },
    {
      "inputs": [
        {
          "internalType": "uint256",
          "name": "amount",
          "type": "uint256"
        },
        {
          "internalType": "uint256",
          "name": "deadline",
          "type": "uint256"
        },
        {
          "internalType": "uint8",
          "name": "v",
          "type": "uint8"
        },
        {
          "internalType": "bytes32",
          "name": "r",
          "type": "bytes32"
        },
        {
          "internalType": "bytes32",
          "name": "s",
          "type": "bytes32"
        }
      ],
      "name": "ticketPurchasePermit",
      "outputs": [],
      "stateMutability": "nonpayable",
      "type": "function"
    },
    {
      "inputs": [
        {
          "internalType": "uint256",
          "name": "tokenId",
          "type": "uint256"
        }
      ],
      "name": "tokenURI",
      "outputs": [
        {
          "internalType": "string",
          "name": "",
          "type": "string"
        }
      ],
      "stateMutability": "view",
      "type": "function"
    },
    {
      "inputs": [
        {
          "internalType": "address",
          "name": "from",
          "type": "address"
        },
        {
          "internalType": "address",
          "name": "to",
          "type": "address"
        },
        {
          "internalType": "uint256",
          "name": "tokenId",
          "type": "uint256"
        }
      ],
      "name": "transferFrom",
      "outputs": [],
      "stateMutability": "nonpayable",
      "type": "function"
    },
    {
      "inputs": [
        {
          "internalType": "bytes32",
          "name": "_eventId",
          "type": "bytes32"
        },
        {
          "internalType": "string",
          "name": "_name",
          "type": "string"
        },
        {
          "internalType": "string",
          "name": "_description",
          "type": "string"
        },
        {
          "internalType": "string",
          "name": "eventStorage",
          "type": "string"
        },
        {
          "internalType": "string",
          "name": "location",
          "type": "string"
        },
        {
          "internalType": "uint256",
          "name": "startTime",
          "type": "uint256"
        },
        {
          "internalType": "uint256",
          "name": "endTime",
          "type": "uint256"
        }
      ],
      "name": "updateEvent",
      "outputs": [],
      "stateMutability": "nonpayable",
      "type": "function"
    },
    {
      "inputs": [
        {
          "internalType": "bytes32",
          "name": "_eventId",
          "type": "bytes32"
        },
        {
          "internalType": "bytes32",
          "name": "_ticketTypeId",
          "type": "bytes32"
        },
        {
          "internalType": "string",
          "name": "_ticketName",
          "type": "string"
        },
        {
          "internalType": "string",
          "name": "_tokenURI",
          "type": "string"
        },
        {
          "internalType": "string",
          "name": "_souvenirTokenURI",
          "type": "string"
        },
        {
          "internalType": "uint256",
          "name": "_price",
          "type": "uint256"
        },
        {
          "internalType": "uint256",
          "name": "_maxSupply",
          "type": "uint256"
        }
      ],
      "name": "updateTicketType",
      "outputs": [],
      "stateMutability": "nonpayable",
      "type": "function"
    },
    {
      "inputs": [
        {
          "internalType": "uint256",
          "name": "_ticketId",
          "type": "uint256"
        }
      ],
      "name": "useTicket",
      "outputs": [],
      "stateMutability": "nonpayable",
      "type": "function"
    },
    {
      "inputs": [
        {
          "internalType": "uint256",
          "name": "amount",
          "type": "uint256"
        }
      ],
      "name": "userWithdraw",
      "outputs": [],
      "stateMutability": "nonpayable",
      "type": "function"
    }
  ],
  "bytecode": "0x60806040526000601055600060115566038d7ea4c680006012553480156200002657600080fd5b50604051620062a0380380620062a08339810160408190526200004991620002bf565b604080518082018252600a815269151a58dad95d0813919560b21b60208083019182528351808501909452600384526213919560ea1b9084015281519192916200009691600191620001fc565b508051620000ac906002906020840190620001fc565b5050600980546001600160a01b038085166001600160a01b031992831617909255600a805492861692909116919091179055506200010b7fb19546dff01e856fb3f010c267a7b1c60363cf8a4664e21cc89c26224620214e336200014c565b620001377f4d2e7a1e3f5dd6e203f087b15756ccf0e4ccd947fe1b639a38540089a1e47f63336200014c565b620001446000336200014c565b505062000334565b6200015882826200015c565b5050565b6000828152602081815260408083206001600160a01b038516845290915290205460ff1662000158576000828152602081815260408083206001600160a01b03851684529091529020805460ff19166001179055620001b83390565b6001600160a01b0316816001600160a01b0316837f2f8788117e7eff1d82e926ec794901d17c78024a50270940304540a733656f0d60405160405180910390a45050565b8280546200020a90620002f7565b90600052602060002090601f0160209004810192826200022e576000855562000279565b82601f106200024957805160ff191683800117855562000279565b8280016001018555821562000279579182015b82811115620002795782518255916020019190600101906200025c565b50620002879291506200028b565b5090565b5b808211156200028757600081556001016200028c565b80516001600160a01b0381168114620002ba57600080fd5b919050565b60008060408385031215620002d357600080fd5b620002de83620002a2565b9150620002ee60208401620002a2565b90509250929050565b600181811c908216806200030c57607f821691505b602082108114156200032e57634e487b7160e01b600052602260045260246000fd5b50919050565b615f5c80620003446000396000f3fe6080604052600436106102ae5760003560e01c80637dc379fa11610175578063baab45fb116100dc578063d547741f11610095578063e5bdaeb71161006f578063e5bdaeb714610901578063e985e9c514610921578063ef1efc471461096a578063f952279e1461098a57600080fd5b8063d547741f14610892578063d597b8c8146108b2578063e58378bb146108df57600080fd5b8063baab45fb146107c9578063c87b56dd146107e9578063ceed06d514610809578063d0e30db014610829578063d3a8193014610831578063d53913931461085e57600080fd5b8063a38c7eb21161012e578063a38c7eb214610709578063a43329ad14610729578063a574cea414610749578063ae1e455414610769578063b64babc214610789578063b88d4fde146107a957600080fd5b80637dc379fa146105ee5780638c172fa21461066c57806391d148541461069f57806395d89b41146106bf578063a217fddf146106d4578063a22cb465146106e957600080fd5b80632f2ff15d116102195780634311de8f116101d25780634311de8f1461053757806352c0cb6c1461054c57806363113c6a1461056c5780636352211e1461058c57806370a08231146105ac5780637909cb59146105cc57600080fd5b80632f2ff15d1461047757806336568abe146104975780633b9056bf146104b75780634109ba1f146104d7578063419cc0ec146104f757806342842e0e1461051757600080fd5b80631cc844bc1161026b5780631cc844bc146103a75780631ef791d6146103c757806323b872dd146103e7578063248a9ca31461040757806326606448146104375780632d32165f1461045757600080fd5b806301ffc9a7146102b357806306fdde03146102e857806307b17fc91461030a57806307c8825914610321578063081812fc1461034f578063095ea7b314610387575b600080fd5b3480156102bf57600080fd5b506102d36102ce36600461508a565b6109aa565b60405190151581526020015b60405180910390f35b3480156102f457600080fd5b506102fd6109bb565b6040516102df91906150ff565b34801561031657600080fd5b5061031f610a4d565b005b34801561032d57600080fd5b5061034161033c36600461513f565b610c2c565b6040519081526020016102df565b34801561035b57600080fd5b5061036f61036a3660046151a2565b611174565b6040516001600160a01b0390911681526020016102df565b34801561039357600080fd5b5061031f6103a23660046151bb565b61119b565b3480156103b357600080fd5b5061031f6103c23660046151a2565b6112b1565b3480156103d357600080fd5b5061031f6103e23660046151e5565b611490565b3480156103f357600080fd5b5061031f610402366004615207565b611727565b34801561041357600080fd5b506103416104223660046151a2565b60009081526020819052604090206001015490565b34801561044357600080fd5b5061031f6104523660046151a2565b611758565b34801561046357600080fd5b5061031f6104723660046151e5565b6119a3565b34801561048357600080fd5b5061031f610492366004615243565b611cf0565b3480156104a357600080fd5b5061031f6104b2366004615243565b611d15565b3480156104c357600080fd5b5061031f6104d23660046151a2565b611d93565b3480156104e357600080fd5b5061031f6104f236600461531b565b611fc3565b34801561050357600080fd5b5061031f6105123660046153e5565b612190565b34801561052357600080fd5b5061031f610532366004615207565b612205565b34801561054357600080fd5b5061031f612220565b34801561055857600080fd5b5061031f61056736600461542c565b61236c565b34801561057857600080fd5b5061031f61058736600461542c565b6123c2565b34801561059857600080fd5b5061036f6105a73660046151a2565b612418565b3480156105b857600080fd5b506103416105c736600461542c565b612478565b3480156105d857600080fd5b50610341600080516020615f0783398151915281565b3480156105fa57600080fd5b5061060e6106093660046151a2565b6124fe565b6040516102df9190815181526020808301519082015260408083015190820152606080830151908201526080808301516001600160a01b03169082015260a08083015115159082015260c09182015115159181019190915260e00190565b34801561067857600080fd5b5061068c6106873660046151a2565b612615565b6040516102df9796959493929190615447565b3480156106ab57600080fd5b506102d36106ba366004615243565b61289f565b3480156106cb57600080fd5b506102fd6128c8565b3480156106e057600080fd5b50610341600081565b3480156106f557600080fd5b5061031f6107043660046154f5565b6128d7565b34801561071557600080fd5b506103416107243660046151a2565b6128e2565b34801561073557600080fd5b5061031f61074436600461552c565b612c24565b34801561075557600080fd5b506102fd6107643660046151a2565b612e7e565b34801561077557600080fd5b5061031f6107843660046153e5565b612e89565b34801561079557600080fd5b5061031f6107a4366004615592565b613232565b3480156107b557600080fd5b5061031f6107c43660046155cd565b613491565b3480156107d557600080fd5b5061031f6107e4366004615649565b6134c9565b3480156107f557600080fd5b506102fd6108043660046151a2565b6136b8565b34801561081557600080fd5b5061031f610824366004615649565b6137c9565b61031f613a66565b34801561083d57600080fd5b5061085161084c3660046151e5565b613b17565b6040516102df9190615703565b34801561086a57600080fd5b506103417f9f2df0fed2c77648de5860a4cc508cd0818c85b8b8a1ab4ceeef8d981c8956a681565b34801561089e57600080fd5b5061031f6108ad366004615243565b613dd1565b3480156108be57600080fd5b506108d26108cd3660046151a2565b613df6565b6040516102df9190615716565b3480156108eb57600080fd5b50610341600080516020615ee783398151915281565b34801561090d57600080fd5b5061031f61091c3660046151a2565b613f06565b34801561092d57600080fd5b506102d361093c3660046157c1565b6001600160a01b03918216600090815260066020908152604080832093909416825291909152205460ff1690565b34801561097657600080fd5b5061031f61098536600461531b565b613f3f565b34801561099657600080fd5b5061031f6109a53660046151a2565b61410d565b60006109b5826142c8565b92915050565b6060600180546109ca906157eb565b80601f01602080910402602001604051908101604052809291908181526020018280546109f6906157eb565b8015610a435780601f10610a1857610100808354040283529160200191610a43565b820191906000526020600020905b815481529060010190602001808311610a2657829003601f168201915b5050505050905090565b610a65600080516020615f078339815191523361289f565b15610ab75760405162461bcd60e51b815260206004820152601e60248201527f43616c6c657220697320616c726561647920616e206f7267616e697a6572000060448201526064015b60405180910390fd5b601254600a546040516370a0823160e01b81523360048201526001600160a01b03909116906370a082319060240160206040518083038186803b158015610afd57600080fd5b505afa158015610b11573d6000803e3d6000fd5b505050506040513d601f19601f82011682018060405250810190610b359190615820565b1015610b915760405162461bcd60e51b815260206004820152602560248201527f4e6f7420656e6f75676820746f6b656e7320746f206265636f6d65206f7267616044820152643734bd32b960d91b6064820152608401610aae565b600a54601254604051632770a7eb60e21b815233600482015260248101919091526001600160a01b0390911690639dc29fac90604401600060405180830381600087803b158015610be157600080fd5b505af1158015610bf5573d6000803e3d6000fd5b50505050610c11600080516020615f0783398151915233614308565b60125460116000828254610c25919061584f565b9091555050565b6000878152600c60205260408120548890610c595760405162461bcd60e51b8152600401610aae90615867565b6000898152600c602090815260408083208b8452600a0190915290205489908990610c965760405162461bcd60e51b8152600401610aae90615895565b60008b8152600c602090815260408083208d8452600a81019092529091206004810154610d055760405162461bcd60e51b815260206004820152601f60248201527f5469636b6574732066726f6d2074686973207479706520736f6c64206f7574006044820152606401610aae565b8915610d8f57600a60009054906101000a90046001600160a01b03166001600160a01b031663d505accf333084600201548e8e8e8e6040518863ffffffff1660e01b8152600401610d5c97969594939291906158cc565b600060405180830381600087803b158015610d7657600080fd5b505af1158015610d8a573d6000803e3d6000fd5b505050505b6002810154600a54604051636eb1769f60e11b81523360048201523060248201526001600160a01b039091169063dd62ed3e9060440160206040518083038186803b158015610ddd57600080fd5b505afa158015610df1573d6000803e3d6000fd5b505050506040513d601f19601f82011682018060405250810190610e159190615820565b1015610e335760405162461bcd60e51b8152600401610aae9061590d565b600a54600183015460028301546040516323b872dd60e01b81523360048201526001600160a01b039283166024820152604481019190915260009291909116906323b872dd90606401602060405180830381600087803b158015610e9657600080fd5b505af1158015610eaa573d6000803e3d6000fd5b505050506040513d601f19601f82011682018060405250810190610ece9190615944565b905080610eed5760405162461bcd60e51b8152600401610aae90615961565b600482018054906000610eff8361598a565b91905055506000610f9c8d846005018054610f19906157eb565b80601f0160208091040260200160405190810160405280929190818152602001828054610f45906157eb565b8015610f925780601f10610f6757610100808354040283529160200191610f92565b820191906000526020600020905b815481529060010190602001808311610f7557829003601f168201915b5050505050614312565b9050610fdd6040805160e081018252600080825260208201819052918101829052606081018290526080810182905260a0810182905260c081019190915290565b818160000181815250508f8160200181815250508e8160400181815250508d81608001906001600160a01b031690816001600160a01b03168152505060018160c001901515908115158152505080600e60008481526020019081526020016000206000820151816000015560208201518160010155604082015181600201556060820151816003015560808201518160040160006101000a8154816001600160a01b0302191690836001600160a01b0316021790555060a08201518160040160146101000a81548160ff02191690831515021790555060c08201518160040160156101000a81548160ff021916908315150217905550905050600d8290806001815401808255809150506001900390600052602060002001600090919091909150558d6001600160a01b0316336001600160a01b03167fa315c04ae5193ef2d9052d2616973c434126e9e2232a0e6b1b693a8289b3caec8360200151846040015186896005018b60030154604051611159959493929190615a41565b60405180910390a3509e9d5050505050505050505050505050565b600061117f8261434a565b506000908152600560205260409020546001600160a01b031690565b60006111a682612418565b9050806001600160a01b0316836001600160a01b031614156112145760405162461bcd60e51b815260206004820152602160248201527f4552433732313a20617070726f76616c20746f2063757272656e74206f776e656044820152603960f91b6064820152608401610aae565b336001600160a01b03821614806112305750611230813361093c565b6112a25760405162461bcd60e51b815260206004820152603e60248201527f4552433732313a20617070726f76652063616c6c6572206973206e6f7420746f60448201527f6b656e206f776e6572206e6f7220617070726f76656420666f7220616c6c00006064820152608401610aae565b6112ac83836143ac565b505050565b6000818152600c602052604090205481906112de5760405162461bcd60e51b8152600401610aae90615867565b6112f6600080516020615f078339815191523361289f565b6113125760405162461bcd60e51b8152600401610aae90615a78565b6000828152600c60205260409020600101546001600160a01b0316331461137b5760405162461bcd60e51b815260206004820152601f60248201527f4f6e6c79206f7267616e697a65722063616e2072656d6f7665206576656e74006044820152606401610aae565b6000828152600c6020526040902060080154156113da5760405162461bcd60e51b815260206004820152601c60248201527f4576656e74207374696c6c20686173207469636b6574207479706573000000006044820152606401610aae565b6000828152600c602052604081208181556001810180546001600160a01b03191690559061140b6002830182614f27565b6003820160009055600482016000905560058201600061142b9190614f27565b611439600683016000614f27565b611447600783016000614f27565b611455600883016000614f61565b505060405182815233907f6e3bc81a96d2f5065ad94a6a93273d83748be7ace6c49f293c543738f62a5b6a9060200160405180910390a25050565b6000828152600c602052604090205482906114bd5760405162461bcd60e51b8152600401610aae90615867565b6000838152600c60209081526040808320858452600a01909152902054839083906114fa5760405162461bcd60e51b8152600401610aae90615895565b611512600080516020615f078339815191523361289f565b61152e5760405162461bcd60e51b8152600401610aae90615a78565b6000858152600c6020526040902060018101546001600160a01b031633146115a65760405162461bcd60e51b815260206004820152602560248201527f4f6e6c79206f7267616e697a65722063616e2072656d6f7665207469636b6574604482015264207479706560d81b6064820152608401610aae565b6000858152600a820160205260408120818155906115c76001830182614f27565b6002820160009055600382016000905560048201600090556005820160006115ef9190614f27565b6115fd600683016000614f27565b50506000858152600982016020526040812054600883015460ff909116919061162890600190615ac4565b90506000836008018260ff168154811061164457611644615ae7565b6000918252602080832090910154808352600987019091526040808320805460ff881660ff1991821681179092558c8552919093208054909116905560088601805491935083929091811061169b5761169b615ae7565b600091825260209091200155600884018054806116ba576116ba615afd565b60019003818190600052602060002001600090559055336001600160a01b03167fd7e867a3c1b30b85f1c4060ae5f328a610ab1b13aabd5415372dd1c8637154ab8a8a604051611714929190918252602082015260400190565b60405180910390a2505050505050505050565b611731338261441a565b61174d5760405162461bcd60e51b8152600401610aae90615b13565b6112ac838383614498565b611770600080516020615f078339815191523361289f565b61178c5760405162461bcd60e51b8152600401610aae90615a78565b6000818152600e6020526040902060040154600160a81b900460ff166117e85760405162461bcd60e51b81526020600482015260116024820152705469636b6574206e6f7420757361626c6560781b6044820152606401610aae565b6000818152600e602090815260408083206001908101548452600c90925290912001546001600160a01b031633146118565760405162461bcd60e51b81526020600482015260116024820152702737ba103a34329037b933b0b734bd32b960791b6044820152606401610aae565b6000818152600e60209081526040808320600101548352600c909152902060040154156118df576000818152600e60209081526040808320600101548352600c90915290206004015442106118df5760405162461bcd60e51b815260206004820152600f60248201526e115d995b9d081a185cc8195b991959608a1b6044820152606401610aae565b6000818152600e60209081526040808320600101548352600c9091529020600301544210156119485760405162461bcd60e51b8152602060048201526015602482015274115d995b9d081a185cc81b9bdd081cdd185c9d1959605a1b6044820152606401610aae565b6000818152600e602052604090819020600401805460ff60a81b191690555133907f31684b65477a7d1fd4edef84ea40d8f3d6c7531a2e48dfdf9c8c55c8ec5496f9906119989084815260200190565b60405180910390a250565b6000828152600f6020526040902060068101546001600160a01b0316331415611a0e5760405162461bcd60e51b815260206004820152601a60248201527f43616e6e6f742062757920796f7572206f776e207469636b65740000000000006044820152606401610aae565b600481810154600a546006840154604051636eb1769f60e11b81526001600160a01b0391821694810194909452306024850152919291169063dd62ed3e9060440160206040518083038186803b158015611a6757600080fd5b505afa158015611a7b573d6000803e3d6000fd5b505050506040513d601f19601f82011682018060405250810190611a9f9190615820565b1015611abd5760405162461bcd60e51b8152600401610aae9061590d565b60038101829055600a5460068201546004808401546040516323b872dd60e01b81526001600160a01b0393841692810192909252336024830152604482015260009291909116906323b872dd90606401602060405180830381600087803b158015611b2757600080fd5b505af1158015611b3b573d6000803e3d6000fd5b505050506040513d601f19601f82011682018060405250810190611b5f9190615944565b905080611b7e5760405162461bcd60e51b8152600401610aae90615961565b60068201546003830154611b9f9133916001600160a01b0390911690614634565b60068201805460ff60a01b198116600160a01b178255600580850180546001600160a01b0319908116339081179092556003870180546000908152600e60209081526040808320600490810180549096166001600160a01b03998a1617909555835483528083208501805460ff60a81b1916600160a81b179055975460018b015460028c01549454818552600c84528a8520868652600a0190935292899020948b0154985195989716968c967f7290e6fa19a97e2b68363bf3455b9fa2fa8b741ea3cb84b7b3eabcb93fd246ec96611c7e969495949091019190615a41565b60405180910390a45050506000908152600f60205260408120818155600181018290556002810182905560038101829055600481018290556005810180546001600160a01b03191690556006810180546001600160a81b03191690556007810191909155600801805461ffff19169055565b600082815260208190526040902060010154611d0b816146ab565b6112ac83836146b5565b6001600160a01b0381163314611d855760405162461bcd60e51b815260206004820152602f60248201527f416363657373436f6e74726f6c3a2063616e206f6e6c792072656e6f756e636560448201526e103937b632b9903337b91039b2b63360891b6064820152608401610aae565b611d8f8282614739565b5050565b600a546040516370a0823160e01b81523360048201526000916001600160a01b0316906370a082319060240160206040518083038186803b158015611dd757600080fd5b505afa158015611deb573d6000803e3d6000fd5b505050506040513d601f19601f82011682018060405250810190611e0f9190615820565b905080821115611e615760405162461bcd60e51b815260206004820152601a60248201527f4e6f7420656e6f75676820746f2062652077697468647261776e0000000000006044820152606401610aae565b601054821115611eb35760405162461bcd60e51b815260206004820152601e60248201527f57697468647261772069732063757272656e746c792064697361626c656400006044820152606401610aae565b604051600090339084156108fc0290859084818181858888f19350505050905080611f0e5760405162461bcd60e51b815260206004820152600b60248201526a1cd95b990819985a5b195960aa1b6044820152606401610aae565b600a54604051632770a7eb60e21b8152336004820152602481018590526001600160a01b0390911690639dc29fac90604401600060405180830381600087803b158015611f5a57600080fd5b505af1158015611f6e573d6000803e3d6000fd5b50506040518581523392507f884edad9ce6fa2440d8a54cc123490eb96d2768479d49ff9c7366125a9424364915060200160405180910390a28260106000828254611fb99190615b61565b9091555050505050565b6000878152600c60205260409020548790611ff05760405162461bcd60e51b8152600401610aae90615867565b612008600080516020615f078339815191523361289f565b6120245760405162461bcd60e51b8152600401610aae90615a78565b6000888152600c60205260409020600101546001600160a01b0316331461208d5760405162461bcd60e51b815260206004820152601d60248201527f4f6e6c79206f7267616e697a65722063616e2065646974206576656e740000006044820152606401610aae565b6000888152600c6020908152604090912088516120b2926002909201918a0190614f7f565b506000888152600c6020908152604090912087516120d892600590920191890190614f7f565b506000888152600c6020908152604090912086516120fe92600790920191880190614f7f565b506000888152600c60209081526040909120855161212492600690920191870190614f7f565b506000888152600c602052604090819020600381018590556004018390555133907fc6c3b5ce58b3196884cdaee9a17eb22ca93be1fe7ed9dc66fcb99d4c5148d13b9061217e908b908b908b908b908b908b908b90615b78565b60405180910390a25050505050505050565b600a5460405163d505accf60e01b81526001600160a01b039091169063d505accf906121cc90339030908a908a908a908a908a906004016158cc565b600060405180830381600087803b1580156121e657600080fd5b505af11580156121fa573d6000803e3d6000fd5b505050505050505050565b6112ac83838360405180602001604052806000815250613491565b612238600080516020615ee78339815191523361289f565b61227d5760405162461bcd60e51b815260206004820152601660248201527521b0b63632b91034b9903737ba1030b71037bbb732b960511b6044820152606401610aae565b6000601154116122cf5760405162461bcd60e51b815260206004820152601a60248201527f4e6f7420656e6f75676820746f2062652077697468647261776e0000000000006044820152606401610aae565b601154604051600091339181156108fc02919084818181858888f1935050505090508061232c5760405162461bcd60e51b815260206004820152600b60248201526a1cd95b990819985a5b195960aa1b6044820152606401610aae565b60115460405190815233907f884edad9ce6fa2440d8a54cc123490eb96d2768479d49ff9c7366125a94243649060200160405180910390a2506000601155565b612384600080516020615ee78339815191523361289f565b6123a05760405162461bcd60e51b8152600401610aae90615be2565b600980546001600160a01b0319166001600160a01b0392909216919091179055565b6123da600080516020615ee78339815191523361289f565b6123f65760405162461bcd60e51b8152600401610aae90615be2565b600a80546001600160a01b0319166001600160a01b0392909216919091179055565b6000818152600360205260408120546001600160a01b0316806109b55760405162461bcd60e51b8152602060048201526018602482015277115490cdcc8c4e881a5b9d985b1a59081d1bdad95b88125160421b6044820152606401610aae565b60006001600160a01b0382166124e25760405162461bcd60e51b815260206004820152602960248201527f4552433732313a2061646472657373207a65726f206973206e6f7420612076616044820152683634b21037bbb732b960b91b6064820152608401610aae565b506001600160a01b031660009081526004602052604090205490565b6040805160e081018252600080825260208201819052918101829052606081018290526080810182905260a0810182905260c081019190915260008281526003602052604090205482906001600160a01b03166125955760405162461bcd60e51b8152602060048201526015602482015274151a58dad95d08191bd95cc81b9bdd08195e1a5cdd605a1b6044820152606401610aae565b6000838152600e6020908152604091829020825160e08101845281548152600182015492810192909252600281015492820192909252600382015460608201526004909101546001600160a01b038116608083015260ff600160a01b82048116151560a0840152600160a81b90910416151560c082015291505b50919050565b6000818152600c602052604081205460609081908190849081908390889061264f5760405162461bcd60e51b8152600401610aae90615867565b6000898152600c602052604090206001810154600382015460048301546002840180546001600160a01b03909416939092600586019260078701926008880190869061269a906157eb565b80601f01602080910402602001604051908101604052809291908181526020018280546126c6906157eb565b80156127135780601f106126e857610100808354040283529160200191612713565b820191906000526020600020905b8154815290600101906020018083116126f657829003601f168201915b50505050509550848054612726906157eb565b80601f0160208091040260200160405190810160405280929190818152602001828054612752906157eb565b801561279f5780601f106127745761010080835404028352916020019161279f565b820191906000526020600020905b81548152906001019060200180831161278257829003601f168201915b505050505094508380546127b2906157eb565b80601f01602080910402602001604051908101604052809291908181526020018280546127de906157eb565b801561282b5780601f106128005761010080835404028352916020019161282b565b820191906000526020600020905b81548152906001019060200180831161280e57829003601f168201915b505050505093508080548060200260200160405190810160405280929190818152602001828054801561287d57602002820191906000526020600020905b815481526020019060010190808311612869575b5050505050905098509850985098509850985098505050919395979092949650565b6000918252602082815260408084206001600160a01b0393909316845291905290205460ff1690565b6060600280546109ca906157eb565b611d8f33838361479e565b60008181526003602052604081205482906001600160a01b03166129405760405162461bcd60e51b8152602060048201526015602482015274151a58dad95d08191bd95cc81b9bdd08195e1a5cdd605a1b6044820152606401610aae565b823361294b82612418565b6001600160a01b0316146129715760405162461bcd60e51b8152600401610aae90615c23565b6000848152600e6020908152604091829020825160e08101845281548152600182015492810192909252600281015492820192909252600382015460608201526004909101546001600160a01b038116608083015260ff600160a01b8204811615801560a0850152600160a81b90920416151560c0830152612a355760405162461bcd60e51b815260206004820152601760248201527f536f7576656e697220616c7265616479206d696e7465640000000000000000006044820152606401610aae565b8060c0015115612a875760405162461bcd60e51b815260206004820152601d60248201527f5469636b6574207374696c6c206861736e2774206265656e20757365640000006044820152606401610aae565b6009546020808301516000908152600c82526040808220818601518352600a019092528181209151630d385de160e01b815290926001600160a01b031691630d385de191612adf913391600690910190600401615c6b565b602060405180830381600087803b158015612af957600080fd5b505af1158015612b0d573d6000803e3d6000fd5b505050506040513d601f19601f82011682018060405250810190612b319190615820565b600160a084018181526060850183815260008a8152600e6020908152604080832089518155828a0151968101879055818a01805160028301559451600382015560808a0151600482018054975160c08d01511515600160a81b0260ff60a81b19911515600160a01b026001600160a81b0319909a166001600160a01b0390941693909317989098179790971617909555948252600c815284822092518252600a909201909152829020915192935033927f108ce36cf86b1835deb7cbc46f1c93725226d26897938b8558b9a9ffb9bcf99292612c139291869160060190615c8f565b60405180910390a295945050505050565b600a5460405163d505accf60e01b81526001600160a01b039091169063d505accf90612c6090339030908a908a908a908a908a906004016158cc565b600060405180830381600087803b158015612c7a57600080fd5b505af1158015612c8e573d6000803e3d6000fd5b50505050612c9a615003565b88816000018181525050338160c001906001600160a01b031690816001600160a01b031681525050878160200181815250508681604001818152505085816080018181525050848161010001818152505060018161012001901515908115158152505060008161014001901515908115158152505080600f60008b8152602001908152602001600020600082015181600001556020820151816001015560408201518160020155606082015181600301556080820151816004015560a08201518160050160006101000a8154816001600160a01b0302191690836001600160a01b0316021790555060c08201518160060160006101000a8154816001600160a01b0302191690836001600160a01b0316021790555060e08201518160060160146101000a81548160ff02191690831515021790555061010082015181600701556101208201518160080160006101000a81548160ff0219169083151502179055506101408201518160080160016101000a81548160ff021916908315150217905550905050336001600160a01b03167f8c0532da8a9f0675da764e7b35fbb8c2c8868976193fc36ffad259ddb5675ca48a8a8a8a8a604051611714959493929190948552602085019390935260408401919091526060830152608082015260a00190565b60606109b5826136b8565b6000858152600f6020526040902060058101546001600160a01b0316331415612ef45760405162461bcd60e51b815260206004820152601a60248201527f43616e6e6f742062757920796f7572206f776e207469636b65740000000000006044820152606401610aae565b600a5460048083015460405163d505accf60e01b81526001600160a01b039093169263d505accf92612f3292339230928c918c918c918c91016158cc565b600060405180830381600087803b158015612f4c57600080fd5b505af1158015612f60573d6000803e3d6000fd5b50505050600481810154600a54604051636eb1769f60e11b8152339381019390935230602484015290916001600160a01b039091169063dd62ed3e9060440160206040518083038186803b158015612fb757600080fd5b505afa158015612fcb573d6000803e3d6000fd5b505050506040513d601f19601f82011682018060405250810190612fef9190615820565b101561300d5760405162461bcd60e51b8152600401610aae9061590d565b600a5460058201546004808401546040516323b872dd60e01b815233928101929092526001600160a01b039283166024830152604482015260009291909116906323b872dd90606401602060405180830381600087803b15801561307057600080fd5b505af1158015613084573d6000803e3d6000fd5b505050506040513d601f19601f820116820180604052508101906130a89190615944565b9050806130c75760405162461bcd60e51b8152600401610aae90615961565b600582015460038301546130e6916001600160a01b0316903390614634565b6006820180546001600160a81b03191633908117600160a01b1782556003840180546000908152600e602090815260408083206004908101805460ff60a81b1916600160a81b179055955484548452818420870180546001600160a01b0319166001600160a01b039283161790556005808a015460018b015460028c01549754818852600c8752858820898952600a0190965295849020988b0154935197989216968f967f74d4a4b83241ac6e92c85cb30050e3a85c7c42122aeef8712fc2f603a3a8c3cb966131bd969095919490930191615a41565b60405180910390a450505060009384525050600f6020525060408120818155600181018290556002810182905560038101829055600481018290556005810180546001600160a01b03191690556006810180546001600160a81b03191690556007810191909155600801805461ffff19169055565b813361323d82612418565b6001600160a01b0316146132635760405162461bcd60e51b8152600401610aae90615c23565b61326b615003565b86816000018181525050338160a001906001600160a01b031690816001600160a01b0316815250508581602001818152505084816040018181525050838160600181815250508281608001818152505060008161010001818152505060008161012001901515908115158152505060018161014001901515908115158152505080600f6000898152602001908152602001600020600082015181600001556020820151816001015560408201518160020155606082015181600301556080820151816004015560a08201518160050160006101000a8154816001600160a01b0302191690836001600160a01b0316021790555060c08201518160060160006101000a8154816001600160a01b0302191690836001600160a01b0316021790555060e08201518160060160146101000a81548160ff02191690831515021790555061010082015181600701556101208201518160080160006101000a81548160ff0219169083151502179055506101408201518160080160016101000a81548160ff0219169083151502179055509050506000600e600086815260200190815260200160002060040160156101000a81548160ff021916908315150217905550336001600160a01b0316877f0f27c48668db2e12a5e88bc77cf8b459181c7ee1e6264ddb55242efe89d9d03988888888604051613480949392919093845260208401929092526040830152606082015260800190565b60405180910390a350505050505050565b61349b338361441a565b6134b75760405162461bcd60e51b8152600401610aae90615b13565b6134c384848484614865565b50505050565b6000878152600c602052604090205487906134f65760405162461bcd60e51b8152600401610aae90615867565b6000888152600c602090815260408083208a8452600a01909152902054889088906135335760405162461bcd60e51b8152600401610aae90615895565b60008a8152600c60205260409020600101546001600160a01b031633146135a85760405162461bcd60e51b815260206004820152602360248201527f4f6e6c79206f7267616e697a65722063616e2065646974207469636b6574207460448201526279706560e81b6064820152608401610aae565b6040805160e0810182528a815260208082018b8152828401899052606083018890526080830188905260a083018b905260c083018a905260008e8152600c83528481208e8252600a018352939093208251815592518051929384939092613616926001850192910190614f7f565b5060408201516002820155606082015160038201556080820151600482015560a08201518051613650916005840191602090910190614f7f565b5060c0820151805161366c916006840191602090910190614f7f565b50506040513391507ffc051c354a57b794e7a2a34dc7a0ab81839aab32ad19ecc48bc4f2a549d7e469906136a3908e908590615d0f565b60405180910390a25050505050505050505050565b60606136c38261434a565b600082815260076020526040812080546136dc906157eb565b80601f0160208091040260200160405190810160405280929190818152602001828054613708906157eb565b80156137555780601f1061372a57610100808354040283529160200191613755565b820191906000526020600020905b81548152906001019060200180831161373857829003601f168201915b50505050509050600061377360408051602081019091526000815290565b9050805160001415613786575092915050565b8151156137b85780826040516020016137a0929190615d28565b60405160208183030381529060405292505050919050565b6137c184614898565b949350505050565b6000878152600c602052604090205487906137f65760405162461bcd60e51b8152600401610aae90615867565b61380e600080516020615f078339815191523361289f565b61382a5760405162461bcd60e51b8152600401610aae90615a78565b6000888152600c60205260409020600101546001600160a01b031633146138b95760405162461bcd60e51b815260206004820152603760248201527f4f6e6c7920746865206f7267616e697a6572206f662074686973206576656e7460448201527f2063616e20637265617465207469636b657420747970650000000000000000006064820152608401610aae565b6000888152600c602090815260408083208a8452600a01909152902054156139235760405162461bcd60e51b815260206004820152601a60248201527f5469636b6574207479706520616c7265616479206578697374730000000000006044820152606401610aae565b6040805160e0810182528881526020808201898152828401879052606083018690526080830186905260a0830189905260c0830188905260008c8152600c83528481208c8252600a018352939093208251815592518051929384939092613991926001850192910190614f7f565b5060408201516002820155606082015160038201556080820151600482015560a082015180516139cb916005840191602090910190614f7f565b5060c082015180516139e7916006840191602090910190614f7f565b5050506000898152600c602081815260408084206008810180548e875260099092018452828620805460ff191660ff9093169290921790915592825282546001810184559284529220018990555133907f86f1c49c5e96f57ffd1bbdcf5973aa010e8c5bb16218eaace76fa50c7e66b5b790611714908c908590615d0f565b600a546040516340c10f1960e01b81523360048201523460248201526001600160a01b03909116906340c10f1990604401600060405180830381600087803b158015613ab157600080fd5b505af1158015613ac5573d6000803e3d6000fd5b505050503460106000828254613adb919061584f565b909155505060405134815233907fe1fffcc4923d04b559f4d29a8bfc6cda04eb5b0d3c460751c2402c5c5cc9109c9060200160405180910390a2565b613b5a6040518060e00160405280600080191681526020016060815260200160008152602001600081526020016000815260200160608152602001606081525090565b6000838152600c60205260409020548390613b875760405162461bcd60e51b8152600401610aae90615867565b6000848152600c60209081526040808320868452600a0190915290205484908490613bc45760405162461bcd60e51b8152600401610aae90615895565b6000868152600c60209081526040808320888452600a01825291829020825160e08101909352805483526001810180549192840191613c02906157eb565b80601f0160208091040260200160405190810160405280929190818152602001828054613c2e906157eb565b8015613c7b5780601f10613c5057610100808354040283529160200191613c7b565b820191906000526020600020905b815481529060010190602001808311613c5e57829003601f168201915b50505050508152602001600282015481526020016003820154815260200160048201548152602001600582018054613cb2906157eb565b80601f0160208091040260200160405190810160405280929190818152602001828054613cde906157eb565b8015613d2b5780601f10613d0057610100808354040283529160200191613d2b565b820191906000526020600020905b815481529060010190602001808311613d0e57829003601f168201915b50505050508152602001600682018054613d44906157eb565b80601f0160208091040260200160405190810160405280929190818152602001828054613d70906157eb565b8015613dbd5780601f10613d9257610100808354040283529160200191613dbd565b820191906000526020600020905b815481529060010190602001808311613da057829003601f168201915b505050505081525050935050505092915050565b600082815260208190526040902060010154613dec816146ab565b6112ac8383614739565b613dfe615003565b6000828152600f60205260409020548290613e525760405162461bcd60e51b815260206004820152601460248201527313d999995c88191bd95cc81b9bdd08195e1a5cdd60621b6044820152606401610aae565b50506000908152600f602090815260409182902082516101608101845281548152600182015492810192909252600281015492820192909252600382015460608201526004820154608082015260058201546001600160a01b0390811660a0830152600683015490811660c0830152600160a01b900460ff908116151560e0830152600783015461010080840191909152600890930154808216151561012084015292909204909116151561014082015290565b613f1e600080516020615ee78339815191523361289f565b613f3a5760405162461bcd60e51b8152600401610aae90615be2565b601255565b613f57600080516020615f078339815191523361289f565b613f735760405162461bcd60e51b8152600401610aae90615a78565b6000878152600c602052604090205415613fc65760405162461bcd60e51b81526020600482015260146024820152734576656e7420616c72656164792065786973747360601b6044820152606401610aae565b600b805460018181019092557f0175b7a638427703f0dbe7bb9bbf987a2551717b34e79f33b5b1008d1fa01db9018890556000888152600c6020908152604090912089815591820180546001600160a01b0319163317905587516140309260020191890190614f7f565b506000878152600c60209081526040909120865161405692600590920191880190614f7f565b506000878152600c60209081526040909120855161407c92600790920191870190614f7f565b506000878152600c6020908152604090912084516140a292600690920191860190614f7f565b506000878152600c602052604090819020600381018490556004018290555133907fba44e3dea1f095c62db0d9f6facba383bf1c67dd759f22d118d3c81b5fbb36dd906140fc908a908a908a908a908a908a908a90615b78565b60405180910390a250505050505050565b6000818152600f6020526040902060068101546001600160a01b0316331480156141405750600881015460ff1615156001145b8061416b575060058101546001600160a01b03163314801561416b5750600881015460ff1615156001145b6141b75760405162461bcd60e51b815260206004820152601760248201527f4e6f7420746865206275796572206f722073656c6c65720000000000000000006044820152606401610aae565b6006810154600160a01b900460ff161561420c5760405162461bcd60e51b815260206004820152601660248201527513d999995c88185b1c9958591e481858d8d95c1d195960521b6044820152606401610aae565b6000828152600f602081815260408084206003810180548652600e84528286206004908101805460ff60a81b1916600160a81b179055888752949093528481556001810185905560028101859055918490559181018390556005810180546001600160a01b03191690556006810180546001600160a81b031916905560078101839055600801805461ffff1916905551339184917f74aeca155f6310e463cf88472fe14b61a7990f14c88a8f0a03b10306a88da8429190a35050565b60006001600160e01b031982166380ac58cd60e01b14806142f957506001600160e01b03198216635b5e139f60e01b145b806109b557506109b58261490b565b611d8f82826146b5565b6000614322600880546001019055565b600061432d60085490565b90506143398482614940565b6143438184614a82565b9392505050565b6000818152600360205260409020546001600160a01b03166143a95760405162461bcd60e51b8152602060048201526018602482015277115490cdcc8c4e881a5b9d985b1a59081d1bdad95b88125160421b6044820152606401610aae565b50565b600081815260056020526040902080546001600160a01b0319166001600160a01b03841690811790915581906143e182612418565b6001600160a01b03167f8c5be1e5ebec7d5bd14f71427d1e84f3dd0314c0f7b2291e5b200ac8c7c3b92560405160405180910390a45050565b60008061442683612418565b9050806001600160a01b0316846001600160a01b0316148061446d57506001600160a01b0380821660009081526006602090815260408083209388168352929052205460ff165b806137c15750836001600160a01b031661448684611174565b6001600160a01b031614949350505050565b826001600160a01b03166144ab82612418565b6001600160a01b03161461450f5760405162461bcd60e51b815260206004820152602560248201527f4552433732313a207472616e736665722066726f6d20696e636f72726563742060448201526437bbb732b960d91b6064820152608401610aae565b6001600160a01b0382166145715760405162461bcd60e51b8152602060048201526024808201527f4552433732313a207472616e7366657220746f20746865207a65726f206164646044820152637265737360e01b6064820152608401610aae565b61457c6000826143ac565b6001600160a01b03831660009081526004602052604081208054600192906145a5908490615b61565b90915550506001600160a01b03821660009081526004602052604081208054600192906145d390849061584f565b909155505060008181526003602052604080822080546001600160a01b0319166001600160a01b0386811691821790925591518493918716917fddf252ad1be2c89b69c2b068fc378daa952ba7f163c4a11628f55a4df523b3ef91a4505050565b61463f838383614498565b6000818152600e602090815260409182902060040180546001600160a01b0319166001600160a01b038681169182179092559251848152908616917f235a69dc2480d40b13f4bee2b08a32b678f03ca558ff46eba22ce16ace78b6ad91015b60405180910390a3505050565b6143a98133614b1c565b6146bf828261289f565b611d8f576000828152602081815260408083206001600160a01b03851684529091529020805460ff191660011790556146f53390565b6001600160a01b0316816001600160a01b0316837f2f8788117e7eff1d82e926ec794901d17c78024a50270940304540a733656f0d60405160405180910390a45050565b614743828261289f565b15611d8f576000828152602081815260408083206001600160a01b0385168085529252808320805460ff1916905551339285917ff6391f5c32d9c69d2a47ea670b442974b53935d1edc7fd64eb21e047a839171b9190a45050565b816001600160a01b0316836001600160a01b031614156148005760405162461bcd60e51b815260206004820152601960248201527f4552433732313a20617070726f766520746f2063616c6c6572000000000000006044820152606401610aae565b6001600160a01b03838116600081815260066020908152604080832094871680845294825291829020805460ff191686151590811790915591519182527f17307eab39ab6107e8899845ad3d59bd9653f200f220920489ca2b5937696c31910161469e565b614870848484614498565b61487c84848484614b80565b6134c35760405162461bcd60e51b8152600401610aae90615d57565b60606148a38261434a565b60006148ba60408051602081019091526000815290565b905060008151116148da5760405180602001604052806000815250614343565b806148e484614c8d565b6040516020016148f5929190615d28565b6040516020818303038152906040529392505050565b60006001600160e01b03198216637965db0b60e01b14806109b557506301ffc9a760e01b6001600160e01b03198316146109b5565b6001600160a01b0382166149965760405162461bcd60e51b815260206004820181905260248201527f4552433732313a206d696e7420746f20746865207a65726f20616464726573736044820152606401610aae565b6000818152600360205260409020546001600160a01b0316156149fb5760405162461bcd60e51b815260206004820152601c60248201527f4552433732313a20746f6b656e20616c7265616479206d696e746564000000006044820152606401610aae565b6001600160a01b0382166000908152600460205260408120805460019290614a2490849061584f565b909155505060008181526003602052604080822080546001600160a01b0319166001600160a01b03861690811790915590518392907fddf252ad1be2c89b69c2b068fc378daa952ba7f163c4a11628f55a4df523b3ef908290a45050565b6000828152600360205260409020546001600160a01b0316614afd5760405162461bcd60e51b815260206004820152602e60248201527f45524337323155524953746f726167653a2055524920736574206f66206e6f6e60448201526d32bc34b9ba32b73a103a37b5b2b760911b6064820152608401610aae565b600082815260076020908152604090912082516112ac92840190614f7f565b614b26828261289f565b611d8f57614b3e816001600160a01b03166014614d8b565b614b49836020614d8b565b604051602001614b5a929190615da9565b60408051601f198184030181529082905262461bcd60e51b8252610aae916004016150ff565b60006001600160a01b0384163b15614c8257604051630a85bd0160e11b81526001600160a01b0385169063150b7a0290614bc4903390899088908890600401615e1e565b602060405180830381600087803b158015614bde57600080fd5b505af1925050508015614c0e575060408051601f3d908101601f19168201909252614c0b91810190615e51565b60015b614c68573d808015614c3c576040519150601f19603f3d011682016040523d82523d6000602084013e614c41565b606091505b508051614c605760405162461bcd60e51b8152600401610aae90615d57565b805181602001fd5b6001600160e01b031916630a85bd0160e11b1490506137c1565b506001949350505050565b606081614cb15750506040805180820190915260018152600360fc1b602082015290565b8160005b8115614cdb5780614cc581615e6e565b9150614cd49050600a83615e9f565b9150614cb5565b60008167ffffffffffffffff811115614cf657614cf661526f565b6040519080825280601f01601f191660200182016040528015614d20576020820181803683370190505b5090505b84156137c157614d35600183615b61565b9150614d42600a86615eb3565b614d4d90603061584f565b60f81b818381518110614d6257614d62615ae7565b60200101906001600160f81b031916908160001a905350614d84600a86615e9f565b9450614d24565b60606000614d9a836002615ec7565b614da590600261584f565b67ffffffffffffffff811115614dbd57614dbd61526f565b6040519080825280601f01601f191660200182016040528015614de7576020820181803683370190505b509050600360fc1b81600081518110614e0257614e02615ae7565b60200101906001600160f81b031916908160001a905350600f60fb1b81600181518110614e3157614e31615ae7565b60200101906001600160f81b031916908160001a9053506000614e55846002615ec7565b614e6090600161584f565b90505b6001811115614ed8576f181899199a1a9b1b9c1cb0b131b232b360811b85600f1660108110614e9457614e94615ae7565b1a60f81b828281518110614eaa57614eaa615ae7565b60200101906001600160f81b031916908160001a90535060049490941c93614ed18161598a565b9050614e63565b5083156143435760405162461bcd60e51b815260206004820181905260248201527f537472696e67733a20686578206c656e67746820696e73756666696369656e746044820152606401610aae565b508054614f33906157eb565b6000825580601f10614f43575050565b601f0160209004906000526020600020908101906143a9919061505f565b50805460008255906000526020600020908101906143a9919061505f565b828054614f8b906157eb565b90600052602060002090601f016020900481019282614fad5760008555614ff3565b82601f10614fc657805160ff1916838001178555614ff3565b82800160010185558215614ff3579182015b82811115614ff3578251825591602001919060010190614fd8565b50614fff92915061505f565b5090565b6040805161016081018252600080825260208201819052918101829052606081018290526080810182905260a0810182905260c0810182905260e081018290526101008101829052610120810182905261014081019190915290565b5b80821115614fff5760008155600101615060565b6001600160e01b0319811681146143a957600080fd5b60006020828403121561509c57600080fd5b813561434381615074565b60005b838110156150c25781810151838201526020016150aa565b838111156134c35750506000910152565b600081518084526150eb8160208601602086016150a7565b601f01601f19169290920160200192915050565b60208152600061434360208301846150d3565b80356001600160a01b038116811461512957600080fd5b919050565b803560ff8116811461512957600080fd5b600080600080600080600060e0888a03121561515a57600080fd5b873596506020880135955061517160408901615112565b9450606088013593506151866080890161512e565b925060a0880135915060c0880135905092959891949750929550565b6000602082840312156151b457600080fd5b5035919050565b600080604083850312156151ce57600080fd5b6151d783615112565b946020939093013593505050565b600080604083850312156151f857600080fd5b50508035926020909101359150565b60008060006060848603121561521c57600080fd5b61522584615112565b925061523360208501615112565b9150604084013590509250925092565b6000806040838503121561525657600080fd5b8235915061526660208401615112565b90509250929050565b634e487b7160e01b600052604160045260246000fd5b600067ffffffffffffffff808411156152a0576152a061526f565b604051601f8501601f19908116603f011681019082821181831017156152c8576152c861526f565b816040528093508581528686860111156152e157600080fd5b858560208301376000602087830101525050509392505050565b600082601f83011261530c57600080fd5b61434383833560208501615285565b600080600080600080600060e0888a03121561533657600080fd5b87359650602088013567ffffffffffffffff8082111561535557600080fd5b6153618b838c016152fb565b975060408a013591508082111561537757600080fd5b6153838b838c016152fb565b965060608a013591508082111561539957600080fd5b6153a58b838c016152fb565b955060808a01359150808211156153bb57600080fd5b506153c88a828b016152fb565b93505060a0880135915060c0880135905092959891949750929550565b600080600080600060a086880312156153fd57600080fd5b85359450602086013593506154146040870161512e565b94979396509394606081013594506080013592915050565b60006020828403121561543e57600080fd5b61434382615112565b6001600160a01b038816815260e0602080830182905260009161546c9084018a6150d3565b838103604085015261547e818a6150d3565b9050838103606085015261549281896150d3565b6080850188905260a0850187905284810360c0860152855180825283870192509083019060005b818110156154d5578351835292840192918401916001016154b9565b50909c9b505050505050505050505050565b80151581146143a957600080fd5b6000806040838503121561550857600080fd5b61551183615112565b91506020830135615521816154e7565b809150509250929050565b600080600080600080600080610100898b03121561554957600080fd5b883597506020890135965060408901359550606089013594506080890135935061557560a08a0161512e565b925060c0890135915060e089013590509295985092959890939650565b600080600080600060a086880312156155aa57600080fd5b505083359560208501359550604085013594606081013594506080013592509050565b600080600080608085870312156155e357600080fd5b6155ec85615112565b93506155fa60208601615112565b925060408501359150606085013567ffffffffffffffff81111561561d57600080fd5b8501601f8101871361562e57600080fd5b61563d87823560208401615285565b91505092959194509250565b600080600080600080600060e0888a03121561566457600080fd5b8735965060208801359550604088013567ffffffffffffffff8082111561537757600080fd5b805182526000602082015160e060208501526156a960e08501826150d3565b905060408301516040850152606083015160608501526080830151608085015260a083015184820360a08601526156e082826150d3565b91505060c083015184820360c08601526156fa82826150d3565b95945050505050565b602081526000614343602083018461568a565b600061016082019050825182526020830151602083015260408301516040830152606083015160608301526080830151608083015260a083015161576560a08401826001600160a01b03169052565b5060c083015161578060c08401826001600160a01b03169052565b5060e083015161579460e084018215159052565b50610100838101519083015261012080840151151590830152610140928301511515929091019190915290565b600080604083850312156157d457600080fd5b6157dd83615112565b915061526660208401615112565b600181811c908216806157ff57607f821691505b6020821081141561260f57634e487b7160e01b600052602260045260246000fd5b60006020828403121561583257600080fd5b5051919050565b634e487b7160e01b600052601160045260246000fd5b6000821982111561586257615862615839565b500190565b602080825260149082015273115d995b9d08191bd95cc81b9bdd08195e1a5cdd60621b604082015260600190565b6020808252601a908201527f5469636b6574207479706520646f6573206e6f74206578697374000000000000604082015260600190565b6001600160a01b0397881681529590961660208601526040850193909352606084019190915260ff16608083015260a082015260c081019190915260e00190565b60208082526017908201527f546f6b656e20616c6c6f77616e636520746f6f206c6f77000000000000000000604082015260600190565b60006020828403121561595657600080fd5b8151614343816154e7565b6020808252600f908201526e1d1c985b9cd9995c8819985a5b1959608a1b604082015260600190565b60008161599957615999615839565b506000190190565b8054600090600181811c90808316806159bb57607f831692505b60208084108214156159dd57634e487b7160e01b600052602260045260246000fd5b838852602088018280156159f85760018114615a0957615a34565b60ff19871682528282019750615a34565b60008981526020902060005b87811015615a2e57815484820152908601908401615a15565b83019850505b5050505050505092915050565b85815284602082015283604082015260a060608201526000615a6660a08301856159a1565b90508260808301529695505050505050565b6020808252602c908201527f4f6e6c79206576656e74206f7267616e697a6572732063616e2063616c6c207460408201526b3434b990333ab731ba34b7b760a11b606082015260800190565b600060ff821660ff841680821015615ade57615ade615839565b90039392505050565b634e487b7160e01b600052603260045260246000fd5b634e487b7160e01b600052603160045260246000fd5b6020808252602e908201527f4552433732313a2063616c6c6572206973206e6f7420746f6b656e206f776e6560408201526d1c881b9bdc88185c1c1c9bdd995960921b606082015260800190565b600082821015615b7357615b73615839565b500390565b87815260e060208201526000615b9160e08301896150d3565b8281036040840152615ba381896150d3565b90508281036060840152615bb781886150d3565b90508281036080840152615bcb81876150d3565b60a0840195909552505060c0015295945050505050565b60208082526021908201527f4f6e6c79206f776e65722063616e2063616c6c20746869732066756e6374696f6040820152603760f91b606082015260800190565b60208082526028908201527f4f6e6c79207469636b6574206f776e65722063616e2063616c6c207468697320604082015267333ab731ba34b7b760c11b606082015260800190565b6001600160a01b03831681526040602082018190526000906137c1908301846159a1565b600061012085548352600186015460208401526002860154604084015260038601546060840152600486015460018060a01b038116608085015260ff8160a01c16151560a0850152615ceb60c0850160ff8360a81c1615159052565b508460e084015280610100840152615d05818401856159a1565b9695505050505050565b8281526040602082015260006137c1604083018461568a565b60008351615d3a8184602088016150a7565b835190830190615d4e8183602088016150a7565b01949350505050565b60208082526032908201527f4552433732313a207472616e7366657220746f206e6f6e20455243373231526560408201527131b2b4bb32b91034b6b83632b6b2b73a32b960711b606082015260800190565b7f416363657373436f6e74726f6c3a206163636f756e7420000000000000000000815260008351615de18160178501602088016150a7565b7001034b99036b4b9b9b4b733903937b6329607d1b6017918401918201528351615e128160288401602088016150a7565b01602801949350505050565b6001600160a01b0385811682528416602082015260408101839052608060608201819052600090615d05908301846150d3565b600060208284031215615e6357600080fd5b815161434381615074565b6000600019821415615e8257615e82615839565b5060010190565b634e487b7160e01b600052601260045260246000fd5b600082615eae57615eae615e89565b500490565b600082615ec257615ec2615e89565b500690565b6000816000190483118215151615615ee157615ee1615839565b50029056feb19546dff01e856fb3f010c267a7b1c60363cf8a4664e21cc89c26224620214e4d2e7a1e3f5dd6e203f087b15756ccf0e4ccd947fe1b639a38540089a1e47f63a264697066735822122046e55d27114ab1d41a99e445cc7d217ad6b3c174e3254c3cd20e3571e2ea618564736f6c63430008090033",
  "linkReferences": {},
  "deployedLinkReferences": {}
}