{
  "_format": "hh-sol-artifact-1",
  "contractName": "TicketGenerator",
  "sourceName": "contracts/TicketGenerator.sol",
  "abi": [
    {
      "inputs": [
        {
          "internalType": "address",
          "name": "_tokenAddress",
          "type": "address"
        },
        {
          "internalType": "address",
          "name": "_souvenirGeneratorAddress",
          "type": "address"
        }
      ],
      "stateMutability": "nonpayable",
      "type": "constructor"
    },
    {
      "anonymous": false,
      "inputs": [
        {
          "indexed": true,
          "internalType": "bytes32",
          "name": "offerId",
          "type": "bytes32"
        },
        {
          "indexed": true,
          "internalType": "address",
          "name": "buyer",
          "type": "address"
        },
        {
          "indexed": true,
          "internalType": "address",
          "name": "seller",
          "type": "address"
        },
        {
          "indexed": false,
          "internalType": "bytes32",
          "name": "eventId",
          "type": "bytes32"
        },
        {
          "indexed": false,
          "internalType": "bytes32",
          "name": "ticketTypeId",
          "type": "bytes32"
        },
        {
          "indexed": false,
          "internalType": "uint256",
          "name": "ticketId",
          "type": "uint256"
        },
        {
          "indexed": false,
          "internalType": "string",
          "name": "tokenURI",
          "type": "string"
        },
        {
          "indexed": false,
          "internalType": "uint256",
          "name": "price",
          "type": "uint256"
        }
      ],
      "name": "AcceptBuyOffer",
      "type": "event"
    },
    {
      "anonymous": false,
      "inputs": [
        {
          "indexed": true,
          "internalType": "bytes32",
          "name": "offerId",
          "type": "bytes32"
        },
        {
          "indexed": true,
          "internalType": "address",
          "name": "buyer",
          "type": "address"
        },
        {
          "indexed": true,
          "internalType": "address",
          "name": "seller",
          "type": "address"
        },
        {
          "indexed": false,
          "internalType": "bytes32",
          "name": "eventId",
          "type": "bytes32"
        },
        {
          "indexed": false,
          "internalType": "bytes32",
          "name": "ticketTypeId",
          "type": "bytes32"
        },
        {
          "indexed": false,
          "internalType": "uint256",
          "name": "ticketId",
          "type": "uint256"
        },
        {
          "indexed": false,
          "internalType": "string",
          "name": "tokenURI",
          "type": "string"
        },
        {
          "indexed": false,
          "internalType": "uint256",
          "name": "price",
          "type": "uint256"
        }
      ],
      "name": "AcceptSellOffer",
      "type": "event"
    },
    {
      "anonymous": false,
      "inputs": [
        {
          "indexed": true,
          "internalType": "address",
          "name": "owner",
          "type": "address"
        },
        {
          "indexed": true,
          "internalType": "address",
          "name": "approved",
          "type": "address"
        },
        {
          "indexed": true,
          "internalType": "uint256",
          "name": "tokenId",
          "type": "uint256"
        }
      ],
      "name": "Approval",
      "type": "event"
    },
    {
      "anonymous": false,
      "inputs": [
        {
          "indexed": true,
          "internalType": "address",
          "name": "owner",
          "type": "address"
        },
        {
          "indexed": true,
          "internalType": "address",
          "name": "operator",
          "type": "address"
        },
        {
          "indexed": false,
          "internalType": "bool",
          "name": "approved",
          "type": "bool"
        }
      ],
      "name": "ApprovalForAll",
      "type": "event"
    },
    {
      "anonymous": false,
      "inputs": [
        {
          "indexed": true,
          "internalType": "address",
          "name": "account",
          "type": "address"
        }
      ],
      "name": "BecomeOrganizer",
      "type": "event"
    },
    {
      "anonymous": false,
      "inputs": [
        {
          "indexed": true,
          "internalType": "address",
          "name": "buyer",
          "type": "address"
        },
        {
          "indexed": true,
          "internalType": "address",
          "name": "owner",
          "type": "address"
        },
        {
          "indexed": false,
          "internalType": "bytes32",
          "name": "eventId",
          "type": "bytes32"
        },
        {
          "indexed": false,
          "internalType": "bytes32",
          "name": "ticketTypeId",
          "type": "bytes32"
        },
        {
          "indexed": false,
          "internalType": "uint256",
          "name": "tokenId",
          "type": "uint256"
        },
        {
          "indexed": false,
          "internalType": "string",
          "name": "tokenURI",
          "type": "string"
        }
      ],
      "name": "BuyTicket",
      "type": "event"
    },
    {
      "anonymous": false,
      "inputs": [
        {
          "indexed": true,
          "internalType": "bytes32",
          "name": "offerId",
          "type": "bytes32"
        },
        {
          "indexed": true,
          "internalType": "address",
          "name": "sender",
          "type": "address"
        }
      ],
      "name": "CancelOffer",
      "type": "event"
    },
    {
      "anonymous": false,
      "inputs": [
        {
          "indexed": false,
          "internalType": "bytes32",
          "name": "offerId",
          "type": "bytes32"
        },
        {
          "indexed": true,
          "internalType": "address",
          "name": "buyer",
          "type": "address"
        },
        {
          "indexed": false,
          "internalType": "bytes32",
          "name": "eventId",
          "type": "bytes32"
        },
        {
          "indexed": false,
          "internalType": "bytes32",
          "name": "ticketTypeId",
          "type": "bytes32"
        },
        {
          "indexed": false,
          "internalType": "uint256",
          "name": "price",
          "type": "uint256"
        },
        {
          "indexed": false,
          "internalType": "uint256",
          "name": "deadline",
          "type": "uint256"
        }
      ],
      "name": "CreateBuyOffer",
      "type": "event"
    },
    {
      "anonymous": false,
      "inputs": [
        {
          "indexed": true,
          "internalType": "address",
          "name": "creator",
          "type": "address"
        },
        {
          "indexed": false,
          "internalType": "bytes32",
          "name": "eventId",
          "type": "bytes32"
        },
        {
          "indexed": false,
          "internalType": "string",
          "name": "name",
          "type": "string"
        },
        {
          "indexed": false,
          "internalType": "string",
          "name": "description",
          "type": "string"
        },
        {
          "indexed": false,
          "internalType": "string",
          "name": "eventStorage",
          "type": "string"
        },
        {
          "indexed": false,
          "internalType": "string",
          "name": "location",
          "type": "string"
        },
        {
          "indexed": false,
          "internalType": "uint256",
          "name": "startTime",
          "type": "uint256"
        },
        {
          "indexed": false,
          "internalType": "uint256",
          "name": "endTime",
          "type": "uint256"
        }
      ],
      "name": "CreateEvent",
      "type": "event"
    },
    {
      "anonymous": false,
      "inputs": [
        {
          "indexed": true,
          "internalType": "bytes32",
          "name": "offerId",
          "type": "bytes32"
        },
        {
          "indexed": true,
          "internalType": "address",
          "name": "seller",
          "type": "address"
        },
        {
          "indexed": false,
          "internalType": "bytes32",
          "name": "eventId",
          "type": "bytes32"
        },
        {
          "indexed": false,
          "internalType": "bytes32",
          "name": "ticketTypeId",
          "type": "bytes32"
        },
        {
          "indexed": false,
          "internalType": "uint256",
          "name": "ticketId",
          "type": "uint256"
        },
        {
          "indexed": false,
          "internalType": "uint256",
          "name": "price",
          "type": "uint256"
        }
      ],
      "name": "CreateSellOffer",
      "type": "event"
    },
    {
      "anonymous": false,
      "inputs": [
        {
          "indexed": true,
          "internalType": "address",
          "name": "creator",
          "type": "address"
        },
        {
          "indexed": false,
          "internalType": "bytes32",
          "name": "eventId",
          "type": "bytes32"
        },
        {
          "components": [
            {
              "internalType": "bytes32",
              "name": "id",
              "type": "bytes32"
            },
            {
              "internalType": "string",
              "name": "name",
              "type": "string"
            },
            {
              "internalType": "uint256",
              "name": "price",
              "type": "uint256"
            },
            {
              "internalType": "uint256",
              "name": "maxSupply",
              "type": "uint256"
            },
            {
              "internalType": "uint256",
              "name": "currentSupply",
              "type": "uint256"
            },
            {
              "internalType": "string",
              "name": "tokenURI",
              "type": "string"
            },
            {
              "internalType": "string",
              "name": "souvenirTokenURI",
              "type": "string"
            }
          ],
          "indexed": false,
          "internalType": "struct Structs.TicketType",
          "name": "ticketType",
          "type": "tuple"
        }
      ],
      "name": "CreateTicketType",
      "type": "event"
    },
    {
      "anonymous": false,
      "inputs": [
        {
          "indexed": true,
          "internalType": "address",
          "name": "creator",
          "type": "address"
        },
        {
          "indexed": false,
          "internalType": "bytes32",
          "name": "eventId",
          "type": "bytes32"
        }
      ],
      "name": "DeleteEvent",
      "type": "event"
    },
    {
      "anonymous": false,
      "inputs": [
        {
          "indexed": true,
          "internalType": "address",
          "name": "creator",
          "type": "address"
        },
        {
          "indexed": false,
          "internalType": "bytes32",
          "name": "eventId",
          "type": "bytes32"
        },
        {
          "indexed": false,
          "internalType": "bytes32",
          "name": "ticketTypeId",
          "type": "bytes32"
        }
      ],
      "name": "DeleteTicketType",
      "type": "event"
    },
    {
      "anonymous": false,
      "inputs": [
        {
          "indexed": true,
          "internalType": "address",
          "name": "sender",
          "type": "address"
        },
        {
          "indexed": false,
          "internalType": "uint256",
          "name": "amount",
          "type": "uint256"
        }
      ],
      "name": "Deposit",
      "type": "event"
    },
    {
      "anonymous": false,
      "inputs": [
        {
          "indexed": true,
          "internalType": "address",
          "name": "owner",
          "type": "address"
        },
        {
          "components": [
            {
              "internalType": "uint256",
              "name": "id",
              "type": "uint256"
            },
            {
              "internalType": "bytes32",
              "name": "eventId",
              "type": "bytes32"
            },
            {
              "internalType": "bytes32",
              "name": "ticketTypeId",
              "type": "bytes32"
            },
            {
              "internalType": "uint256",
              "name": "souvenirId",
              "type": "uint256"
            },
            {
              "internalType": "address",
              "name": "owner",
              "type": "address"
            },
            {
              "internalType": "bool",
              "name": "souvenirMinted",
              "type": "bool"
            },
            {
              "internalType": "bool",
              "name": "usable",
              "type": "bool"
            },
            {
              "internalType": "bool",
              "name": "used",
              "type": "bool"
            }
          ],
          "indexed": false,
          "internalType": "struct Structs.Ticket",
          "name": "ticket",
          "type": "tuple"
        },
        {
          "indexed": false,
          "internalType": "uint256",
          "name": "tokenId",
          "type": "uint256"
        },
        {
          "indexed": false,
          "internalType": "string",
          "name": "tokenURI",
          "type": "string"
        }
      ],
      "name": "GenerateSouvenir",
      "type": "event"
    },
    {
      "anonymous": false,
      "inputs": [
        {
          "indexed": true,
          "internalType": "bytes32",
          "name": "role",
          "type": "bytes32"
        },
        {
          "indexed": true,
          "internalType": "bytes32",
          "name": "previousAdminRole",
          "type": "bytes32"
        },
        {
          "indexed": true,
          "internalType": "bytes32",
          "name": "newAdminRole",
          "type": "bytes32"
        }
      ],
      "name": "RoleAdminChanged",
      "type": "event"
    },
    {
      "anonymous": false,
      "inputs": [
        {
          "indexed": true,
          "internalType": "bytes32",
          "name": "role",
          "type": "bytes32"
        },
        {
          "indexed": true,
          "internalType": "address",
          "name": "account",
          "type": "address"
        },
        {
          "indexed": true,
          "internalType": "address",
          "name": "sender",
          "type": "address"
        }
      ],
      "name": "RoleGranted",
      "type": "event"
    },
    {
      "anonymous": false,
      "inputs": [
        {
          "indexed": true,
          "internalType": "bytes32",
          "name": "role",
          "type": "bytes32"
        },
        {
          "indexed": true,
          "internalType": "address",
          "name": "account",
          "type": "address"
        },
        {
          "indexed": true,
          "internalType": "address",
          "name": "sender",
          "type": "address"
        }
      ],
      "name": "RoleRevoked",
      "type": "event"
    },
    {
      "anonymous": false,
      "inputs": [
        {
          "indexed": true,
          "internalType": "address",
          "name": "from",
          "type": "address"
        },
        {
          "indexed": true,
          "internalType": "address",
          "name": "to",
          "type": "address"
        },
        {
          "indexed": true,
          "internalType": "uint256",
          "name": "tokenId",
          "type": "uint256"
        }
      ],
      "name": "Transfer",
      "type": "event"
    },
    {
      "anonymous": false,
      "inputs": [
        {
          "indexed": true,
          "internalType": "address",
          "name": "sender",
          "type": "address"
        },
        {
          "indexed": true,
          "internalType": "address",
          "name": "receiver",
          "type": "address"
        },
        {
          "indexed": false,
          "internalType": "uint256",
          "name": "tokenId",
          "type": "uint256"
        }
      ],
      "name": "TransferTicket",
      "type": "event"
    },
    {
      "anonymous": false,
      "inputs": [
        {
          "indexed": true,
          "internalType": "address",
          "name": "creator",
          "type": "address"
        },
        {
          "indexed": false,
          "internalType": "bytes32",
          "name": "eventId",
          "type": "bytes32"
        },
        {
          "indexed": false,
          "internalType": "string",
          "name": "name",
          "type": "string"
        },
        {
          "indexed": false,
          "internalType": "string",
          "name": "description",
          "type": "string"
        },
        {
          "indexed": false,
          "internalType": "string",
          "name": "eventStorage",
          "type": "string"
        },
        {
          "indexed": false,
          "internalType": "string",
          "name": "location",
          "type": "string"
        },
        {
          "indexed": false,
          "internalType": "uint256",
          "name": "startTime",
          "type": "uint256"
        },
        {
          "indexed": false,
          "internalType": "uint256",
          "name": "endTime",
          "type": "uint256"
        }
      ],
      "name": "UpdateEvent",
      "type": "event"
    },
    {
      "anonymous": false,
      "inputs": [
        {
          "indexed": true,
          "internalType": "address",
          "name": "creator",
          "type": "address"
        },
        {
          "indexed": false,
          "internalType": "bytes32",
          "name": "eventId",
          "type": "bytes32"
        },
        {
          "components": [
            {
              "internalType": "bytes32",
              "name": "id",
              "type": "bytes32"
            },
            {
              "internalType": "string",
              "name": "name",
              "type": "string"
            },
            {
              "internalType": "uint256",
              "name": "price",
              "type": "uint256"
            },
            {
              "internalType": "uint256",
              "name": "maxSupply",
              "type": "uint256"
            },
            {
              "internalType": "uint256",
              "name": "currentSupply",
              "type": "uint256"
            },
            {
              "internalType": "string",
              "name": "tokenURI",
              "type": "string"
            },
            {
              "internalType": "string",
              "name": "souvenirTokenURI",
              "type": "string"
            }
          ],
          "indexed": false,
          "internalType": "struct Structs.TicketType",
          "name": "ticketType",
          "type": "tuple"
        }
      ],
      "name": "UpdateTicketType",
      "type": "event"
    },
    {
      "anonymous": false,
      "inputs": [
        {
          "indexed": true,
          "internalType": "address",
          "name": "sender",
          "type": "address"
        },
        {
          "indexed": false,
          "internalType": "uint256",
          "name": "ticketId",
          "type": "uint256"
        }
      ],
      "name": "UseTicket",
      "type": "event"
    },
    {
      "anonymous": false,
      "inputs": [
        {
          "indexed": true,
          "internalType": "address",
          "name": "receiver",
          "type": "address"
        },
        {
          "indexed": false,
          "internalType": "uint256",
          "name": "amount",
          "type": "uint256"
        }
      ],
      "name": "Withdraw",
      "type": "event"
    },
    {
      "inputs": [],
      "name": "DEFAULT_ADMIN_ROLE",
      "outputs": [
        {
          "internalType": "bytes32",
          "name": "",
          "type": "bytes32"
        }
      ],
      "stateMutability": "view",
      "type": "function"
    },
    {
      "inputs": [],
      "name": "MINTER_ROLE",
      "outputs": [
        {
          "internalType": "bytes32",
          "name": "",
          "type": "bytes32"
        }
      ],
      "stateMutability": "view",
      "type": "function"
    },
    {
      "inputs": [],
      "name": "ORGANIZER_ROLE",
      "outputs": [
        {
          "internalType": "bytes32",
          "name": "",
          "type": "bytes32"
        }
      ],
      "stateMutability": "view",
      "type": "function"
    },
    {
      "inputs": [],
      "name": "OWNER_ROLE",
      "outputs": [
        {
          "internalType": "bytes32",
          "name": "",
          "type": "bytes32"
        }
      ],
      "stateMutability": "view",
      "type": "function"
    },
    {
      "inputs": [
        {
          "internalType": "bytes32",
          "name": "id",
          "type": "bytes32"
        },
        {
          "internalType": "uint256",
          "name": "ticketId",
          "type": "uint256"
        }
      ],
      "name": "acceptBuyOffer",
      "outputs": [],
      "stateMutability": "nonpayable",
      "type": "function"
    },
    {
      "inputs": [
        {
          "internalType": "bytes32",
          "name": "id",
          "type": "bytes32"
        },
        {
          "internalType": "uint256",
          "name": "deadline",
          "type": "uint256"
        },
        {
          "internalType": "uint8",
          "name": "v",
          "type": "uint8"
        },
        {
          "internalType": "bytes32",
          "name": "r",
          "type": "bytes32"
        },
        {
          "internalType": "bytes32",
          "name": "s",
          "type": "bytes32"
        }
      ],
      "name": "acceptSellOffer",
      "outputs": [],
      "stateMutability": "nonpayable",
      "type": "function"
    },
    {
      "inputs": [
        {
          "internalType": "address",
          "name": "to",
          "type": "address"
        },
        {
          "internalType": "uint256",
          "name": "tokenId",
          "type": "uint256"
        }
      ],
      "name": "approve",
      "outputs": [],
      "stateMutability": "nonpayable",
      "type": "function"
    },
    {
      "inputs": [
        {
          "internalType": "address",
          "name": "owner",
          "type": "address"
        }
      ],
      "name": "balanceOf",
      "outputs": [
        {
          "internalType": "uint256",
          "name": "",
          "type": "uint256"
        }
      ],
      "stateMutability": "view",
      "type": "function"
    },
    {
      "inputs": [],
      "name": "becomeOrganizer",
      "outputs": [],
      "stateMutability": "nonpayable",
      "type": "function"
    },
    {
      "inputs": [
        {
          "internalType": "bytes32",
          "name": "_eventId",
          "type": "bytes32"
        },
        {
          "internalType": "bytes32",
          "name": "_ticketTypeId",
          "type": "bytes32"
        },
        {
          "internalType": "address",
          "name": "_recipient",
          "type": "address"
        },
        {
          "internalType": "uint256",
          "name": "deadline",
          "type": "uint256"
        },
        {
          "internalType": "uint8",
          "name": "v",
          "type": "uint8"
        },
        {
          "internalType": "bytes32",
          "name": "r",
          "type": "bytes32"
        },
        {
          "internalType": "bytes32",
          "name": "s",
          "type": "bytes32"
        },
        {
          "internalType": "uint256",
          "name": "amount",
          "type": "uint256"
        }
      ],
      "name": "buyTicket",
      "outputs": [
        {
          "internalType": "uint256",
          "name": "",
          "type": "uint256"
        }
      ],
      "stateMutability": "nonpayable",
      "type": "function"
    },
    {
      "inputs": [
        {
          "internalType": "bytes32",
          "name": "id",
          "type": "bytes32"
        }
      ],
      "name": "cancelOffer",
      "outputs": [],
      "stateMutability": "nonpayable",
      "type": "function"
    },
    {
      "inputs": [
        {
          "internalType": "bytes32",
          "name": "id",
          "type": "bytes32"
        },
        {
          "internalType": "bytes32",
          "name": "eventId",
          "type": "bytes32"
        },
        {
          "internalType": "bytes32",
          "name": "ticketTypeId",
          "type": "bytes32"
        },
        {
          "internalType": "uint256",
          "name": "price",
          "type": "uint256"
        },
        {
          "internalType": "uint256",
          "name": "deadline",
          "type": "uint256"
        },
        {
          "internalType": "uint8",
          "name": "v",
          "type": "uint8"
        },
        {
          "internalType": "bytes32",
          "name": "r",
          "type": "bytes32"
        },
        {
          "internalType": "bytes32",
          "name": "s",
          "type": "bytes32"
        }
      ],
      "name": "createBuyOffer",
      "outputs": [],
      "stateMutability": "nonpayable",
      "type": "function"
    },
    {
      "inputs": [
        {
          "internalType": "bytes32",
          "name": "_eventId",
          "type": "bytes32"
        },
        {
          "internalType": "string",
          "name": "_name",
          "type": "string"
        },
        {
          "internalType": "string",
          "name": "_description",
          "type": "string"
        },
        {
          "internalType": "string",
          "name": "eventStorage",
          "type": "string"
        },
        {
          "internalType": "string",
          "name": "location",
          "type": "string"
        },
        {
          "internalType": "uint256",
          "name": "startTime",
          "type": "uint256"
        },
        {
          "internalType": "uint256",
          "name": "endTime",
          "type": "uint256"
        }
      ],
      "name": "createEvent",
      "outputs": [],
      "stateMutability": "nonpayable",
      "type": "function"
    },
    {
      "inputs": [
        {
          "internalType": "bytes32",
          "name": "id",
          "type": "bytes32"
        },
        {
          "internalType": "bytes32",
          "name": "eventId",
          "type": "bytes32"
        },
        {
          "internalType": "bytes32",
          "name": "ticketTypeId",
          "type": "bytes32"
        },
        {
          "internalType": "uint256",
          "name": "ticketId",
          "type": "uint256"
        },
        {
          "internalType": "uint256",
          "name": "price",
          "type": "uint256"
        }
      ],
      "name": "createSellOffer",
      "outputs": [],
      "stateMutability": "nonpayable",
      "type": "function"
    },
    {
      "inputs": [
        {
          "internalType": "bytes32",
          "name": "_eventId",
          "type": "bytes32"
        },
        {
          "internalType": "bytes32",
          "name": "_ticketTypeId",
          "type": "bytes32"
        },
        {
          "internalType": "string",
          "name": "_ticketName",
          "type": "string"
        },
        {
          "internalType": "string",
          "name": "_tokenURI",
          "type": "string"
        },
        {
          "internalType": "string",
          "name": "_souvenirTokenURI",
          "type": "string"
        },
        {
          "internalType": "uint256",
          "name": "_price",
          "type": "uint256"
        },
        {
          "internalType": "uint256",
          "name": "_maxSupply",
          "type": "uint256"
        }
      ],
      "name": "createTicketType",
      "outputs": [],
      "stateMutability": "nonpayable",
      "type": "function"
    },
    {
      "inputs": [
        {
          "internalType": "bytes32",
          "name": "_eventId",
          "type": "bytes32"
        }
      ],
      "name": "deleteEvent",
      "outputs": [],
      "stateMutability": "nonpayable",
      "type": "function"
    },
    {
      "inputs": [
        {
          "internalType": "bytes32",
          "name": "_eventId",
          "type": "bytes32"
        },
        {
          "internalType": "bytes32",
          "name": "_ticketTypeId",
          "type": "bytes32"
        }
      ],
      "name": "deleteTicketType",
      "outputs": [],
      "stateMutability": "nonpayable",
      "type": "function"
    },
    {
      "inputs": [],
      "name": "deposit",
      "outputs": [],
      "stateMutability": "payable",
      "type": "function"
    },
    {
      "inputs": [
        {
          "internalType": "uint256",
          "name": "tokenId",
          "type": "uint256"
        }
      ],
      "name": "getApproved",
      "outputs": [
        {
          "internalType": "address",
          "name": "",
          "type": "address"
        }
      ],
      "stateMutability": "view",
      "type": "function"
    },
    {
      "inputs": [
        {
          "internalType": "uint256",
          "name": "_tokenId",
          "type": "uint256"
        }
      ],
      "name": "getMetadata",
      "outputs": [
        {
          "internalType": "string",
          "name": "",
          "type": "string"
        }
      ],
      "stateMutability": "view",
      "type": "function"
    },
    {
      "inputs": [
        {
          "internalType": "bytes32",
          "name": "role",
          "type": "bytes32"
        }
      ],
      "name": "getRoleAdmin",
      "outputs": [
        {
          "internalType": "bytes32",
          "name": "",
          "type": "bytes32"
        }
      ],
      "stateMutability": "view",
      "type": "function"
    },
    {
      "inputs": [
        {
          "internalType": "uint256",
          "name": "_ticketId",
          "type": "uint256"
        }
      ],
      "name": "getSouvenir",
      "outputs": [
        {
          "internalType": "uint256",
          "name": "",
          "type": "uint256"
        }
      ],
      "stateMutability": "nonpayable",
      "type": "function"
    },
    {
      "inputs": [
        {
          "internalType": "bytes32",
          "name": "role",
          "type": "bytes32"
        },
        {
          "internalType": "address",
          "name": "account",
          "type": "address"
        }
      ],
      "name": "grantRole",
      "outputs": [],
      "stateMutability": "nonpayable",
      "type": "function"
    },
    {
      "inputs": [
        {
          "internalType": "bytes32",
          "name": "role",
          "type": "bytes32"
        },
        {
          "internalType": "address",
          "name": "account",
          "type": "address"
        }
      ],
      "name": "hasRole",
      "outputs": [
        {
          "internalType": "bool",
          "name": "",
          "type": "bool"
        }
      ],
      "stateMutability": "view",
      "type": "function"
    },
    {
      "inputs": [
        {
          "internalType": "address",
          "name": "owner",
          "type": "address"
        },
        {
          "internalType": "address",
          "name": "operator",
          "type": "address"
        }
      ],
      "name": "isApprovedForAll",
      "outputs": [
        {
          "internalType": "bool",
          "name": "",
          "type": "bool"
        }
      ],
      "stateMutability": "view",
      "type": "function"
    },
    {
      "inputs": [],
      "name": "name",
      "outputs": [
        {
          "internalType": "string",
          "name": "",
          "type": "string"
        }
      ],
      "stateMutability": "view",
      "type": "function"
    },
    {
      "inputs": [
        {
          "internalType": "uint256",
          "name": "tokenId",
          "type": "uint256"
        }
      ],
      "name": "ownerOf",
      "outputs": [
        {
          "internalType": "address",
          "name": "",
          "type": "address"
        }
      ],
      "stateMutability": "view",
      "type": "function"
    },
    {
      "inputs": [],
      "name": "ownerWithdraw",
      "outputs": [],
      "stateMutability": "nonpayable",
      "type": "function"
    },
    {
      "inputs": [
        {
          "internalType": "bytes32",
          "name": "role",
          "type": "bytes32"
        },
        {
          "internalType": "address",
          "name": "account",
          "type": "address"
        }
      ],
      "name": "renounceRole",
      "outputs": [],
      "stateMutability": "nonpayable",
      "type": "function"
    },
    {
      "inputs": [
        {
          "internalType": "bytes32",
          "name": "role",
          "type": "bytes32"
        },
        {
          "internalType": "address",
          "name": "account",
          "type": "address"
        }
      ],
      "name": "revokeRole",
      "outputs": [],
      "stateMutability": "nonpayable",
      "type": "function"
    },
    {
      "inputs": [
        {
          "internalType": "address",
          "name": "from",
          "type": "address"
        },
        {
          "internalType": "address",
          "name": "to",
          "type": "address"
        },
        {
          "internalType": "uint256",
          "name": "tokenId",
          "type": "uint256"
        }
      ],
      "name": "safeTransferFrom",
      "outputs": [],
      "stateMutability": "nonpayable",
      "type": "function"
    },
    {
      "inputs": [
        {
          "internalType": "address",
          "name": "from",
          "type": "address"
        },
        {
          "internalType": "address",
          "name": "to",
          "type": "address"
        },
        {
          "internalType": "uint256",
          "name": "tokenId",
          "type": "uint256"
        },
        {
          "internalType": "bytes",
          "name": "data",
          "type": "bytes"
        }
      ],
      "name": "safeTransferFrom",
      "outputs": [],
      "stateMutability": "nonpayable",
      "type": "function"
    },
    {
      "inputs": [
        {
          "internalType": "address",
          "name": "operator",
          "type": "address"
        },
        {
          "internalType": "bool",
          "name": "approved",
          "type": "bool"
        }
      ],
      "name": "setApprovalForAll",
      "outputs": [],
      "stateMutability": "nonpayable",
      "type": "function"
    },
    {
      "inputs": [
        {
          "internalType": "uint256",
          "name": "_organizerDeposit",
          "type": "uint256"
        }
      ],
      "name": "setOrganizerDeposit",
      "outputs": [],
      "stateMutability": "nonpayable",
      "type": "function"
    },
    {
      "inputs": [
        {
          "internalType": "address",
          "name": "_souvenirGeneratorAddress",
          "type": "address"
        }
      ],
      "name": "setSouvenirGeneratorContract",
      "outputs": [],
      "stateMutability": "nonpayable",
      "type": "function"
    },
    {
      "inputs": [
        {
          "internalType": "address",
          "name": "_tokenAddress",
          "type": "address"
        }
      ],
      "name": "setTIKContract",
      "outputs": [],
      "stateMutability": "nonpayable",
      "type": "function"
    },
    {
      "inputs": [
        {
          "internalType": "bytes4",
          "name": "interfaceId",
          "type": "bytes4"
        }
      ],
      "name": "supportsInterface",
      "outputs": [
        {
          "internalType": "bool",
          "name": "",
          "type": "bool"
        }
      ],
      "stateMutability": "view",
      "type": "function"
    },
    {
      "inputs": [],
      "name": "symbol",
      "outputs": [
        {
          "internalType": "string",
          "name": "",
          "type": "string"
        }
      ],
      "stateMutability": "view",
      "type": "function"
    },
    {
      "inputs": [
        {
          "internalType": "uint256",
          "name": "tokenId",
          "type": "uint256"
        }
      ],
      "name": "tokenURI",
      "outputs": [
        {
          "internalType": "string",
          "name": "",
          "type": "string"
        }
      ],
      "stateMutability": "view",
      "type": "function"
    },
    {
      "inputs": [
        {
          "internalType": "address",
          "name": "from",
          "type": "address"
        },
        {
          "internalType": "address",
          "name": "to",
          "type": "address"
        },
        {
          "internalType": "uint256",
          "name": "tokenId",
          "type": "uint256"
        }
      ],
      "name": "transferFrom",
      "outputs": [],
      "stateMutability": "nonpayable",
      "type": "function"
    },
    {
      "inputs": [
        {
          "internalType": "bytes32",
          "name": "_eventId",
          "type": "bytes32"
        },
        {
          "internalType": "string",
          "name": "_name",
          "type": "string"
        },
        {
          "internalType": "string",
          "name": "_description",
          "type": "string"
        },
        {
          "internalType": "string",
          "name": "eventStorage",
          "type": "string"
        },
        {
          "internalType": "string",
          "name": "location",
          "type": "string"
        },
        {
          "internalType": "uint256",
          "name": "startTime",
          "type": "uint256"
        },
        {
          "internalType": "uint256",
          "name": "endTime",
          "type": "uint256"
        }
      ],
      "name": "updateEvent",
      "outputs": [],
      "stateMutability": "nonpayable",
      "type": "function"
    },
    {
      "inputs": [
        {
          "internalType": "bytes32",
          "name": "_eventId",
          "type": "bytes32"
        },
        {
          "internalType": "bytes32",
          "name": "_ticketTypeId",
          "type": "bytes32"
        },
        {
          "internalType": "string",
          "name": "_ticketName",
          "type": "string"
        },
        {
          "internalType": "string",
          "name": "_tokenURI",
          "type": "string"
        },
        {
          "internalType": "string",
          "name": "_souvenirTokenURI",
          "type": "string"
        },
        {
          "internalType": "uint256",
          "name": "_price",
          "type": "uint256"
        },
        {
          "internalType": "uint256",
          "name": "_maxSupply",
          "type": "uint256"
        }
      ],
      "name": "updateTicketType",
      "outputs": [],
      "stateMutability": "nonpayable",
      "type": "function"
    },
    {
      "inputs": [
        {
          "internalType": "uint256",
          "name": "_ticketId",
          "type": "uint256"
        }
      ],
      "name": "useTicket",
      "outputs": [],
      "stateMutability": "nonpayable",
      "type": "function"
    },
    {
      "inputs": [
        {
          "internalType": "uint256",
          "name": "amount",
          "type": "uint256"
        }
      ],
      "name": "userWithdraw",
      "outputs": [],
      "stateMutability": "nonpayable",
      "type": "function"
    }
  ],
  "bytecode": "0x60806040526000600f55600060105566038d7ea4c680006011553480156200002657600080fd5b506040516200587d3803806200587d833981016040819052620000499162000293565b604080518082018252600a815269151a58dad95d0813919560b21b60208083019182528351808501909452600384526213919560ea1b9084015281519192916200009691600191620001d0565b508051620000ac906002906020840190620001d0565b5050600980546001600160a01b038085166001600160a01b031992831617909255600a805492861692909116919091179055506200010b7fb19546dff01e856fb3f010c267a7b1c60363cf8a4664e21cc89c26224620214e3362000120565b6200011860003362000120565b505062000308565b6200012c828262000130565b5050565b6000828152602081815260408083206001600160a01b038516845290915290205460ff166200012c576000828152602081815260408083206001600160a01b03851684529091529020805460ff191660011790556200018c3390565b6001600160a01b0316816001600160a01b0316837f2f8788117e7eff1d82e926ec794901d17c78024a50270940304540a733656f0d60405160405180910390a45050565b828054620001de90620002cb565b90600052602060002090601f0160209004810192826200020257600085556200024d565b82601f106200021d57805160ff19168380011785556200024d565b828001600101855582156200024d579182015b828111156200024d57825182559160200191906001019062000230565b506200025b9291506200025f565b5090565b5b808211156200025b576000815560010162000260565b80516001600160a01b03811681146200028e57600080fd5b919050565b60008060408385031215620002a757600080fd5b620002b28362000276565b9150620002c26020840162000276565b90509250929050565b600181811c90821680620002e057607f821691505b602082108114156200030257634e487b7160e01b600052602260045260246000fd5b50919050565b61556580620003186000396000f3fe6080604052600436106102675760003560e01c80637909cb5911610144578063baab45fb116100b6578063d547741f1161007a578063d547741f1461074d578063e58378bb1461076d578063e5bdaeb71461078f578063e985e9c5146107af578063ef1efc47146107f8578063f952279e1461081857600080fd5b8063baab45fb146106b1578063c87b56dd146106d1578063ceed06d5146106f1578063d0e30db014610711578063d53913931461071957600080fd5b8063a38c7eb211610108578063a38c7eb2146105f1578063a43329ad14610611578063a574cea414610631578063ae1e455414610651578063b64babc214610671578063b88d4fde1461069157600080fd5b80637909cb591461056557806391d148541461058757806395d89b41146105a7578063a217fddf146105bc578063a22cb465146105d157600080fd5b80632d3e4094116101dd57806342842e0e116101a157806342842e0e146104b05780634311de8f146104d057806352c0cb6c146104e557806363113c6a146105055780636352211e1461052557806370a082311461054557600080fd5b80632d3e4094146104105780632f2ff15d1461043057806336568abe146104505780633b9056bf146104705780634109ba1f1461049057600080fd5b80631cc844bc1161022f5780631cc844bc146103325780631ef791d61461035257806323b872dd14610372578063248a9ca31461039257806326606448146103d05780632d32165f146103f057600080fd5b806301ffc9a71461026c57806306fdde03146102a157806307b17fc9146102c3578063081812fc146102da578063095ea7b314610312575b600080fd5b34801561027857600080fd5b5061028c6102873660046147da565b610838565b60405190151581526020015b60405180910390f35b3480156102ad57600080fd5b506102b6610849565b604051610298919061484f565b3480156102cf57600080fd5b506102d86108db565b005b3480156102e657600080fd5b506102fa6102f5366004614862565b610ae5565b6040516001600160a01b039091168152602001610298565b34801561031e57600080fd5b506102d861032d366004614897565b610b0c565b34801561033e57600080fd5b506102d861034d366004614862565b610c22565b34801561035e57600080fd5b506102d861036d3660046148c1565b610de7565b34801561037e57600080fd5b506102d861038d3660046148e3565b611068565b34801561039e57600080fd5b506103c26103ad366004614862565b60009081526020819052604090206001015490565b604051908152602001610298565b3480156103dc57600080fd5b506102d86103eb366004614862565b611099565b3480156103fc57600080fd5b506102d861040b3660046148c1565b6112f0565b34801561041c57600080fd5b506103c261042b366004614930565b61166b565b34801561043c57600080fd5b506102d861044b36600461499b565b611bf3565b34801561045c57600080fd5b506102d861046b36600461499b565b611c18565b34801561047c57600080fd5b506102d861048b366004614862565b611c96565b34801561049c57600080fd5b506102d86104ab366004614a73565b611ec6565b3480156104bc57600080fd5b506102d86104cb3660046148e3565b612078565b3480156104dc57600080fd5b506102d8612093565b3480156104f157600080fd5b506102d8610500366004614b3d565b61219b565b34801561051157600080fd5b506102d8610520366004614b3d565b6121d6565b34801561053157600080fd5b506102fa610540366004614862565b612211565b34801561055157600080fd5b506103c2610560366004614b3d565b612271565b34801561057157600080fd5b506103c260008051602061551083398151915281565b34801561059357600080fd5b5061028c6105a236600461499b565b6122f7565b3480156105b357600080fd5b506102b6612320565b3480156105c857600080fd5b506103c2600081565b3480156105dd57600080fd5b506102d86105ec366004614b66565b61232f565b3480156105fd57600080fd5b506103c261060c366004614862565b61233a565b34801561061d57600080fd5b506102d861062c366004614b9d565b612673565b34801561063d57600080fd5b506102b661064c366004614862565b6128cd565b34801561065d57600080fd5b506102d861066c366004614c03565b6128d8565b34801561067d57600080fd5b506102d861068c366004614c4a565b612d4b565b34801561069d57600080fd5b506102d86106ac366004614c85565b61303e565b3480156106bd57600080fd5b506102d86106cc366004614d01565b613076565b3480156106dd57600080fd5b506102b66106ec366004614862565b613283565b3480156106fd57600080fd5b506102d861070c366004614d01565b613394565b6102d8613615565b34801561072557600080fd5b506103c27f9f2df0fed2c77648de5860a4cc508cd0818c85b8b8a1ab4ceeef8d981c8956a681565b34801561075957600080fd5b506102d861076836600461499b565b6136c6565b34801561077957600080fd5b506103c26000805160206154f083398151915281565b34801561079b57600080fd5b506102d86107aa366004614862565b6136eb565b3480156107bb57600080fd5b5061028c6107ca366004614d42565b6001600160a01b03918216600090815260066020908152604080832093909416825291909152205460ff1690565b34801561080457600080fd5b506102d8610813366004614a73565b613709565b34801561082457600080fd5b506102d8610833366004614862565b61388e565b600061084382613a28565b92915050565b60606001805461085890614d6c565b80601f016020809104026020016040519081016040528092919081815260200182805461088490614d6c565b80156108d15780601f106108a6576101008083540402835291602001916108d1565b820191906000526020600020905b8154815290600101906020018083116108b457829003601f168201915b5050505050905090565b6108f3600080516020615510833981519152336122f7565b156109455760405162461bcd60e51b815260206004820152601e60248201527f43616c6c657220697320616c726561647920616e206f7267616e697a6572000060448201526064015b60405180910390fd5b601154600a546040516370a0823160e01b81523360048201526001600160a01b03909116906370a082319060240160206040518083038186803b15801561098b57600080fd5b505afa15801561099f573d6000803e3d6000fd5b505050506040513d601f19601f820116820180604052508101906109c39190614da7565b1015610a1f5760405162461bcd60e51b815260206004820152602560248201527f4e6f7420656e6f75676820746f6b656e7320746f206265636f6d65206f7267616044820152643734bd32b960d91b606482015260840161093c565b600a54601154604051632770a7eb60e21b815233600482015260248101919091526001600160a01b0390911690639dc29fac90604401600060405180830381600087803b158015610a6f57600080fd5b505af1158015610a83573d6000803e3d6000fd5b50505050610a9f60008051602061551083398151915233613a68565b60115460106000828254610ab39190614dd6565b909155505060405133907f05f859dfb18830d36af71675c4fa21aae688563692ab047927d4209bc3270c5f90600090a2565b6000610af082613a72565b506000908152600560205260409020546001600160a01b031690565b6000610b1782612211565b9050806001600160a01b0316836001600160a01b03161415610b855760405162461bcd60e51b815260206004820152602160248201527f4552433732313a20617070726f76616c20746f2063757272656e74206f776e656044820152603960f91b606482015260840161093c565b336001600160a01b0382161480610ba15750610ba181336107ca565b610c135760405162461bcd60e51b815260206004820152603e60248201527f4552433732313a20617070726f76652063616c6c6572206973206e6f7420746f60448201527f6b656e206f776e6572206e6f7220617070726f76656420666f7220616c6c0000606482015260840161093c565b610c1d8383613ac5565b505050565b6000818152600b60205260409020548190610c4f5760405162461bcd60e51b815260040161093c90614dee565b600080516020615510833981519152610c6781613b33565b6000838152600b60205260409020600101546001600160a01b03163314610cd05760405162461bcd60e51b815260206004820152601f60248201527f4f6e6c79206f7267616e697a65722063616e2072656d6f7665206576656e7400604482015260640161093c565b6000838152600b602052604090206008015415610d2f5760405162461bcd60e51b815260206004820152601c60248201527f4576656e74207374696c6c20686173207469636b657420747970657300000000604482015260640161093c565b6000838152600b602052604081208181556001810180546001600160a01b031916905590610d606002830182614677565b60038201600090556004820160009055600582016000610d809190614677565b610d8e600683016000614677565b610d9c600783016000614677565b610daa6008830160006146b1565b505060405183815233907f6e3bc81a96d2f5065ad94a6a93273d83748be7ace6c49f293c543738f62a5b6a906020015b60405180910390a2505050565b6000828152600b60205260409020548290610e145760405162461bcd60e51b815260040161093c90614dee565b6000838152600b60209081526040808320858452600a0190915290205483908390610e515760405162461bcd60e51b815260040161093c90614e1c565b600080516020615510833981519152610e6981613b33565b6000868152600b6020526040902060018101546001600160a01b03163314610ee65760405162461bcd60e51b815260206004820152602a60248201527f4f6e6c7920746865206f7267616e697a65722063616e2072656d6f7665207469604482015269636b657420747970657360b01b606482015260840161093c565b6000868152600a82016020526040812081815590610f076001830182614677565b600282016000905560038201600090556004820160009055600582016000610f2f9190614677565b610f3d600683016000614677565b50506000868152600982016020526040812054600883015460ff9091169190610f6890600190614e53565b90506000836008018260ff1681548110610f8457610f84614e76565b6000918252602080832090910154808352600987019091526040808320805460ff881660ff1991821681179092558d85529190932080549091169055600886018054919350839290918110610fdb57610fdb614e76565b60009182526020909120015560088401805480610ffa57610ffa614e8c565b60019003818190600052602060002001600090559055336001600160a01b03167fd7e867a3c1b30b85f1c4060ae5f328a610ab1b13aabd5415372dd1c8637154ab8b8b604051611054929190918252602082015260400190565b60405180910390a250505050505050505050565b6110723382613b3d565b61108e5760405162461bcd60e51b815260040161093c90614ea2565b610c1d838383613bbb565b806110a381613d57565b6110bf5760405162461bcd60e51b815260040161093c90614ef0565b6000805160206155108339815191526110d781613b33565b6000838152600d6020526040902060040154600160b01b900460ff16156111395760405162461bcd60e51b8152602060048201526016602482015275151a58dad95d081a5cc8185b1c9958591e481d5cd95960521b604482015260640161093c565b6000838152600d602090815260408083206001908101548452600b90925290912001546001600160a01b031633146111a75760405162461bcd60e51b81526020600482015260116024820152702737ba103a34329037b933b0b734bd32b960791b604482015260640161093c565b6000838152600d60209081526040808320600101548352600b90915290206004015415611230576000838152600d60209081526040808320600101548352600b90915290206004015442106112305760405162461bcd60e51b815260206004820152600f60248201526e115d995b9d081a185cc8195b991959608a1b604482015260640161093c565b6000838152600d60209081526040808320600101548352600b9091529020600301544210156112995760405162461bcd60e51b8152602060048201526015602482015274115d995b9d081a185cc81b9bdd081cdd185c9d1959605a1b604482015260640161093c565b6000838152600d602052604090819020600401805461ffff60a81b1916600160b01b1790555133907f31684b65477a7d1fd4edef84ea40d8f3d6c7531a2e48dfdf9c8c55c8ec5496f990610dda9086815260200190565b6000828152600e6020526040902054829061131d5760405162461bcd60e51b815260040161093c90614f1f565b6000838152600e6020526040902060068101546001600160a01b03163314156113885760405162461bcd60e51b815260206004820152601a60248201527f43616e6e6f742062757920796f7572206f776e207469636b6574000000000000604482015260640161093c565b600481810154600a546006840154604051636eb1769f60e11b81526001600160a01b0391821694810194909452306024850152919291169063dd62ed3e9060440160206040518083038186803b1580156113e157600080fd5b505afa1580156113f5573d6000803e3d6000fd5b505050506040513d601f19601f820116820180604052508101906114199190614da7565b10156114375760405162461bcd60e51b815260040161093c90614f4d565b60038101839055600a5460068201546004808401546040516323b872dd60e01b81526001600160a01b0393841692810192909252336024830152604482015260009291909116906323b872dd90606401602060405180830381600087803b1580156114a157600080fd5b505af11580156114b5573d6000803e3d6000fd5b505050506040513d601f19601f820116820180604052508101906114d99190614f84565b9050806114f85760405162461bcd60e51b815260040161093c90614fa1565b600682015460038301546115199133916001600160a01b0390911690613d74565b60068201805460ff60a01b198116600160a01b178255600580850180546001600160a01b0319908116339081179092556003870180546000908152600d60209081526040808320600490810180549096166001600160a01b03998a1617909555835483528083208501805460ff60a81b1916600160a81b179055975460018b015460028c01549454818552600b84528a8520868652600a0190935292899020948b0154985195989716968d967f7290e6fa19a97e2b68363bf3455b9fa2fa8b741ea3cb84b7b3eabcb93fd246ec966115f896949594909101919061506a565b60405180910390a4505050600091825250600e60205260408120818155600181018290556002810182905560038101829055600481018290556005810180546001600160a01b03191690556006810180546001600160a81b03191690556007810191909155600801805461ffff19169055565b6000888152600b602052604081205489906116985760405162461bcd60e51b815260040161093c90614dee565b60008a8152600b602090815260408083208c8452600a019091529020548a908a906116d55760405162461bcd60e51b815260040161093c90614e1c565b60008c8152600b602090815260408083208e8452600a810190925290912060048101546117445760405162461bcd60e51b815260206004820152601f60248201527f5469636b6574732066726f6d2074686973207479706520736f6c64206f757400604482015260640161093c565b8a156117ca57600a60009054906101000a90046001600160a01b03166001600160a01b031663d505accf33308a8f8f8f8f6040518863ffffffff1660e01b815260040161179797969594939291906150a1565b600060405180830381600087803b1580156117b157600080fd5b505af11580156117c5573d6000803e3d6000fd5b505050505b6002810154600a54604051636eb1769f60e11b81523360048201523060248201526001600160a01b039091169063dd62ed3e9060440160206040518083038186803b15801561181857600080fd5b505afa15801561182c573d6000803e3d6000fd5b505050506040513d601f19601f820116820180604052508101906118509190614da7565b101561186e5760405162461bcd60e51b815260040161093c90614f4d565b600a54600183015460028301546040516323b872dd60e01b81523360048201526001600160a01b039283166024820152604481019190915260009291909116906323b872dd90606401602060405180830381600087803b1580156118d157600080fd5b505af11580156118e5573d6000803e3d6000fd5b505050506040513d601f19601f820116820180604052508101906119099190614f84565b9050806119285760405162461bcd60e51b815260040161093c90614fa1565b60048201805490600061193a836150e2565b919050555060006119d78e84600501805461195490614d6c565b80601f016020809104026020016040519081016040528092919081815260200182805461198090614d6c565b80156119cd5780601f106119a2576101008083540402835291602001916119cd565b820191906000526020600020905b8154815290600101906020018083116119b057829003601f168201915b5050505050613deb565b6040805161010081018252600080825260208201819052918101829052606081018290526080810182905260a0810182905260c0810182905260e08101919091529091508181600001818152505084600001548160200181815250508f8160400181815250508e81608001906001600160a01b031690816001600160a01b03168152505060018160c001901515908115158152505060008160a001901515908115158152505060008160e001901515908115158152505080600d60008481526020019081526020016000206000820151816000015560208201518160010155604082015181600201556060820151816003015560808201518160040160006101000a8154816001600160a01b0302191690836001600160a01b0316021790555060a08201518160040160146101000a81548160ff02191690831515021790555060c08201518160040160156101000a81548160ff02191690831515021790555060e08201518160040160166101000a81548160ff021916908315150217905550905050600c8290806001815401808255809150506001900390600052602060002001600090919091909150558e6001600160a01b0316336001600160a01b03167fc7ec5a63397c2e4326b9522abeedaab52d40b2ae3118d9f95f5ab2ee4abf03a4836020015184604001518689600501604051611bd794939291906150f9565b60405180910390a3509f9e505050505050505050505050505050565b600082815260208190526040902060010154611c0e81613b33565b610c1d8383613e23565b6001600160a01b0381163314611c885760405162461bcd60e51b815260206004820152602f60248201527f416363657373436f6e74726f6c3a2063616e206f6e6c792072656e6f756e636560448201526e103937b632b9903337b91039b2b63360891b606482015260840161093c565b611c928282613ea7565b5050565b600a546040516370a0823160e01b81523360048201526000916001600160a01b0316906370a082319060240160206040518083038186803b158015611cda57600080fd5b505afa158015611cee573d6000803e3d6000fd5b505050506040513d601f19601f82011682018060405250810190611d129190614da7565b905080821115611d645760405162461bcd60e51b815260206004820152601a60248201527f4e6f7420656e6f75676820746f2062652077697468647261776e000000000000604482015260640161093c565b600f54821115611db65760405162461bcd60e51b815260206004820152601e60248201527f57697468647261772069732063757272656e746c792064697361626c65640000604482015260640161093c565b604051600090339084156108fc0290859084818181858888f19350505050905080611e115760405162461bcd60e51b815260206004820152600b60248201526a1cd95b990819985a5b195960aa1b604482015260640161093c565b600a54604051632770a7eb60e21b8152336004820152602481018590526001600160a01b0390911690639dc29fac90604401600060405180830381600087803b158015611e5d57600080fd5b505af1158015611e71573d6000803e3d6000fd5b50506040518581523392507f884edad9ce6fa2440d8a54cc123490eb96d2768479d49ff9c7366125a9424364915060200160405180910390a282600f6000828254611ebc9190615128565b9091555050505050565b6000878152600b60205260409020548790611ef35760405162461bcd60e51b815260040161093c90614dee565b600080516020615510833981519152611f0b81613b33565b6000898152600b60205260409020600101546001600160a01b03163314611f745760405162461bcd60e51b815260206004820152601d60248201527f4f6e6c79206f7267616e697a65722063616e2065646974206576656e74000000604482015260640161093c565b6000898152600b602090815260409091208951611f99926002909201918b01906146cf565b506000898152600b602090815260409091208851611fbf926005909201918a01906146cf565b506000898152600b602090815260409091208751611fe5926007909201918901906146cf565b506000898152600b60209081526040909120865161200b926006909201918801906146cf565b506000898152600b602052604090819020600381018690556004018490555133907fc6c3b5ce58b3196884cdaee9a17eb22ca93be1fe7ed9dc66fcb99d4c5148d13b90612065908c908c908c908c908c908c908c9061513f565b60405180910390a2505050505050505050565b610c1d8383836040518060200160405280600081525061303e565b6000805160206154f08339815191526120ab81613b33565b6000601054116120fd5760405162461bcd60e51b815260206004820152601a60248201527f4e6f7420656e6f75676820746f2062652077697468647261776e000000000000604482015260640161093c565b601054604051600091339181156108fc02919084818181858888f1935050505090508061215a5760405162461bcd60e51b815260206004820152600b60248201526a1cd95b990819985a5b195960aa1b604482015260640161093c565b60105460405190815233907f884edad9ce6fa2440d8a54cc123490eb96d2768479d49ff9c7366125a94243649060200160405180910390a250506000601055565b6000805160206154f08339815191526121b381613b33565b50600980546001600160a01b0319166001600160a01b0392909216919091179055565b6000805160206154f08339815191526121ee81613b33565b50600a80546001600160a01b0319166001600160a01b0392909216919091179055565b6000818152600360205260408120546001600160a01b0316806108435760405162461bcd60e51b8152602060048201526018602482015277115490cdcc8c4e881a5b9d985b1a59081d1bdad95b88125160421b604482015260640161093c565b60006001600160a01b0382166122db5760405162461bcd60e51b815260206004820152602960248201527f4552433732313a2061646472657373207a65726f206973206e6f7420612076616044820152683634b21037bbb732b960b91b606482015260840161093c565b506001600160a01b031660009081526004602052604090205490565b6000918252602082815260408084206001600160a01b0393909316845291905290205460ff1690565b60606002805461085890614d6c565b611c92338383613f0c565b60008161234681613d57565b6123625760405162461bcd60e51b815260040161093c90614ef0565b823361236d82612211565b6001600160a01b0316146123935760405162461bcd60e51b815260040161093c906151a9565b6000848152600d602090815260409182902082516101008101845281548152600182015492810192909252600281015492820192909252600382015460608201526004909101546001600160a01b038116608083015260ff600160a01b8204811615801560a0850152600160a81b83048216151560c0850152600160b01b90920416151560e08301526124685760405162461bcd60e51b815260206004820152601760248201527f536f7576656e697220616c7265616479206d696e746564000000000000000000604482015260640161093c565b8060e001516124b95760405162461bcd60e51b815260206004820152601d60248201527f5469636b6574207374696c6c206861736e2774206265656e2075736564000000604482015260640161093c565b6009546020808301516000908152600b82526040808220818601518352600a019092528181209151630d385de160e01b815290926001600160a01b031691630d385de1916125119133916006909101906004016151f1565b602060405180830381600087803b15801561252b57600080fd5b505af115801561253f573d6000803e3d6000fd5b505050506040513d601f19601f820116820180604052508101906125639190614da7565b600160a084018181526060850183815260008a8152600d6020908152604080832089518155828a0151968101879055818a01805160028301559451600382015560808a0151600482018054975160c08d015160e08e01511515600160b01b0260ff60b01b19911515600160a81b029190911661ffff60a81b19921515600160a01b026001600160a81b0319909b166001600160a01b039095169490941799909917169190911796909617909555948252600b815284822092518252600a909201909152829020915192935033927fbfb0d88738cabb67e80487f01fe7851fe075d3a6314462e7576e719ef025892a926126629291869160060190615215565b60405180910390a295945050505050565b600a5460405163d505accf60e01b81526001600160a01b039091169063d505accf906126af90339030908a908a908a908a908a906004016150a1565b600060405180830381600087803b1580156126c957600080fd5b505af11580156126dd573d6000803e3d6000fd5b505050506126e9614753565b88816000018181525050338160c001906001600160a01b031690816001600160a01b031681525050878160200181815250508681604001818152505085816080018181525050848161010001818152505060018161012001901515908115158152505060008161014001901515908115158152505080600e60008b8152602001908152602001600020600082015181600001556020820151816001015560408201518160020155606082015181600301556080820151816004015560a08201518160050160006101000a8154816001600160a01b0302191690836001600160a01b0316021790555060c08201518160060160006101000a8154816001600160a01b0302191690836001600160a01b0316021790555060e08201518160060160146101000a81548160ff02191690831515021790555061010082015181600701556101208201518160080160006101000a81548160ff0219169083151502179055506101408201518160080160016101000a81548160ff021916908315150217905550905050336001600160a01b03167f8c0532da8a9f0675da764e7b35fbb8c2c8868976193fc36ffad259ddb5675ca48a8a8a8a8a604051612065959493929190948552602085019390935260408401919091526060830152608082015260a00190565b606061084382613283565b6000858152600e602052604090205485906129055760405162461bcd60e51b815260040161093c90614f1f565b6000868152600e6020526040902060058101546001600160a01b03163314156129705760405162461bcd60e51b815260206004820152601a60248201527f43616e6e6f742062757920796f7572206f776e207469636b6574000000000000604482015260640161093c565b600a5460048083015460405163d505accf60e01b81526001600160a01b039093169263d505accf926129ae92339230928d918d918d918d91016150a1565b600060405180830381600087803b1580156129c857600080fd5b505af11580156129dc573d6000803e3d6000fd5b50505050600481810154600a54604051636eb1769f60e11b8152339381019390935230602484015290916001600160a01b039091169063dd62ed3e9060440160206040518083038186803b158015612a3357600080fd5b505afa158015612a47573d6000803e3d6000fd5b505050506040513d601f19601f82011682018060405250810190612a6b9190614da7565b1015612a895760405162461bcd60e51b815260040161093c90614f4d565b600a5460058201546004808401546040516323b872dd60e01b815233928101929092526001600160a01b039283166024830152604482015260009291909116906323b872dd90606401602060405180830381600087803b158015612aec57600080fd5b505af1158015612b00573d6000803e3d6000fd5b505050506040513d601f19601f82011682018060405250810190612b249190614f84565b905080612b435760405162461bcd60e51b815260040161093c90614fa1565b60058201546003830154612b62916001600160a01b0316903390613d74565b60018260060160146101000a81548160ff021916908315150217905550338260060160006101000a8154816001600160a01b0302191690836001600160a01b031602179055506001600d60008460030154815260200190815260200160002060040160156101000a81548160ff0219169083151502179055508160060160009054906101000a90046001600160a01b0316600d60008460030154815260200190815260200160002060040160006101000a8154816001600160a01b0302191690836001600160a01b03160217905550336001600160a01b03168260050160009054906101000a90046001600160a01b03166001600160a01b0316897f74d4a4b83241ac6e92c85cb30050e3a85c7c42122aeef8712fc2f603a3a8c3cb856001015486600201548760030154600b60008a600101548152602001908152602001600020600a0160008a6002015481526020019081526020016000206005018960040154604051612cd595949392919061506a565b60405180910390a450505060009485525050600e602052505060408120818155600181018290556002810182905560038101829055600481018290556005810180546001600160a01b03191690556006810180546001600160a81b03191690556007810191909155600801805461ffff19169055565b6000848152600b60205260409020548490612d785760405162461bcd60e51b815260040161093c90614dee565b6000858152600b60209081526040808320878452600a0190915290205485908590612db55760405162461bcd60e51b815260040161093c90614e1c565b84612dbf81613d57565b612ddb5760405162461bcd60e51b815260040161093c90614ef0565b8533612de682612211565b6001600160a01b031614612e0c5760405162461bcd60e51b815260040161093c906151a9565b612e14614753565b8a816000018181525050338160a001906001600160a01b031690816001600160a01b0316815250508981602001818152505088816040018181525050878160600181815250508681608001818152505060008161010001818152505060008161012001901515908115158152505060018161014001901515908115158152505080600e60008d8152602001908152602001600020600082015181600001556020820151816001015560408201518160020155606082015181600301556080820151816004015560a08201518160050160006101000a8154816001600160a01b0302191690836001600160a01b0316021790555060c08201518160060160006101000a8154816001600160a01b0302191690836001600160a01b0316021790555060e08201518160060160146101000a81548160ff02191690831515021790555061010082015181600701556101208201518160080160006101000a81548160ff0219169083151502179055506101408201518160080160016101000a81548160ff0219169083151502179055509050506000600d60008a815260200190815260200160002060040160156101000a81548160ff021916908315150217905550336001600160a01b03168b7f0f27c48668db2e12a5e88bc77cf8b459181c7ee1e6264ddb55242efe89d9d0398c8c8c8c604051613029949392919093845260208401929092526040830152606082015260800190565b60405180910390a35050505050505050505050565b6130483383613b3d565b6130645760405162461bcd60e51b815260040161093c90614ea2565b61307084848484613fd3565b50505050565b6000878152600b602052604090205487906130a35760405162461bcd60e51b815260040161093c90614dee565b6000888152600b602090815260408083208a8452600a01909152902054889088906130e05760405162461bcd60e51b815260040161093c90614e1c565b6000805160206155108339815191526130f881613b33565b60008b8152600b60205260409020600101546001600160a01b031633146131725760405162461bcd60e51b815260206004820152602860248201527f4f6e6c7920746865206f7267616e697a65722063616e2065646974207469636b604482015267657420747970657360c01b606482015260840161093c565b6040805160e0810182528b815260208082018c81528284018a9052606083018990526080830189905260a083018c905260c083018b905260008f8152600b83528481208f8252600a0183529390932082518155925180519293849390926131e09260018501929101906146cf565b5060408201516002820155606082015160038201556080820151600482015560a0820151805161321a9160058401916020909101906146cf565b5060c082015180516132369160068401916020909101906146cf565b50506040513391507ffc051c354a57b794e7a2a34dc7a0ab81839aab32ad19ecc48bc4f2a549d7e4699061326d908f9085906152a9565b60405180910390a2505050505050505050505050565b606061328e82613a72565b600082815260076020526040812080546132a790614d6c565b80601f01602080910402602001604051908101604052809291908181526020018280546132d390614d6c565b80156133205780601f106132f557610100808354040283529160200191613320565b820191906000526020600020905b81548152906001019060200180831161330357829003601f168201915b50505050509050600061333e60408051602081019091526000815290565b9050805160001415613351575092915050565b81511561338357808260405160200161336b929190615331565b60405160208183030381529060405292505050919050565b61338c84614006565b949350505050565b6000878152600b602052604090205487906133c15760405162461bcd60e51b815260040161093c90614dee565b6000805160206155108339815191526133d981613b33565b6000898152600b60205260409020600101546001600160a01b031633146134685760405162461bcd60e51b815260206004820152603760248201527f4f6e6c7920746865206f7267616e697a6572206f662074686973206576656e7460448201527f2063616e20637265617465207469636b65742074797065000000000000000000606482015260840161093c565b6000898152600b602090815260408083208b8452600a01909152902054156134d25760405162461bcd60e51b815260206004820152601a60248201527f5469636b6574207479706520616c726561647920657869737473000000000000604482015260640161093c565b6040805160e08101825289815260208082018a8152828401889052606083018790526080830187905260a083018a905260c0830189905260008d8152600b83528481208d8252600a0183529390932082518155925180519293849390926135409260018501929101906146cf565b5060408201516002820155606082015160038201556080820151600482015560a0820151805161357a9160058401916020909101906146cf565b5060c082015180516135969160068401916020909101906146cf565b50505060008a8152600b602081815260408084206008810180548f875260099092018452828620805460ff191660ff9093169290921790915592825282546001810184559284529220018a90555133907f86f1c49c5e96f57ffd1bbdcf5973aa010e8c5bb16218eaace76fa50c7e66b5b790611054908d9085906152a9565b600a546040516340c10f1960e01b81523360048201523460248201526001600160a01b03909116906340c10f1990604401600060405180830381600087803b15801561366057600080fd5b505af1158015613674573d6000803e3d6000fd5b5050505034600f600082825461368a9190614dd6565b909155505060405134815233907fe1fffcc4923d04b559f4d29a8bfc6cda04eb5b0d3c460751c2402c5c5cc9109c9060200160405180910390a2565b6000828152602081905260409020600101546136e181613b33565b610c1d8383613ea7565b6000805160206154f083398151915261370381613b33565b50601155565b60008051602061551083398151915261372181613b33565b6000888152600b6020526040902054156137745760405162461bcd60e51b81526020600482015260146024820152734576656e7420616c72656164792065786973747360601b604482015260640161093c565b6000888152600b602090815260409091208981556001810180546001600160a01b0319163317905588516137b0926002909201918a01906146cf565b506000888152600b6020908152604090912087516137d6926005909201918901906146cf565b506000888152600b6020908152604090912086516137fc926007909201918801906146cf565b506000888152600b602090815260409091208551613822926006909201918701906146cf565b506000888152600b602052604090819020600381018590556004018390555133907fba44e3dea1f095c62db0d9f6facba383bf1c67dd759f22d118d3c81b5fbb36dd9061387c908b908b908b908b908b908b908b9061513f565b60405180910390a25050505050505050565b6000818152600e602052604090205481906138bb5760405162461bcd60e51b815260040161093c90614f1f565b6000828152600e6020526040902060068101546001600160a01b0316331480156138ee5750600881015460ff1615156001145b8061391f575060058101546001600160a01b03163314801561391f5750600881015460ff6101009091041615156001145b61396b5760405162461bcd60e51b815260206004820152601c60248201527f4e6f74207468652063726561746f72206f6620746865206f6666657200000000604482015260640161093c565b6000838152600e602081815260408084206003810180548652600d84528286206004908101805460ff60a81b1916600160a81b179055898752949093528481556001810185905560028101859055918490559181018390556005810180546001600160a01b03191690556006810180546001600160a81b031916905560078101839055600801805461ffff1916905551339185917f74aeca155f6310e463cf88472fe14b61a7990f14c88a8f0a03b10306a88da8429190a3505050565b60006001600160e01b031982166380ac58cd60e01b1480613a5957506001600160e01b03198216635b5e139f60e01b145b80610843575061084382614079565b611c928282613e23565b613a7b81613d57565b613ac25760405162461bcd60e51b8152602060048201526018602482015277115490cdcc8c4e881a5b9d985b1a59081d1bdad95b88125160421b604482015260640161093c565b50565b600081815260056020526040902080546001600160a01b0319166001600160a01b0384169081179091558190613afa82612211565b6001600160a01b03167f8c5be1e5ebec7d5bd14f71427d1e84f3dd0314c0f7b2291e5b200ac8c7c3b92560405160405180910390a45050565b613ac281336140ae565b600080613b4983612211565b9050806001600160a01b0316846001600160a01b03161480613b9057506001600160a01b0380821660009081526006602090815260408083209388168352929052205460ff165b8061338c5750836001600160a01b0316613ba984610ae5565b6001600160a01b031614949350505050565b826001600160a01b0316613bce82612211565b6001600160a01b031614613c325760405162461bcd60e51b815260206004820152602560248201527f4552433732313a207472616e736665722066726f6d20696e636f72726563742060448201526437bbb732b960d91b606482015260840161093c565b6001600160a01b038216613c945760405162461bcd60e51b8152602060048201526024808201527f4552433732313a207472616e7366657220746f20746865207a65726f206164646044820152637265737360e01b606482015260840161093c565b613c9f600082613ac5565b6001600160a01b0383166000908152600460205260408120805460019290613cc8908490615128565b90915550506001600160a01b0382166000908152600460205260408120805460019290613cf6908490614dd6565b909155505060008181526003602052604080822080546001600160a01b0319166001600160a01b0386811691821790925591518493918716917fddf252ad1be2c89b69c2b068fc378daa952ba7f163c4a11628f55a4df523b3ef91a4505050565b6000908152600360205260409020546001600160a01b0316151590565b613d7f838383613bbb565b6000818152600d602090815260409182902060040180546001600160a01b0319166001600160a01b038681169182179092559251848152908616917f235a69dc2480d40b13f4bee2b08a32b678f03ca558ff46eba22ce16ace78b6ad91015b60405180910390a3505050565b6000613dfb600880546001019055565b6000613e0660085490565b9050613e128482614112565b613e1c8184614245565b9392505050565b613e2d82826122f7565b611c92576000828152602081815260408083206001600160a01b03851684529091529020805460ff19166001179055613e633390565b6001600160a01b0316816001600160a01b0316837f2f8788117e7eff1d82e926ec794901d17c78024a50270940304540a733656f0d60405160405180910390a45050565b613eb182826122f7565b15611c92576000828152602081815260408083206001600160a01b0385168085529252808320805460ff1916905551339285917ff6391f5c32d9c69d2a47ea670b442974b53935d1edc7fd64eb21e047a839171b9190a45050565b816001600160a01b0316836001600160a01b03161415613f6e5760405162461bcd60e51b815260206004820152601960248201527f4552433732313a20617070726f766520746f2063616c6c657200000000000000604482015260640161093c565b6001600160a01b03838116600081815260066020908152604080832094871680845294825291829020805460ff191686151590811790915591519182527f17307eab39ab6107e8899845ad3d59bd9653f200f220920489ca2b5937696c319101613dde565b613fde848484613bbb565b613fea848484846142d0565b6130705760405162461bcd60e51b815260040161093c90615360565b606061401182613a72565b600061402860408051602081019091526000815290565b905060008151116140485760405180602001604052806000815250613e1c565b80614052846143dd565b604051602001614063929190615331565b6040516020818303038152906040529392505050565b60006001600160e01b03198216637965db0b60e01b148061084357506301ffc9a760e01b6001600160e01b0319831614610843565b6140b882826122f7565b611c92576140d0816001600160a01b031660146144db565b6140db8360206144db565b6040516020016140ec9291906153b2565b60408051601f198184030181529082905262461bcd60e51b825261093c9160040161484f565b6001600160a01b0382166141685760405162461bcd60e51b815260206004820181905260248201527f4552433732313a206d696e7420746f20746865207a65726f2061646472657373604482015260640161093c565b61417181613d57565b156141be5760405162461bcd60e51b815260206004820152601c60248201527f4552433732313a20746f6b656e20616c7265616479206d696e74656400000000604482015260640161093c565b6001600160a01b03821660009081526004602052604081208054600192906141e7908490614dd6565b909155505060008181526003602052604080822080546001600160a01b0319166001600160a01b03861690811790915590518392907fddf252ad1be2c89b69c2b068fc378daa952ba7f163c4a11628f55a4df523b3ef908290a45050565b61424e82613d57565b6142b15760405162461bcd60e51b815260206004820152602e60248201527f45524337323155524953746f726167653a2055524920736574206f66206e6f6e60448201526d32bc34b9ba32b73a103a37b5b2b760911b606482015260840161093c565b60008281526007602090815260409091208251610c1d928401906146cf565b60006001600160a01b0384163b156143d257604051630a85bd0160e11b81526001600160a01b0385169063150b7a0290614314903390899088908890600401615427565b602060405180830381600087803b15801561432e57600080fd5b505af192505050801561435e575060408051601f3d908101601f1916820190925261435b9181019061545a565b60015b6143b8573d80801561438c576040519150601f19603f3d011682016040523d82523d6000602084013e614391565b606091505b5080516143b05760405162461bcd60e51b815260040161093c90615360565b805181602001fd5b6001600160e01b031916630a85bd0160e11b14905061338c565b506001949350505050565b6060816144015750506040805180820190915260018152600360fc1b602082015290565b8160005b811561442b578061441581615477565b91506144249050600a836154a8565b9150614405565b60008167ffffffffffffffff811115614446576144466149c7565b6040519080825280601f01601f191660200182016040528015614470576020820181803683370190505b5090505b841561338c57614485600183615128565b9150614492600a866154bc565b61449d906030614dd6565b60f81b8183815181106144b2576144b2614e76565b60200101906001600160f81b031916908160001a9053506144d4600a866154a8565b9450614474565b606060006144ea8360026154d0565b6144f5906002614dd6565b67ffffffffffffffff81111561450d5761450d6149c7565b6040519080825280601f01601f191660200182016040528015614537576020820181803683370190505b509050600360fc1b8160008151811061455257614552614e76565b60200101906001600160f81b031916908160001a905350600f60fb1b8160018151811061458157614581614e76565b60200101906001600160f81b031916908160001a90535060006145a58460026154d0565b6145b0906001614dd6565b90505b6001811115614628576f181899199a1a9b1b9c1cb0b131b232b360811b85600f16601081106145e4576145e4614e76565b1a60f81b8282815181106145fa576145fa614e76565b60200101906001600160f81b031916908160001a90535060049490941c93614621816150e2565b90506145b3565b508315613e1c5760405162461bcd60e51b815260206004820181905260248201527f537472696e67733a20686578206c656e67746820696e73756666696369656e74604482015260640161093c565b50805461468390614d6c565b6000825580601f10614693575050565b601f016020900490600052602060002090810190613ac291906147af565b5080546000825590600052602060002090810190613ac291906147af565b8280546146db90614d6c565b90600052602060002090601f0160209004810192826146fd5760008555614743565b82601f1061471657805160ff1916838001178555614743565b82800160010185558215614743579182015b82811115614743578251825591602001919060010190614728565b5061474f9291506147af565b5090565b6040805161016081018252600080825260208201819052918101829052606081018290526080810182905260a0810182905260c0810182905260e081018290526101008101829052610120810182905261014081019190915290565b5b8082111561474f57600081556001016147b0565b6001600160e01b031981168114613ac257600080fd5b6000602082840312156147ec57600080fd5b8135613e1c816147c4565b60005b838110156148125781810151838201526020016147fa565b838111156130705750506000910152565b6000815180845261483b8160208601602086016147f7565b601f01601f19169290920160200192915050565b602081526000613e1c6020830184614823565b60006020828403121561487457600080fd5b5035919050565b80356001600160a01b038116811461489257600080fd5b919050565b600080604083850312156148aa57600080fd5b6148b38361487b565b946020939093013593505050565b600080604083850312156148d457600080fd5b50508035926020909101359150565b6000806000606084860312156148f857600080fd5b6149018461487b565b925061490f6020850161487b565b9150604084013590509250925092565b803560ff8116811461489257600080fd5b600080600080600080600080610100898b03121561494d57600080fd5b883597506020890135965061496460408a0161487b565b95506060890135945061497960808a0161491f565b979a969950949793969560a0850135955060c08501359460e001359350915050565b600080604083850312156149ae57600080fd5b823591506149be6020840161487b565b90509250929050565b634e487b7160e01b600052604160045260246000fd5b600067ffffffffffffffff808411156149f8576149f86149c7565b604051601f8501601f19908116603f01168101908282118183101715614a2057614a206149c7565b81604052809350858152868686011115614a3957600080fd5b858560208301376000602087830101525050509392505050565b600082601f830112614a6457600080fd5b613e1c838335602085016149dd565b600080600080600080600060e0888a031215614a8e57600080fd5b87359650602088013567ffffffffffffffff80821115614aad57600080fd5b614ab98b838c01614a53565b975060408a0135915080821115614acf57600080fd5b614adb8b838c01614a53565b965060608a0135915080821115614af157600080fd5b614afd8b838c01614a53565b955060808a0135915080821115614b1357600080fd5b50614b208a828b01614a53565b93505060a0880135915060c0880135905092959891949750929550565b600060208284031215614b4f57600080fd5b613e1c8261487b565b8015158114613ac257600080fd5b60008060408385031215614b7957600080fd5b614b828361487b565b91506020830135614b9281614b58565b809150509250929050565b600080600080600080600080610100898b031215614bba57600080fd5b8835975060208901359650604089013595506060890135945060808901359350614be660a08a0161491f565b925060c0890135915060e089013590509295985092959890939650565b600080600080600060a08688031215614c1b57600080fd5b8535945060208601359350614c326040870161491f565b94979396509394606081013594506080013592915050565b600080600080600060a08688031215614c6257600080fd5b505083359560208501359550604085013594606081013594506080013592509050565b60008060008060808587031215614c9b57600080fd5b614ca48561487b565b9350614cb26020860161487b565b925060408501359150606085013567ffffffffffffffff811115614cd557600080fd5b8501601f81018713614ce657600080fd5b614cf5878235602084016149dd565b91505092959194509250565b600080600080600080600060e0888a031215614d1c57600080fd5b8735965060208801359550604088013567ffffffffffffffff80821115614acf57600080fd5b60008060408385031215614d5557600080fd5b614d5e8361487b565b91506149be6020840161487b565b600181811c90821680614d8057607f821691505b60208210811415614da157634e487b7160e01b600052602260045260246000fd5b50919050565b600060208284031215614db957600080fd5b5051919050565b634e487b7160e01b600052601160045260246000fd5b60008219821115614de957614de9614dc0565b500190565b602080825260149082015273115d995b9d08191bd95cc81b9bdd08195e1a5cdd60621b604082015260600190565b6020808252601a908201527f5469636b6574207479706520646f6573206e6f74206578697374000000000000604082015260600190565b600060ff821660ff841680821015614e6d57614e6d614dc0565b90039392505050565b634e487b7160e01b600052603260045260246000fd5b634e487b7160e01b600052603160045260246000fd5b6020808252602e908201527f4552433732313a2063616c6c6572206973206e6f7420746f6b656e206f776e6560408201526d1c881b9bdc88185c1c1c9bdd995960921b606082015260800190565b602080825260159082015274151a58dad95d08191bd95cc81b9bdd08195e1a5cdd605a1b604082015260600190565b60208082526014908201527313d999995c88191bd95cc81b9bdd08195e1a5cdd60621b604082015260600190565b60208082526017908201527f546f6b656e20616c6c6f77616e636520746f6f206c6f77000000000000000000604082015260600190565b600060208284031215614f9657600080fd5b8151613e1c81614b58565b6020808252600f908201526e1d1c985b9cd9995c8819985a5b1959608a1b604082015260600190565b8054600090600181811c9080831680614fe457607f831692505b602080841082141561500657634e487b7160e01b600052602260045260246000fd5b8388526020880182801561502157600181146150325761505d565b60ff1987168252828201975061505d565b60008981526020902060005b878110156150575781548482015290860190840161503e565b83019850505b5050505050505092915050565b85815284602082015283604082015260a06060820152600061508f60a0830185614fca565b90508260808301529695505050505050565b6001600160a01b0397881681529590961660208601526040850193909352606084019190915260ff16608083015260a082015260c081019190915260e00190565b6000816150f1576150f1614dc0565b506000190190565b84815283602082015282604082015260806060820152600061511e6080830184614fca565b9695505050505050565b60008282101561513a5761513a614dc0565b500390565b87815260e06020820152600061515860e0830189614823565b828103604084015261516a8189614823565b9050828103606084015261517e8188614823565b905082810360808401526151928187614823565b60a0840195909552505060c0015295945050505050565b60208082526028908201527f4f6e6c79207469636b6574206f776e65722063616e2063616c6c207468697320604082015267333ab731ba34b7b760c11b606082015260800190565b6001600160a01b038316815260406020820181905260009061338c90830184614fca565b8354815260018401546020820152600284015460408201526003840154606082015260048401546001600160a01b03811660808301526000906101409061526660a0850160ff8360a01c1615159052565b61527a60c0850160ff8360a81c1615159052565b61528e60e0850160ff8360b01c1615159052565b50846101008401528061012084015261511e81840185614fca565b82815260406020820152815160408201526000602083015160e060608401526152d6610120840182614823565b905060408401516080840152606084015160a0840152608084015160c084015260a0840151603f19808584030160e08601526153128383614823565b925060c0860151915080858403016101008601525061511e8282614823565b600083516153438184602088016147f7565b8351908301906153578183602088016147f7565b01949350505050565b60208082526032908201527f4552433732313a207472616e7366657220746f206e6f6e20455243373231526560408201527131b2b4bb32b91034b6b83632b6b2b73a32b960711b606082015260800190565b7f416363657373436f6e74726f6c3a206163636f756e74200000000000000000008152600083516153ea8160178501602088016147f7565b7001034b99036b4b9b9b4b733903937b6329607d1b601791840191820152835161541b8160288401602088016147f7565b01602801949350505050565b6001600160a01b038581168252841660208201526040810183905260806060820181905260009061511e90830184614823565b60006020828403121561546c57600080fd5b8151613e1c816147c4565b600060001982141561548b5761548b614dc0565b5060010190565b634e487b7160e01b600052601260045260246000fd5b6000826154b7576154b7615492565b500490565b6000826154cb576154cb615492565b500690565b60008160001904831182151516156154ea576154ea614dc0565b50029056feb19546dff01e856fb3f010c267a7b1c60363cf8a4664e21cc89c26224620214e4d2e7a1e3f5dd6e203f087b15756ccf0e4ccd947fe1b639a38540089a1e47f63a2646970667358221220cd478bbed6c0e59ddcb16e82a395190b675ceaf84e1218df3a2c4816f7a1d8a964736f6c63430008090033",
  "linkReferences": {},
  "deployedLinkReferences": {}
}