{
  "_format": "hh-sol-artifact-1",
  "contractName": "TicketGenerator",
  "sourceName": "contracts/TicketGenerator.sol",
  "abi": [
    {
      "inputs": [
        {
          "internalType": "address",
          "name": "_tokenAddress",
          "type": "address"
        },
        {
          "internalType": "address",
          "name": "_souvenirGeneratorAddress",
          "type": "address"
        }
      ],
      "stateMutability": "nonpayable",
      "type": "constructor"
    },
    {
      "anonymous": false,
      "inputs": [
        {
          "indexed": true,
          "internalType": "bytes32",
          "name": "offerId",
          "type": "bytes32"
        },
        {
          "indexed": true,
          "internalType": "address",
          "name": "buyer",
          "type": "address"
        },
        {
          "indexed": true,
          "internalType": "address",
          "name": "seller",
          "type": "address"
        },
        {
          "indexed": false,
          "internalType": "bytes32",
          "name": "eventId",
          "type": "bytes32"
        },
        {
          "indexed": false,
          "internalType": "bytes32",
          "name": "ticketTypeId",
          "type": "bytes32"
        },
        {
          "indexed": false,
          "internalType": "uint256",
          "name": "ticketId",
          "type": "uint256"
        },
        {
          "indexed": false,
          "internalType": "string",
          "name": "tokenURI",
          "type": "string"
        },
        {
          "indexed": false,
          "internalType": "uint256",
          "name": "price",
          "type": "uint256"
        }
      ],
      "name": "AcceptBuyOffer",
      "type": "event"
    },
    {
      "anonymous": false,
      "inputs": [
        {
          "indexed": true,
          "internalType": "bytes32",
          "name": "offerId",
          "type": "bytes32"
        },
        {
          "indexed": true,
          "internalType": "address",
          "name": "buyer",
          "type": "address"
        },
        {
          "indexed": true,
          "internalType": "address",
          "name": "seller",
          "type": "address"
        },
        {
          "indexed": false,
          "internalType": "bytes32",
          "name": "eventId",
          "type": "bytes32"
        },
        {
          "indexed": false,
          "internalType": "bytes32",
          "name": "ticketTypeId",
          "type": "bytes32"
        },
        {
          "indexed": false,
          "internalType": "uint256",
          "name": "ticketId",
          "type": "uint256"
        },
        {
          "indexed": false,
          "internalType": "string",
          "name": "tokenURI",
          "type": "string"
        },
        {
          "indexed": false,
          "internalType": "uint256",
          "name": "price",
          "type": "uint256"
        }
      ],
      "name": "AcceptSellOffer",
      "type": "event"
    },
    {
      "anonymous": false,
      "inputs": [
        {
          "indexed": true,
          "internalType": "address",
          "name": "owner",
          "type": "address"
        },
        {
          "indexed": true,
          "internalType": "address",
          "name": "approved",
          "type": "address"
        },
        {
          "indexed": true,
          "internalType": "uint256",
          "name": "tokenId",
          "type": "uint256"
        }
      ],
      "name": "Approval",
      "type": "event"
    },
    {
      "anonymous": false,
      "inputs": [
        {
          "indexed": true,
          "internalType": "address",
          "name": "owner",
          "type": "address"
        },
        {
          "indexed": true,
          "internalType": "address",
          "name": "operator",
          "type": "address"
        },
        {
          "indexed": false,
          "internalType": "bool",
          "name": "approved",
          "type": "bool"
        }
      ],
      "name": "ApprovalForAll",
      "type": "event"
    },
    {
      "anonymous": false,
      "inputs": [
        {
          "indexed": true,
          "internalType": "address",
          "name": "account",
          "type": "address"
        }
      ],
      "name": "BecomeOrganizer",
      "type": "event"
    },
    {
      "anonymous": false,
      "inputs": [
        {
          "indexed": true,
          "internalType": "address",
          "name": "buyer",
          "type": "address"
        },
        {
          "indexed": true,
          "internalType": "address",
          "name": "owner",
          "type": "address"
        },
        {
          "indexed": false,
          "internalType": "bytes32",
          "name": "eventId",
          "type": "bytes32"
        },
        {
          "indexed": false,
          "internalType": "bytes32",
          "name": "ticketTypeId",
          "type": "bytes32"
        },
        {
          "indexed": false,
          "internalType": "uint256",
          "name": "tokenId",
          "type": "uint256"
        },
        {
          "indexed": false,
          "internalType": "string",
          "name": "tokenURI",
          "type": "string"
        }
      ],
      "name": "BuyTicket",
      "type": "event"
    },
    {
      "anonymous": false,
      "inputs": [
        {
          "indexed": true,
          "internalType": "bytes32",
          "name": "offerId",
          "type": "bytes32"
        },
        {
          "indexed": true,
          "internalType": "address",
          "name": "sender",
          "type": "address"
        }
      ],
      "name": "CancelOffer",
      "type": "event"
    },
    {
      "anonymous": false,
      "inputs": [
        {
          "indexed": false,
          "internalType": "bytes32",
          "name": "offerId",
          "type": "bytes32"
        },
        {
          "indexed": true,
          "internalType": "address",
          "name": "buyer",
          "type": "address"
        },
        {
          "indexed": false,
          "internalType": "bytes32",
          "name": "eventId",
          "type": "bytes32"
        },
        {
          "indexed": false,
          "internalType": "bytes32",
          "name": "ticketTypeId",
          "type": "bytes32"
        },
        {
          "indexed": false,
          "internalType": "uint256",
          "name": "price",
          "type": "uint256"
        },
        {
          "indexed": false,
          "internalType": "uint256",
          "name": "deadline",
          "type": "uint256"
        }
      ],
      "name": "CreateBuyOffer",
      "type": "event"
    },
    {
      "anonymous": false,
      "inputs": [
        {
          "indexed": true,
          "internalType": "address",
          "name": "creator",
          "type": "address"
        },
        {
          "indexed": false,
          "internalType": "bytes32",
          "name": "eventId",
          "type": "bytes32"
        },
        {
          "indexed": false,
          "internalType": "string",
          "name": "name",
          "type": "string"
        },
        {
          "indexed": false,
          "internalType": "string",
          "name": "description",
          "type": "string"
        },
        {
          "indexed": false,
          "internalType": "string",
          "name": "eventStorage",
          "type": "string"
        },
        {
          "indexed": false,
          "internalType": "string",
          "name": "location",
          "type": "string"
        },
        {
          "indexed": false,
          "internalType": "uint256",
          "name": "startTime",
          "type": "uint256"
        },
        {
          "indexed": false,
          "internalType": "uint256",
          "name": "endTime",
          "type": "uint256"
        }
      ],
      "name": "CreateEvent",
      "type": "event"
    },
    {
      "anonymous": false,
      "inputs": [
        {
          "indexed": true,
          "internalType": "bytes32",
          "name": "offerId",
          "type": "bytes32"
        },
        {
          "indexed": true,
          "internalType": "address",
          "name": "seller",
          "type": "address"
        },
        {
          "indexed": false,
          "internalType": "bytes32",
          "name": "eventId",
          "type": "bytes32"
        },
        {
          "indexed": false,
          "internalType": "bytes32",
          "name": "ticketTypeId",
          "type": "bytes32"
        },
        {
          "indexed": false,
          "internalType": "uint256",
          "name": "ticketId",
          "type": "uint256"
        },
        {
          "indexed": false,
          "internalType": "uint256",
          "name": "price",
          "type": "uint256"
        }
      ],
      "name": "CreateSellOffer",
      "type": "event"
    },
    {
      "anonymous": false,
      "inputs": [
        {
          "indexed": true,
          "internalType": "address",
          "name": "creator",
          "type": "address"
        },
        {
          "indexed": false,
          "internalType": "bytes32",
          "name": "eventId",
          "type": "bytes32"
        },
        {
          "components": [
            {
              "internalType": "bytes32",
              "name": "id",
              "type": "bytes32"
            },
            {
              "internalType": "string",
              "name": "name",
              "type": "string"
            },
            {
              "internalType": "uint256",
              "name": "price",
              "type": "uint256"
            },
            {
              "internalType": "uint256",
              "name": "maxSupply",
              "type": "uint256"
            },
            {
              "internalType": "uint256",
              "name": "currentSupply",
              "type": "uint256"
            },
            {
              "internalType": "string",
              "name": "tokenURI",
              "type": "string"
            },
            {
              "internalType": "string",
              "name": "souvenirTokenURI",
              "type": "string"
            }
          ],
          "indexed": false,
          "internalType": "struct Structs.TicketType",
          "name": "ticketType",
          "type": "tuple"
        }
      ],
      "name": "CreateTicketType",
      "type": "event"
    },
    {
      "anonymous": false,
      "inputs": [
        {
          "indexed": true,
          "internalType": "address",
          "name": "creator",
          "type": "address"
        },
        {
          "indexed": false,
          "internalType": "bytes32",
          "name": "eventId",
          "type": "bytes32"
        }
      ],
      "name": "DeleteEvent",
      "type": "event"
    },
    {
      "anonymous": false,
      "inputs": [
        {
          "indexed": true,
          "internalType": "address",
          "name": "creator",
          "type": "address"
        },
        {
          "indexed": false,
          "internalType": "bytes32",
          "name": "eventId",
          "type": "bytes32"
        },
        {
          "indexed": false,
          "internalType": "bytes32",
          "name": "ticketTypeId",
          "type": "bytes32"
        }
      ],
      "name": "DeleteTicketType",
      "type": "event"
    },
    {
      "anonymous": false,
      "inputs": [
        {
          "indexed": true,
          "internalType": "address",
          "name": "sender",
          "type": "address"
        },
        {
          "indexed": false,
          "internalType": "uint256",
          "name": "amount",
          "type": "uint256"
        }
      ],
      "name": "Deposit",
      "type": "event"
    },
    {
      "anonymous": false,
      "inputs": [
        {
          "indexed": true,
          "internalType": "address",
          "name": "owner",
          "type": "address"
        },
        {
          "components": [
            {
              "internalType": "uint256",
              "name": "id",
              "type": "uint256"
            },
            {
              "internalType": "bytes32",
              "name": "eventId",
              "type": "bytes32"
            },
            {
              "internalType": "bytes32",
              "name": "ticketTypeId",
              "type": "bytes32"
            },
            {
              "internalType": "uint256",
              "name": "souvenirId",
              "type": "uint256"
            },
            {
              "internalType": "address",
              "name": "owner",
              "type": "address"
            },
            {
              "internalType": "bool",
              "name": "souvenirMinted",
              "type": "bool"
            },
            {
              "internalType": "bool",
              "name": "usable",
              "type": "bool"
            },
            {
              "internalType": "bool",
              "name": "used",
              "type": "bool"
            }
          ],
          "indexed": false,
          "internalType": "struct Structs.Ticket",
          "name": "ticket",
          "type": "tuple"
        },
        {
          "indexed": false,
          "internalType": "uint256",
          "name": "tokenId",
          "type": "uint256"
        },
        {
          "indexed": false,
          "internalType": "string",
          "name": "tokenURI",
          "type": "string"
        }
      ],
      "name": "GenerateSouvenir",
      "type": "event"
    },
    {
      "anonymous": false,
      "inputs": [
        {
          "indexed": true,
          "internalType": "bytes32",
          "name": "role",
          "type": "bytes32"
        },
        {
          "indexed": true,
          "internalType": "bytes32",
          "name": "previousAdminRole",
          "type": "bytes32"
        },
        {
          "indexed": true,
          "internalType": "bytes32",
          "name": "newAdminRole",
          "type": "bytes32"
        }
      ],
      "name": "RoleAdminChanged",
      "type": "event"
    },
    {
      "anonymous": false,
      "inputs": [
        {
          "indexed": true,
          "internalType": "bytes32",
          "name": "role",
          "type": "bytes32"
        },
        {
          "indexed": true,
          "internalType": "address",
          "name": "account",
          "type": "address"
        },
        {
          "indexed": true,
          "internalType": "address",
          "name": "sender",
          "type": "address"
        }
      ],
      "name": "RoleGranted",
      "type": "event"
    },
    {
      "anonymous": false,
      "inputs": [
        {
          "indexed": true,
          "internalType": "bytes32",
          "name": "role",
          "type": "bytes32"
        },
        {
          "indexed": true,
          "internalType": "address",
          "name": "account",
          "type": "address"
        },
        {
          "indexed": true,
          "internalType": "address",
          "name": "sender",
          "type": "address"
        }
      ],
      "name": "RoleRevoked",
      "type": "event"
    },
    {
      "anonymous": false,
      "inputs": [
        {
          "indexed": true,
          "internalType": "address",
          "name": "from",
          "type": "address"
        },
        {
          "indexed": true,
          "internalType": "address",
          "name": "to",
          "type": "address"
        },
        {
          "indexed": true,
          "internalType": "uint256",
          "name": "tokenId",
          "type": "uint256"
        }
      ],
      "name": "Transfer",
      "type": "event"
    },
    {
      "anonymous": false,
      "inputs": [
        {
          "indexed": true,
          "internalType": "address",
          "name": "sender",
          "type": "address"
        },
        {
          "indexed": true,
          "internalType": "address",
          "name": "receiver",
          "type": "address"
        },
        {
          "indexed": false,
          "internalType": "uint256",
          "name": "tokenId",
          "type": "uint256"
        }
      ],
      "name": "TransferTicket",
      "type": "event"
    },
    {
      "anonymous": false,
      "inputs": [
        {
          "indexed": true,
          "internalType": "address",
          "name": "creator",
          "type": "address"
        },
        {
          "indexed": false,
          "internalType": "bytes32",
          "name": "eventId",
          "type": "bytes32"
        },
        {
          "indexed": false,
          "internalType": "string",
          "name": "name",
          "type": "string"
        },
        {
          "indexed": false,
          "internalType": "string",
          "name": "description",
          "type": "string"
        },
        {
          "indexed": false,
          "internalType": "string",
          "name": "eventStorage",
          "type": "string"
        },
        {
          "indexed": false,
          "internalType": "string",
          "name": "location",
          "type": "string"
        },
        {
          "indexed": false,
          "internalType": "uint256",
          "name": "startTime",
          "type": "uint256"
        },
        {
          "indexed": false,
          "internalType": "uint256",
          "name": "endTime",
          "type": "uint256"
        }
      ],
      "name": "UpdateEvent",
      "type": "event"
    },
    {
      "anonymous": false,
      "inputs": [
        {
          "indexed": true,
          "internalType": "address",
          "name": "creator",
          "type": "address"
        },
        {
          "indexed": false,
          "internalType": "bytes32",
          "name": "eventId",
          "type": "bytes32"
        },
        {
          "components": [
            {
              "internalType": "bytes32",
              "name": "id",
              "type": "bytes32"
            },
            {
              "internalType": "string",
              "name": "name",
              "type": "string"
            },
            {
              "internalType": "uint256",
              "name": "price",
              "type": "uint256"
            },
            {
              "internalType": "uint256",
              "name": "maxSupply",
              "type": "uint256"
            },
            {
              "internalType": "uint256",
              "name": "currentSupply",
              "type": "uint256"
            },
            {
              "internalType": "string",
              "name": "tokenURI",
              "type": "string"
            },
            {
              "internalType": "string",
              "name": "souvenirTokenURI",
              "type": "string"
            }
          ],
          "indexed": false,
          "internalType": "struct Structs.TicketType",
          "name": "ticketType",
          "type": "tuple"
        }
      ],
      "name": "UpdateTicketType",
      "type": "event"
    },
    {
      "anonymous": false,
      "inputs": [
        {
          "indexed": true,
          "internalType": "address",
          "name": "sender",
          "type": "address"
        },
        {
          "indexed": false,
          "internalType": "uint256",
          "name": "ticketId",
          "type": "uint256"
        }
      ],
      "name": "UseTicket",
      "type": "event"
    },
    {
      "anonymous": false,
      "inputs": [
        {
          "indexed": true,
          "internalType": "address",
          "name": "receiver",
          "type": "address"
        },
        {
          "indexed": false,
          "internalType": "uint256",
          "name": "amount",
          "type": "uint256"
        }
      ],
      "name": "Withdraw",
      "type": "event"
    },
    {
      "inputs": [],
      "name": "DEFAULT_ADMIN_ROLE",
      "outputs": [
        {
          "internalType": "bytes32",
          "name": "",
          "type": "bytes32"
        }
      ],
      "stateMutability": "view",
      "type": "function"
    },
    {
      "inputs": [],
      "name": "MINTER_ROLE",
      "outputs": [
        {
          "internalType": "bytes32",
          "name": "",
          "type": "bytes32"
        }
      ],
      "stateMutability": "view",
      "type": "function"
    },
    {
      "inputs": [],
      "name": "ORGANIZER_ROLE",
      "outputs": [
        {
          "internalType": "bytes32",
          "name": "",
          "type": "bytes32"
        }
      ],
      "stateMutability": "view",
      "type": "function"
    },
    {
      "inputs": [],
      "name": "OWNER_ROLE",
      "outputs": [
        {
          "internalType": "bytes32",
          "name": "",
          "type": "bytes32"
        }
      ],
      "stateMutability": "view",
      "type": "function"
    },
    {
      "inputs": [
        {
          "internalType": "bytes32",
          "name": "id",
          "type": "bytes32"
        },
        {
          "internalType": "uint256",
          "name": "ticketId",
          "type": "uint256"
        }
      ],
      "name": "acceptBuyOffer",
      "outputs": [],
      "stateMutability": "nonpayable",
      "type": "function"
    },
    {
      "inputs": [
        {
          "internalType": "bytes32",
          "name": "id",
          "type": "bytes32"
        },
        {
          "internalType": "uint256",
          "name": "deadline",
          "type": "uint256"
        },
        {
          "internalType": "uint8",
          "name": "v",
          "type": "uint8"
        },
        {
          "internalType": "bytes32",
          "name": "r",
          "type": "bytes32"
        },
        {
          "internalType": "bytes32",
          "name": "s",
          "type": "bytes32"
        }
      ],
      "name": "acceptSellOffer",
      "outputs": [],
      "stateMutability": "nonpayable",
      "type": "function"
    },
    {
      "inputs": [
        {
          "internalType": "address",
          "name": "to",
          "type": "address"
        },
        {
          "internalType": "uint256",
          "name": "tokenId",
          "type": "uint256"
        }
      ],
      "name": "approve",
      "outputs": [],
      "stateMutability": "nonpayable",
      "type": "function"
    },
    {
      "inputs": [
        {
          "internalType": "address",
          "name": "owner",
          "type": "address"
        }
      ],
      "name": "balanceOf",
      "outputs": [
        {
          "internalType": "uint256",
          "name": "",
          "type": "uint256"
        }
      ],
      "stateMutability": "view",
      "type": "function"
    },
    {
      "inputs": [],
      "name": "becomeOrganizer",
      "outputs": [],
      "stateMutability": "nonpayable",
      "type": "function"
    },
    {
      "inputs": [
        {
          "internalType": "bytes32",
          "name": "_eventId",
          "type": "bytes32"
        },
        {
          "internalType": "bytes32",
          "name": "_ticketTypeId",
          "type": "bytes32"
        },
        {
          "internalType": "address",
          "name": "_recipient",
          "type": "address"
        },
        {
          "internalType": "uint256",
          "name": "deadline",
          "type": "uint256"
        },
        {
          "internalType": "uint8",
          "name": "v",
          "type": "uint8"
        },
        {
          "internalType": "bytes32",
          "name": "r",
          "type": "bytes32"
        },
        {
          "internalType": "bytes32",
          "name": "s",
          "type": "bytes32"
        }
      ],
      "name": "buyTicket",
      "outputs": [
        {
          "internalType": "uint256",
          "name": "",
          "type": "uint256"
        }
      ],
      "stateMutability": "nonpayable",
      "type": "function"
    },
    {
      "inputs": [
        {
          "internalType": "bytes32",
          "name": "id",
          "type": "bytes32"
        }
      ],
      "name": "cancelOffer",
      "outputs": [],
      "stateMutability": "nonpayable",
      "type": "function"
    },
    {
      "inputs": [
        {
          "internalType": "bytes32",
          "name": "id",
          "type": "bytes32"
        },
        {
          "internalType": "bytes32",
          "name": "eventId",
          "type": "bytes32"
        },
        {
          "internalType": "bytes32",
          "name": "ticketTypeId",
          "type": "bytes32"
        },
        {
          "internalType": "uint256",
          "name": "price",
          "type": "uint256"
        },
        {
          "internalType": "uint256",
          "name": "deadline",
          "type": "uint256"
        },
        {
          "internalType": "uint8",
          "name": "v",
          "type": "uint8"
        },
        {
          "internalType": "bytes32",
          "name": "r",
          "type": "bytes32"
        },
        {
          "internalType": "bytes32",
          "name": "s",
          "type": "bytes32"
        }
      ],
      "name": "createBuyOffer",
      "outputs": [],
      "stateMutability": "nonpayable",
      "type": "function"
    },
    {
      "inputs": [
        {
          "internalType": "bytes32",
          "name": "_eventId",
          "type": "bytes32"
        },
        {
          "internalType": "string",
          "name": "_name",
          "type": "string"
        },
        {
          "internalType": "string",
          "name": "_description",
          "type": "string"
        },
        {
          "internalType": "string",
          "name": "eventStorage",
          "type": "string"
        },
        {
          "internalType": "string",
          "name": "location",
          "type": "string"
        },
        {
          "internalType": "uint256",
          "name": "startTime",
          "type": "uint256"
        },
        {
          "internalType": "uint256",
          "name": "endTime",
          "type": "uint256"
        }
      ],
      "name": "createEvent",
      "outputs": [],
      "stateMutability": "nonpayable",
      "type": "function"
    },
    {
      "inputs": [
        {
          "internalType": "bytes32",
          "name": "id",
          "type": "bytes32"
        },
        {
          "internalType": "bytes32",
          "name": "eventId",
          "type": "bytes32"
        },
        {
          "internalType": "bytes32",
          "name": "ticketTypeId",
          "type": "bytes32"
        },
        {
          "internalType": "uint256",
          "name": "ticketId",
          "type": "uint256"
        },
        {
          "internalType": "uint256",
          "name": "price",
          "type": "uint256"
        }
      ],
      "name": "createSellOffer",
      "outputs": [],
      "stateMutability": "nonpayable",
      "type": "function"
    },
    {
      "inputs": [
        {
          "internalType": "bytes32",
          "name": "_eventId",
          "type": "bytes32"
        },
        {
          "internalType": "bytes32",
          "name": "_ticketTypeId",
          "type": "bytes32"
        },
        {
          "internalType": "string",
          "name": "_ticketName",
          "type": "string"
        },
        {
          "internalType": "string",
          "name": "_tokenURI",
          "type": "string"
        },
        {
          "internalType": "string",
          "name": "_souvenirTokenURI",
          "type": "string"
        },
        {
          "internalType": "uint256",
          "name": "_price",
          "type": "uint256"
        },
        {
          "internalType": "uint256",
          "name": "_maxSupply",
          "type": "uint256"
        }
      ],
      "name": "createTicketType",
      "outputs": [],
      "stateMutability": "nonpayable",
      "type": "function"
    },
    {
      "inputs": [
        {
          "internalType": "bytes32",
          "name": "_eventId",
          "type": "bytes32"
        }
      ],
      "name": "deleteEvent",
      "outputs": [],
      "stateMutability": "nonpayable",
      "type": "function"
    },
    {
      "inputs": [
        {
          "internalType": "bytes32",
          "name": "_eventId",
          "type": "bytes32"
        },
        {
          "internalType": "bytes32",
          "name": "_ticketTypeId",
          "type": "bytes32"
        }
      ],
      "name": "deleteTicketType",
      "outputs": [],
      "stateMutability": "nonpayable",
      "type": "function"
    },
    {
      "inputs": [],
      "name": "deposit",
      "outputs": [],
      "stateMutability": "payable",
      "type": "function"
    },
    {
      "inputs": [
        {
          "internalType": "uint256",
          "name": "tokenId",
          "type": "uint256"
        }
      ],
      "name": "getApproved",
      "outputs": [
        {
          "internalType": "address",
          "name": "",
          "type": "address"
        }
      ],
      "stateMutability": "view",
      "type": "function"
    },
    {
      "inputs": [
        {
          "internalType": "uint256",
          "name": "_tokenId",
          "type": "uint256"
        }
      ],
      "name": "getMetadata",
      "outputs": [
        {
          "internalType": "string",
          "name": "",
          "type": "string"
        }
      ],
      "stateMutability": "view",
      "type": "function"
    },
    {
      "inputs": [
        {
          "internalType": "bytes32",
          "name": "role",
          "type": "bytes32"
        }
      ],
      "name": "getRoleAdmin",
      "outputs": [
        {
          "internalType": "bytes32",
          "name": "",
          "type": "bytes32"
        }
      ],
      "stateMutability": "view",
      "type": "function"
    },
    {
      "inputs": [
        {
          "internalType": "uint256",
          "name": "_ticketId",
          "type": "uint256"
        }
      ],
      "name": "getSouvenir",
      "outputs": [
        {
          "internalType": "uint256",
          "name": "",
          "type": "uint256"
        }
      ],
      "stateMutability": "nonpayable",
      "type": "function"
    },
    {
      "inputs": [
        {
          "internalType": "bytes32",
          "name": "role",
          "type": "bytes32"
        },
        {
          "internalType": "address",
          "name": "account",
          "type": "address"
        }
      ],
      "name": "grantRole",
      "outputs": [],
      "stateMutability": "nonpayable",
      "type": "function"
    },
    {
      "inputs": [
        {
          "internalType": "bytes32",
          "name": "role",
          "type": "bytes32"
        },
        {
          "internalType": "address",
          "name": "account",
          "type": "address"
        }
      ],
      "name": "hasRole",
      "outputs": [
        {
          "internalType": "bool",
          "name": "",
          "type": "bool"
        }
      ],
      "stateMutability": "view",
      "type": "function"
    },
    {
      "inputs": [
        {
          "internalType": "address",
          "name": "owner",
          "type": "address"
        },
        {
          "internalType": "address",
          "name": "operator",
          "type": "address"
        }
      ],
      "name": "isApprovedForAll",
      "outputs": [
        {
          "internalType": "bool",
          "name": "",
          "type": "bool"
        }
      ],
      "stateMutability": "view",
      "type": "function"
    },
    {
      "inputs": [],
      "name": "name",
      "outputs": [
        {
          "internalType": "string",
          "name": "",
          "type": "string"
        }
      ],
      "stateMutability": "view",
      "type": "function"
    },
    {
      "inputs": [
        {
          "internalType": "uint256",
          "name": "tokenId",
          "type": "uint256"
        }
      ],
      "name": "ownerOf",
      "outputs": [
        {
          "internalType": "address",
          "name": "",
          "type": "address"
        }
      ],
      "stateMutability": "view",
      "type": "function"
    },
    {
      "inputs": [],
      "name": "ownerWithdraw",
      "outputs": [],
      "stateMutability": "nonpayable",
      "type": "function"
    },
    {
      "inputs": [
        {
          "internalType": "bytes32",
          "name": "role",
          "type": "bytes32"
        },
        {
          "internalType": "address",
          "name": "account",
          "type": "address"
        }
      ],
      "name": "renounceRole",
      "outputs": [],
      "stateMutability": "nonpayable",
      "type": "function"
    },
    {
      "inputs": [
        {
          "internalType": "bytes32",
          "name": "role",
          "type": "bytes32"
        },
        {
          "internalType": "address",
          "name": "account",
          "type": "address"
        }
      ],
      "name": "revokeRole",
      "outputs": [],
      "stateMutability": "nonpayable",
      "type": "function"
    },
    {
      "inputs": [
        {
          "internalType": "address",
          "name": "from",
          "type": "address"
        },
        {
          "internalType": "address",
          "name": "to",
          "type": "address"
        },
        {
          "internalType": "uint256",
          "name": "tokenId",
          "type": "uint256"
        }
      ],
      "name": "safeTransferFrom",
      "outputs": [],
      "stateMutability": "nonpayable",
      "type": "function"
    },
    {
      "inputs": [
        {
          "internalType": "address",
          "name": "from",
          "type": "address"
        },
        {
          "internalType": "address",
          "name": "to",
          "type": "address"
        },
        {
          "internalType": "uint256",
          "name": "tokenId",
          "type": "uint256"
        },
        {
          "internalType": "bytes",
          "name": "data",
          "type": "bytes"
        }
      ],
      "name": "safeTransferFrom",
      "outputs": [],
      "stateMutability": "nonpayable",
      "type": "function"
    },
    {
      "inputs": [
        {
          "internalType": "address",
          "name": "operator",
          "type": "address"
        },
        {
          "internalType": "bool",
          "name": "approved",
          "type": "bool"
        }
      ],
      "name": "setApprovalForAll",
      "outputs": [],
      "stateMutability": "nonpayable",
      "type": "function"
    },
    {
      "inputs": [
        {
          "internalType": "uint256",
          "name": "_organizerDeposit",
          "type": "uint256"
        }
      ],
      "name": "setOrganizerDeposit",
      "outputs": [],
      "stateMutability": "nonpayable",
      "type": "function"
    },
    {
      "inputs": [
        {
          "internalType": "address",
          "name": "_souvenirGeneratorAddress",
          "type": "address"
        }
      ],
      "name": "setSouvenirGeneratorContract",
      "outputs": [],
      "stateMutability": "nonpayable",
      "type": "function"
    },
    {
      "inputs": [
        {
          "internalType": "address",
          "name": "_tokenAddress",
          "type": "address"
        }
      ],
      "name": "setTIKContract",
      "outputs": [],
      "stateMutability": "nonpayable",
      "type": "function"
    },
    {
      "inputs": [
        {
          "internalType": "bytes4",
          "name": "interfaceId",
          "type": "bytes4"
        }
      ],
      "name": "supportsInterface",
      "outputs": [
        {
          "internalType": "bool",
          "name": "",
          "type": "bool"
        }
      ],
      "stateMutability": "view",
      "type": "function"
    },
    {
      "inputs": [],
      "name": "symbol",
      "outputs": [
        {
          "internalType": "string",
          "name": "",
          "type": "string"
        }
      ],
      "stateMutability": "view",
      "type": "function"
    },
    {
      "inputs": [
        {
          "internalType": "uint256",
          "name": "amount",
          "type": "uint256"
        },
        {
          "internalType": "uint256",
          "name": "deadline",
          "type": "uint256"
        },
        {
          "internalType": "uint8",
          "name": "v",
          "type": "uint8"
        },
        {
          "internalType": "bytes32",
          "name": "r",
          "type": "bytes32"
        },
        {
          "internalType": "bytes32",
          "name": "s",
          "type": "bytes32"
        }
      ],
      "name": "ticketPurchasePermit",
      "outputs": [],
      "stateMutability": "nonpayable",
      "type": "function"
    },
    {
      "inputs": [
        {
          "internalType": "uint256",
          "name": "tokenId",
          "type": "uint256"
        }
      ],
      "name": "tokenURI",
      "outputs": [
        {
          "internalType": "string",
          "name": "",
          "type": "string"
        }
      ],
      "stateMutability": "view",
      "type": "function"
    },
    {
      "inputs": [
        {
          "internalType": "address",
          "name": "from",
          "type": "address"
        },
        {
          "internalType": "address",
          "name": "to",
          "type": "address"
        },
        {
          "internalType": "uint256",
          "name": "tokenId",
          "type": "uint256"
        }
      ],
      "name": "transferFrom",
      "outputs": [],
      "stateMutability": "nonpayable",
      "type": "function"
    },
    {
      "inputs": [
        {
          "internalType": "bytes32",
          "name": "_eventId",
          "type": "bytes32"
        },
        {
          "internalType": "string",
          "name": "_name",
          "type": "string"
        },
        {
          "internalType": "string",
          "name": "_description",
          "type": "string"
        },
        {
          "internalType": "string",
          "name": "eventStorage",
          "type": "string"
        },
        {
          "internalType": "string",
          "name": "location",
          "type": "string"
        },
        {
          "internalType": "uint256",
          "name": "startTime",
          "type": "uint256"
        },
        {
          "internalType": "uint256",
          "name": "endTime",
          "type": "uint256"
        }
      ],
      "name": "updateEvent",
      "outputs": [],
      "stateMutability": "nonpayable",
      "type": "function"
    },
    {
      "inputs": [
        {
          "internalType": "bytes32",
          "name": "_eventId",
          "type": "bytes32"
        },
        {
          "internalType": "bytes32",
          "name": "_ticketTypeId",
          "type": "bytes32"
        },
        {
          "internalType": "string",
          "name": "_ticketName",
          "type": "string"
        },
        {
          "internalType": "string",
          "name": "_tokenURI",
          "type": "string"
        },
        {
          "internalType": "string",
          "name": "_souvenirTokenURI",
          "type": "string"
        },
        {
          "internalType": "uint256",
          "name": "_price",
          "type": "uint256"
        },
        {
          "internalType": "uint256",
          "name": "_maxSupply",
          "type": "uint256"
        }
      ],
      "name": "updateTicketType",
      "outputs": [],
      "stateMutability": "nonpayable",
      "type": "function"
    },
    {
      "inputs": [
        {
          "internalType": "uint256",
          "name": "_ticketId",
          "type": "uint256"
        }
      ],
      "name": "useTicket",
      "outputs": [],
      "stateMutability": "nonpayable",
      "type": "function"
    },
    {
      "inputs": [
        {
          "internalType": "uint256",
          "name": "amount",
          "type": "uint256"
        }
      ],
      "name": "userWithdraw",
      "outputs": [],
      "stateMutability": "nonpayable",
      "type": "function"
    }
  ],
  "bytecode": "0x60806040526000601055600060115566038d7ea4c680006012553480156200002657600080fd5b50604051620058dc380380620058dc833981016040819052620000499162000293565b604080518082018252600a815269151a58dad95d0813919560b21b60208083019182528351808501909452600384526213919560ea1b9084015281519192916200009691600191620001d0565b508051620000ac906002906020840190620001d0565b5050600980546001600160a01b038085166001600160a01b031992831617909255600a805492861692909116919091179055506200010b7fb19546dff01e856fb3f010c267a7b1c60363cf8a4664e21cc89c26224620214e3362000120565b6200011860003362000120565b505062000308565b6200012c828262000130565b5050565b6000828152602081815260408083206001600160a01b038516845290915290205460ff166200012c576000828152602081815260408083206001600160a01b03851684529091529020805460ff191660011790556200018c3390565b6001600160a01b0316816001600160a01b0316837f2f8788117e7eff1d82e926ec794901d17c78024a50270940304540a733656f0d60405160405180910390a45050565b828054620001de90620002cb565b90600052602060002090601f0160209004810192826200020257600085556200024d565b82601f106200021d57805160ff19168380011785556200024d565b828001600101855582156200024d579182015b828111156200024d57825182559160200191906001019062000230565b506200025b9291506200025f565b5090565b5b808211156200025b576000815560010162000260565b80516001600160a01b03811681146200028e57600080fd5b919050565b60008060408385031215620002a757600080fd5b620002b28362000276565b9150620002c26020840162000276565b90509250929050565b600181811c90821680620002e057607f821691505b602082108114156200030257634e487b7160e01b600052602260045260246000fd5b50919050565b6155c480620003186000396000f3fe6080604052600436106102725760003560e01c806370a082311161014f578063b88d4fde116100c1578063d547741f1161007a578063d547741f14610778578063e58378bb14610798578063e5bdaeb7146107ba578063e985e9c5146107da578063ef1efc4714610823578063f952279e1461084357600080fd5b8063b88d4fde146106bc578063baab45fb146106dc578063c87b56dd146106fc578063ceed06d51461071c578063d0e30db01461073c578063d53913931461074457600080fd5b8063a22cb46511610113578063a22cb465146105fc578063a38c7eb21461061c578063a43329ad1461063c578063a574cea41461065c578063ae1e45541461067c578063b64babc21461069c57600080fd5b806370a08231146105705780637909cb591461059057806391d14854146105b257806395d89b41146105d2578063a217fddf146105e757600080fd5b80632d32165f116101e8578063419cc0ec116101ac578063419cc0ec146104bb57806342842e0e146104db5780634311de8f146104fb57806352c0cb6c1461051057806363113c6a146105305780636352211e1461055057600080fd5b80632d32165f1461041b5780632f2ff15d1461043b57806336568abe1461045b5780633b9056bf1461047b5780634109ba1f1461049b57600080fd5b8063095ea7b31161023a578063095ea7b31461034b5780631cc844bc1461036b5780631ef791d61461038b57806323b872dd146103ab578063248a9ca3146103cb57806326606448146103fb57600080fd5b806301ffc9a71461027757806306fdde03146102ac57806307b17fc9146102ce57806307c88259146102e5578063081812fc14610313575b600080fd5b34801561028357600080fd5b50610297610292366004614870565b610863565b60405190151581526020015b60405180910390f35b3480156102b857600080fd5b506102c1610874565b6040516102a391906148e5565b3480156102da57600080fd5b506102e3610906565b005b3480156102f157600080fd5b50610305610300366004614925565b610b10565b6040519081526020016102a3565b34801561031f57600080fd5b5061033361032e366004614988565b611097565b6040516001600160a01b0390911681526020016102a3565b34801561035757600080fd5b506102e36103663660046149a1565b6110be565b34801561037757600080fd5b506102e3610386366004614988565b6111d4565b34801561039757600080fd5b506102e36103a63660046149cb565b611398565b3480156103b757600080fd5b506102e36103c63660046149ed565b611614565b3480156103d757600080fd5b506103056103e6366004614988565b60009081526020819052604090206001015490565b34801561040757600080fd5b506102e3610416366004614988565b611645565b34801561042757600080fd5b506102e36104363660046149cb565b611882565b34801561044757600080fd5b506102e3610456366004614a29565b611bfd565b34801561046757600080fd5b506102e3610476366004614a29565b611c22565b34801561048757600080fd5b506102e3610496366004614988565b611ca0565b3480156104a757600080fd5b506102e36104b6366004614b01565b611ed0565b3480156104c757600080fd5b506102e36104d6366004614bcb565b612082565b3480156104e757600080fd5b506102e36104f63660046149ed565b6120f7565b34801561050757600080fd5b506102e3612112565b34801561051c57600080fd5b506102e361052b366004614c12565b61221a565b34801561053c57600080fd5b506102e361054b366004614c12565b612255565b34801561055c57600080fd5b5061033361056b366004614988565b612290565b34801561057c57600080fd5b5061030561058b366004614c12565b6122f0565b34801561059c57600080fd5b5061030560008051602061556f83398151915281565b3480156105be57600080fd5b506102976105cd366004614a29565b612376565b3480156105de57600080fd5b506102c161239f565b3480156105f357600080fd5b50610305600081565b34801561060857600080fd5b506102e3610617366004614c3b565b6123ae565b34801561062857600080fd5b50610305610637366004614988565b6123b9565b34801561064857600080fd5b506102e3610657366004614c72565b612728565b34801561066857600080fd5b506102c1610677366004614988565b612982565b34801561068857600080fd5b506102e3610697366004614bcb565b61298d565b3480156106a857600080fd5b506102e36106b7366004614cd8565b612e00565b3480156106c857600080fd5b506102e36106d7366004614d13565b61305f565b3480156106e857600080fd5b506102e36106f7366004614d8f565b613097565b34801561070857600080fd5b506102c1610717366004614988565b613286565b34801561072857600080fd5b506102e3610737366004614d8f565b613397565b6102e3613618565b34801561075057600080fd5b506103057f9f2df0fed2c77648de5860a4cc508cd0818c85b8b8a1ab4ceeef8d981c8956a681565b34801561078457600080fd5b506102e3610793366004614a29565b6136c9565b3480156107a457600080fd5b5061030560008051602061554f83398151915281565b3480156107c657600080fd5b506102e36107d5366004614988565b6136ee565b3480156107e657600080fd5b506102976107f5366004614dd0565b6001600160a01b03918216600090815260066020908152604080832093909416825291909152205460ff1690565b34801561082f57600080fd5b506102e361083e366004614b01565b61370c565b34801561084f57600080fd5b506102e361085e366004614988565b6138bf565b600061086e82613aae565b92915050565b60606001805461088390614dfa565b80601f01602080910402602001604051908101604052809291908181526020018280546108af90614dfa565b80156108fc5780601f106108d1576101008083540402835291602001916108fc565b820191906000526020600020905b8154815290600101906020018083116108df57829003601f168201915b5050505050905090565b61091e60008051602061556f83398151915233612376565b156109705760405162461bcd60e51b815260206004820152601e60248201527f43616c6c657220697320616c726561647920616e206f7267616e697a6572000060448201526064015b60405180910390fd5b601254600a546040516370a0823160e01b81523360048201526001600160a01b03909116906370a082319060240160206040518083038186803b1580156109b657600080fd5b505afa1580156109ca573d6000803e3d6000fd5b505050506040513d601f19601f820116820180604052508101906109ee9190614e35565b1015610a4a5760405162461bcd60e51b815260206004820152602560248201527f4e6f7420656e6f75676820746f6b656e7320746f206265636f6d65206f7267616044820152643734bd32b960d91b6064820152608401610967565b600a54601254604051632770a7eb60e21b815233600482015260248101919091526001600160a01b0390911690639dc29fac90604401600060405180830381600087803b158015610a9a57600080fd5b505af1158015610aae573d6000803e3d6000fd5b50505050610aca60008051602061556f83398151915233613aee565b60125460116000828254610ade9190614e64565b909155505060405133907f05f859dfb18830d36af71675c4fa21aae688563692ab047927d4209bc3270c5f90600090a2565b6000878152600c60205260408120548890610b3d5760405162461bcd60e51b815260040161096790614e7c565b6000898152600c602090815260408083208b8452600a0190915290205489908990610b7a5760405162461bcd60e51b815260040161096790614eaa565b60008b8152600c602090815260408083208d8452600a81019092529091206004810154610be95760405162461bcd60e51b815260206004820152601f60248201527f5469636b6574732066726f6d2074686973207479706520736f6c64206f7574006044820152606401610967565b8915610c7357600a60009054906101000a90046001600160a01b03166001600160a01b031663d505accf333084600201548e8e8e8e6040518863ffffffff1660e01b8152600401610c409796959493929190614ee1565b600060405180830381600087803b158015610c5a57600080fd5b505af1158015610c6e573d6000803e3d6000fd5b505050505b6002810154600a54604051636eb1769f60e11b81523360048201523060248201526001600160a01b039091169063dd62ed3e9060440160206040518083038186803b158015610cc157600080fd5b505afa158015610cd5573d6000803e3d6000fd5b505050506040513d601f19601f82011682018060405250810190610cf99190614e35565b1015610d175760405162461bcd60e51b815260040161096790614f22565b600a54600183015460028301546040516323b872dd60e01b81523360048201526001600160a01b039283166024820152604481019190915260009291909116906323b872dd90606401602060405180830381600087803b158015610d7a57600080fd5b505af1158015610d8e573d6000803e3d6000fd5b505050506040513d601f19601f82011682018060405250810190610db29190614f59565b905080610dd15760405162461bcd60e51b815260040161096790614f76565b600482018054906000610de383614f9f565b91905055506000610e808d846005018054610dfd90614dfa565b80601f0160208091040260200160405190810160405280929190818152602001828054610e2990614dfa565b8015610e765780601f10610e4b57610100808354040283529160200191610e76565b820191906000526020600020905b815481529060010190602001808311610e5957829003601f168201915b5050505050613af8565b6040805161010081018252600080825260208201819052918101829052606081018290526080810182905260a0810182905260c0810182905260e0810191909152909150818160000181815250508f8160200181815250508e8160400181815250508d81608001906001600160a01b031690816001600160a01b03168152505060018160c001901515908115158152505060008160a001901515908115158152505060008160e001901515908115158152505080600e60008481526020019081526020016000206000820151816000015560208201518160010155604082015181600201556060820151816003015560808201518160040160006101000a8154816001600160a01b0302191690836001600160a01b0316021790555060a08201518160040160146101000a81548160ff02191690831515021790555060c08201518160040160156101000a81548160ff02191690831515021790555060e08201518160040160166101000a81548160ff021916908315150217905550905050600d8290806001815401808255809150506001900390600052602060002001600090919091909150558d6001600160a01b0316336001600160a01b03167fc7ec5a63397c2e4326b9522abeedaab52d40b2ae3118d9f95f5ab2ee4abf03a483602001518460400151868960050160405161107c9493929190615056565b60405180910390a3509e9d5050505050505050505050505050565b60006110a282613b30565b506000908152600560205260409020546001600160a01b031690565b60006110c982612290565b9050806001600160a01b0316836001600160a01b031614156111375760405162461bcd60e51b815260206004820152602160248201527f4552433732313a20617070726f76616c20746f2063757272656e74206f776e656044820152603960f91b6064820152608401610967565b336001600160a01b0382161480611153575061115381336107f5565b6111c55760405162461bcd60e51b815260206004820152603e60248201527f4552433732313a20617070726f76652063616c6c6572206973206e6f7420746f60448201527f6b656e206f776e6572206e6f7220617070726f76656420666f7220616c6c00006064820152608401610967565b6111cf8383613b92565b505050565b6000818152600c602052604090205481906112015760405162461bcd60e51b815260040161096790614e7c565b60008051602061556f83398151915261121981613c00565b6000838152600c60205260409020600101546001600160a01b031633146112825760405162461bcd60e51b815260206004820152601f60248201527f4f6e6c79206f7267616e697a65722063616e2072656d6f7665206576656e74006044820152606401610967565b6000838152600c6020526040902060080154156112e15760405162461bcd60e51b815260206004820152601c60248201527f4576656e74207374696c6c20686173207469636b6574207479706573000000006044820152606401610967565b6000838152600c602052604081208181556001810180546001600160a01b031916905590611312600283018261470d565b60038201600090556004820160009055600582016000611332919061470d565b61134060068301600061470d565b61134e60078301600061470d565b61135c600883016000614747565b505060405183815233907f6e3bc81a96d2f5065ad94a6a93273d83748be7ace6c49f293c543738f62a5b6a9060200160405180910390a2505050565b6000828152600c602052604090205482906113c55760405162461bcd60e51b815260040161096790614e7c565b6000838152600c60209081526040808320858452600a01909152902054839083906114025760405162461bcd60e51b815260040161096790614eaa565b60008051602061556f83398151915261141a81613c00565b6000868152600c6020526040902060018101546001600160a01b031633146114925760405162461bcd60e51b815260206004820152602560248201527f4f6e6c79206f7267616e697a65722063616e2072656d6f7665207469636b6574604482015264207479706560d81b6064820152608401610967565b6000868152600a820160205260408120818155906114b3600183018261470d565b6002820160009055600382016000905560048201600090556005820160006114db919061470d565b6114e960068301600061470d565b50506000868152600982016020526040812054600883015460ff909116919061151490600190615085565b90506000836008018260ff1681548110611530576115306150a8565b6000918252602080832090910154808352600987019091526040808320805460ff881660ff1991821681179092558d85529190932080549091169055600886018054919350839290918110611587576115876150a8565b600091825260209091200155600884018054806115a6576115a66150be565b60019003818190600052602060002001600090559055336001600160a01b03167fd7e867a3c1b30b85f1c4060ae5f328a610ab1b13aabd5415372dd1c8637154ab8b8b604051611600929190918252602082015260400190565b60405180910390a250505050505050505050565b61161e3382613c0a565b61163a5760405162461bcd60e51b8152600401610967906150d4565b6111cf838383613c88565b60008051602061556f83398151915261165d81613c00565b6000828152600e6020526040902060040154600160b01b900460ff16156116bf5760405162461bcd60e51b8152602060048201526016602482015275151a58dad95d081a5cc8185b1c9958591e481d5cd95960521b6044820152606401610967565b6000828152600e602090815260408083206001908101548452600c90925290912001546001600160a01b0316331461172d5760405162461bcd60e51b81526020600482015260116024820152702737ba103a34329037b933b0b734bd32b960791b6044820152606401610967565b6000828152600e60209081526040808320600101548352600c909152902060040154156117b6576000828152600e60209081526040808320600101548352600c90915290206004015442106117b65760405162461bcd60e51b815260206004820152600f60248201526e115d995b9d081a185cc8195b991959608a1b6044820152606401610967565b6000828152600e60209081526040808320600101548352600c90915290206003015442101561181f5760405162461bcd60e51b8152602060048201526015602482015274115d995b9d081a185cc81b9bdd081cdd185c9d1959605a1b6044820152606401610967565b6000828152600e602052604090819020600401805461ffff60a81b1916600160b01b1790555133907f31684b65477a7d1fd4edef84ea40d8f3d6c7531a2e48dfdf9c8c55c8ec5496f9906118769085815260200190565b60405180910390a25050565b6000828152600f602052604090205482906118af5760405162461bcd60e51b815260040161096790615122565b6000838152600f6020526040902060068101546001600160a01b031633141561191a5760405162461bcd60e51b815260206004820152601a60248201527f43616e6e6f742062757920796f7572206f776e207469636b65740000000000006044820152606401610967565b600481810154600a546006840154604051636eb1769f60e11b81526001600160a01b0391821694810194909452306024850152919291169063dd62ed3e9060440160206040518083038186803b15801561197357600080fd5b505afa158015611987573d6000803e3d6000fd5b505050506040513d601f19601f820116820180604052508101906119ab9190614e35565b10156119c95760405162461bcd60e51b815260040161096790614f22565b60038101839055600a5460068201546004808401546040516323b872dd60e01b81526001600160a01b0393841692810192909252336024830152604482015260009291909116906323b872dd90606401602060405180830381600087803b158015611a3357600080fd5b505af1158015611a47573d6000803e3d6000fd5b505050506040513d601f19601f82011682018060405250810190611a6b9190614f59565b905080611a8a5760405162461bcd60e51b815260040161096790614f76565b60068201546003830154611aab9133916001600160a01b0390911690613e24565b60068201805460ff60a01b198116600160a01b178255600580850180546001600160a01b0319908116339081179092556003870180546000908152600e60209081526040808320600490810180549096166001600160a01b03998a1617909555835483528083208501805460ff60a81b1916600160a81b179055975460018b015460028c01549454818552600c84528a8520868652600a0190935292899020948b0154985195989716968d967f7290e6fa19a97e2b68363bf3455b9fa2fa8b741ea3cb84b7b3eabcb93fd246ec96611b8a969495949091019190615150565b60405180910390a4505050600091825250600f60205260408120818155600181018290556002810182905560038101829055600481018290556005810180546001600160a01b03191690556006810180546001600160a81b03191690556007810191909155600801805461ffff19169055565b600082815260208190526040902060010154611c1881613c00565b6111cf8383613e9b565b6001600160a01b0381163314611c925760405162461bcd60e51b815260206004820152602f60248201527f416363657373436f6e74726f6c3a2063616e206f6e6c792072656e6f756e636560448201526e103937b632b9903337b91039b2b63360891b6064820152608401610967565b611c9c8282613f1f565b5050565b600a546040516370a0823160e01b81523360048201526000916001600160a01b0316906370a082319060240160206040518083038186803b158015611ce457600080fd5b505afa158015611cf8573d6000803e3d6000fd5b505050506040513d601f19601f82011682018060405250810190611d1c9190614e35565b905080821115611d6e5760405162461bcd60e51b815260206004820152601a60248201527f4e6f7420656e6f75676820746f2062652077697468647261776e0000000000006044820152606401610967565b601054821115611dc05760405162461bcd60e51b815260206004820152601e60248201527f57697468647261772069732063757272656e746c792064697361626c656400006044820152606401610967565b604051600090339084156108fc0290859084818181858888f19350505050905080611e1b5760405162461bcd60e51b815260206004820152600b60248201526a1cd95b990819985a5b195960aa1b6044820152606401610967565b600a54604051632770a7eb60e21b8152336004820152602481018590526001600160a01b0390911690639dc29fac90604401600060405180830381600087803b158015611e6757600080fd5b505af1158015611e7b573d6000803e3d6000fd5b50506040518581523392507f884edad9ce6fa2440d8a54cc123490eb96d2768479d49ff9c7366125a9424364915060200160405180910390a28260106000828254611ec69190615187565b9091555050505050565b6000878152600c60205260409020548790611efd5760405162461bcd60e51b815260040161096790614e7c565b60008051602061556f833981519152611f1581613c00565b6000898152600c60205260409020600101546001600160a01b03163314611f7e5760405162461bcd60e51b815260206004820152601d60248201527f4f6e6c79206f7267616e697a65722063616e2065646974206576656e740000006044820152606401610967565b6000898152600c602090815260409091208951611fa3926002909201918b0190614765565b506000898152600c602090815260409091208851611fc9926005909201918a0190614765565b506000898152600c602090815260409091208751611fef92600790920191890190614765565b506000898152600c60209081526040909120865161201592600690920191880190614765565b506000898152600c602052604090819020600381018690556004018490555133907fc6c3b5ce58b3196884cdaee9a17eb22ca93be1fe7ed9dc66fcb99d4c5148d13b9061206f908c908c908c908c908c908c908c9061519e565b60405180910390a2505050505050505050565b600a5460405163d505accf60e01b81526001600160a01b039091169063d505accf906120be90339030908a908a908a908a908a90600401614ee1565b600060405180830381600087803b1580156120d857600080fd5b505af11580156120ec573d6000803e3d6000fd5b505050505050505050565b6111cf8383836040518060200160405280600081525061305f565b60008051602061554f83398151915261212a81613c00565b60006011541161217c5760405162461bcd60e51b815260206004820152601a60248201527f4e6f7420656e6f75676820746f2062652077697468647261776e0000000000006044820152606401610967565b601154604051600091339181156108fc02919084818181858888f193505050509050806121d95760405162461bcd60e51b815260206004820152600b60248201526a1cd95b990819985a5b195960aa1b6044820152606401610967565b60115460405190815233907f884edad9ce6fa2440d8a54cc123490eb96d2768479d49ff9c7366125a94243649060200160405180910390a250506000601155565b60008051602061554f83398151915261223281613c00565b50600980546001600160a01b0319166001600160a01b0392909216919091179055565b60008051602061554f83398151915261226d81613c00565b50600a80546001600160a01b0319166001600160a01b0392909216919091179055565b6000818152600360205260408120546001600160a01b03168061086e5760405162461bcd60e51b8152602060048201526018602482015277115490cdcc8c4e881a5b9d985b1a59081d1bdad95b88125160421b6044820152606401610967565b60006001600160a01b03821661235a5760405162461bcd60e51b815260206004820152602960248201527f4552433732313a2061646472657373207a65726f206973206e6f7420612076616044820152683634b21037bbb732b960b91b6064820152608401610967565b506001600160a01b031660009081526004602052604090205490565b6000918252602082815260408084206001600160a01b0393909316845291905290205460ff1690565b60606002805461088390614dfa565b611c9c338383613f84565b60008181526003602052604081205482906001600160a01b03166124175760405162461bcd60e51b8152602060048201526015602482015274151a58dad95d08191bd95cc81b9bdd08195e1a5cdd605a1b6044820152606401610967565b823361242282612290565b6001600160a01b0316146124485760405162461bcd60e51b815260040161096790615208565b6000848152600e602090815260409182902082516101008101845281548152600182015492810192909252600281015492820192909252600382015460608201526004909101546001600160a01b038116608083015260ff600160a01b8204811615801560a0850152600160a81b83048216151560c0850152600160b01b90920416151560e083015261251d5760405162461bcd60e51b815260206004820152601760248201527f536f7576656e697220616c7265616479206d696e7465640000000000000000006044820152606401610967565b8060e0015161256e5760405162461bcd60e51b815260206004820152601d60248201527f5469636b6574207374696c6c206861736e2774206265656e20757365640000006044820152606401610967565b6009546020808301516000908152600c82526040808220818601518352600a019092528181209151630d385de160e01b815290926001600160a01b031691630d385de1916125c6913391600690910190600401615250565b602060405180830381600087803b1580156125e057600080fd5b505af11580156125f4573d6000803e3d6000fd5b505050506040513d601f19601f820116820180604052508101906126189190614e35565b600160a084018181526060850183815260008a8152600e6020908152604080832089518155828a0151968101879055818a01805160028301559451600382015560808a0151600482018054975160c08d015160e08e01511515600160b01b0260ff60b01b19911515600160a81b029190911661ffff60a81b19921515600160a01b026001600160a81b0319909b166001600160a01b039095169490941799909917169190911796909617909555948252600c815284822092518252600a909201909152829020915192935033927fbfb0d88738cabb67e80487f01fe7851fe075d3a6314462e7576e719ef025892a926127179291869160060190615274565b60405180910390a295945050505050565b600a5460405163d505accf60e01b81526001600160a01b039091169063d505accf9061276490339030908a908a908a908a908a90600401614ee1565b600060405180830381600087803b15801561277e57600080fd5b505af1158015612792573d6000803e3d6000fd5b5050505061279e6147e9565b88816000018181525050338160c001906001600160a01b031690816001600160a01b031681525050878160200181815250508681604001818152505085816080018181525050848161010001818152505060018161012001901515908115158152505060008161014001901515908115158152505080600f60008b8152602001908152602001600020600082015181600001556020820151816001015560408201518160020155606082015181600301556080820151816004015560a08201518160050160006101000a8154816001600160a01b0302191690836001600160a01b0316021790555060c08201518160060160006101000a8154816001600160a01b0302191690836001600160a01b0316021790555060e08201518160060160146101000a81548160ff02191690831515021790555061010082015181600701556101208201518160080160006101000a81548160ff0219169083151502179055506101408201518160080160016101000a81548160ff021916908315150217905550905050336001600160a01b03167f8c0532da8a9f0675da764e7b35fbb8c2c8868976193fc36ffad259ddb5675ca48a8a8a8a8a60405161206f959493929190948552602085019390935260408401919091526060830152608082015260a00190565b606061086e82613286565b6000858152600f602052604090205485906129ba5760405162461bcd60e51b815260040161096790615122565b6000868152600f6020526040902060058101546001600160a01b0316331415612a255760405162461bcd60e51b815260206004820152601a60248201527f43616e6e6f742062757920796f7572206f776e207469636b65740000000000006044820152606401610967565b600a5460048083015460405163d505accf60e01b81526001600160a01b039093169263d505accf92612a6392339230928d918d918d918d9101614ee1565b600060405180830381600087803b158015612a7d57600080fd5b505af1158015612a91573d6000803e3d6000fd5b50505050600481810154600a54604051636eb1769f60e11b8152339381019390935230602484015290916001600160a01b039091169063dd62ed3e9060440160206040518083038186803b158015612ae857600080fd5b505afa158015612afc573d6000803e3d6000fd5b505050506040513d601f19601f82011682018060405250810190612b209190614e35565b1015612b3e5760405162461bcd60e51b815260040161096790614f22565b600a5460058201546004808401546040516323b872dd60e01b815233928101929092526001600160a01b039283166024830152604482015260009291909116906323b872dd90606401602060405180830381600087803b158015612ba157600080fd5b505af1158015612bb5573d6000803e3d6000fd5b505050506040513d601f19601f82011682018060405250810190612bd99190614f59565b905080612bf85760405162461bcd60e51b815260040161096790614f76565b60058201546003830154612c17916001600160a01b0316903390613e24565b60018260060160146101000a81548160ff021916908315150217905550338260060160006101000a8154816001600160a01b0302191690836001600160a01b031602179055506001600e60008460030154815260200190815260200160002060040160156101000a81548160ff0219169083151502179055508160060160009054906101000a90046001600160a01b0316600e60008460030154815260200190815260200160002060040160006101000a8154816001600160a01b0302191690836001600160a01b03160217905550336001600160a01b03168260050160009054906101000a90046001600160a01b03166001600160a01b0316897f74d4a4b83241ac6e92c85cb30050e3a85c7c42122aeef8712fc2f603a3a8c3cb856001015486600201548760030154600c60008a600101548152602001908152602001600020600a0160008a6002015481526020019081526020016000206005018960040154604051612d8a959493929190615150565b60405180910390a450505060009485525050600f602052505060408120818155600181018290556002810182905560038101829055600481018290556005810180546001600160a01b03191690556006810180546001600160a81b03191690556007810191909155600801805461ffff19169055565b8133612e0b82612290565b6001600160a01b031614612e315760405162461bcd60e51b815260040161096790615208565b612e396147e9565b86816000018181525050338160a001906001600160a01b031690816001600160a01b0316815250508581602001818152505084816040018181525050838160600181815250508281608001818152505060008161010001818152505060008161012001901515908115158152505060018161014001901515908115158152505080600f6000898152602001908152602001600020600082015181600001556020820151816001015560408201518160020155606082015181600301556080820151816004015560a08201518160050160006101000a8154816001600160a01b0302191690836001600160a01b0316021790555060c08201518160060160006101000a8154816001600160a01b0302191690836001600160a01b0316021790555060e08201518160060160146101000a81548160ff02191690831515021790555061010082015181600701556101208201518160080160006101000a81548160ff0219169083151502179055506101408201518160080160016101000a81548160ff0219169083151502179055509050506000600e600086815260200190815260200160002060040160156101000a81548160ff021916908315150217905550336001600160a01b0316877f0f27c48668db2e12a5e88bc77cf8b459181c7ee1e6264ddb55242efe89d9d0398888888860405161304e949392919093845260208401929092526040830152606082015260800190565b60405180910390a350505050505050565b6130693383613c0a565b6130855760405162461bcd60e51b8152600401610967906150d4565b6130918484848461404b565b50505050565b6000878152600c602052604090205487906130c45760405162461bcd60e51b815260040161096790614e7c565b6000888152600c602090815260408083208a8452600a01909152902054889088906131015760405162461bcd60e51b815260040161096790614eaa565b60008a8152600c60205260409020600101546001600160a01b031633146131765760405162461bcd60e51b815260206004820152602360248201527f4f6e6c79206f7267616e697a65722063616e2065646974207469636b6574207460448201526279706560e81b6064820152608401610967565b6040805160e0810182528a815260208082018b8152828401899052606083018890526080830188905260a083018b905260c083018a905260008e8152600c83528481208e8252600a0183529390932082518155925180519293849390926131e4926001850192910190614765565b5060408201516002820155606082015160038201556080820151600482015560a0820151805161321e916005840191602090910190614765565b5060c0820151805161323a916006840191602090910190614765565b50506040513391507ffc051c354a57b794e7a2a34dc7a0ab81839aab32ad19ecc48bc4f2a549d7e46990613271908e908590615308565b60405180910390a25050505050505050505050565b606061329182613b30565b600082815260076020526040812080546132aa90614dfa565b80601f01602080910402602001604051908101604052809291908181526020018280546132d690614dfa565b80156133235780601f106132f857610100808354040283529160200191613323565b820191906000526020600020905b81548152906001019060200180831161330657829003601f168201915b50505050509050600061334160408051602081019091526000815290565b9050805160001415613354575092915050565b81511561338657808260405160200161336e929190615390565b60405160208183030381529060405292505050919050565b61338f8461407e565b949350505050565b6000878152600c602052604090205487906133c45760405162461bcd60e51b815260040161096790614e7c565b60008051602061556f8339815191526133dc81613c00565b6000898152600c60205260409020600101546001600160a01b0316331461346b5760405162461bcd60e51b815260206004820152603760248201527f4f6e6c7920746865206f7267616e697a6572206f662074686973206576656e7460448201527f2063616e20637265617465207469636b657420747970650000000000000000006064820152608401610967565b6000898152600c602090815260408083208b8452600a01909152902054156134d55760405162461bcd60e51b815260206004820152601a60248201527f5469636b6574207479706520616c7265616479206578697374730000000000006044820152606401610967565b6040805160e08101825289815260208082018a8152828401889052606083018790526080830187905260a083018a905260c0830189905260008d8152600c83528481208d8252600a018352939093208251815592518051929384939092613543926001850192910190614765565b5060408201516002820155606082015160038201556080820151600482015560a0820151805161357d916005840191602090910190614765565b5060c08201518051613599916006840191602090910190614765565b50505060008a8152600c602081815260408084206008810180548f875260099092018452828620805460ff191660ff9093169290921790915592825282546001810184559284529220018a90555133907f86f1c49c5e96f57ffd1bbdcf5973aa010e8c5bb16218eaace76fa50c7e66b5b790611600908d908590615308565b600a546040516340c10f1960e01b81523360048201523460248201526001600160a01b03909116906340c10f1990604401600060405180830381600087803b15801561366357600080fd5b505af1158015613677573d6000803e3d6000fd5b50505050346010600082825461368d9190614e64565b909155505060405134815233907fe1fffcc4923d04b559f4d29a8bfc6cda04eb5b0d3c460751c2402c5c5cc9109c9060200160405180910390a2565b6000828152602081905260409020600101546136e481613c00565b6111cf8383613f1f565b60008051602061554f83398151915261370681613c00565b50601255565b60008051602061556f83398151915261372481613c00565b6000888152600c6020526040902054156137775760405162461bcd60e51b81526020600482015260146024820152734576656e7420616c72656164792065786973747360601b6044820152606401610967565b600b805460018181019092557f0175b7a638427703f0dbe7bb9bbf987a2551717b34e79f33b5b1008d1fa01db9018990556000898152600c602090815260409091208a815591820180546001600160a01b0319163317905588516137e192600201918a0190614765565b506000888152600c60209081526040909120875161380792600590920191890190614765565b506000888152600c60209081526040909120865161382d92600790920191880190614765565b506000888152600c60209081526040909120855161385392600690920191870190614765565b506000888152600c602052604090819020600381018590556004018390555133907fba44e3dea1f095c62db0d9f6facba383bf1c67dd759f22d118d3c81b5fbb36dd906138ad908b908b908b908b908b908b908b9061519e565b60405180910390a25050505050505050565b6000818152600f602052604090205481906138ec5760405162461bcd60e51b815260040161096790615122565b6000828152600f6020526040902060068101546001600160a01b03163314801561391f5750600881015460ff1615156001145b80613950575060058101546001600160a01b0316331480156139505750600881015460ff6101009091041615156001145b61399c5760405162461bcd60e51b815260206004820152601760248201527f4e6f7420746865206275796572206f722073656c6c65720000000000000000006044820152606401610967565b6006810154600160a01b900460ff16156139f15760405162461bcd60e51b815260206004820152601660248201527513d999995c88185b1c9958591e481858d8d95c1d195960521b6044820152606401610967565b6000838152600f602081815260408084206003810180548652600e84528286206004908101805460ff60a81b1916600160a81b179055898752949093528481556001810185905560028101859055918490559181018390556005810180546001600160a01b03191690556006810180546001600160a81b031916905560078101839055600801805461ffff1916905551339185917f74aeca155f6310e463cf88472fe14b61a7990f14c88a8f0a03b10306a88da8429190a3505050565b60006001600160e01b031982166380ac58cd60e01b1480613adf57506001600160e01b03198216635b5e139f60e01b145b8061086e575061086e826140f1565b611c9c8282613e9b565b6000613b08600880546001019055565b6000613b1360085490565b9050613b1f8482614126565b613b298184614268565b9392505050565b6000818152600360205260409020546001600160a01b0316613b8f5760405162461bcd60e51b8152602060048201526018602482015277115490cdcc8c4e881a5b9d985b1a59081d1bdad95b88125160421b6044820152606401610967565b50565b600081815260056020526040902080546001600160a01b0319166001600160a01b0384169081179091558190613bc782612290565b6001600160a01b03167f8c5be1e5ebec7d5bd14f71427d1e84f3dd0314c0f7b2291e5b200ac8c7c3b92560405160405180910390a45050565b613b8f8133614302565b600080613c1683612290565b9050806001600160a01b0316846001600160a01b03161480613c5d57506001600160a01b0380821660009081526006602090815260408083209388168352929052205460ff165b8061338f5750836001600160a01b0316613c7684611097565b6001600160a01b031614949350505050565b826001600160a01b0316613c9b82612290565b6001600160a01b031614613cff5760405162461bcd60e51b815260206004820152602560248201527f4552433732313a207472616e736665722066726f6d20696e636f72726563742060448201526437bbb732b960d91b6064820152608401610967565b6001600160a01b038216613d615760405162461bcd60e51b8152602060048201526024808201527f4552433732313a207472616e7366657220746f20746865207a65726f206164646044820152637265737360e01b6064820152608401610967565b613d6c600082613b92565b6001600160a01b0383166000908152600460205260408120805460019290613d95908490615187565b90915550506001600160a01b0382166000908152600460205260408120805460019290613dc3908490614e64565b909155505060008181526003602052604080822080546001600160a01b0319166001600160a01b0386811691821790925591518493918716917fddf252ad1be2c89b69c2b068fc378daa952ba7f163c4a11628f55a4df523b3ef91a4505050565b613e2f838383613c88565b6000818152600e602090815260409182902060040180546001600160a01b0319166001600160a01b038681169182179092559251848152908616917f235a69dc2480d40b13f4bee2b08a32b678f03ca558ff46eba22ce16ace78b6ad91015b60405180910390a3505050565b613ea58282612376565b611c9c576000828152602081815260408083206001600160a01b03851684529091529020805460ff19166001179055613edb3390565b6001600160a01b0316816001600160a01b0316837f2f8788117e7eff1d82e926ec794901d17c78024a50270940304540a733656f0d60405160405180910390a45050565b613f298282612376565b15611c9c576000828152602081815260408083206001600160a01b0385168085529252808320805460ff1916905551339285917ff6391f5c32d9c69d2a47ea670b442974b53935d1edc7fd64eb21e047a839171b9190a45050565b816001600160a01b0316836001600160a01b03161415613fe65760405162461bcd60e51b815260206004820152601960248201527f4552433732313a20617070726f766520746f2063616c6c6572000000000000006044820152606401610967565b6001600160a01b03838116600081815260066020908152604080832094871680845294825291829020805460ff191686151590811790915591519182527f17307eab39ab6107e8899845ad3d59bd9653f200f220920489ca2b5937696c319101613e8e565b614056848484613c88565b61406284848484614366565b6130915760405162461bcd60e51b8152600401610967906153bf565b606061408982613b30565b60006140a060408051602081019091526000815290565b905060008151116140c05760405180602001604052806000815250613b29565b806140ca84614473565b6040516020016140db929190615390565b6040516020818303038152906040529392505050565b60006001600160e01b03198216637965db0b60e01b148061086e57506301ffc9a760e01b6001600160e01b031983161461086e565b6001600160a01b03821661417c5760405162461bcd60e51b815260206004820181905260248201527f4552433732313a206d696e7420746f20746865207a65726f20616464726573736044820152606401610967565b6000818152600360205260409020546001600160a01b0316156141e15760405162461bcd60e51b815260206004820152601c60248201527f4552433732313a20746f6b656e20616c7265616479206d696e746564000000006044820152606401610967565b6001600160a01b038216600090815260046020526040812080546001929061420a908490614e64565b909155505060008181526003602052604080822080546001600160a01b0319166001600160a01b03861690811790915590518392907fddf252ad1be2c89b69c2b068fc378daa952ba7f163c4a11628f55a4df523b3ef908290a45050565b6000828152600360205260409020546001600160a01b03166142e35760405162461bcd60e51b815260206004820152602e60248201527f45524337323155524953746f726167653a2055524920736574206f66206e6f6e60448201526d32bc34b9ba32b73a103a37b5b2b760911b6064820152608401610967565b600082815260076020908152604090912082516111cf92840190614765565b61430c8282612376565b611c9c57614324816001600160a01b03166014614571565b61432f836020614571565b604051602001614340929190615411565b60408051601f198184030181529082905262461bcd60e51b8252610967916004016148e5565b60006001600160a01b0384163b1561446857604051630a85bd0160e11b81526001600160a01b0385169063150b7a02906143aa903390899088908890600401615486565b602060405180830381600087803b1580156143c457600080fd5b505af19250505080156143f4575060408051601f3d908101601f191682019092526143f1918101906154b9565b60015b61444e573d808015614422576040519150601f19603f3d011682016040523d82523d6000602084013e614427565b606091505b5080516144465760405162461bcd60e51b8152600401610967906153bf565b805181602001fd5b6001600160e01b031916630a85bd0160e11b14905061338f565b506001949350505050565b6060816144975750506040805180820190915260018152600360fc1b602082015290565b8160005b81156144c157806144ab816154d6565b91506144ba9050600a83615507565b915061449b565b60008167ffffffffffffffff8111156144dc576144dc614a55565b6040519080825280601f01601f191660200182016040528015614506576020820181803683370190505b5090505b841561338f5761451b600183615187565b9150614528600a8661551b565b614533906030614e64565b60f81b818381518110614548576145486150a8565b60200101906001600160f81b031916908160001a90535061456a600a86615507565b945061450a565b6060600061458083600261552f565b61458b906002614e64565b67ffffffffffffffff8111156145a3576145a3614a55565b6040519080825280601f01601f1916602001820160405280156145cd576020820181803683370190505b509050600360fc1b816000815181106145e8576145e86150a8565b60200101906001600160f81b031916908160001a905350600f60fb1b81600181518110614617576146176150a8565b60200101906001600160f81b031916908160001a905350600061463b84600261552f565b614646906001614e64565b90505b60018111156146be576f181899199a1a9b1b9c1cb0b131b232b360811b85600f166010811061467a5761467a6150a8565b1a60f81b828281518110614690576146906150a8565b60200101906001600160f81b031916908160001a90535060049490941c936146b781614f9f565b9050614649565b508315613b295760405162461bcd60e51b815260206004820181905260248201527f537472696e67733a20686578206c656e67746820696e73756666696369656e746044820152606401610967565b50805461471990614dfa565b6000825580601f10614729575050565b601f016020900490600052602060002090810190613b8f9190614845565b5080546000825590600052602060002090810190613b8f9190614845565b82805461477190614dfa565b90600052602060002090601f01602090048101928261479357600085556147d9565b82601f106147ac57805160ff19168380011785556147d9565b828001600101855582156147d9579182015b828111156147d95782518255916020019190600101906147be565b506147e5929150614845565b5090565b6040805161016081018252600080825260208201819052918101829052606081018290526080810182905260a0810182905260c0810182905260e081018290526101008101829052610120810182905261014081019190915290565b5b808211156147e55760008155600101614846565b6001600160e01b031981168114613b8f57600080fd5b60006020828403121561488257600080fd5b8135613b298161485a565b60005b838110156148a8578181015183820152602001614890565b838111156130915750506000910152565b600081518084526148d181602086016020860161488d565b601f01601f19169290920160200192915050565b602081526000613b2960208301846148b9565b80356001600160a01b038116811461490f57600080fd5b919050565b803560ff8116811461490f57600080fd5b600080600080600080600060e0888a03121561494057600080fd5b8735965060208801359550614957604089016148f8565b94506060880135935061496c60808901614914565b925060a0880135915060c0880135905092959891949750929550565b60006020828403121561499a57600080fd5b5035919050565b600080604083850312156149b457600080fd5b6149bd836148f8565b946020939093013593505050565b600080604083850312156149de57600080fd5b50508035926020909101359150565b600080600060608486031215614a0257600080fd5b614a0b846148f8565b9250614a19602085016148f8565b9150604084013590509250925092565b60008060408385031215614a3c57600080fd5b82359150614a4c602084016148f8565b90509250929050565b634e487b7160e01b600052604160045260246000fd5b600067ffffffffffffffff80841115614a8657614a86614a55565b604051601f8501601f19908116603f01168101908282118183101715614aae57614aae614a55565b81604052809350858152868686011115614ac757600080fd5b858560208301376000602087830101525050509392505050565b600082601f830112614af257600080fd5b613b2983833560208501614a6b565b600080600080600080600060e0888a031215614b1c57600080fd5b87359650602088013567ffffffffffffffff80821115614b3b57600080fd5b614b478b838c01614ae1565b975060408a0135915080821115614b5d57600080fd5b614b698b838c01614ae1565b965060608a0135915080821115614b7f57600080fd5b614b8b8b838c01614ae1565b955060808a0135915080821115614ba157600080fd5b50614bae8a828b01614ae1565b93505060a0880135915060c0880135905092959891949750929550565b600080600080600060a08688031215614be357600080fd5b8535945060208601359350614bfa60408701614914565b94979396509394606081013594506080013592915050565b600060208284031215614c2457600080fd5b613b29826148f8565b8015158114613b8f57600080fd5b60008060408385031215614c4e57600080fd5b614c57836148f8565b91506020830135614c6781614c2d565b809150509250929050565b600080600080600080600080610100898b031215614c8f57600080fd5b8835975060208901359650604089013595506060890135945060808901359350614cbb60a08a01614914565b925060c0890135915060e089013590509295985092959890939650565b600080600080600060a08688031215614cf057600080fd5b505083359560208501359550604085013594606081013594506080013592509050565b60008060008060808587031215614d2957600080fd5b614d32856148f8565b9350614d40602086016148f8565b925060408501359150606085013567ffffffffffffffff811115614d6357600080fd5b8501601f81018713614d7457600080fd5b614d8387823560208401614a6b565b91505092959194509250565b600080600080600080600060e0888a031215614daa57600080fd5b8735965060208801359550604088013567ffffffffffffffff80821115614b5d57600080fd5b60008060408385031215614de357600080fd5b614dec836148f8565b9150614a4c602084016148f8565b600181811c90821680614e0e57607f821691505b60208210811415614e2f57634e487b7160e01b600052602260045260246000fd5b50919050565b600060208284031215614e4757600080fd5b5051919050565b634e487b7160e01b600052601160045260246000fd5b60008219821115614e7757614e77614e4e565b500190565b602080825260149082015273115d995b9d08191bd95cc81b9bdd08195e1a5cdd60621b604082015260600190565b6020808252601a908201527f5469636b6574207479706520646f6573206e6f74206578697374000000000000604082015260600190565b6001600160a01b0397881681529590961660208601526040850193909352606084019190915260ff16608083015260a082015260c081019190915260e00190565b60208082526017908201527f546f6b656e20616c6c6f77616e636520746f6f206c6f77000000000000000000604082015260600190565b600060208284031215614f6b57600080fd5b8151613b2981614c2d565b6020808252600f908201526e1d1c985b9cd9995c8819985a5b1959608a1b604082015260600190565b600081614fae57614fae614e4e565b506000190190565b8054600090600181811c9080831680614fd057607f831692505b6020808410821415614ff257634e487b7160e01b600052602260045260246000fd5b8388526020880182801561500d576001811461501e57615049565b60ff19871682528282019750615049565b60008981526020902060005b878110156150435781548482015290860190840161502a565b83019850505b5050505050505092915050565b84815283602082015282604082015260806060820152600061507b6080830184614fb6565b9695505050505050565b600060ff821660ff84168082101561509f5761509f614e4e565b90039392505050565b634e487b7160e01b600052603260045260246000fd5b634e487b7160e01b600052603160045260246000fd5b6020808252602e908201527f4552433732313a2063616c6c6572206973206e6f7420746f6b656e206f776e6560408201526d1c881b9bdc88185c1c1c9bdd995960921b606082015260800190565b60208082526014908201527313d999995c88191bd95cc81b9bdd08195e1a5cdd60621b604082015260600190565b85815284602082015283604082015260a06060820152600061517560a0830185614fb6565b90508260808301529695505050505050565b60008282101561519957615199614e4e565b500390565b87815260e0602082015260006151b760e08301896148b9565b82810360408401526151c981896148b9565b905082810360608401526151dd81886148b9565b905082810360808401526151f181876148b9565b60a0840195909552505060c0015295945050505050565b60208082526028908201527f4f6e6c79207469636b6574206f776e65722063616e2063616c6c207468697320604082015267333ab731ba34b7b760c11b606082015260800190565b6001600160a01b038316815260406020820181905260009061338f90830184614fb6565b8354815260018401546020820152600284015460408201526003840154606082015260048401546001600160a01b0381166080830152600090610140906152c560a0850160ff8360a01c1615159052565b6152d960c0850160ff8360a81c1615159052565b6152ed60e0850160ff8360b01c1615159052565b50846101008401528061012084015261507b81840185614fb6565b82815260406020820152815160408201526000602083015160e060608401526153356101208401826148b9565b905060408401516080840152606084015160a0840152608084015160c084015260a0840151603f19808584030160e086015261537183836148b9565b925060c0860151915080858403016101008601525061507b82826148b9565b600083516153a281846020880161488d565b8351908301906153b681836020880161488d565b01949350505050565b60208082526032908201527f4552433732313a207472616e7366657220746f206e6f6e20455243373231526560408201527131b2b4bb32b91034b6b83632b6b2b73a32b960711b606082015260800190565b7f416363657373436f6e74726f6c3a206163636f756e742000000000000000000081526000835161544981601785016020880161488d565b7001034b99036b4b9b9b4b733903937b6329607d1b601791840191820152835161547a81602884016020880161488d565b01602801949350505050565b6001600160a01b038581168252841660208201526040810183905260806060820181905260009061507b908301846148b9565b6000602082840312156154cb57600080fd5b8151613b298161485a565b60006000198214156154ea576154ea614e4e565b5060010190565b634e487b7160e01b600052601260045260246000fd5b600082615516576155166154f1565b500490565b60008261552a5761552a6154f1565b500690565b600081600019048311821515161561554957615549614e4e565b50029056feb19546dff01e856fb3f010c267a7b1c60363cf8a4664e21cc89c26224620214e4d2e7a1e3f5dd6e203f087b15756ccf0e4ccd947fe1b639a38540089a1e47f63a26469706673582212200e440aaa7d8c93588ca2c2b214a49bf9356b8eeaf82f41493e14618f8c1026f164736f6c63430008090033",
  "linkReferences": {},
  "deployedLinkReferences": {}
}