{
  "_format": "hh-sol-artifact-1",
  "contractName": "TicketGenerator",
  "sourceName": "contracts/TicketGenerator.sol",
  "abi": [
    {
      "inputs": [
        {
          "internalType": "address",
          "name": "_tokenAddress",
          "type": "address"
        },
        {
          "internalType": "address",
          "name": "_souvenirGeneratorAddress",
          "type": "address"
        }
      ],
      "stateMutability": "nonpayable",
      "type": "constructor"
    },
    {
      "anonymous": false,
      "inputs": [
        {
          "indexed": true,
          "internalType": "bytes32",
          "name": "offerId",
          "type": "bytes32"
        },
        {
          "indexed": true,
          "internalType": "address",
          "name": "buyer",
          "type": "address"
        },
        {
          "indexed": true,
          "internalType": "address",
          "name": "seller",
          "type": "address"
        },
        {
          "indexed": false,
          "internalType": "bytes32",
          "name": "eventId",
          "type": "bytes32"
        },
        {
          "indexed": false,
          "internalType": "bytes32",
          "name": "ticketTypeId",
          "type": "bytes32"
        },
        {
          "indexed": false,
          "internalType": "uint256",
          "name": "ticketId",
          "type": "uint256"
        },
        {
          "indexed": false,
          "internalType": "string",
          "name": "tokenURI",
          "type": "string"
        },
        {
          "indexed": false,
          "internalType": "uint256",
          "name": "price",
          "type": "uint256"
        }
      ],
      "name": "AcceptBuyOffer",
      "type": "event"
    },
    {
      "anonymous": false,
      "inputs": [
        {
          "indexed": true,
          "internalType": "bytes32",
          "name": "offerId",
          "type": "bytes32"
        },
        {
          "indexed": true,
          "internalType": "address",
          "name": "buyer",
          "type": "address"
        },
        {
          "indexed": true,
          "internalType": "address",
          "name": "seller",
          "type": "address"
        },
        {
          "indexed": false,
          "internalType": "bytes32",
          "name": "eventId",
          "type": "bytes32"
        },
        {
          "indexed": false,
          "internalType": "bytes32",
          "name": "ticketTypeId",
          "type": "bytes32"
        },
        {
          "indexed": false,
          "internalType": "uint256",
          "name": "ticketId",
          "type": "uint256"
        },
        {
          "indexed": false,
          "internalType": "string",
          "name": "tokenURI",
          "type": "string"
        },
        {
          "indexed": false,
          "internalType": "uint256",
          "name": "price",
          "type": "uint256"
        }
      ],
      "name": "AcceptSellOffer",
      "type": "event"
    },
    {
      "anonymous": false,
      "inputs": [
        {
          "indexed": true,
          "internalType": "address",
          "name": "owner",
          "type": "address"
        },
        {
          "indexed": true,
          "internalType": "address",
          "name": "approved",
          "type": "address"
        },
        {
          "indexed": true,
          "internalType": "uint256",
          "name": "tokenId",
          "type": "uint256"
        }
      ],
      "name": "Approval",
      "type": "event"
    },
    {
      "anonymous": false,
      "inputs": [
        {
          "indexed": true,
          "internalType": "address",
          "name": "owner",
          "type": "address"
        },
        {
          "indexed": true,
          "internalType": "address",
          "name": "operator",
          "type": "address"
        },
        {
          "indexed": false,
          "internalType": "bool",
          "name": "approved",
          "type": "bool"
        }
      ],
      "name": "ApprovalForAll",
      "type": "event"
    },
    {
      "anonymous": false,
      "inputs": [
        {
          "indexed": true,
          "internalType": "address",
          "name": "buyer",
          "type": "address"
        },
        {
          "indexed": true,
          "internalType": "address",
          "name": "owner",
          "type": "address"
        },
        {
          "indexed": false,
          "internalType": "bytes32",
          "name": "eventId",
          "type": "bytes32"
        },
        {
          "indexed": false,
          "internalType": "bytes32",
          "name": "ticketTypeId",
          "type": "bytes32"
        },
        {
          "indexed": false,
          "internalType": "uint256",
          "name": "tokenId",
          "type": "uint256"
        },
        {
          "indexed": false,
          "internalType": "string",
          "name": "tokenURI",
          "type": "string"
        },
        {
          "indexed": false,
          "internalType": "uint256",
          "name": "eventStartTime",
          "type": "uint256"
        }
      ],
      "name": "BuyTicket",
      "type": "event"
    },
    {
      "anonymous": false,
      "inputs": [
        {
          "indexed": true,
          "internalType": "bytes32",
          "name": "offerId",
          "type": "bytes32"
        },
        {
          "indexed": true,
          "internalType": "address",
          "name": "sender",
          "type": "address"
        }
      ],
      "name": "CancelOffer",
      "type": "event"
    },
    {
      "anonymous": false,
      "inputs": [
        {
          "indexed": false,
          "internalType": "bytes32",
          "name": "offerId",
          "type": "bytes32"
        },
        {
          "indexed": true,
          "internalType": "address",
          "name": "buyer",
          "type": "address"
        },
        {
          "indexed": false,
          "internalType": "bytes32",
          "name": "eventId",
          "type": "bytes32"
        },
        {
          "indexed": false,
          "internalType": "bytes32",
          "name": "ticketTypeId",
          "type": "bytes32"
        },
        {
          "indexed": false,
          "internalType": "uint256",
          "name": "price",
          "type": "uint256"
        },
        {
          "indexed": false,
          "internalType": "uint256",
          "name": "deadline",
          "type": "uint256"
        }
      ],
      "name": "CreateBuyOffer",
      "type": "event"
    },
    {
      "anonymous": false,
      "inputs": [
        {
          "indexed": true,
          "internalType": "address",
          "name": "creator",
          "type": "address"
        },
        {
          "indexed": false,
          "internalType": "bytes32",
          "name": "eventId",
          "type": "bytes32"
        },
        {
          "indexed": false,
          "internalType": "string",
          "name": "name",
          "type": "string"
        },
        {
          "indexed": false,
          "internalType": "string",
          "name": "description",
          "type": "string"
        },
        {
          "indexed": false,
          "internalType": "string",
          "name": "eventStorage",
          "type": "string"
        },
        {
          "indexed": false,
          "internalType": "string",
          "name": "location",
          "type": "string"
        },
        {
          "indexed": false,
          "internalType": "uint256",
          "name": "startTime",
          "type": "uint256"
        },
        {
          "indexed": false,
          "internalType": "uint256",
          "name": "endTime",
          "type": "uint256"
        }
      ],
      "name": "CreateEvent",
      "type": "event"
    },
    {
      "anonymous": false,
      "inputs": [
        {
          "indexed": true,
          "internalType": "bytes32",
          "name": "offerId",
          "type": "bytes32"
        },
        {
          "indexed": true,
          "internalType": "address",
          "name": "seller",
          "type": "address"
        },
        {
          "indexed": false,
          "internalType": "bytes32",
          "name": "eventId",
          "type": "bytes32"
        },
        {
          "indexed": false,
          "internalType": "bytes32",
          "name": "ticketTypeId",
          "type": "bytes32"
        },
        {
          "indexed": false,
          "internalType": "uint256",
          "name": "ticketId",
          "type": "uint256"
        },
        {
          "indexed": false,
          "internalType": "uint256",
          "name": "price",
          "type": "uint256"
        }
      ],
      "name": "CreateSellOffer",
      "type": "event"
    },
    {
      "anonymous": false,
      "inputs": [
        {
          "indexed": true,
          "internalType": "address",
          "name": "creator",
          "type": "address"
        },
        {
          "indexed": false,
          "internalType": "bytes32",
          "name": "eventId",
          "type": "bytes32"
        },
        {
          "components": [
            {
              "internalType": "bytes32",
              "name": "id",
              "type": "bytes32"
            },
            {
              "internalType": "string",
              "name": "name",
              "type": "string"
            },
            {
              "internalType": "uint256",
              "name": "price",
              "type": "uint256"
            },
            {
              "internalType": "uint256",
              "name": "maxSupply",
              "type": "uint256"
            },
            {
              "internalType": "uint256",
              "name": "currentSupply",
              "type": "uint256"
            },
            {
              "internalType": "string",
              "name": "tokenURI",
              "type": "string"
            },
            {
              "internalType": "string",
              "name": "souvenirTokenURI",
              "type": "string"
            }
          ],
          "indexed": false,
          "internalType": "struct Structs.TicketType",
          "name": "ticketType",
          "type": "tuple"
        }
      ],
      "name": "CreateTicketType",
      "type": "event"
    },
    {
      "anonymous": false,
      "inputs": [
        {
          "indexed": true,
          "internalType": "address",
          "name": "creator",
          "type": "address"
        },
        {
          "indexed": false,
          "internalType": "bytes32",
          "name": "eventId",
          "type": "bytes32"
        }
      ],
      "name": "DeleteEvent",
      "type": "event"
    },
    {
      "anonymous": false,
      "inputs": [
        {
          "indexed": true,
          "internalType": "address",
          "name": "creator",
          "type": "address"
        },
        {
          "indexed": false,
          "internalType": "bytes32",
          "name": "eventId",
          "type": "bytes32"
        },
        {
          "indexed": false,
          "internalType": "bytes32",
          "name": "ticketTypeId",
          "type": "bytes32"
        }
      ],
      "name": "DeleteTicketType",
      "type": "event"
    },
    {
      "anonymous": false,
      "inputs": [
        {
          "indexed": true,
          "internalType": "address",
          "name": "sender",
          "type": "address"
        },
        {
          "indexed": false,
          "internalType": "uint256",
          "name": "amount",
          "type": "uint256"
        }
      ],
      "name": "Deposit",
      "type": "event"
    },
    {
      "anonymous": false,
      "inputs": [
        {
          "indexed": true,
          "internalType": "address",
          "name": "owner",
          "type": "address"
        },
        {
          "components": [
            {
              "internalType": "uint256",
              "name": "id",
              "type": "uint256"
            },
            {
              "internalType": "bytes32",
              "name": "eventId",
              "type": "bytes32"
            },
            {
              "internalType": "bytes32",
              "name": "ticketTypeId",
              "type": "bytes32"
            },
            {
              "internalType": "uint256",
              "name": "souvenirId",
              "type": "uint256"
            },
            {
              "internalType": "address",
              "name": "owner",
              "type": "address"
            },
            {
              "internalType": "bool",
              "name": "souvenirMinted",
              "type": "bool"
            },
            {
              "internalType": "bool",
              "name": "usable",
              "type": "bool"
            }
          ],
          "indexed": false,
          "internalType": "struct Structs.Ticket",
          "name": "ticket",
          "type": "tuple"
        },
        {
          "indexed": false,
          "internalType": "uint256",
          "name": "tokenId",
          "type": "uint256"
        },
        {
          "indexed": false,
          "internalType": "string",
          "name": "tokenURI",
          "type": "string"
        }
      ],
      "name": "GenerateSouvenir",
      "type": "event"
    },
    {
      "anonymous": false,
      "inputs": [
        {
          "indexed": true,
          "internalType": "bytes32",
          "name": "role",
          "type": "bytes32"
        },
        {
          "indexed": true,
          "internalType": "bytes32",
          "name": "previousAdminRole",
          "type": "bytes32"
        },
        {
          "indexed": true,
          "internalType": "bytes32",
          "name": "newAdminRole",
          "type": "bytes32"
        }
      ],
      "name": "RoleAdminChanged",
      "type": "event"
    },
    {
      "anonymous": false,
      "inputs": [
        {
          "indexed": true,
          "internalType": "bytes32",
          "name": "role",
          "type": "bytes32"
        },
        {
          "indexed": true,
          "internalType": "address",
          "name": "account",
          "type": "address"
        },
        {
          "indexed": true,
          "internalType": "address",
          "name": "sender",
          "type": "address"
        }
      ],
      "name": "RoleGranted",
      "type": "event"
    },
    {
      "anonymous": false,
      "inputs": [
        {
          "indexed": true,
          "internalType": "bytes32",
          "name": "role",
          "type": "bytes32"
        },
        {
          "indexed": true,
          "internalType": "address",
          "name": "account",
          "type": "address"
        },
        {
          "indexed": true,
          "internalType": "address",
          "name": "sender",
          "type": "address"
        }
      ],
      "name": "RoleRevoked",
      "type": "event"
    },
    {
      "anonymous": false,
      "inputs": [
        {
          "indexed": true,
          "internalType": "address",
          "name": "from",
          "type": "address"
        },
        {
          "indexed": true,
          "internalType": "address",
          "name": "to",
          "type": "address"
        },
        {
          "indexed": true,
          "internalType": "uint256",
          "name": "tokenId",
          "type": "uint256"
        }
      ],
      "name": "Transfer",
      "type": "event"
    },
    {
      "anonymous": false,
      "inputs": [
        {
          "indexed": true,
          "internalType": "address",
          "name": "sender",
          "type": "address"
        },
        {
          "indexed": true,
          "internalType": "address",
          "name": "receiver",
          "type": "address"
        },
        {
          "indexed": false,
          "internalType": "uint256",
          "name": "tokenId",
          "type": "uint256"
        }
      ],
      "name": "TransferTicket",
      "type": "event"
    },
    {
      "anonymous": false,
      "inputs": [
        {
          "indexed": true,
          "internalType": "address",
          "name": "creator",
          "type": "address"
        },
        {
          "indexed": false,
          "internalType": "bytes32",
          "name": "eventId",
          "type": "bytes32"
        },
        {
          "indexed": false,
          "internalType": "string",
          "name": "name",
          "type": "string"
        },
        {
          "indexed": false,
          "internalType": "string",
          "name": "description",
          "type": "string"
        },
        {
          "indexed": false,
          "internalType": "string",
          "name": "eventStorage",
          "type": "string"
        },
        {
          "indexed": false,
          "internalType": "string",
          "name": "location",
          "type": "string"
        },
        {
          "indexed": false,
          "internalType": "uint256",
          "name": "startTime",
          "type": "uint256"
        },
        {
          "indexed": false,
          "internalType": "uint256",
          "name": "endTime",
          "type": "uint256"
        }
      ],
      "name": "UpdateEvent",
      "type": "event"
    },
    {
      "anonymous": false,
      "inputs": [
        {
          "indexed": true,
          "internalType": "address",
          "name": "creator",
          "type": "address"
        },
        {
          "indexed": false,
          "internalType": "bytes32",
          "name": "eventId",
          "type": "bytes32"
        },
        {
          "components": [
            {
              "internalType": "bytes32",
              "name": "id",
              "type": "bytes32"
            },
            {
              "internalType": "string",
              "name": "name",
              "type": "string"
            },
            {
              "internalType": "uint256",
              "name": "price",
              "type": "uint256"
            },
            {
              "internalType": "uint256",
              "name": "maxSupply",
              "type": "uint256"
            },
            {
              "internalType": "uint256",
              "name": "currentSupply",
              "type": "uint256"
            },
            {
              "internalType": "string",
              "name": "tokenURI",
              "type": "string"
            },
            {
              "internalType": "string",
              "name": "souvenirTokenURI",
              "type": "string"
            }
          ],
          "indexed": false,
          "internalType": "struct Structs.TicketType",
          "name": "ticketType",
          "type": "tuple"
        }
      ],
      "name": "UpdateTicketType",
      "type": "event"
    },
    {
      "anonymous": false,
      "inputs": [
        {
          "indexed": true,
          "internalType": "address",
          "name": "sender",
          "type": "address"
        },
        {
          "indexed": false,
          "internalType": "uint256",
          "name": "ticketId",
          "type": "uint256"
        }
      ],
      "name": "UseTicket",
      "type": "event"
    },
    {
      "anonymous": false,
      "inputs": [
        {
          "indexed": true,
          "internalType": "address",
          "name": "receiver",
          "type": "address"
        },
        {
          "indexed": false,
          "internalType": "uint256",
          "name": "amount",
          "type": "uint256"
        }
      ],
      "name": "Withdraw",
      "type": "event"
    },
    {
      "inputs": [],
      "name": "DEFAULT_ADMIN_ROLE",
      "outputs": [
        {
          "internalType": "bytes32",
          "name": "",
          "type": "bytes32"
        }
      ],
      "stateMutability": "view",
      "type": "function"
    },
    {
      "inputs": [],
      "name": "MINTER_ROLE",
      "outputs": [
        {
          "internalType": "bytes32",
          "name": "",
          "type": "bytes32"
        }
      ],
      "stateMutability": "view",
      "type": "function"
    },
    {
      "inputs": [],
      "name": "ORGANIZER_ROLE",
      "outputs": [
        {
          "internalType": "bytes32",
          "name": "",
          "type": "bytes32"
        }
      ],
      "stateMutability": "view",
      "type": "function"
    },
    {
      "inputs": [],
      "name": "OWNER_ROLE",
      "outputs": [
        {
          "internalType": "bytes32",
          "name": "",
          "type": "bytes32"
        }
      ],
      "stateMutability": "view",
      "type": "function"
    },
    {
      "inputs": [
        {
          "internalType": "bytes32",
          "name": "id",
          "type": "bytes32"
        },
        {
          "internalType": "uint256",
          "name": "ticketId",
          "type": "uint256"
        }
      ],
      "name": "acceptBuyOffer",
      "outputs": [],
      "stateMutability": "nonpayable",
      "type": "function"
    },
    {
      "inputs": [
        {
          "internalType": "bytes32",
          "name": "id",
          "type": "bytes32"
        },
        {
          "internalType": "uint256",
          "name": "deadline",
          "type": "uint256"
        },
        {
          "internalType": "uint8",
          "name": "v",
          "type": "uint8"
        },
        {
          "internalType": "bytes32",
          "name": "r",
          "type": "bytes32"
        },
        {
          "internalType": "bytes32",
          "name": "s",
          "type": "bytes32"
        }
      ],
      "name": "acceptSellOffer",
      "outputs": [],
      "stateMutability": "nonpayable",
      "type": "function"
    },
    {
      "inputs": [
        {
          "internalType": "address",
          "name": "to",
          "type": "address"
        },
        {
          "internalType": "uint256",
          "name": "tokenId",
          "type": "uint256"
        }
      ],
      "name": "approve",
      "outputs": [],
      "stateMutability": "nonpayable",
      "type": "function"
    },
    {
      "inputs": [
        {
          "internalType": "address",
          "name": "owner",
          "type": "address"
        }
      ],
      "name": "balanceOf",
      "outputs": [
        {
          "internalType": "uint256",
          "name": "",
          "type": "uint256"
        }
      ],
      "stateMutability": "view",
      "type": "function"
    },
    {
      "inputs": [],
      "name": "becomeOrganizer",
      "outputs": [],
      "stateMutability": "nonpayable",
      "type": "function"
    },
    {
      "inputs": [
        {
          "internalType": "bytes32",
          "name": "_eventId",
          "type": "bytes32"
        },
        {
          "internalType": "bytes32",
          "name": "_ticketTypeId",
          "type": "bytes32"
        },
        {
          "internalType": "address",
          "name": "_recipient",
          "type": "address"
        },
        {
          "internalType": "uint256",
          "name": "deadline",
          "type": "uint256"
        },
        {
          "internalType": "uint8",
          "name": "v",
          "type": "uint8"
        },
        {
          "internalType": "bytes32",
          "name": "r",
          "type": "bytes32"
        },
        {
          "internalType": "bytes32",
          "name": "s",
          "type": "bytes32"
        }
      ],
      "name": "buyTicket",
      "outputs": [
        {
          "internalType": "uint256",
          "name": "",
          "type": "uint256"
        }
      ],
      "stateMutability": "nonpayable",
      "type": "function"
    },
    {
      "inputs": [
        {
          "internalType": "bytes32",
          "name": "id",
          "type": "bytes32"
        }
      ],
      "name": "cancelOffer",
      "outputs": [],
      "stateMutability": "nonpayable",
      "type": "function"
    },
    {
      "inputs": [
        {
          "internalType": "bytes32",
          "name": "id",
          "type": "bytes32"
        },
        {
          "internalType": "bytes32",
          "name": "eventId",
          "type": "bytes32"
        },
        {
          "internalType": "bytes32",
          "name": "ticketTypeId",
          "type": "bytes32"
        },
        {
          "internalType": "uint256",
          "name": "price",
          "type": "uint256"
        },
        {
          "internalType": "uint256",
          "name": "deadline",
          "type": "uint256"
        },
        {
          "internalType": "uint8",
          "name": "v",
          "type": "uint8"
        },
        {
          "internalType": "bytes32",
          "name": "r",
          "type": "bytes32"
        },
        {
          "internalType": "bytes32",
          "name": "s",
          "type": "bytes32"
        }
      ],
      "name": "createBuyOffer",
      "outputs": [],
      "stateMutability": "nonpayable",
      "type": "function"
    },
    {
      "inputs": [
        {
          "internalType": "bytes32",
          "name": "_eventId",
          "type": "bytes32"
        },
        {
          "internalType": "string",
          "name": "_name",
          "type": "string"
        },
        {
          "internalType": "string",
          "name": "_description",
          "type": "string"
        },
        {
          "internalType": "string",
          "name": "eventStorage",
          "type": "string"
        },
        {
          "internalType": "string",
          "name": "location",
          "type": "string"
        },
        {
          "internalType": "uint256",
          "name": "startTime",
          "type": "uint256"
        },
        {
          "internalType": "uint256",
          "name": "endTime",
          "type": "uint256"
        }
      ],
      "name": "createEvent",
      "outputs": [],
      "stateMutability": "nonpayable",
      "type": "function"
    },
    {
      "inputs": [
        {
          "internalType": "bytes32",
          "name": "id",
          "type": "bytes32"
        },
        {
          "internalType": "bytes32",
          "name": "eventId",
          "type": "bytes32"
        },
        {
          "internalType": "bytes32",
          "name": "ticketTypeId",
          "type": "bytes32"
        },
        {
          "internalType": "uint256",
          "name": "ticketId",
          "type": "uint256"
        },
        {
          "internalType": "uint256",
          "name": "price",
          "type": "uint256"
        }
      ],
      "name": "createSellOffer",
      "outputs": [],
      "stateMutability": "nonpayable",
      "type": "function"
    },
    {
      "inputs": [
        {
          "internalType": "bytes32",
          "name": "_eventId",
          "type": "bytes32"
        },
        {
          "internalType": "bytes32",
          "name": "_ticketTypeId",
          "type": "bytes32"
        },
        {
          "internalType": "string",
          "name": "_ticketName",
          "type": "string"
        },
        {
          "internalType": "string",
          "name": "_tokenURI",
          "type": "string"
        },
        {
          "internalType": "string",
          "name": "_souvenirTokenURI",
          "type": "string"
        },
        {
          "internalType": "uint256",
          "name": "_price",
          "type": "uint256"
        },
        {
          "internalType": "uint256",
          "name": "_maxSupply",
          "type": "uint256"
        }
      ],
      "name": "createTicketType",
      "outputs": [],
      "stateMutability": "nonpayable",
      "type": "function"
    },
    {
      "inputs": [
        {
          "internalType": "bytes32",
          "name": "_eventId",
          "type": "bytes32"
        }
      ],
      "name": "deleteEvent",
      "outputs": [],
      "stateMutability": "nonpayable",
      "type": "function"
    },
    {
      "inputs": [
        {
          "internalType": "bytes32",
          "name": "_eventId",
          "type": "bytes32"
        },
        {
          "internalType": "bytes32",
          "name": "_ticketTypeId",
          "type": "bytes32"
        }
      ],
      "name": "deleteTicketType",
      "outputs": [],
      "stateMutability": "nonpayable",
      "type": "function"
    },
    {
      "inputs": [],
      "name": "deposit",
      "outputs": [],
      "stateMutability": "payable",
      "type": "function"
    },
    {
      "inputs": [
        {
          "internalType": "uint256",
          "name": "tokenId",
          "type": "uint256"
        }
      ],
      "name": "getApproved",
      "outputs": [
        {
          "internalType": "address",
          "name": "",
          "type": "address"
        }
      ],
      "stateMutability": "view",
      "type": "function"
    },
    {
      "inputs": [
        {
          "internalType": "uint256",
          "name": "_tokenId",
          "type": "uint256"
        }
      ],
      "name": "getMetadata",
      "outputs": [
        {
          "internalType": "string",
          "name": "",
          "type": "string"
        }
      ],
      "stateMutability": "view",
      "type": "function"
    },
    {
      "inputs": [
        {
          "internalType": "bytes32",
          "name": "role",
          "type": "bytes32"
        }
      ],
      "name": "getRoleAdmin",
      "outputs": [
        {
          "internalType": "bytes32",
          "name": "",
          "type": "bytes32"
        }
      ],
      "stateMutability": "view",
      "type": "function"
    },
    {
      "inputs": [
        {
          "internalType": "uint256",
          "name": "_ticketId",
          "type": "uint256"
        }
      ],
      "name": "getSouvenir",
      "outputs": [
        {
          "internalType": "uint256",
          "name": "",
          "type": "uint256"
        }
      ],
      "stateMutability": "nonpayable",
      "type": "function"
    },
    {
      "inputs": [
        {
          "internalType": "bytes32",
          "name": "role",
          "type": "bytes32"
        },
        {
          "internalType": "address",
          "name": "account",
          "type": "address"
        }
      ],
      "name": "grantRole",
      "outputs": [],
      "stateMutability": "nonpayable",
      "type": "function"
    },
    {
      "inputs": [
        {
          "internalType": "bytes32",
          "name": "role",
          "type": "bytes32"
        },
        {
          "internalType": "address",
          "name": "account",
          "type": "address"
        }
      ],
      "name": "hasRole",
      "outputs": [
        {
          "internalType": "bool",
          "name": "",
          "type": "bool"
        }
      ],
      "stateMutability": "view",
      "type": "function"
    },
    {
      "inputs": [
        {
          "internalType": "address",
          "name": "owner",
          "type": "address"
        },
        {
          "internalType": "address",
          "name": "operator",
          "type": "address"
        }
      ],
      "name": "isApprovedForAll",
      "outputs": [
        {
          "internalType": "bool",
          "name": "",
          "type": "bool"
        }
      ],
      "stateMutability": "view",
      "type": "function"
    },
    {
      "inputs": [],
      "name": "name",
      "outputs": [
        {
          "internalType": "string",
          "name": "",
          "type": "string"
        }
      ],
      "stateMutability": "view",
      "type": "function"
    },
    {
      "inputs": [
        {
          "internalType": "uint256",
          "name": "tokenId",
          "type": "uint256"
        }
      ],
      "name": "ownerOf",
      "outputs": [
        {
          "internalType": "address",
          "name": "",
          "type": "address"
        }
      ],
      "stateMutability": "view",
      "type": "function"
    },
    {
      "inputs": [],
      "name": "ownerWithdraw",
      "outputs": [],
      "stateMutability": "nonpayable",
      "type": "function"
    },
    {
      "inputs": [
        {
          "internalType": "bytes32",
          "name": "role",
          "type": "bytes32"
        },
        {
          "internalType": "address",
          "name": "account",
          "type": "address"
        }
      ],
      "name": "renounceRole",
      "outputs": [],
      "stateMutability": "nonpayable",
      "type": "function"
    },
    {
      "inputs": [
        {
          "internalType": "bytes32",
          "name": "role",
          "type": "bytes32"
        },
        {
          "internalType": "address",
          "name": "account",
          "type": "address"
        }
      ],
      "name": "revokeRole",
      "outputs": [],
      "stateMutability": "nonpayable",
      "type": "function"
    },
    {
      "inputs": [
        {
          "internalType": "address",
          "name": "from",
          "type": "address"
        },
        {
          "internalType": "address",
          "name": "to",
          "type": "address"
        },
        {
          "internalType": "uint256",
          "name": "tokenId",
          "type": "uint256"
        }
      ],
      "name": "safeTransferFrom",
      "outputs": [],
      "stateMutability": "nonpayable",
      "type": "function"
    },
    {
      "inputs": [
        {
          "internalType": "address",
          "name": "from",
          "type": "address"
        },
        {
          "internalType": "address",
          "name": "to",
          "type": "address"
        },
        {
          "internalType": "uint256",
          "name": "tokenId",
          "type": "uint256"
        },
        {
          "internalType": "bytes",
          "name": "data",
          "type": "bytes"
        }
      ],
      "name": "safeTransferFrom",
      "outputs": [],
      "stateMutability": "nonpayable",
      "type": "function"
    },
    {
      "inputs": [
        {
          "internalType": "address",
          "name": "operator",
          "type": "address"
        },
        {
          "internalType": "bool",
          "name": "approved",
          "type": "bool"
        }
      ],
      "name": "setApprovalForAll",
      "outputs": [],
      "stateMutability": "nonpayable",
      "type": "function"
    },
    {
      "inputs": [
        {
          "internalType": "uint256",
          "name": "_organizerDeposit",
          "type": "uint256"
        }
      ],
      "name": "setOrganizerDeposit",
      "outputs": [],
      "stateMutability": "nonpayable",
      "type": "function"
    },
    {
      "inputs": [
        {
          "internalType": "address",
          "name": "_souvenirGeneratorAddress",
          "type": "address"
        }
      ],
      "name": "setSouvenirGeneratorContract",
      "outputs": [],
      "stateMutability": "nonpayable",
      "type": "function"
    },
    {
      "inputs": [
        {
          "internalType": "address",
          "name": "_tokenAddress",
          "type": "address"
        }
      ],
      "name": "setTIKContract",
      "outputs": [],
      "stateMutability": "nonpayable",
      "type": "function"
    },
    {
      "inputs": [
        {
          "internalType": "bytes4",
          "name": "interfaceId",
          "type": "bytes4"
        }
      ],
      "name": "supportsInterface",
      "outputs": [
        {
          "internalType": "bool",
          "name": "",
          "type": "bool"
        }
      ],
      "stateMutability": "view",
      "type": "function"
    },
    {
      "inputs": [],
      "name": "symbol",
      "outputs": [
        {
          "internalType": "string",
          "name": "",
          "type": "string"
        }
      ],
      "stateMutability": "view",
      "type": "function"
    },
    {
      "inputs": [
        {
          "internalType": "uint256",
          "name": "amount",
          "type": "uint256"
        },
        {
          "internalType": "uint256",
          "name": "deadline",
          "type": "uint256"
        },
        {
          "internalType": "uint8",
          "name": "v",
          "type": "uint8"
        },
        {
          "internalType": "bytes32",
          "name": "r",
          "type": "bytes32"
        },
        {
          "internalType": "bytes32",
          "name": "s",
          "type": "bytes32"
        }
      ],
      "name": "ticketPurchasePermit",
      "outputs": [],
      "stateMutability": "nonpayable",
      "type": "function"
    },
    {
      "inputs": [
        {
          "internalType": "uint256",
          "name": "tokenId",
          "type": "uint256"
        }
      ],
      "name": "tokenURI",
      "outputs": [
        {
          "internalType": "string",
          "name": "",
          "type": "string"
        }
      ],
      "stateMutability": "view",
      "type": "function"
    },
    {
      "inputs": [
        {
          "internalType": "address",
          "name": "from",
          "type": "address"
        },
        {
          "internalType": "address",
          "name": "to",
          "type": "address"
        },
        {
          "internalType": "uint256",
          "name": "tokenId",
          "type": "uint256"
        }
      ],
      "name": "transferFrom",
      "outputs": [],
      "stateMutability": "nonpayable",
      "type": "function"
    },
    {
      "inputs": [
        {
          "internalType": "bytes32",
          "name": "_eventId",
          "type": "bytes32"
        },
        {
          "internalType": "string",
          "name": "_name",
          "type": "string"
        },
        {
          "internalType": "string",
          "name": "_description",
          "type": "string"
        },
        {
          "internalType": "string",
          "name": "eventStorage",
          "type": "string"
        },
        {
          "internalType": "string",
          "name": "location",
          "type": "string"
        },
        {
          "internalType": "uint256",
          "name": "startTime",
          "type": "uint256"
        },
        {
          "internalType": "uint256",
          "name": "endTime",
          "type": "uint256"
        }
      ],
      "name": "updateEvent",
      "outputs": [],
      "stateMutability": "nonpayable",
      "type": "function"
    },
    {
      "inputs": [
        {
          "internalType": "bytes32",
          "name": "_eventId",
          "type": "bytes32"
        },
        {
          "internalType": "bytes32",
          "name": "_ticketTypeId",
          "type": "bytes32"
        },
        {
          "internalType": "string",
          "name": "_ticketName",
          "type": "string"
        },
        {
          "internalType": "string",
          "name": "_tokenURI",
          "type": "string"
        },
        {
          "internalType": "string",
          "name": "_souvenirTokenURI",
          "type": "string"
        },
        {
          "internalType": "uint256",
          "name": "_price",
          "type": "uint256"
        },
        {
          "internalType": "uint256",
          "name": "_maxSupply",
          "type": "uint256"
        }
      ],
      "name": "updateTicketType",
      "outputs": [],
      "stateMutability": "nonpayable",
      "type": "function"
    },
    {
      "inputs": [
        {
          "internalType": "uint256",
          "name": "_ticketId",
          "type": "uint256"
        }
      ],
      "name": "useTicket",
      "outputs": [],
      "stateMutability": "nonpayable",
      "type": "function"
    },
    {
      "inputs": [
        {
          "internalType": "uint256",
          "name": "amount",
          "type": "uint256"
        }
      ],
      "name": "userWithdraw",
      "outputs": [],
      "stateMutability": "nonpayable",
      "type": "function"
    }
  ],
  "bytecode": "0x60806040526000601055600060115566038d7ea4c680006012553480156200002657600080fd5b50604051620059e1380380620059e18339810160408190526200004991620002bf565b604080518082018252600a815269151a58dad95d0813919560b21b60208083019182528351808501909452600384526213919560ea1b9084015281519192916200009691600191620001fc565b508051620000ac906002906020840190620001fc565b5050600980546001600160a01b038085166001600160a01b031992831617909255600a805492861692909116919091179055506200010b7fb19546dff01e856fb3f010c267a7b1c60363cf8a4664e21cc89c26224620214e336200014c565b620001377f4d2e7a1e3f5dd6e203f087b15756ccf0e4ccd947fe1b639a38540089a1e47f63336200014c565b620001446000336200014c565b505062000334565b6200015882826200015c565b5050565b6000828152602081815260408083206001600160a01b038516845290915290205460ff1662000158576000828152602081815260408083206001600160a01b03851684529091529020805460ff19166001179055620001b83390565b6001600160a01b0316816001600160a01b0316837f2f8788117e7eff1d82e926ec794901d17c78024a50270940304540a733656f0d60405160405180910390a45050565b8280546200020a90620002f7565b90600052602060002090601f0160209004810192826200022e576000855562000279565b82601f106200024957805160ff191683800117855562000279565b8280016001018555821562000279579182015b82811115620002795782518255916020019190600101906200025c565b50620002879291506200028b565b5090565b5b808211156200028757600081556001016200028c565b80516001600160a01b0381168114620002ba57600080fd5b919050565b60008060408385031215620002d357600080fd5b620002de83620002a2565b9150620002ee60208401620002a2565b90509250929050565b600181811c908216806200030c57607f821691505b602082108114156200032e57634e487b7160e01b600052602260045260246000fd5b50919050565b61569d80620003446000396000f3fe6080604052600436106102725760003560e01c806370a082311161014f578063b88d4fde116100c1578063d547741f1161007a578063d547741f14610778578063e58378bb14610798578063e5bdaeb7146107ba578063e985e9c5146107da578063ef1efc4714610823578063f952279e1461084357600080fd5b8063b88d4fde146106bc578063baab45fb146106dc578063c87b56dd146106fc578063ceed06d51461071c578063d0e30db01461073c578063d53913931461074457600080fd5b8063a22cb46511610113578063a22cb465146105fc578063a38c7eb21461061c578063a43329ad1461063c578063a574cea41461065c578063ae1e45541461067c578063b64babc21461069c57600080fd5b806370a08231146105705780637909cb591461059057806391d14854146105b257806395d89b41146105d2578063a217fddf146105e757600080fd5b80632d32165f116101e8578063419cc0ec116101ac578063419cc0ec146104bb57806342842e0e146104db5780634311de8f146104fb57806352c0cb6c1461051057806363113c6a146105305780636352211e1461055057600080fd5b80632d32165f1461041b5780632f2ff15d1461043b57806336568abe1461045b5780633b9056bf1461047b5780634109ba1f1461049b57600080fd5b8063095ea7b31161023a578063095ea7b31461034b5780631cc844bc1461036b5780631ef791d61461038b57806323b872dd146103ab578063248a9ca3146103cb57806326606448146103fb57600080fd5b806301ffc9a71461027757806306fdde03146102ac57806307b17fc9146102ce57806307c88259146102e5578063081812fc14610313575b600080fd5b34801561028357600080fd5b506102976102923660046148ff565b610863565b60405190151581526020015b60405180910390f35b3480156102b857600080fd5b506102c1610874565b6040516102a39190614974565b3480156102da57600080fd5b506102e3610906565b005b3480156102f157600080fd5b506103056103003660046149b4565b610ae5565b6040519081526020016102a3565b34801561031f57600080fd5b5061033361032e366004614a17565b611028565b6040516001600160a01b0390911681526020016102a3565b34801561035757600080fd5b506102e3610366366004614a30565b61104f565b34801561037757600080fd5b506102e3610386366004614a17565b611165565b34801561039757600080fd5b506102e36103a6366004614a5a565b611344565b3480156103b757600080fd5b506102e36103c6366004614a7c565b6115db565b3480156103d757600080fd5b506103056103e6366004614a17565b60009081526020819052604090206001015490565b34801561040757600080fd5b506102e3610416366004614a17565b61160c565b34801561042757600080fd5b506102e3610436366004614a5a565b611857565b34801561044757600080fd5b506102e3610456366004614ab8565b611bd2565b34801561046757600080fd5b506102e3610476366004614ab8565b611bf7565b34801561048757600080fd5b506102e3610496366004614a17565b611c75565b3480156104a757600080fd5b506102e36104b6366004614b90565b611ea5565b3480156104c757600080fd5b506102e36104d6366004614c5a565b612072565b3480156104e757600080fd5b506102e36104f6366004614a7c565b6120e7565b34801561050757600080fd5b506102e3612102565b34801561051c57600080fd5b506102e361052b366004614ca1565b61224e565b34801561053c57600080fd5b506102e361054b366004614ca1565b6122a4565b34801561055c57600080fd5b5061033361056b366004614a17565b6122fa565b34801561057c57600080fd5b5061030561058b366004614ca1565b61235a565b34801561059c57600080fd5b5061030560008051602061564883398151915281565b3480156105be57600080fd5b506102976105cd366004614ab8565b6123e0565b3480156105de57600080fd5b506102c1612409565b3480156105f357600080fd5b50610305600081565b34801561060857600080fd5b506102e3610617366004614cca565b612418565b34801561062857600080fd5b50610305610637366004614a17565b612423565b34801561064857600080fd5b506102e3610657366004614d01565b612765565b34801561066857600080fd5b506102c1610677366004614a17565b6129bf565b34801561068857600080fd5b506102e3610697366004614c5a565b6129ca565b3480156106a857600080fd5b506102e36106b7366004614d67565b612e3d565b3480156106c857600080fd5b506102e36106d7366004614da2565b61309c565b3480156106e857600080fd5b506102e36106f7366004614e1e565b6130d4565b34801561070857600080fd5b506102c1610717366004614a17565b6132c3565b34801561072857600080fd5b506102e3610737366004614e1e565b6133d4565b6102e3613671565b34801561075057600080fd5b506103057f9f2df0fed2c77648de5860a4cc508cd0818c85b8b8a1ab4ceeef8d981c8956a681565b34801561078457600080fd5b506102e3610793366004614ab8565b613722565b3480156107a457600080fd5b5061030560008051602061562883398151915281565b3480156107c657600080fd5b506102e36107d5366004614a17565b613747565b3480156107e657600080fd5b506102976107f5366004614e5f565b6001600160a01b03918216600090815260066020908152604080832093909416825291909152205460ff1690565b34801561082f57600080fd5b506102e361083e366004614b90565b613780565b34801561084f57600080fd5b506102e361085e366004614a17565b61394e565b600061086e82613b3d565b92915050565b60606001805461088390614e89565b80601f01602080910402602001604051908101604052809291908181526020018280546108af90614e89565b80156108fc5780601f106108d1576101008083540402835291602001916108fc565b820191906000526020600020905b8154815290600101906020018083116108df57829003601f168201915b5050505050905090565b61091e600080516020615648833981519152336123e0565b156109705760405162461bcd60e51b815260206004820152601e60248201527f43616c6c657220697320616c726561647920616e206f7267616e697a6572000060448201526064015b60405180910390fd5b601254600a546040516370a0823160e01b81523360048201526001600160a01b03909116906370a082319060240160206040518083038186803b1580156109b657600080fd5b505afa1580156109ca573d6000803e3d6000fd5b505050506040513d601f19601f820116820180604052508101906109ee9190614ec4565b1015610a4a5760405162461bcd60e51b815260206004820152602560248201527f4e6f7420656e6f75676820746f6b656e7320746f206265636f6d65206f7267616044820152643734bd32b960d91b6064820152608401610967565b600a54601254604051632770a7eb60e21b815233600482015260248101919091526001600160a01b0390911690639dc29fac90604401600060405180830381600087803b158015610a9a57600080fd5b505af1158015610aae573d6000803e3d6000fd5b50505050610aca60008051602061564883398151915233613b7d565b60125460116000828254610ade9190614ef3565b9091555050565b6000878152600c60205260408120548890610b125760405162461bcd60e51b815260040161096790614f0b565b6000898152600c602090815260408083208b8452600a0190915290205489908990610b4f5760405162461bcd60e51b815260040161096790614f39565b60008b8152600c602090815260408083208d8452600a81019092529091206004810154610bbe5760405162461bcd60e51b815260206004820152601f60248201527f5469636b6574732066726f6d2074686973207479706520736f6c64206f7574006044820152606401610967565b8915610c4857600a60009054906101000a90046001600160a01b03166001600160a01b031663d505accf333084600201548e8e8e8e6040518863ffffffff1660e01b8152600401610c159796959493929190614f70565b600060405180830381600087803b158015610c2f57600080fd5b505af1158015610c43573d6000803e3d6000fd5b505050505b6002810154600a54604051636eb1769f60e11b81523360048201523060248201526001600160a01b039091169063dd62ed3e9060440160206040518083038186803b158015610c9657600080fd5b505afa158015610caa573d6000803e3d6000fd5b505050506040513d601f19601f82011682018060405250810190610cce9190614ec4565b1015610cec5760405162461bcd60e51b815260040161096790614fb1565b600a54600183015460028301546040516323b872dd60e01b81523360048201526001600160a01b039283166024820152604481019190915260009291909116906323b872dd90606401602060405180830381600087803b158015610d4f57600080fd5b505af1158015610d63573d6000803e3d6000fd5b505050506040513d601f19601f82011682018060405250810190610d879190614fe8565b905080610da65760405162461bcd60e51b815260040161096790615005565b600482018054906000610db88361502e565b91905055506000610e558d846005018054610dd290614e89565b80601f0160208091040260200160405190810160405280929190818152602001828054610dfe90614e89565b8015610e4b5780601f10610e2057610100808354040283529160200191610e4b565b820191906000526020600020905b815481529060010190602001808311610e2e57829003601f168201915b5050505050613b87565b6040805160e081018252600080825260208201819052918101829052606081018290526080810182905260a0810182905260c0810191909152909150818160000181815250508f8160200181815250508e8160400181815250508d81608001906001600160a01b031690816001600160a01b03168152505060018160c001901515908115158152505080600e60008481526020019081526020016000206000820151816000015560208201518160010155604082015181600201556060820151816003015560808201518160040160006101000a8154816001600160a01b0302191690836001600160a01b0316021790555060a08201518160040160146101000a81548160ff02191690831515021790555060c08201518160040160156101000a81548160ff021916908315150217905550905050600d8290806001815401808255809150506001900390600052602060002001600090919091909150558d6001600160a01b0316336001600160a01b03167fa315c04ae5193ef2d9052d2616973c434126e9e2232a0e6b1b693a8289b3caec8360200151846040015186896005018b6003015460405161100d9594939291906150e5565b60405180910390a3509e9d5050505050505050505050505050565b600061103382613bbf565b506000908152600560205260409020546001600160a01b031690565b600061105a826122fa565b9050806001600160a01b0316836001600160a01b031614156110c85760405162461bcd60e51b815260206004820152602160248201527f4552433732313a20617070726f76616c20746f2063757272656e74206f776e656044820152603960f91b6064820152608401610967565b336001600160a01b03821614806110e457506110e481336107f5565b6111565760405162461bcd60e51b815260206004820152603e60248201527f4552433732313a20617070726f76652063616c6c6572206973206e6f7420746f60448201527f6b656e206f776e6572206e6f7220617070726f76656420666f7220616c6c00006064820152608401610967565b6111608383613c21565b505050565b6000818152600c602052604090205481906111925760405162461bcd60e51b815260040161096790614f0b565b6111aa600080516020615648833981519152336123e0565b6111c65760405162461bcd60e51b81526004016109679061511c565b6000828152600c60205260409020600101546001600160a01b0316331461122f5760405162461bcd60e51b815260206004820152601f60248201527f4f6e6c79206f7267616e697a65722063616e2072656d6f7665206576656e74006044820152606401610967565b6000828152600c60205260409020600801541561128e5760405162461bcd60e51b815260206004820152601c60248201527f4576656e74207374696c6c20686173207469636b6574207479706573000000006044820152606401610967565b6000828152600c602052604081208181556001810180546001600160a01b0319169055906112bf600283018261479c565b600382016000905560048201600090556005820160006112df919061479c565b6112ed60068301600061479c565b6112fb60078301600061479c565b6113096008830160006147d6565b505060405182815233907f6e3bc81a96d2f5065ad94a6a93273d83748be7ace6c49f293c543738f62a5b6a9060200160405180910390a25050565b6000828152600c602052604090205482906113715760405162461bcd60e51b815260040161096790614f0b565b6000838152600c60209081526040808320858452600a01909152902054839083906113ae5760405162461bcd60e51b815260040161096790614f39565b6113c6600080516020615648833981519152336123e0565b6113e25760405162461bcd60e51b81526004016109679061511c565b6000858152600c6020526040902060018101546001600160a01b0316331461145a5760405162461bcd60e51b815260206004820152602560248201527f4f6e6c79206f7267616e697a65722063616e2072656d6f7665207469636b6574604482015264207479706560d81b6064820152608401610967565b6000858152600a8201602052604081208181559061147b600183018261479c565b6002820160009055600382016000905560048201600090556005820160006114a3919061479c565b6114b160068301600061479c565b50506000858152600982016020526040812054600883015460ff90911691906114dc90600190615168565b90506000836008018260ff16815481106114f8576114f861518b565b6000918252602080832090910154808352600987019091526040808320805460ff881660ff1991821681179092558c8552919093208054909116905560088601805491935083929091811061154f5761154f61518b565b6000918252602090912001556008840180548061156e5761156e6151a1565b60019003818190600052602060002001600090559055336001600160a01b03167fd7e867a3c1b30b85f1c4060ae5f328a610ab1b13aabd5415372dd1c8637154ab8a8a6040516115c8929190918252602082015260400190565b60405180910390a2505050505050505050565b6115e53382613c8f565b6116015760405162461bcd60e51b8152600401610967906151b7565b611160838383613d0d565b611624600080516020615648833981519152336123e0565b6116405760405162461bcd60e51b81526004016109679061511c565b6000818152600e6020526040902060040154600160a81b900460ff1661169c5760405162461bcd60e51b81526020600482015260116024820152705469636b6574206e6f7420757361626c6560781b6044820152606401610967565b6000818152600e602090815260408083206001908101548452600c90925290912001546001600160a01b0316331461170a5760405162461bcd60e51b81526020600482015260116024820152702737ba103a34329037b933b0b734bd32b960791b6044820152606401610967565b6000818152600e60209081526040808320600101548352600c90915290206004015415611793576000818152600e60209081526040808320600101548352600c90915290206004015442106117935760405162461bcd60e51b815260206004820152600f60248201526e115d995b9d081a185cc8195b991959608a1b6044820152606401610967565b6000818152600e60209081526040808320600101548352600c9091529020600301544210156117fc5760405162461bcd60e51b8152602060048201526015602482015274115d995b9d081a185cc81b9bdd081cdd185c9d1959605a1b6044820152606401610967565b6000818152600e602052604090819020600401805460ff60a81b191690555133907f31684b65477a7d1fd4edef84ea40d8f3d6c7531a2e48dfdf9c8c55c8ec5496f99061184c9084815260200190565b60405180910390a250565b6000828152600f602052604090205482906118845760405162461bcd60e51b815260040161096790615205565b6000838152600f6020526040902060068101546001600160a01b03163314156118ef5760405162461bcd60e51b815260206004820152601a60248201527f43616e6e6f742062757920796f7572206f776e207469636b65740000000000006044820152606401610967565b600481810154600a546006840154604051636eb1769f60e11b81526001600160a01b0391821694810194909452306024850152919291169063dd62ed3e9060440160206040518083038186803b15801561194857600080fd5b505afa15801561195c573d6000803e3d6000fd5b505050506040513d601f19601f820116820180604052508101906119809190614ec4565b101561199e5760405162461bcd60e51b815260040161096790614fb1565b60038101839055600a5460068201546004808401546040516323b872dd60e01b81526001600160a01b0393841692810192909252336024830152604482015260009291909116906323b872dd90606401602060405180830381600087803b158015611a0857600080fd5b505af1158015611a1c573d6000803e3d6000fd5b505050506040513d601f19601f82011682018060405250810190611a409190614fe8565b905080611a5f5760405162461bcd60e51b815260040161096790615005565b60068201546003830154611a809133916001600160a01b0390911690613ea9565b60068201805460ff60a01b198116600160a01b178255600580850180546001600160a01b0319908116339081179092556003870180546000908152600e60209081526040808320600490810180549096166001600160a01b03998a1617909555835483528083208501805460ff60a81b1916600160a81b179055975460018b015460028c01549454818552600c84528a8520868652600a0190935292899020948b0154985195989716968d967f7290e6fa19a97e2b68363bf3455b9fa2fa8b741ea3cb84b7b3eabcb93fd246ec96611b5f9694959490910191906150e5565b60405180910390a4505050600091825250600f60205260408120818155600181018290556002810182905560038101829055600481018290556005810180546001600160a01b03191690556006810180546001600160a81b03191690556007810191909155600801805461ffff19169055565b600082815260208190526040902060010154611bed81613f20565b6111608383613f2a565b6001600160a01b0381163314611c675760405162461bcd60e51b815260206004820152602f60248201527f416363657373436f6e74726f6c3a2063616e206f6e6c792072656e6f756e636560448201526e103937b632b9903337b91039b2b63360891b6064820152608401610967565b611c718282613fae565b5050565b600a546040516370a0823160e01b81523360048201526000916001600160a01b0316906370a082319060240160206040518083038186803b158015611cb957600080fd5b505afa158015611ccd573d6000803e3d6000fd5b505050506040513d601f19601f82011682018060405250810190611cf19190614ec4565b905080821115611d435760405162461bcd60e51b815260206004820152601a60248201527f4e6f7420656e6f75676820746f2062652077697468647261776e0000000000006044820152606401610967565b601054821115611d955760405162461bcd60e51b815260206004820152601e60248201527f57697468647261772069732063757272656e746c792064697361626c656400006044820152606401610967565b604051600090339084156108fc0290859084818181858888f19350505050905080611df05760405162461bcd60e51b815260206004820152600b60248201526a1cd95b990819985a5b195960aa1b6044820152606401610967565b600a54604051632770a7eb60e21b8152336004820152602481018590526001600160a01b0390911690639dc29fac90604401600060405180830381600087803b158015611e3c57600080fd5b505af1158015611e50573d6000803e3d6000fd5b50506040518581523392507f884edad9ce6fa2440d8a54cc123490eb96d2768479d49ff9c7366125a9424364915060200160405180910390a28260106000828254611e9b9190615233565b9091555050505050565b6000878152600c60205260409020548790611ed25760405162461bcd60e51b815260040161096790614f0b565b611eea600080516020615648833981519152336123e0565b611f065760405162461bcd60e51b81526004016109679061511c565b6000888152600c60205260409020600101546001600160a01b03163314611f6f5760405162461bcd60e51b815260206004820152601d60248201527f4f6e6c79206f7267616e697a65722063616e2065646974206576656e740000006044820152606401610967565b6000888152600c602090815260409091208851611f94926002909201918a01906147f4565b506000888152600c602090815260409091208751611fba926005909201918901906147f4565b506000888152600c602090815260409091208651611fe0926007909201918801906147f4565b506000888152600c602090815260409091208551612006926006909201918701906147f4565b506000888152600c602052604090819020600381018590556004018390555133907fc6c3b5ce58b3196884cdaee9a17eb22ca93be1fe7ed9dc66fcb99d4c5148d13b90612060908b908b908b908b908b908b908b9061524a565b60405180910390a25050505050505050565b600a5460405163d505accf60e01b81526001600160a01b039091169063d505accf906120ae90339030908a908a908a908a908a90600401614f70565b600060405180830381600087803b1580156120c857600080fd5b505af11580156120dc573d6000803e3d6000fd5b505050505050505050565b6111608383836040518060200160405280600081525061309c565b61211a600080516020615628833981519152336123e0565b61215f5760405162461bcd60e51b815260206004820152601660248201527521b0b63632b91034b9903737ba1030b71037bbb732b960511b6044820152606401610967565b6000601154116121b15760405162461bcd60e51b815260206004820152601a60248201527f4e6f7420656e6f75676820746f2062652077697468647261776e0000000000006044820152606401610967565b601154604051600091339181156108fc02919084818181858888f1935050505090508061220e5760405162461bcd60e51b815260206004820152600b60248201526a1cd95b990819985a5b195960aa1b6044820152606401610967565b60115460405190815233907f884edad9ce6fa2440d8a54cc123490eb96d2768479d49ff9c7366125a94243649060200160405180910390a2506000601155565b612266600080516020615628833981519152336123e0565b6122825760405162461bcd60e51b8152600401610967906152b4565b600980546001600160a01b0319166001600160a01b0392909216919091179055565b6122bc600080516020615628833981519152336123e0565b6122d85760405162461bcd60e51b8152600401610967906152b4565b600a80546001600160a01b0319166001600160a01b0392909216919091179055565b6000818152600360205260408120546001600160a01b03168061086e5760405162461bcd60e51b8152602060048201526018602482015277115490cdcc8c4e881a5b9d985b1a59081d1bdad95b88125160421b6044820152606401610967565b60006001600160a01b0382166123c45760405162461bcd60e51b815260206004820152602960248201527f4552433732313a2061646472657373207a65726f206973206e6f7420612076616044820152683634b21037bbb732b960b91b6064820152608401610967565b506001600160a01b031660009081526004602052604090205490565b6000918252602082815260408084206001600160a01b0393909316845291905290205460ff1690565b60606002805461088390614e89565b611c71338383614013565b60008181526003602052604081205482906001600160a01b03166124815760405162461bcd60e51b8152602060048201526015602482015274151a58dad95d08191bd95cc81b9bdd08195e1a5cdd605a1b6044820152606401610967565b823361248c826122fa565b6001600160a01b0316146124b25760405162461bcd60e51b8152600401610967906152f5565b6000848152600e6020908152604091829020825160e08101845281548152600182015492810192909252600281015492820192909252600382015460608201526004909101546001600160a01b038116608083015260ff600160a01b8204811615801560a0850152600160a81b90920416151560c08301526125765760405162461bcd60e51b815260206004820152601760248201527f536f7576656e697220616c7265616479206d696e7465640000000000000000006044820152606401610967565b8060c00151156125c85760405162461bcd60e51b815260206004820152601d60248201527f5469636b6574207374696c6c206861736e2774206265656e20757365640000006044820152606401610967565b6009546020808301516000908152600c82526040808220818601518352600a019092528181209151630d385de160e01b815290926001600160a01b031691630d385de19161262091339160069091019060040161533d565b602060405180830381600087803b15801561263a57600080fd5b505af115801561264e573d6000803e3d6000fd5b505050506040513d601f19601f820116820180604052508101906126729190614ec4565b600160a084018181526060850183815260008a8152600e6020908152604080832089518155828a0151968101879055818a01805160028301559451600382015560808a0151600482018054975160c08d01511515600160a81b0260ff60a81b19911515600160a01b026001600160a81b0319909a166001600160a01b0390941693909317989098179790971617909555948252600c815284822092518252600a909201909152829020915192935033927f108ce36cf86b1835deb7cbc46f1c93725226d26897938b8558b9a9ffb9bcf992926127549291869160060190615361565b60405180910390a295945050505050565b600a5460405163d505accf60e01b81526001600160a01b039091169063d505accf906127a190339030908a908a908a908a908a90600401614f70565b600060405180830381600087803b1580156127bb57600080fd5b505af11580156127cf573d6000803e3d6000fd5b505050506127db614878565b88816000018181525050338160c001906001600160a01b031690816001600160a01b031681525050878160200181815250508681604001818152505085816080018181525050848161010001818152505060018161012001901515908115158152505060008161014001901515908115158152505080600f60008b8152602001908152602001600020600082015181600001556020820151816001015560408201518160020155606082015181600301556080820151816004015560a08201518160050160006101000a8154816001600160a01b0302191690836001600160a01b0316021790555060c08201518160060160006101000a8154816001600160a01b0302191690836001600160a01b0316021790555060e08201518160060160146101000a81548160ff02191690831515021790555061010082015181600701556101208201518160080160006101000a81548160ff0219169083151502179055506101408201518160080160016101000a81548160ff021916908315150217905550905050336001600160a01b03167f8c0532da8a9f0675da764e7b35fbb8c2c8868976193fc36ffad259ddb5675ca48a8a8a8a8a6040516115c8959493929190948552602085019390935260408401919091526060830152608082015260a00190565b606061086e826132c3565b6000858152600f602052604090205485906129f75760405162461bcd60e51b815260040161096790615205565b6000868152600f6020526040902060058101546001600160a01b0316331415612a625760405162461bcd60e51b815260206004820152601a60248201527f43616e6e6f742062757920796f7572206f776e207469636b65740000000000006044820152606401610967565b600a5460048083015460405163d505accf60e01b81526001600160a01b039093169263d505accf92612aa092339230928d918d918d918d9101614f70565b600060405180830381600087803b158015612aba57600080fd5b505af1158015612ace573d6000803e3d6000fd5b50505050600481810154600a54604051636eb1769f60e11b8152339381019390935230602484015290916001600160a01b039091169063dd62ed3e9060440160206040518083038186803b158015612b2557600080fd5b505afa158015612b39573d6000803e3d6000fd5b505050506040513d601f19601f82011682018060405250810190612b5d9190614ec4565b1015612b7b5760405162461bcd60e51b815260040161096790614fb1565b600a5460058201546004808401546040516323b872dd60e01b815233928101929092526001600160a01b039283166024830152604482015260009291909116906323b872dd90606401602060405180830381600087803b158015612bde57600080fd5b505af1158015612bf2573d6000803e3d6000fd5b505050506040513d601f19601f82011682018060405250810190612c169190614fe8565b905080612c355760405162461bcd60e51b815260040161096790615005565b60058201546003830154612c54916001600160a01b0316903390613ea9565b60018260060160146101000a81548160ff021916908315150217905550338260060160006101000a8154816001600160a01b0302191690836001600160a01b031602179055506001600e60008460030154815260200190815260200160002060040160156101000a81548160ff0219169083151502179055508160060160009054906101000a90046001600160a01b0316600e60008460030154815260200190815260200160002060040160006101000a8154816001600160a01b0302191690836001600160a01b03160217905550336001600160a01b03168260050160009054906101000a90046001600160a01b03166001600160a01b0316897f74d4a4b83241ac6e92c85cb30050e3a85c7c42122aeef8712fc2f603a3a8c3cb856001015486600201548760030154600c60008a600101548152602001908152602001600020600a0160008a6002015481526020019081526020016000206005018960040154604051612dc79594939291906150e5565b60405180910390a450505060009485525050600f602052505060408120818155600181018290556002810182905560038101829055600481018290556005810180546001600160a01b03191690556006810180546001600160a81b03191690556007810191909155600801805461ffff19169055565b8133612e48826122fa565b6001600160a01b031614612e6e5760405162461bcd60e51b8152600401610967906152f5565b612e76614878565b86816000018181525050338160a001906001600160a01b031690816001600160a01b0316815250508581602001818152505084816040018181525050838160600181815250508281608001818152505060008161010001818152505060008161012001901515908115158152505060018161014001901515908115158152505080600f6000898152602001908152602001600020600082015181600001556020820151816001015560408201518160020155606082015181600301556080820151816004015560a08201518160050160006101000a8154816001600160a01b0302191690836001600160a01b0316021790555060c08201518160060160006101000a8154816001600160a01b0302191690836001600160a01b0316021790555060e08201518160060160146101000a81548160ff02191690831515021790555061010082015181600701556101208201518160080160006101000a81548160ff0219169083151502179055506101408201518160080160016101000a81548160ff0219169083151502179055509050506000600e600086815260200190815260200160002060040160156101000a81548160ff021916908315150217905550336001600160a01b0316877f0f27c48668db2e12a5e88bc77cf8b459181c7ee1e6264ddb55242efe89d9d0398888888860405161308b949392919093845260208401929092526040830152606082015260800190565b60405180910390a350505050505050565b6130a63383613c8f565b6130c25760405162461bcd60e51b8152600401610967906151b7565b6130ce848484846140da565b50505050565b6000878152600c602052604090205487906131015760405162461bcd60e51b815260040161096790614f0b565b6000888152600c602090815260408083208a8452600a019091529020548890889061313e5760405162461bcd60e51b815260040161096790614f39565b60008a8152600c60205260409020600101546001600160a01b031633146131b35760405162461bcd60e51b815260206004820152602360248201527f4f6e6c79206f7267616e697a65722063616e2065646974207469636b6574207460448201526279706560e81b6064820152608401610967565b6040805160e0810182528a815260208082018b8152828401899052606083018890526080830188905260a083018b905260c083018a905260008e8152600c83528481208e8252600a0183529390932082518155925180519293849390926132219260018501929101906147f4565b5060408201516002820155606082015160038201556080820151600482015560a0820151805161325b9160058401916020909101906147f4565b5060c082015180516132779160068401916020909101906147f4565b50506040513391507ffc051c354a57b794e7a2a34dc7a0ab81839aab32ad19ecc48bc4f2a549d7e469906132ae908e9085906153e1565b60405180910390a25050505050505050505050565b60606132ce82613bbf565b600082815260076020526040812080546132e790614e89565b80601f016020809104026020016040519081016040528092919081815260200182805461331390614e89565b80156133605780601f1061333557610100808354040283529160200191613360565b820191906000526020600020905b81548152906001019060200180831161334357829003601f168201915b50505050509050600061337e60408051602081019091526000815290565b9050805160001415613391575092915050565b8151156133c35780826040516020016133ab929190615469565b60405160208183030381529060405292505050919050565b6133cc8461410d565b949350505050565b6000878152600c602052604090205487906134015760405162461bcd60e51b815260040161096790614f0b565b613419600080516020615648833981519152336123e0565b6134355760405162461bcd60e51b81526004016109679061511c565b6000888152600c60205260409020600101546001600160a01b031633146134c45760405162461bcd60e51b815260206004820152603760248201527f4f6e6c7920746865206f7267616e697a6572206f662074686973206576656e7460448201527f2063616e20637265617465207469636b657420747970650000000000000000006064820152608401610967565b6000888152600c602090815260408083208a8452600a019091529020541561352e5760405162461bcd60e51b815260206004820152601a60248201527f5469636b6574207479706520616c7265616479206578697374730000000000006044820152606401610967565b6040805160e0810182528881526020808201898152828401879052606083018690526080830186905260a0830189905260c0830188905260008c8152600c83528481208c8252600a01835293909320825181559251805192938493909261359c9260018501929101906147f4565b5060408201516002820155606082015160038201556080820151600482015560a082015180516135d69160058401916020909101906147f4565b5060c082015180516135f29160068401916020909101906147f4565b5050506000898152600c602081815260408084206008810180548e875260099092018452828620805460ff191660ff9093169290921790915592825282546001810184559284529220018990555133907f86f1c49c5e96f57ffd1bbdcf5973aa010e8c5bb16218eaace76fa50c7e66b5b7906115c8908c9085906153e1565b600a546040516340c10f1960e01b81523360048201523460248201526001600160a01b03909116906340c10f1990604401600060405180830381600087803b1580156136bc57600080fd5b505af11580156136d0573d6000803e3d6000fd5b5050505034601060008282546136e69190614ef3565b909155505060405134815233907fe1fffcc4923d04b559f4d29a8bfc6cda04eb5b0d3c460751c2402c5c5cc9109c9060200160405180910390a2565b60008281526020819052604090206001015461373d81613f20565b6111608383613fae565b61375f600080516020615628833981519152336123e0565b61377b5760405162461bcd60e51b8152600401610967906152b4565b601255565b613798600080516020615648833981519152336123e0565b6137b45760405162461bcd60e51b81526004016109679061511c565b6000878152600c6020526040902054156138075760405162461bcd60e51b81526020600482015260146024820152734576656e7420616c72656164792065786973747360601b6044820152606401610967565b600b805460018181019092557f0175b7a638427703f0dbe7bb9bbf987a2551717b34e79f33b5b1008d1fa01db9018890556000888152600c6020908152604090912089815591820180546001600160a01b03191633179055875161387192600201918901906147f4565b506000878152600c602090815260409091208651613897926005909201918801906147f4565b506000878152600c6020908152604090912085516138bd926007909201918701906147f4565b506000878152600c6020908152604090912084516138e3926006909201918601906147f4565b506000878152600c602052604090819020600381018490556004018290555133907fba44e3dea1f095c62db0d9f6facba383bf1c67dd759f22d118d3c81b5fbb36dd9061393d908a908a908a908a908a908a908a9061524a565b60405180910390a250505050505050565b6000818152600f6020526040902054819061397b5760405162461bcd60e51b815260040161096790615205565b6000828152600f6020526040902060068101546001600160a01b0316331480156139ae5750600881015460ff1615156001145b806139df575060058101546001600160a01b0316331480156139df5750600881015460ff6101009091041615156001145b613a2b5760405162461bcd60e51b815260206004820152601760248201527f4e6f7420746865206275796572206f722073656c6c65720000000000000000006044820152606401610967565b6006810154600160a01b900460ff1615613a805760405162461bcd60e51b815260206004820152601660248201527513d999995c88185b1c9958591e481858d8d95c1d195960521b6044820152606401610967565b6000838152600f602081815260408084206003810180548652600e84528286206004908101805460ff60a81b1916600160a81b179055898752949093528481556001810185905560028101859055918490559181018390556005810180546001600160a01b03191690556006810180546001600160a81b031916905560078101839055600801805461ffff1916905551339185917f74aeca155f6310e463cf88472fe14b61a7990f14c88a8f0a03b10306a88da8429190a3505050565b60006001600160e01b031982166380ac58cd60e01b1480613b6e57506001600160e01b03198216635b5e139f60e01b145b8061086e575061086e82614180565b611c718282613f2a565b6000613b97600880546001019055565b6000613ba260085490565b9050613bae84826141b5565b613bb881846142f7565b9392505050565b6000818152600360205260409020546001600160a01b0316613c1e5760405162461bcd60e51b8152602060048201526018602482015277115490cdcc8c4e881a5b9d985b1a59081d1bdad95b88125160421b6044820152606401610967565b50565b600081815260056020526040902080546001600160a01b0319166001600160a01b0384169081179091558190613c56826122fa565b6001600160a01b03167f8c5be1e5ebec7d5bd14f71427d1e84f3dd0314c0f7b2291e5b200ac8c7c3b92560405160405180910390a45050565b600080613c9b836122fa565b9050806001600160a01b0316846001600160a01b03161480613ce257506001600160a01b0380821660009081526006602090815260408083209388168352929052205460ff165b806133cc5750836001600160a01b0316613cfb84611028565b6001600160a01b031614949350505050565b826001600160a01b0316613d20826122fa565b6001600160a01b031614613d845760405162461bcd60e51b815260206004820152602560248201527f4552433732313a207472616e736665722066726f6d20696e636f72726563742060448201526437bbb732b960d91b6064820152608401610967565b6001600160a01b038216613de65760405162461bcd60e51b8152602060048201526024808201527f4552433732313a207472616e7366657220746f20746865207a65726f206164646044820152637265737360e01b6064820152608401610967565b613df1600082613c21565b6001600160a01b0383166000908152600460205260408120805460019290613e1a908490615233565b90915550506001600160a01b0382166000908152600460205260408120805460019290613e48908490614ef3565b909155505060008181526003602052604080822080546001600160a01b0319166001600160a01b0386811691821790925591518493918716917fddf252ad1be2c89b69c2b068fc378daa952ba7f163c4a11628f55a4df523b3ef91a4505050565b613eb4838383613d0d565b6000818152600e602090815260409182902060040180546001600160a01b0319166001600160a01b038681169182179092559251848152908616917f235a69dc2480d40b13f4bee2b08a32b678f03ca558ff46eba22ce16ace78b6ad91015b60405180910390a3505050565b613c1e8133614391565b613f3482826123e0565b611c71576000828152602081815260408083206001600160a01b03851684529091529020805460ff19166001179055613f6a3390565b6001600160a01b0316816001600160a01b0316837f2f8788117e7eff1d82e926ec794901d17c78024a50270940304540a733656f0d60405160405180910390a45050565b613fb882826123e0565b15611c71576000828152602081815260408083206001600160a01b0385168085529252808320805460ff1916905551339285917ff6391f5c32d9c69d2a47ea670b442974b53935d1edc7fd64eb21e047a839171b9190a45050565b816001600160a01b0316836001600160a01b031614156140755760405162461bcd60e51b815260206004820152601960248201527f4552433732313a20617070726f766520746f2063616c6c6572000000000000006044820152606401610967565b6001600160a01b03838116600081815260066020908152604080832094871680845294825291829020805460ff191686151590811790915591519182527f17307eab39ab6107e8899845ad3d59bd9653f200f220920489ca2b5937696c319101613f13565b6140e5848484613d0d565b6140f1848484846143f5565b6130ce5760405162461bcd60e51b815260040161096790615498565b606061411882613bbf565b600061412f60408051602081019091526000815290565b9050600081511161414f5760405180602001604052806000815250613bb8565b8061415984614502565b60405160200161416a929190615469565b6040516020818303038152906040529392505050565b60006001600160e01b03198216637965db0b60e01b148061086e57506301ffc9a760e01b6001600160e01b031983161461086e565b6001600160a01b03821661420b5760405162461bcd60e51b815260206004820181905260248201527f4552433732313a206d696e7420746f20746865207a65726f20616464726573736044820152606401610967565b6000818152600360205260409020546001600160a01b0316156142705760405162461bcd60e51b815260206004820152601c60248201527f4552433732313a20746f6b656e20616c7265616479206d696e746564000000006044820152606401610967565b6001600160a01b0382166000908152600460205260408120805460019290614299908490614ef3565b909155505060008181526003602052604080822080546001600160a01b0319166001600160a01b03861690811790915590518392907fddf252ad1be2c89b69c2b068fc378daa952ba7f163c4a11628f55a4df523b3ef908290a45050565b6000828152600360205260409020546001600160a01b03166143725760405162461bcd60e51b815260206004820152602e60248201527f45524337323155524953746f726167653a2055524920736574206f66206e6f6e60448201526d32bc34b9ba32b73a103a37b5b2b760911b6064820152608401610967565b60008281526007602090815260409091208251611160928401906147f4565b61439b82826123e0565b611c71576143b3816001600160a01b03166014614600565b6143be836020614600565b6040516020016143cf9291906154ea565b60408051601f198184030181529082905262461bcd60e51b825261096791600401614974565b60006001600160a01b0384163b156144f757604051630a85bd0160e11b81526001600160a01b0385169063150b7a029061443990339089908890889060040161555f565b602060405180830381600087803b15801561445357600080fd5b505af1925050508015614483575060408051601f3d908101601f1916820190925261448091810190615592565b60015b6144dd573d8080156144b1576040519150601f19603f3d011682016040523d82523d6000602084013e6144b6565b606091505b5080516144d55760405162461bcd60e51b815260040161096790615498565b805181602001fd5b6001600160e01b031916630a85bd0160e11b1490506133cc565b506001949350505050565b6060816145265750506040805180820190915260018152600360fc1b602082015290565b8160005b8115614550578061453a816155af565b91506145499050600a836155e0565b915061452a565b60008167ffffffffffffffff81111561456b5761456b614ae4565b6040519080825280601f01601f191660200182016040528015614595576020820181803683370190505b5090505b84156133cc576145aa600183615233565b91506145b7600a866155f4565b6145c2906030614ef3565b60f81b8183815181106145d7576145d761518b565b60200101906001600160f81b031916908160001a9053506145f9600a866155e0565b9450614599565b6060600061460f836002615608565b61461a906002614ef3565b67ffffffffffffffff81111561463257614632614ae4565b6040519080825280601f01601f19166020018201604052801561465c576020820181803683370190505b509050600360fc1b816000815181106146775761467761518b565b60200101906001600160f81b031916908160001a905350600f60fb1b816001815181106146a6576146a661518b565b60200101906001600160f81b031916908160001a90535060006146ca846002615608565b6146d5906001614ef3565b90505b600181111561474d576f181899199a1a9b1b9c1cb0b131b232b360811b85600f16601081106147095761470961518b565b1a60f81b82828151811061471f5761471f61518b565b60200101906001600160f81b031916908160001a90535060049490941c936147468161502e565b90506146d8565b508315613bb85760405162461bcd60e51b815260206004820181905260248201527f537472696e67733a20686578206c656e67746820696e73756666696369656e746044820152606401610967565b5080546147a890614e89565b6000825580601f106147b8575050565b601f016020900490600052602060002090810190613c1e91906148d4565b5080546000825590600052602060002090810190613c1e91906148d4565b82805461480090614e89565b90600052602060002090601f0160209004810192826148225760008555614868565b82601f1061483b57805160ff1916838001178555614868565b82800160010185558215614868579182015b8281111561486857825182559160200191906001019061484d565b506148749291506148d4565b5090565b6040805161016081018252600080825260208201819052918101829052606081018290526080810182905260a0810182905260c0810182905260e081018290526101008101829052610120810182905261014081019190915290565b5b8082111561487457600081556001016148d5565b6001600160e01b031981168114613c1e57600080fd5b60006020828403121561491157600080fd5b8135613bb8816148e9565b60005b8381101561493757818101518382015260200161491f565b838111156130ce5750506000910152565b6000815180845261496081602086016020860161491c565b601f01601f19169290920160200192915050565b602081526000613bb86020830184614948565b80356001600160a01b038116811461499e57600080fd5b919050565b803560ff8116811461499e57600080fd5b600080600080600080600060e0888a0312156149cf57600080fd5b87359650602088013595506149e660408901614987565b9450606088013593506149fb608089016149a3565b925060a0880135915060c0880135905092959891949750929550565b600060208284031215614a2957600080fd5b5035919050565b60008060408385031215614a4357600080fd5b614a4c83614987565b946020939093013593505050565b60008060408385031215614a6d57600080fd5b50508035926020909101359150565b600080600060608486031215614a9157600080fd5b614a9a84614987565b9250614aa860208501614987565b9150604084013590509250925092565b60008060408385031215614acb57600080fd5b82359150614adb60208401614987565b90509250929050565b634e487b7160e01b600052604160045260246000fd5b600067ffffffffffffffff80841115614b1557614b15614ae4565b604051601f8501601f19908116603f01168101908282118183101715614b3d57614b3d614ae4565b81604052809350858152868686011115614b5657600080fd5b858560208301376000602087830101525050509392505050565b600082601f830112614b8157600080fd5b613bb883833560208501614afa565b600080600080600080600060e0888a031215614bab57600080fd5b87359650602088013567ffffffffffffffff80821115614bca57600080fd5b614bd68b838c01614b70565b975060408a0135915080821115614bec57600080fd5b614bf88b838c01614b70565b965060608a0135915080821115614c0e57600080fd5b614c1a8b838c01614b70565b955060808a0135915080821115614c3057600080fd5b50614c3d8a828b01614b70565b93505060a0880135915060c0880135905092959891949750929550565b600080600080600060a08688031215614c7257600080fd5b8535945060208601359350614c89604087016149a3565b94979396509394606081013594506080013592915050565b600060208284031215614cb357600080fd5b613bb882614987565b8015158114613c1e57600080fd5b60008060408385031215614cdd57600080fd5b614ce683614987565b91506020830135614cf681614cbc565b809150509250929050565b600080600080600080600080610100898b031215614d1e57600080fd5b8835975060208901359650604089013595506060890135945060808901359350614d4a60a08a016149a3565b925060c0890135915060e089013590509295985092959890939650565b600080600080600060a08688031215614d7f57600080fd5b505083359560208501359550604085013594606081013594506080013592509050565b60008060008060808587031215614db857600080fd5b614dc185614987565b9350614dcf60208601614987565b925060408501359150606085013567ffffffffffffffff811115614df257600080fd5b8501601f81018713614e0357600080fd5b614e1287823560208401614afa565b91505092959194509250565b600080600080600080600060e0888a031215614e3957600080fd5b8735965060208801359550604088013567ffffffffffffffff80821115614bec57600080fd5b60008060408385031215614e7257600080fd5b614e7b83614987565b9150614adb60208401614987565b600181811c90821680614e9d57607f821691505b60208210811415614ebe57634e487b7160e01b600052602260045260246000fd5b50919050565b600060208284031215614ed657600080fd5b5051919050565b634e487b7160e01b600052601160045260246000fd5b60008219821115614f0657614f06614edd565b500190565b602080825260149082015273115d995b9d08191bd95cc81b9bdd08195e1a5cdd60621b604082015260600190565b6020808252601a908201527f5469636b6574207479706520646f6573206e6f74206578697374000000000000604082015260600190565b6001600160a01b0397881681529590961660208601526040850193909352606084019190915260ff16608083015260a082015260c081019190915260e00190565b60208082526017908201527f546f6b656e20616c6c6f77616e636520746f6f206c6f77000000000000000000604082015260600190565b600060208284031215614ffa57600080fd5b8151613bb881614cbc565b6020808252600f908201526e1d1c985b9cd9995c8819985a5b1959608a1b604082015260600190565b60008161503d5761503d614edd565b506000190190565b8054600090600181811c908083168061505f57607f831692505b602080841082141561508157634e487b7160e01b600052602260045260246000fd5b8388526020880182801561509c57600181146150ad576150d8565b60ff198716825282820197506150d8565b60008981526020902060005b878110156150d2578154848201529086019084016150b9565b83019850505b5050505050505092915050565b85815284602082015283604082015260a06060820152600061510a60a0830185615045565b90508260808301529695505050505050565b6020808252602c908201527f4f6e6c79206576656e74206f7267616e697a6572732063616e2063616c6c207460408201526b3434b990333ab731ba34b7b760a11b606082015260800190565b600060ff821660ff84168082101561518257615182614edd565b90039392505050565b634e487b7160e01b600052603260045260246000fd5b634e487b7160e01b600052603160045260246000fd5b6020808252602e908201527f4552433732313a2063616c6c6572206973206e6f7420746f6b656e206f776e6560408201526d1c881b9bdc88185c1c1c9bdd995960921b606082015260800190565b60208082526014908201527313d999995c88191bd95cc81b9bdd08195e1a5cdd60621b604082015260600190565b60008282101561524557615245614edd565b500390565b87815260e06020820152600061526360e0830189614948565b82810360408401526152758189614948565b905082810360608401526152898188614948565b9050828103608084015261529d8187614948565b60a0840195909552505060c0015295945050505050565b60208082526021908201527f4f6e6c79206f776e65722063616e2063616c6c20746869732066756e6374696f6040820152603760f91b606082015260800190565b60208082526028908201527f4f6e6c79207469636b6574206f776e65722063616e2063616c6c207468697320604082015267333ab731ba34b7b760c11b606082015260800190565b6001600160a01b03831681526040602082018190526000906133cc90830184615045565b600061012085548352600186015460208401526002860154604084015260038601546060840152600486015460018060a01b038116608085015260ff8160a01c16151560a08501526153bd60c0850160ff8360a81c1615159052565b508460e0840152806101008401526153d781840185615045565b9695505050505050565b82815260406020820152815160408201526000602083015160e0606084015261540e610120840182614948565b905060408401516080840152606084015160a0840152608084015160c084015260a0840151603f19808584030160e086015261544a8383614948565b925060c086015191508085840301610100860152506153d78282614948565b6000835161547b81846020880161491c565b83519083019061548f81836020880161491c565b01949350505050565b60208082526032908201527f4552433732313a207472616e7366657220746f206e6f6e20455243373231526560408201527131b2b4bb32b91034b6b83632b6b2b73a32b960711b606082015260800190565b7f416363657373436f6e74726f6c3a206163636f756e742000000000000000000081526000835161552281601785016020880161491c565b7001034b99036b4b9b9b4b733903937b6329607d1b601791840191820152835161555381602884016020880161491c565b01602801949350505050565b6001600160a01b03858116825284166020820152604081018390526080606082018190526000906153d790830184614948565b6000602082840312156155a457600080fd5b8151613bb8816148e9565b60006000198214156155c3576155c3614edd565b5060010190565b634e487b7160e01b600052601260045260246000fd5b6000826155ef576155ef6155ca565b500490565b600082615603576156036155ca565b500690565b600081600019048311821515161561562257615622614edd565b50029056feb19546dff01e856fb3f010c267a7b1c60363cf8a4664e21cc89c26224620214e4d2e7a1e3f5dd6e203f087b15756ccf0e4ccd947fe1b639a38540089a1e47f63a26469706673582212208cd47374882de2ad3674b6c1ee43d397d733aed85aa138a443c2aceb680c042664736f6c63430008090033",
  "linkReferences": {},
  "deployedLinkReferences": {}
}