{
  "_format": "hh-sol-artifact-1",
  "contractName": "TicketGenerator",
  "sourceName": "contracts/TicketGenerator.sol",
  "abi": [
    {
      "inputs": [
        {
          "internalType": "address",
          "name": "_tokenAddress",
          "type": "address"
        },
        {
          "internalType": "address",
          "name": "_souvenirGeneratorAddress",
          "type": "address"
        }
      ],
      "stateMutability": "nonpayable",
      "type": "constructor"
    },
    {
      "anonymous": false,
      "inputs": [
        {
          "indexed": true,
          "internalType": "bytes32",
          "name": "offerId",
          "type": "bytes32"
        },
        {
          "indexed": true,
          "internalType": "address",
          "name": "buyer",
          "type": "address"
        },
        {
          "indexed": true,
          "internalType": "address",
          "name": "seller",
          "type": "address"
        },
        {
          "indexed": false,
          "internalType": "bytes32",
          "name": "eventId",
          "type": "bytes32"
        },
        {
          "indexed": false,
          "internalType": "bytes32",
          "name": "ticketTypeId",
          "type": "bytes32"
        },
        {
          "indexed": false,
          "internalType": "uint256",
          "name": "ticketId",
          "type": "uint256"
        },
        {
          "indexed": false,
          "internalType": "uint256",
          "name": "price",
          "type": "uint256"
        }
      ],
      "name": "AcceptBuyOffer",
      "type": "event"
    },
    {
      "anonymous": false,
      "inputs": [
        {
          "indexed": true,
          "internalType": "bytes32",
          "name": "offerId",
          "type": "bytes32"
        },
        {
          "indexed": true,
          "internalType": "address",
          "name": "buyer",
          "type": "address"
        },
        {
          "indexed": true,
          "internalType": "address",
          "name": "seller",
          "type": "address"
        },
        {
          "indexed": false,
          "internalType": "bytes32",
          "name": "eventId",
          "type": "bytes32"
        },
        {
          "indexed": false,
          "internalType": "bytes32",
          "name": "ticketTypeId",
          "type": "bytes32"
        },
        {
          "indexed": false,
          "internalType": "uint256",
          "name": "ticketId",
          "type": "uint256"
        },
        {
          "indexed": false,
          "internalType": "uint256",
          "name": "price",
          "type": "uint256"
        }
      ],
      "name": "AcceptSellOffer",
      "type": "event"
    },
    {
      "anonymous": false,
      "inputs": [
        {
          "indexed": true,
          "internalType": "address",
          "name": "owner",
          "type": "address"
        },
        {
          "indexed": true,
          "internalType": "address",
          "name": "approved",
          "type": "address"
        },
        {
          "indexed": true,
          "internalType": "uint256",
          "name": "tokenId",
          "type": "uint256"
        }
      ],
      "name": "Approval",
      "type": "event"
    },
    {
      "anonymous": false,
      "inputs": [
        {
          "indexed": true,
          "internalType": "address",
          "name": "owner",
          "type": "address"
        },
        {
          "indexed": true,
          "internalType": "address",
          "name": "operator",
          "type": "address"
        },
        {
          "indexed": false,
          "internalType": "bool",
          "name": "approved",
          "type": "bool"
        }
      ],
      "name": "ApprovalForAll",
      "type": "event"
    },
    {
      "anonymous": false,
      "inputs": [
        {
          "indexed": true,
          "internalType": "address",
          "name": "buyer",
          "type": "address"
        },
        {
          "indexed": true,
          "internalType": "address",
          "name": "owner",
          "type": "address"
        },
        {
          "indexed": false,
          "internalType": "bytes32",
          "name": "eventId",
          "type": "bytes32"
        },
        {
          "indexed": false,
          "internalType": "bytes32",
          "name": "ticketTypeId",
          "type": "bytes32"
        },
        {
          "indexed": false,
          "internalType": "uint256",
          "name": "tokenId",
          "type": "uint256"
        },
        {
          "indexed": false,
          "internalType": "string",
          "name": "tokenURI",
          "type": "string"
        },
        {
          "indexed": false,
          "internalType": "uint256",
          "name": "eventStartTime",
          "type": "uint256"
        }
      ],
      "name": "BuyTicket",
      "type": "event"
    },
    {
      "anonymous": false,
      "inputs": [
        {
          "indexed": true,
          "internalType": "bytes32",
          "name": "offerId",
          "type": "bytes32"
        },
        {
          "indexed": true,
          "internalType": "address",
          "name": "sender",
          "type": "address"
        }
      ],
      "name": "CancelOffer",
      "type": "event"
    },
    {
      "anonymous": false,
      "inputs": [
        {
          "indexed": false,
          "internalType": "bytes32",
          "name": "offerId",
          "type": "bytes32"
        },
        {
          "indexed": true,
          "internalType": "address",
          "name": "buyer",
          "type": "address"
        },
        {
          "indexed": false,
          "internalType": "bytes32",
          "name": "eventId",
          "type": "bytes32"
        },
        {
          "indexed": false,
          "internalType": "bytes32",
          "name": "ticketTypeId",
          "type": "bytes32"
        },
        {
          "indexed": false,
          "internalType": "uint256",
          "name": "price",
          "type": "uint256"
        },
        {
          "indexed": false,
          "internalType": "uint256",
          "name": "deadline",
          "type": "uint256"
        }
      ],
      "name": "CreateBuyOffer",
      "type": "event"
    },
    {
      "anonymous": false,
      "inputs": [
        {
          "indexed": true,
          "internalType": "address",
          "name": "creator",
          "type": "address"
        },
        {
          "indexed": false,
          "internalType": "bytes32",
          "name": "eventId",
          "type": "bytes32"
        },
        {
          "indexed": false,
          "internalType": "string",
          "name": "name",
          "type": "string"
        },
        {
          "indexed": false,
          "internalType": "string",
          "name": "description",
          "type": "string"
        },
        {
          "indexed": false,
          "internalType": "string",
          "name": "eventStorage",
          "type": "string"
        },
        {
          "indexed": false,
          "internalType": "uint256",
          "name": "startTime",
          "type": "uint256"
        },
        {
          "indexed": false,
          "internalType": "uint256",
          "name": "endTime",
          "type": "uint256"
        }
      ],
      "name": "CreateEvent",
      "type": "event"
    },
    {
      "anonymous": false,
      "inputs": [
        {
          "indexed": true,
          "internalType": "bytes32",
          "name": "offerId",
          "type": "bytes32"
        },
        {
          "indexed": true,
          "internalType": "address",
          "name": "seller",
          "type": "address"
        },
        {
          "indexed": false,
          "internalType": "bytes32",
          "name": "eventId",
          "type": "bytes32"
        },
        {
          "indexed": false,
          "internalType": "bytes32",
          "name": "ticketTypeId",
          "type": "bytes32"
        },
        {
          "indexed": false,
          "internalType": "uint256",
          "name": "ticketId",
          "type": "uint256"
        },
        {
          "indexed": false,
          "internalType": "uint256",
          "name": "price",
          "type": "uint256"
        }
      ],
      "name": "CreateSellOffer",
      "type": "event"
    },
    {
      "anonymous": false,
      "inputs": [
        {
          "indexed": true,
          "internalType": "address",
          "name": "creator",
          "type": "address"
        },
        {
          "indexed": false,
          "internalType": "bytes32",
          "name": "eventId",
          "type": "bytes32"
        },
        {
          "components": [
            {
              "internalType": "bytes32",
              "name": "id",
              "type": "bytes32"
            },
            {
              "internalType": "string",
              "name": "name",
              "type": "string"
            },
            {
              "internalType": "uint256",
              "name": "price",
              "type": "uint256"
            },
            {
              "internalType": "uint256",
              "name": "maxSupply",
              "type": "uint256"
            },
            {
              "internalType": "uint256",
              "name": "currentSupply",
              "type": "uint256"
            },
            {
              "internalType": "string",
              "name": "tokenURI",
              "type": "string"
            },
            {
              "internalType": "string",
              "name": "souvenirTokenURI",
              "type": "string"
            }
          ],
          "indexed": false,
          "internalType": "struct Structs.TicketType",
          "name": "ticketType",
          "type": "tuple"
        }
      ],
      "name": "CreateTicketType",
      "type": "event"
    },
    {
      "anonymous": false,
      "inputs": [
        {
          "indexed": true,
          "internalType": "address",
          "name": "creator",
          "type": "address"
        },
        {
          "indexed": false,
          "internalType": "bytes32",
          "name": "eventId",
          "type": "bytes32"
        }
      ],
      "name": "DeleteEvent",
      "type": "event"
    },
    {
      "anonymous": false,
      "inputs": [
        {
          "indexed": true,
          "internalType": "address",
          "name": "creator",
          "type": "address"
        },
        {
          "indexed": false,
          "internalType": "bytes32",
          "name": "eventId",
          "type": "bytes32"
        },
        {
          "indexed": false,
          "internalType": "bytes32",
          "name": "ticketTypeId",
          "type": "bytes32"
        }
      ],
      "name": "DeleteTickeyType",
      "type": "event"
    },
    {
      "anonymous": false,
      "inputs": [
        {
          "indexed": true,
          "internalType": "address",
          "name": "sender",
          "type": "address"
        },
        {
          "indexed": false,
          "internalType": "uint256",
          "name": "amount",
          "type": "uint256"
        }
      ],
      "name": "Deposit",
      "type": "event"
    },
    {
      "anonymous": false,
      "inputs": [
        {
          "indexed": true,
          "internalType": "address",
          "name": "creator",
          "type": "address"
        },
        {
          "indexed": true,
          "internalType": "address",
          "name": "receiver",
          "type": "address"
        },
        {
          "indexed": false,
          "internalType": "uint256",
          "name": "tokenId",
          "type": "uint256"
        },
        {
          "indexed": false,
          "internalType": "string",
          "name": "tokenURI",
          "type": "string"
        }
      ],
      "name": "GenerateTicket",
      "type": "event"
    },
    {
      "anonymous": false,
      "inputs": [
        {
          "indexed": true,
          "internalType": "bytes32",
          "name": "role",
          "type": "bytes32"
        },
        {
          "indexed": true,
          "internalType": "bytes32",
          "name": "previousAdminRole",
          "type": "bytes32"
        },
        {
          "indexed": true,
          "internalType": "bytes32",
          "name": "newAdminRole",
          "type": "bytes32"
        }
      ],
      "name": "RoleAdminChanged",
      "type": "event"
    },
    {
      "anonymous": false,
      "inputs": [
        {
          "indexed": true,
          "internalType": "bytes32",
          "name": "role",
          "type": "bytes32"
        },
        {
          "indexed": true,
          "internalType": "address",
          "name": "account",
          "type": "address"
        },
        {
          "indexed": true,
          "internalType": "address",
          "name": "sender",
          "type": "address"
        }
      ],
      "name": "RoleGranted",
      "type": "event"
    },
    {
      "anonymous": false,
      "inputs": [
        {
          "indexed": true,
          "internalType": "bytes32",
          "name": "role",
          "type": "bytes32"
        },
        {
          "indexed": true,
          "internalType": "address",
          "name": "account",
          "type": "address"
        },
        {
          "indexed": true,
          "internalType": "address",
          "name": "sender",
          "type": "address"
        }
      ],
      "name": "RoleRevoked",
      "type": "event"
    },
    {
      "anonymous": false,
      "inputs": [
        {
          "indexed": true,
          "internalType": "address",
          "name": "from",
          "type": "address"
        },
        {
          "indexed": true,
          "internalType": "address",
          "name": "to",
          "type": "address"
        },
        {
          "indexed": true,
          "internalType": "uint256",
          "name": "tokenId",
          "type": "uint256"
        }
      ],
      "name": "Transfer",
      "type": "event"
    },
    {
      "anonymous": false,
      "inputs": [
        {
          "indexed": true,
          "internalType": "address",
          "name": "sender",
          "type": "address"
        },
        {
          "indexed": true,
          "internalType": "address",
          "name": "receiver",
          "type": "address"
        },
        {
          "indexed": false,
          "internalType": "uint256",
          "name": "tokenId",
          "type": "uint256"
        }
      ],
      "name": "TransferTicket",
      "type": "event"
    },
    {
      "anonymous": false,
      "inputs": [
        {
          "indexed": true,
          "internalType": "address",
          "name": "creator",
          "type": "address"
        },
        {
          "indexed": false,
          "internalType": "bytes32",
          "name": "eventId",
          "type": "bytes32"
        },
        {
          "indexed": false,
          "internalType": "string",
          "name": "name",
          "type": "string"
        },
        {
          "indexed": false,
          "internalType": "string",
          "name": "description",
          "type": "string"
        },
        {
          "indexed": false,
          "internalType": "string",
          "name": "eventStorage",
          "type": "string"
        },
        {
          "indexed": false,
          "internalType": "uint256",
          "name": "startTime",
          "type": "uint256"
        },
        {
          "indexed": false,
          "internalType": "uint256",
          "name": "endTime",
          "type": "uint256"
        }
      ],
      "name": "UpdateEvent",
      "type": "event"
    },
    {
      "anonymous": false,
      "inputs": [
        {
          "indexed": true,
          "internalType": "address",
          "name": "creator",
          "type": "address"
        },
        {
          "indexed": false,
          "internalType": "bytes32",
          "name": "eventId",
          "type": "bytes32"
        },
        {
          "components": [
            {
              "internalType": "bytes32",
              "name": "id",
              "type": "bytes32"
            },
            {
              "internalType": "string",
              "name": "name",
              "type": "string"
            },
            {
              "internalType": "uint256",
              "name": "price",
              "type": "uint256"
            },
            {
              "internalType": "uint256",
              "name": "maxSupply",
              "type": "uint256"
            },
            {
              "internalType": "uint256",
              "name": "currentSupply",
              "type": "uint256"
            },
            {
              "internalType": "string",
              "name": "tokenURI",
              "type": "string"
            },
            {
              "internalType": "string",
              "name": "souvenirTokenURI",
              "type": "string"
            }
          ],
          "indexed": false,
          "internalType": "struct Structs.TicketType",
          "name": "ticketType",
          "type": "tuple"
        }
      ],
      "name": "UpdateTicketType",
      "type": "event"
    },
    {
      "anonymous": false,
      "inputs": [
        {
          "indexed": true,
          "internalType": "address",
          "name": "sender",
          "type": "address"
        },
        {
          "indexed": false,
          "internalType": "uint256",
          "name": "ticketId",
          "type": "uint256"
        }
      ],
      "name": "UseTicket",
      "type": "event"
    },
    {
      "anonymous": false,
      "inputs": [
        {
          "indexed": true,
          "internalType": "address",
          "name": "receiver",
          "type": "address"
        },
        {
          "indexed": false,
          "internalType": "uint256",
          "name": "amount",
          "type": "uint256"
        }
      ],
      "name": "Withdraw",
      "type": "event"
    },
    {
      "inputs": [],
      "name": "DEFAULT_ADMIN_ROLE",
      "outputs": [
        {
          "internalType": "bytes32",
          "name": "",
          "type": "bytes32"
        }
      ],
      "stateMutability": "view",
      "type": "function"
    },
    {
      "inputs": [],
      "name": "MINTER_ROLE",
      "outputs": [
        {
          "internalType": "bytes32",
          "name": "",
          "type": "bytes32"
        }
      ],
      "stateMutability": "view",
      "type": "function"
    },
    {
      "inputs": [],
      "name": "ORGANIZER_ROLE",
      "outputs": [
        {
          "internalType": "bytes32",
          "name": "",
          "type": "bytes32"
        }
      ],
      "stateMutability": "view",
      "type": "function"
    },
    {
      "inputs": [],
      "name": "OWNER_ROLE",
      "outputs": [
        {
          "internalType": "bytes32",
          "name": "",
          "type": "bytes32"
        }
      ],
      "stateMutability": "view",
      "type": "function"
    },
    {
      "inputs": [
        {
          "internalType": "bytes32",
          "name": "id",
          "type": "bytes32"
        }
      ],
      "name": "acceptBuyOffer",
      "outputs": [],
      "stateMutability": "nonpayable",
      "type": "function"
    },
    {
      "inputs": [
        {
          "internalType": "bytes32",
          "name": "id",
          "type": "bytes32"
        },
        {
          "internalType": "uint256",
          "name": "deadline",
          "type": "uint256"
        },
        {
          "internalType": "uint8",
          "name": "v",
          "type": "uint8"
        },
        {
          "internalType": "bytes32",
          "name": "r",
          "type": "bytes32"
        },
        {
          "internalType": "bytes32",
          "name": "s",
          "type": "bytes32"
        }
      ],
      "name": "acceptSellOffer",
      "outputs": [],
      "stateMutability": "nonpayable",
      "type": "function"
    },
    {
      "inputs": [
        {
          "internalType": "address",
          "name": "to",
          "type": "address"
        },
        {
          "internalType": "uint256",
          "name": "tokenId",
          "type": "uint256"
        }
      ],
      "name": "approve",
      "outputs": [],
      "stateMutability": "nonpayable",
      "type": "function"
    },
    {
      "inputs": [
        {
          "internalType": "address",
          "name": "owner",
          "type": "address"
        }
      ],
      "name": "balanceOf",
      "outputs": [
        {
          "internalType": "uint256",
          "name": "",
          "type": "uint256"
        }
      ],
      "stateMutability": "view",
      "type": "function"
    },
    {
      "inputs": [],
      "name": "becomeOrganizer",
      "outputs": [],
      "stateMutability": "nonpayable",
      "type": "function"
    },
    {
      "inputs": [
        {
          "internalType": "bytes32",
          "name": "_eventId",
          "type": "bytes32"
        },
        {
          "internalType": "bytes32",
          "name": "_ticketTypeId",
          "type": "bytes32"
        },
        {
          "internalType": "address",
          "name": "_recipient",
          "type": "address"
        }
      ],
      "name": "buyTicket",
      "outputs": [
        {
          "internalType": "uint256",
          "name": "",
          "type": "uint256"
        }
      ],
      "stateMutability": "nonpayable",
      "type": "function"
    },
    {
      "inputs": [
        {
          "internalType": "bytes32",
          "name": "id",
          "type": "bytes32"
        }
      ],
      "name": "cancelOffer",
      "outputs": [],
      "stateMutability": "nonpayable",
      "type": "function"
    },
    {
      "inputs": [
        {
          "internalType": "bytes32",
          "name": "id",
          "type": "bytes32"
        },
        {
          "internalType": "bytes32",
          "name": "eventId",
          "type": "bytes32"
        },
        {
          "internalType": "bytes32",
          "name": "ticketTypeId",
          "type": "bytes32"
        },
        {
          "internalType": "uint256",
          "name": "price",
          "type": "uint256"
        },
        {
          "internalType": "uint256",
          "name": "deadline",
          "type": "uint256"
        },
        {
          "internalType": "uint8",
          "name": "v",
          "type": "uint8"
        },
        {
          "internalType": "bytes32",
          "name": "r",
          "type": "bytes32"
        },
        {
          "internalType": "bytes32",
          "name": "s",
          "type": "bytes32"
        }
      ],
      "name": "createBuyOffer",
      "outputs": [],
      "stateMutability": "nonpayable",
      "type": "function"
    },
    {
      "inputs": [
        {
          "internalType": "bytes32",
          "name": "_eventId",
          "type": "bytes32"
        },
        {
          "internalType": "string",
          "name": "_name",
          "type": "string"
        },
        {
          "internalType": "string",
          "name": "_description",
          "type": "string"
        },
        {
          "internalType": "string",
          "name": "eventStorage",
          "type": "string"
        },
        {
          "internalType": "uint256",
          "name": "startTime",
          "type": "uint256"
        },
        {
          "internalType": "uint256",
          "name": "endTime",
          "type": "uint256"
        }
      ],
      "name": "createEvent",
      "outputs": [],
      "stateMutability": "nonpayable",
      "type": "function"
    },
    {
      "inputs": [
        {
          "internalType": "bytes32",
          "name": "id",
          "type": "bytes32"
        },
        {
          "internalType": "bytes32",
          "name": "eventId",
          "type": "bytes32"
        },
        {
          "internalType": "bytes32",
          "name": "ticketTypeId",
          "type": "bytes32"
        },
        {
          "internalType": "uint256",
          "name": "ticketId",
          "type": "uint256"
        },
        {
          "internalType": "uint256",
          "name": "price",
          "type": "uint256"
        }
      ],
      "name": "createSellOffer",
      "outputs": [],
      "stateMutability": "nonpayable",
      "type": "function"
    },
    {
      "inputs": [
        {
          "internalType": "bytes32",
          "name": "_eventId",
          "type": "bytes32"
        },
        {
          "internalType": "bytes32",
          "name": "_ticketTypeId",
          "type": "bytes32"
        },
        {
          "internalType": "string",
          "name": "_ticketName",
          "type": "string"
        },
        {
          "internalType": "string",
          "name": "_tokenURI",
          "type": "string"
        },
        {
          "internalType": "string",
          "name": "_souvenirTokenURI",
          "type": "string"
        },
        {
          "internalType": "uint256",
          "name": "_price",
          "type": "uint256"
        },
        {
          "internalType": "uint256",
          "name": "_maxSupply",
          "type": "uint256"
        }
      ],
      "name": "createTicketType",
      "outputs": [],
      "stateMutability": "nonpayable",
      "type": "function"
    },
    {
      "inputs": [
        {
          "internalType": "bytes32",
          "name": "_eventId",
          "type": "bytes32"
        }
      ],
      "name": "deleteEvent",
      "outputs": [],
      "stateMutability": "nonpayable",
      "type": "function"
    },
    {
      "inputs": [],
      "name": "deposit",
      "outputs": [],
      "stateMutability": "payable",
      "type": "function"
    },
    {
      "inputs": [
        {
          "internalType": "uint256",
          "name": "tokenId",
          "type": "uint256"
        }
      ],
      "name": "getApproved",
      "outputs": [
        {
          "internalType": "address",
          "name": "",
          "type": "address"
        }
      ],
      "stateMutability": "view",
      "type": "function"
    },
    {
      "inputs": [
        {
          "internalType": "bytes32",
          "name": "_eventId",
          "type": "bytes32"
        }
      ],
      "name": "getEvent",
      "outputs": [
        {
          "internalType": "address",
          "name": "",
          "type": "address"
        },
        {
          "internalType": "string",
          "name": "",
          "type": "string"
        },
        {
          "internalType": "string",
          "name": "",
          "type": "string"
        },
        {
          "internalType": "string",
          "name": "",
          "type": "string"
        },
        {
          "internalType": "uint256",
          "name": "",
          "type": "uint256"
        },
        {
          "internalType": "uint256",
          "name": "",
          "type": "uint256"
        },
        {
          "internalType": "bytes32[]",
          "name": "",
          "type": "bytes32[]"
        }
      ],
      "stateMutability": "view",
      "type": "function"
    },
    {
      "inputs": [
        {
          "internalType": "uint256",
          "name": "_tokenId",
          "type": "uint256"
        }
      ],
      "name": "getMetadata",
      "outputs": [
        {
          "internalType": "string",
          "name": "",
          "type": "string"
        }
      ],
      "stateMutability": "view",
      "type": "function"
    },
    {
      "inputs": [
        {
          "internalType": "bytes32",
          "name": "id",
          "type": "bytes32"
        }
      ],
      "name": "getOffer",
      "outputs": [
        {
          "components": [
            {
              "internalType": "bytes32",
              "name": "id",
              "type": "bytes32"
            },
            {
              "internalType": "bytes32",
              "name": "eventId",
              "type": "bytes32"
            },
            {
              "internalType": "bytes32",
              "name": "ticketTypeId",
              "type": "bytes32"
            },
            {
              "internalType": "uint256",
              "name": "ticketId",
              "type": "uint256"
            },
            {
              "internalType": "uint256",
              "name": "price",
              "type": "uint256"
            },
            {
              "internalType": "address",
              "name": "seller",
              "type": "address"
            },
            {
              "internalType": "address",
              "name": "buyer",
              "type": "address"
            },
            {
              "internalType": "bool",
              "name": "accepted",
              "type": "bool"
            },
            {
              "internalType": "uint256",
              "name": "deadline",
              "type": "uint256"
            },
            {
              "internalType": "bool",
              "name": "buyOffer",
              "type": "bool"
            },
            {
              "internalType": "bool",
              "name": "sellOffer",
              "type": "bool"
            }
          ],
          "internalType": "struct Structs.Offer",
          "name": "",
          "type": "tuple"
        }
      ],
      "stateMutability": "view",
      "type": "function"
    },
    {
      "inputs": [
        {
          "internalType": "bytes32",
          "name": "role",
          "type": "bytes32"
        }
      ],
      "name": "getRoleAdmin",
      "outputs": [
        {
          "internalType": "bytes32",
          "name": "",
          "type": "bytes32"
        }
      ],
      "stateMutability": "view",
      "type": "function"
    },
    {
      "inputs": [
        {
          "internalType": "uint256",
          "name": "_ticketId",
          "type": "uint256"
        }
      ],
      "name": "getSouvenir",
      "outputs": [
        {
          "internalType": "uint256",
          "name": "",
          "type": "uint256"
        }
      ],
      "stateMutability": "nonpayable",
      "type": "function"
    },
    {
      "inputs": [
        {
          "internalType": "uint256",
          "name": "_ticketId",
          "type": "uint256"
        }
      ],
      "name": "getTicket",
      "outputs": [
        {
          "components": [
            {
              "internalType": "uint256",
              "name": "id",
              "type": "uint256"
            },
            {
              "internalType": "bytes32",
              "name": "eventId",
              "type": "bytes32"
            },
            {
              "internalType": "bytes32",
              "name": "ticketTypeId",
              "type": "bytes32"
            },
            {
              "internalType": "uint256",
              "name": "souvenirId",
              "type": "uint256"
            },
            {
              "internalType": "address",
              "name": "owner",
              "type": "address"
            },
            {
              "internalType": "bool",
              "name": "souvenirMinted",
              "type": "bool"
            },
            {
              "internalType": "bool",
              "name": "usable",
              "type": "bool"
            }
          ],
          "internalType": "struct Structs.Ticket",
          "name": "",
          "type": "tuple"
        }
      ],
      "stateMutability": "view",
      "type": "function"
    },
    {
      "inputs": [
        {
          "internalType": "bytes32",
          "name": "_eventId",
          "type": "bytes32"
        },
        {
          "internalType": "bytes32",
          "name": "_ticketTypeId",
          "type": "bytes32"
        }
      ],
      "name": "getTicketType",
      "outputs": [
        {
          "components": [
            {
              "internalType": "bytes32",
              "name": "id",
              "type": "bytes32"
            },
            {
              "internalType": "string",
              "name": "name",
              "type": "string"
            },
            {
              "internalType": "uint256",
              "name": "price",
              "type": "uint256"
            },
            {
              "internalType": "uint256",
              "name": "maxSupply",
              "type": "uint256"
            },
            {
              "internalType": "uint256",
              "name": "currentSupply",
              "type": "uint256"
            },
            {
              "internalType": "string",
              "name": "tokenURI",
              "type": "string"
            },
            {
              "internalType": "string",
              "name": "souvenirTokenURI",
              "type": "string"
            }
          ],
          "internalType": "struct Structs.TicketType",
          "name": "",
          "type": "tuple"
        }
      ],
      "stateMutability": "view",
      "type": "function"
    },
    {
      "inputs": [
        {
          "internalType": "bytes32",
          "name": "role",
          "type": "bytes32"
        },
        {
          "internalType": "address",
          "name": "account",
          "type": "address"
        }
      ],
      "name": "grantRole",
      "outputs": [],
      "stateMutability": "nonpayable",
      "type": "function"
    },
    {
      "inputs": [
        {
          "internalType": "bytes32",
          "name": "role",
          "type": "bytes32"
        },
        {
          "internalType": "address",
          "name": "account",
          "type": "address"
        }
      ],
      "name": "hasRole",
      "outputs": [
        {
          "internalType": "bool",
          "name": "",
          "type": "bool"
        }
      ],
      "stateMutability": "view",
      "type": "function"
    },
    {
      "inputs": [
        {
          "internalType": "address",
          "name": "owner",
          "type": "address"
        },
        {
          "internalType": "address",
          "name": "operator",
          "type": "address"
        }
      ],
      "name": "isApprovedForAll",
      "outputs": [
        {
          "internalType": "bool",
          "name": "",
          "type": "bool"
        }
      ],
      "stateMutability": "view",
      "type": "function"
    },
    {
      "inputs": [],
      "name": "name",
      "outputs": [
        {
          "internalType": "string",
          "name": "",
          "type": "string"
        }
      ],
      "stateMutability": "view",
      "type": "function"
    },
    {
      "inputs": [
        {
          "internalType": "uint256",
          "name": "tokenId",
          "type": "uint256"
        }
      ],
      "name": "ownerOf",
      "outputs": [
        {
          "internalType": "address",
          "name": "",
          "type": "address"
        }
      ],
      "stateMutability": "view",
      "type": "function"
    },
    {
      "inputs": [],
      "name": "ownerWithdraw",
      "outputs": [],
      "stateMutability": "nonpayable",
      "type": "function"
    },
    {
      "inputs": [
        {
          "internalType": "bytes32",
          "name": "_eventId",
          "type": "bytes32"
        },
        {
          "internalType": "bytes32",
          "name": "_ticketTypeId",
          "type": "bytes32"
        }
      ],
      "name": "removeTicketType",
      "outputs": [],
      "stateMutability": "nonpayable",
      "type": "function"
    },
    {
      "inputs": [
        {
          "internalType": "bytes32",
          "name": "role",
          "type": "bytes32"
        },
        {
          "internalType": "address",
          "name": "account",
          "type": "address"
        }
      ],
      "name": "renounceRole",
      "outputs": [],
      "stateMutability": "nonpayable",
      "type": "function"
    },
    {
      "inputs": [
        {
          "internalType": "bytes32",
          "name": "role",
          "type": "bytes32"
        },
        {
          "internalType": "address",
          "name": "account",
          "type": "address"
        }
      ],
      "name": "revokeRole",
      "outputs": [],
      "stateMutability": "nonpayable",
      "type": "function"
    },
    {
      "inputs": [
        {
          "internalType": "address",
          "name": "from",
          "type": "address"
        },
        {
          "internalType": "address",
          "name": "to",
          "type": "address"
        },
        {
          "internalType": "uint256",
          "name": "tokenId",
          "type": "uint256"
        }
      ],
      "name": "safeTransferFrom",
      "outputs": [],
      "stateMutability": "nonpayable",
      "type": "function"
    },
    {
      "inputs": [
        {
          "internalType": "address",
          "name": "from",
          "type": "address"
        },
        {
          "internalType": "address",
          "name": "to",
          "type": "address"
        },
        {
          "internalType": "uint256",
          "name": "tokenId",
          "type": "uint256"
        },
        {
          "internalType": "bytes",
          "name": "data",
          "type": "bytes"
        }
      ],
      "name": "safeTransferFrom",
      "outputs": [],
      "stateMutability": "nonpayable",
      "type": "function"
    },
    {
      "inputs": [
        {
          "internalType": "address",
          "name": "operator",
          "type": "address"
        },
        {
          "internalType": "bool",
          "name": "approved",
          "type": "bool"
        }
      ],
      "name": "setApprovalForAll",
      "outputs": [],
      "stateMutability": "nonpayable",
      "type": "function"
    },
    {
      "inputs": [
        {
          "internalType": "uint256",
          "name": "_organizerDeposit",
          "type": "uint256"
        }
      ],
      "name": "setOrganizerDeposit",
      "outputs": [],
      "stateMutability": "nonpayable",
      "type": "function"
    },
    {
      "inputs": [
        {
          "internalType": "address",
          "name": "_souvenirGeneratorAddress",
          "type": "address"
        }
      ],
      "name": "setSouvenirGeneratorContract",
      "outputs": [],
      "stateMutability": "nonpayable",
      "type": "function"
    },
    {
      "inputs": [
        {
          "internalType": "address",
          "name": "_tokenAddress",
          "type": "address"
        }
      ],
      "name": "setTIKContract",
      "outputs": [],
      "stateMutability": "nonpayable",
      "type": "function"
    },
    {
      "inputs": [
        {
          "internalType": "bytes4",
          "name": "interfaceId",
          "type": "bytes4"
        }
      ],
      "name": "supportsInterface",
      "outputs": [
        {
          "internalType": "bool",
          "name": "",
          "type": "bool"
        }
      ],
      "stateMutability": "view",
      "type": "function"
    },
    {
      "inputs": [],
      "name": "symbol",
      "outputs": [
        {
          "internalType": "string",
          "name": "",
          "type": "string"
        }
      ],
      "stateMutability": "view",
      "type": "function"
    },
    {
      "inputs": [
        {
          "internalType": "uint256",
          "name": "amount",
          "type": "uint256"
        },
        {
          "internalType": "uint256",
          "name": "deadline",
          "type": "uint256"
        },
        {
          "internalType": "uint8",
          "name": "v",
          "type": "uint8"
        },
        {
          "internalType": "bytes32",
          "name": "r",
          "type": "bytes32"
        },
        {
          "internalType": "bytes32",
          "name": "s",
          "type": "bytes32"
        }
      ],
      "name": "ticketPurchasePermit",
      "outputs": [],
      "stateMutability": "nonpayable",
      "type": "function"
    },
    {
      "inputs": [
        {
          "internalType": "uint256",
          "name": "tokenId",
          "type": "uint256"
        }
      ],
      "name": "tokenURI",
      "outputs": [
        {
          "internalType": "string",
          "name": "",
          "type": "string"
        }
      ],
      "stateMutability": "view",
      "type": "function"
    },
    {
      "inputs": [
        {
          "internalType": "address",
          "name": "from",
          "type": "address"
        },
        {
          "internalType": "address",
          "name": "to",
          "type": "address"
        },
        {
          "internalType": "uint256",
          "name": "tokenId",
          "type": "uint256"
        }
      ],
      "name": "transferFrom",
      "outputs": [],
      "stateMutability": "nonpayable",
      "type": "function"
    },
    {
      "inputs": [
        {
          "internalType": "bytes32",
          "name": "_eventId",
          "type": "bytes32"
        },
        {
          "internalType": "string",
          "name": "_name",
          "type": "string"
        },
        {
          "internalType": "string",
          "name": "_description",
          "type": "string"
        },
        {
          "internalType": "string",
          "name": "eventStorage",
          "type": "string"
        },
        {
          "internalType": "uint256",
          "name": "startTime",
          "type": "uint256"
        },
        {
          "internalType": "uint256",
          "name": "endTime",
          "type": "uint256"
        }
      ],
      "name": "updateEvent",
      "outputs": [],
      "stateMutability": "nonpayable",
      "type": "function"
    },
    {
      "inputs": [
        {
          "internalType": "bytes32",
          "name": "_eventId",
          "type": "bytes32"
        },
        {
          "internalType": "bytes32",
          "name": "_ticketTypeId",
          "type": "bytes32"
        },
        {
          "internalType": "string",
          "name": "_ticketName",
          "type": "string"
        },
        {
          "internalType": "string",
          "name": "_tokenURI",
          "type": "string"
        },
        {
          "internalType": "string",
          "name": "_souvenirTokenURI",
          "type": "string"
        },
        {
          "internalType": "uint256",
          "name": "_price",
          "type": "uint256"
        },
        {
          "internalType": "uint256",
          "name": "_maxSupply",
          "type": "uint256"
        }
      ],
      "name": "updateTicketType",
      "outputs": [],
      "stateMutability": "nonpayable",
      "type": "function"
    },
    {
      "inputs": [
        {
          "internalType": "uint256",
          "name": "_ticketId",
          "type": "uint256"
        }
      ],
      "name": "useTicket",
      "outputs": [],
      "stateMutability": "nonpayable",
      "type": "function"
    },
    {
      "inputs": [
        {
          "internalType": "uint256",
          "name": "amount",
          "type": "uint256"
        }
      ],
      "name": "userWithdraw",
      "outputs": [],
      "stateMutability": "nonpayable",
      "type": "function"
    }
  ],
  "bytecode": "0x60806040526000601055600060115566038d7ea4c680006012553480156200002657600080fd5b5060405162005ffb38038062005ffb8339810160408190526200004991620002bf565b604080518082018252600a815269151a58dad95d0813919560b21b60208083019182528351808501909452600384526213919560ea1b9084015281519192916200009691600191620001fc565b508051620000ac906002906020840190620001fc565b5050600980546001600160a01b038085166001600160a01b031992831617909255600a805492861692909116919091179055506200010b7fb19546dff01e856fb3f010c267a7b1c60363cf8a4664e21cc89c26224620214e336200014c565b620001377f4d2e7a1e3f5dd6e203f087b15756ccf0e4ccd947fe1b639a38540089a1e47f63336200014c565b620001446000336200014c565b505062000334565b6200015882826200015c565b5050565b6000828152602081815260408083206001600160a01b038516845290915290205460ff1662000158576000828152602081815260408083206001600160a01b03851684529091529020805460ff19166001179055620001b83390565b6001600160a01b0316816001600160a01b0316837f2f8788117e7eff1d82e926ec794901d17c78024a50270940304540a733656f0d60405160405180910390a45050565b8280546200020a90620002f7565b90600052602060002090601f0160209004810192826200022e576000855562000279565b82601f106200024957805160ff191683800117855562000279565b8280016001018555821562000279579182015b82811115620002795782518255916020019190600101906200025c565b50620002879291506200028b565b5090565b5b808211156200028757600081556001016200028c565b80516001600160a01b0381168114620002ba57600080fd5b919050565b60008060408385031215620002d357600080fd5b620002de83620002a2565b9150620002ee60208401620002a2565b90509250929050565b600181811c908216806200030c57607f821691505b602082108114156200032e57634e487b7160e01b600052602260045260246000fd5b50919050565b615cb780620003446000396000f3fe6080604052600436106102ae5760003560e01c80638c172fa211610175578063b88d4fde116100dc578063d539139311610095578063e58378bb1161006f578063e58378bb146108ff578063e5bdaeb714610921578063e985e9c514610941578063f952279e1461098a57600080fd5b8063d53913931461087e578063d547741f146108b2578063d597b8c8146108d257600080fd5b8063b88d4fde146107c9578063baab45fb146107e9578063c87b56dd14610809578063ceed06d514610829578063d0e30db014610849578063d3a819301461085157600080fd5b8063a43329ad1161012e578063a43329ad14610709578063a574cea414610729578063aa62f41e14610749578063addece2a14610769578063ae1e455414610789578063b64babc2146107a957600080fd5b80638c172fa21461064c57806391d148541461067f57806395d89b411461069f578063a217fddf146106b4578063a22cb465146106c9578063a38c7eb2146106e957600080fd5b806336568abe116102195780635c9d690e116101d25780635c9d690e1461052c57806363113c6a1461054c5780636352211e1461056c57806370a082311461058c5780637909cb59146105ac5780637dc379fa146105ce57600080fd5b806336568abe146104775780633b9056bf14610497578063419cc0ec146104b757806342842e0e146104d75780634311de8f146104f757806352c0cb6c1461050c57600080fd5b80631cc844bc1161026b5780631cc844bc146103a757806323b872dd146103c7578063248a9ca3146103e757806326606448146104175780632ae563c1146104375780632f2ff15d1461045757600080fd5b806301ffc9a7146102b3578063042e7ea9146102e857806306fdde031461031657806307b17fc914610338578063081812fc1461034f578063095ea7b314610387575b600080fd5b3480156102bf57600080fd5b506102d36102ce366004614e3d565b6109aa565b60405190151581526020015b60405180910390f35b3480156102f457600080fd5b50610308610303366004614e76565b6109bb565b6040519081526020016102df565b34801561032257600080fd5b5061032b610e1b565b6040516102df9190614f03565b34801561034457600080fd5b5061034d610ead565b005b34801561035b57600080fd5b5061036f61036a366004614f16565b611087565b6040516001600160a01b0390911681526020016102df565b34801561039357600080fd5b5061034d6103a2366004614f2f565b6110ae565b3480156103b357600080fd5b5061034d6103c2366004614f16565b6111c4565b3480156103d357600080fd5b5061034d6103e2366004614f59565b611395565b3480156103f357600080fd5b50610308610402366004614f16565b60009081526020819052604090206001015490565b34801561042357600080fd5b5061034d610432366004614f16565b6113c6565b34801561044357600080fd5b5061034d610452366004615041565b611611565b34801561046357600080fd5b5061034d6104723660046150e5565b6117b6565b34801561048357600080fd5b5061034d6104923660046150e5565b6117db565b3480156104a357600080fd5b5061034d6104b2366004614f16565b611859565b3480156104c357600080fd5b5061034d6104d2366004615122565b611a89565b3480156104e357600080fd5b5061034d6104f2366004614f59565b611afe565b34801561050357600080fd5b5061034d611b19565b34801561051857600080fd5b5061034d610527366004615169565b611c65565b34801561053857600080fd5b5061034d610547366004615041565b611cbb565b34801561055857600080fd5b5061034d610567366004615169565b611e5f565b34801561057857600080fd5b5061036f610587366004614f16565b611eb5565b34801561059857600080fd5b506103086105a7366004615169565b611f15565b3480156105b857600080fd5b50610308600080516020615c6283398151915281565b3480156105da57600080fd5b506105ee6105e9366004614f16565b611f9b565b6040516102df9190815181526020808301519082015260408083015190820152606080830151908201526080808301516001600160a01b03169082015260a08083015115159082015260c09182015115159181019190915260e00190565b34801561065857600080fd5b5061066c610667366004614f16565b6120b2565b6040516102df9796959493929190615184565b34801561068b57600080fd5b506102d361069a3660046150e5565b61233c565b3480156106ab57600080fd5b5061032b612365565b3480156106c057600080fd5b50610308600081565b3480156106d557600080fd5b5061034d6106e4366004615232565b612374565b3480156106f557600080fd5b50610308610704366004614f16565b61237f565b34801561071557600080fd5b5061034d610724366004615269565b6125e9565b34801561073557600080fd5b5061032b610744366004614f16565b612856565b34801561075557600080fd5b5061034d610764366004614f16565b612861565b34801561077557600080fd5b5061034d6107843660046152cf565b612b54565b34801561079557600080fd5b5061034d6107a4366004615122565b612dd8565b3480156107b557600080fd5b5061034d6107c43660046152f1565b613156565b3480156107d557600080fd5b5061034d6107e436600461532c565b6133b5565b3480156107f557600080fd5b5061034d6108043660046153a8565b6133ed565b34801561081557600080fd5b5061032b610824366004614f16565b6135dc565b34801561083557600080fd5b5061034d6108443660046153a8565b6136ed565b61034d61398a565b34801561085d57600080fd5b5061087161086c3660046152cf565b613a3b565b6040516102df91906154d0565b34801561088a57600080fd5b506103087f9f2df0fed2c77648de5860a4cc508cd0818c85b8b8a1ab4ceeef8d981c8956a681565b3480156108be57600080fd5b5061034d6108cd3660046150e5565b613cf5565b3480156108de57600080fd5b506108f26108ed366004614f16565b613d1a565b6040516102df91906154e3565b34801561090b57600080fd5b50610308600080516020615c4283398151915281565b34801561092d57600080fd5b5061034d61093c366004614f16565b613e2a565b34801561094d57600080fd5b506102d361095c36600461558e565b6001600160a01b03918216600090815260066020908152604080832093909416825291909152205460ff1690565b34801561099657600080fd5b5061034d6109a5366004614f16565b613e63565b60006109b582613ff4565b92915050565b6000838152600c602052604081205484906109f15760405162461bcd60e51b81526004016109e8906155b8565b60405180910390fd5b6000858152600c6020908152604080832087845260090190915290205485908590610a2e5760405162461bcd60e51b81526004016109e8906155e6565b6000878152600c60209081526040808320898452600981019092529091206004810154610a9d5760405162461bcd60e51b815260206004820152601f60248201527f5469636b6574732066726f6d2074686973207479706520736f6c64206f75740060448201526064016109e8565b6002810154600a54604051636eb1769f60e11b81523360048201523060248201526001600160a01b039091169063dd62ed3e9060440160206040518083038186803b158015610aeb57600080fd5b505afa158015610aff573d6000803e3d6000fd5b505050506040513d601f19601f82011682018060405250810190610b23919061561d565b1015610b415760405162461bcd60e51b81526004016109e890615636565b600a54600183015460028301546040516323b872dd60e01b81523360048201526001600160a01b039283166024820152604481019190915260009291909116906323b872dd90606401602060405180830381600087803b158015610ba457600080fd5b505af1158015610bb8573d6000803e3d6000fd5b505050506040513d601f19601f82011682018060405250810190610bdc919061566d565b905080610bfb5760405162461bcd60e51b81526004016109e89061568a565b600482018054906000610c0d836156c9565b91905055506000610caa89846005018054610c27906156e0565b80601f0160208091040260200160405190810160405280929190818152602001828054610c53906156e0565b8015610ca05780601f10610c7557610100808354040283529160200191610ca0565b820191906000526020600020905b815481529060010190602001808311610c8357829003601f168201915b5050505050614034565b9050610ceb6040805160e081018252600080825260208201819052918101829052606081018290526080810182905260a0810182905260c081019190915290565b81815260208082018d815260408084018e81526001600160a01b03808f1660808701818152600160c0890181815260008b8152600e9099528689208a5181558851818401558651600282015560608b015160038083019190915593516004909101805460a08d015193511515600160a81b0260ff60a81b19941515600160a01b026001600160a81b03199092169390981692909217919091179190911694909417909355600d805493840181559096527fd7b6990105719101dabeb77144f2a3385c8033acd3af97e9423a695e81ad1eb590910187905592519051938901549151929333937fa315c04ae5193ef2d9052d2616973c434126e9e2232a0e6b1b693a8289b3caec93610e04939291899160058d01916157b5565b60405180910390a3509a9950505050505050505050565b606060018054610e2a906156e0565b80601f0160208091040260200160405190810160405280929190818152602001828054610e56906156e0565b8015610ea35780601f10610e7857610100808354040283529160200191610ea3565b820191906000526020600020905b815481529060010190602001808311610e8657829003601f168201915b5050505050905090565b610ec5600080516020615c628339815191523361233c565b15610f125760405162461bcd60e51b815260206004820152601e60248201527f43616c6c657220697320616c726561647920616e206f7267616e697a6572000060448201526064016109e8565b601254600a546040516370a0823160e01b81523360048201526001600160a01b03909116906370a082319060240160206040518083038186803b158015610f5857600080fd5b505afa158015610f6c573d6000803e3d6000fd5b505050506040513d601f19601f82011682018060405250810190610f90919061561d565b1015610fec5760405162461bcd60e51b815260206004820152602560248201527f4e6f7420656e6f75676820746f6b656e7320746f206265636f6d65206f7267616044820152643734bd32b960d91b60648201526084016109e8565b600a54601254604051632770a7eb60e21b815233600482015260248101919091526001600160a01b0390911690639dc29fac90604401600060405180830381600087803b15801561103c57600080fd5b505af1158015611050573d6000803e3d6000fd5b5050505061106c600080516020615c62833981519152336140b9565b6012546011600082825461108091906157ec565b9091555050565b6000611092826140c3565b506000908152600560205260409020546001600160a01b031690565b60006110b982611eb5565b9050806001600160a01b0316836001600160a01b031614156111275760405162461bcd60e51b815260206004820152602160248201527f4552433732313a20617070726f76616c20746f2063757272656e74206f776e656044820152603960f91b60648201526084016109e8565b336001600160a01b03821614806111435750611143813361095c565b6111b55760405162461bcd60e51b815260206004820152603e60248201527f4552433732313a20617070726f76652063616c6c6572206973206e6f7420746f60448201527f6b656e206f776e6572206e6f7220617070726f76656420666f7220616c6c000060648201526084016109e8565b6111bf8383614125565b505050565b6000818152600c602052604090205481906111f15760405162461bcd60e51b81526004016109e8906155b8565b611209600080516020615c628339815191523361233c565b6112255760405162461bcd60e51b81526004016109e890615804565b6000828152600c60205260409020600101546001600160a01b0316331461128e5760405162461bcd60e51b815260206004820152601f60248201527f4f6e6c79206f7267616e697a65722063616e2072656d6f7665206576656e740060448201526064016109e8565b6000828152600c6020526040902060070154156112ed5760405162461bcd60e51b815260206004820152601c60248201527f4576656e74207374696c6c20686173207469636b65742074797065730000000060448201526064016109e8565b6000828152600c602052604081208181556001810180546001600160a01b03191690559061131e6002830182614cda565b6003820160009055600482016000905560058201600061133e9190614cda565b61134c600683016000614cda565b61135a600783016000614d14565b505060405182815233907f6e3bc81a96d2f5065ad94a6a93273d83748be7ace6c49f293c543738f62a5b6a9060200160405180910390a25050565b61139f3382614193565b6113bb5760405162461bcd60e51b81526004016109e890615850565b6111bf838383614211565b6113de600080516020615c628339815191523361233c565b6113fa5760405162461bcd60e51b81526004016109e890615804565b6000818152600e6020526040902060040154600160a81b900460ff166114565760405162461bcd60e51b81526020600482015260116024820152705469636b6574206e6f7420757361626c6560781b60448201526064016109e8565b6000818152600e602090815260408083206001908101548452600c90925290912001546001600160a01b031633146114c45760405162461bcd60e51b81526020600482015260116024820152702737ba103a34329037b933b0b734bd32b960791b60448201526064016109e8565b6000818152600e60209081526040808320600101548352600c9091529020600401541561154d576000818152600e60209081526040808320600101548352600c909152902060040154421061154d5760405162461bcd60e51b815260206004820152600f60248201526e115d995b9d081a185cc8195b991959608a1b60448201526064016109e8565b6000818152600e60209081526040808320600101548352600c9091529020600301544210156115b65760405162461bcd60e51b8152602060048201526015602482015274115d995b9d081a185cc81b9bdd081cdd185c9d1959605a1b60448201526064016109e8565b6000818152600e602052604090819020600401805460ff60a81b191690555133907f31684b65477a7d1fd4edef84ea40d8f3d6c7531a2e48dfdf9c8c55c8ec5496f9906116069084815260200190565b60405180910390a250565b611629600080516020615c628339815191523361233c565b6116455760405162461bcd60e51b81526004016109e890615804565b6000868152600c6020526040902054156116985760405162461bcd60e51b81526020600482015260146024820152734576656e7420616c72656164792065786973747360601b60448201526064016109e8565b600b805460018181019092557f0175b7a638427703f0dbe7bb9bbf987a2551717b34e79f33b5b1008d1fa01db9018790556000878152600c6020908152604090912088815591820180546001600160a01b0319163317905586516117029260020191880190614d32565b506000868152600c60209081526040909120855161172892600590920191870190614d32565b506000868152600c60209081526040909120845161174e92600690920191860190614d32565b506000868152600c602052604090819020600381018490556004018290555133907f7504b7211fc397a6d4b4a91cead765e14abf7680c1e7671c31087fc8d2c7256e906117a69089908990899089908990899061589e565b60405180910390a2505050505050565b6000828152602081905260409020600101546117d1816143ad565b6111bf83836143b7565b6001600160a01b038116331461184b5760405162461bcd60e51b815260206004820152602f60248201527f416363657373436f6e74726f6c3a2063616e206f6e6c792072656e6f756e636560448201526e103937b632b9903337b91039b2b63360891b60648201526084016109e8565b611855828261443b565b5050565b600a546040516370a0823160e01b81523360048201526000916001600160a01b0316906370a082319060240160206040518083038186803b15801561189d57600080fd5b505afa1580156118b1573d6000803e3d6000fd5b505050506040513d601f19601f820116820180604052508101906118d5919061561d565b9050808211156119275760405162461bcd60e51b815260206004820152601a60248201527f4e6f7420656e6f75676820746f2062652077697468647261776e00000000000060448201526064016109e8565b6010548211156119795760405162461bcd60e51b815260206004820152601e60248201527f57697468647261772069732063757272656e746c792064697361626c6564000060448201526064016109e8565b604051600090339084156108fc0290859084818181858888f193505050509050806119d45760405162461bcd60e51b815260206004820152600b60248201526a1cd95b990819985a5b195960aa1b60448201526064016109e8565b600a54604051632770a7eb60e21b8152336004820152602481018590526001600160a01b0390911690639dc29fac90604401600060405180830381600087803b158015611a2057600080fd5b505af1158015611a34573d6000803e3d6000fd5b50506040518581523392507f884edad9ce6fa2440d8a54cc123490eb96d2768479d49ff9c7366125a9424364915060200160405180910390a28260106000828254611a7f91906158f3565b9091555050505050565b600a5460405163d505accf60e01b81526001600160a01b039091169063d505accf90611ac590339030908a908a908a908a908a9060040161590a565b600060405180830381600087803b158015611adf57600080fd5b505af1158015611af3573d6000803e3d6000fd5b505050505050505050565b6111bf838383604051806020016040528060008152506133b5565b611b31600080516020615c428339815191523361233c565b611b765760405162461bcd60e51b815260206004820152601660248201527521b0b63632b91034b9903737ba1030b71037bbb732b960511b60448201526064016109e8565b600060115411611bc85760405162461bcd60e51b815260206004820152601a60248201527f4e6f7420656e6f75676820746f2062652077697468647261776e00000000000060448201526064016109e8565b601154604051600091339181156108fc02919084818181858888f19350505050905080611c255760405162461bcd60e51b815260206004820152600b60248201526a1cd95b990819985a5b195960aa1b60448201526064016109e8565b60115460405190815233907f884edad9ce6fa2440d8a54cc123490eb96d2768479d49ff9c7366125a94243649060200160405180910390a2506000601155565b611c7d600080516020615c428339815191523361233c565b611c995760405162461bcd60e51b81526004016109e89061594b565b600980546001600160a01b0319166001600160a01b0392909216919091179055565b6000868152600c60205260409020548690611ce85760405162461bcd60e51b81526004016109e8906155b8565b611d00600080516020615c628339815191523361233c565b611d1c5760405162461bcd60e51b81526004016109e890615804565b6000878152600c60205260409020600101546001600160a01b03163314611d855760405162461bcd60e51b815260206004820152601d60248201527f4f6e6c79206f7267616e697a65722063616e2065646974206576656e7400000060448201526064016109e8565b6000878152600c602090815260409091208751611daa92600290920191890190614d32565b506000878152600c602090815260409091208651611dd092600590920191880190614d32565b506000878152600c602090815260409091208551611df692600690920191870190614d32565b506000878152600c602052604090819020600381018590556004018390555133907fc261b9e16c24735219b284c636efee4491a482920a229627b9f62b9eec64cf2690611e4e908a908a908a908a908a908a9061589e565b60405180910390a250505050505050565b611e77600080516020615c428339815191523361233c565b611e935760405162461bcd60e51b81526004016109e89061594b565b600a80546001600160a01b0319166001600160a01b0392909216919091179055565b6000818152600360205260408120546001600160a01b0316806109b55760405162461bcd60e51b8152602060048201526018602482015277115490cdcc8c4e881a5b9d985b1a59081d1bdad95b88125160421b60448201526064016109e8565b60006001600160a01b038216611f7f5760405162461bcd60e51b815260206004820152602960248201527f4552433732313a2061646472657373207a65726f206973206e6f7420612076616044820152683634b21037bbb732b960b91b60648201526084016109e8565b506001600160a01b031660009081526004602052604090205490565b6040805160e081018252600080825260208201819052918101829052606081018290526080810182905260a0810182905260c081019190915260008281526003602052604090205482906001600160a01b03166120325760405162461bcd60e51b8152602060048201526015602482015274151a58dad95d08191bd95cc81b9bdd08195e1a5cdd605a1b60448201526064016109e8565b6000838152600e6020908152604091829020825160e08101845281548152600182015492810192909252600281015492820192909252600382015460608201526004909101546001600160a01b038116608083015260ff600160a01b82048116151560a0840152600160a81b90910416151560c082015291505b50919050565b6000818152600c60205260408120546060908190819084908190839088906120ec5760405162461bcd60e51b81526004016109e8906155b8565b6000898152600c602052604090206001810154600382015460048301546002840180546001600160a01b039094169390926005860192600687019260078801908690612137906156e0565b80601f0160208091040260200160405190810160405280929190818152602001828054612163906156e0565b80156121b05780601f10612185576101008083540402835291602001916121b0565b820191906000526020600020905b81548152906001019060200180831161219357829003601f168201915b505050505095508480546121c3906156e0565b80601f01602080910402602001604051908101604052809291908181526020018280546121ef906156e0565b801561223c5780601f106122115761010080835404028352916020019161223c565b820191906000526020600020905b81548152906001019060200180831161221f57829003601f168201915b5050505050945083805461224f906156e0565b80601f016020809104026020016040519081016040528092919081815260200182805461227b906156e0565b80156122c85780601f1061229d576101008083540402835291602001916122c8565b820191906000526020600020905b8154815290600101906020018083116122ab57829003601f168201915b505050505093508080548060200260200160405190810160405280929190818152602001828054801561231a57602002820191906000526020600020905b815481526020019060010190808311612306575b5050505050905098509850985098509850985098505050919395979092949650565b6000918252602082815260408084206001600160a01b0393909316845291905290205460ff1690565b606060028054610e2a906156e0565b6118553383836144a0565b60008181526003602052604081205482906001600160a01b03166123dd5760405162461bcd60e51b8152602060048201526015602482015274151a58dad95d08191bd95cc81b9bdd08195e1a5cdd605a1b60448201526064016109e8565b82336123e882611eb5565b6001600160a01b03161461240e5760405162461bcd60e51b81526004016109e89061598c565b6000848152600e6020908152604091829020825160e08101845281548152600182015492810192909252600281015492820192909252600382015460608201526004909101546001600160a01b038116608083015260ff600160a01b8204811615801560a0850152600160a81b90920416151560c08301526124d25760405162461bcd60e51b815260206004820152601760248201527f536f7576656e697220616c7265616479206d696e74656400000000000000000060448201526064016109e8565b8060c00151156125245760405162461bcd60e51b815260206004820152601d60248201527f5469636b6574207374696c6c206861736e2774206265656e207573656400000060448201526064016109e8565b600980546020808401516000908152600c825260408082208187015183529094019091528281209251630d385de160e01b815290926001600160a01b0390921691630d385de19161257f9133916006909101906004016159d4565b602060405180830381600087803b15801561259957600080fd5b505af11580156125ad573d6000803e3d6000fd5b505050506040513d601f19601f820116820180604052508101906125d1919061561d565b600160a0840152606090920182905250949350505050565b600a5460405163d505accf60e01b81526001600160a01b039091169063d505accf9061262590339030908a908a908a908a908a9060040161590a565b600060405180830381600087803b15801561263f57600080fd5b505af1158015612653573d6000803e3d6000fd5b5050505061265f614db6565b88816000018181525050338160c001906001600160a01b031690816001600160a01b031681525050878160200181815250508681604001818152505085816080018181525050848161010001818152505060018161012001901515908115158152505060008161014001901515908115158152505080600f60008b8152602001908152602001600020600082015181600001556020820151816001015560408201518160020155606082015181600301556080820151816004015560a08201518160050160006101000a8154816001600160a01b0302191690836001600160a01b0316021790555060c08201518160060160006101000a8154816001600160a01b0302191690836001600160a01b0316021790555060e08201518160060160146101000a81548160ff02191690831515021790555061010082015181600701556101208201518160080160006101000a81548160ff0219169083151502179055506101408201518160080160016101000a81548160ff021916908315150217905550905050336001600160a01b03167f8c0532da8a9f0675da764e7b35fbb8c2c8868976193fc36ffad259ddb5675ca48a8a8a8a8a604051612843959493929190948552602085019390935260408401919091526060830152608082015260a00190565b60405180910390a2505050505050505050565b60606109b5826135dc565b6000818152600f6020526040902060068101546001600160a01b03163314156128cc5760405162461bcd60e51b815260206004820152601a60248201527f43616e6e6f742062757920796f7572206f776e207469636b657400000000000060448201526064016109e8565b600481810154600a546006840154604051636eb1769f60e11b81526001600160a01b0391821694810194909452306024850152919291169063dd62ed3e9060440160206040518083038186803b15801561292557600080fd5b505afa158015612939573d6000803e3d6000fd5b505050506040513d601f19601f8201168201806040525081019061295d919061561d565b101561297b5760405162461bcd60e51b81526004016109e890615636565b600a5460068201546004808401546040516323b872dd60e01b81526001600160a01b0393841692810192909252336024830152604482015260009291909116906323b872dd90606401602060405180830381600087803b1580156129de57600080fd5b505af11580156129f2573d6000803e3d6000fd5b505050506040513d601f19601f82011682018060405250810190612a16919061566d565b905080612a355760405162461bcd60e51b81526004016109e89061568a565b60068201546003830154612a569133916001600160a01b039091169061456f565b60068201805460ff60a01b198116600160a01b179091556005830180546001600160a01b03191633908117909155600184015460028501546003860154600487015460408051948552602085019390935291830152606082015290916001600160a01b03169085907fac2220b05931eaf991777e20d926996c5b09de48166284b659e03b4ca4862c279060800160405180910390a450506000908152600f60205260408120818155600181018290556002810182905560038101829055600481018290556005810180546001600160a01b03191690556006810180546001600160a81b03191690556007810191909155600801805461ffff19169055565b6000828152600c60205260409020548290612b815760405162461bcd60e51b81526004016109e8906155b8565b6000838152600c6020908152604080832085845260090190915290205483908390612bbe5760405162461bcd60e51b81526004016109e8906155e6565b612bd6600080516020615c628339815191523361233c565b612bf25760405162461bcd60e51b81526004016109e890615804565b6000858152600c6020526040902060018101546001600160a01b03163314612c6a5760405162461bcd60e51b815260206004820152602560248201527f4f6e6c79206f7267616e697a65722063616e2072656d6f7665207469636b6574604482015264207479706560d81b60648201526084016109e8565b6000858152600982016020526040812081815590612c8b6001830182614cda565b600282016000905560038201600090556004820160009055600582016000612cb39190614cda565b612cc1600683016000614cda565b50506000858152600882016020526040812054600783015460ff9091169190612cec906001906159f8565b90506000836007018260ff1681548110612d0857612d08615a1b565b6000918252602080832090910154808352600887019091526040808320805460ff881660ff1991821681179092558c85529190932080549091169055600786018054919350839290918110612d5f57612d5f615a1b565b60009182526020909120015560078401805480612d7e57612d7e615a31565b60019003818190600052602060002001600090559055336001600160a01b03167fb410e6f99b84b07294f81fef7fc54f574ff6305a91ad7aa82c9e05deb5ca00918a8a604051612843929190918252602082015260400190565b6000858152600f6020526040902060058101546001600160a01b0316331415612e435760405162461bcd60e51b815260206004820152601a60248201527f43616e6e6f742062757920796f7572206f776e207469636b657400000000000060448201526064016109e8565b600a5460048083015460405163d505accf60e01b81526001600160a01b039093169263d505accf92612e8192339230928c918c918c918c910161590a565b600060405180830381600087803b158015612e9b57600080fd5b505af1158015612eaf573d6000803e3d6000fd5b50505050600481810154600a546006840154604051636eb1769f60e11b81526001600160a01b0391821694810194909452306024850152919291169063dd62ed3e9060440160206040518083038186803b158015612f0c57600080fd5b505afa158015612f20573d6000803e3d6000fd5b505050506040513d601f19601f82011682018060405250810190612f44919061561d565b1015612f625760405162461bcd60e51b81526004016109e890615636565b600a5460058201546004808401546040516323b872dd60e01b815233928101929092526001600160a01b039283166024830152604482015260009291909116906323b872dd90606401602060405180830381600087803b158015612fc557600080fd5b505af1158015612fd9573d6000803e3d6000fd5b505050506040513d601f19601f82011682018060405250810190612ffd919061566d565b90508061301c5760405162461bcd60e51b81526004016109e89061568a565b6005820154600383015461303b916001600160a01b031690339061456f565b6006820180546001600160a81b03191633908117600160a01b179091556003830180546000908152600e60209081526040918290206004908101805460ff60a81b1916600160a81b1790556005870154600188015460028901549554928901548551918252938101959095529284015260608301526001600160a01b03169089907fa8586e88602d9e61e16ab4c1ef48d8e37812253c8b89d4c2be6576f5891b6d279060800160405180910390a450505060009384525050600f6020525060408120818155600181018290556002810182905560038101829055600481018290556005810180546001600160a01b03191690556006810180546001600160a81b03191690556007810191909155600801805461ffff19169055565b813361316182611eb5565b6001600160a01b0316146131875760405162461bcd60e51b81526004016109e89061598c565b61318f614db6565b86816000018181525050338160a001906001600160a01b031690816001600160a01b0316815250508581602001818152505084816040018181525050838160600181815250508281608001818152505060008161010001818152505060008161012001901515908115158152505060008161014001901515908115158152505080600f6000898152602001908152602001600020600082015181600001556020820151816001015560408201518160020155606082015181600301556080820151816004015560a08201518160050160006101000a8154816001600160a01b0302191690836001600160a01b0316021790555060c08201518160060160006101000a8154816001600160a01b0302191690836001600160a01b0316021790555060e08201518160060160146101000a81548160ff02191690831515021790555061010082015181600701556101208201518160080160006101000a81548160ff0219169083151502179055506101408201518160080160016101000a81548160ff0219169083151502179055509050506000600e600086815260200190815260200160002060040160156101000a81548160ff021916908315150217905550336001600160a01b0316877f0f27c48668db2e12a5e88bc77cf8b459181c7ee1e6264ddb55242efe89d9d039888888886040516133a4949392919093845260208401929092526040830152606082015260800190565b60405180910390a350505050505050565b6133bf3383614193565b6133db5760405162461bcd60e51b81526004016109e890615850565b6133e784848484614617565b50505050565b6000878152600c6020526040902054879061341a5760405162461bcd60e51b81526004016109e8906155b8565b6000888152600c602090815260408083208a8452600901909152902054889088906134575760405162461bcd60e51b81526004016109e8906155e6565b60008a8152600c60205260409020600101546001600160a01b031633146134cc5760405162461bcd60e51b815260206004820152602360248201527f4f6e6c79206f7267616e697a65722063616e2065646974207469636b6574207460448201526279706560e81b60648201526084016109e8565b6040805160e0810182528a815260208082018b8152828401899052606083018890526080830188905260a083018b905260c083018a905260008e8152600c83528481208e8252600901835293909320825181559251805192938493909261353a926001850192910190614d32565b5060408201516002820155606082015160038201556080820151600482015560a08201518051613574916005840191602090910190614d32565b5060c08201518051613590916006840191602090910190614d32565b50506040513391507ffc051c354a57b794e7a2a34dc7a0ab81839aab32ad19ecc48bc4f2a549d7e469906135c7908e908590615a47565b60405180910390a25050505050505050505050565b60606135e7826140c3565b60008281526007602052604081208054613600906156e0565b80601f016020809104026020016040519081016040528092919081815260200182805461362c906156e0565b80156136795780601f1061364e57610100808354040283529160200191613679565b820191906000526020600020905b81548152906001019060200180831161365c57829003601f168201915b50505050509050600061369760408051602081019091526000815290565b90508051600014156136aa575092915050565b8151156136dc5780826040516020016136c4929190615a60565b60405160208183030381529060405292505050919050565b6136e58461464a565b949350505050565b6000878152600c6020526040902054879061371a5760405162461bcd60e51b81526004016109e8906155b8565b613732600080516020615c628339815191523361233c565b61374e5760405162461bcd60e51b81526004016109e890615804565b6000888152600c60205260409020600101546001600160a01b031633146137dd5760405162461bcd60e51b815260206004820152603760248201527f4f6e6c7920746865206f7267616e697a6572206f662074686973206576656e7460448201527f2063616e20637265617465207469636b6574207479706500000000000000000060648201526084016109e8565b6000888152600c602090815260408083208a8452600901909152902054156138475760405162461bcd60e51b815260206004820152601a60248201527f5469636b6574207479706520616c72656164792065786973747300000000000060448201526064016109e8565b6040805160e0810182528881526020808201898152828401879052606083018690526080830186905260a0830189905260c0830188905260008c8152600c83528481208c825260090183529390932082518155925180519293849390926138b5926001850192910190614d32565b5060408201516002820155606082015160038201556080820151600482015560a082015180516138ef916005840191602090910190614d32565b5060c0820151805161390b916006840191602090910190614d32565b5050506000898152600c602081815260408084206007810180548e875260089092018452828620805460ff191660ff9093169290921790915592825282546001810184559284529220018990555133907f86f1c49c5e96f57ffd1bbdcf5973aa010e8c5bb16218eaace76fa50c7e66b5b790612843908c908590615a47565b600a546040516340c10f1960e01b81523360048201523460248201526001600160a01b03909116906340c10f1990604401600060405180830381600087803b1580156139d557600080fd5b505af11580156139e9573d6000803e3d6000fd5b5050505034601060008282546139ff91906157ec565b909155505060405134815233907fe1fffcc4923d04b559f4d29a8bfc6cda04eb5b0d3c460751c2402c5c5cc9109c9060200160405180910390a2565b613a7e6040518060e00160405280600080191681526020016060815260200160008152602001600081526020016000815260200160608152602001606081525090565b6000838152600c60205260409020548390613aab5760405162461bcd60e51b81526004016109e8906155b8565b6000848152600c6020908152604080832086845260090190915290205484908490613ae85760405162461bcd60e51b81526004016109e8906155e6565b6000868152600c60209081526040808320888452600901825291829020825160e08101909352805483526001810180549192840191613b26906156e0565b80601f0160208091040260200160405190810160405280929190818152602001828054613b52906156e0565b8015613b9f5780601f10613b7457610100808354040283529160200191613b9f565b820191906000526020600020905b815481529060010190602001808311613b8257829003601f168201915b50505050508152602001600282015481526020016003820154815260200160048201548152602001600582018054613bd6906156e0565b80601f0160208091040260200160405190810160405280929190818152602001828054613c02906156e0565b8015613c4f5780601f10613c2457610100808354040283529160200191613c4f565b820191906000526020600020905b815481529060010190602001808311613c3257829003601f168201915b50505050508152602001600682018054613c68906156e0565b80601f0160208091040260200160405190810160405280929190818152602001828054613c94906156e0565b8015613ce15780601f10613cb657610100808354040283529160200191613ce1565b820191906000526020600020905b815481529060010190602001808311613cc457829003601f168201915b505050505081525050935050505092915050565b600082815260208190526040902060010154613d10816143ad565b6111bf838361443b565b613d22614db6565b6000828152600f60205260409020548290613d765760405162461bcd60e51b815260206004820152601460248201527313d999995c88191bd95cc81b9bdd08195e1a5cdd60621b60448201526064016109e8565b50506000908152600f602090815260409182902082516101608101845281548152600182015492810192909252600281015492820192909252600382015460608201526004820154608082015260058201546001600160a01b0390811660a0830152600683015490811660c0830152600160a01b900460ff908116151560e0830152600783015461010080840191909152600890930154808216151561012084015292909204909116151561014082015290565b613e42600080516020615c428339815191523361233c565b613e5e5760405162461bcd60e51b81526004016109e89061594b565b601255565b6000818152600f6020526040902060068101546001600160a01b031633148015613e965750600881015460ff1615156001145b80613ec1575060058101546001600160a01b031633148015613ec15750600881015460ff1615156001145b613f0d5760405162461bcd60e51b815260206004820152601760248201527f4e6f7420746865206275796572206f722073656c6c657200000000000000000060448201526064016109e8565b6006810154600160a01b900460ff1615613f625760405162461bcd60e51b815260206004820152601660248201527513d999995c88185b1c9958591e481858d8d95c1d195960521b60448201526064016109e8565b6000828152600f6020526040808220828155600181018390556002810183905560038101839055600481018390556005810180546001600160a01b03191690556006810180546001600160a81b031916905560078101839055600801805461ffff1916905551339184917f74aeca155f6310e463cf88472fe14b61a7990f14c88a8f0a03b10306a88da8429190a35050565b60006001600160e01b031982166380ac58cd60e01b148061402557506001600160e01b03198216635b5e139f60e01b145b806109b557506109b5826146be565b6000614044600880546001019055565b600061404f60085490565b905061405b84826146f3565b6140658184614835565b836001600160a01b0316336001600160a01b03167f3bfd449b4868a01647da19bf179397e8853acef45f717b1a679952bc67693cdd83866040516140aa929190615a8f565b60405180910390a39392505050565b61185582826143b7565b6000818152600360205260409020546001600160a01b03166141225760405162461bcd60e51b8152602060048201526018602482015277115490cdcc8c4e881a5b9d985b1a59081d1bdad95b88125160421b60448201526064016109e8565b50565b600081815260056020526040902080546001600160a01b0319166001600160a01b038416908117909155819061415a82611eb5565b6001600160a01b03167f8c5be1e5ebec7d5bd14f71427d1e84f3dd0314c0f7b2291e5b200ac8c7c3b92560405160405180910390a45050565b60008061419f83611eb5565b9050806001600160a01b0316846001600160a01b031614806141e657506001600160a01b0380821660009081526006602090815260408083209388168352929052205460ff165b806136e55750836001600160a01b03166141ff84611087565b6001600160a01b031614949350505050565b826001600160a01b031661422482611eb5565b6001600160a01b0316146142885760405162461bcd60e51b815260206004820152602560248201527f4552433732313a207472616e736665722066726f6d20696e636f72726563742060448201526437bbb732b960d91b60648201526084016109e8565b6001600160a01b0382166142ea5760405162461bcd60e51b8152602060048201526024808201527f4552433732313a207472616e7366657220746f20746865207a65726f206164646044820152637265737360e01b60648201526084016109e8565b6142f5600082614125565b6001600160a01b038316600090815260046020526040812080546001929061431e9084906158f3565b90915550506001600160a01b038216600090815260046020526040812080546001929061434c9084906157ec565b909155505060008181526003602052604080822080546001600160a01b0319166001600160a01b0386811691821790925591518493918716917fddf252ad1be2c89b69c2b068fc378daa952ba7f163c4a11628f55a4df523b3ef91a4505050565b61412281336148cf565b6143c1828261233c565b611855576000828152602081815260408083206001600160a01b03851684529091529020805460ff191660011790556143f73390565b6001600160a01b0316816001600160a01b0316837f2f8788117e7eff1d82e926ec794901d17c78024a50270940304540a733656f0d60405160405180910390a45050565b614445828261233c565b15611855576000828152602081815260408083206001600160a01b0385168085529252808320805460ff1916905551339285917ff6391f5c32d9c69d2a47ea670b442974b53935d1edc7fd64eb21e047a839171b9190a45050565b816001600160a01b0316836001600160a01b031614156145025760405162461bcd60e51b815260206004820152601960248201527f4552433732313a20617070726f766520746f2063616c6c65720000000000000060448201526064016109e8565b6001600160a01b03838116600081815260066020908152604080832094871680845294825291829020805460ff191686151590811790915591519182527f17307eab39ab6107e8899845ad3d59bd9653f200f220920489ca2b5937696c31910160405180910390a3505050565b803361457a82611eb5565b6001600160a01b0316146145a05760405162461bcd60e51b81526004016109e89061598c565b6145ab848484614211565b6000828152600e602090815260409182902060040180546001600160a01b0319166001600160a01b038781169182179092559251858152908716917f235a69dc2480d40b13f4bee2b08a32b678f03ca558ff46eba22ce16ace78b6ad910160405180910390a350505050565b614622848484614211565b61462e84848484614933565b6133e75760405162461bcd60e51b81526004016109e890615aa8565b6060614655826140c3565b600061466c60408051602081019091526000815290565b9050600081511161468c57604051806020016040528060008152506146b7565b8061469684614a40565b6040516020016146a7929190615a60565b6040516020818303038152906040525b9392505050565b60006001600160e01b03198216637965db0b60e01b14806109b557506301ffc9a760e01b6001600160e01b03198316146109b5565b6001600160a01b0382166147495760405162461bcd60e51b815260206004820181905260248201527f4552433732313a206d696e7420746f20746865207a65726f206164647265737360448201526064016109e8565b6000818152600360205260409020546001600160a01b0316156147ae5760405162461bcd60e51b815260206004820152601c60248201527f4552433732313a20746f6b656e20616c7265616479206d696e7465640000000060448201526064016109e8565b6001600160a01b03821660009081526004602052604081208054600192906147d79084906157ec565b909155505060008181526003602052604080822080546001600160a01b0319166001600160a01b03861690811790915590518392907fddf252ad1be2c89b69c2b068fc378daa952ba7f163c4a11628f55a4df523b3ef908290a45050565b6000828152600360205260409020546001600160a01b03166148b05760405162461bcd60e51b815260206004820152602e60248201527f45524337323155524953746f726167653a2055524920736574206f66206e6f6e60448201526d32bc34b9ba32b73a103a37b5b2b760911b60648201526084016109e8565b600082815260076020908152604090912082516111bf92840190614d32565b6148d9828261233c565b611855576148f1816001600160a01b03166014614b3e565b6148fc836020614b3e565b60405160200161490d929190615afa565b60408051601f198184030181529082905262461bcd60e51b82526109e891600401614f03565b60006001600160a01b0384163b15614a3557604051630a85bd0160e11b81526001600160a01b0385169063150b7a0290614977903390899088908890600401615b6f565b602060405180830381600087803b15801561499157600080fd5b505af19250505080156149c1575060408051601f3d908101601f191682019092526149be91810190615bac565b60015b614a1b573d8080156149ef576040519150601f19603f3d011682016040523d82523d6000602084013e6149f4565b606091505b508051614a135760405162461bcd60e51b81526004016109e890615aa8565b805181602001fd5b6001600160e01b031916630a85bd0160e11b1490506136e5565b506001949350505050565b606081614a645750506040805180820190915260018152600360fc1b602082015290565b8160005b8115614a8e5780614a7881615bc9565b9150614a879050600a83615bfa565b9150614a68565b60008167ffffffffffffffff811115614aa957614aa9614f95565b6040519080825280601f01601f191660200182016040528015614ad3576020820181803683370190505b5090505b84156136e557614ae86001836158f3565b9150614af5600a86615c0e565b614b009060306157ec565b60f81b818381518110614b1557614b15615a1b565b60200101906001600160f81b031916908160001a905350614b37600a86615bfa565b9450614ad7565b60606000614b4d836002615c22565b614b589060026157ec565b67ffffffffffffffff811115614b7057614b70614f95565b6040519080825280601f01601f191660200182016040528015614b9a576020820181803683370190505b509050600360fc1b81600081518110614bb557614bb5615a1b565b60200101906001600160f81b031916908160001a905350600f60fb1b81600181518110614be457614be4615a1b565b60200101906001600160f81b031916908160001a9053506000614c08846002615c22565b614c139060016157ec565b90505b6001811115614c8b576f181899199a1a9b1b9c1cb0b131b232b360811b85600f1660108110614c4757614c47615a1b565b1a60f81b828281518110614c5d57614c5d615a1b565b60200101906001600160f81b031916908160001a90535060049490941c93614c84816156c9565b9050614c16565b5083156146b75760405162461bcd60e51b815260206004820181905260248201527f537472696e67733a20686578206c656e67746820696e73756666696369656e7460448201526064016109e8565b508054614ce6906156e0565b6000825580601f10614cf6575050565b601f0160209004906000526020600020908101906141229190614e12565b50805460008255906000526020600020908101906141229190614e12565b828054614d3e906156e0565b90600052602060002090601f016020900481019282614d605760008555614da6565b82601f10614d7957805160ff1916838001178555614da6565b82800160010185558215614da6579182015b82811115614da6578251825591602001919060010190614d8b565b50614db2929150614e12565b5090565b6040805161016081018252600080825260208201819052918101829052606081018290526080810182905260a0810182905260c0810182905260e081018290526101008101829052610120810182905261014081019190915290565b5b80821115614db25760008155600101614e13565b6001600160e01b03198116811461412257600080fd5b600060208284031215614e4f57600080fd5b81356146b781614e27565b80356001600160a01b0381168114614e7157600080fd5b919050565b600080600060608486031215614e8b57600080fd5b8335925060208401359150614ea260408501614e5a565b90509250925092565b60005b83811015614ec6578181015183820152602001614eae565b838111156133e75750506000910152565b60008151808452614eef816020860160208601614eab565b601f01601f19169290920160200192915050565b6020815260006146b76020830184614ed7565b600060208284031215614f2857600080fd5b5035919050565b60008060408385031215614f4257600080fd5b614f4b83614e5a565b946020939093013593505050565b600080600060608486031215614f6e57600080fd5b614f7784614e5a565b9250614f8560208501614e5a565b9150604084013590509250925092565b634e487b7160e01b600052604160045260246000fd5b600067ffffffffffffffff80841115614fc657614fc6614f95565b604051601f8501601f19908116603f01168101908282118183101715614fee57614fee614f95565b8160405280935085815286868601111561500757600080fd5b858560208301376000602087830101525050509392505050565b600082601f83011261503257600080fd5b6146b783833560208501614fab565b60008060008060008060c0878903121561505a57600080fd5b86359550602087013567ffffffffffffffff8082111561507957600080fd5b6150858a838b01615021565b9650604089013591508082111561509b57600080fd5b6150a78a838b01615021565b955060608901359150808211156150bd57600080fd5b506150ca89828a01615021565b9350506080870135915060a087013590509295509295509295565b600080604083850312156150f857600080fd5b8235915061510860208401614e5a565b90509250929050565b803560ff81168114614e7157600080fd5b600080600080600060a0868803121561513a57600080fd5b853594506020860135935061515160408701615111565b94979396509394606081013594506080013592915050565b60006020828403121561517b57600080fd5b6146b782614e5a565b6001600160a01b038816815260e060208083018290526000916151a99084018a614ed7565b83810360408501526151bb818a614ed7565b905083810360608501526151cf8189614ed7565b6080850188905260a0850187905284810360c0860152855180825283870192509083019060005b81811015615212578351835292840192918401916001016151f6565b50909c9b505050505050505050505050565b801515811461412257600080fd5b6000806040838503121561524557600080fd5b61524e83614e5a565b9150602083013561525e81615224565b809150509250929050565b600080600080600080600080610100898b03121561528657600080fd5b88359750602089013596506040890135955060608901359450608089013593506152b260a08a01615111565b925060c0890135915060e089013590509295985092959890939650565b600080604083850312156152e257600080fd5b50508035926020909101359150565b600080600080600060a0868803121561530957600080fd5b505083359560208501359550604085013594606081013594506080013592509050565b6000806000806080858703121561534257600080fd5b61534b85614e5a565b935061535960208601614e5a565b925060408501359150606085013567ffffffffffffffff81111561537c57600080fd5b8501601f8101871361538d57600080fd5b61539c87823560208401614fab565b91505092959194509250565b600080600080600080600060e0888a0312156153c357600080fd5b8735965060208801359550604088013567ffffffffffffffff808211156153e957600080fd5b6153f58b838c01615021565b965060608a013591508082111561540b57600080fd5b6154178b838c01615021565b955060808a013591508082111561542d57600080fd5b5061543a8a828b01615021565b93505060a0880135915060c0880135905092959891949750929550565b805182526000602082015160e0602085015261547660e0850182614ed7565b905060408301516040850152606083015160608501526080830151608085015260a083015184820360a08601526154ad8282614ed7565b91505060c083015184820360c08601526154c78282614ed7565b95945050505050565b6020815260006146b76020830184615457565b600061016082019050825182526020830151602083015260408301516040830152606083015160608301526080830151608083015260a083015161553260a08401826001600160a01b03169052565b5060c083015161554d60c08401826001600160a01b03169052565b5060e083015161556160e084018215159052565b50610100838101519083015261012080840151151590830152610140928301511515929091019190915290565b600080604083850312156155a157600080fd5b6155aa83614e5a565b915061510860208401614e5a565b602080825260149082015273115d995b9d08191bd95cc81b9bdd08195e1a5cdd60621b604082015260600190565b6020808252601a908201527f5469636b6574207479706520646f6573206e6f74206578697374000000000000604082015260600190565b60006020828403121561562f57600080fd5b5051919050565b60208082526017908201527f546f6b656e20616c6c6f77616e636520746f6f206c6f77000000000000000000604082015260600190565b60006020828403121561567f57600080fd5b81516146b781615224565b6020808252600f908201526e1d1c985b9cd9995c8819985a5b1959608a1b604082015260600190565b634e487b7160e01b600052601160045260246000fd5b6000816156d8576156d86156b3565b506000190190565b600181811c908216806156f457607f821691505b602082108114156120ac57634e487b7160e01b600052602260045260246000fd5b8054600090600181811c908083168061572f57607f831692505b602080841082141561575157634e487b7160e01b600052602260045260246000fd5b8388526020880182801561576c576001811461577d576157a8565b60ff198716825282820197506157a8565b60008981526020902060005b878110156157a257815484820152908601908401615789565b83019850505b5050505050505092915050565b85815284602082015283604082015260a0606082015260006157da60a0830185615715565b90508260808301529695505050505050565b600082198211156157ff576157ff6156b3565b500190565b6020808252602c908201527f4f6e6c79206576656e74206f7267616e697a6572732063616e2063616c6c207460408201526b3434b990333ab731ba34b7b760a11b606082015260800190565b6020808252602e908201527f4552433732313a2063616c6c6572206973206e6f7420746f6b656e206f776e6560408201526d1c881b9bdc88185c1c1c9bdd995960921b606082015260800190565b86815260c0602082015260006158b760c0830188614ed7565b82810360408401526158c98188614ed7565b905082810360608401526158dd8187614ed7565b6080840195909552505060a00152949350505050565b600082821015615905576159056156b3565b500390565b6001600160a01b0397881681529590961660208601526040850193909352606084019190915260ff16608083015260a082015260c081019190915260e00190565b60208082526021908201527f4f6e6c79206f776e65722063616e2063616c6c20746869732066756e6374696f6040820152603760f91b606082015260800190565b60208082526028908201527f4f6e6c79207469636b6574206f776e65722063616e2063616c6c207468697320604082015267333ab731ba34b7b760c11b606082015260800190565b6001600160a01b03831681526040602082018190526000906136e590830184615715565b600060ff821660ff841680821015615a1257615a126156b3565b90039392505050565b634e487b7160e01b600052603260045260246000fd5b634e487b7160e01b600052603160045260246000fd5b8281526040602082015260006136e56040830184615457565b60008351615a72818460208801614eab565b835190830190615a86818360208801614eab565b01949350505050565b8281526040602082015260006136e56040830184614ed7565b60208082526032908201527f4552433732313a207472616e7366657220746f206e6f6e20455243373231526560408201527131b2b4bb32b91034b6b83632b6b2b73a32b960711b606082015260800190565b7f416363657373436f6e74726f6c3a206163636f756e7420000000000000000000815260008351615b32816017850160208801614eab565b7001034b99036b4b9b9b4b733903937b6329607d1b6017918401918201528351615b63816028840160208801614eab565b01602801949350505050565b6001600160a01b0385811682528416602082015260408101839052608060608201819052600090615ba290830184614ed7565b9695505050505050565b600060208284031215615bbe57600080fd5b81516146b781614e27565b6000600019821415615bdd57615bdd6156b3565b5060010190565b634e487b7160e01b600052601260045260246000fd5b600082615c0957615c09615be4565b500490565b600082615c1d57615c1d615be4565b500690565b6000816000190483118215151615615c3c57615c3c6156b3565b50029056feb19546dff01e856fb3f010c267a7b1c60363cf8a4664e21cc89c26224620214e4d2e7a1e3f5dd6e203f087b15756ccf0e4ccd947fe1b639a38540089a1e47f63a2646970667358221220de6c15e7880b233dcea55e6c591aae88cd64caa3b8302ca4911582be033e7b6364736f6c63430008090033",
  "linkReferences": {},
  "deployedLinkReferences": {}
}