{
  "_format": "hh-sol-artifact-1",
  "contractName": "TicketGenerator",
  "sourceName": "contracts/TicketGenerator.sol",
  "abi": [
    {
      "inputs": [
        {
          "internalType": "address",
          "name": "_tokenAddress",
          "type": "address"
        },
        {
          "internalType": "address",
          "name": "_souvenirGeneratorAddress",
          "type": "address"
        }
      ],
      "stateMutability": "nonpayable",
      "type": "constructor"
    },
    {
      "anonymous": false,
      "inputs": [
        {
          "indexed": true,
          "internalType": "address",
          "name": "owner",
          "type": "address"
        },
        {
          "indexed": true,
          "internalType": "address",
          "name": "approved",
          "type": "address"
        },
        {
          "indexed": true,
          "internalType": "uint256",
          "name": "tokenId",
          "type": "uint256"
        }
      ],
      "name": "Approval",
      "type": "event"
    },
    {
      "anonymous": false,
      "inputs": [
        {
          "indexed": true,
          "internalType": "address",
          "name": "owner",
          "type": "address"
        },
        {
          "indexed": true,
          "internalType": "address",
          "name": "operator",
          "type": "address"
        },
        {
          "indexed": false,
          "internalType": "bool",
          "name": "approved",
          "type": "bool"
        }
      ],
      "name": "ApprovalForAll",
      "type": "event"
    },
    {
      "anonymous": false,
      "inputs": [
        {
          "indexed": true,
          "internalType": "address",
          "name": "buyer",
          "type": "address"
        },
        {
          "indexed": true,
          "internalType": "address",
          "name": "owner",
          "type": "address"
        },
        {
          "indexed": false,
          "internalType": "bytes32",
          "name": "eventId",
          "type": "bytes32"
        },
        {
          "indexed": false,
          "internalType": "bytes32",
          "name": "ticketTypeId",
          "type": "bytes32"
        },
        {
          "indexed": false,
          "internalType": "uint256",
          "name": "tokenId",
          "type": "uint256"
        },
        {
          "indexed": false,
          "internalType": "string",
          "name": "tokenURI",
          "type": "string"
        },
        {
          "indexed": false,
          "internalType": "uint256",
          "name": "eventStartTime",
          "type": "uint256"
        }
      ],
      "name": "BuyTicket",
      "type": "event"
    },
    {
      "anonymous": false,
      "inputs": [
        {
          "indexed": true,
          "internalType": "address",
          "name": "creator",
          "type": "address"
        },
        {
          "indexed": false,
          "internalType": "bytes32",
          "name": "eventId",
          "type": "bytes32"
        },
        {
          "indexed": false,
          "internalType": "string",
          "name": "name",
          "type": "string"
        },
        {
          "indexed": false,
          "internalType": "string",
          "name": "description",
          "type": "string"
        },
        {
          "indexed": false,
          "internalType": "string",
          "name": "eventStorage",
          "type": "string"
        },
        {
          "indexed": false,
          "internalType": "uint256",
          "name": "startTime",
          "type": "uint256"
        },
        {
          "indexed": false,
          "internalType": "uint256",
          "name": "endTime",
          "type": "uint256"
        }
      ],
      "name": "CreateEvent",
      "type": "event"
    },
    {
      "anonymous": false,
      "inputs": [
        {
          "indexed": true,
          "internalType": "address",
          "name": "creator",
          "type": "address"
        },
        {
          "indexed": false,
          "internalType": "bytes32",
          "name": "eventId",
          "type": "bytes32"
        },
        {
          "components": [
            {
              "internalType": "bytes32",
              "name": "id",
              "type": "bytes32"
            },
            {
              "internalType": "string",
              "name": "name",
              "type": "string"
            },
            {
              "internalType": "uint256",
              "name": "price",
              "type": "uint256"
            },
            {
              "internalType": "uint256",
              "name": "maxSupply",
              "type": "uint256"
            },
            {
              "internalType": "uint256",
              "name": "currentSupply",
              "type": "uint256"
            },
            {
              "internalType": "string",
              "name": "tokenURI",
              "type": "string"
            },
            {
              "internalType": "string",
              "name": "souvenirTokenURI",
              "type": "string"
            }
          ],
          "indexed": false,
          "internalType": "struct Structs.TicketType",
          "name": "ticketType",
          "type": "tuple"
        }
      ],
      "name": "CreateTicketType",
      "type": "event"
    },
    {
      "anonymous": false,
      "inputs": [
        {
          "indexed": true,
          "internalType": "address",
          "name": "creator",
          "type": "address"
        },
        {
          "indexed": false,
          "internalType": "bytes32",
          "name": "eventId",
          "type": "bytes32"
        }
      ],
      "name": "DeleteEvent",
      "type": "event"
    },
    {
      "anonymous": false,
      "inputs": [
        {
          "indexed": true,
          "internalType": "address",
          "name": "creator",
          "type": "address"
        },
        {
          "indexed": false,
          "internalType": "bytes32",
          "name": "eventId",
          "type": "bytes32"
        },
        {
          "indexed": false,
          "internalType": "bytes32",
          "name": "ticketTypeId",
          "type": "bytes32"
        }
      ],
      "name": "DeleteTickeyType",
      "type": "event"
    },
    {
      "anonymous": false,
      "inputs": [
        {
          "indexed": true,
          "internalType": "address",
          "name": "sender",
          "type": "address"
        },
        {
          "indexed": false,
          "internalType": "uint256",
          "name": "amount",
          "type": "uint256"
        }
      ],
      "name": "Deposit",
      "type": "event"
    },
    {
      "anonymous": false,
      "inputs": [
        {
          "indexed": true,
          "internalType": "address",
          "name": "creator",
          "type": "address"
        },
        {
          "indexed": true,
          "internalType": "address",
          "name": "receiver",
          "type": "address"
        },
        {
          "indexed": false,
          "internalType": "uint256",
          "name": "tokenId",
          "type": "uint256"
        },
        {
          "indexed": false,
          "internalType": "string",
          "name": "tokenURI",
          "type": "string"
        }
      ],
      "name": "GenerateTicket",
      "type": "event"
    },
    {
      "anonymous": false,
      "inputs": [
        {
          "indexed": true,
          "internalType": "bytes32",
          "name": "role",
          "type": "bytes32"
        },
        {
          "indexed": true,
          "internalType": "bytes32",
          "name": "previousAdminRole",
          "type": "bytes32"
        },
        {
          "indexed": true,
          "internalType": "bytes32",
          "name": "newAdminRole",
          "type": "bytes32"
        }
      ],
      "name": "RoleAdminChanged",
      "type": "event"
    },
    {
      "anonymous": false,
      "inputs": [
        {
          "indexed": true,
          "internalType": "bytes32",
          "name": "role",
          "type": "bytes32"
        },
        {
          "indexed": true,
          "internalType": "address",
          "name": "account",
          "type": "address"
        },
        {
          "indexed": true,
          "internalType": "address",
          "name": "sender",
          "type": "address"
        }
      ],
      "name": "RoleGranted",
      "type": "event"
    },
    {
      "anonymous": false,
      "inputs": [
        {
          "indexed": true,
          "internalType": "bytes32",
          "name": "role",
          "type": "bytes32"
        },
        {
          "indexed": true,
          "internalType": "address",
          "name": "account",
          "type": "address"
        },
        {
          "indexed": true,
          "internalType": "address",
          "name": "sender",
          "type": "address"
        }
      ],
      "name": "RoleRevoked",
      "type": "event"
    },
    {
      "anonymous": false,
      "inputs": [
        {
          "indexed": true,
          "internalType": "address",
          "name": "from",
          "type": "address"
        },
        {
          "indexed": true,
          "internalType": "address",
          "name": "to",
          "type": "address"
        },
        {
          "indexed": true,
          "internalType": "uint256",
          "name": "tokenId",
          "type": "uint256"
        }
      ],
      "name": "Transfer",
      "type": "event"
    },
    {
      "anonymous": false,
      "inputs": [
        {
          "indexed": true,
          "internalType": "address",
          "name": "sender",
          "type": "address"
        },
        {
          "indexed": true,
          "internalType": "address",
          "name": "receiver",
          "type": "address"
        },
        {
          "indexed": false,
          "internalType": "uint256",
          "name": "tokenId",
          "type": "uint256"
        }
      ],
      "name": "TransferTicket",
      "type": "event"
    },
    {
      "anonymous": false,
      "inputs": [
        {
          "indexed": true,
          "internalType": "address",
          "name": "creator",
          "type": "address"
        },
        {
          "indexed": false,
          "internalType": "bytes32",
          "name": "eventId",
          "type": "bytes32"
        },
        {
          "indexed": false,
          "internalType": "string",
          "name": "name",
          "type": "string"
        },
        {
          "indexed": false,
          "internalType": "string",
          "name": "description",
          "type": "string"
        },
        {
          "indexed": false,
          "internalType": "string",
          "name": "eventStorage",
          "type": "string"
        },
        {
          "indexed": false,
          "internalType": "uint256",
          "name": "startTime",
          "type": "uint256"
        },
        {
          "indexed": false,
          "internalType": "uint256",
          "name": "endTime",
          "type": "uint256"
        }
      ],
      "name": "UpdateEvent",
      "type": "event"
    },
    {
      "anonymous": false,
      "inputs": [
        {
          "indexed": true,
          "internalType": "address",
          "name": "creator",
          "type": "address"
        },
        {
          "indexed": false,
          "internalType": "bytes32",
          "name": "eventId",
          "type": "bytes32"
        },
        {
          "components": [
            {
              "internalType": "bytes32",
              "name": "id",
              "type": "bytes32"
            },
            {
              "internalType": "string",
              "name": "name",
              "type": "string"
            },
            {
              "internalType": "uint256",
              "name": "price",
              "type": "uint256"
            },
            {
              "internalType": "uint256",
              "name": "maxSupply",
              "type": "uint256"
            },
            {
              "internalType": "uint256",
              "name": "currentSupply",
              "type": "uint256"
            },
            {
              "internalType": "string",
              "name": "tokenURI",
              "type": "string"
            },
            {
              "internalType": "string",
              "name": "souvenirTokenURI",
              "type": "string"
            }
          ],
          "indexed": false,
          "internalType": "struct Structs.TicketType",
          "name": "ticketType",
          "type": "tuple"
        }
      ],
      "name": "UpdateTicketType",
      "type": "event"
    },
    {
      "anonymous": false,
      "inputs": [
        {
          "indexed": true,
          "internalType": "address",
          "name": "receiver",
          "type": "address"
        },
        {
          "indexed": false,
          "internalType": "uint256",
          "name": "amount",
          "type": "uint256"
        }
      ],
      "name": "Withdraw",
      "type": "event"
    },
    {
      "inputs": [],
      "name": "DEFAULT_ADMIN_ROLE",
      "outputs": [
        {
          "internalType": "bytes32",
          "name": "",
          "type": "bytes32"
        }
      ],
      "stateMutability": "view",
      "type": "function"
    },
    {
      "inputs": [],
      "name": "MINTER_ROLE",
      "outputs": [
        {
          "internalType": "bytes32",
          "name": "",
          "type": "bytes32"
        }
      ],
      "stateMutability": "view",
      "type": "function"
    },
    {
      "inputs": [],
      "name": "ORGANIZER_ROLE",
      "outputs": [
        {
          "internalType": "bytes32",
          "name": "",
          "type": "bytes32"
        }
      ],
      "stateMutability": "view",
      "type": "function"
    },
    {
      "inputs": [],
      "name": "OWNER_ROLE",
      "outputs": [
        {
          "internalType": "bytes32",
          "name": "",
          "type": "bytes32"
        }
      ],
      "stateMutability": "view",
      "type": "function"
    },
    {
      "inputs": [
        {
          "internalType": "address",
          "name": "to",
          "type": "address"
        },
        {
          "internalType": "uint256",
          "name": "tokenId",
          "type": "uint256"
        }
      ],
      "name": "approve",
      "outputs": [],
      "stateMutability": "nonpayable",
      "type": "function"
    },
    {
      "inputs": [
        {
          "internalType": "address",
          "name": "owner",
          "type": "address"
        }
      ],
      "name": "balanceOf",
      "outputs": [
        {
          "internalType": "uint256",
          "name": "",
          "type": "uint256"
        }
      ],
      "stateMutability": "view",
      "type": "function"
    },
    {
      "inputs": [],
      "name": "becomeOrganizer",
      "outputs": [],
      "stateMutability": "nonpayable",
      "type": "function"
    },
    {
      "inputs": [
        {
          "internalType": "bytes32",
          "name": "_eventId",
          "type": "bytes32"
        },
        {
          "internalType": "bytes32",
          "name": "_ticketTypeId",
          "type": "bytes32"
        },
        {
          "internalType": "address",
          "name": "_recipient",
          "type": "address"
        },
        {
          "internalType": "uint256",
          "name": "deadline",
          "type": "uint256"
        },
        {
          "internalType": "uint8",
          "name": "v",
          "type": "uint8"
        },
        {
          "internalType": "bytes32",
          "name": "r",
          "type": "bytes32"
        },
        {
          "internalType": "bytes32",
          "name": "s",
          "type": "bytes32"
        }
      ],
      "name": "buyTicket",
      "outputs": [
        {
          "internalType": "uint256",
          "name": "",
          "type": "uint256"
        }
      ],
      "stateMutability": "nonpayable",
      "type": "function"
    },
    {
      "inputs": [
        {
          "internalType": "bytes32",
          "name": "_eventId",
          "type": "bytes32"
        },
        {
          "internalType": "string",
          "name": "_name",
          "type": "string"
        },
        {
          "internalType": "string",
          "name": "_description",
          "type": "string"
        },
        {
          "internalType": "string",
          "name": "eventStorage",
          "type": "string"
        },
        {
          "internalType": "uint256",
          "name": "startTime",
          "type": "uint256"
        },
        {
          "internalType": "uint256",
          "name": "endTime",
          "type": "uint256"
        }
      ],
      "name": "createEvent",
      "outputs": [],
      "stateMutability": "nonpayable",
      "type": "function"
    },
    {
      "inputs": [
        {
          "internalType": "bytes32",
          "name": "_eventId",
          "type": "bytes32"
        },
        {
          "internalType": "bytes32",
          "name": "_ticketTypeId",
          "type": "bytes32"
        },
        {
          "internalType": "string",
          "name": "_ticketName",
          "type": "string"
        },
        {
          "internalType": "string",
          "name": "_tokenURI",
          "type": "string"
        },
        {
          "internalType": "string",
          "name": "_souvenirTokenURI",
          "type": "string"
        },
        {
          "internalType": "uint256",
          "name": "_price",
          "type": "uint256"
        },
        {
          "internalType": "uint256",
          "name": "_maxSupply",
          "type": "uint256"
        }
      ],
      "name": "createTicketType",
      "outputs": [],
      "stateMutability": "nonpayable",
      "type": "function"
    },
    {
      "inputs": [
        {
          "internalType": "bytes32",
          "name": "_eventId",
          "type": "bytes32"
        }
      ],
      "name": "deleteEvent",
      "outputs": [],
      "stateMutability": "nonpayable",
      "type": "function"
    },
    {
      "inputs": [],
      "name": "deposit",
      "outputs": [],
      "stateMutability": "payable",
      "type": "function"
    },
    {
      "inputs": [
        {
          "internalType": "uint256",
          "name": "tokenId",
          "type": "uint256"
        }
      ],
      "name": "getApproved",
      "outputs": [
        {
          "internalType": "address",
          "name": "",
          "type": "address"
        }
      ],
      "stateMutability": "view",
      "type": "function"
    },
    {
      "inputs": [
        {
          "internalType": "bytes32",
          "name": "_eventId",
          "type": "bytes32"
        }
      ],
      "name": "getEvent",
      "outputs": [
        {
          "internalType": "address",
          "name": "",
          "type": "address"
        },
        {
          "internalType": "string",
          "name": "",
          "type": "string"
        },
        {
          "internalType": "string",
          "name": "",
          "type": "string"
        },
        {
          "internalType": "string",
          "name": "",
          "type": "string"
        },
        {
          "internalType": "bytes32[]",
          "name": "",
          "type": "bytes32[]"
        }
      ],
      "stateMutability": "view",
      "type": "function"
    },
    {
      "inputs": [
        {
          "internalType": "uint256",
          "name": "_tokenId",
          "type": "uint256"
        }
      ],
      "name": "getMetadata",
      "outputs": [
        {
          "internalType": "string",
          "name": "",
          "type": "string"
        }
      ],
      "stateMutability": "view",
      "type": "function"
    },
    {
      "inputs": [
        {
          "internalType": "bytes32",
          "name": "role",
          "type": "bytes32"
        }
      ],
      "name": "getRoleAdmin",
      "outputs": [
        {
          "internalType": "bytes32",
          "name": "",
          "type": "bytes32"
        }
      ],
      "stateMutability": "view",
      "type": "function"
    },
    {
      "inputs": [
        {
          "internalType": "bytes32",
          "name": "_eventId",
          "type": "bytes32"
        },
        {
          "internalType": "bytes32",
          "name": "_ticketTypeId",
          "type": "bytes32"
        },
        {
          "internalType": "uint256",
          "name": "_ticketId",
          "type": "uint256"
        },
        {
          "internalType": "address",
          "name": "_recipient",
          "type": "address"
        }
      ],
      "name": "getSouvenir",
      "outputs": [
        {
          "internalType": "uint256",
          "name": "",
          "type": "uint256"
        }
      ],
      "stateMutability": "nonpayable",
      "type": "function"
    },
    {
      "inputs": [
        {
          "internalType": "uint256",
          "name": "_ticketId",
          "type": "uint256"
        }
      ],
      "name": "getTicket",
      "outputs": [
        {
          "components": [
            {
              "internalType": "uint256",
              "name": "id",
              "type": "uint256"
            },
            {
              "internalType": "bytes32",
              "name": "eventId",
              "type": "bytes32"
            },
            {
              "internalType": "bytes32",
              "name": "ticketTypeId",
              "type": "bytes32"
            },
            {
              "internalType": "uint256",
              "name": "souvenirId",
              "type": "uint256"
            },
            {
              "internalType": "address",
              "name": "owner",
              "type": "address"
            },
            {
              "internalType": "bool",
              "name": "souvenirMinted",
              "type": "bool"
            }
          ],
          "internalType": "struct Structs.Ticket",
          "name": "",
          "type": "tuple"
        }
      ],
      "stateMutability": "view",
      "type": "function"
    },
    {
      "inputs": [
        {
          "internalType": "bytes32",
          "name": "_eventId",
          "type": "bytes32"
        },
        {
          "internalType": "bytes32",
          "name": "_ticketTypeId",
          "type": "bytes32"
        }
      ],
      "name": "getTicketType",
      "outputs": [
        {
          "components": [
            {
              "internalType": "bytes32",
              "name": "id",
              "type": "bytes32"
            },
            {
              "internalType": "string",
              "name": "name",
              "type": "string"
            },
            {
              "internalType": "uint256",
              "name": "price",
              "type": "uint256"
            },
            {
              "internalType": "uint256",
              "name": "maxSupply",
              "type": "uint256"
            },
            {
              "internalType": "uint256",
              "name": "currentSupply",
              "type": "uint256"
            },
            {
              "internalType": "string",
              "name": "tokenURI",
              "type": "string"
            },
            {
              "internalType": "string",
              "name": "souvenirTokenURI",
              "type": "string"
            }
          ],
          "internalType": "struct Structs.TicketType",
          "name": "",
          "type": "tuple"
        }
      ],
      "stateMutability": "view",
      "type": "function"
    },
    {
      "inputs": [
        {
          "internalType": "bytes32",
          "name": "role",
          "type": "bytes32"
        },
        {
          "internalType": "address",
          "name": "account",
          "type": "address"
        }
      ],
      "name": "grantRole",
      "outputs": [],
      "stateMutability": "nonpayable",
      "type": "function"
    },
    {
      "inputs": [
        {
          "internalType": "bytes32",
          "name": "role",
          "type": "bytes32"
        },
        {
          "internalType": "address",
          "name": "account",
          "type": "address"
        }
      ],
      "name": "hasRole",
      "outputs": [
        {
          "internalType": "bool",
          "name": "",
          "type": "bool"
        }
      ],
      "stateMutability": "view",
      "type": "function"
    },
    {
      "inputs": [
        {
          "internalType": "address",
          "name": "owner",
          "type": "address"
        },
        {
          "internalType": "address",
          "name": "operator",
          "type": "address"
        }
      ],
      "name": "isApprovedForAll",
      "outputs": [
        {
          "internalType": "bool",
          "name": "",
          "type": "bool"
        }
      ],
      "stateMutability": "view",
      "type": "function"
    },
    {
      "inputs": [],
      "name": "name",
      "outputs": [
        {
          "internalType": "string",
          "name": "",
          "type": "string"
        }
      ],
      "stateMutability": "view",
      "type": "function"
    },
    {
      "inputs": [
        {
          "internalType": "uint256",
          "name": "tokenId",
          "type": "uint256"
        }
      ],
      "name": "ownerOf",
      "outputs": [
        {
          "internalType": "address",
          "name": "",
          "type": "address"
        }
      ],
      "stateMutability": "view",
      "type": "function"
    },
    {
      "inputs": [],
      "name": "ownerWithdraw",
      "outputs": [],
      "stateMutability": "nonpayable",
      "type": "function"
    },
    {
      "inputs": [
        {
          "internalType": "bytes32",
          "name": "_eventId",
          "type": "bytes32"
        },
        {
          "internalType": "bytes32",
          "name": "_ticketTypeId",
          "type": "bytes32"
        }
      ],
      "name": "removeTicketType",
      "outputs": [],
      "stateMutability": "nonpayable",
      "type": "function"
    },
    {
      "inputs": [
        {
          "internalType": "bytes32",
          "name": "role",
          "type": "bytes32"
        },
        {
          "internalType": "address",
          "name": "account",
          "type": "address"
        }
      ],
      "name": "renounceRole",
      "outputs": [],
      "stateMutability": "nonpayable",
      "type": "function"
    },
    {
      "inputs": [
        {
          "internalType": "bytes32",
          "name": "role",
          "type": "bytes32"
        },
        {
          "internalType": "address",
          "name": "account",
          "type": "address"
        }
      ],
      "name": "revokeRole",
      "outputs": [],
      "stateMutability": "nonpayable",
      "type": "function"
    },
    {
      "inputs": [
        {
          "internalType": "address",
          "name": "from",
          "type": "address"
        },
        {
          "internalType": "address",
          "name": "to",
          "type": "address"
        },
        {
          "internalType": "uint256",
          "name": "tokenId",
          "type": "uint256"
        }
      ],
      "name": "safeTransferFrom",
      "outputs": [],
      "stateMutability": "nonpayable",
      "type": "function"
    },
    {
      "inputs": [
        {
          "internalType": "address",
          "name": "from",
          "type": "address"
        },
        {
          "internalType": "address",
          "name": "to",
          "type": "address"
        },
        {
          "internalType": "uint256",
          "name": "tokenId",
          "type": "uint256"
        },
        {
          "internalType": "bytes",
          "name": "data",
          "type": "bytes"
        }
      ],
      "name": "safeTransferFrom",
      "outputs": [],
      "stateMutability": "nonpayable",
      "type": "function"
    },
    {
      "inputs": [
        {
          "internalType": "address",
          "name": "operator",
          "type": "address"
        },
        {
          "internalType": "bool",
          "name": "approved",
          "type": "bool"
        }
      ],
      "name": "setApprovalForAll",
      "outputs": [],
      "stateMutability": "nonpayable",
      "type": "function"
    },
    {
      "inputs": [
        {
          "internalType": "uint256",
          "name": "_organizerDeposit",
          "type": "uint256"
        }
      ],
      "name": "setOrganizerDeposit",
      "outputs": [],
      "stateMutability": "nonpayable",
      "type": "function"
    },
    {
      "inputs": [
        {
          "internalType": "address",
          "name": "_souvenirGeneratorAddress",
          "type": "address"
        }
      ],
      "name": "setSouvenirGeneratorContract",
      "outputs": [],
      "stateMutability": "nonpayable",
      "type": "function"
    },
    {
      "inputs": [
        {
          "internalType": "address",
          "name": "_tokenAddress",
          "type": "address"
        }
      ],
      "name": "setTIKContract",
      "outputs": [],
      "stateMutability": "nonpayable",
      "type": "function"
    },
    {
      "inputs": [
        {
          "internalType": "bytes4",
          "name": "interfaceId",
          "type": "bytes4"
        }
      ],
      "name": "supportsInterface",
      "outputs": [
        {
          "internalType": "bool",
          "name": "",
          "type": "bool"
        }
      ],
      "stateMutability": "view",
      "type": "function"
    },
    {
      "inputs": [],
      "name": "symbol",
      "outputs": [
        {
          "internalType": "string",
          "name": "",
          "type": "string"
        }
      ],
      "stateMutability": "view",
      "type": "function"
    },
    {
      "inputs": [
        {
          "internalType": "uint256",
          "name": "tokenId",
          "type": "uint256"
        }
      ],
      "name": "tokenURI",
      "outputs": [
        {
          "internalType": "string",
          "name": "",
          "type": "string"
        }
      ],
      "stateMutability": "view",
      "type": "function"
    },
    {
      "inputs": [
        {
          "internalType": "address",
          "name": "from",
          "type": "address"
        },
        {
          "internalType": "address",
          "name": "to",
          "type": "address"
        },
        {
          "internalType": "uint256",
          "name": "tokenId",
          "type": "uint256"
        }
      ],
      "name": "transferFrom",
      "outputs": [],
      "stateMutability": "nonpayable",
      "type": "function"
    },
    {
      "inputs": [
        {
          "internalType": "address",
          "name": "_recipient",
          "type": "address"
        },
        {
          "internalType": "uint256",
          "name": "_tokenId",
          "type": "uint256"
        }
      ],
      "name": "transferTicket",
      "outputs": [],
      "stateMutability": "nonpayable",
      "type": "function"
    },
    {
      "inputs": [
        {
          "internalType": "bytes32",
          "name": "_eventId",
          "type": "bytes32"
        },
        {
          "internalType": "string",
          "name": "_name",
          "type": "string"
        },
        {
          "internalType": "string",
          "name": "_description",
          "type": "string"
        },
        {
          "internalType": "string",
          "name": "eventStorage",
          "type": "string"
        },
        {
          "internalType": "uint256",
          "name": "startTime",
          "type": "uint256"
        },
        {
          "internalType": "uint256",
          "name": "endTime",
          "type": "uint256"
        }
      ],
      "name": "updateEvent",
      "outputs": [],
      "stateMutability": "nonpayable",
      "type": "function"
    },
    {
      "inputs": [
        {
          "internalType": "bytes32",
          "name": "_eventId",
          "type": "bytes32"
        },
        {
          "internalType": "bytes32",
          "name": "_ticketTypeId",
          "type": "bytes32"
        },
        {
          "internalType": "string",
          "name": "_ticketName",
          "type": "string"
        },
        {
          "internalType": "string",
          "name": "_tokenURI",
          "type": "string"
        },
        {
          "internalType": "string",
          "name": "_souvenirTokenURI",
          "type": "string"
        },
        {
          "internalType": "uint256",
          "name": "_price",
          "type": "uint256"
        },
        {
          "internalType": "uint256",
          "name": "_maxSupply",
          "type": "uint256"
        }
      ],
      "name": "updateTicketType",
      "outputs": [],
      "stateMutability": "nonpayable",
      "type": "function"
    },
    {
      "inputs": [
        {
          "internalType": "uint256",
          "name": "amount",
          "type": "uint256"
        }
      ],
      "name": "userWithdraw",
      "outputs": [],
      "stateMutability": "nonpayable",
      "type": "function"
    }
  ],
  "bytecode": "0x60806040526000600f55600060105566038d7ea4c680006011553480156200002657600080fd5b5060405162004b5a38038062004b5a8339810160408190526200004991620002bf565b604080518082018252600a815269151a58dad95d0813919560b21b60208083019182528351808501909452600384526213919560ea1b9084015281519192916200009691600191620001fc565b508051620000ac906002906020840190620001fc565b5050600980546001600160a01b038085166001600160a01b031992831617909255600a805492861692909116919091179055506200010b7fb19546dff01e856fb3f010c267a7b1c60363cf8a4664e21cc89c26224620214e336200014c565b620001377f4d2e7a1e3f5dd6e203f087b15756ccf0e4ccd947fe1b639a38540089a1e47f63336200014c565b620001446000336200014c565b505062000334565b6200015882826200015c565b5050565b6000828152602081815260408083206001600160a01b038516845290915290205460ff1662000158576000828152602081815260408083206001600160a01b03851684529091529020805460ff19166001179055620001b83390565b6001600160a01b0316816001600160a01b0316837f2f8788117e7eff1d82e926ec794901d17c78024a50270940304540a733656f0d60405160405180910390a45050565b8280546200020a90620002f7565b90600052602060002090601f0160209004810192826200022e576000855562000279565b82601f106200024957805160ff191683800117855562000279565b8280016001018555821562000279579182015b82811115620002795782518255916020019190600101906200025c565b50620002879291506200028b565b5090565b5b808211156200028757600081556001016200028c565b80516001600160a01b0381168114620002ba57600080fd5b919050565b60008060408385031215620002d357600080fd5b620002de83620002a2565b9150620002ee60208401620002a2565b90509250929050565b600181811c908216806200030c57607f821691505b602082108114156200032e57634e487b7160e01b600052602260045260246000fd5b50919050565b61481680620003446000396000f3fe6080604052600436106102515760003560e01c80637909cb5911610139578063b88d4fde116100b6578063d3a819301161007a578063d3a8193014610746578063d539139314610773578063d547741f146107a7578063e58378bb146107c7578063e5bdaeb7146107e9578063e985e9c51461080957600080fd5b8063b88d4fde146106be578063baab45fb146106de578063c87b56dd146106fe578063ceed06d51461071e578063d0e30db01461073e57600080fd5b806395d89b41116100fd57806395d89b4114610634578063a217fddf14610649578063a22cb4651461065e578063a574cea41461067e578063addece2a1461069e57600080fd5b80637909cb591461052f5780637dc379fa146105515780638c172fa2146105c357806391d14854146105f4578063930d8fd91461061457600080fd5b80632f2ff15d116101d257806351958a561161019657806351958a561461046f57806352c0cb6c1461048f5780635c9d690e146104af57806363113c6a146104cf5780636352211e146104ef57806370a082311461050f57600080fd5b80632f2ff15d146103da57806336568abe146103fa5780633b9056bf1461041a57806342842e0e1461043a5780634311de8f1461045a57600080fd5b8063095ea7b311610219578063095ea7b31461032a5780631cc844bc1461034a57806323b872dd1461036a578063248a9ca31461038a5780632ae563c1146103ba57600080fd5b806301ffc9a71461025657806306fdde031461028b57806307b17fc9146102ad57806307c88259146102c4578063081812fc146102f2575b600080fd5b34801561026257600080fd5b50610276610271366004613bfc565b610852565b60405190151581526020015b60405180910390f35b34801561029757600080fd5b506102a0610863565b6040516102829190613c71565b3480156102b957600080fd5b506102c26108f5565b005b3480156102d057600080fd5b506102e46102df366004613ca0565b610ad4565b604051908152602001610282565b3480156102fe57600080fd5b5061031261030d366004613d0c565b61103a565b6040516001600160a01b039091168152602001610282565b34801561033657600080fd5b506102c2610345366004613d25565b611061565b34801561035657600080fd5b506102c2610365366004613d0c565b611177565b34801561037657600080fd5b506102c2610385366004613d4f565b611348565b34801561039657600080fd5b506102e46103a5366004613d0c565b60009081526020819052604090206001015490565b3480156103c657600080fd5b506102c26103d5366004613e37565b611379565b3480156103e657600080fd5b506102c26103f5366004613edb565b61151e565b34801561040657600080fd5b506102c2610415366004613edb565b611543565b34801561042657600080fd5b506102c2610435366004613d0c565b6115c1565b34801561044657600080fd5b506102c2610455366004613d4f565b6117f1565b34801561046657600080fd5b506102c261180c565b34801561047b57600080fd5b506102c261048a366004613d25565b611958565b34801561049b57600080fd5b506102c26104aa366004613f07565b611a3a565b3480156104bb57600080fd5b506102c26104ca366004613e37565b611a90565b3480156104db57600080fd5b506102c26104ea366004613f07565b611c34565b3480156104fb57600080fd5b5061031261050a366004613d0c565b611c8a565b34801561051b57600080fd5b506102e461052a366004613f07565b611cea565b34801561053b57600080fd5b506102e46000805160206147c183398151915281565b34801561055d57600080fd5b5061057161056c366004613d0c565b611d70565b6040516102829190815181526020808301519082015260408083015190820152606080830151908201526080808301516001600160a01b03169082015260a09182015115159181019190915260c00190565b3480156105cf57600080fd5b506105e36105de366004613d0c565b611e6f565b604051610282959493929190613f22565b34801561060057600080fd5b5061027661060f366004613edb565b6120e5565b34801561062057600080fd5b506102e461062f366004613fb2565b61210e565b34801561064057600080fd5b506102a0612348565b34801561065557600080fd5b506102e4600081565b34801561066a57600080fd5b506102c2610679366004613fff565b612357565b34801561068a57600080fd5b506102a0610699366004613d0c565b612362565b3480156106aa57600080fd5b506102c26106b9366004614036565b61236d565b3480156106ca57600080fd5b506102c26106d9366004614058565b612529565b3480156106ea57600080fd5b506102c26106f93660046140d4565b612561565b34801561070a57600080fd5b506102a0610719366004613d0c565b612750565b34801561072a57600080fd5b506102c26107393660046140d4565b612861565b6102c2612aee565b34801561075257600080fd5b50610766610761366004614036565b612b9f565b60405161028291906141fc565b34801561077f57600080fd5b506102e47f9f2df0fed2c77648de5860a4cc508cd0818c85b8b8a1ab4ceeef8d981c8956a681565b3480156107b357600080fd5b506102c26107c2366004613edb565b612e59565b3480156107d357600080fd5b506102e46000805160206147a183398151915281565b3480156107f557600080fd5b506102c2610804366004613d0c565b612e7e565b34801561081557600080fd5b5061027661082436600461420f565b6001600160a01b03918216600090815260066020908152604080832093909416825291909152205460ff1690565b600061085d82612eb7565b92915050565b60606001805461087290614239565b80601f016020809104026020016040519081016040528092919081815260200182805461089e90614239565b80156108eb5780601f106108c0576101008083540402835291602001916108eb565b820191906000526020600020905b8154815290600101906020018083116108ce57829003601f168201915b5050505050905090565b61090d6000805160206147c1833981519152336120e5565b1561095f5760405162461bcd60e51b815260206004820152601e60248201527f43616c6c657220697320616c726561647920616e206f7267616e697a6572000060448201526064015b60405180910390fd5b601154600a546040516370a0823160e01b81523360048201526001600160a01b03909116906370a082319060240160206040518083038186803b1580156109a557600080fd5b505afa1580156109b9573d6000803e3d6000fd5b505050506040513d601f19601f820116820180604052508101906109dd919061426e565b1015610a395760405162461bcd60e51b815260206004820152602560248201527f4e6f7420656e6f75676820746f6b656e7320746f206265636f6d65206f7267616044820152643734bd32b960d91b6064820152608401610956565b600a54601154604051632770a7eb60e21b815233600482015260248101919091526001600160a01b0390911690639dc29fac90604401600060405180830381600087803b158015610a8957600080fd5b505af1158015610a9d573d6000803e3d6000fd5b50505050610ab96000805160206147c183398151915233612ef7565b60115460106000828254610acd919061429d565b9091555050565b6000878152600c60205260408120548890610b015760405162461bcd60e51b8152600401610956906142b5565b6000898152600c602090815260408083208b845260080190915290205489908990610b3e5760405162461bcd60e51b8152600401610956906142e3565b60008b8152600c602090815260408083208d8452600881019092529091206004810154610bad5760405162461bcd60e51b815260206004820152601f60248201527f5469636b6574732066726f6d2074686973207479706520736f6c64206f7574006044820152606401610956565b600a54600282015460405163d505accf60e01b81523360048201523060248201526044810191909152606481018c905260ff8b16608482015260a481018a905260c481018990526001600160a01b039091169063d505accf9060e401600060405180830381600087803b158015610c2357600080fd5b505af1158015610c37573d6000803e3d6000fd5b505050506002810154600a54604051636eb1769f60e11b81523360048201523060248201526001600160a01b039091169063dd62ed3e9060440160206040518083038186803b158015610c8957600080fd5b505afa158015610c9d573d6000803e3d6000fd5b505050506040513d601f19601f82011682018060405250810190610cc1919061426e565b1015610d0f5760405162461bcd60e51b815260206004820152601760248201527f546f6b656e20616c6c6f77616e636520746f6f206c6f770000000000000000006044820152606401610956565b600a54600183015460028301546040516323b872dd60e01b81523360048201526001600160a01b039283166024820152604481019190915260009291909116906323b872dd90606401602060405180830381600087803b158015610d7257600080fd5b505af1158015610d86573d6000803e3d6000fd5b505050506040513d601f19601f82011682018060405250810190610daa919061431a565b905080610deb5760405162461bcd60e51b815260206004820152600f60248201526e1d1c985b9cd9995c8819985a5b1959608a1b6044820152606401610956565b600482018054906000610dfd83614337565b91905055506000610e9a8d846005018054610e1790614239565b80601f0160208091040260200160405190810160405280929190818152602001828054610e4390614239565b8015610e905780601f10610e6557610100808354040283529160200191610e90565b820191906000526020600020905b815481529060010190602001808311610e7357829003601f168201915b5050505050612f01565b9050610ed46040805160c081018252600080825260208201819052918101829052606081018290526080810182905260a081019190915290565b818160000181815250508f8160200181815250508e8160400181815250508d81608001906001600160a01b031690816001600160a01b03168152505080600e60008481526020019081526020016000206000820151816000015560208201518160010155604082015181600201556060820151816003015560808201518160040160006101000a8154816001600160a01b0302191690836001600160a01b0316021790555060a08201518160040160146101000a81548160ff021916908315150217905550905050600d8290806001815401808255809150506001900390600052602060002001600090919091909150558d6001600160a01b0316336001600160a01b03167fa315c04ae5193ef2d9052d2616973c434126e9e2232a0e6b1b693a8289b3caec8360200151846040015186896005018b6003015460405161101f9594939291906143ee565b60405180910390a3509e9d5050505050505050505050505050565b600061104582612f86565b506000908152600560205260409020546001600160a01b031690565b600061106c82611c8a565b9050806001600160a01b0316836001600160a01b031614156110da5760405162461bcd60e51b815260206004820152602160248201527f4552433732313a20617070726f76616c20746f2063757272656e74206f776e656044820152603960f91b6064820152608401610956565b336001600160a01b03821614806110f657506110f68133610824565b6111685760405162461bcd60e51b815260206004820152603e60248201527f4552433732313a20617070726f76652063616c6c6572206973206e6f7420746f60448201527f6b656e206f776e6572206e6f7220617070726f76656420666f7220616c6c00006064820152608401610956565b6111728383612fe8565b505050565b6000818152600c602052604090205481906111a45760405162461bcd60e51b8152600401610956906142b5565b6111bc6000805160206147c1833981519152336120e5565b6111d85760405162461bcd60e51b815260040161095690614425565b6000828152600c60205260409020600101546001600160a01b031633146112415760405162461bcd60e51b815260206004820152601f60248201527f4f6e6c79206f7267616e697a65722063616e2072656d6f7665206576656e74006044820152606401610956565b6000828152600c6020526040902060070154156112a05760405162461bcd60e51b815260206004820152601c60248201527f4576656e74207374696c6c20686173207469636b6574207479706573000000006044820152606401610956565b6000828152600c602052604081208181556001810180546001600160a01b0319169055906112d16002830182613af5565b600382016000905560048201600090556005820160006112f19190613af5565b6112ff600683016000613af5565b61130d600783016000613b2f565b505060405182815233907f6e3bc81a96d2f5065ad94a6a93273d83748be7ace6c49f293c543738f62a5b6a9060200160405180910390a25050565b6113523382613056565b61136e5760405162461bcd60e51b815260040161095690614471565b6111728383836130d4565b6113916000805160206147c1833981519152336120e5565b6113ad5760405162461bcd60e51b815260040161095690614425565b6000868152600c6020526040902054156114005760405162461bcd60e51b81526020600482015260146024820152734576656e7420616c72656164792065786973747360601b6044820152606401610956565b600b805460018181019092557f0175b7a638427703f0dbe7bb9bbf987a2551717b34e79f33b5b1008d1fa01db9018790556000878152600c6020908152604090912088815591820180546001600160a01b03191633179055865161146a9260020191880190613b4d565b506000868152600c60209081526040909120855161149092600590920191870190613b4d565b506000868152600c6020908152604090912084516114b692600690920191860190613b4d565b506000868152600c602052604090819020600381018490556004018290555133907f7504b7211fc397a6d4b4a91cead765e14abf7680c1e7671c31087fc8d2c7256e9061150e908990899089908990899089906144bf565b60405180910390a2505050505050565b60008281526020819052604090206001015461153981613270565b611172838361327a565b6001600160a01b03811633146115b35760405162461bcd60e51b815260206004820152602f60248201527f416363657373436f6e74726f6c3a2063616e206f6e6c792072656e6f756e636560448201526e103937b632b9903337b91039b2b63360891b6064820152608401610956565b6115bd82826132fe565b5050565b600a546040516370a0823160e01b81523360048201526000916001600160a01b0316906370a082319060240160206040518083038186803b15801561160557600080fd5b505afa158015611619573d6000803e3d6000fd5b505050506040513d601f19601f8201168201806040525081019061163d919061426e565b90508082111561168f5760405162461bcd60e51b815260206004820152601a60248201527f4e6f7420656e6f75676820746f2062652077697468647261776e0000000000006044820152606401610956565b600f548211156116e15760405162461bcd60e51b815260206004820152601e60248201527f57697468647261772069732063757272656e746c792064697361626c656400006044820152606401610956565b604051600090339084156108fc0290859084818181858888f1935050505090508061173c5760405162461bcd60e51b815260206004820152600b60248201526a1cd95b990819985a5b195960aa1b6044820152606401610956565b600a54604051632770a7eb60e21b8152336004820152602481018590526001600160a01b0390911690639dc29fac90604401600060405180830381600087803b15801561178857600080fd5b505af115801561179c573d6000803e3d6000fd5b50506040518581523392507f884edad9ce6fa2440d8a54cc123490eb96d2768479d49ff9c7366125a9424364915060200160405180910390a282600f60008282546117e79190614514565b9091555050505050565b61117283838360405180602001604052806000815250612529565b6118246000805160206147a1833981519152336120e5565b6118695760405162461bcd60e51b815260206004820152601660248201527521b0b63632b91034b9903737ba1030b71037bbb732b960511b6044820152606401610956565b6000601054116118bb5760405162461bcd60e51b815260206004820152601a60248201527f4e6f7420656e6f75676820746f2062652077697468647261776e0000000000006044820152606401610956565b601054604051600091339181156108fc02919084818181858888f193505050509050806119185760405162461bcd60e51b815260206004820152600b60248201526a1cd95b990819985a5b195960aa1b6044820152606401610956565b60105460405190815233907f884edad9ce6fa2440d8a54cc123490eb96d2768479d49ff9c7366125a94243649060200160405180910390a2506000601055565b6119623382613056565b6119c85760405162461bcd60e51b815260206004820152603160248201527f4552433732313a207472616e736665722063616c6c6572206973206e6f74206f6044820152701ddb995c881b9bdc88185c1c1c9bdd9959607a1b6064820152608401610956565b6119d33383836130d4565b6000818152600e602090815260409182902060040180546001600160a01b0319166001600160a01b038616908117909155915183815233917f235a69dc2480d40b13f4bee2b08a32b678f03ca558ff46eba22ce16ace78b6ad910160405180910390a35050565b611a526000805160206147a1833981519152336120e5565b611a6e5760405162461bcd60e51b81526004016109569061452b565b600980546001600160a01b0319166001600160a01b0392909216919091179055565b6000868152600c60205260409020548690611abd5760405162461bcd60e51b8152600401610956906142b5565b611ad56000805160206147c1833981519152336120e5565b611af15760405162461bcd60e51b815260040161095690614425565b6000878152600c60205260409020600101546001600160a01b03163314611b5a5760405162461bcd60e51b815260206004820152601d60248201527f4f6e6c79206f7267616e697a65722063616e2065646974206576656e740000006044820152606401610956565b6000878152600c602090815260409091208751611b7f92600290920191890190613b4d565b506000878152600c602090815260409091208651611ba592600590920191880190613b4d565b506000878152600c602090815260409091208551611bcb92600690920191870190613b4d565b506000878152600c602052604090819020600381018590556004018390555133907fc261b9e16c24735219b284c636efee4491a482920a229627b9f62b9eec64cf2690611c23908a908a908a908a908a908a906144bf565b60405180910390a250505050505050565b611c4c6000805160206147a1833981519152336120e5565b611c685760405162461bcd60e51b81526004016109569061452b565b600a80546001600160a01b0319166001600160a01b0392909216919091179055565b6000818152600360205260408120546001600160a01b03168061085d5760405162461bcd60e51b8152602060048201526018602482015277115490cdcc8c4e881a5b9d985b1a59081d1bdad95b88125160421b6044820152606401610956565b60006001600160a01b038216611d545760405162461bcd60e51b815260206004820152602960248201527f4552433732313a2061646472657373207a65726f206973206e6f7420612076616044820152683634b21037bbb732b960b91b6064820152608401610956565b506001600160a01b031660009081526004602052604090205490565b6040805160c081018252600080825260208201819052918101829052606081018290526080810182905260a081019190915260008281526003602052604090205482906001600160a01b0316611e005760405162461bcd60e51b8152602060048201526015602482015274151a58dad95d08191bd95cc81b9bdd08195e1a5cdd605a1b6044820152606401610956565b6000838152600e6020908152604091829020825160c08101845281548152600182015492810192909252600281015492820192909252600382015460608201526004909101546001600160a01b0381166080830152600160a01b900460ff16151560a082015291505b50919050565b6000818152600c60205260408120546060908190819081908690611ea55760405162461bcd60e51b8152600401610956906142b5565b6000878152600c6020526040902060018101546002820180546001600160a01b03909216929091600582019160068101916007909101908490611ee790614239565b80601f0160208091040260200160405190810160405280929190818152602001828054611f1390614239565b8015611f605780601f10611f3557610100808354040283529160200191611f60565b820191906000526020600020905b815481529060010190602001808311611f4357829003601f168201915b50505050509350828054611f7390614239565b80601f0160208091040260200160405190810160405280929190818152602001828054611f9f90614239565b8015611fec5780601f10611fc157610100808354040283529160200191611fec565b820191906000526020600020905b815481529060010190602001808311611fcf57829003601f168201915b50505050509250818054611fff90614239565b80601f016020809104026020016040519081016040528092919081815260200182805461202b90614239565b80156120785780601f1061204d57610100808354040283529160200191612078565b820191906000526020600020905b81548152906001019060200180831161205b57829003601f168201915b50505050509150808054806020026020016040519081016040528092919081815260200182805480156120ca57602002820191906000526020600020905b8154815260200190600101908083116120b6575b50505050509050955095509550955095505091939590929450565b6000918252602082815260408084206001600160a01b0393909316845291905290205460ff1690565b6000848152600c6020526040812054859061213b5760405162461bcd60e51b8152600401610956906142b5565b6000868152600c60209081526040808320888452600801909152902054869086906121785760405162461bcd60e51b8152600401610956906142e3565b60008681526003602052604090205486906001600160a01b03166121d65760405162461bcd60e51b8152602060048201526015602482015274151a58dad95d08191bd95cc81b9bdd08195e1a5cdd605a1b6044820152606401610956565b6000878152600e6020908152604091829020825160c08101845281548152600182015492810192909252600281015492820192909252600382015460608201526004909101546001600160a01b0381166080830152600160a01b900460ff1615801560a08301526122895760405162461bcd60e51b815260206004820152601760248201527f536f7576656e697220616c7265616479206d696e7465640000000000000000006044820152606401610956565b60095460008b8152600c602090815260408083208d84526008019091528082209051630d385de160e01b815291926001600160a01b031691630d385de1916122d9918c916006019060040161456c565b602060405180830381600087803b1580156122f357600080fd5b505af1158015612307573d6000803e3d6000fd5b505050506040513d601f19601f8201168201806040525081019061232b919061426e565b600160a08401526060909201829052509998505050505050505050565b60606002805461087290614239565b6115bd338383613363565b606061085d82612750565b6000828152600c6020526040902054829061239a5760405162461bcd60e51b8152600401610956906142b5565b6000838152600c60209081526040808320858452600801909152902054839083906123d75760405162461bcd60e51b8152600401610956906142e3565b6123ef6000805160206147c1833981519152336120e5565b61240b5760405162461bcd60e51b815260040161095690614425565b6000858152600c60205260409020600101546001600160a01b031633146124825760405162461bcd60e51b815260206004820152602560248201527f4f6e6c79206f7267616e697a65722063616e2072656d6f7665207469636b6574604482015264207479706560d81b6064820152608401610956565b6000858152600c602090815260408083208784526008019091528120818155906124af6001830182613af5565b6002820160009055600382016000905560048201600090556005820160006124d79190613af5565b6124e5600683016000613af5565b5050604080518681526020810186905233917fb410e6f99b84b07294f81fef7fc54f574ff6305a91ad7aa82c9e05deb5ca0091910160405180910390a25050505050565b6125333383613056565b61254f5760405162461bcd60e51b815260040161095690614471565b61255b84848484613432565b50505050565b6000878152600c6020526040902054879061258e5760405162461bcd60e51b8152600401610956906142b5565b6000888152600c602090815260408083208a8452600801909152902054889088906125cb5760405162461bcd60e51b8152600401610956906142e3565b60008a8152600c60205260409020600101546001600160a01b031633146126405760405162461bcd60e51b815260206004820152602360248201527f4f6e6c79206f7267616e697a65722063616e2065646974207469636b6574207460448201526279706560e81b6064820152608401610956565b6040805160e0810182528a815260208082018b8152828401899052606083018890526080830188905260a083018b905260c083018a905260008e8152600c83528481208e825260080183529390932082518155925180519293849390926126ae926001850192910190613b4d565b5060408201516002820155606082015160038201556080820151600482015560a082015180516126e8916005840191602090910190613b4d565b5060c08201518051612704916006840191602090910190613b4d565b50506040513391507ffc051c354a57b794e7a2a34dc7a0ab81839aab32ad19ecc48bc4f2a549d7e4699061273b908e908590614590565b60405180910390a25050505050505050505050565b606061275b82612f86565b6000828152600760205260408120805461277490614239565b80601f01602080910402602001604051908101604052809291908181526020018280546127a090614239565b80156127ed5780601f106127c2576101008083540402835291602001916127ed565b820191906000526020600020905b8154815290600101906020018083116127d057829003601f168201915b50505050509050600061280b60408051602081019091526000815290565b905080516000141561281e575092915050565b8151156128505780826040516020016128389291906145a9565b60405160208183030381529060405292505050919050565b61285984613465565b949350505050565b6000878152600c6020526040902054879061288e5760405162461bcd60e51b8152600401610956906142b5565b6128a66000805160206147c1833981519152336120e5565b6128c25760405162461bcd60e51b815260040161095690614425565b6000888152600c60205260409020600101546001600160a01b031633146129515760405162461bcd60e51b815260206004820152603760248201527f4f6e6c7920746865206f7267616e697a6572206f662074686973206576656e7460448201527f2063616e20637265617465207469636b657420747970650000000000000000006064820152608401610956565b6000888152600c602090815260408083208a8452600801909152902054156129bb5760405162461bcd60e51b815260206004820152601a60248201527f5469636b6574207479706520616c7265616479206578697374730000000000006044820152606401610956565b6040805160e0810182528881526020808201898152828401879052606083018690526080830186905260a0830189905260c0830188905260008c8152600c83528481208c82526008018352939093208251815592518051929384939092612a29926001850192910190613b4d565b5060408201516002820155606082015160038201556080820151600482015560a08201518051612a63916005840191602090910190613b4d565b5060c08201518051612a7f916006840191602090910190613b4d565b5050506000898152600c60209081526040808320600701805460018101825590845291909220018990555133907f86f1c49c5e96f57ffd1bbdcf5973aa010e8c5bb16218eaace76fa50c7e66b5b790612adb908c908590614590565b60405180910390a2505050505050505050565b600a546040516340c10f1960e01b81523360048201523460248201526001600160a01b03909116906340c10f1990604401600060405180830381600087803b158015612b3957600080fd5b505af1158015612b4d573d6000803e3d6000fd5b5050505034600f6000828254612b63919061429d565b909155505060405134815233907fe1fffcc4923d04b559f4d29a8bfc6cda04eb5b0d3c460751c2402c5c5cc9109c9060200160405180910390a2565b612be26040518060e00160405280600080191681526020016060815260200160008152602001600081526020016000815260200160608152602001606081525090565b6000838152600c60205260409020548390612c0f5760405162461bcd60e51b8152600401610956906142b5565b6000848152600c6020908152604080832086845260080190915290205484908490612c4c5760405162461bcd60e51b8152600401610956906142e3565b6000868152600c60209081526040808320888452600801825291829020825160e08101909352805483526001810180549192840191612c8a90614239565b80601f0160208091040260200160405190810160405280929190818152602001828054612cb690614239565b8015612d035780601f10612cd857610100808354040283529160200191612d03565b820191906000526020600020905b815481529060010190602001808311612ce657829003601f168201915b50505050508152602001600282015481526020016003820154815260200160048201548152602001600582018054612d3a90614239565b80601f0160208091040260200160405190810160405280929190818152602001828054612d6690614239565b8015612db35780601f10612d8857610100808354040283529160200191612db3565b820191906000526020600020905b815481529060010190602001808311612d9657829003601f168201915b50505050508152602001600682018054612dcc90614239565b80601f0160208091040260200160405190810160405280929190818152602001828054612df890614239565b8015612e455780601f10612e1a57610100808354040283529160200191612e45565b820191906000526020600020905b815481529060010190602001808311612e2857829003601f168201915b505050505081525050935050505092915050565b600082815260208190526040902060010154612e7481613270565b61117283836132fe565b612e966000805160206147a1833981519152336120e5565b612eb25760405162461bcd60e51b81526004016109569061452b565b601155565b60006001600160e01b031982166380ac58cd60e01b1480612ee857506001600160e01b03198216635b5e139f60e01b145b8061085d575061085d826134d9565b6115bd828261327a565b6000612f11600880546001019055565b6000612f1c60085490565b9050612f28848261350e565b612f328184613650565b836001600160a01b0316336001600160a01b03167f3bfd449b4868a01647da19bf179397e8853acef45f717b1a679952bc67693cdd8386604051612f779291906145d8565b60405180910390a39392505050565b6000818152600360205260409020546001600160a01b0316612fe55760405162461bcd60e51b8152602060048201526018602482015277115490cdcc8c4e881a5b9d985b1a59081d1bdad95b88125160421b6044820152606401610956565b50565b600081815260056020526040902080546001600160a01b0319166001600160a01b038416908117909155819061301d82611c8a565b6001600160a01b03167f8c5be1e5ebec7d5bd14f71427d1e84f3dd0314c0f7b2291e5b200ac8c7c3b92560405160405180910390a45050565b60008061306283611c8a565b9050806001600160a01b0316846001600160a01b031614806130a957506001600160a01b0380821660009081526006602090815260408083209388168352929052205460ff165b806128595750836001600160a01b03166130c28461103a565b6001600160a01b031614949350505050565b826001600160a01b03166130e782611c8a565b6001600160a01b03161461314b5760405162461bcd60e51b815260206004820152602560248201527f4552433732313a207472616e736665722066726f6d20696e636f72726563742060448201526437bbb732b960d91b6064820152608401610956565b6001600160a01b0382166131ad5760405162461bcd60e51b8152602060048201526024808201527f4552433732313a207472616e7366657220746f20746865207a65726f206164646044820152637265737360e01b6064820152608401610956565b6131b8600082612fe8565b6001600160a01b03831660009081526004602052604081208054600192906131e1908490614514565b90915550506001600160a01b038216600090815260046020526040812080546001929061320f90849061429d565b909155505060008181526003602052604080822080546001600160a01b0319166001600160a01b0386811691821790925591518493918716917fddf252ad1be2c89b69c2b068fc378daa952ba7f163c4a11628f55a4df523b3ef91a4505050565b612fe581336136ea565b61328482826120e5565b6115bd576000828152602081815260408083206001600160a01b03851684529091529020805460ff191660011790556132ba3390565b6001600160a01b0316816001600160a01b0316837f2f8788117e7eff1d82e926ec794901d17c78024a50270940304540a733656f0d60405160405180910390a45050565b61330882826120e5565b156115bd576000828152602081815260408083206001600160a01b0385168085529252808320805460ff1916905551339285917ff6391f5c32d9c69d2a47ea670b442974b53935d1edc7fd64eb21e047a839171b9190a45050565b816001600160a01b0316836001600160a01b031614156133c55760405162461bcd60e51b815260206004820152601960248201527f4552433732313a20617070726f766520746f2063616c6c6572000000000000006044820152606401610956565b6001600160a01b03838116600081815260066020908152604080832094871680845294825291829020805460ff191686151590811790915591519182527f17307eab39ab6107e8899845ad3d59bd9653f200f220920489ca2b5937696c31910160405180910390a3505050565b61343d8484846130d4565b6134498484848461374e565b61255b5760405162461bcd60e51b8152600401610956906145f1565b606061347082612f86565b600061348760408051602081019091526000815290565b905060008151116134a757604051806020016040528060008152506134d2565b806134b18461385b565b6040516020016134c29291906145a9565b6040516020818303038152906040525b9392505050565b60006001600160e01b03198216637965db0b60e01b148061085d57506301ffc9a760e01b6001600160e01b031983161461085d565b6001600160a01b0382166135645760405162461bcd60e51b815260206004820181905260248201527f4552433732313a206d696e7420746f20746865207a65726f20616464726573736044820152606401610956565b6000818152600360205260409020546001600160a01b0316156135c95760405162461bcd60e51b815260206004820152601c60248201527f4552433732313a20746f6b656e20616c7265616479206d696e746564000000006044820152606401610956565b6001600160a01b03821660009081526004602052604081208054600192906135f290849061429d565b909155505060008181526003602052604080822080546001600160a01b0319166001600160a01b03861690811790915590518392907fddf252ad1be2c89b69c2b068fc378daa952ba7f163c4a11628f55a4df523b3ef908290a45050565b6000828152600360205260409020546001600160a01b03166136cb5760405162461bcd60e51b815260206004820152602e60248201527f45524337323155524953746f726167653a2055524920736574206f66206e6f6e60448201526d32bc34b9ba32b73a103a37b5b2b760911b6064820152608401610956565b6000828152600760209081526040909120825161117292840190613b4d565b6136f482826120e5565b6115bd5761370c816001600160a01b03166014613959565b613717836020613959565b604051602001613728929190614643565b60408051601f198184030181529082905262461bcd60e51b825261095691600401613c71565b60006001600160a01b0384163b1561385057604051630a85bd0160e11b81526001600160a01b0385169063150b7a02906137929033908990889088906004016146b8565b602060405180830381600087803b1580156137ac57600080fd5b505af19250505080156137dc575060408051601f3d908101601f191682019092526137d9918101906146f5565b60015b613836573d80801561380a576040519150601f19603f3d011682016040523d82523d6000602084013e61380f565b606091505b50805161382e5760405162461bcd60e51b8152600401610956906145f1565b805181602001fd5b6001600160e01b031916630a85bd0160e11b149050612859565b506001949350505050565b60608161387f5750506040805180820190915260018152600360fc1b602082015290565b8160005b81156138a9578061389381614712565b91506138a29050600a83614743565b9150613883565b60008167ffffffffffffffff8111156138c4576138c4613d8b565b6040519080825280601f01601f1916602001820160405280156138ee576020820181803683370190505b5090505b841561285957613903600183614514565b9150613910600a86614757565b61391b90603061429d565b60f81b8183815181106139305761393061476b565b60200101906001600160f81b031916908160001a905350613952600a86614743565b94506138f2565b60606000613968836002614781565b61397390600261429d565b67ffffffffffffffff81111561398b5761398b613d8b565b6040519080825280601f01601f1916602001820160405280156139b5576020820181803683370190505b509050600360fc1b816000815181106139d0576139d061476b565b60200101906001600160f81b031916908160001a905350600f60fb1b816001815181106139ff576139ff61476b565b60200101906001600160f81b031916908160001a9053506000613a23846002614781565b613a2e90600161429d565b90505b6001811115613aa6576f181899199a1a9b1b9c1cb0b131b232b360811b85600f1660108110613a6257613a6261476b565b1a60f81b828281518110613a7857613a7861476b565b60200101906001600160f81b031916908160001a90535060049490941c93613a9f81614337565b9050613a31565b5083156134d25760405162461bcd60e51b815260206004820181905260248201527f537472696e67733a20686578206c656e67746820696e73756666696369656e746044820152606401610956565b508054613b0190614239565b6000825580601f10613b11575050565b601f016020900490600052602060002090810190612fe59190613bd1565b5080546000825590600052602060002090810190612fe59190613bd1565b828054613b5990614239565b90600052602060002090601f016020900481019282613b7b5760008555613bc1565b82601f10613b9457805160ff1916838001178555613bc1565b82800160010185558215613bc1579182015b82811115613bc1578251825591602001919060010190613ba6565b50613bcd929150613bd1565b5090565b5b80821115613bcd5760008155600101613bd2565b6001600160e01b031981168114612fe557600080fd5b600060208284031215613c0e57600080fd5b81356134d281613be6565b60005b83811015613c34578181015183820152602001613c1c565b8381111561255b5750506000910152565b60008151808452613c5d816020860160208601613c19565b601f01601f19169290920160200192915050565b6020815260006134d26020830184613c45565b80356001600160a01b0381168114613c9b57600080fd5b919050565b600080600080600080600060e0888a031215613cbb57600080fd5b8735965060208801359550613cd260408901613c84565b945060608801359350608088013560ff81168114613cef57600080fd5b9699959850939692959460a0840135945060c09093013592915050565b600060208284031215613d1e57600080fd5b5035919050565b60008060408385031215613d3857600080fd5b613d4183613c84565b946020939093013593505050565b600080600060608486031215613d6457600080fd5b613d6d84613c84565b9250613d7b60208501613c84565b9150604084013590509250925092565b634e487b7160e01b600052604160045260246000fd5b600067ffffffffffffffff80841115613dbc57613dbc613d8b565b604051601f8501601f19908116603f01168101908282118183101715613de457613de4613d8b565b81604052809350858152868686011115613dfd57600080fd5b858560208301376000602087830101525050509392505050565b600082601f830112613e2857600080fd5b6134d283833560208501613da1565b60008060008060008060c08789031215613e5057600080fd5b86359550602087013567ffffffffffffffff80821115613e6f57600080fd5b613e7b8a838b01613e17565b96506040890135915080821115613e9157600080fd5b613e9d8a838b01613e17565b95506060890135915080821115613eb357600080fd5b50613ec089828a01613e17565b9350506080870135915060a087013590509295509295509295565b60008060408385031215613eee57600080fd5b82359150613efe60208401613c84565b90509250929050565b600060208284031215613f1957600080fd5b6134d282613c84565b6001600160a01b038616815260a06020808301829052600091613f4790840188613c45565b8381036040850152613f598188613c45565b90508381036060850152613f6d8187613c45565b8481036080860152855180825283870192509083019060005b81811015613fa257835183529284019291840191600101613f86565b50909a9950505050505050505050565b60008060008060808587031215613fc857600080fd5b843593506020850135925060408501359150613fe660608601613c84565b905092959194509250565b8015158114612fe557600080fd5b6000806040838503121561401257600080fd5b61401b83613c84565b9150602083013561402b81613ff1565b809150509250929050565b6000806040838503121561404957600080fd5b50508035926020909101359150565b6000806000806080858703121561406e57600080fd5b61407785613c84565b935061408560208601613c84565b925060408501359150606085013567ffffffffffffffff8111156140a857600080fd5b8501601f810187136140b957600080fd5b6140c887823560208401613da1565b91505092959194509250565b600080600080600080600060e0888a0312156140ef57600080fd5b8735965060208801359550604088013567ffffffffffffffff8082111561411557600080fd5b6141218b838c01613e17565b965060608a013591508082111561413757600080fd5b6141438b838c01613e17565b955060808a013591508082111561415957600080fd5b506141668a828b01613e17565b93505060a0880135915060c0880135905092959891949750929550565b805182526000602082015160e060208501526141a260e0850182613c45565b905060408301516040850152606083015160608501526080830151608085015260a083015184820360a08601526141d98282613c45565b91505060c083015184820360c08601526141f38282613c45565b95945050505050565b6020815260006134d26020830184614183565b6000806040838503121561422257600080fd5b61422b83613c84565b9150613efe60208401613c84565b600181811c9082168061424d57607f821691505b60208210811415611e6957634e487b7160e01b600052602260045260246000fd5b60006020828403121561428057600080fd5b5051919050565b634e487b7160e01b600052601160045260246000fd5b600082198211156142b0576142b0614287565b500190565b602080825260149082015273115d995b9d08191bd95cc81b9bdd08195e1a5cdd60621b604082015260600190565b6020808252601a908201527f5469636b6574207479706520646f6573206e6f74206578697374000000000000604082015260600190565b60006020828403121561432c57600080fd5b81516134d281613ff1565b60008161434657614346614287565b506000190190565b8054600090600181811c908083168061436857607f831692505b602080841082141561438a57634e487b7160e01b600052602260045260246000fd5b838852602088018280156143a557600181146143b6576143e1565b60ff198716825282820197506143e1565b60008981526020902060005b878110156143db578154848201529086019084016143c2565b83019850505b5050505050505092915050565b85815284602082015283604082015260a06060820152600061441360a083018561434e565b90508260808301529695505050505050565b6020808252602c908201527f4f6e6c79206576656e74206f7267616e697a6572732063616e2063616c6c207460408201526b3434b990333ab731ba34b7b760a11b606082015260800190565b6020808252602e908201527f4552433732313a2063616c6c6572206973206e6f7420746f6b656e206f776e6560408201526d1c881b9bdc88185c1c1c9bdd995960921b606082015260800190565b86815260c0602082015260006144d860c0830188613c45565b82810360408401526144ea8188613c45565b905082810360608401526144fe8187613c45565b6080840195909552505060a00152949350505050565b60008282101561452657614526614287565b500390565b60208082526021908201527f4f6e6c79206f776e65722063616e2063616c6c20746869732066756e6374696f6040820152603760f91b606082015260800190565b6001600160a01b03831681526040602082018190526000906128599083018461434e565b8281526040602082015260006128596040830184614183565b600083516145bb818460208801613c19565b8351908301906145cf818360208801613c19565b01949350505050565b8281526040602082015260006128596040830184613c45565b60208082526032908201527f4552433732313a207472616e7366657220746f206e6f6e20455243373231526560408201527131b2b4bb32b91034b6b83632b6b2b73a32b960711b606082015260800190565b7f416363657373436f6e74726f6c3a206163636f756e742000000000000000000081526000835161467b816017850160208801613c19565b7001034b99036b4b9b9b4b733903937b6329607d1b60179184019182015283516146ac816028840160208801613c19565b01602801949350505050565b6001600160a01b03858116825284166020820152604081018390526080606082018190526000906146eb90830184613c45565b9695505050505050565b60006020828403121561470757600080fd5b81516134d281613be6565b600060001982141561472657614726614287565b5060010190565b634e487b7160e01b600052601260045260246000fd5b6000826147525761475261472d565b500490565b6000826147665761476661472d565b500690565b634e487b7160e01b600052603260045260246000fd5b600081600019048311821515161561479b5761479b614287565b50029056feb19546dff01e856fb3f010c267a7b1c60363cf8a4664e21cc89c26224620214e4d2e7a1e3f5dd6e203f087b15756ccf0e4ccd947fe1b639a38540089a1e47f63a2646970667358221220982273434ffd8ed7bdd6b439da605e10ffff36ddcdd31ab51df6be8eada0220b64736f6c63430008090033",
  "linkReferences": {},
  "deployedLinkReferences": {}
}