{
  "_format": "hh-sol-artifact-1",
  "contractName": "TicketGenerator",
  "sourceName": "contracts/TicketGenerator.sol",
  "abi": [
    {
      "inputs": [
        {
          "internalType": "address",
          "name": "_tokenAddress",
          "type": "address"
        },
        {
          "internalType": "address",
          "name": "_souvenirGeneratorAddress",
          "type": "address"
        }
      ],
      "stateMutability": "nonpayable",
      "type": "constructor"
    },
    {
      "anonymous": false,
      "inputs": [
        {
          "indexed": true,
          "internalType": "address",
          "name": "owner",
          "type": "address"
        },
        {
          "indexed": true,
          "internalType": "address",
          "name": "approved",
          "type": "address"
        },
        {
          "indexed": true,
          "internalType": "uint256",
          "name": "tokenId",
          "type": "uint256"
        }
      ],
      "name": "Approval",
      "type": "event"
    },
    {
      "anonymous": false,
      "inputs": [
        {
          "indexed": true,
          "internalType": "address",
          "name": "owner",
          "type": "address"
        },
        {
          "indexed": true,
          "internalType": "address",
          "name": "operator",
          "type": "address"
        },
        {
          "indexed": false,
          "internalType": "bool",
          "name": "approved",
          "type": "bool"
        }
      ],
      "name": "ApprovalForAll",
      "type": "event"
    },
    {
      "anonymous": false,
      "inputs": [
        {
          "indexed": true,
          "internalType": "address",
          "name": "creator",
          "type": "address"
        },
        {
          "indexed": false,
          "internalType": "bytes32",
          "name": "eventId",
          "type": "bytes32"
        }
      ],
      "name": "CreateEvent",
      "type": "event"
    },
    {
      "anonymous": false,
      "inputs": [
        {
          "indexed": true,
          "internalType": "address",
          "name": "creator",
          "type": "address"
        },
        {
          "indexed": false,
          "internalType": "bytes32",
          "name": "eventId",
          "type": "bytes32"
        },
        {
          "components": [
            {
              "internalType": "bytes32",
              "name": "id",
              "type": "bytes32"
            },
            {
              "internalType": "uint256",
              "name": "price",
              "type": "uint256"
            },
            {
              "internalType": "uint256",
              "name": "maxSupply",
              "type": "uint256"
            },
            {
              "internalType": "uint256",
              "name": "currentSupply",
              "type": "uint256"
            },
            {
              "internalType": "string",
              "name": "tokenURI",
              "type": "string"
            },
            {
              "internalType": "string",
              "name": "souvenirTokenURI",
              "type": "string"
            }
          ],
          "indexed": false,
          "internalType": "struct Structs.TicketType",
          "name": "ticketType",
          "type": "tuple"
        }
      ],
      "name": "CreateTicketType",
      "type": "event"
    },
    {
      "anonymous": false,
      "inputs": [
        {
          "indexed": true,
          "internalType": "address",
          "name": "creator",
          "type": "address"
        },
        {
          "indexed": false,
          "internalType": "bytes32",
          "name": "eventId",
          "type": "bytes32"
        }
      ],
      "name": "DeleteEvent",
      "type": "event"
    },
    {
      "anonymous": false,
      "inputs": [
        {
          "indexed": true,
          "internalType": "address",
          "name": "creator",
          "type": "address"
        },
        {
          "indexed": false,
          "internalType": "bytes32",
          "name": "eventId",
          "type": "bytes32"
        },
        {
          "indexed": false,
          "internalType": "bytes32",
          "name": "ticketTypeId",
          "type": "bytes32"
        }
      ],
      "name": "DeleteTickeyType",
      "type": "event"
    },
    {
      "anonymous": false,
      "inputs": [
        {
          "indexed": true,
          "internalType": "address",
          "name": "sender",
          "type": "address"
        },
        {
          "indexed": false,
          "internalType": "uint256",
          "name": "amount",
          "type": "uint256"
        }
      ],
      "name": "Deposit",
      "type": "event"
    },
    {
      "anonymous": false,
      "inputs": [
        {
          "indexed": true,
          "internalType": "address",
          "name": "creator",
          "type": "address"
        },
        {
          "indexed": true,
          "internalType": "address",
          "name": "receiver",
          "type": "address"
        },
        {
          "indexed": false,
          "internalType": "uint256",
          "name": "tokenId",
          "type": "uint256"
        },
        {
          "indexed": false,
          "internalType": "string",
          "name": "tokenURI",
          "type": "string"
        }
      ],
      "name": "GenerateTicket",
      "type": "event"
    },
    {
      "anonymous": false,
      "inputs": [
        {
          "indexed": true,
          "internalType": "bytes32",
          "name": "role",
          "type": "bytes32"
        },
        {
          "indexed": true,
          "internalType": "bytes32",
          "name": "previousAdminRole",
          "type": "bytes32"
        },
        {
          "indexed": true,
          "internalType": "bytes32",
          "name": "newAdminRole",
          "type": "bytes32"
        }
      ],
      "name": "RoleAdminChanged",
      "type": "event"
    },
    {
      "anonymous": false,
      "inputs": [
        {
          "indexed": true,
          "internalType": "bytes32",
          "name": "role",
          "type": "bytes32"
        },
        {
          "indexed": true,
          "internalType": "address",
          "name": "account",
          "type": "address"
        },
        {
          "indexed": true,
          "internalType": "address",
          "name": "sender",
          "type": "address"
        }
      ],
      "name": "RoleGranted",
      "type": "event"
    },
    {
      "anonymous": false,
      "inputs": [
        {
          "indexed": true,
          "internalType": "bytes32",
          "name": "role",
          "type": "bytes32"
        },
        {
          "indexed": true,
          "internalType": "address",
          "name": "account",
          "type": "address"
        },
        {
          "indexed": true,
          "internalType": "address",
          "name": "sender",
          "type": "address"
        }
      ],
      "name": "RoleRevoked",
      "type": "event"
    },
    {
      "anonymous": false,
      "inputs": [
        {
          "indexed": true,
          "internalType": "address",
          "name": "from",
          "type": "address"
        },
        {
          "indexed": true,
          "internalType": "address",
          "name": "to",
          "type": "address"
        },
        {
          "indexed": true,
          "internalType": "uint256",
          "name": "tokenId",
          "type": "uint256"
        }
      ],
      "name": "Transfer",
      "type": "event"
    },
    {
      "anonymous": false,
      "inputs": [
        {
          "indexed": true,
          "internalType": "address",
          "name": "sender",
          "type": "address"
        },
        {
          "indexed": true,
          "internalType": "address",
          "name": "receiver",
          "type": "address"
        },
        {
          "indexed": false,
          "internalType": "uint256",
          "name": "tokenId",
          "type": "uint256"
        }
      ],
      "name": "TransferTicket",
      "type": "event"
    },
    {
      "anonymous": false,
      "inputs": [
        {
          "indexed": true,
          "internalType": "address",
          "name": "receiver",
          "type": "address"
        },
        {
          "indexed": false,
          "internalType": "uint256",
          "name": "amount",
          "type": "uint256"
        }
      ],
      "name": "Withdraw",
      "type": "event"
    },
    {
      "inputs": [],
      "name": "DEFAULT_ADMIN_ROLE",
      "outputs": [
        {
          "internalType": "bytes32",
          "name": "",
          "type": "bytes32"
        }
      ],
      "stateMutability": "view",
      "type": "function"
    },
    {
      "inputs": [],
      "name": "EVENT_ORGANIZER",
      "outputs": [
        {
          "internalType": "bytes32",
          "name": "",
          "type": "bytes32"
        }
      ],
      "stateMutability": "view",
      "type": "function"
    },
    {
      "inputs": [],
      "name": "MINTER_ROLE",
      "outputs": [
        {
          "internalType": "bytes32",
          "name": "",
          "type": "bytes32"
        }
      ],
      "stateMutability": "view",
      "type": "function"
    },
    {
      "inputs": [],
      "name": "OWNER_ROLE",
      "outputs": [
        {
          "internalType": "bytes32",
          "name": "",
          "type": "bytes32"
        }
      ],
      "stateMutability": "view",
      "type": "function"
    },
    {
      "inputs": [
        {
          "internalType": "address",
          "name": "to",
          "type": "address"
        },
        {
          "internalType": "uint256",
          "name": "tokenId",
          "type": "uint256"
        }
      ],
      "name": "approve",
      "outputs": [],
      "stateMutability": "nonpayable",
      "type": "function"
    },
    {
      "inputs": [
        {
          "internalType": "address",
          "name": "owner",
          "type": "address"
        }
      ],
      "name": "balanceOf",
      "outputs": [
        {
          "internalType": "uint256",
          "name": "",
          "type": "uint256"
        }
      ],
      "stateMutability": "view",
      "type": "function"
    },
    {
      "inputs": [
        {
          "internalType": "bytes32",
          "name": "_eventId",
          "type": "bytes32"
        },
        {
          "internalType": "bytes32",
          "name": "_ticketTypeId",
          "type": "bytes32"
        },
        {
          "internalType": "address",
          "name": "_recepient",
          "type": "address"
        },
        {
          "internalType": "uint256",
          "name": "deadline",
          "type": "uint256"
        },
        {
          "internalType": "uint8",
          "name": "v",
          "type": "uint8"
        },
        {
          "internalType": "bytes32",
          "name": "r",
          "type": "bytes32"
        },
        {
          "internalType": "bytes32",
          "name": "s",
          "type": "bytes32"
        }
      ],
      "name": "buyTicket",
      "outputs": [
        {
          "internalType": "uint256",
          "name": "",
          "type": "uint256"
        }
      ],
      "stateMutability": "nonpayable",
      "type": "function"
    },
    {
      "inputs": [
        {
          "internalType": "bytes32",
          "name": "_eventId",
          "type": "bytes32"
        }
      ],
      "name": "createEvent",
      "outputs": [],
      "stateMutability": "nonpayable",
      "type": "function"
    },
    {
      "inputs": [
        {
          "internalType": "bytes32",
          "name": "_eventId",
          "type": "bytes32"
        },
        {
          "internalType": "bytes32",
          "name": "_ticketTypeId",
          "type": "bytes32"
        },
        {
          "internalType": "string",
          "name": "_tokenURI",
          "type": "string"
        },
        {
          "internalType": "string",
          "name": "_souvenirTokenURI",
          "type": "string"
        },
        {
          "internalType": "uint256",
          "name": "_price",
          "type": "uint256"
        },
        {
          "internalType": "uint256",
          "name": "_maxSupply",
          "type": "uint256"
        }
      ],
      "name": "createTicketType",
      "outputs": [],
      "stateMutability": "nonpayable",
      "type": "function"
    },
    {
      "inputs": [
        {
          "internalType": "bytes32",
          "name": "_eventId",
          "type": "bytes32"
        }
      ],
      "name": "deleteEvent",
      "outputs": [],
      "stateMutability": "nonpayable",
      "type": "function"
    },
    {
      "inputs": [],
      "name": "deposit",
      "outputs": [],
      "stateMutability": "payable",
      "type": "function"
    },
    {
      "inputs": [
        {
          "internalType": "uint256",
          "name": "tokenId",
          "type": "uint256"
        }
      ],
      "name": "getApproved",
      "outputs": [
        {
          "internalType": "address",
          "name": "",
          "type": "address"
        }
      ],
      "stateMutability": "view",
      "type": "function"
    },
    {
      "inputs": [
        {
          "internalType": "bytes32",
          "name": "_eventId",
          "type": "bytes32"
        }
      ],
      "name": "getEvent",
      "outputs": [
        {
          "internalType": "bytes32",
          "name": "",
          "type": "bytes32"
        }
      ],
      "stateMutability": "view",
      "type": "function"
    },
    {
      "inputs": [
        {
          "internalType": "uint256",
          "name": "_tokenId",
          "type": "uint256"
        }
      ],
      "name": "getMetadata",
      "outputs": [
        {
          "internalType": "string",
          "name": "",
          "type": "string"
        }
      ],
      "stateMutability": "view",
      "type": "function"
    },
    {
      "inputs": [
        {
          "internalType": "bytes32",
          "name": "role",
          "type": "bytes32"
        }
      ],
      "name": "getRoleAdmin",
      "outputs": [
        {
          "internalType": "bytes32",
          "name": "",
          "type": "bytes32"
        }
      ],
      "stateMutability": "view",
      "type": "function"
    },
    {
      "inputs": [
        {
          "internalType": "bytes32",
          "name": "_eventId",
          "type": "bytes32"
        },
        {
          "internalType": "bytes32",
          "name": "_ticketTypeId",
          "type": "bytes32"
        },
        {
          "internalType": "uint256",
          "name": "_ticketId",
          "type": "uint256"
        },
        {
          "internalType": "address",
          "name": "_recepient",
          "type": "address"
        }
      ],
      "name": "getSouvenir",
      "outputs": [
        {
          "internalType": "uint256",
          "name": "",
          "type": "uint256"
        }
      ],
      "stateMutability": "nonpayable",
      "type": "function"
    },
    {
      "inputs": [
        {
          "internalType": "uint256",
          "name": "_ticketId",
          "type": "uint256"
        }
      ],
      "name": "getTicket",
      "outputs": [
        {
          "components": [
            {
              "internalType": "uint256",
              "name": "id",
              "type": "uint256"
            },
            {
              "internalType": "bytes32",
              "name": "eventId",
              "type": "bytes32"
            },
            {
              "internalType": "bytes32",
              "name": "ticketTypeId",
              "type": "bytes32"
            },
            {
              "internalType": "uint256",
              "name": "souvenirId",
              "type": "uint256"
            },
            {
              "internalType": "address",
              "name": "owner",
              "type": "address"
            },
            {
              "internalType": "bool",
              "name": "souvenirMinted",
              "type": "bool"
            }
          ],
          "internalType": "struct Structs.Ticket",
          "name": "",
          "type": "tuple"
        }
      ],
      "stateMutability": "view",
      "type": "function"
    },
    {
      "inputs": [
        {
          "internalType": "bytes32",
          "name": "_eventId",
          "type": "bytes32"
        },
        {
          "internalType": "bytes32",
          "name": "_ticketTypeId",
          "type": "bytes32"
        }
      ],
      "name": "getTicketType",
      "outputs": [
        {
          "components": [
            {
              "internalType": "bytes32",
              "name": "id",
              "type": "bytes32"
            },
            {
              "internalType": "uint256",
              "name": "price",
              "type": "uint256"
            },
            {
              "internalType": "uint256",
              "name": "maxSupply",
              "type": "uint256"
            },
            {
              "internalType": "uint256",
              "name": "currentSupply",
              "type": "uint256"
            },
            {
              "internalType": "string",
              "name": "tokenURI",
              "type": "string"
            },
            {
              "internalType": "string",
              "name": "souvenirTokenURI",
              "type": "string"
            }
          ],
          "internalType": "struct Structs.TicketType",
          "name": "",
          "type": "tuple"
        }
      ],
      "stateMutability": "view",
      "type": "function"
    },
    {
      "inputs": [
        {
          "internalType": "bytes32",
          "name": "role",
          "type": "bytes32"
        },
        {
          "internalType": "address",
          "name": "account",
          "type": "address"
        }
      ],
      "name": "grantRole",
      "outputs": [],
      "stateMutability": "nonpayable",
      "type": "function"
    },
    {
      "inputs": [
        {
          "internalType": "bytes32",
          "name": "role",
          "type": "bytes32"
        },
        {
          "internalType": "address",
          "name": "account",
          "type": "address"
        }
      ],
      "name": "hasRole",
      "outputs": [
        {
          "internalType": "bool",
          "name": "",
          "type": "bool"
        }
      ],
      "stateMutability": "view",
      "type": "function"
    },
    {
      "inputs": [
        {
          "internalType": "address",
          "name": "owner",
          "type": "address"
        },
        {
          "internalType": "address",
          "name": "operator",
          "type": "address"
        }
      ],
      "name": "isApprovedForAll",
      "outputs": [
        {
          "internalType": "bool",
          "name": "",
          "type": "bool"
        }
      ],
      "stateMutability": "view",
      "type": "function"
    },
    {
      "inputs": [],
      "name": "name",
      "outputs": [
        {
          "internalType": "string",
          "name": "",
          "type": "string"
        }
      ],
      "stateMutability": "view",
      "type": "function"
    },
    {
      "inputs": [
        {
          "internalType": "uint256",
          "name": "tokenId",
          "type": "uint256"
        }
      ],
      "name": "ownerOf",
      "outputs": [
        {
          "internalType": "address",
          "name": "",
          "type": "address"
        }
      ],
      "stateMutability": "view",
      "type": "function"
    },
    {
      "inputs": [
        {
          "internalType": "bytes32",
          "name": "_eventId",
          "type": "bytes32"
        },
        {
          "internalType": "bytes32",
          "name": "_ticketTypeId",
          "type": "bytes32"
        }
      ],
      "name": "removeTicketType",
      "outputs": [],
      "stateMutability": "nonpayable",
      "type": "function"
    },
    {
      "inputs": [
        {
          "internalType": "bytes32",
          "name": "role",
          "type": "bytes32"
        },
        {
          "internalType": "address",
          "name": "account",
          "type": "address"
        }
      ],
      "name": "renounceRole",
      "outputs": [],
      "stateMutability": "nonpayable",
      "type": "function"
    },
    {
      "inputs": [
        {
          "internalType": "bytes32",
          "name": "role",
          "type": "bytes32"
        },
        {
          "internalType": "address",
          "name": "account",
          "type": "address"
        }
      ],
      "name": "revokeRole",
      "outputs": [],
      "stateMutability": "nonpayable",
      "type": "function"
    },
    {
      "inputs": [
        {
          "internalType": "address",
          "name": "from",
          "type": "address"
        },
        {
          "internalType": "address",
          "name": "to",
          "type": "address"
        },
        {
          "internalType": "uint256",
          "name": "tokenId",
          "type": "uint256"
        }
      ],
      "name": "safeTransferFrom",
      "outputs": [],
      "stateMutability": "nonpayable",
      "type": "function"
    },
    {
      "inputs": [
        {
          "internalType": "address",
          "name": "from",
          "type": "address"
        },
        {
          "internalType": "address",
          "name": "to",
          "type": "address"
        },
        {
          "internalType": "uint256",
          "name": "tokenId",
          "type": "uint256"
        },
        {
          "internalType": "bytes",
          "name": "data",
          "type": "bytes"
        }
      ],
      "name": "safeTransferFrom",
      "outputs": [],
      "stateMutability": "nonpayable",
      "type": "function"
    },
    {
      "inputs": [
        {
          "internalType": "address",
          "name": "operator",
          "type": "address"
        },
        {
          "internalType": "bool",
          "name": "approved",
          "type": "bool"
        }
      ],
      "name": "setApprovalForAll",
      "outputs": [],
      "stateMutability": "nonpayable",
      "type": "function"
    },
    {
      "inputs": [
        {
          "internalType": "bytes4",
          "name": "interfaceId",
          "type": "bytes4"
        }
      ],
      "name": "supportsInterface",
      "outputs": [
        {
          "internalType": "bool",
          "name": "",
          "type": "bool"
        }
      ],
      "stateMutability": "view",
      "type": "function"
    },
    {
      "inputs": [],
      "name": "symbol",
      "outputs": [
        {
          "internalType": "string",
          "name": "",
          "type": "string"
        }
      ],
      "stateMutability": "view",
      "type": "function"
    },
    {
      "inputs": [
        {
          "internalType": "uint256",
          "name": "tokenId",
          "type": "uint256"
        }
      ],
      "name": "tokenURI",
      "outputs": [
        {
          "internalType": "string",
          "name": "",
          "type": "string"
        }
      ],
      "stateMutability": "view",
      "type": "function"
    },
    {
      "inputs": [
        {
          "internalType": "address",
          "name": "from",
          "type": "address"
        },
        {
          "internalType": "address",
          "name": "to",
          "type": "address"
        },
        {
          "internalType": "uint256",
          "name": "tokenId",
          "type": "uint256"
        }
      ],
      "name": "transferFrom",
      "outputs": [],
      "stateMutability": "nonpayable",
      "type": "function"
    },
    {
      "inputs": [
        {
          "internalType": "address",
          "name": "_recepient",
          "type": "address"
        },
        {
          "internalType": "uint256",
          "name": "_tokenId",
          "type": "uint256"
        }
      ],
      "name": "transferTicket",
      "outputs": [],
      "stateMutability": "nonpayable",
      "type": "function"
    },
    {
      "inputs": [],
      "name": "withdraw",
      "outputs": [],
      "stateMutability": "nonpayable",
      "type": "function"
    }
  ],
  "bytecode": "0x60806040526000600f5560006010553480156200001b57600080fd5b5060405162003c5338038062003c538339810160408190526200003e91620002b4565b604080518082018252600a815269151a58dad95d0813919560b21b60208083019182528351808501909452600384526213919560ea1b9084015281519192916200008b91600191620001f1565b508051620000a1906002906020840190620001f1565b5050600980546001600160a01b038085166001600160a01b031992831617909255600a80549286169290911691909117905550620001007fb19546dff01e856fb3f010c267a7b1c60363cf8a4664e21cc89c26224620214e3362000141565b6200012c7f53862b9283a999da1172fde49c49acd6f83e50293944751a01acf430817ebf353362000141565b6200013960003362000141565b505062000329565b6200014d828262000151565b5050565b6000828152602081815260408083206001600160a01b038516845290915290205460ff166200014d576000828152602081815260408083206001600160a01b03851684529091529020805460ff19166001179055620001ad3390565b6001600160a01b0316816001600160a01b0316837f2f8788117e7eff1d82e926ec794901d17c78024a50270940304540a733656f0d60405160405180910390a45050565b828054620001ff90620002ec565b90600052602060002090601f0160209004810192826200022357600085556200026e565b82601f106200023e57805160ff19168380011785556200026e565b828001600101855582156200026e579182015b828111156200026e57825182559160200191906001019062000251565b506200027c92915062000280565b5090565b5b808211156200027c576000815560010162000281565b80516001600160a01b0381168114620002af57600080fd5b919050565b60008060408385031215620002c857600080fd5b620002d38362000297565b9150620002e36020840162000297565b90509250929050565b600181811c908216806200030157607f821691505b602082108114156200032357634e487b7160e01b600052602260045260246000fd5b50919050565b61391a80620003396000396000f3fe6080604052600436106102045760003560e01c806391d1485411610118578063ce07c178116100a0578063d547741f1161006f578063d547741f14610652578063dacdd37714610672578063e58378bb14610694578063e985e9c5146106c8578063fc23fe5e1461071157600080fd5b8063ce07c178146105c9578063d0e30db0146105e9578063d3a81930146105f1578063d53913931461061e57600080fd5b8063a22cb465116100e7578063a22cb46514610529578063a574cea414610549578063addece2a14610569578063b88d4fde14610589578063c87b56dd146105a957600080fd5b806391d14854146104bf578063930d8fd9146104df57806395d89b41146104ff578063a217fddf1461051457600080fd5b80632f2ff15d1161019b57806351958a561161016a57806351958a56146103cd5780636352211e146103ed57806370a082311461040d5780637dc379fa1461042d5780638c172fa21461049f57600080fd5b80632f2ff15d1461035857806336568abe146103785780633ccfd60b1461039857806342842e0e146103ad57600080fd5b8063095ea7b3116101d7578063095ea7b3146102c65780631cc844bc146102e857806323b872dd14610308578063248a9ca31461032857600080fd5b806301ffc9a71461020957806306fdde031461023e57806307c8825914610260578063081812fc1461028e575b600080fd5b34801561021557600080fd5b50610229610224366004612f4a565b610731565b60405190151581526020015b60405180910390f35b34801561024a57600080fd5b50610253610742565b6040516102359190612fbf565b34801561026c57600080fd5b5061028061027b366004612fee565b6107d4565b604051908152602001610235565b34801561029a57600080fd5b506102ae6102a936600461305a565b610cf2565b6040516001600160a01b039091168152602001610235565b3480156102d257600080fd5b506102e66102e1366004613073565b610d19565b005b3480156102f457600080fd5b506102e661030336600461305a565b610e2f565b34801561031457600080fd5b506102e661032336600461309d565b610fb5565b34801561033457600080fd5b5061028061034336600461305a565b60009081526020819052604090206001015490565b34801561036457600080fd5b506102e66103733660046130d9565b610fe6565b34801561038457600080fd5b506102e66103933660046130d9565b61100b565b3480156103a457600080fd5b506102e6611089565b3480156103b957600080fd5b506102e66103c836600461309d565b611268565b3480156103d957600080fd5b506102e66103e8366004613073565b611283565b3480156103f957600080fd5b506102ae61040836600461305a565b611365565b34801561041957600080fd5b50610280610428366004613105565b6113c5565b34801561043957600080fd5b5061044d61044836600461305a565b61144b565b6040516102359190815181526020808301519082015260408083015190820152606080830151908201526080808301516001600160a01b03169082015260a09182015115159181019190915260c00190565b3480156104ab57600080fd5b506102806104ba36600461305a565b61154a565b3480156104cb57600080fd5b506102296104da3660046130d9565b61158b565b3480156104eb57600080fd5b506102806104fa366004613120565b6115b4565b34801561050b57600080fd5b50610253611813565b34801561052057600080fd5b50610280600081565b34801561053557600080fd5b506102e661054436600461316d565b611822565b34801561055557600080fd5b5061025361056436600461305a565b61182d565b34801561057557600080fd5b506102e66105843660046131a4565b611838565b34801561059557600080fd5b506102e66105a4366004613252565b6119e5565b3480156105b557600080fd5b506102536105c436600461305a565b611a1d565b3480156105d557600080fd5b506102e66105e436600461305a565b611b2e565b6102e6611c48565b3480156105fd57600080fd5b5061061161060c3660046131a4565b611cf9565b604051610235919061332d565b34801561062a57600080fd5b506102807f9f2df0fed2c77648de5860a4cc508cd0818c85b8b8a1ab4ceeef8d981c8956a681565b34801561065e57600080fd5b506102e661066d3660046130d9565b611f28565b34801561067e57600080fd5b506102806000805160206138c583398151915281565b3480156106a057600080fd5b506102807fb19546dff01e856fb3f010c267a7b1c60363cf8a4664e21cc89c26224620214e81565b3480156106d457600080fd5b506102296106e3366004613340565b6001600160a01b03918216600090815260066020908152604080832093909416825291909152205460ff1690565b34801561071d57600080fd5b506102e661072c36600461338a565b611f4d565b600061073c826121a9565b92915050565b60606001805461075190613413565b80601f016020809104026020016040519081016040528092919081815260200182805461077d90613413565b80156107ca5780601f1061079f576101008083540402835291602001916107ca565b820191906000526020600020905b8154815290600101906020018083116107ad57829003601f168201915b5050505050905090565b6000878152600c6020526040812054889061080a5760405162461bcd60e51b815260040161080190613448565b60405180910390fd5b6000898152600c602090815260408083208b8452600301909152902054899089906108475760405162461bcd60e51b815260040161080190613476565b60008b8152600c602090815260408083208d84526003908101909252909120908101546108b65760405162461bcd60e51b815260206004820152601f60248201527f5469636b6574732066726f6d2074686973207479706520736f6c64206f7574006044820152606401610801565b600a54600182015460405163d505accf60e01b81523360048201523060248201526044810191909152606481018b905260ff8a16608482015260a4810189905260c481018890526001600160a01b039091169063d505accf9060e401600060405180830381600087803b15801561092c57600080fd5b505af1158015610940573d6000803e3d6000fd5b505050506001810154600a54604051636eb1769f60e11b81523360048201523060248201526001600160a01b039091169063dd62ed3e9060440160206040518083038186803b15801561099257600080fd5b505afa1580156109a6573d6000803e3d6000fd5b505050506040513d601f19601f820116820180604052508101906109ca91906134ad565b1015610a185760405162461bcd60e51b815260206004820152601760248201527f546f6b656e20616c6c6f77616e636520746f6f206c6f770000000000000000006044820152606401610801565b600a5460018201546040516323b872dd60e01b815233600482015230602482015260448101919091526000916001600160a01b0316906323b872dd90606401602060405180830381600087803b158015610a7157600080fd5b505af1158015610a85573d6000803e3d6000fd5b505050506040513d601f19601f82011682018060405250810190610aa991906134c6565b905080610aea5760405162461bcd60e51b815260206004820152600f60248201526e1d1c985b9cd9995c8819985a5b1959608a1b6044820152606401610801565b600382018054906000610afc836134f9565b91905055506000610b998c846004018054610b1690613413565b80601f0160208091040260200160405190810160405280929190818152602001828054610b4290613413565b8015610b8f5780601f10610b6457610100808354040283529160200191610b8f565b820191906000526020600020905b815481529060010190602001808311610b7257829003601f168201915b50505050506121e9565b9050610bd36040805160c081018252600080825260208201819052918101829052606081018290526080810182905260a081019190915290565b818160000181815250508e8160200181815250508d8160400181815250508c81608001906001600160a01b031690816001600160a01b03168152505080600e60008481526020019081526020016000206000820151816000015560208201518160010155604082015181600201556060820151816003015560808201518160040160006101000a8154816001600160a01b0302191690836001600160a01b0316021790555060a08201518160040160146101000a81548160ff021916908315150217905550905050600d8290806001815401808255809150506001900390600052602060002001600090919091909150558360010154600f6000828254610cda9190613510565b90915550919f9e505050505050505050505050505050565b6000610cfd8261226e565b506000908152600560205260409020546001600160a01b031690565b6000610d2482611365565b9050806001600160a01b0316836001600160a01b03161415610d925760405162461bcd60e51b815260206004820152602160248201527f4552433732313a20617070726f76616c20746f2063757272656e74206f776e656044820152603960f91b6064820152608401610801565b336001600160a01b0382161480610dae5750610dae81336106e3565b610e205760405162461bcd60e51b815260206004820152603e60248201527f4552433732313a20617070726f76652063616c6c6572206973206e6f7420746f60448201527f6b656e206f776e6572206e6f7220617070726f76656420666f7220616c6c00006064820152608401610801565b610e2a83836122d0565b505050565b6000818152600c60205260409020548190610e5c5760405162461bcd60e51b815260040161080190613448565b610e746000805160206138c58339815191523361158b565b610e905760405162461bcd60e51b815260040161080190613528565b6000828152600c6020908152604080832033845260010190915290205460ff16610efc5760405162461bcd60e51b815260206004820152601f60248201527f4f6e6c79206f7267616e697a65722063616e2072656d6f7665206576656e74006044820152606401610801565b6000828152600c602052604090206002015415610f5b5760405162461bcd60e51b815260206004820152601c60248201527f4576656e74207374696c6c20686173207469636b6574207479706573000000006044820152606401610801565b6000828152600c6020526040812081815590610f7a6002830182612e43565b505060405182815233907f6e3bc81a96d2f5065ad94a6a93273d83748be7ace6c49f293c543738f62a5b6a9060200160405180910390a25050565b610fbf338261233e565b610fdb5760405162461bcd60e51b815260040161080190613574565b610e2a8383836123bc565b60008281526020819052604090206001015461100181612558565b610e2a8383612562565b6001600160a01b038116331461107b5760405162461bcd60e51b815260206004820152602f60248201527f416363657373436f6e74726f6c3a2063616e206f6e6c792072656e6f756e636560448201526e103937b632b9903337b91039b2b63360891b6064820152608401610801565b61108582826125e6565b5050565b6110b37fb19546dff01e856fb3f010c267a7b1c60363cf8a4664e21cc89c26224620214e3361158b565b6110f85760405162461bcd60e51b815260206004820152601660248201527521b0b63632b91034b9903737ba1030b71037bbb732b960511b6044820152606401610801565b6000600f541161114a5760405162461bcd60e51b815260206004820152601760248201527f4e6f206665657320746f2062652077697468647261776e0000000000000000006044820152606401610801565b600f54604051600091339181156108fc02919084818181858888f193505050509050806111a75760405162461bcd60e51b815260206004820152600b60248201526a1cd95b990819985a5b195960aa1b6044820152606401610801565b600a54600f54604051632770a7eb60e21b815230600482015260248101919091526001600160a01b0390911690639dc29fac90604401600060405180830381600087803b1580156111f757600080fd5b505af115801561120b573d6000803e3d6000fd5b5050600f546040519081523392507f884edad9ce6fa2440d8a54cc123490eb96d2768479d49ff9c7366125a9424364915060200160405180910390a2600f546010600082825461125b91906135c2565b90915550506000600f5550565b610e2a838383604051806020016040528060008152506119e5565b61128d338261233e565b6112f35760405162461bcd60e51b815260206004820152603160248201527f4552433732313a207472616e736665722063616c6c6572206973206e6f74206f6044820152701ddb995c881b9bdc88185c1c1c9bdd9959607a1b6064820152608401610801565b6112fe3383836123bc565b6000818152600e602090815260409182902060040180546001600160a01b0319166001600160a01b038616908117909155915183815233917f235a69dc2480d40b13f4bee2b08a32b678f03ca558ff46eba22ce16ace78b6ad910160405180910390a35050565b6000818152600360205260408120546001600160a01b03168061073c5760405162461bcd60e51b8152602060048201526018602482015277115490cdcc8c4e881a5b9d985b1a59081d1bdad95b88125160421b6044820152606401610801565b60006001600160a01b03821661142f5760405162461bcd60e51b815260206004820152602960248201527f4552433732313a2061646472657373207a65726f206973206e6f7420612076616044820152683634b21037bbb732b960b91b6064820152608401610801565b506001600160a01b031660009081526004602052604090205490565b6040805160c081018252600080825260208201819052918101829052606081018290526080810182905260a081019190915260008281526003602052604090205482906001600160a01b03166114db5760405162461bcd60e51b8152602060048201526015602482015274151a58dad95d08191bd95cc81b9bdd08195e1a5cdd605a1b6044820152606401610801565b6000838152600e6020908152604091829020825160c08101845281548152600182015492810192909252600281015492820192909252600382015460608201526004909101546001600160a01b0381166080830152600160a01b900460ff16151560a082015291505b50919050565b6000818152600c602052604081205482906115775760405162461bcd60e51b815260040161080190613448565b50506000908152600c602052604090205490565b6000918252602082815260408084206001600160a01b0393909316845291905290205460ff1690565b6000848152600c602052604081205485906115e15760405162461bcd60e51b815260040161080190613448565b6000868152600c602090815260408083208884526003019091529020548690869061161e5760405162461bcd60e51b815260040161080190613476565b60008681526003602052604090205486906001600160a01b031661167c5760405162461bcd60e51b8152602060048201526015602482015274151a58dad95d08191bd95cc81b9bdd08195e1a5cdd605a1b6044820152606401610801565b6000878152600e6020908152604091829020825160c08101845281548152600182015492810192909252600281015492820192909252600382015460608201526004909101546001600160a01b0381166080830152600160a01b900460ff1615801560a083015261172f5760405162461bcd60e51b815260206004820152601760248201527f536f7576656e697220616c7265616479206d696e7465640000000000000000006044820152606401610801565b60095460008b8152600c602090815260408083208d84526003019091528082209051630d385de160e01b815291926001600160a01b031691630d385de19161177f918c91600501906004016135d9565b602060405180830381600087803b15801561179957600080fd5b505af11580156117ad573d6000803e3d6000fd5b505050506040513d601f19601f820116820180604052508101906117d191906134ad565b600160a084015260608301819052604080518082019091526002815261257360f01b6020820152909150611805908261264b565b9a9950505050505050505050565b60606002805461075190613413565b611085338383612690565b606061073c82611a1d565b6000828152600c602052604090205482906118655760405162461bcd60e51b815260040161080190613448565b6000838152600c60209081526040808320858452600301909152902054839083906118a25760405162461bcd60e51b815260040161080190613476565b6118ba6000805160206138c58339815191523361158b565b6118d65760405162461bcd60e51b815260040161080190613528565b6000858152600c6020908152604080832033845260010190915290205460ff166119505760405162461bcd60e51b815260206004820152602560248201527f4f6e6c79206f7267616e697a65722063616e2072656d6f7665207469636b6574604482015264207479706560d81b6064820152608401610801565b6000858152600c60209081526040808320878452600390810190925282208281556001810183905560028101839055908101829055906119936004830182612e61565b6119a1600583016000612e61565b5050604080518681526020810186905233917fb410e6f99b84b07294f81fef7fc54f574ff6305a91ad7aa82c9e05deb5ca0091910160405180910390a25050505050565b6119ef338361233e565b611a0b5760405162461bcd60e51b815260040161080190613574565b611a178484848461275f565b50505050565b6060611a288261226e565b60008281526007602052604081208054611a4190613413565b80601f0160208091040260200160405190810160405280929190818152602001828054611a6d90613413565b8015611aba5780601f10611a8f57610100808354040283529160200191611aba565b820191906000526020600020905b815481529060010190602001808311611a9d57829003601f168201915b505050505090506000611ad860408051602081019091526000815290565b9050805160001415611aeb575092915050565b815115611b1d578082604051602001611b05929190613692565b60405160208183030381529060405292505050919050565b611b2684612792565b949350505050565b611b466000805160206138c58339815191523361158b565b611b625760405162461bcd60e51b815260040161080190613528565b6000818152600c602052604090205415611bb55760405162461bcd60e51b81526020600482015260146024820152734576656e7420616c72656164792065786973747360601b6044820152606401610801565b600b805460018082019092557f0175b7a638427703f0dbe7bb9bbf987a2551717b34e79f33b5b1008d1fa01db9018290556000828152600c6020908152604080832085815533808552908501835292819020805460ff1916909417909355915183815290917f1cc2e2abbf47a0bde23bf1915a928f442affbede7aa26e375411cfd39f51e57d910160405180910390a250565b600a546040516340c10f1960e01b81523360048201523460248201526001600160a01b03909116906340c10f1990604401600060405180830381600087803b158015611c9357600080fd5b505af1158015611ca7573d6000803e3d6000fd5b505050503460106000828254611cbd9190613510565b909155505060405134815233907fe1fffcc4923d04b559f4d29a8bfc6cda04eb5b0d3c460751c2402c5c5cc9109c9060200160405180910390a2565b611d356040518060c001604052806000801916815260200160008152602001600081526020016000815260200160608152602001606081525090565b6000838152600c60205260409020548390611d625760405162461bcd60e51b815260040161080190613448565b6000848152600c6020908152604080832086845260030190915290205484908490611d9f5760405162461bcd60e51b815260040161080190613476565b600c600087815260200190815260200160002060030160008681526020019081526020016000206040518060c001604052908160008201548152602001600182015481526020016002820154815260200160038201548152602001600482018054611e0990613413565b80601f0160208091040260200160405190810160405280929190818152602001828054611e3590613413565b8015611e825780601f10611e5757610100808354040283529160200191611e82565b820191906000526020600020905b815481529060010190602001808311611e6557829003601f168201915b50505050508152602001600582018054611e9b90613413565b80601f0160208091040260200160405190810160405280929190818152602001828054611ec790613413565b8015611f145780601f10611ee957610100808354040283529160200191611f14565b820191906000526020600020905b815481529060010190602001808311611ef757829003601f168201915b505050505081525050935050505092915050565b600082815260208190526040902060010154611f4381612558565b610e2a83836125e6565b6000868152600c60205260409020548690611f7a5760405162461bcd60e51b815260040161080190613448565b611f926000805160206138c58339815191523361158b565b611fae5760405162461bcd60e51b815260040161080190613528565b6000878152600c6020908152604080832033845260010190915290205460ff166120375760405162461bcd60e51b815260206004820152603460248201527f4f6e6c79206f7267616e697a657273206f662074686973206576656e742063616044820152736e20637265617465207469636b6574207479706560601b6064820152608401610801565b6000878152600c60209081526040808320898452600301909152902054156120a15760405162461bcd60e51b815260206004820152601a60248201527f5469636b6574207479706520616c7265616479206578697374730000000000006044820152606401610801565b6040805160c081018252878152602080820186815282840186815260608401878152608085018b815260a086018b905260008e8152600c86528781208e82526003908101875297902086518155935160018501559151600284015551948201949094559251805192938493909261211f926004850192910190612e9b565b5060a0820151805161213b916005840191602090910190612e9b565b5050506000888152600c60209081526040808320600201805460018101825590845291909220018890555133907fb12e5250774e62b03975512db2cd5e95db1cd459b3f80d4d17856a08598dadd490612197908b9085906136c1565b60405180910390a25050505050505050565b60006001600160e01b031982166380ac58cd60e01b14806121da57506001600160e01b03198216635b5e139f60e01b145b8061073c575061073c82612806565b60006121f9600880546001019055565b600061220460085490565b9050612210848261283b565b61221a818461297d565b836001600160a01b0316336001600160a01b03167f3bfd449b4868a01647da19bf179397e8853acef45f717b1a679952bc67693cdd838660405161225f9291906136da565b60405180910390a39392505050565b6000818152600360205260409020546001600160a01b03166122cd5760405162461bcd60e51b8152602060048201526018602482015277115490cdcc8c4e881a5b9d985b1a59081d1bdad95b88125160421b6044820152606401610801565b50565b600081815260056020526040902080546001600160a01b0319166001600160a01b038416908117909155819061230582611365565b6001600160a01b03167f8c5be1e5ebec7d5bd14f71427d1e84f3dd0314c0f7b2291e5b200ac8c7c3b92560405160405180910390a45050565b60008061234a83611365565b9050806001600160a01b0316846001600160a01b0316148061239157506001600160a01b0380821660009081526006602090815260408083209388168352929052205460ff165b80611b265750836001600160a01b03166123aa84610cf2565b6001600160a01b031614949350505050565b826001600160a01b03166123cf82611365565b6001600160a01b0316146124335760405162461bcd60e51b815260206004820152602560248201527f4552433732313a207472616e736665722066726f6d20696e636f72726563742060448201526437bbb732b960d91b6064820152608401610801565b6001600160a01b0382166124955760405162461bcd60e51b8152602060048201526024808201527f4552433732313a207472616e7366657220746f20746865207a65726f206164646044820152637265737360e01b6064820152608401610801565b6124a06000826122d0565b6001600160a01b03831660009081526004602052604081208054600192906124c99084906135c2565b90915550506001600160a01b03821660009081526004602052604081208054600192906124f7908490613510565b909155505060008181526003602052604080822080546001600160a01b0319166001600160a01b0386811691821790925591518493918716917fddf252ad1be2c89b69c2b068fc378daa952ba7f163c4a11628f55a4df523b3ef91a4505050565b6122cd8133612a17565b61256c828261158b565b611085576000828152602081815260408083206001600160a01b03851684529091529020805460ff191660011790556125a23390565b6001600160a01b0316816001600160a01b0316837f2f8788117e7eff1d82e926ec794901d17c78024a50270940304540a733656f0d60405160405180910390a45050565b6125f0828261158b565b15611085576000828152602081815260408083206001600160a01b0385168085529252808320805460ff1916905551339285917ff6391f5c32d9c69d2a47ea670b442974b53935d1edc7fd64eb21e047a839171b9190a45050565b61108582826040516024016126619291906136f3565b60408051601f198184030181529190526020810180516001600160e01b0316632d839cb360e21b179052612a7b565b816001600160a01b0316836001600160a01b031614156126f25760405162461bcd60e51b815260206004820152601960248201527f4552433732313a20617070726f766520746f2063616c6c6572000000000000006044820152606401610801565b6001600160a01b03838116600081815260066020908152604080832094871680845294825291829020805460ff191686151590811790915591519182527f17307eab39ab6107e8899845ad3d59bd9653f200f220920489ca2b5937696c31910160405180910390a3505050565b61276a8484846123bc565b61277684848484612a9c565b611a175760405162461bcd60e51b815260040161080190613715565b606061279d8261226e565b60006127b460408051602081019091526000815290565b905060008151116127d457604051806020016040528060008152506127ff565b806127de84612ba9565b6040516020016127ef929190613692565b6040516020818303038152906040525b9392505050565b60006001600160e01b03198216637965db0b60e01b148061073c57506301ffc9a760e01b6001600160e01b031983161461073c565b6001600160a01b0382166128915760405162461bcd60e51b815260206004820181905260248201527f4552433732313a206d696e7420746f20746865207a65726f20616464726573736044820152606401610801565b6000818152600360205260409020546001600160a01b0316156128f65760405162461bcd60e51b815260206004820152601c60248201527f4552433732313a20746f6b656e20616c7265616479206d696e746564000000006044820152606401610801565b6001600160a01b038216600090815260046020526040812080546001929061291f908490613510565b909155505060008181526003602052604080822080546001600160a01b0319166001600160a01b03861690811790915590518392907fddf252ad1be2c89b69c2b068fc378daa952ba7f163c4a11628f55a4df523b3ef908290a45050565b6000828152600360205260409020546001600160a01b03166129f85760405162461bcd60e51b815260206004820152602e60248201527f45524337323155524953746f726167653a2055524920736574206f66206e6f6e60448201526d32bc34b9ba32b73a103a37b5b2b760911b6064820152608401610801565b60008281526007602090815260409091208251610e2a92840190612e9b565b612a21828261158b565b61108557612a39816001600160a01b03166014612ca7565b612a44836020612ca7565b604051602001612a55929190613767565b60408051601f198184030181529082905262461bcd60e51b825261080191600401612fbf565b80516a636f6e736f6c652e6c6f67602083016000808483855afa5050505050565b60006001600160a01b0384163b15612b9e57604051630a85bd0160e11b81526001600160a01b0385169063150b7a0290612ae09033908990889088906004016137dc565b602060405180830381600087803b158015612afa57600080fd5b505af1925050508015612b2a575060408051601f3d908101601f19168201909252612b2791810190613819565b60015b612b84573d808015612b58576040519150601f19603f3d011682016040523d82523d6000602084013e612b5d565b606091505b508051612b7c5760405162461bcd60e51b815260040161080190613715565b805181602001fd5b6001600160e01b031916630a85bd0160e11b149050611b26565b506001949350505050565b606081612bcd5750506040805180820190915260018152600360fc1b602082015290565b8160005b8115612bf75780612be181613836565b9150612bf09050600a83613867565b9150612bd1565b60008167ffffffffffffffff811115612c1257612c126131c6565b6040519080825280601f01601f191660200182016040528015612c3c576020820181803683370190505b5090505b8415611b2657612c516001836135c2565b9150612c5e600a8661387b565b612c69906030613510565b60f81b818381518110612c7e57612c7e61388f565b60200101906001600160f81b031916908160001a905350612ca0600a86613867565b9450612c40565b60606000612cb68360026138a5565b612cc1906002613510565b67ffffffffffffffff811115612cd957612cd96131c6565b6040519080825280601f01601f191660200182016040528015612d03576020820181803683370190505b509050600360fc1b81600081518110612d1e57612d1e61388f565b60200101906001600160f81b031916908160001a905350600f60fb1b81600181518110612d4d57612d4d61388f565b60200101906001600160f81b031916908160001a9053506000612d718460026138a5565b612d7c906001613510565b90505b6001811115612df4576f181899199a1a9b1b9c1cb0b131b232b360811b85600f1660108110612db057612db061388f565b1a60f81b828281518110612dc657612dc661388f565b60200101906001600160f81b031916908160001a90535060049490941c93612ded816134f9565b9050612d7f565b5083156127ff5760405162461bcd60e51b815260206004820181905260248201527f537472696e67733a20686578206c656e67746820696e73756666696369656e746044820152606401610801565b50805460008255906000526020600020908101906122cd9190612f1f565b508054612e6d90613413565b6000825580601f10612e7d575050565b601f0160209004906000526020600020908101906122cd9190612f1f565b828054612ea790613413565b90600052602060002090601f016020900481019282612ec95760008555612f0f565b82601f10612ee257805160ff1916838001178555612f0f565b82800160010185558215612f0f579182015b82811115612f0f578251825591602001919060010190612ef4565b50612f1b929150612f1f565b5090565b5b80821115612f1b5760008155600101612f20565b6001600160e01b0319811681146122cd57600080fd5b600060208284031215612f5c57600080fd5b81356127ff81612f34565b60005b83811015612f82578181015183820152602001612f6a565b83811115611a175750506000910152565b60008151808452612fab816020860160208601612f67565b601f01601f19169290920160200192915050565b6020815260006127ff6020830184612f93565b80356001600160a01b0381168114612fe957600080fd5b919050565b600080600080600080600060e0888a03121561300957600080fd5b873596506020880135955061302060408901612fd2565b945060608801359350608088013560ff8116811461303d57600080fd5b9699959850939692959460a0840135945060c09093013592915050565b60006020828403121561306c57600080fd5b5035919050565b6000806040838503121561308657600080fd5b61308f83612fd2565b946020939093013593505050565b6000806000606084860312156130b257600080fd5b6130bb84612fd2565b92506130c960208501612fd2565b9150604084013590509250925092565b600080604083850312156130ec57600080fd5b823591506130fc60208401612fd2565b90509250929050565b60006020828403121561311757600080fd5b6127ff82612fd2565b6000806000806080858703121561313657600080fd5b84359350602085013592506040850135915061315460608601612fd2565b905092959194509250565b80151581146122cd57600080fd5b6000806040838503121561318057600080fd5b61318983612fd2565b915060208301356131998161315f565b809150509250929050565b600080604083850312156131b757600080fd5b50508035926020909101359150565b634e487b7160e01b600052604160045260246000fd5b600067ffffffffffffffff808411156131f7576131f76131c6565b604051601f8501601f19908116603f0116810190828211818310171561321f5761321f6131c6565b8160405280935085815286868601111561323857600080fd5b858560208301376000602087830101525050509392505050565b6000806000806080858703121561326857600080fd5b61327185612fd2565b935061327f60208601612fd2565b925060408501359150606085013567ffffffffffffffff8111156132a257600080fd5b8501601f810187136132b357600080fd5b6132c2878235602084016131dc565b91505092959194509250565b805182526020810151602083015260408101516040830152606081015160608301526000608082015160c0608085015261330b60c0850182612f93565b905060a083015184820360a08601526133248282612f93565b95945050505050565b6020815260006127ff60208301846132ce565b6000806040838503121561335357600080fd5b61335c83612fd2565b91506130fc60208401612fd2565b600082601f83011261337b57600080fd5b6127ff838335602085016131dc565b60008060008060008060c087890312156133a357600080fd5b8635955060208701359450604087013567ffffffffffffffff808211156133c957600080fd5b6133d58a838b0161336a565b955060608901359150808211156133eb57600080fd5b506133f889828a0161336a565b9350506080870135915060a087013590509295509295509295565b600181811c9082168061342757607f821691505b6020821081141561154457634e487b7160e01b600052602260045260246000fd5b602080825260149082015273115d995b9d08191bd95cc81b9bdd08195e1a5cdd60621b604082015260600190565b6020808252601a908201527f5469636b6574207479706520646f6573206e6f74206578697374000000000000604082015260600190565b6000602082840312156134bf57600080fd5b5051919050565b6000602082840312156134d857600080fd5b81516127ff8161315f565b634e487b7160e01b600052601160045260246000fd5b600081613508576135086134e3565b506000190190565b60008219821115613523576135236134e3565b500190565b6020808252602c908201527f4f6e6c79206576656e74206f7267616e697a6572732063616e2063616c6c207460408201526b3434b990333ab731ba34b7b760a11b606082015260800190565b6020808252602e908201527f4552433732313a2063616c6c6572206973206e6f7420746f6b656e206f776e6560408201526d1c881b9bdc88185c1c1c9bdd995960921b606082015260800190565b6000828210156135d4576135d46134e3565b500390565b60018060a01b0383168152600060206040818401526000845481600182811c91508083168061360957607f831692505b85831081141561362757634e487b7160e01b85526022600452602485fd5b6040880183905260608801818015613646576001811461365757613682565b60ff19861682528782019650613682565b60008b81526020902060005b8681101561367c57815484820152908501908901613663565b83019750505b50949a9950505050505050505050565b600083516136a4818460208801612f67565b8351908301906136b8818360208801612f67565b01949350505050565b828152604060208201526000611b2660408301846132ce565b828152604060208201526000611b266040830184612f93565b6040815260006137066040830185612f93565b90508260208301529392505050565b60208082526032908201527f4552433732313a207472616e7366657220746f206e6f6e20455243373231526560408201527131b2b4bb32b91034b6b83632b6b2b73a32b960711b606082015260800190565b7f416363657373436f6e74726f6c3a206163636f756e742000000000000000000081526000835161379f816017850160208801612f67565b7001034b99036b4b9b9b4b733903937b6329607d1b60179184019182015283516137d0816028840160208801612f67565b01602801949350505050565b6001600160a01b038581168252841660208201526040810183905260806060820181905260009061380f90830184612f93565b9695505050505050565b60006020828403121561382b57600080fd5b81516127ff81612f34565b600060001982141561384a5761384a6134e3565b5060010190565b634e487b7160e01b600052601260045260246000fd5b60008261387657613876613851565b500490565b60008261388a5761388a613851565b500690565b634e487b7160e01b600052603260045260246000fd5b60008160001904831182151516156138bf576138bf6134e3565b50029056fe53862b9283a999da1172fde49c49acd6f83e50293944751a01acf430817ebf35a2646970667358221220392809d409e471fdefa28aafca241d1c1eda65cb41caa4472ada7a12a259cdea64736f6c63430008090033",
  "linkReferences": {},
  "deployedLinkReferences": {}
}