{
  "_format": "hh-sol-artifact-1",
  "contractName": "TicketGenerator",
  "sourceName": "contracts/TicketGenerator.sol",
  "abi": [
    {
      "inputs": [
        {
          "internalType": "address",
          "name": "_tokenAddress",
          "type": "address"
        },
        {
          "internalType": "address",
          "name": "_souvenirGeneratorAddress",
          "type": "address"
        }
      ],
      "stateMutability": "nonpayable",
      "type": "constructor"
    },
    {
      "anonymous": false,
      "inputs": [
        {
          "indexed": true,
          "internalType": "bytes32",
          "name": "offerId",
          "type": "bytes32"
        },
        {
          "indexed": true,
          "internalType": "address",
          "name": "buyer",
          "type": "address"
        },
        {
          "indexed": true,
          "internalType": "address",
          "name": "seller",
          "type": "address"
        },
        {
          "indexed": false,
          "internalType": "bytes32",
          "name": "eventId",
          "type": "bytes32"
        },
        {
          "indexed": false,
          "internalType": "bytes32",
          "name": "ticketTypeId",
          "type": "bytes32"
        },
        {
          "indexed": false,
          "internalType": "uint256",
          "name": "ticketId",
          "type": "uint256"
        },
        {
          "indexed": false,
          "internalType": "string",
          "name": "tokenURI",
          "type": "string"
        },
        {
          "indexed": false,
          "internalType": "uint256",
          "name": "price",
          "type": "uint256"
        }
      ],
      "name": "AcceptBuyOffer",
      "type": "event"
    },
    {
      "anonymous": false,
      "inputs": [
        {
          "indexed": true,
          "internalType": "bytes32",
          "name": "offerId",
          "type": "bytes32"
        },
        {
          "indexed": true,
          "internalType": "address",
          "name": "buyer",
          "type": "address"
        },
        {
          "indexed": true,
          "internalType": "address",
          "name": "seller",
          "type": "address"
        },
        {
          "indexed": false,
          "internalType": "bytes32",
          "name": "eventId",
          "type": "bytes32"
        },
        {
          "indexed": false,
          "internalType": "bytes32",
          "name": "ticketTypeId",
          "type": "bytes32"
        },
        {
          "indexed": false,
          "internalType": "uint256",
          "name": "ticketId",
          "type": "uint256"
        },
        {
          "indexed": false,
          "internalType": "string",
          "name": "tokenURI",
          "type": "string"
        },
        {
          "indexed": false,
          "internalType": "uint256",
          "name": "price",
          "type": "uint256"
        }
      ],
      "name": "AcceptSellOffer",
      "type": "event"
    },
    {
      "anonymous": false,
      "inputs": [
        {
          "indexed": true,
          "internalType": "address",
          "name": "owner",
          "type": "address"
        },
        {
          "indexed": true,
          "internalType": "address",
          "name": "approved",
          "type": "address"
        },
        {
          "indexed": true,
          "internalType": "uint256",
          "name": "tokenId",
          "type": "uint256"
        }
      ],
      "name": "Approval",
      "type": "event"
    },
    {
      "anonymous": false,
      "inputs": [
        {
          "indexed": true,
          "internalType": "address",
          "name": "owner",
          "type": "address"
        },
        {
          "indexed": true,
          "internalType": "address",
          "name": "operator",
          "type": "address"
        },
        {
          "indexed": false,
          "internalType": "bool",
          "name": "approved",
          "type": "bool"
        }
      ],
      "name": "ApprovalForAll",
      "type": "event"
    },
    {
      "anonymous": false,
      "inputs": [
        {
          "indexed": true,
          "internalType": "address",
          "name": "buyer",
          "type": "address"
        },
        {
          "indexed": true,
          "internalType": "address",
          "name": "owner",
          "type": "address"
        },
        {
          "indexed": false,
          "internalType": "bytes32",
          "name": "eventId",
          "type": "bytes32"
        },
        {
          "indexed": false,
          "internalType": "bytes32",
          "name": "ticketTypeId",
          "type": "bytes32"
        },
        {
          "indexed": false,
          "internalType": "uint256",
          "name": "tokenId",
          "type": "uint256"
        },
        {
          "indexed": false,
          "internalType": "string",
          "name": "tokenURI",
          "type": "string"
        },
        {
          "indexed": false,
          "internalType": "uint256",
          "name": "eventStartTime",
          "type": "uint256"
        }
      ],
      "name": "BuyTicket",
      "type": "event"
    },
    {
      "anonymous": false,
      "inputs": [
        {
          "indexed": true,
          "internalType": "bytes32",
          "name": "offerId",
          "type": "bytes32"
        },
        {
          "indexed": true,
          "internalType": "address",
          "name": "sender",
          "type": "address"
        }
      ],
      "name": "CancelOffer",
      "type": "event"
    },
    {
      "anonymous": false,
      "inputs": [
        {
          "indexed": false,
          "internalType": "bytes32",
          "name": "offerId",
          "type": "bytes32"
        },
        {
          "indexed": true,
          "internalType": "address",
          "name": "buyer",
          "type": "address"
        },
        {
          "indexed": false,
          "internalType": "bytes32",
          "name": "eventId",
          "type": "bytes32"
        },
        {
          "indexed": false,
          "internalType": "bytes32",
          "name": "ticketTypeId",
          "type": "bytes32"
        },
        {
          "indexed": false,
          "internalType": "uint256",
          "name": "price",
          "type": "uint256"
        },
        {
          "indexed": false,
          "internalType": "uint256",
          "name": "deadline",
          "type": "uint256"
        }
      ],
      "name": "CreateBuyOffer",
      "type": "event"
    },
    {
      "anonymous": false,
      "inputs": [
        {
          "indexed": true,
          "internalType": "address",
          "name": "creator",
          "type": "address"
        },
        {
          "indexed": false,
          "internalType": "bytes32",
          "name": "eventId",
          "type": "bytes32"
        },
        {
          "indexed": false,
          "internalType": "string",
          "name": "name",
          "type": "string"
        },
        {
          "indexed": false,
          "internalType": "string",
          "name": "description",
          "type": "string"
        },
        {
          "indexed": false,
          "internalType": "string",
          "name": "eventStorage",
          "type": "string"
        },
        {
          "indexed": false,
          "internalType": "uint256",
          "name": "startTime",
          "type": "uint256"
        },
        {
          "indexed": false,
          "internalType": "uint256",
          "name": "endTime",
          "type": "uint256"
        }
      ],
      "name": "CreateEvent",
      "type": "event"
    },
    {
      "anonymous": false,
      "inputs": [
        {
          "indexed": true,
          "internalType": "bytes32",
          "name": "offerId",
          "type": "bytes32"
        },
        {
          "indexed": true,
          "internalType": "address",
          "name": "seller",
          "type": "address"
        },
        {
          "indexed": false,
          "internalType": "bytes32",
          "name": "eventId",
          "type": "bytes32"
        },
        {
          "indexed": false,
          "internalType": "bytes32",
          "name": "ticketTypeId",
          "type": "bytes32"
        },
        {
          "indexed": false,
          "internalType": "uint256",
          "name": "ticketId",
          "type": "uint256"
        },
        {
          "indexed": false,
          "internalType": "uint256",
          "name": "price",
          "type": "uint256"
        }
      ],
      "name": "CreateSellOffer",
      "type": "event"
    },
    {
      "anonymous": false,
      "inputs": [
        {
          "indexed": true,
          "internalType": "address",
          "name": "creator",
          "type": "address"
        },
        {
          "indexed": false,
          "internalType": "bytes32",
          "name": "eventId",
          "type": "bytes32"
        },
        {
          "components": [
            {
              "internalType": "bytes32",
              "name": "id",
              "type": "bytes32"
            },
            {
              "internalType": "string",
              "name": "name",
              "type": "string"
            },
            {
              "internalType": "uint256",
              "name": "price",
              "type": "uint256"
            },
            {
              "internalType": "uint256",
              "name": "maxSupply",
              "type": "uint256"
            },
            {
              "internalType": "uint256",
              "name": "currentSupply",
              "type": "uint256"
            },
            {
              "internalType": "string",
              "name": "tokenURI",
              "type": "string"
            },
            {
              "internalType": "string",
              "name": "souvenirTokenURI",
              "type": "string"
            }
          ],
          "indexed": false,
          "internalType": "struct Structs.TicketType",
          "name": "ticketType",
          "type": "tuple"
        }
      ],
      "name": "CreateTicketType",
      "type": "event"
    },
    {
      "anonymous": false,
      "inputs": [
        {
          "indexed": true,
          "internalType": "address",
          "name": "creator",
          "type": "address"
        },
        {
          "indexed": false,
          "internalType": "bytes32",
          "name": "eventId",
          "type": "bytes32"
        }
      ],
      "name": "DeleteEvent",
      "type": "event"
    },
    {
      "anonymous": false,
      "inputs": [
        {
          "indexed": true,
          "internalType": "address",
          "name": "creator",
          "type": "address"
        },
        {
          "indexed": false,
          "internalType": "bytes32",
          "name": "eventId",
          "type": "bytes32"
        },
        {
          "indexed": false,
          "internalType": "bytes32",
          "name": "ticketTypeId",
          "type": "bytes32"
        }
      ],
      "name": "DeleteTickeyType",
      "type": "event"
    },
    {
      "anonymous": false,
      "inputs": [
        {
          "indexed": true,
          "internalType": "address",
          "name": "sender",
          "type": "address"
        },
        {
          "indexed": false,
          "internalType": "uint256",
          "name": "amount",
          "type": "uint256"
        }
      ],
      "name": "Deposit",
      "type": "event"
    },
    {
      "anonymous": false,
      "inputs": [
        {
          "indexed": true,
          "internalType": "address",
          "name": "creator",
          "type": "address"
        },
        {
          "indexed": true,
          "internalType": "address",
          "name": "receiver",
          "type": "address"
        },
        {
          "indexed": false,
          "internalType": "uint256",
          "name": "tokenId",
          "type": "uint256"
        },
        {
          "indexed": false,
          "internalType": "string",
          "name": "tokenURI",
          "type": "string"
        }
      ],
      "name": "GenerateTicket",
      "type": "event"
    },
    {
      "anonymous": false,
      "inputs": [
        {
          "indexed": true,
          "internalType": "bytes32",
          "name": "role",
          "type": "bytes32"
        },
        {
          "indexed": true,
          "internalType": "bytes32",
          "name": "previousAdminRole",
          "type": "bytes32"
        },
        {
          "indexed": true,
          "internalType": "bytes32",
          "name": "newAdminRole",
          "type": "bytes32"
        }
      ],
      "name": "RoleAdminChanged",
      "type": "event"
    },
    {
      "anonymous": false,
      "inputs": [
        {
          "indexed": true,
          "internalType": "bytes32",
          "name": "role",
          "type": "bytes32"
        },
        {
          "indexed": true,
          "internalType": "address",
          "name": "account",
          "type": "address"
        },
        {
          "indexed": true,
          "internalType": "address",
          "name": "sender",
          "type": "address"
        }
      ],
      "name": "RoleGranted",
      "type": "event"
    },
    {
      "anonymous": false,
      "inputs": [
        {
          "indexed": true,
          "internalType": "bytes32",
          "name": "role",
          "type": "bytes32"
        },
        {
          "indexed": true,
          "internalType": "address",
          "name": "account",
          "type": "address"
        },
        {
          "indexed": true,
          "internalType": "address",
          "name": "sender",
          "type": "address"
        }
      ],
      "name": "RoleRevoked",
      "type": "event"
    },
    {
      "anonymous": false,
      "inputs": [
        {
          "indexed": true,
          "internalType": "address",
          "name": "from",
          "type": "address"
        },
        {
          "indexed": true,
          "internalType": "address",
          "name": "to",
          "type": "address"
        },
        {
          "indexed": true,
          "internalType": "uint256",
          "name": "tokenId",
          "type": "uint256"
        }
      ],
      "name": "Transfer",
      "type": "event"
    },
    {
      "anonymous": false,
      "inputs": [
        {
          "indexed": true,
          "internalType": "address",
          "name": "sender",
          "type": "address"
        },
        {
          "indexed": true,
          "internalType": "address",
          "name": "receiver",
          "type": "address"
        },
        {
          "indexed": false,
          "internalType": "uint256",
          "name": "tokenId",
          "type": "uint256"
        }
      ],
      "name": "TransferTicket",
      "type": "event"
    },
    {
      "anonymous": false,
      "inputs": [
        {
          "indexed": true,
          "internalType": "address",
          "name": "creator",
          "type": "address"
        },
        {
          "indexed": false,
          "internalType": "bytes32",
          "name": "eventId",
          "type": "bytes32"
        },
        {
          "indexed": false,
          "internalType": "string",
          "name": "name",
          "type": "string"
        },
        {
          "indexed": false,
          "internalType": "string",
          "name": "description",
          "type": "string"
        },
        {
          "indexed": false,
          "internalType": "string",
          "name": "eventStorage",
          "type": "string"
        },
        {
          "indexed": false,
          "internalType": "uint256",
          "name": "startTime",
          "type": "uint256"
        },
        {
          "indexed": false,
          "internalType": "uint256",
          "name": "endTime",
          "type": "uint256"
        }
      ],
      "name": "UpdateEvent",
      "type": "event"
    },
    {
      "anonymous": false,
      "inputs": [
        {
          "indexed": true,
          "internalType": "address",
          "name": "creator",
          "type": "address"
        },
        {
          "indexed": false,
          "internalType": "bytes32",
          "name": "eventId",
          "type": "bytes32"
        },
        {
          "components": [
            {
              "internalType": "bytes32",
              "name": "id",
              "type": "bytes32"
            },
            {
              "internalType": "string",
              "name": "name",
              "type": "string"
            },
            {
              "internalType": "uint256",
              "name": "price",
              "type": "uint256"
            },
            {
              "internalType": "uint256",
              "name": "maxSupply",
              "type": "uint256"
            },
            {
              "internalType": "uint256",
              "name": "currentSupply",
              "type": "uint256"
            },
            {
              "internalType": "string",
              "name": "tokenURI",
              "type": "string"
            },
            {
              "internalType": "string",
              "name": "souvenirTokenURI",
              "type": "string"
            }
          ],
          "indexed": false,
          "internalType": "struct Structs.TicketType",
          "name": "ticketType",
          "type": "tuple"
        }
      ],
      "name": "UpdateTicketType",
      "type": "event"
    },
    {
      "anonymous": false,
      "inputs": [
        {
          "indexed": true,
          "internalType": "address",
          "name": "sender",
          "type": "address"
        },
        {
          "indexed": false,
          "internalType": "uint256",
          "name": "ticketId",
          "type": "uint256"
        }
      ],
      "name": "UseTicket",
      "type": "event"
    },
    {
      "anonymous": false,
      "inputs": [
        {
          "indexed": true,
          "internalType": "address",
          "name": "receiver",
          "type": "address"
        },
        {
          "indexed": false,
          "internalType": "uint256",
          "name": "amount",
          "type": "uint256"
        }
      ],
      "name": "Withdraw",
      "type": "event"
    },
    {
      "inputs": [],
      "name": "DEFAULT_ADMIN_ROLE",
      "outputs": [
        {
          "internalType": "bytes32",
          "name": "",
          "type": "bytes32"
        }
      ],
      "stateMutability": "view",
      "type": "function"
    },
    {
      "inputs": [],
      "name": "MINTER_ROLE",
      "outputs": [
        {
          "internalType": "bytes32",
          "name": "",
          "type": "bytes32"
        }
      ],
      "stateMutability": "view",
      "type": "function"
    },
    {
      "inputs": [],
      "name": "ORGANIZER_ROLE",
      "outputs": [
        {
          "internalType": "bytes32",
          "name": "",
          "type": "bytes32"
        }
      ],
      "stateMutability": "view",
      "type": "function"
    },
    {
      "inputs": [],
      "name": "OWNER_ROLE",
      "outputs": [
        {
          "internalType": "bytes32",
          "name": "",
          "type": "bytes32"
        }
      ],
      "stateMutability": "view",
      "type": "function"
    },
    {
      "inputs": [
        {
          "internalType": "bytes32",
          "name": "id",
          "type": "bytes32"
        },
        {
          "internalType": "uint256",
          "name": "ticketId",
          "type": "uint256"
        }
      ],
      "name": "acceptBuyOffer",
      "outputs": [],
      "stateMutability": "nonpayable",
      "type": "function"
    },
    {
      "inputs": [
        {
          "internalType": "bytes32",
          "name": "id",
          "type": "bytes32"
        },
        {
          "internalType": "uint256",
          "name": "deadline",
          "type": "uint256"
        },
        {
          "internalType": "uint8",
          "name": "v",
          "type": "uint8"
        },
        {
          "internalType": "bytes32",
          "name": "r",
          "type": "bytes32"
        },
        {
          "internalType": "bytes32",
          "name": "s",
          "type": "bytes32"
        }
      ],
      "name": "acceptSellOffer",
      "outputs": [],
      "stateMutability": "nonpayable",
      "type": "function"
    },
    {
      "inputs": [
        {
          "internalType": "address",
          "name": "to",
          "type": "address"
        },
        {
          "internalType": "uint256",
          "name": "tokenId",
          "type": "uint256"
        }
      ],
      "name": "approve",
      "outputs": [],
      "stateMutability": "nonpayable",
      "type": "function"
    },
    {
      "inputs": [
        {
          "internalType": "address",
          "name": "owner",
          "type": "address"
        }
      ],
      "name": "balanceOf",
      "outputs": [
        {
          "internalType": "uint256",
          "name": "",
          "type": "uint256"
        }
      ],
      "stateMutability": "view",
      "type": "function"
    },
    {
      "inputs": [],
      "name": "becomeOrganizer",
      "outputs": [],
      "stateMutability": "nonpayable",
      "type": "function"
    },
    {
      "inputs": [
        {
          "internalType": "bytes32",
          "name": "_eventId",
          "type": "bytes32"
        },
        {
          "internalType": "bytes32",
          "name": "_ticketTypeId",
          "type": "bytes32"
        },
        {
          "internalType": "address",
          "name": "_recipient",
          "type": "address"
        }
      ],
      "name": "buyTicket",
      "outputs": [
        {
          "internalType": "uint256",
          "name": "",
          "type": "uint256"
        }
      ],
      "stateMutability": "nonpayable",
      "type": "function"
    },
    {
      "inputs": [
        {
          "internalType": "bytes32",
          "name": "id",
          "type": "bytes32"
        }
      ],
      "name": "cancelOffer",
      "outputs": [],
      "stateMutability": "nonpayable",
      "type": "function"
    },
    {
      "inputs": [
        {
          "internalType": "bytes32",
          "name": "id",
          "type": "bytes32"
        },
        {
          "internalType": "bytes32",
          "name": "eventId",
          "type": "bytes32"
        },
        {
          "internalType": "bytes32",
          "name": "ticketTypeId",
          "type": "bytes32"
        },
        {
          "internalType": "uint256",
          "name": "price",
          "type": "uint256"
        },
        {
          "internalType": "uint256",
          "name": "deadline",
          "type": "uint256"
        },
        {
          "internalType": "uint8",
          "name": "v",
          "type": "uint8"
        },
        {
          "internalType": "bytes32",
          "name": "r",
          "type": "bytes32"
        },
        {
          "internalType": "bytes32",
          "name": "s",
          "type": "bytes32"
        }
      ],
      "name": "createBuyOffer",
      "outputs": [],
      "stateMutability": "nonpayable",
      "type": "function"
    },
    {
      "inputs": [
        {
          "internalType": "bytes32",
          "name": "_eventId",
          "type": "bytes32"
        },
        {
          "internalType": "string",
          "name": "_name",
          "type": "string"
        },
        {
          "internalType": "string",
          "name": "_description",
          "type": "string"
        },
        {
          "internalType": "string",
          "name": "eventStorage",
          "type": "string"
        },
        {
          "internalType": "uint256",
          "name": "startTime",
          "type": "uint256"
        },
        {
          "internalType": "uint256",
          "name": "endTime",
          "type": "uint256"
        }
      ],
      "name": "createEvent",
      "outputs": [],
      "stateMutability": "nonpayable",
      "type": "function"
    },
    {
      "inputs": [
        {
          "internalType": "bytes32",
          "name": "id",
          "type": "bytes32"
        },
        {
          "internalType": "bytes32",
          "name": "eventId",
          "type": "bytes32"
        },
        {
          "internalType": "bytes32",
          "name": "ticketTypeId",
          "type": "bytes32"
        },
        {
          "internalType": "uint256",
          "name": "ticketId",
          "type": "uint256"
        },
        {
          "internalType": "uint256",
          "name": "price",
          "type": "uint256"
        }
      ],
      "name": "createSellOffer",
      "outputs": [],
      "stateMutability": "nonpayable",
      "type": "function"
    },
    {
      "inputs": [
        {
          "internalType": "bytes32",
          "name": "_eventId",
          "type": "bytes32"
        },
        {
          "internalType": "bytes32",
          "name": "_ticketTypeId",
          "type": "bytes32"
        },
        {
          "internalType": "string",
          "name": "_ticketName",
          "type": "string"
        },
        {
          "internalType": "string",
          "name": "_tokenURI",
          "type": "string"
        },
        {
          "internalType": "string",
          "name": "_souvenirTokenURI",
          "type": "string"
        },
        {
          "internalType": "uint256",
          "name": "_price",
          "type": "uint256"
        },
        {
          "internalType": "uint256",
          "name": "_maxSupply",
          "type": "uint256"
        }
      ],
      "name": "createTicketType",
      "outputs": [],
      "stateMutability": "nonpayable",
      "type": "function"
    },
    {
      "inputs": [
        {
          "internalType": "bytes32",
          "name": "_eventId",
          "type": "bytes32"
        }
      ],
      "name": "deleteEvent",
      "outputs": [],
      "stateMutability": "nonpayable",
      "type": "function"
    },
    {
      "inputs": [],
      "name": "deposit",
      "outputs": [],
      "stateMutability": "payable",
      "type": "function"
    },
    {
      "inputs": [
        {
          "internalType": "uint256",
          "name": "tokenId",
          "type": "uint256"
        }
      ],
      "name": "getApproved",
      "outputs": [
        {
          "internalType": "address",
          "name": "",
          "type": "address"
        }
      ],
      "stateMutability": "view",
      "type": "function"
    },
    {
      "inputs": [
        {
          "internalType": "bytes32",
          "name": "_eventId",
          "type": "bytes32"
        }
      ],
      "name": "getEvent",
      "outputs": [
        {
          "internalType": "address",
          "name": "",
          "type": "address"
        },
        {
          "internalType": "string",
          "name": "",
          "type": "string"
        },
        {
          "internalType": "string",
          "name": "",
          "type": "string"
        },
        {
          "internalType": "string",
          "name": "",
          "type": "string"
        },
        {
          "internalType": "uint256",
          "name": "",
          "type": "uint256"
        },
        {
          "internalType": "uint256",
          "name": "",
          "type": "uint256"
        },
        {
          "internalType": "bytes32[]",
          "name": "",
          "type": "bytes32[]"
        }
      ],
      "stateMutability": "view",
      "type": "function"
    },
    {
      "inputs": [
        {
          "internalType": "uint256",
          "name": "_tokenId",
          "type": "uint256"
        }
      ],
      "name": "getMetadata",
      "outputs": [
        {
          "internalType": "string",
          "name": "",
          "type": "string"
        }
      ],
      "stateMutability": "view",
      "type": "function"
    },
    {
      "inputs": [
        {
          "internalType": "bytes32",
          "name": "id",
          "type": "bytes32"
        }
      ],
      "name": "getOffer",
      "outputs": [
        {
          "components": [
            {
              "internalType": "bytes32",
              "name": "id",
              "type": "bytes32"
            },
            {
              "internalType": "bytes32",
              "name": "eventId",
              "type": "bytes32"
            },
            {
              "internalType": "bytes32",
              "name": "ticketTypeId",
              "type": "bytes32"
            },
            {
              "internalType": "uint256",
              "name": "ticketId",
              "type": "uint256"
            },
            {
              "internalType": "uint256",
              "name": "price",
              "type": "uint256"
            },
            {
              "internalType": "address",
              "name": "seller",
              "type": "address"
            },
            {
              "internalType": "address",
              "name": "buyer",
              "type": "address"
            },
            {
              "internalType": "bool",
              "name": "accepted",
              "type": "bool"
            },
            {
              "internalType": "uint256",
              "name": "deadline",
              "type": "uint256"
            },
            {
              "internalType": "bool",
              "name": "buyOffer",
              "type": "bool"
            },
            {
              "internalType": "bool",
              "name": "sellOffer",
              "type": "bool"
            }
          ],
          "internalType": "struct Structs.Offer",
          "name": "",
          "type": "tuple"
        }
      ],
      "stateMutability": "view",
      "type": "function"
    },
    {
      "inputs": [
        {
          "internalType": "bytes32",
          "name": "role",
          "type": "bytes32"
        }
      ],
      "name": "getRoleAdmin",
      "outputs": [
        {
          "internalType": "bytes32",
          "name": "",
          "type": "bytes32"
        }
      ],
      "stateMutability": "view",
      "type": "function"
    },
    {
      "inputs": [
        {
          "internalType": "uint256",
          "name": "_ticketId",
          "type": "uint256"
        }
      ],
      "name": "getSouvenir",
      "outputs": [
        {
          "internalType": "uint256",
          "name": "",
          "type": "uint256"
        }
      ],
      "stateMutability": "nonpayable",
      "type": "function"
    },
    {
      "inputs": [
        {
          "internalType": "uint256",
          "name": "_ticketId",
          "type": "uint256"
        }
      ],
      "name": "getTicket",
      "outputs": [
        {
          "components": [
            {
              "internalType": "uint256",
              "name": "id",
              "type": "uint256"
            },
            {
              "internalType": "bytes32",
              "name": "eventId",
              "type": "bytes32"
            },
            {
              "internalType": "bytes32",
              "name": "ticketTypeId",
              "type": "bytes32"
            },
            {
              "internalType": "uint256",
              "name": "souvenirId",
              "type": "uint256"
            },
            {
              "internalType": "address",
              "name": "owner",
              "type": "address"
            },
            {
              "internalType": "bool",
              "name": "souvenirMinted",
              "type": "bool"
            },
            {
              "internalType": "bool",
              "name": "usable",
              "type": "bool"
            }
          ],
          "internalType": "struct Structs.Ticket",
          "name": "",
          "type": "tuple"
        }
      ],
      "stateMutability": "view",
      "type": "function"
    },
    {
      "inputs": [
        {
          "internalType": "bytes32",
          "name": "_eventId",
          "type": "bytes32"
        },
        {
          "internalType": "bytes32",
          "name": "_ticketTypeId",
          "type": "bytes32"
        }
      ],
      "name": "getTicketType",
      "outputs": [
        {
          "components": [
            {
              "internalType": "bytes32",
              "name": "id",
              "type": "bytes32"
            },
            {
              "internalType": "string",
              "name": "name",
              "type": "string"
            },
            {
              "internalType": "uint256",
              "name": "price",
              "type": "uint256"
            },
            {
              "internalType": "uint256",
              "name": "maxSupply",
              "type": "uint256"
            },
            {
              "internalType": "uint256",
              "name": "currentSupply",
              "type": "uint256"
            },
            {
              "internalType": "string",
              "name": "tokenURI",
              "type": "string"
            },
            {
              "internalType": "string",
              "name": "souvenirTokenURI",
              "type": "string"
            }
          ],
          "internalType": "struct Structs.TicketType",
          "name": "",
          "type": "tuple"
        }
      ],
      "stateMutability": "view",
      "type": "function"
    },
    {
      "inputs": [
        {
          "internalType": "bytes32",
          "name": "role",
          "type": "bytes32"
        },
        {
          "internalType": "address",
          "name": "account",
          "type": "address"
        }
      ],
      "name": "grantRole",
      "outputs": [],
      "stateMutability": "nonpayable",
      "type": "function"
    },
    {
      "inputs": [
        {
          "internalType": "bytes32",
          "name": "role",
          "type": "bytes32"
        },
        {
          "internalType": "address",
          "name": "account",
          "type": "address"
        }
      ],
      "name": "hasRole",
      "outputs": [
        {
          "internalType": "bool",
          "name": "",
          "type": "bool"
        }
      ],
      "stateMutability": "view",
      "type": "function"
    },
    {
      "inputs": [
        {
          "internalType": "address",
          "name": "owner",
          "type": "address"
        },
        {
          "internalType": "address",
          "name": "operator",
          "type": "address"
        }
      ],
      "name": "isApprovedForAll",
      "outputs": [
        {
          "internalType": "bool",
          "name": "",
          "type": "bool"
        }
      ],
      "stateMutability": "view",
      "type": "function"
    },
    {
      "inputs": [],
      "name": "name",
      "outputs": [
        {
          "internalType": "string",
          "name": "",
          "type": "string"
        }
      ],
      "stateMutability": "view",
      "type": "function"
    },
    {
      "inputs": [
        {
          "internalType": "uint256",
          "name": "tokenId",
          "type": "uint256"
        }
      ],
      "name": "ownerOf",
      "outputs": [
        {
          "internalType": "address",
          "name": "",
          "type": "address"
        }
      ],
      "stateMutability": "view",
      "type": "function"
    },
    {
      "inputs": [],
      "name": "ownerWithdraw",
      "outputs": [],
      "stateMutability": "nonpayable",
      "type": "function"
    },
    {
      "inputs": [
        {
          "internalType": "bytes32",
          "name": "_eventId",
          "type": "bytes32"
        },
        {
          "internalType": "bytes32",
          "name": "_ticketTypeId",
          "type": "bytes32"
        }
      ],
      "name": "removeTicketType",
      "outputs": [],
      "stateMutability": "nonpayable",
      "type": "function"
    },
    {
      "inputs": [
        {
          "internalType": "bytes32",
          "name": "role",
          "type": "bytes32"
        },
        {
          "internalType": "address",
          "name": "account",
          "type": "address"
        }
      ],
      "name": "renounceRole",
      "outputs": [],
      "stateMutability": "nonpayable",
      "type": "function"
    },
    {
      "inputs": [
        {
          "internalType": "bytes32",
          "name": "role",
          "type": "bytes32"
        },
        {
          "internalType": "address",
          "name": "account",
          "type": "address"
        }
      ],
      "name": "revokeRole",
      "outputs": [],
      "stateMutability": "nonpayable",
      "type": "function"
    },
    {
      "inputs": [
        {
          "internalType": "address",
          "name": "from",
          "type": "address"
        },
        {
          "internalType": "address",
          "name": "to",
          "type": "address"
        },
        {
          "internalType": "uint256",
          "name": "tokenId",
          "type": "uint256"
        }
      ],
      "name": "safeTransferFrom",
      "outputs": [],
      "stateMutability": "nonpayable",
      "type": "function"
    },
    {
      "inputs": [
        {
          "internalType": "address",
          "name": "from",
          "type": "address"
        },
        {
          "internalType": "address",
          "name": "to",
          "type": "address"
        },
        {
          "internalType": "uint256",
          "name": "tokenId",
          "type": "uint256"
        },
        {
          "internalType": "bytes",
          "name": "data",
          "type": "bytes"
        }
      ],
      "name": "safeTransferFrom",
      "outputs": [],
      "stateMutability": "nonpayable",
      "type": "function"
    },
    {
      "inputs": [
        {
          "internalType": "address",
          "name": "operator",
          "type": "address"
        },
        {
          "internalType": "bool",
          "name": "approved",
          "type": "bool"
        }
      ],
      "name": "setApprovalForAll",
      "outputs": [],
      "stateMutability": "nonpayable",
      "type": "function"
    },
    {
      "inputs": [
        {
          "internalType": "uint256",
          "name": "_organizerDeposit",
          "type": "uint256"
        }
      ],
      "name": "setOrganizerDeposit",
      "outputs": [],
      "stateMutability": "nonpayable",
      "type": "function"
    },
    {
      "inputs": [
        {
          "internalType": "address",
          "name": "_souvenirGeneratorAddress",
          "type": "address"
        }
      ],
      "name": "setSouvenirGeneratorContract",
      "outputs": [],
      "stateMutability": "nonpayable",
      "type": "function"
    },
    {
      "inputs": [
        {
          "internalType": "address",
          "name": "_tokenAddress",
          "type": "address"
        }
      ],
      "name": "setTIKContract",
      "outputs": [],
      "stateMutability": "nonpayable",
      "type": "function"
    },
    {
      "inputs": [
        {
          "internalType": "bytes4",
          "name": "interfaceId",
          "type": "bytes4"
        }
      ],
      "name": "supportsInterface",
      "outputs": [
        {
          "internalType": "bool",
          "name": "",
          "type": "bool"
        }
      ],
      "stateMutability": "view",
      "type": "function"
    },
    {
      "inputs": [],
      "name": "symbol",
      "outputs": [
        {
          "internalType": "string",
          "name": "",
          "type": "string"
        }
      ],
      "stateMutability": "view",
      "type": "function"
    },
    {
      "inputs": [
        {
          "internalType": "uint256",
          "name": "amount",
          "type": "uint256"
        },
        {
          "internalType": "uint256",
          "name": "deadline",
          "type": "uint256"
        },
        {
          "internalType": "uint8",
          "name": "v",
          "type": "uint8"
        },
        {
          "internalType": "bytes32",
          "name": "r",
          "type": "bytes32"
        },
        {
          "internalType": "bytes32",
          "name": "s",
          "type": "bytes32"
        }
      ],
      "name": "ticketPurchasePermit",
      "outputs": [],
      "stateMutability": "nonpayable",
      "type": "function"
    },
    {
      "inputs": [
        {
          "internalType": "uint256",
          "name": "tokenId",
          "type": "uint256"
        }
      ],
      "name": "tokenURI",
      "outputs": [
        {
          "internalType": "string",
          "name": "",
          "type": "string"
        }
      ],
      "stateMutability": "view",
      "type": "function"
    },
    {
      "inputs": [
        {
          "internalType": "address",
          "name": "from",
          "type": "address"
        },
        {
          "internalType": "address",
          "name": "to",
          "type": "address"
        },
        {
          "internalType": "uint256",
          "name": "tokenId",
          "type": "uint256"
        }
      ],
      "name": "transferFrom",
      "outputs": [],
      "stateMutability": "nonpayable",
      "type": "function"
    },
    {
      "inputs": [
        {
          "internalType": "bytes32",
          "name": "_eventId",
          "type": "bytes32"
        },
        {
          "internalType": "string",
          "name": "_name",
          "type": "string"
        },
        {
          "internalType": "string",
          "name": "_description",
          "type": "string"
        },
        {
          "internalType": "string",
          "name": "eventStorage",
          "type": "string"
        },
        {
          "internalType": "uint256",
          "name": "startTime",
          "type": "uint256"
        },
        {
          "internalType": "uint256",
          "name": "endTime",
          "type": "uint256"
        }
      ],
      "name": "updateEvent",
      "outputs": [],
      "stateMutability": "nonpayable",
      "type": "function"
    },
    {
      "inputs": [
        {
          "internalType": "bytes32",
          "name": "_eventId",
          "type": "bytes32"
        },
        {
          "internalType": "bytes32",
          "name": "_ticketTypeId",
          "type": "bytes32"
        },
        {
          "internalType": "string",
          "name": "_ticketName",
          "type": "string"
        },
        {
          "internalType": "string",
          "name": "_tokenURI",
          "type": "string"
        },
        {
          "internalType": "string",
          "name": "_souvenirTokenURI",
          "type": "string"
        },
        {
          "internalType": "uint256",
          "name": "_price",
          "type": "uint256"
        },
        {
          "internalType": "uint256",
          "name": "_maxSupply",
          "type": "uint256"
        }
      ],
      "name": "updateTicketType",
      "outputs": [],
      "stateMutability": "nonpayable",
      "type": "function"
    },
    {
      "inputs": [
        {
          "internalType": "uint256",
          "name": "_ticketId",
          "type": "uint256"
        }
      ],
      "name": "useTicket",
      "outputs": [],
      "stateMutability": "nonpayable",
      "type": "function"
    },
    {
      "inputs": [
        {
          "internalType": "uint256",
          "name": "amount",
          "type": "uint256"
        }
      ],
      "name": "userWithdraw",
      "outputs": [],
      "stateMutability": "nonpayable",
      "type": "function"
    }
  ],
  "bytecode": "0x60806040526000601055600060115566038d7ea4c680006012553480156200002657600080fd5b5060405162005ff438038062005ff48339810160408190526200004991620002bf565b604080518082018252600a815269151a58dad95d0813919560b21b60208083019182528351808501909452600384526213919560ea1b9084015281519192916200009691600191620001fc565b508051620000ac906002906020840190620001fc565b5050600980546001600160a01b038085166001600160a01b031992831617909255600a805492861692909116919091179055506200010b7fb19546dff01e856fb3f010c267a7b1c60363cf8a4664e21cc89c26224620214e336200014c565b620001377f4d2e7a1e3f5dd6e203f087b15756ccf0e4ccd947fe1b639a38540089a1e47f63336200014c565b620001446000336200014c565b505062000334565b6200015882826200015c565b5050565b6000828152602081815260408083206001600160a01b038516845290915290205460ff1662000158576000828152602081815260408083206001600160a01b03851684529091529020805460ff19166001179055620001b83390565b6001600160a01b0316816001600160a01b0316837f2f8788117e7eff1d82e926ec794901d17c78024a50270940304540a733656f0d60405160405180910390a45050565b8280546200020a90620002f7565b90600052602060002090601f0160209004810192826200022e576000855562000279565b82601f106200024957805160ff191683800117855562000279565b8280016001018555821562000279579182015b82811115620002795782518255916020019190600101906200025c565b50620002879291506200028b565b5090565b5b808211156200028757600081556001016200028c565b80516001600160a01b0381168114620002ba57600080fd5b919050565b60008060408385031215620002d357600080fd5b620002de83620002a2565b9150620002ee60208401620002a2565b90509250929050565b600181811c908216806200030c57607f821691505b602082108114156200032e57634e487b7160e01b600052602260045260246000fd5b50919050565b615cb080620003446000396000f3fe6080604052600436106102ae5760003560e01c80637dc379fa11610175578063b88d4fde116100dc578063d539139311610095578063e58378bb1161006f578063e58378bb146108ff578063e5bdaeb714610921578063e985e9c514610941578063f952279e1461098a57600080fd5b8063d53913931461087e578063d547741f146108b2578063d597b8c8146108d257600080fd5b8063b88d4fde146107c9578063baab45fb146107e9578063c87b56dd14610809578063ceed06d514610829578063d0e30db014610849578063d3a819301461085157600080fd5b8063a38c7eb21161012e578063a38c7eb214610709578063a43329ad14610729578063a574cea414610749578063addece2a14610769578063ae1e455414610789578063b64babc2146107a957600080fd5b80637dc379fa146105ee5780638c172fa21461066c57806391d148541461069f57806395d89b41146106bf578063a217fddf146106d4578063a22cb465146106e957600080fd5b80632f2ff15d1161021957806352c0cb6c116101d257806352c0cb6c1461052c5780635c9d690e1461054c57806363113c6a1461056c5780636352211e1461058c57806370a08231146105ac5780637909cb59146105cc57600080fd5b80632f2ff15d1461047757806336568abe146104975780633b9056bf146104b7578063419cc0ec146104d757806342842e0e146104f75780634311de8f1461051757600080fd5b80631cc844bc1161026b5780631cc844bc146103a757806323b872dd146103c7578063248a9ca3146103e757806326606448146104175780632ae563c1146104375780632d32165f1461045757600080fd5b806301ffc9a7146102b3578063042e7ea9146102e857806306fdde031461031657806307b17fc914610338578063081812fc1461034f578063095ea7b314610387575b600080fd5b3480156102bf57600080fd5b506102d36102ce366004614e36565b6109aa565b60405190151581526020015b60405180910390f35b3480156102f457600080fd5b50610308610303366004614e6f565b6109bb565b6040519081526020016102df565b34801561032257600080fd5b5061032b610e1b565b6040516102df9190614efc565b34801561034457600080fd5b5061034d610ead565b005b34801561035b57600080fd5b5061036f61036a366004614f0f565b611087565b6040516001600160a01b0390911681526020016102df565b34801561039357600080fd5b5061034d6103a2366004614f28565b6110ae565b3480156103b357600080fd5b5061034d6103c2366004614f0f565b6111c4565b3480156103d357600080fd5b5061034d6103e2366004614f52565b611395565b3480156103f357600080fd5b50610308610402366004614f0f565b60009081526020819052604090206001015490565b34801561042357600080fd5b5061034d610432366004614f0f565b6113c6565b34801561044357600080fd5b5061034d61045236600461503a565b611611565b34801561046357600080fd5b5061034d6104723660046150de565b6117b6565b34801561048357600080fd5b5061034d610492366004615100565b611acb565b3480156104a357600080fd5b5061034d6104b2366004615100565b611af0565b3480156104c357600080fd5b5061034d6104d2366004614f0f565b611b6e565b3480156104e357600080fd5b5061034d6104f236600461513d565b611d9e565b34801561050357600080fd5b5061034d610512366004614f52565b611e13565b34801561052357600080fd5b5061034d611e2e565b34801561053857600080fd5b5061034d610547366004615184565b611f7a565b34801561055857600080fd5b5061034d61056736600461503a565b611fd0565b34801561057857600080fd5b5061034d610587366004615184565b612174565b34801561059857600080fd5b5061036f6105a7366004614f0f565b6121ca565b3480156105b857600080fd5b506103086105c7366004615184565b61222a565b3480156105d857600080fd5b50610308600080516020615c5b83398151915281565b3480156105fa57600080fd5b5061060e610609366004614f0f565b6122b0565b6040516102df9190815181526020808301519082015260408083015190820152606080830151908201526080808301516001600160a01b03169082015260a08083015115159082015260c09182015115159181019190915260e00190565b34801561067857600080fd5b5061068c610687366004614f0f565b6123c7565b6040516102df979695949392919061519f565b3480156106ab57600080fd5b506102d36106ba366004615100565b612651565b3480156106cb57600080fd5b5061032b61267a565b3480156106e057600080fd5b50610308600081565b3480156106f557600080fd5b5061034d61070436600461524d565b612689565b34801561071557600080fd5b50610308610724366004614f0f565b612694565b34801561073557600080fd5b5061034d610744366004615284565b6128fe565b34801561075557600080fd5b5061032b610764366004614f0f565b612b6b565b34801561077557600080fd5b5061034d6107843660046150de565b612b76565b34801561079557600080fd5b5061034d6107a436600461513d565b612dfa565b3480156107b557600080fd5b5061034d6107c43660046152ea565b613188565b3480156107d557600080fd5b5061034d6107e4366004615325565b6133e7565b3480156107f557600080fd5b5061034d6108043660046153a1565b61341f565b34801561081557600080fd5b5061032b610824366004614f0f565b61360e565b34801561083557600080fd5b5061034d6108443660046153a1565b61371f565b61034d6139bc565b34801561085d57600080fd5b5061087161086c3660046150de565b613a6d565b6040516102df91906154c9565b34801561088a57600080fd5b506103087f9f2df0fed2c77648de5860a4cc508cd0818c85b8b8a1ab4ceeef8d981c8956a681565b3480156108be57600080fd5b5061034d6108cd366004615100565b613d27565b3480156108de57600080fd5b506108f26108ed366004614f0f565b613d4c565b6040516102df91906154dc565b34801561090b57600080fd5b50610308600080516020615c3b83398151915281565b34801561092d57600080fd5b5061034d61093c366004614f0f565b613e5c565b34801561094d57600080fd5b506102d361095c366004615587565b6001600160a01b03918216600090815260066020908152604080832093909416825291909152205460ff1690565b34801561099657600080fd5b5061034d6109a5366004614f0f565b613e95565b60006109b582614026565b92915050565b6000838152600c602052604081205484906109f15760405162461bcd60e51b81526004016109e8906155b1565b60405180910390fd5b6000858152600c6020908152604080832087845260090190915290205485908590610a2e5760405162461bcd60e51b81526004016109e8906155df565b6000878152600c60209081526040808320898452600981019092529091206004810154610a9d5760405162461bcd60e51b815260206004820152601f60248201527f5469636b6574732066726f6d2074686973207479706520736f6c64206f75740060448201526064016109e8565b6002810154600a54604051636eb1769f60e11b81523360048201523060248201526001600160a01b039091169063dd62ed3e9060440160206040518083038186803b158015610aeb57600080fd5b505afa158015610aff573d6000803e3d6000fd5b505050506040513d601f19601f82011682018060405250810190610b239190615616565b1015610b415760405162461bcd60e51b81526004016109e89061562f565b600a54600183015460028301546040516323b872dd60e01b81523360048201526001600160a01b039283166024820152604481019190915260009291909116906323b872dd90606401602060405180830381600087803b158015610ba457600080fd5b505af1158015610bb8573d6000803e3d6000fd5b505050506040513d601f19601f82011682018060405250810190610bdc9190615666565b905080610bfb5760405162461bcd60e51b81526004016109e890615683565b600482018054906000610c0d836156c2565b91905055506000610caa89846005018054610c27906156d9565b80601f0160208091040260200160405190810160405280929190818152602001828054610c53906156d9565b8015610ca05780601f10610c7557610100808354040283529160200191610ca0565b820191906000526020600020905b815481529060010190602001808311610c8357829003601f168201915b5050505050614066565b9050610ceb6040805160e081018252600080825260208201819052918101829052606081018290526080810182905260a0810182905260c081019190915290565b81815260208082018d815260408084018e81526001600160a01b03808f1660808701818152600160c0890181815260008b8152600e9099528689208a5181558851818401558651600282015560608b015160038083019190915593516004909101805460a08d015193511515600160a81b0260ff60a81b19941515600160a01b026001600160a81b03199092169390981692909217919091179190911694909417909355600d805493840181559096527fd7b6990105719101dabeb77144f2a3385c8033acd3af97e9423a695e81ad1eb590910187905592519051938901549151929333937fa315c04ae5193ef2d9052d2616973c434126e9e2232a0e6b1b693a8289b3caec93610e04939291899160058d01916157ae565b60405180910390a3509a9950505050505050505050565b606060018054610e2a906156d9565b80601f0160208091040260200160405190810160405280929190818152602001828054610e56906156d9565b8015610ea35780601f10610e7857610100808354040283529160200191610ea3565b820191906000526020600020905b815481529060010190602001808311610e8657829003601f168201915b5050505050905090565b610ec5600080516020615c5b83398151915233612651565b15610f125760405162461bcd60e51b815260206004820152601e60248201527f43616c6c657220697320616c726561647920616e206f7267616e697a6572000060448201526064016109e8565b601254600a546040516370a0823160e01b81523360048201526001600160a01b03909116906370a082319060240160206040518083038186803b158015610f5857600080fd5b505afa158015610f6c573d6000803e3d6000fd5b505050506040513d601f19601f82011682018060405250810190610f909190615616565b1015610fec5760405162461bcd60e51b815260206004820152602560248201527f4e6f7420656e6f75676820746f6b656e7320746f206265636f6d65206f7267616044820152643734bd32b960d91b60648201526084016109e8565b600a54601254604051632770a7eb60e21b815233600482015260248101919091526001600160a01b0390911690639dc29fac90604401600060405180830381600087803b15801561103c57600080fd5b505af1158015611050573d6000803e3d6000fd5b5050505061106c600080516020615c5b833981519152336140eb565b6012546011600082825461108091906157e5565b9091555050565b6000611092826140f5565b506000908152600560205260409020546001600160a01b031690565b60006110b9826121ca565b9050806001600160a01b0316836001600160a01b031614156111275760405162461bcd60e51b815260206004820152602160248201527f4552433732313a20617070726f76616c20746f2063757272656e74206f776e656044820152603960f91b60648201526084016109e8565b336001600160a01b03821614806111435750611143813361095c565b6111b55760405162461bcd60e51b815260206004820152603e60248201527f4552433732313a20617070726f76652063616c6c6572206973206e6f7420746f60448201527f6b656e206f776e6572206e6f7220617070726f76656420666f7220616c6c000060648201526084016109e8565b6111bf8383614157565b505050565b6000818152600c602052604090205481906111f15760405162461bcd60e51b81526004016109e8906155b1565b611209600080516020615c5b83398151915233612651565b6112255760405162461bcd60e51b81526004016109e8906157fd565b6000828152600c60205260409020600101546001600160a01b0316331461128e5760405162461bcd60e51b815260206004820152601f60248201527f4f6e6c79206f7267616e697a65722063616e2072656d6f7665206576656e740060448201526064016109e8565b6000828152600c6020526040902060070154156112ed5760405162461bcd60e51b815260206004820152601c60248201527f4576656e74207374696c6c20686173207469636b65742074797065730000000060448201526064016109e8565b6000828152600c602052604081208181556001810180546001600160a01b03191690559061131e6002830182614cd3565b6003820160009055600482016000905560058201600061133e9190614cd3565b61134c600683016000614cd3565b61135a600783016000614d0d565b505060405182815233907f6e3bc81a96d2f5065ad94a6a93273d83748be7ace6c49f293c543738f62a5b6a9060200160405180910390a25050565b61139f33826141c5565b6113bb5760405162461bcd60e51b81526004016109e890615849565b6111bf838383614243565b6113de600080516020615c5b83398151915233612651565b6113fa5760405162461bcd60e51b81526004016109e8906157fd565b6000818152600e6020526040902060040154600160a81b900460ff166114565760405162461bcd60e51b81526020600482015260116024820152705469636b6574206e6f7420757361626c6560781b60448201526064016109e8565b6000818152600e602090815260408083206001908101548452600c90925290912001546001600160a01b031633146114c45760405162461bcd60e51b81526020600482015260116024820152702737ba103a34329037b933b0b734bd32b960791b60448201526064016109e8565b6000818152600e60209081526040808320600101548352600c9091529020600401541561154d576000818152600e60209081526040808320600101548352600c909152902060040154421061154d5760405162461bcd60e51b815260206004820152600f60248201526e115d995b9d081a185cc8195b991959608a1b60448201526064016109e8565b6000818152600e60209081526040808320600101548352600c9091529020600301544210156115b65760405162461bcd60e51b8152602060048201526015602482015274115d995b9d081a185cc81b9bdd081cdd185c9d1959605a1b60448201526064016109e8565b6000818152600e602052604090819020600401805460ff60a81b191690555133907f31684b65477a7d1fd4edef84ea40d8f3d6c7531a2e48dfdf9c8c55c8ec5496f9906116069084815260200190565b60405180910390a250565b611629600080516020615c5b83398151915233612651565b6116455760405162461bcd60e51b81526004016109e8906157fd565b6000868152600c6020526040902054156116985760405162461bcd60e51b81526020600482015260146024820152734576656e7420616c72656164792065786973747360601b60448201526064016109e8565b600b805460018181019092557f0175b7a638427703f0dbe7bb9bbf987a2551717b34e79f33b5b1008d1fa01db9018790556000878152600c6020908152604090912088815591820180546001600160a01b0319163317905586516117029260020191880190614d2b565b506000868152600c60209081526040909120855161172892600590920191870190614d2b565b506000868152600c60209081526040909120845161174e92600690920191860190614d2b565b506000868152600c602052604090819020600381018490556004018290555133907f7504b7211fc397a6d4b4a91cead765e14abf7680c1e7671c31087fc8d2c7256e906117a690899089908990899089908990615897565b60405180910390a2505050505050565b6000828152600f6020526040902060068101546001600160a01b03163314156118215760405162461bcd60e51b815260206004820152601a60248201527f43616e6e6f742062757920796f7572206f776e207469636b657400000000000060448201526064016109e8565b600481810154600a546006840154604051636eb1769f60e11b81526001600160a01b0391821694810194909452306024850152919291169063dd62ed3e9060440160206040518083038186803b15801561187a57600080fd5b505afa15801561188e573d6000803e3d6000fd5b505050506040513d601f19601f820116820180604052508101906118b29190615616565b10156118d05760405162461bcd60e51b81526004016109e89061562f565b60038101829055600a5460068201546004808401546040516323b872dd60e01b81526001600160a01b0393841692810192909252336024830152604482015260009291909116906323b872dd90606401602060405180830381600087803b15801561193a57600080fd5b505af115801561194e573d6000803e3d6000fd5b505050506040513d601f19601f820116820180604052508101906119729190615666565b9050806119915760405162461bcd60e51b81526004016109e890615683565b600682015460038301546119b29133916001600160a01b03909116906143df565b60068201805460ff60a01b198116600160a01b17909155600580840180546001600160a01b031916339081179091556001850154600286015460038701546000838152600c602090815260408083208584526009019091529081902060048a0154915195976001600160a01b0316968c967f7290e6fa19a97e2b68363bf3455b9fa2fa8b741ea3cb84b7b3eabcb93fd246ec96611a599690959094909390920191906157ae565b60405180910390a45050506000908152600f60205260408120818155600181018290556002810182905560038101829055600481018290556005810180546001600160a01b03191690556006810180546001600160a81b03191690556007810191909155600801805461ffff19169055565b600082815260208190526040902060010154611ae681614456565b6111bf8383614460565b6001600160a01b0381163314611b605760405162461bcd60e51b815260206004820152602f60248201527f416363657373436f6e74726f6c3a2063616e206f6e6c792072656e6f756e636560448201526e103937b632b9903337b91039b2b63360891b60648201526084016109e8565b611b6a82826144e4565b5050565b600a546040516370a0823160e01b81523360048201526000916001600160a01b0316906370a082319060240160206040518083038186803b158015611bb257600080fd5b505afa158015611bc6573d6000803e3d6000fd5b505050506040513d601f19601f82011682018060405250810190611bea9190615616565b905080821115611c3c5760405162461bcd60e51b815260206004820152601a60248201527f4e6f7420656e6f75676820746f2062652077697468647261776e00000000000060448201526064016109e8565b601054821115611c8e5760405162461bcd60e51b815260206004820152601e60248201527f57697468647261772069732063757272656e746c792064697361626c6564000060448201526064016109e8565b604051600090339084156108fc0290859084818181858888f19350505050905080611ce95760405162461bcd60e51b815260206004820152600b60248201526a1cd95b990819985a5b195960aa1b60448201526064016109e8565b600a54604051632770a7eb60e21b8152336004820152602481018590526001600160a01b0390911690639dc29fac90604401600060405180830381600087803b158015611d3557600080fd5b505af1158015611d49573d6000803e3d6000fd5b50506040518581523392507f884edad9ce6fa2440d8a54cc123490eb96d2768479d49ff9c7366125a9424364915060200160405180910390a28260106000828254611d9491906158ec565b9091555050505050565b600a5460405163d505accf60e01b81526001600160a01b039091169063d505accf90611dda90339030908a908a908a908a908a90600401615903565b600060405180830381600087803b158015611df457600080fd5b505af1158015611e08573d6000803e3d6000fd5b505050505050505050565b6111bf838383604051806020016040528060008152506133e7565b611e46600080516020615c3b83398151915233612651565b611e8b5760405162461bcd60e51b815260206004820152601660248201527521b0b63632b91034b9903737ba1030b71037bbb732b960511b60448201526064016109e8565b600060115411611edd5760405162461bcd60e51b815260206004820152601a60248201527f4e6f7420656e6f75676820746f2062652077697468647261776e00000000000060448201526064016109e8565b601154604051600091339181156108fc02919084818181858888f19350505050905080611f3a5760405162461bcd60e51b815260206004820152600b60248201526a1cd95b990819985a5b195960aa1b60448201526064016109e8565b60115460405190815233907f884edad9ce6fa2440d8a54cc123490eb96d2768479d49ff9c7366125a94243649060200160405180910390a2506000601155565b611f92600080516020615c3b83398151915233612651565b611fae5760405162461bcd60e51b81526004016109e890615944565b600980546001600160a01b0319166001600160a01b0392909216919091179055565b6000868152600c60205260409020548690611ffd5760405162461bcd60e51b81526004016109e8906155b1565b612015600080516020615c5b83398151915233612651565b6120315760405162461bcd60e51b81526004016109e8906157fd565b6000878152600c60205260409020600101546001600160a01b0316331461209a5760405162461bcd60e51b815260206004820152601d60248201527f4f6e6c79206f7267616e697a65722063616e2065646974206576656e7400000060448201526064016109e8565b6000878152600c6020908152604090912087516120bf92600290920191890190614d2b565b506000878152600c6020908152604090912086516120e592600590920191880190614d2b565b506000878152600c60209081526040909120855161210b92600690920191870190614d2b565b506000878152600c602052604090819020600381018590556004018390555133907fc261b9e16c24735219b284c636efee4491a482920a229627b9f62b9eec64cf2690612163908a908a908a908a908a908a90615897565b60405180910390a250505050505050565b61218c600080516020615c3b83398151915233612651565b6121a85760405162461bcd60e51b81526004016109e890615944565b600a80546001600160a01b0319166001600160a01b0392909216919091179055565b6000818152600360205260408120546001600160a01b0316806109b55760405162461bcd60e51b8152602060048201526018602482015277115490cdcc8c4e881a5b9d985b1a59081d1bdad95b88125160421b60448201526064016109e8565b60006001600160a01b0382166122945760405162461bcd60e51b815260206004820152602960248201527f4552433732313a2061646472657373207a65726f206973206e6f7420612076616044820152683634b21037bbb732b960b91b60648201526084016109e8565b506001600160a01b031660009081526004602052604090205490565b6040805160e081018252600080825260208201819052918101829052606081018290526080810182905260a0810182905260c081019190915260008281526003602052604090205482906001600160a01b03166123475760405162461bcd60e51b8152602060048201526015602482015274151a58dad95d08191bd95cc81b9bdd08195e1a5cdd605a1b60448201526064016109e8565b6000838152600e6020908152604091829020825160e08101845281548152600182015492810192909252600281015492820192909252600382015460608201526004909101546001600160a01b038116608083015260ff600160a01b82048116151560a0840152600160a81b90910416151560c082015291505b50919050565b6000818152600c60205260408120546060908190819084908190839088906124015760405162461bcd60e51b81526004016109e8906155b1565b6000898152600c602052604090206001810154600382015460048301546002840180546001600160a01b03909416939092600586019260068701926007880190869061244c906156d9565b80601f0160208091040260200160405190810160405280929190818152602001828054612478906156d9565b80156124c55780601f1061249a576101008083540402835291602001916124c5565b820191906000526020600020905b8154815290600101906020018083116124a857829003601f168201915b505050505095508480546124d8906156d9565b80601f0160208091040260200160405190810160405280929190818152602001828054612504906156d9565b80156125515780601f1061252657610100808354040283529160200191612551565b820191906000526020600020905b81548152906001019060200180831161253457829003601f168201915b50505050509450838054612564906156d9565b80601f0160208091040260200160405190810160405280929190818152602001828054612590906156d9565b80156125dd5780601f106125b2576101008083540402835291602001916125dd565b820191906000526020600020905b8154815290600101906020018083116125c057829003601f168201915b505050505093508080548060200260200160405190810160405280929190818152602001828054801561262f57602002820191906000526020600020905b81548152602001906001019080831161261b575b5050505050905098509850985098509850985098505050919395979092949650565b6000918252602082815260408084206001600160a01b0393909316845291905290205460ff1690565b606060028054610e2a906156d9565b611b6a338383614549565b60008181526003602052604081205482906001600160a01b03166126f25760405162461bcd60e51b8152602060048201526015602482015274151a58dad95d08191bd95cc81b9bdd08195e1a5cdd605a1b60448201526064016109e8565b82336126fd826121ca565b6001600160a01b0316146127235760405162461bcd60e51b81526004016109e890615985565b6000848152600e6020908152604091829020825160e08101845281548152600182015492810192909252600281015492820192909252600382015460608201526004909101546001600160a01b038116608083015260ff600160a01b8204811615801560a0850152600160a81b90920416151560c08301526127e75760405162461bcd60e51b815260206004820152601760248201527f536f7576656e697220616c7265616479206d696e74656400000000000000000060448201526064016109e8565b8060c00151156128395760405162461bcd60e51b815260206004820152601d60248201527f5469636b6574207374696c6c206861736e2774206265656e207573656400000060448201526064016109e8565b600980546020808401516000908152600c825260408082208187015183529094019091528281209251630d385de160e01b815290926001600160a01b0390921691630d385de1916128949133916006909101906004016159cd565b602060405180830381600087803b1580156128ae57600080fd5b505af11580156128c2573d6000803e3d6000fd5b505050506040513d601f19601f820116820180604052508101906128e69190615616565b600160a0840152606090920182905250949350505050565b600a5460405163d505accf60e01b81526001600160a01b039091169063d505accf9061293a90339030908a908a908a908a908a90600401615903565b600060405180830381600087803b15801561295457600080fd5b505af1158015612968573d6000803e3d6000fd5b50505050612974614daf565b88816000018181525050338160c001906001600160a01b031690816001600160a01b031681525050878160200181815250508681604001818152505085816080018181525050848161010001818152505060018161012001901515908115158152505060008161014001901515908115158152505080600f60008b8152602001908152602001600020600082015181600001556020820151816001015560408201518160020155606082015181600301556080820151816004015560a08201518160050160006101000a8154816001600160a01b0302191690836001600160a01b0316021790555060c08201518160060160006101000a8154816001600160a01b0302191690836001600160a01b0316021790555060e08201518160060160146101000a81548160ff02191690831515021790555061010082015181600701556101208201518160080160006101000a81548160ff0219169083151502179055506101408201518160080160016101000a81548160ff021916908315150217905550905050336001600160a01b03167f8c0532da8a9f0675da764e7b35fbb8c2c8868976193fc36ffad259ddb5675ca48a8a8a8a8a604051612b58959493929190948552602085019390935260408401919091526060830152608082015260a00190565b60405180910390a2505050505050505050565b60606109b58261360e565b6000828152600c60205260409020548290612ba35760405162461bcd60e51b81526004016109e8906155b1565b6000838152600c6020908152604080832085845260090190915290205483908390612be05760405162461bcd60e51b81526004016109e8906155df565b612bf8600080516020615c5b83398151915233612651565b612c145760405162461bcd60e51b81526004016109e8906157fd565b6000858152600c6020526040902060018101546001600160a01b03163314612c8c5760405162461bcd60e51b815260206004820152602560248201527f4f6e6c79206f7267616e697a65722063616e2072656d6f7665207469636b6574604482015264207479706560d81b60648201526084016109e8565b6000858152600982016020526040812081815590612cad6001830182614cd3565b600282016000905560038201600090556004820160009055600582016000612cd59190614cd3565b612ce3600683016000614cd3565b50506000858152600882016020526040812054600783015460ff9091169190612d0e906001906159f1565b90506000836007018260ff1681548110612d2a57612d2a615a14565b6000918252602080832090910154808352600887019091526040808320805460ff881660ff1991821681179092558c85529190932080549091169055600786018054919350839290918110612d8157612d81615a14565b60009182526020909120015560078401805480612da057612da0615a2a565b60019003818190600052602060002001600090559055336001600160a01b03167fb410e6f99b84b07294f81fef7fc54f574ff6305a91ad7aa82c9e05deb5ca00918a8a604051612b58929190918252602082015260400190565b6000858152600f6020526040902060058101546001600160a01b0316331415612e655760405162461bcd60e51b815260206004820152601a60248201527f43616e6e6f742062757920796f7572206f776e207469636b657400000000000060448201526064016109e8565b600a5460048083015460405163d505accf60e01b81526001600160a01b039093169263d505accf92612ea392339230928c918c918c918c9101615903565b600060405180830381600087803b158015612ebd57600080fd5b505af1158015612ed1573d6000803e3d6000fd5b50505050600481810154600a54604051636eb1769f60e11b8152339381019390935230602484015290916001600160a01b039091169063dd62ed3e9060440160206040518083038186803b158015612f2857600080fd5b505afa158015612f3c573d6000803e3d6000fd5b505050506040513d601f19601f82011682018060405250810190612f609190615616565b1015612f7e5760405162461bcd60e51b81526004016109e89061562f565b600a5460058201546004808401546040516323b872dd60e01b815233928101929092526001600160a01b039283166024830152604482015260009291909116906323b872dd90606401602060405180830381600087803b158015612fe157600080fd5b505af1158015612ff5573d6000803e3d6000fd5b505050506040513d601f19601f820116820180604052508101906130199190615666565b9050806130385760405162461bcd60e51b81526004016109e890615683565b60058201546003830154613057916001600160a01b03169033906143df565b6006820180546001600160a81b03191633908117600160a01b179091556003830180546000908152600e602090815260408083206004908101805460ff60a81b1916600160a81b17905560058089015460018a015460028b01549754818852600c875285882089895260090190965295849020928a015493516001600160a01b0391909116968f967f74d4a4b83241ac6e92c85cb30050e3a85c7c42122aeef8712fc2f603a3a8c3cb96613113969195929490939201916157ae565b60405180910390a450505060009384525050600f6020525060408120818155600181018290556002810182905560038101829055600481018290556005810180546001600160a01b03191690556006810180546001600160a81b03191690556007810191909155600801805461ffff19169055565b8133613193826121ca565b6001600160a01b0316146131b95760405162461bcd60e51b81526004016109e890615985565b6131c1614daf565b86816000018181525050338160a001906001600160a01b031690816001600160a01b0316815250508581602001818152505084816040018181525050838160600181815250508281608001818152505060008161010001818152505060008161012001901515908115158152505060018161014001901515908115158152505080600f6000898152602001908152602001600020600082015181600001556020820151816001015560408201518160020155606082015181600301556080820151816004015560a08201518160050160006101000a8154816001600160a01b0302191690836001600160a01b0316021790555060c08201518160060160006101000a8154816001600160a01b0302191690836001600160a01b0316021790555060e08201518160060160146101000a81548160ff02191690831515021790555061010082015181600701556101208201518160080160006101000a81548160ff0219169083151502179055506101408201518160080160016101000a81548160ff0219169083151502179055509050506000600e600086815260200190815260200160002060040160156101000a81548160ff021916908315150217905550336001600160a01b0316877f0f27c48668db2e12a5e88bc77cf8b459181c7ee1e6264ddb55242efe89d9d039888888886040516133d6949392919093845260208401929092526040830152606082015260800190565b60405180910390a350505050505050565b6133f133836141c5565b61340d5760405162461bcd60e51b81526004016109e890615849565b61341984848484614610565b50505050565b6000878152600c6020526040902054879061344c5760405162461bcd60e51b81526004016109e8906155b1565b6000888152600c602090815260408083208a8452600901909152902054889088906134895760405162461bcd60e51b81526004016109e8906155df565b60008a8152600c60205260409020600101546001600160a01b031633146134fe5760405162461bcd60e51b815260206004820152602360248201527f4f6e6c79206f7267616e697a65722063616e2065646974207469636b6574207460448201526279706560e81b60648201526084016109e8565b6040805160e0810182528a815260208082018b8152828401899052606083018890526080830188905260a083018b905260c083018a905260008e8152600c83528481208e8252600901835293909320825181559251805192938493909261356c926001850192910190614d2b565b5060408201516002820155606082015160038201556080820151600482015560a082015180516135a6916005840191602090910190614d2b565b5060c082015180516135c2916006840191602090910190614d2b565b50506040513391507ffc051c354a57b794e7a2a34dc7a0ab81839aab32ad19ecc48bc4f2a549d7e469906135f9908e908590615a40565b60405180910390a25050505050505050505050565b6060613619826140f5565b60008281526007602052604081208054613632906156d9565b80601f016020809104026020016040519081016040528092919081815260200182805461365e906156d9565b80156136ab5780601f10613680576101008083540402835291602001916136ab565b820191906000526020600020905b81548152906001019060200180831161368e57829003601f168201915b5050505050905060006136c960408051602081019091526000815290565b90508051600014156136dc575092915050565b81511561370e5780826040516020016136f6929190615a59565b60405160208183030381529060405292505050919050565b61371784614643565b949350505050565b6000878152600c6020526040902054879061374c5760405162461bcd60e51b81526004016109e8906155b1565b613764600080516020615c5b83398151915233612651565b6137805760405162461bcd60e51b81526004016109e8906157fd565b6000888152600c60205260409020600101546001600160a01b0316331461380f5760405162461bcd60e51b815260206004820152603760248201527f4f6e6c7920746865206f7267616e697a6572206f662074686973206576656e7460448201527f2063616e20637265617465207469636b6574207479706500000000000000000060648201526084016109e8565b6000888152600c602090815260408083208a8452600901909152902054156138795760405162461bcd60e51b815260206004820152601a60248201527f5469636b6574207479706520616c72656164792065786973747300000000000060448201526064016109e8565b6040805160e0810182528881526020808201898152828401879052606083018690526080830186905260a0830189905260c0830188905260008c8152600c83528481208c825260090183529390932082518155925180519293849390926138e7926001850192910190614d2b565b5060408201516002820155606082015160038201556080820151600482015560a08201518051613921916005840191602090910190614d2b565b5060c0820151805161393d916006840191602090910190614d2b565b5050506000898152600c602081815260408084206007810180548e875260089092018452828620805460ff191660ff9093169290921790915592825282546001810184559284529220018990555133907f86f1c49c5e96f57ffd1bbdcf5973aa010e8c5bb16218eaace76fa50c7e66b5b790612b58908c908590615a40565b600a546040516340c10f1960e01b81523360048201523460248201526001600160a01b03909116906340c10f1990604401600060405180830381600087803b158015613a0757600080fd5b505af1158015613a1b573d6000803e3d6000fd5b505050503460106000828254613a3191906157e5565b909155505060405134815233907fe1fffcc4923d04b559f4d29a8bfc6cda04eb5b0d3c460751c2402c5c5cc9109c9060200160405180910390a2565b613ab06040518060e00160405280600080191681526020016060815260200160008152602001600081526020016000815260200160608152602001606081525090565b6000838152600c60205260409020548390613add5760405162461bcd60e51b81526004016109e8906155b1565b6000848152600c6020908152604080832086845260090190915290205484908490613b1a5760405162461bcd60e51b81526004016109e8906155df565b6000868152600c60209081526040808320888452600901825291829020825160e08101909352805483526001810180549192840191613b58906156d9565b80601f0160208091040260200160405190810160405280929190818152602001828054613b84906156d9565b8015613bd15780601f10613ba657610100808354040283529160200191613bd1565b820191906000526020600020905b815481529060010190602001808311613bb457829003601f168201915b50505050508152602001600282015481526020016003820154815260200160048201548152602001600582018054613c08906156d9565b80601f0160208091040260200160405190810160405280929190818152602001828054613c34906156d9565b8015613c815780601f10613c5657610100808354040283529160200191613c81565b820191906000526020600020905b815481529060010190602001808311613c6457829003601f168201915b50505050508152602001600682018054613c9a906156d9565b80601f0160208091040260200160405190810160405280929190818152602001828054613cc6906156d9565b8015613d135780601f10613ce857610100808354040283529160200191613d13565b820191906000526020600020905b815481529060010190602001808311613cf657829003601f168201915b505050505081525050935050505092915050565b600082815260208190526040902060010154613d4281614456565b6111bf83836144e4565b613d54614daf565b6000828152600f60205260409020548290613da85760405162461bcd60e51b815260206004820152601460248201527313d999995c88191bd95cc81b9bdd08195e1a5cdd60621b60448201526064016109e8565b50506000908152600f602090815260409182902082516101608101845281548152600182015492810192909252600281015492820192909252600382015460608201526004820154608082015260058201546001600160a01b0390811660a0830152600683015490811660c0830152600160a01b900460ff908116151560e0830152600783015461010080840191909152600890930154808216151561012084015292909204909116151561014082015290565b613e74600080516020615c3b83398151915233612651565b613e905760405162461bcd60e51b81526004016109e890615944565b601255565b6000818152600f6020526040902060068101546001600160a01b031633148015613ec85750600881015460ff1615156001145b80613ef3575060058101546001600160a01b031633148015613ef35750600881015460ff1615156001145b613f3f5760405162461bcd60e51b815260206004820152601760248201527f4e6f7420746865206275796572206f722073656c6c657200000000000000000060448201526064016109e8565b6006810154600160a01b900460ff1615613f945760405162461bcd60e51b815260206004820152601660248201527513d999995c88185b1c9958591e481858d8d95c1d195960521b60448201526064016109e8565b6000828152600f6020526040808220828155600181018390556002810183905560038101839055600481018390556005810180546001600160a01b03191690556006810180546001600160a81b031916905560078101839055600801805461ffff1916905551339184917f74aeca155f6310e463cf88472fe14b61a7990f14c88a8f0a03b10306a88da8429190a35050565b60006001600160e01b031982166380ac58cd60e01b148061405757506001600160e01b03198216635b5e139f60e01b145b806109b557506109b5826146b7565b6000614076600880546001019055565b600061408160085490565b905061408d84826146ec565b614097818461482e565b836001600160a01b0316336001600160a01b03167f3bfd449b4868a01647da19bf179397e8853acef45f717b1a679952bc67693cdd83866040516140dc929190615a88565b60405180910390a39392505050565b611b6a8282614460565b6000818152600360205260409020546001600160a01b03166141545760405162461bcd60e51b8152602060048201526018602482015277115490cdcc8c4e881a5b9d985b1a59081d1bdad95b88125160421b60448201526064016109e8565b50565b600081815260056020526040902080546001600160a01b0319166001600160a01b038416908117909155819061418c826121ca565b6001600160a01b03167f8c5be1e5ebec7d5bd14f71427d1e84f3dd0314c0f7b2291e5b200ac8c7c3b92560405160405180910390a45050565b6000806141d1836121ca565b9050806001600160a01b0316846001600160a01b0316148061421857506001600160a01b0380821660009081526006602090815260408083209388168352929052205460ff165b806137175750836001600160a01b031661423184611087565b6001600160a01b031614949350505050565b826001600160a01b0316614256826121ca565b6001600160a01b0316146142ba5760405162461bcd60e51b815260206004820152602560248201527f4552433732313a207472616e736665722066726f6d20696e636f72726563742060448201526437bbb732b960d91b60648201526084016109e8565b6001600160a01b03821661431c5760405162461bcd60e51b8152602060048201526024808201527f4552433732313a207472616e7366657220746f20746865207a65726f206164646044820152637265737360e01b60648201526084016109e8565b614327600082614157565b6001600160a01b03831660009081526004602052604081208054600192906143509084906158ec565b90915550506001600160a01b038216600090815260046020526040812080546001929061437e9084906157e5565b909155505060008181526003602052604080822080546001600160a01b0319166001600160a01b0386811691821790925591518493918716917fddf252ad1be2c89b69c2b068fc378daa952ba7f163c4a11628f55a4df523b3ef91a4505050565b6143ea838383614243565b6000818152600e602090815260409182902060040180546001600160a01b0319166001600160a01b038681169182179092559251848152908616917f235a69dc2480d40b13f4bee2b08a32b678f03ca558ff46eba22ce16ace78b6ad91015b60405180910390a3505050565b61415481336148c8565b61446a8282612651565b611b6a576000828152602081815260408083206001600160a01b03851684529091529020805460ff191660011790556144a03390565b6001600160a01b0316816001600160a01b0316837f2f8788117e7eff1d82e926ec794901d17c78024a50270940304540a733656f0d60405160405180910390a45050565b6144ee8282612651565b15611b6a576000828152602081815260408083206001600160a01b0385168085529252808320805460ff1916905551339285917ff6391f5c32d9c69d2a47ea670b442974b53935d1edc7fd64eb21e047a839171b9190a45050565b816001600160a01b0316836001600160a01b031614156145ab5760405162461bcd60e51b815260206004820152601960248201527f4552433732313a20617070726f766520746f2063616c6c65720000000000000060448201526064016109e8565b6001600160a01b03838116600081815260066020908152604080832094871680845294825291829020805460ff191686151590811790915591519182527f17307eab39ab6107e8899845ad3d59bd9653f200f220920489ca2b5937696c319101614449565b61461b848484614243565b6146278484848461492c565b6134195760405162461bcd60e51b81526004016109e890615aa1565b606061464e826140f5565b600061466560408051602081019091526000815290565b9050600081511161468557604051806020016040528060008152506146b0565b8061468f84614a39565b6040516020016146a0929190615a59565b6040516020818303038152906040525b9392505050565b60006001600160e01b03198216637965db0b60e01b14806109b557506301ffc9a760e01b6001600160e01b03198316146109b5565b6001600160a01b0382166147425760405162461bcd60e51b815260206004820181905260248201527f4552433732313a206d696e7420746f20746865207a65726f206164647265737360448201526064016109e8565b6000818152600360205260409020546001600160a01b0316156147a75760405162461bcd60e51b815260206004820152601c60248201527f4552433732313a20746f6b656e20616c7265616479206d696e7465640000000060448201526064016109e8565b6001600160a01b03821660009081526004602052604081208054600192906147d09084906157e5565b909155505060008181526003602052604080822080546001600160a01b0319166001600160a01b03861690811790915590518392907fddf252ad1be2c89b69c2b068fc378daa952ba7f163c4a11628f55a4df523b3ef908290a45050565b6000828152600360205260409020546001600160a01b03166148a95760405162461bcd60e51b815260206004820152602e60248201527f45524337323155524953746f726167653a2055524920736574206f66206e6f6e60448201526d32bc34b9ba32b73a103a37b5b2b760911b60648201526084016109e8565b600082815260076020908152604090912082516111bf92840190614d2b565b6148d28282612651565b611b6a576148ea816001600160a01b03166014614b37565b6148f5836020614b37565b604051602001614906929190615af3565b60408051601f198184030181529082905262461bcd60e51b82526109e891600401614efc565b60006001600160a01b0384163b15614a2e57604051630a85bd0160e11b81526001600160a01b0385169063150b7a0290614970903390899088908890600401615b68565b602060405180830381600087803b15801561498a57600080fd5b505af19250505080156149ba575060408051601f3d908101601f191682019092526149b791810190615ba5565b60015b614a14573d8080156149e8576040519150601f19603f3d011682016040523d82523d6000602084013e6149ed565b606091505b508051614a0c5760405162461bcd60e51b81526004016109e890615aa1565b805181602001fd5b6001600160e01b031916630a85bd0160e11b149050613717565b506001949350505050565b606081614a5d5750506040805180820190915260018152600360fc1b602082015290565b8160005b8115614a875780614a7181615bc2565b9150614a809050600a83615bf3565b9150614a61565b60008167ffffffffffffffff811115614aa257614aa2614f8e565b6040519080825280601f01601f191660200182016040528015614acc576020820181803683370190505b5090505b841561371757614ae16001836158ec565b9150614aee600a86615c07565b614af99060306157e5565b60f81b818381518110614b0e57614b0e615a14565b60200101906001600160f81b031916908160001a905350614b30600a86615bf3565b9450614ad0565b60606000614b46836002615c1b565b614b519060026157e5565b67ffffffffffffffff811115614b6957614b69614f8e565b6040519080825280601f01601f191660200182016040528015614b93576020820181803683370190505b509050600360fc1b81600081518110614bae57614bae615a14565b60200101906001600160f81b031916908160001a905350600f60fb1b81600181518110614bdd57614bdd615a14565b60200101906001600160f81b031916908160001a9053506000614c01846002615c1b565b614c0c9060016157e5565b90505b6001811115614c84576f181899199a1a9b1b9c1cb0b131b232b360811b85600f1660108110614c4057614c40615a14565b1a60f81b828281518110614c5657614c56615a14565b60200101906001600160f81b031916908160001a90535060049490941c93614c7d816156c2565b9050614c0f565b5083156146b05760405162461bcd60e51b815260206004820181905260248201527f537472696e67733a20686578206c656e67746820696e73756666696369656e7460448201526064016109e8565b508054614cdf906156d9565b6000825580601f10614cef575050565b601f0160209004906000526020600020908101906141549190614e0b565b50805460008255906000526020600020908101906141549190614e0b565b828054614d37906156d9565b90600052602060002090601f016020900481019282614d595760008555614d9f565b82601f10614d7257805160ff1916838001178555614d9f565b82800160010185558215614d9f579182015b82811115614d9f578251825591602001919060010190614d84565b50614dab929150614e0b565b5090565b6040805161016081018252600080825260208201819052918101829052606081018290526080810182905260a0810182905260c0810182905260e081018290526101008101829052610120810182905261014081019190915290565b5b80821115614dab5760008155600101614e0c565b6001600160e01b03198116811461415457600080fd5b600060208284031215614e4857600080fd5b81356146b081614e20565b80356001600160a01b0381168114614e6a57600080fd5b919050565b600080600060608486031215614e8457600080fd5b8335925060208401359150614e9b60408501614e53565b90509250925092565b60005b83811015614ebf578181015183820152602001614ea7565b838111156134195750506000910152565b60008151808452614ee8816020860160208601614ea4565b601f01601f19169290920160200192915050565b6020815260006146b06020830184614ed0565b600060208284031215614f2157600080fd5b5035919050565b60008060408385031215614f3b57600080fd5b614f4483614e53565b946020939093013593505050565b600080600060608486031215614f6757600080fd5b614f7084614e53565b9250614f7e60208501614e53565b9150604084013590509250925092565b634e487b7160e01b600052604160045260246000fd5b600067ffffffffffffffff80841115614fbf57614fbf614f8e565b604051601f8501601f19908116603f01168101908282118183101715614fe757614fe7614f8e565b8160405280935085815286868601111561500057600080fd5b858560208301376000602087830101525050509392505050565b600082601f83011261502b57600080fd5b6146b083833560208501614fa4565b60008060008060008060c0878903121561505357600080fd5b86359550602087013567ffffffffffffffff8082111561507257600080fd5b61507e8a838b0161501a565b9650604089013591508082111561509457600080fd5b6150a08a838b0161501a565b955060608901359150808211156150b657600080fd5b506150c389828a0161501a565b9350506080870135915060a087013590509295509295509295565b600080604083850312156150f157600080fd5b50508035926020909101359150565b6000806040838503121561511357600080fd5b8235915061512360208401614e53565b90509250929050565b803560ff81168114614e6a57600080fd5b600080600080600060a0868803121561515557600080fd5b853594506020860135935061516c6040870161512c565b94979396509394606081013594506080013592915050565b60006020828403121561519657600080fd5b6146b082614e53565b6001600160a01b038816815260e060208083018290526000916151c49084018a614ed0565b83810360408501526151d6818a614ed0565b905083810360608501526151ea8189614ed0565b6080850188905260a0850187905284810360c0860152855180825283870192509083019060005b8181101561522d57835183529284019291840191600101615211565b50909c9b505050505050505050505050565b801515811461415457600080fd5b6000806040838503121561526057600080fd5b61526983614e53565b915060208301356152798161523f565b809150509250929050565b600080600080600080600080610100898b0312156152a157600080fd5b88359750602089013596506040890135955060608901359450608089013593506152cd60a08a0161512c565b925060c0890135915060e089013590509295985092959890939650565b600080600080600060a0868803121561530257600080fd5b505083359560208501359550604085013594606081013594506080013592509050565b6000806000806080858703121561533b57600080fd5b61534485614e53565b935061535260208601614e53565b925060408501359150606085013567ffffffffffffffff81111561537557600080fd5b8501601f8101871361538657600080fd5b61539587823560208401614fa4565b91505092959194509250565b600080600080600080600060e0888a0312156153bc57600080fd5b8735965060208801359550604088013567ffffffffffffffff808211156153e257600080fd5b6153ee8b838c0161501a565b965060608a013591508082111561540457600080fd5b6154108b838c0161501a565b955060808a013591508082111561542657600080fd5b506154338a828b0161501a565b93505060a0880135915060c0880135905092959891949750929550565b805182526000602082015160e0602085015261546f60e0850182614ed0565b905060408301516040850152606083015160608501526080830151608085015260a083015184820360a08601526154a68282614ed0565b91505060c083015184820360c08601526154c08282614ed0565b95945050505050565b6020815260006146b06020830184615450565b600061016082019050825182526020830151602083015260408301516040830152606083015160608301526080830151608083015260a083015161552b60a08401826001600160a01b03169052565b5060c083015161554660c08401826001600160a01b03169052565b5060e083015161555a60e084018215159052565b50610100838101519083015261012080840151151590830152610140928301511515929091019190915290565b6000806040838503121561559a57600080fd5b6155a383614e53565b915061512360208401614e53565b602080825260149082015273115d995b9d08191bd95cc81b9bdd08195e1a5cdd60621b604082015260600190565b6020808252601a908201527f5469636b6574207479706520646f6573206e6f74206578697374000000000000604082015260600190565b60006020828403121561562857600080fd5b5051919050565b60208082526017908201527f546f6b656e20616c6c6f77616e636520746f6f206c6f77000000000000000000604082015260600190565b60006020828403121561567857600080fd5b81516146b08161523f565b6020808252600f908201526e1d1c985b9cd9995c8819985a5b1959608a1b604082015260600190565b634e487b7160e01b600052601160045260246000fd5b6000816156d1576156d16156ac565b506000190190565b600181811c908216806156ed57607f821691505b602082108114156123c157634e487b7160e01b600052602260045260246000fd5b8054600090600181811c908083168061572857607f831692505b602080841082141561574a57634e487b7160e01b600052602260045260246000fd5b838852602088018280156157655760018114615776576157a1565b60ff198716825282820197506157a1565b60008981526020902060005b8781101561579b57815484820152908601908401615782565b83019850505b5050505050505092915050565b85815284602082015283604082015260a0606082015260006157d360a083018561570e565b90508260808301529695505050505050565b600082198211156157f8576157f86156ac565b500190565b6020808252602c908201527f4f6e6c79206576656e74206f7267616e697a6572732063616e2063616c6c207460408201526b3434b990333ab731ba34b7b760a11b606082015260800190565b6020808252602e908201527f4552433732313a2063616c6c6572206973206e6f7420746f6b656e206f776e6560408201526d1c881b9bdc88185c1c1c9bdd995960921b606082015260800190565b86815260c0602082015260006158b060c0830188614ed0565b82810360408401526158c28188614ed0565b905082810360608401526158d68187614ed0565b6080840195909552505060a00152949350505050565b6000828210156158fe576158fe6156ac565b500390565b6001600160a01b0397881681529590961660208601526040850193909352606084019190915260ff16608083015260a082015260c081019190915260e00190565b60208082526021908201527f4f6e6c79206f776e65722063616e2063616c6c20746869732066756e6374696f6040820152603760f91b606082015260800190565b60208082526028908201527f4f6e6c79207469636b6574206f776e65722063616e2063616c6c207468697320604082015267333ab731ba34b7b760c11b606082015260800190565b6001600160a01b03831681526040602082018190526000906137179083018461570e565b600060ff821660ff841680821015615a0b57615a0b6156ac565b90039392505050565b634e487b7160e01b600052603260045260246000fd5b634e487b7160e01b600052603160045260246000fd5b8281526040602082015260006137176040830184615450565b60008351615a6b818460208801614ea4565b835190830190615a7f818360208801614ea4565b01949350505050565b8281526040602082015260006137176040830184614ed0565b60208082526032908201527f4552433732313a207472616e7366657220746f206e6f6e20455243373231526560408201527131b2b4bb32b91034b6b83632b6b2b73a32b960711b606082015260800190565b7f416363657373436f6e74726f6c3a206163636f756e7420000000000000000000815260008351615b2b816017850160208801614ea4565b7001034b99036b4b9b9b4b733903937b6329607d1b6017918401918201528351615b5c816028840160208801614ea4565b01602801949350505050565b6001600160a01b0385811682528416602082015260408101839052608060608201819052600090615b9b90830184614ed0565b9695505050505050565b600060208284031215615bb757600080fd5b81516146b081614e20565b6000600019821415615bd657615bd66156ac565b5060010190565b634e487b7160e01b600052601260045260246000fd5b600082615c0257615c02615bdd565b500490565b600082615c1657615c16615bdd565b500690565b6000816000190483118215151615615c3557615c356156ac565b50029056feb19546dff01e856fb3f010c267a7b1c60363cf8a4664e21cc89c26224620214e4d2e7a1e3f5dd6e203f087b15756ccf0e4ccd947fe1b639a38540089a1e47f63a26469706673582212205cb6970eab50b774a809d2113ad5c91bcd62b5c8d7d7c54893a9e17562d8411a64736f6c63430008090033",
  "linkReferences": {},
  "deployedLinkReferences": {}
}