{
  "_format": "hh-sol-artifact-1",
  "contractName": "TicketGenerator",
  "sourceName": "contracts/TicketGenerator.sol",
  "abi": [
    {
      "inputs": [
        {
          "internalType": "address",
          "name": "_tokenAddress",
          "type": "address"
        },
        {
          "internalType": "address",
          "name": "_souvenirGeneratorAddress",
          "type": "address"
        }
      ],
      "stateMutability": "nonpayable",
      "type": "constructor"
    },
    {
      "anonymous": false,
      "inputs": [
        {
          "indexed": true,
          "internalType": "bytes32",
          "name": "offerId",
          "type": "bytes32"
        },
        {
          "indexed": true,
          "internalType": "address",
          "name": "buyer",
          "type": "address"
        },
        {
          "indexed": true,
          "internalType": "address",
          "name": "seller",
          "type": "address"
        },
        {
          "indexed": false,
          "internalType": "bytes32",
          "name": "eventId",
          "type": "bytes32"
        },
        {
          "indexed": false,
          "internalType": "bytes32",
          "name": "ticketTypeId",
          "type": "bytes32"
        },
        {
          "indexed": false,
          "internalType": "uint256",
          "name": "ticketId",
          "type": "uint256"
        },
        {
          "indexed": false,
          "internalType": "string",
          "name": "tokenURI",
          "type": "string"
        },
        {
          "indexed": false,
          "internalType": "uint256",
          "name": "price",
          "type": "uint256"
        }
      ],
      "name": "AcceptBuyOffer",
      "type": "event"
    },
    {
      "anonymous": false,
      "inputs": [
        {
          "indexed": true,
          "internalType": "bytes32",
          "name": "offerId",
          "type": "bytes32"
        },
        {
          "indexed": true,
          "internalType": "address",
          "name": "buyer",
          "type": "address"
        },
        {
          "indexed": true,
          "internalType": "address",
          "name": "seller",
          "type": "address"
        },
        {
          "indexed": false,
          "internalType": "bytes32",
          "name": "eventId",
          "type": "bytes32"
        },
        {
          "indexed": false,
          "internalType": "bytes32",
          "name": "ticketTypeId",
          "type": "bytes32"
        },
        {
          "indexed": false,
          "internalType": "uint256",
          "name": "ticketId",
          "type": "uint256"
        },
        {
          "indexed": false,
          "internalType": "string",
          "name": "tokenURI",
          "type": "string"
        },
        {
          "indexed": false,
          "internalType": "uint256",
          "name": "price",
          "type": "uint256"
        }
      ],
      "name": "AcceptSellOffer",
      "type": "event"
    },
    {
      "anonymous": false,
      "inputs": [
        {
          "indexed": true,
          "internalType": "address",
          "name": "owner",
          "type": "address"
        },
        {
          "indexed": true,
          "internalType": "address",
          "name": "approved",
          "type": "address"
        },
        {
          "indexed": true,
          "internalType": "uint256",
          "name": "tokenId",
          "type": "uint256"
        }
      ],
      "name": "Approval",
      "type": "event"
    },
    {
      "anonymous": false,
      "inputs": [
        {
          "indexed": true,
          "internalType": "address",
          "name": "owner",
          "type": "address"
        },
        {
          "indexed": true,
          "internalType": "address",
          "name": "operator",
          "type": "address"
        },
        {
          "indexed": false,
          "internalType": "bool",
          "name": "approved",
          "type": "bool"
        }
      ],
      "name": "ApprovalForAll",
      "type": "event"
    },
    {
      "anonymous": false,
      "inputs": [
        {
          "indexed": true,
          "internalType": "address",
          "name": "account",
          "type": "address"
        }
      ],
      "name": "BecomeOrganizer",
      "type": "event"
    },
    {
      "anonymous": false,
      "inputs": [
        {
          "indexed": true,
          "internalType": "address",
          "name": "buyer",
          "type": "address"
        },
        {
          "indexed": true,
          "internalType": "address",
          "name": "owner",
          "type": "address"
        },
        {
          "indexed": false,
          "internalType": "bytes32",
          "name": "eventId",
          "type": "bytes32"
        },
        {
          "indexed": false,
          "internalType": "bytes32",
          "name": "ticketTypeId",
          "type": "bytes32"
        },
        {
          "indexed": false,
          "internalType": "uint256",
          "name": "tokenId",
          "type": "uint256"
        },
        {
          "indexed": false,
          "internalType": "string",
          "name": "tokenURI",
          "type": "string"
        }
      ],
      "name": "BuyTicket",
      "type": "event"
    },
    {
      "anonymous": false,
      "inputs": [
        {
          "indexed": true,
          "internalType": "bytes32",
          "name": "offerId",
          "type": "bytes32"
        },
        {
          "indexed": true,
          "internalType": "address",
          "name": "sender",
          "type": "address"
        }
      ],
      "name": "CancelOffer",
      "type": "event"
    },
    {
      "anonymous": false,
      "inputs": [
        {
          "indexed": false,
          "internalType": "bytes32",
          "name": "offerId",
          "type": "bytes32"
        },
        {
          "indexed": true,
          "internalType": "address",
          "name": "buyer",
          "type": "address"
        },
        {
          "indexed": false,
          "internalType": "bytes32",
          "name": "eventId",
          "type": "bytes32"
        },
        {
          "indexed": false,
          "internalType": "bytes32",
          "name": "ticketTypeId",
          "type": "bytes32"
        },
        {
          "indexed": false,
          "internalType": "uint256",
          "name": "price",
          "type": "uint256"
        },
        {
          "indexed": false,
          "internalType": "uint256",
          "name": "deadline",
          "type": "uint256"
        }
      ],
      "name": "CreateBuyOffer",
      "type": "event"
    },
    {
      "anonymous": false,
      "inputs": [
        {
          "indexed": true,
          "internalType": "address",
          "name": "creator",
          "type": "address"
        },
        {
          "indexed": false,
          "internalType": "bytes32",
          "name": "eventId",
          "type": "bytes32"
        },
        {
          "indexed": false,
          "internalType": "string",
          "name": "name",
          "type": "string"
        },
        {
          "indexed": false,
          "internalType": "string",
          "name": "description",
          "type": "string"
        },
        {
          "indexed": false,
          "internalType": "string",
          "name": "eventStorage",
          "type": "string"
        },
        {
          "indexed": false,
          "internalType": "string",
          "name": "location",
          "type": "string"
        },
        {
          "indexed": false,
          "internalType": "uint256",
          "name": "startTime",
          "type": "uint256"
        },
        {
          "indexed": false,
          "internalType": "uint256",
          "name": "endTime",
          "type": "uint256"
        },
        {
          "indexed": false,
          "internalType": "string",
          "name": "category",
          "type": "string"
        },
        {
          "indexed": false,
          "internalType": "string",
          "name": "subCategory",
          "type": "string"
        }
      ],
      "name": "CreateEvent",
      "type": "event"
    },
    {
      "anonymous": false,
      "inputs": [
        {
          "indexed": true,
          "internalType": "bytes32",
          "name": "offerId",
          "type": "bytes32"
        },
        {
          "indexed": true,
          "internalType": "address",
          "name": "seller",
          "type": "address"
        },
        {
          "indexed": false,
          "internalType": "bytes32",
          "name": "eventId",
          "type": "bytes32"
        },
        {
          "indexed": false,
          "internalType": "bytes32",
          "name": "ticketTypeId",
          "type": "bytes32"
        },
        {
          "indexed": false,
          "internalType": "uint256",
          "name": "ticketId",
          "type": "uint256"
        },
        {
          "indexed": false,
          "internalType": "uint256",
          "name": "price",
          "type": "uint256"
        }
      ],
      "name": "CreateSellOffer",
      "type": "event"
    },
    {
      "anonymous": false,
      "inputs": [
        {
          "indexed": true,
          "internalType": "address",
          "name": "creator",
          "type": "address"
        },
        {
          "indexed": false,
          "internalType": "bytes32",
          "name": "eventId",
          "type": "bytes32"
        },
        {
          "components": [
            {
              "internalType": "bytes32",
              "name": "id",
              "type": "bytes32"
            },
            {
              "internalType": "string",
              "name": "name",
              "type": "string"
            },
            {
              "internalType": "uint256",
              "name": "price",
              "type": "uint256"
            },
            {
              "internalType": "uint256",
              "name": "maxSupply",
              "type": "uint256"
            },
            {
              "internalType": "uint256",
              "name": "currentSupply",
              "type": "uint256"
            },
            {
              "internalType": "string",
              "name": "tokenURI",
              "type": "string"
            },
            {
              "internalType": "string",
              "name": "souvenirTokenURI",
              "type": "string"
            }
          ],
          "indexed": false,
          "internalType": "struct Structs.TicketType",
          "name": "ticketType",
          "type": "tuple"
        }
      ],
      "name": "CreateTicketType",
      "type": "event"
    },
    {
      "anonymous": false,
      "inputs": [
        {
          "indexed": true,
          "internalType": "address",
          "name": "creator",
          "type": "address"
        },
        {
          "indexed": false,
          "internalType": "bytes32",
          "name": "eventId",
          "type": "bytes32"
        }
      ],
      "name": "DeleteEvent",
      "type": "event"
    },
    {
      "anonymous": false,
      "inputs": [
        {
          "indexed": true,
          "internalType": "address",
          "name": "creator",
          "type": "address"
        },
        {
          "indexed": false,
          "internalType": "bytes32",
          "name": "eventId",
          "type": "bytes32"
        },
        {
          "indexed": false,
          "internalType": "bytes32",
          "name": "ticketTypeId",
          "type": "bytes32"
        }
      ],
      "name": "DeleteTicketType",
      "type": "event"
    },
    {
      "anonymous": false,
      "inputs": [
        {
          "indexed": true,
          "internalType": "address",
          "name": "sender",
          "type": "address"
        },
        {
          "indexed": false,
          "internalType": "uint256",
          "name": "amount",
          "type": "uint256"
        }
      ],
      "name": "Deposit",
      "type": "event"
    },
    {
      "anonymous": false,
      "inputs": [
        {
          "indexed": true,
          "internalType": "address",
          "name": "owner",
          "type": "address"
        },
        {
          "components": [
            {
              "internalType": "uint256",
              "name": "id",
              "type": "uint256"
            },
            {
              "internalType": "bytes32",
              "name": "eventId",
              "type": "bytes32"
            },
            {
              "internalType": "bytes32",
              "name": "ticketTypeId",
              "type": "bytes32"
            },
            {
              "internalType": "uint256",
              "name": "souvenirId",
              "type": "uint256"
            },
            {
              "internalType": "address",
              "name": "owner",
              "type": "address"
            },
            {
              "internalType": "bool",
              "name": "souvenirMinted",
              "type": "bool"
            },
            {
              "internalType": "bool",
              "name": "usable",
              "type": "bool"
            },
            {
              "internalType": "bool",
              "name": "used",
              "type": "bool"
            }
          ],
          "indexed": false,
          "internalType": "struct Structs.Ticket",
          "name": "ticket",
          "type": "tuple"
        },
        {
          "indexed": false,
          "internalType": "uint256",
          "name": "tokenId",
          "type": "uint256"
        },
        {
          "indexed": false,
          "internalType": "string",
          "name": "tokenURI",
          "type": "string"
        }
      ],
      "name": "GenerateSouvenir",
      "type": "event"
    },
    {
      "anonymous": false,
      "inputs": [
        {
          "indexed": true,
          "internalType": "bytes32",
          "name": "role",
          "type": "bytes32"
        },
        {
          "indexed": true,
          "internalType": "bytes32",
          "name": "previousAdminRole",
          "type": "bytes32"
        },
        {
          "indexed": true,
          "internalType": "bytes32",
          "name": "newAdminRole",
          "type": "bytes32"
        }
      ],
      "name": "RoleAdminChanged",
      "type": "event"
    },
    {
      "anonymous": false,
      "inputs": [
        {
          "indexed": true,
          "internalType": "bytes32",
          "name": "role",
          "type": "bytes32"
        },
        {
          "indexed": true,
          "internalType": "address",
          "name": "account",
          "type": "address"
        },
        {
          "indexed": true,
          "internalType": "address",
          "name": "sender",
          "type": "address"
        }
      ],
      "name": "RoleGranted",
      "type": "event"
    },
    {
      "anonymous": false,
      "inputs": [
        {
          "indexed": true,
          "internalType": "bytes32",
          "name": "role",
          "type": "bytes32"
        },
        {
          "indexed": true,
          "internalType": "address",
          "name": "account",
          "type": "address"
        },
        {
          "indexed": true,
          "internalType": "address",
          "name": "sender",
          "type": "address"
        }
      ],
      "name": "RoleRevoked",
      "type": "event"
    },
    {
      "anonymous": false,
      "inputs": [
        {
          "indexed": true,
          "internalType": "address",
          "name": "from",
          "type": "address"
        },
        {
          "indexed": true,
          "internalType": "address",
          "name": "to",
          "type": "address"
        },
        {
          "indexed": true,
          "internalType": "uint256",
          "name": "tokenId",
          "type": "uint256"
        }
      ],
      "name": "Transfer",
      "type": "event"
    },
    {
      "anonymous": false,
      "inputs": [
        {
          "indexed": true,
          "internalType": "address",
          "name": "sender",
          "type": "address"
        },
        {
          "indexed": true,
          "internalType": "address",
          "name": "receiver",
          "type": "address"
        },
        {
          "indexed": false,
          "internalType": "uint256",
          "name": "tokenId",
          "type": "uint256"
        }
      ],
      "name": "TransferTicket",
      "type": "event"
    },
    {
      "anonymous": false,
      "inputs": [
        {
          "indexed": true,
          "internalType": "address",
          "name": "creator",
          "type": "address"
        },
        {
          "indexed": false,
          "internalType": "bytes32",
          "name": "eventId",
          "type": "bytes32"
        },
        {
          "indexed": false,
          "internalType": "string",
          "name": "name",
          "type": "string"
        },
        {
          "indexed": false,
          "internalType": "string",
          "name": "description",
          "type": "string"
        },
        {
          "indexed": false,
          "internalType": "string",
          "name": "eventStorage",
          "type": "string"
        },
        {
          "indexed": false,
          "internalType": "string",
          "name": "location",
          "type": "string"
        },
        {
          "indexed": false,
          "internalType": "uint256",
          "name": "startTime",
          "type": "uint256"
        },
        {
          "indexed": false,
          "internalType": "uint256",
          "name": "endTime",
          "type": "uint256"
        }
      ],
      "name": "UpdateEvent",
      "type": "event"
    },
    {
      "anonymous": false,
      "inputs": [
        {
          "indexed": true,
          "internalType": "address",
          "name": "creator",
          "type": "address"
        },
        {
          "indexed": false,
          "internalType": "bytes32",
          "name": "eventId",
          "type": "bytes32"
        },
        {
          "components": [
            {
              "internalType": "bytes32",
              "name": "id",
              "type": "bytes32"
            },
            {
              "internalType": "string",
              "name": "name",
              "type": "string"
            },
            {
              "internalType": "uint256",
              "name": "price",
              "type": "uint256"
            },
            {
              "internalType": "uint256",
              "name": "maxSupply",
              "type": "uint256"
            },
            {
              "internalType": "uint256",
              "name": "currentSupply",
              "type": "uint256"
            },
            {
              "internalType": "string",
              "name": "tokenURI",
              "type": "string"
            },
            {
              "internalType": "string",
              "name": "souvenirTokenURI",
              "type": "string"
            }
          ],
          "indexed": false,
          "internalType": "struct Structs.TicketType",
          "name": "ticketType",
          "type": "tuple"
        }
      ],
      "name": "UpdateTicketType",
      "type": "event"
    },
    {
      "anonymous": false,
      "inputs": [
        {
          "indexed": true,
          "internalType": "address",
          "name": "sender",
          "type": "address"
        },
        {
          "indexed": false,
          "internalType": "uint256",
          "name": "ticketId",
          "type": "uint256"
        }
      ],
      "name": "UseTicket",
      "type": "event"
    },
    {
      "anonymous": false,
      "inputs": [
        {
          "indexed": true,
          "internalType": "address",
          "name": "receiver",
          "type": "address"
        },
        {
          "indexed": false,
          "internalType": "uint256",
          "name": "amount",
          "type": "uint256"
        }
      ],
      "name": "Withdraw",
      "type": "event"
    },
    {
      "inputs": [],
      "name": "DEFAULT_ADMIN_ROLE",
      "outputs": [
        {
          "internalType": "bytes32",
          "name": "",
          "type": "bytes32"
        }
      ],
      "stateMutability": "view",
      "type": "function"
    },
    {
      "inputs": [],
      "name": "ORGANIZER_ROLE",
      "outputs": [
        {
          "internalType": "bytes32",
          "name": "",
          "type": "bytes32"
        }
      ],
      "stateMutability": "view",
      "type": "function"
    },
    {
      "inputs": [],
      "name": "OWNER_ROLE",
      "outputs": [
        {
          "internalType": "bytes32",
          "name": "",
          "type": "bytes32"
        }
      ],
      "stateMutability": "view",
      "type": "function"
    },
    {
      "inputs": [
        {
          "internalType": "bytes32",
          "name": "id",
          "type": "bytes32"
        },
        {
          "internalType": "uint256",
          "name": "ticketId",
          "type": "uint256"
        }
      ],
      "name": "acceptBuyOffer",
      "outputs": [],
      "stateMutability": "nonpayable",
      "type": "function"
    },
    {
      "inputs": [
        {
          "internalType": "bytes32",
          "name": "id",
          "type": "bytes32"
        },
        {
          "internalType": "uint256",
          "name": "deadline",
          "type": "uint256"
        },
        {
          "internalType": "uint8",
          "name": "v",
          "type": "uint8"
        },
        {
          "internalType": "bytes32",
          "name": "r",
          "type": "bytes32"
        },
        {
          "internalType": "bytes32",
          "name": "s",
          "type": "bytes32"
        }
      ],
      "name": "acceptSellOffer",
      "outputs": [],
      "stateMutability": "nonpayable",
      "type": "function"
    },
    {
      "inputs": [
        {
          "internalType": "address",
          "name": "to",
          "type": "address"
        },
        {
          "internalType": "uint256",
          "name": "tokenId",
          "type": "uint256"
        }
      ],
      "name": "approve",
      "outputs": [],
      "stateMutability": "nonpayable",
      "type": "function"
    },
    {
      "inputs": [
        {
          "internalType": "address",
          "name": "owner",
          "type": "address"
        }
      ],
      "name": "balanceOf",
      "outputs": [
        {
          "internalType": "uint256",
          "name": "",
          "type": "uint256"
        }
      ],
      "stateMutability": "view",
      "type": "function"
    },
    {
      "inputs": [],
      "name": "becomeOrganizer",
      "outputs": [],
      "stateMutability": "nonpayable",
      "type": "function"
    },
    {
      "inputs": [
        {
          "internalType": "bytes32",
          "name": "_eventId",
          "type": "bytes32"
        },
        {
          "internalType": "bytes32",
          "name": "_ticketTypeId",
          "type": "bytes32"
        },
        {
          "internalType": "address",
          "name": "_recipient",
          "type": "address"
        },
        {
          "internalType": "uint256",
          "name": "deadline",
          "type": "uint256"
        },
        {
          "internalType": "uint8",
          "name": "v",
          "type": "uint8"
        },
        {
          "internalType": "bytes32",
          "name": "r",
          "type": "bytes32"
        },
        {
          "internalType": "bytes32",
          "name": "s",
          "type": "bytes32"
        },
        {
          "internalType": "uint256",
          "name": "amount",
          "type": "uint256"
        }
      ],
      "name": "buyTicket",
      "outputs": [],
      "stateMutability": "nonpayable",
      "type": "function"
    },
    {
      "inputs": [
        {
          "internalType": "bytes32",
          "name": "id",
          "type": "bytes32"
        }
      ],
      "name": "cancelOffer",
      "outputs": [],
      "stateMutability": "nonpayable",
      "type": "function"
    },
    {
      "inputs": [
        {
          "internalType": "bytes32",
          "name": "eventId",
          "type": "bytes32"
        },
        {
          "internalType": "bytes32",
          "name": "ticketTypeId",
          "type": "bytes32"
        },
        {
          "internalType": "uint256",
          "name": "price",
          "type": "uint256"
        },
        {
          "internalType": "uint256",
          "name": "deadline",
          "type": "uint256"
        },
        {
          "internalType": "uint8",
          "name": "v",
          "type": "uint8"
        },
        {
          "internalType": "bytes32",
          "name": "r",
          "type": "bytes32"
        },
        {
          "internalType": "bytes32",
          "name": "s",
          "type": "bytes32"
        }
      ],
      "name": "createBuyOffer",
      "outputs": [],
      "stateMutability": "nonpayable",
      "type": "function"
    },
    {
      "inputs": [
        {
          "internalType": "string",
          "name": "_name",
          "type": "string"
        },
        {
          "internalType": "string",
          "name": "_description",
          "type": "string"
        },
        {
          "internalType": "string",
          "name": "eventStorage",
          "type": "string"
        },
        {
          "internalType": "string",
          "name": "location",
          "type": "string"
        },
        {
          "internalType": "uint256",
          "name": "startTime",
          "type": "uint256"
        },
        {
          "internalType": "uint256",
          "name": "endTime",
          "type": "uint256"
        },
        {
          "internalType": "string",
          "name": "category",
          "type": "string"
        },
        {
          "internalType": "string",
          "name": "subCategory",
          "type": "string"
        }
      ],
      "name": "createEvent",
      "outputs": [],
      "stateMutability": "nonpayable",
      "type": "function"
    },
    {
      "inputs": [
        {
          "internalType": "bytes32",
          "name": "eventId",
          "type": "bytes32"
        },
        {
          "internalType": "bytes32",
          "name": "ticketTypeId",
          "type": "bytes32"
        },
        {
          "internalType": "uint256",
          "name": "ticketId",
          "type": "uint256"
        },
        {
          "internalType": "uint256",
          "name": "price",
          "type": "uint256"
        }
      ],
      "name": "createSellOffer",
      "outputs": [],
      "stateMutability": "nonpayable",
      "type": "function"
    },
    {
      "inputs": [
        {
          "internalType": "bytes32",
          "name": "_eventId",
          "type": "bytes32"
        },
        {
          "internalType": "string",
          "name": "_ticketName",
          "type": "string"
        },
        {
          "internalType": "string",
          "name": "_tokenURI",
          "type": "string"
        },
        {
          "internalType": "string",
          "name": "_souvenirTokenURI",
          "type": "string"
        },
        {
          "internalType": "uint256",
          "name": "_price",
          "type": "uint256"
        },
        {
          "internalType": "uint256",
          "name": "_maxSupply",
          "type": "uint256"
        }
      ],
      "name": "createTicketType",
      "outputs": [],
      "stateMutability": "nonpayable",
      "type": "function"
    },
    {
      "inputs": [
        {
          "internalType": "bytes32",
          "name": "_eventId",
          "type": "bytes32"
        }
      ],
      "name": "deleteEvent",
      "outputs": [],
      "stateMutability": "nonpayable",
      "type": "function"
    },
    {
      "inputs": [
        {
          "internalType": "bytes32",
          "name": "_eventId",
          "type": "bytes32"
        },
        {
          "internalType": "bytes32",
          "name": "_ticketTypeId",
          "type": "bytes32"
        }
      ],
      "name": "deleteTicketType",
      "outputs": [],
      "stateMutability": "nonpayable",
      "type": "function"
    },
    {
      "inputs": [],
      "name": "deposit",
      "outputs": [],
      "stateMutability": "payable",
      "type": "function"
    },
    {
      "inputs": [
        {
          "internalType": "uint256",
          "name": "tokenId",
          "type": "uint256"
        }
      ],
      "name": "getApproved",
      "outputs": [
        {
          "internalType": "address",
          "name": "",
          "type": "address"
        }
      ],
      "stateMutability": "view",
      "type": "function"
    },
    {
      "inputs": [
        {
          "internalType": "bytes32",
          "name": "role",
          "type": "bytes32"
        }
      ],
      "name": "getRoleAdmin",
      "outputs": [
        {
          "internalType": "bytes32",
          "name": "",
          "type": "bytes32"
        }
      ],
      "stateMutability": "view",
      "type": "function"
    },
    {
      "inputs": [
        {
          "internalType": "uint256",
          "name": "_ticketId",
          "type": "uint256"
        }
      ],
      "name": "getSouvenir",
      "outputs": [],
      "stateMutability": "nonpayable",
      "type": "function"
    },
    {
      "inputs": [
        {
          "internalType": "bytes32",
          "name": "role",
          "type": "bytes32"
        },
        {
          "internalType": "address",
          "name": "account",
          "type": "address"
        }
      ],
      "name": "grantRole",
      "outputs": [],
      "stateMutability": "nonpayable",
      "type": "function"
    },
    {
      "inputs": [
        {
          "internalType": "bytes32",
          "name": "role",
          "type": "bytes32"
        },
        {
          "internalType": "address",
          "name": "account",
          "type": "address"
        }
      ],
      "name": "hasRole",
      "outputs": [
        {
          "internalType": "bool",
          "name": "",
          "type": "bool"
        }
      ],
      "stateMutability": "view",
      "type": "function"
    },
    {
      "inputs": [
        {
          "internalType": "address",
          "name": "owner",
          "type": "address"
        },
        {
          "internalType": "address",
          "name": "operator",
          "type": "address"
        }
      ],
      "name": "isApprovedForAll",
      "outputs": [
        {
          "internalType": "bool",
          "name": "",
          "type": "bool"
        }
      ],
      "stateMutability": "view",
      "type": "function"
    },
    {
      "inputs": [],
      "name": "name",
      "outputs": [
        {
          "internalType": "string",
          "name": "",
          "type": "string"
        }
      ],
      "stateMutability": "view",
      "type": "function"
    },
    {
      "inputs": [
        {
          "internalType": "uint256",
          "name": "tokenId",
          "type": "uint256"
        }
      ],
      "name": "ownerOf",
      "outputs": [
        {
          "internalType": "address",
          "name": "",
          "type": "address"
        }
      ],
      "stateMutability": "view",
      "type": "function"
    },
    {
      "inputs": [],
      "name": "ownerWithdraw",
      "outputs": [],
      "stateMutability": "nonpayable",
      "type": "function"
    },
    {
      "inputs": [
        {
          "internalType": "bytes32",
          "name": "role",
          "type": "bytes32"
        },
        {
          "internalType": "address",
          "name": "account",
          "type": "address"
        }
      ],
      "name": "renounceRole",
      "outputs": [],
      "stateMutability": "nonpayable",
      "type": "function"
    },
    {
      "inputs": [
        {
          "internalType": "bytes32",
          "name": "role",
          "type": "bytes32"
        },
        {
          "internalType": "address",
          "name": "account",
          "type": "address"
        }
      ],
      "name": "revokeRole",
      "outputs": [],
      "stateMutability": "nonpayable",
      "type": "function"
    },
    {
      "inputs": [
        {
          "internalType": "address",
          "name": "from",
          "type": "address"
        },
        {
          "internalType": "address",
          "name": "to",
          "type": "address"
        },
        {
          "internalType": "uint256",
          "name": "tokenId",
          "type": "uint256"
        }
      ],
      "name": "safeTransferFrom",
      "outputs": [],
      "stateMutability": "nonpayable",
      "type": "function"
    },
    {
      "inputs": [
        {
          "internalType": "address",
          "name": "from",
          "type": "address"
        },
        {
          "internalType": "address",
          "name": "to",
          "type": "address"
        },
        {
          "internalType": "uint256",
          "name": "tokenId",
          "type": "uint256"
        },
        {
          "internalType": "bytes",
          "name": "data",
          "type": "bytes"
        }
      ],
      "name": "safeTransferFrom",
      "outputs": [],
      "stateMutability": "nonpayable",
      "type": "function"
    },
    {
      "inputs": [
        {
          "internalType": "address",
          "name": "operator",
          "type": "address"
        },
        {
          "internalType": "bool",
          "name": "approved",
          "type": "bool"
        }
      ],
      "name": "setApprovalForAll",
      "outputs": [],
      "stateMutability": "nonpayable",
      "type": "function"
    },
    {
      "inputs": [
        {
          "internalType": "uint256",
          "name": "_organizerDeposit",
          "type": "uint256"
        }
      ],
      "name": "setOrganizerDeposit",
      "outputs": [],
      "stateMutability": "nonpayable",
      "type": "function"
    },
    {
      "inputs": [
        {
          "internalType": "address",
          "name": "_souvenirGeneratorAddress",
          "type": "address"
        }
      ],
      "name": "setSouvenirGeneratorContract",
      "outputs": [],
      "stateMutability": "nonpayable",
      "type": "function"
    },
    {
      "inputs": [
        {
          "internalType": "address",
          "name": "_tokenAddress",
          "type": "address"
        }
      ],
      "name": "setTIKContract",
      "outputs": [],
      "stateMutability": "nonpayable",
      "type": "function"
    },
    {
      "inputs": [
        {
          "internalType": "bytes4",
          "name": "interfaceId",
          "type": "bytes4"
        }
      ],
      "name": "supportsInterface",
      "outputs": [
        {
          "internalType": "bool",
          "name": "",
          "type": "bool"
        }
      ],
      "stateMutability": "view",
      "type": "function"
    },
    {
      "inputs": [],
      "name": "symbol",
      "outputs": [
        {
          "internalType": "string",
          "name": "",
          "type": "string"
        }
      ],
      "stateMutability": "view",
      "type": "function"
    },
    {
      "inputs": [
        {
          "internalType": "uint256",
          "name": "tokenId",
          "type": "uint256"
        }
      ],
      "name": "tokenURI",
      "outputs": [
        {
          "internalType": "string",
          "name": "",
          "type": "string"
        }
      ],
      "stateMutability": "view",
      "type": "function"
    },
    {
      "inputs": [
        {
          "internalType": "address",
          "name": "from",
          "type": "address"
        },
        {
          "internalType": "address",
          "name": "to",
          "type": "address"
        },
        {
          "internalType": "uint256",
          "name": "tokenId",
          "type": "uint256"
        }
      ],
      "name": "transferFrom",
      "outputs": [],
      "stateMutability": "nonpayable",
      "type": "function"
    },
    {
      "inputs": [
        {
          "internalType": "bytes32",
          "name": "_eventId",
          "type": "bytes32"
        },
        {
          "internalType": "string",
          "name": "_name",
          "type": "string"
        },
        {
          "internalType": "string",
          "name": "_description",
          "type": "string"
        },
        {
          "internalType": "string",
          "name": "eventStorage",
          "type": "string"
        },
        {
          "internalType": "string",
          "name": "location",
          "type": "string"
        },
        {
          "internalType": "uint256",
          "name": "startTime",
          "type": "uint256"
        },
        {
          "internalType": "uint256",
          "name": "endTime",
          "type": "uint256"
        }
      ],
      "name": "updateEvent",
      "outputs": [],
      "stateMutability": "nonpayable",
      "type": "function"
    },
    {
      "inputs": [
        {
          "internalType": "bytes32",
          "name": "_eventId",
          "type": "bytes32"
        },
        {
          "internalType": "bytes32",
          "name": "_ticketTypeId",
          "type": "bytes32"
        },
        {
          "internalType": "string",
          "name": "_ticketName",
          "type": "string"
        },
        {
          "internalType": "string",
          "name": "_tokenURI",
          "type": "string"
        },
        {
          "internalType": "string",
          "name": "_souvenirTokenURI",
          "type": "string"
        },
        {
          "internalType": "uint256",
          "name": "_price",
          "type": "uint256"
        },
        {
          "internalType": "uint256",
          "name": "_maxSupply",
          "type": "uint256"
        }
      ],
      "name": "updateTicketType",
      "outputs": [],
      "stateMutability": "nonpayable",
      "type": "function"
    },
    {
      "inputs": [
        {
          "internalType": "uint256",
          "name": "_ticketId",
          "type": "uint256"
        }
      ],
      "name": "useTicket",
      "outputs": [],
      "stateMutability": "nonpayable",
      "type": "function"
    },
    {
      "inputs": [
        {
          "internalType": "uint256",
          "name": "amount",
          "type": "uint256"
        }
      ],
      "name": "userWithdraw",
      "outputs": [],
      "stateMutability": "nonpayable",
      "type": "function"
    }
  ],
  "bytecode": "0x60806040526000600f55600060105566038d7ea4c680006011553480156200002657600080fd5b5060405162005b8238038062005b82833981016040819052620000499162000293565b604080518082018252600a815269151a58dad95d0813919560b21b60208083019182528351808501909452600384526213919560ea1b9084015281519192916200009691600191620001d0565b508051620000ac906002906020840190620001d0565b5050600980546001600160a01b038085166001600160a01b031992831617909255600a805492861692909116919091179055506200010b7fb19546dff01e856fb3f010c267a7b1c60363cf8a4664e21cc89c26224620214e3362000120565b6200011860003362000120565b505062000308565b6200012c828262000130565b5050565b6000828152602081815260408083206001600160a01b038516845290915290205460ff166200012c576000828152602081815260408083206001600160a01b03851684529091529020805460ff191660011790556200018c3390565b6001600160a01b0316816001600160a01b0316837f2f8788117e7eff1d82e926ec794901d17c78024a50270940304540a733656f0d60405160405180910390a45050565b828054620001de90620002cb565b90600052602060002090601f0160209004810192826200020257600085556200024d565b82601f106200021d57805160ff19168380011785556200024d565b828001600101855582156200024d579182015b828111156200024d57825182559160200191906001019062000230565b506200025b9291506200025f565b5090565b5b808211156200025b576000815560010162000260565b80516001600160a01b03811681146200028e57600080fd5b919050565b60008060408385031215620002a757600080fd5b620002b28362000276565b9150620002c26020840162000276565b90509250929050565b600181811c90821680620002e057607f821691505b602082108114156200030257634e487b7160e01b600052602260045260246000fd5b50919050565b61586a80620003186000396000f3fe6080604052600436106102515760003560e01c806363113c6a11610139578063b88d4fde116100b6578063d547741f1161007a578063d547741f146106e3578063d8827ae514610703578063e58378bb14610723578063e5bdaeb714610745578063e985e9c514610765578063f952279e146107ae57600080fd5b8063b88d4fde1461065b578063baab45fb1461067b578063c1b9db441461069b578063c87b56dd146106bb578063d0e30db0146106db57600080fd5b806395d89b41116100fd57806395d89b41146105d1578063a217fddf146105e6578063a22cb465146105fb578063a38c7eb21461061b578063ae1e45541461063b57600080fd5b806363113c6a1461052f5780636352211e1461054f57806370a082311461056f5780637909cb591461058f57806391d14854146105b157600080fd5b806326606448116101d25780633b9056bf116101965780633b9056bf1461047a5780634109ba1f1461049a57806342842e0e146104ba5780634311de8f146104da57806352c0cb6c146104ef57806356f725721461050f57600080fd5b806326606448146103da5780632d32165f146103fa5780632d3e40941461041a5780632f2ff15d1461043a57806336568abe1461045a57600080fd5b806316f526211161021957806316f526211461031c5780631cc844bc1461033c5780631ef791d61461035c57806323b872dd1461037c578063248a9ca31461039c57600080fd5b806301ffc9a71461025657806306fdde031461028b57806307b17fc9146102ad578063081812fc146102c4578063095ea7b3146102fc575b600080fd5b34801561026257600080fd5b50610276610271366004614890565b6107ce565b60405190151581526020015b60405180910390f35b34801561029757600080fd5b506102a06107df565b6040516102829190614905565b3480156102b957600080fd5b506102c2610871565b005b3480156102d057600080fd5b506102e46102df366004614918565b610a7b565b6040516001600160a01b039091168152602001610282565b34801561030857600080fd5b506102c261031736600461494d565b610aa2565b34801561032857600080fd5b506102c2610337366004614a23565b610bb8565b34801561034857600080fd5b506102c2610357366004614918565b610d6f565b34801561036857600080fd5b506102c2610377366004614b2d565b610f50565b34801561038857600080fd5b506102c2610397366004614b4f565b6111bd565b3480156103a857600080fd5b506103cc6103b7366004614918565b60009081526020819052604090206001015490565b604051908152602001610282565b3480156103e657600080fd5b506102c26103f5366004614918565b6111ee565b34801561040657600080fd5b506102c2610415366004614b2d565b61145f565b34801561042657600080fd5b506102c2610435366004614b9c565b6117da565b34801561044657600080fd5b506102c2610455366004614c07565b611d60565b34801561046657600080fd5b506102c2610475366004614c07565b611d85565b34801561048657600080fd5b506102c2610495366004614918565b611e03565b3480156104a657600080fd5b506102c26104b5366004614c33565b612033565b3480156104c657600080fd5b506102c26104d5366004614b4f565b6121e5565b3480156104e657600080fd5b506102c2612200565b3480156104fb57600080fd5b506102c261050a366004614cfd565b612308565b34801561051b57600080fd5b506102c261052a366004614d18565b612343565b34801561053b57600080fd5b506102c261054a366004614cfd565b612639565b34801561055b57600080fd5b506102e461056a366004614918565b612674565b34801561057b57600080fd5b506103cc61058a366004614cfd565b6126d4565b34801561059b57600080fd5b506103cc60008051602061581583398151915281565b3480156105bd57600080fd5b506102766105cc366004614c07565b61275a565b3480156105dd57600080fd5b506102a0612783565b3480156105f257600080fd5b506103cc600081565b34801561060757600080fd5b506102c2610616366004614d58565b612792565b34801561062757600080fd5b506102c2610636366004614918565b61279d565b34801561064757600080fd5b506102c2610656366004614d8f565b612ad2565b34801561066757600080fd5b506102c2610676366004614dd6565b612f45565b34801561068757600080fd5b506102c2610696366004614e52565b612f7d565b3480156106a757600080fd5b506102c26106b6366004614e93565b61318a565b3480156106c757600080fd5b506102a06106d6366004614918565b613492565b6102c26135a3565b3480156106ef57600080fd5b506102c26106fe366004614c07565b613654565b34801561070f57600080fd5b506102c261071e366004614eef565b613679565b34801561072f57600080fd5b506103cc6000805160206157f583398151915281565b34801561075157600080fd5b506102c2610760366004614918565b613926565b34801561077157600080fd5b50610276610780366004614f93565b6001600160a01b03918216600090815260066020908152604080832093909416825291909152205460ff1690565b3480156107ba57600080fd5b506102c26107c9366004614918565b613944565b60006107d982613ade565b92915050565b6060600180546107ee90614fbd565b80601f016020809104026020016040519081016040528092919081815260200182805461081a90614fbd565b80156108675780601f1061083c57610100808354040283529160200191610867565b820191906000526020600020905b81548152906001019060200180831161084a57829003601f168201915b5050505050905090565b6108896000805160206158158339815191523361275a565b156108db5760405162461bcd60e51b815260206004820152601e60248201527f43616c6c657220697320616c726561647920616e206f7267616e697a6572000060448201526064015b60405180910390fd5b601154600a546040516370a0823160e01b81523360048201526001600160a01b03909116906370a082319060240160206040518083038186803b15801561092157600080fd5b505afa158015610935573d6000803e3d6000fd5b505050506040513d601f19601f820116820180604052508101906109599190614ff8565b10156109b55760405162461bcd60e51b815260206004820152602560248201527f4e6f7420656e6f75676820746f6b656e7320746f206265636f6d65206f7267616044820152643734bd32b960d91b60648201526084016108d2565b600a54601154604051632770a7eb60e21b815233600482015260248101919091526001600160a01b0390911690639dc29fac90604401600060405180830381600087803b158015610a0557600080fd5b505af1158015610a19573d6000803e3d6000fd5b50505050610a3560008051602061581583398151915233613b1e565b60115460106000828254610a499190615027565b909155505060405133907f05f859dfb18830d36af71675c4fa21aae688563692ab047927d4209bc3270c5f90600090a2565b6000610a8682613b28565b506000908152600560205260409020546001600160a01b031690565b6000610aad82612674565b9050806001600160a01b0316836001600160a01b03161415610b1b5760405162461bcd60e51b815260206004820152602160248201527f4552433732313a20617070726f76616c20746f2063757272656e74206f776e656044820152603960f91b60648201526084016108d2565b336001600160a01b0382161480610b375750610b378133610780565b610ba95760405162461bcd60e51b815260206004820152603e60248201527f4552433732313a20617070726f76652063616c6c6572206973206e6f7420746f60448201527f6b656e206f776e6572206e6f7220617070726f76656420666f7220616c6c000060648201526084016108d2565b610bb38383613b7b565b505050565b600080516020615815833981519152610bd081613be9565b600089604051602001610be39190614905565b60408051601f1981840301815291815281516020928301206000818152600b90935291205490915015610c4f5760405162461bcd60e51b81526020600482015260146024820152734576656e7420616c72656164792065786973747360601b60448201526064016108d2565b6000818152600b602090815260409091208281556001810180546001600160a01b031916331790558b51610c8b926002909201918d019061472d565b506000818152600b602090815260409091208a51610cb1926005909201918c019061472d565b506000818152600b602090815260409091208951610cd7926007909201918b019061472d565b506000818152600b602090815260409091208851610cfd926006909201918a019061472d565b506000818152600b602052604090819020600381018890556004018690555133907f8a32c111de386a81bc84ab66f51d2375db143131ebbe90d1bbc3ac7d4fd8f23f90610d5b9084908e908e908e908e908e908e908e908e9061503f565b60405180910390a250505050505050505050565b6000818152600b60205260409020548190610d9c5760405162461bcd60e51b81526004016108d2906150da565b600080516020615815833981519152610db481613be9565b6000838152600b60205260409020600101546001600160a01b03163314610e1d5760405162461bcd60e51b815260206004820152601f60248201527f4f6e6c79206f7267616e697a65722063616e2072656d6f7665206576656e740060448201526064016108d2565b6000838152600b60205260409020600a015415610e7c5760405162461bcd60e51b815260206004820152601c60248201527f4576656e74207374696c6c20686173207469636b65742074797065730000000060448201526064016108d2565b6000838152600b602052604081208181556001810180546001600160a01b031916905590610ead60028301826147b1565b60038201600090556004820160009055600582016000610ecd91906147b1565b610edb6006830160006147b1565b610ee96007830160006147b1565b610ef76008830160006147b1565b610f056009830160006147b1565b610f13600a830160006147eb565b505060405183815233907f6e3bc81a96d2f5065ad94a6a93273d83748be7ace6c49f293c543738f62a5b6a906020015b60405180910390a2505050565b6000828152600b60205260409020548290610f7d5760405162461bcd60e51b81526004016108d2906150da565b6000838152600b60209081526040808320858452600c0190915290205483908390610fba5760405162461bcd60e51b81526004016108d290615108565b600080516020615815833981519152610fd281613be9565b6000868152600b6020526040902060018101546001600160a01b0316331461104f5760405162461bcd60e51b815260206004820152602a60248201527f4f6e6c7920746865206f7267616e697a65722063616e2072656d6f7665207469604482015269636b657420747970657360b01b60648201526084016108d2565b6000868152600c8201602052604081208181559061107060018301826147b1565b60028201600090556003820160009055600482016000905560058201600061109891906147b1565b6110a66006830160006147b1565b50506000868152600b82016020526040812054600a83015460ff90911691906110d19060019061513f565b9050600083600a018260ff16815481106110ed576110ed615162565b6000918252602080832090910154808352600b87019091526040808320805460ff881660ff1991821681179092558d85529190932080549091169055600a8601805491935083929091811061114457611144615162565b600091825260209091200155600a840180548061116357611163615178565b60019003818190600052602060002001600090559055336001600160a01b03167fd7e867a3c1b30b85f1c4060ae5f328a610ab1b13aabd5415372dd1c8637154ab8b8b604051610d5b929190918252602082015260400190565b6111c73382613bf3565b6111e35760405162461bcd60e51b81526004016108d29061518e565b610bb3838383613c71565b806111f881613e0d565b6112145760405162461bcd60e51b81526004016108d2906151dc565b60008051602061581583398151915261122c81613be9565b6000838152600d6020526040902060040154600160b01b900460ff161561128e5760405162461bcd60e51b8152602060048201526016602482015275151a58dad95d081a5cc8185b1c9958591e481d5cd95960521b60448201526064016108d2565b6000838152600d602090815260408083206001908101548452600b90925290912001546001600160a01b031633146112fc5760405162461bcd60e51b81526020600482015260116024820152702737ba103a34329037b933b0b734bd32b960791b60448201526064016108d2565b6000838152600d60209081526040808320600101548352600b90915290206004015415611392576000838152600d60209081526040808320600101548352600b909152902060040154611352906103e890615221565b42106113925760405162461bcd60e51b815260206004820152600f60248201526e115d995b9d081a185cc8195b991959608a1b60448201526064016108d2565b6000838152600d60209081526040808320600101548352600b9091529020600301546113c1906103e890615221565b4210156114085760405162461bcd60e51b8152602060048201526015602482015274115d995b9d081a185cc81b9bdd081cdd185c9d1959605a1b60448201526064016108d2565b6000838152600d602052604090819020600401805461ffff60a81b1916600160b01b1790555133907f31684b65477a7d1fd4edef84ea40d8f3d6c7531a2e48dfdf9c8c55c8ec5496f990610f439086815260200190565b6000828152600e6020526040902054829061148c5760405162461bcd60e51b81526004016108d290615235565b6000838152600e6020526040902060068101546001600160a01b03163314156114f75760405162461bcd60e51b815260206004820152601a60248201527f43616e6e6f742062757920796f7572206f776e207469636b657400000000000060448201526064016108d2565b600481810154600a546006840154604051636eb1769f60e11b81526001600160a01b0391821694810194909452306024850152919291169063dd62ed3e9060440160206040518083038186803b15801561155057600080fd5b505afa158015611564573d6000803e3d6000fd5b505050506040513d601f19601f820116820180604052508101906115889190614ff8565b10156115a65760405162461bcd60e51b81526004016108d290615263565b60038101839055600a5460068201546004808401546040516323b872dd60e01b81526001600160a01b0393841692810192909252336024830152604482015260009291909116906323b872dd90606401602060405180830381600087803b15801561161057600080fd5b505af1158015611624573d6000803e3d6000fd5b505050506040513d601f19601f82011682018060405250810190611648919061529a565b9050806116675760405162461bcd60e51b81526004016108d2906152b7565b600682015460038301546116889133916001600160a01b0390911690613e2a565b60068201805460ff60a01b198116600160a01b178255600580850180546001600160a01b0319908116339081179092556003870180546000908152600d60209081526040808320600490810180549096166001600160a01b03998a1617909555835483528083208501805460ff60a81b1916600160a81b179055975460018b015460028c01549454818552600b84528a8520868652600c0190935292899020948b0154985195989716968d967f7290e6fa19a97e2b68363bf3455b9fa2fa8b741ea3cb84b7b3eabcb93fd246ec96611767969495949091019190615380565b60405180910390a4505050600091825250600e60205260408120818155600181018290556002810182905560038101829055600481018290556005810180546001600160a01b03191690556006810180546001600160a81b03191690556007810191909155600801805461ffff19169055565b6000888152600b602052604090205488906118075760405162461bcd60e51b81526004016108d2906150da565b6000898152600b602090815260408083208b8452600c01909152902054899089906118445760405162461bcd60e51b81526004016108d290615108565b60008b8152600b602090815260408083208d8452600c810190925290912060048101546118b35760405162461bcd60e51b815260206004820152601f60248201527f5469636b6574732066726f6d2074686973207479706520736f6c64206f75740060448201526064016108d2565b891561193957600a60009054906101000a90046001600160a01b03166001600160a01b031663d505accf3330898e8e8e8e6040518863ffffffff1660e01b815260040161190697969594939291906153b7565b600060405180830381600087803b15801561192057600080fd5b505af1158015611934573d6000803e3d6000fd5b505050505b6002810154600a54604051636eb1769f60e11b81523360048201523060248201526001600160a01b039091169063dd62ed3e9060440160206040518083038186803b15801561198757600080fd5b505afa15801561199b573d6000803e3d6000fd5b505050506040513d601f19601f820116820180604052508101906119bf9190614ff8565b10156119dd5760405162461bcd60e51b81526004016108d290615263565b600a54600183015460028301546040516323b872dd60e01b81523360048201526001600160a01b039283166024820152604481019190915260009291909116906323b872dd90606401602060405180830381600087803b158015611a4057600080fd5b505af1158015611a54573d6000803e3d6000fd5b505050506040513d601f19601f82011682018060405250810190611a78919061529a565b905080611a975760405162461bcd60e51b81526004016108d2906152b7565b600482018054906000611aa9836153f8565b91905055506000611b468d846005018054611ac390614fbd565b80601f0160208091040260200160405190810160405280929190818152602001828054611aef90614fbd565b8015611b3c5780601f10611b1157610100808354040283529160200191611b3c565b820191906000526020600020905b815481529060010190602001808311611b1f57829003601f168201915b5050505050613ea1565b6040805161010081018252600080825260208201819052918101829052606081018290526080810182905260a0810182905260c0810182905260e08101919091529091508181600001818152505084600001548160200181815250508e8160400181815250508d81608001906001600160a01b031690816001600160a01b03168152505060018160c001901515908115158152505060008160a001901515908115158152505060008160e001901515908115158152505080600d60008481526020019081526020016000206000820151816000015560208201518160010155604082015181600201556060820151816003015560808201518160040160006101000a8154816001600160a01b0302191690836001600160a01b0316021790555060a08201518160040160146101000a81548160ff02191690831515021790555060c08201518160040160156101000a81548160ff02191690831515021790555060e08201518160040160166101000a81548160ff021916908315150217905550905050600c8290806001815401808255809150506001900390600052602060002001600090919091909150558d6001600160a01b0316336001600160a01b03167fc7ec5a63397c2e4326b9522abeedaab52d40b2ae3118d9f95f5ab2ee4abf03a4836020015184604001518689600501604051611d46949392919061540f565b60405180910390a350505050505050505050505050505050565b600082815260208190526040902060010154611d7b81613be9565b610bb38383613ed9565b6001600160a01b0381163314611df55760405162461bcd60e51b815260206004820152602f60248201527f416363657373436f6e74726f6c3a2063616e206f6e6c792072656e6f756e636560448201526e103937b632b9903337b91039b2b63360891b60648201526084016108d2565b611dff8282613f5d565b5050565b600a546040516370a0823160e01b81523360048201526000916001600160a01b0316906370a082319060240160206040518083038186803b158015611e4757600080fd5b505afa158015611e5b573d6000803e3d6000fd5b505050506040513d601f19601f82011682018060405250810190611e7f9190614ff8565b905080821115611ed15760405162461bcd60e51b815260206004820152601a60248201527f4e6f7420656e6f75676820746f2062652077697468647261776e00000000000060448201526064016108d2565b600f54821115611f235760405162461bcd60e51b815260206004820152601e60248201527f57697468647261772069732063757272656e746c792064697361626c6564000060448201526064016108d2565b604051600090339084156108fc0290859084818181858888f19350505050905080611f7e5760405162461bcd60e51b815260206004820152600b60248201526a1cd95b990819985a5b195960aa1b60448201526064016108d2565b600a54604051632770a7eb60e21b8152336004820152602481018590526001600160a01b0390911690639dc29fac90604401600060405180830381600087803b158015611fca57600080fd5b505af1158015611fde573d6000803e3d6000fd5b50506040518581523392507f884edad9ce6fa2440d8a54cc123490eb96d2768479d49ff9c7366125a9424364915060200160405180910390a282600f6000828254612029919061543e565b9091555050505050565b6000878152600b602052604090205487906120605760405162461bcd60e51b81526004016108d2906150da565b60008051602061581583398151915261207881613be9565b6000898152600b60205260409020600101546001600160a01b031633146120e15760405162461bcd60e51b815260206004820152601d60248201527f4f6e6c79206f7267616e697a65722063616e2065646974206576656e7400000060448201526064016108d2565b6000898152600b602090815260409091208951612106926002909201918b019061472d565b506000898152600b60209081526040909120885161212c926005909201918a019061472d565b506000898152600b6020908152604090912087516121529260079092019189019061472d565b506000898152600b6020908152604090912086516121789260069092019188019061472d565b506000898152600b602052604090819020600381018690556004018490555133907fc6c3b5ce58b3196884cdaee9a17eb22ca93be1fe7ed9dc66fcb99d4c5148d13b906121d2908c908c908c908c908c908c908c90615455565b60405180910390a2505050505050505050565b610bb383838360405180602001604052806000815250612f45565b6000805160206157f583398151915261221881613be9565b60006010541161226a5760405162461bcd60e51b815260206004820152601a60248201527f4e6f7420656e6f75676820746f2062652077697468647261776e00000000000060448201526064016108d2565b601054604051600091339181156108fc02919084818181858888f193505050509050806122c75760405162461bcd60e51b815260206004820152600b60248201526a1cd95b990819985a5b195960aa1b60448201526064016108d2565b60105460405190815233907f884edad9ce6fa2440d8a54cc123490eb96d2768479d49ff9c7366125a94243649060200160405180910390a250506000601055565b6000805160206157f583398151915261232081613be9565b50600980546001600160a01b0319166001600160a01b0392909216919091179055565b6000848152600b602052604090205484906123705760405162461bcd60e51b81526004016108d2906150da565b6000858152600b60209081526040808320878452600c01909152902054859085906123ad5760405162461bcd60e51b81526004016108d290615108565b846123b781613e0d565b6123d35760405162461bcd60e51b81526004016108d2906151dc565b85336123de82612674565b6001600160a01b0316146124045760405162461bcd60e51b81526004016108d2906154bf565b604080513360208201529081018a9052606081018990526080810188905260009060a00160408051808303601f1901815291815281516020928301206000818152600e909352912060080154909150610100900460ff16156124ba5760405162461bcd60e51b815260206004820152602960248201527f53656c6c206f6666657220616c72656164792065786973747320666f722074686044820152681a5cc81d1a58dad95d60ba1b60648201526084016108d2565b6124c2614809565b8181523360a0820181815260208084018e815260408086018f8152606087018f8152608088018f81526000610100808b018281526101208c0183815260016101408e018181528f8652600e8c528986208f5181559a51918b0191909155965160028a015594516003890155925160048089019190915598516005880180546001600160a01b039283166001600160a01b031990911617905560c08c015160068901805460e08f01511515600160a01b026001600160a81b03199091169290931691909117919091179055915160078701559151600890950180549351151590910261ff00199515159590951661ffff19909316929092179390931790558d8252600d909252819020909101805460ff60a81b191690555183907f0f27c48668db2e12a5e88bc77cf8b459181c7ee1e6264ddb55242efe89d9d03990612624908f908f908f908f9093845260208401929092526040830152606082015260800190565b60405180910390a35050505050505050505050565b6000805160206157f583398151915261265181613be9565b50600a80546001600160a01b0319166001600160a01b0392909216919091179055565b6000818152600360205260408120546001600160a01b0316806107d95760405162461bcd60e51b8152602060048201526018602482015277115490cdcc8c4e881a5b9d985b1a59081d1bdad95b88125160421b60448201526064016108d2565b60006001600160a01b03821661273e5760405162461bcd60e51b815260206004820152602960248201527f4552433732313a2061646472657373207a65726f206973206e6f7420612076616044820152683634b21037bbb732b960b91b60648201526084016108d2565b506001600160a01b031660009081526004602052604090205490565b6000918252602082815260408084206001600160a01b0393909316845291905290205460ff1690565b6060600280546107ee90614fbd565b611dff338383613fc2565b806127a781613e0d565b6127c35760405162461bcd60e51b81526004016108d2906151dc565b81336127ce82612674565b6001600160a01b0316146127f45760405162461bcd60e51b81526004016108d2906154bf565b6000838152600d602090815260409182902082516101008101845281548152600182015492810192909252600281015492820192909252600382015460608201526004909101546001600160a01b038116608083015260ff600160a01b8204811615801560a0850152600160a81b83048216151560c0850152600160b01b90920416151560e08301526128c95760405162461bcd60e51b815260206004820152601760248201527f536f7576656e697220616c7265616479206d696e74656400000000000000000060448201526064016108d2565b8060e0015161291a5760405162461bcd60e51b815260206004820152601d60248201527f5469636b6574207374696c6c206861736e2774206265656e207573656400000060448201526064016108d2565b6009546020808301516000908152600b82526040808220818601518352600c019092528181209151630d385de160e01b815290926001600160a01b031691630d385de191612972913391600690910190600401615507565b602060405180830381600087803b15801561298c57600080fd5b505af11580156129a0573d6000803e3d6000fd5b505050506040513d601f19601f820116820180604052508101906129c49190614ff8565b600160a08401818152606085018381526000898152600d6020908152604080832089518155828a0151968101879055818a01805160028301559451600382015560808a0151600482018054975160c08d015160e08e01511515600160b01b0260ff60b01b19911515600160a81b029190911661ffff60a81b19921515600160a01b026001600160a81b0319909b166001600160a01b039095169490941799909917169190911796909617909555948252600b815284822092518252600c909201909152829020915192935033927fbfb0d88738cabb67e80487f01fe7851fe075d3a6314462e7576e719ef025892a92612ac3929186916006019061552b565b60405180910390a25050505050565b6000858152600e60205260409020548590612aff5760405162461bcd60e51b81526004016108d290615235565b6000868152600e6020526040902060058101546001600160a01b0316331415612b6a5760405162461bcd60e51b815260206004820152601a60248201527f43616e6e6f742062757920796f7572206f776e207469636b657400000000000060448201526064016108d2565b600a5460048083015460405163d505accf60e01b81526001600160a01b039093169263d505accf92612ba892339230928d918d918d918d91016153b7565b600060405180830381600087803b158015612bc257600080fd5b505af1158015612bd6573d6000803e3d6000fd5b50505050600481810154600a54604051636eb1769f60e11b8152339381019390935230602484015290916001600160a01b039091169063dd62ed3e9060440160206040518083038186803b158015612c2d57600080fd5b505afa158015612c41573d6000803e3d6000fd5b505050506040513d601f19601f82011682018060405250810190612c659190614ff8565b1015612c835760405162461bcd60e51b81526004016108d290615263565b600a5460058201546004808401546040516323b872dd60e01b815233928101929092526001600160a01b039283166024830152604482015260009291909116906323b872dd90606401602060405180830381600087803b158015612ce657600080fd5b505af1158015612cfa573d6000803e3d6000fd5b505050506040513d601f19601f82011682018060405250810190612d1e919061529a565b905080612d3d5760405162461bcd60e51b81526004016108d2906152b7565b60058201546003830154612d5c916001600160a01b0316903390613e2a565b60018260060160146101000a81548160ff021916908315150217905550338260060160006101000a8154816001600160a01b0302191690836001600160a01b031602179055506001600d60008460030154815260200190815260200160002060040160156101000a81548160ff0219169083151502179055508160060160009054906101000a90046001600160a01b0316600d60008460030154815260200190815260200160002060040160006101000a8154816001600160a01b0302191690836001600160a01b03160217905550336001600160a01b03168260050160009054906101000a90046001600160a01b03166001600160a01b0316897f74d4a4b83241ac6e92c85cb30050e3a85c7c42122aeef8712fc2f603a3a8c3cb856001015486600201548760030154600b60008a600101548152602001908152602001600020600c0160008a6002015481526020019081526020016000206005018960040154604051612ecf959493929190615380565b60405180910390a450505060009485525050600e602052505060408120818155600181018290556002810182905560038101829055600481018290556005810180546001600160a01b03191690556006810180546001600160a81b03191690556007810191909155600801805461ffff19169055565b612f4f3383613bf3565b612f6b5760405162461bcd60e51b81526004016108d29061518e565b612f7784848484614089565b50505050565b6000878152600b60205260409020548790612faa5760405162461bcd60e51b81526004016108d2906150da565b6000888152600b602090815260408083208a8452600c0190915290205488908890612fe75760405162461bcd60e51b81526004016108d290615108565b600080516020615815833981519152612fff81613be9565b60008b8152600b60205260409020600101546001600160a01b031633146130795760405162461bcd60e51b815260206004820152602860248201527f4f6e6c7920746865206f7267616e697a65722063616e2065646974207469636b604482015267657420747970657360c01b60648201526084016108d2565b6040805160e0810182528b815260208082018c81528284018a9052606083018990526080830189905260a083018c905260c083018b905260008f8152600b83528481208f8252600c0183529390932082518155925180519293849390926130e792600185019291019061472d565b5060408201516002820155606082015160038201556080820151600482015560a0820151805161312191600584019160209091019061472d565b5060c0820151805161313d91600684019160209091019061472d565b50506040513391507ffc051c354a57b794e7a2a34dc7a0ab81839aab32ad19ecc48bc4f2a549d7e46990613174908f9085906155bf565b60405180910390a2505050505050505050505050565b6000878152600b602052604090205487906131b75760405162461bcd60e51b81526004016108d2906150da565b6000888152600b602090815260408083208a8452600c01909152902054889088906131f45760405162461bcd60e51b81526004016108d290615108565b604080513360208083018290528284018e9052606083018d905260ff8a16608084015260a0830189905260c08084018990528451808503909101815260e08401948590528051910120600a5463d505accf60e01b909452926001600160a01b03169163d505accf916132749130908e908e908e908e908e9060e4016153b7565b600060405180830381600087803b15801561328e57600080fd5b505af11580156132a2573d6000803e3d6000fd5b505050506132ae614809565b81816000018181525050338160c001906001600160a01b031690816001600160a01b0316815250508b8160200181815250508a81604001818152505089816080018181525050888161010001818152505060018161012001901515908115158152505060008161014001901515908115158152505080600e6000848152602001908152602001600020600082015181600001556020820151816001015560408201518160020155606082015181600301556080820151816004015560a08201518160050160006101000a8154816001600160a01b0302191690836001600160a01b0316021790555060c08201518160060160006101000a8154816001600160a01b0302191690836001600160a01b0316021790555060e08201518160060160146101000a81548160ff02191690831515021790555061010082015181600701556101208201518160080160006101000a81548160ff0219169083151502179055506101408201518160080160016101000a81548160ff021916908315150217905550905050336001600160a01b03167f8c0532da8a9f0675da764e7b35fbb8c2c8868976193fc36ffad259ddb5675ca4838e8e8e8e604051613174959493929190948552602085019390935260408401919091526060830152608082015260a00190565b606061349d82613b28565b600082815260076020526040812080546134b690614fbd565b80601f01602080910402602001604051908101604052809291908181526020018280546134e290614fbd565b801561352f5780601f106135045761010080835404028352916020019161352f565b820191906000526020600020905b81548152906001019060200180831161351257829003601f168201915b50505050509050600061354d60408051602081019091526000815290565b9050805160001415613560575092915050565b81511561359257808260405160200161357a929190615647565b60405160208183030381529060405292505050919050565b61359b846140bc565b949350505050565b600a546040516340c10f1960e01b81523360048201523460248201526001600160a01b03909116906340c10f1990604401600060405180830381600087803b1580156135ee57600080fd5b505af1158015613602573d6000803e3d6000fd5b5050505034600f60008282546136189190615027565b909155505060405134815233907fe1fffcc4923d04b559f4d29a8bfc6cda04eb5b0d3c460751c2402c5c5cc9109c9060200160405180910390a2565b60008281526020819052604090206001015461366f81613be9565b610bb38383613f5d565b6000868152600b602052604090205486906136a65760405162461bcd60e51b81526004016108d2906150da565b6000805160206158158339815191526136be81613be9565b600088886040516020016136d3929190615676565b60408051601f19818403018152918152815160209283012060008c8152600b9093529120600101549091506001600160a01b0316331461377b5760405162461bcd60e51b815260206004820152603760248201527f4f6e6c7920746865206f7267616e697a6572206f662074686973206576656e7460448201527f2063616e20637265617465207469636b6574207479706500000000000000000060648201526084016108d2565b6000898152600b60209081526040808320848452600c01909152902054156137e55760405162461bcd60e51b815260206004820152601a60248201527f5469636b6574207479706520616c72656164792065786973747300000000000060448201526064016108d2565b6040805160e08101825282815260208082018b8152828401899052606083018890526080830188905260a083018b905260c083018a905260008d8152600b8352848120868252600c01835293909320825181559251805192938493909261385392600185019291019061472d565b5060408201516002820155606082015160038201556080820151600482015560a0820151805161388d91600584019160209091019061472d565b5060c082015180516138a991600684019160209091019061472d565b50505060008a8152600b60208181526040808420600a810180548887529185018452828620805460ff191660ff9093169290921790915592825282546001810184559284529220018390555133907f86f1c49c5e96f57ffd1bbdcf5973aa010e8c5bb16218eaace76fa50c7e66b5b790610d5b908d9085906155bf565b6000805160206157f583398151915261393e81613be9565b50601155565b6000818152600e602052604090205481906139715760405162461bcd60e51b81526004016108d290615235565b6000828152600e6020526040902060068101546001600160a01b0316331480156139a45750600881015460ff1615156001145b806139d5575060058101546001600160a01b0316331480156139d55750600881015460ff6101009091041615156001145b613a215760405162461bcd60e51b815260206004820152601c60248201527f4e6f74207468652063726561746f72206f6620746865206f666665720000000060448201526064016108d2565b6000838152600e602081815260408084206003810180548652600d84528286206004908101805460ff60a81b1916600160a81b179055898752949093528481556001810185905560028101859055918490559181018390556005810180546001600160a01b03191690556006810180546001600160a81b031916905560078101839055600801805461ffff1916905551339185917f74aeca155f6310e463cf88472fe14b61a7990f14c88a8f0a03b10306a88da8429190a3505050565b60006001600160e01b031982166380ac58cd60e01b1480613b0f57506001600160e01b03198216635b5e139f60e01b145b806107d957506107d98261412f565b611dff8282613ed9565b613b3181613e0d565b613b785760405162461bcd60e51b8152602060048201526018602482015277115490cdcc8c4e881a5b9d985b1a59081d1bdad95b88125160421b60448201526064016108d2565b50565b600081815260056020526040902080546001600160a01b0319166001600160a01b0384169081179091558190613bb082612674565b6001600160a01b03167f8c5be1e5ebec7d5bd14f71427d1e84f3dd0314c0f7b2291e5b200ac8c7c3b92560405160405180910390a45050565b613b788133614164565b600080613bff83612674565b9050806001600160a01b0316846001600160a01b03161480613c4657506001600160a01b0380821660009081526006602090815260408083209388168352929052205460ff165b8061359b5750836001600160a01b0316613c5f84610a7b565b6001600160a01b031614949350505050565b826001600160a01b0316613c8482612674565b6001600160a01b031614613ce85760405162461bcd60e51b815260206004820152602560248201527f4552433732313a207472616e736665722066726f6d20696e636f72726563742060448201526437bbb732b960d91b60648201526084016108d2565b6001600160a01b038216613d4a5760405162461bcd60e51b8152602060048201526024808201527f4552433732313a207472616e7366657220746f20746865207a65726f206164646044820152637265737360e01b60648201526084016108d2565b613d55600082613b7b565b6001600160a01b0383166000908152600460205260408120805460019290613d7e90849061543e565b90915550506001600160a01b0382166000908152600460205260408120805460019290613dac908490615027565b909155505060008181526003602052604080822080546001600160a01b0319166001600160a01b0386811691821790925591518493918716917fddf252ad1be2c89b69c2b068fc378daa952ba7f163c4a11628f55a4df523b3ef91a4505050565b6000908152600360205260409020546001600160a01b0316151590565b613e35838383613c71565b6000818152600d602090815260409182902060040180546001600160a01b0319166001600160a01b038681169182179092559251848152908616917f235a69dc2480d40b13f4bee2b08a32b678f03ca558ff46eba22ce16ace78b6ad91015b60405180910390a3505050565b6000613eb1600880546001019055565b6000613ebc60085490565b9050613ec884826141c8565b613ed281846142fb565b9392505050565b613ee3828261275a565b611dff576000828152602081815260408083206001600160a01b03851684529091529020805460ff19166001179055613f193390565b6001600160a01b0316816001600160a01b0316837f2f8788117e7eff1d82e926ec794901d17c78024a50270940304540a733656f0d60405160405180910390a45050565b613f67828261275a565b15611dff576000828152602081815260408083206001600160a01b0385168085529252808320805460ff1916905551339285917ff6391f5c32d9c69d2a47ea670b442974b53935d1edc7fd64eb21e047a839171b9190a45050565b816001600160a01b0316836001600160a01b031614156140245760405162461bcd60e51b815260206004820152601960248201527f4552433732313a20617070726f766520746f2063616c6c65720000000000000060448201526064016108d2565b6001600160a01b03838116600081815260066020908152604080832094871680845294825291829020805460ff191686151590811790915591519182527f17307eab39ab6107e8899845ad3d59bd9653f200f220920489ca2b5937696c319101613e94565b614094848484613c71565b6140a084848484614386565b612f775760405162461bcd60e51b81526004016108d29061568f565b60606140c782613b28565b60006140de60408051602081019091526000815290565b905060008151116140fe5760405180602001604052806000815250613ed2565b8061410884614493565b604051602001614119929190615647565b6040516020818303038152906040529392505050565b60006001600160e01b03198216637965db0b60e01b14806107d957506301ffc9a760e01b6001600160e01b03198316146107d9565b61416e828261275a565b611dff57614186816001600160a01b03166014614591565b614191836020614591565b6040516020016141a29291906156e1565b60408051601f198184030181529082905262461bcd60e51b82526108d291600401614905565b6001600160a01b03821661421e5760405162461bcd60e51b815260206004820181905260248201527f4552433732313a206d696e7420746f20746865207a65726f206164647265737360448201526064016108d2565b61422781613e0d565b156142745760405162461bcd60e51b815260206004820152601c60248201527f4552433732313a20746f6b656e20616c7265616479206d696e7465640000000060448201526064016108d2565b6001600160a01b038216600090815260046020526040812080546001929061429d908490615027565b909155505060008181526003602052604080822080546001600160a01b0319166001600160a01b03861690811790915590518392907fddf252ad1be2c89b69c2b068fc378daa952ba7f163c4a11628f55a4df523b3ef908290a45050565b61430482613e0d565b6143675760405162461bcd60e51b815260206004820152602e60248201527f45524337323155524953746f726167653a2055524920736574206f66206e6f6e60448201526d32bc34b9ba32b73a103a37b5b2b760911b60648201526084016108d2565b60008281526007602090815260409091208251610bb39284019061472d565b60006001600160a01b0384163b1561448857604051630a85bd0160e11b81526001600160a01b0385169063150b7a02906143ca903390899088908890600401615756565b602060405180830381600087803b1580156143e457600080fd5b505af1925050508015614414575060408051601f3d908101601f1916820190925261441191810190615789565b60015b61446e573d808015614442576040519150601f19603f3d011682016040523d82523d6000602084013e614447565b606091505b5080516144665760405162461bcd60e51b81526004016108d29061568f565b805181602001fd5b6001600160e01b031916630a85bd0160e11b14905061359b565b506001949350505050565b6060816144b75750506040805180820190915260018152600360fc1b602082015290565b8160005b81156144e157806144cb816157a6565b91506144da9050600a83615221565b91506144bb565b60008167ffffffffffffffff8111156144fc576144fc614977565b6040519080825280601f01601f191660200182016040528015614526576020820181803683370190505b5090505b841561359b5761453b60018361543e565b9150614548600a866157c1565b614553906030615027565b60f81b81838151811061456857614568615162565b60200101906001600160f81b031916908160001a90535061458a600a86615221565b945061452a565b606060006145a08360026157d5565b6145ab906002615027565b67ffffffffffffffff8111156145c3576145c3614977565b6040519080825280601f01601f1916602001820160405280156145ed576020820181803683370190505b509050600360fc1b8160008151811061460857614608615162565b60200101906001600160f81b031916908160001a905350600f60fb1b8160018151811061463757614637615162565b60200101906001600160f81b031916908160001a905350600061465b8460026157d5565b614666906001615027565b90505b60018111156146de576f181899199a1a9b1b9c1cb0b131b232b360811b85600f166010811061469a5761469a615162565b1a60f81b8282815181106146b0576146b0615162565b60200101906001600160f81b031916908160001a90535060049490941c936146d7816153f8565b9050614669565b508315613ed25760405162461bcd60e51b815260206004820181905260248201527f537472696e67733a20686578206c656e67746820696e73756666696369656e7460448201526064016108d2565b82805461473990614fbd565b90600052602060002090601f01602090048101928261475b57600085556147a1565b82601f1061477457805160ff19168380011785556147a1565b828001600101855582156147a1579182015b828111156147a1578251825591602001919060010190614786565b506147ad929150614865565b5090565b5080546147bd90614fbd565b6000825580601f106147cd575050565b601f016020900490600052602060002090810190613b789190614865565b5080546000825590600052602060002090810190613b789190614865565b6040805161016081018252600080825260208201819052918101829052606081018290526080810182905260a0810182905260c0810182905260e081018290526101008101829052610120810182905261014081019190915290565b5b808211156147ad5760008155600101614866565b6001600160e01b031981168114613b7857600080fd5b6000602082840312156148a257600080fd5b8135613ed28161487a565b60005b838110156148c85781810151838201526020016148b0565b83811115612f775750506000910152565b600081518084526148f18160208601602086016148ad565b601f01601f19169290920160200192915050565b602081526000613ed260208301846148d9565b60006020828403121561492a57600080fd5b5035919050565b80356001600160a01b038116811461494857600080fd5b919050565b6000806040838503121561496057600080fd5b61496983614931565b946020939093013593505050565b634e487b7160e01b600052604160045260246000fd5b600067ffffffffffffffff808411156149a8576149a8614977565b604051601f8501601f19908116603f011681019082821181831017156149d0576149d0614977565b816040528093508581528686860111156149e957600080fd5b858560208301376000602087830101525050509392505050565b600082601f830112614a1457600080fd5b613ed28383356020850161498d565b600080600080600080600080610100898b031215614a4057600080fd5b883567ffffffffffffffff80821115614a5857600080fd5b614a648c838d01614a03565b995060208b0135915080821115614a7a57600080fd5b614a868c838d01614a03565b985060408b0135915080821115614a9c57600080fd5b614aa88c838d01614a03565b975060608b0135915080821115614abe57600080fd5b614aca8c838d01614a03565b965060808b0135955060a08b0135945060c08b0135915080821115614aee57600080fd5b614afa8c838d01614a03565b935060e08b0135915080821115614b1057600080fd5b50614b1d8b828c01614a03565b9150509295985092959890939650565b60008060408385031215614b4057600080fd5b50508035926020909101359150565b600080600060608486031215614b6457600080fd5b614b6d84614931565b9250614b7b60208501614931565b9150604084013590509250925092565b803560ff8116811461494857600080fd5b600080600080600080600080610100898b031215614bb957600080fd5b8835975060208901359650614bd060408a01614931565b955060608901359450614be560808a01614b8b565b979a969950949793969560a0850135955060c08501359460e001359350915050565b60008060408385031215614c1a57600080fd5b82359150614c2a60208401614931565b90509250929050565b600080600080600080600060e0888a031215614c4e57600080fd5b87359650602088013567ffffffffffffffff80821115614c6d57600080fd5b614c798b838c01614a03565b975060408a0135915080821115614c8f57600080fd5b614c9b8b838c01614a03565b965060608a0135915080821115614cb157600080fd5b614cbd8b838c01614a03565b955060808a0135915080821115614cd357600080fd5b50614ce08a828b01614a03565b93505060a0880135915060c0880135905092959891949750929550565b600060208284031215614d0f57600080fd5b613ed282614931565b60008060008060808587031215614d2e57600080fd5b5050823594602084013594506040840135936060013592509050565b8015158114613b7857600080fd5b60008060408385031215614d6b57600080fd5b614d7483614931565b91506020830135614d8481614d4a565b809150509250929050565b600080600080600060a08688031215614da757600080fd5b8535945060208601359350614dbe60408701614b8b565b94979396509394606081013594506080013592915050565b60008060008060808587031215614dec57600080fd5b614df585614931565b9350614e0360208601614931565b925060408501359150606085013567ffffffffffffffff811115614e2657600080fd5b8501601f81018713614e3757600080fd5b614e468782356020840161498d565b91505092959194509250565b600080600080600080600060e0888a031215614e6d57600080fd5b8735965060208801359550604088013567ffffffffffffffff80821115614c8f57600080fd5b600080600080600080600060e0888a031215614eae57600080fd5b87359650602088013595506040880135945060608801359350614ed360808901614b8b565b925060a0880135915060c0880135905092959891949750929550565b60008060008060008060c08789031215614f0857600080fd5b86359550602087013567ffffffffffffffff80821115614f2757600080fd5b614f338a838b01614a03565b96506040890135915080821115614f4957600080fd5b614f558a838b01614a03565b95506060890135915080821115614f6b57600080fd5b50614f7889828a01614a03565b9350506080870135915060a087013590509295509295509295565b60008060408385031215614fa657600080fd5b614faf83614931565b9150614c2a60208401614931565b600181811c90821680614fd157607f821691505b60208210811415614ff257634e487b7160e01b600052602260045260246000fd5b50919050565b60006020828403121561500a57600080fd5b5051919050565b634e487b7160e01b600052601160045260246000fd5b6000821982111561503a5761503a615011565b500190565b60006101208b83528060208401526150598184018c6148d9565b9050828103604084015261506d818b6148d9565b90508281036060840152615081818a6148d9565b9050828103608084015261509581896148d9565b90508660a08401528560c084015282810360e08401526150b581866148d9565b90508281036101008401526150ca81856148d9565b9c9b505050505050505050505050565b602080825260149082015273115d995b9d08191bd95cc81b9bdd08195e1a5cdd60621b604082015260600190565b6020808252601a908201527f5469636b6574207479706520646f6573206e6f74206578697374000000000000604082015260600190565b600060ff821660ff84168082101561515957615159615011565b90039392505050565b634e487b7160e01b600052603260045260246000fd5b634e487b7160e01b600052603160045260246000fd5b6020808252602e908201527f4552433732313a2063616c6c6572206973206e6f7420746f6b656e206f776e6560408201526d1c881b9bdc88185c1c1c9bdd995960921b606082015260800190565b602080825260159082015274151a58dad95d08191bd95cc81b9bdd08195e1a5cdd605a1b604082015260600190565b634e487b7160e01b600052601260045260246000fd5b6000826152305761523061520b565b500490565b60208082526014908201527313d999995c88191bd95cc81b9bdd08195e1a5cdd60621b604082015260600190565b60208082526017908201527f546f6b656e20616c6c6f77616e636520746f6f206c6f77000000000000000000604082015260600190565b6000602082840312156152ac57600080fd5b8151613ed281614d4a565b6020808252600f908201526e1d1c985b9cd9995c8819985a5b1959608a1b604082015260600190565b8054600090600181811c90808316806152fa57607f831692505b602080841082141561531c57634e487b7160e01b600052602260045260246000fd5b83885260208801828015615337576001811461534857615373565b60ff19871682528282019750615373565b60008981526020902060005b8781101561536d57815484820152908601908401615354565b83019850505b5050505050505092915050565b85815284602082015283604082015260a0606082015260006153a560a08301856152e0565b90508260808301529695505050505050565b6001600160a01b0397881681529590961660208601526040850193909352606084019190915260ff16608083015260a082015260c081019190915260e00190565b60008161540757615407615011565b506000190190565b84815283602082015282604082015260806060820152600061543460808301846152e0565b9695505050505050565b60008282101561545057615450615011565b500390565b87815260e06020820152600061546e60e08301896148d9565b828103604084015261548081896148d9565b9050828103606084015261549481886148d9565b905082810360808401526154a881876148d9565b60a0840195909552505060c0015295945050505050565b60208082526028908201527f4f6e6c79207469636b6574206f776e65722063616e2063616c6c207468697320604082015267333ab731ba34b7b760c11b606082015260800190565b6001600160a01b038316815260406020820181905260009061359b908301846152e0565b8354815260018401546020820152600284015460408201526003840154606082015260048401546001600160a01b03811660808301526000906101409061557c60a0850160ff8360a01c1615159052565b61559060c0850160ff8360a81c1615159052565b6155a460e0850160ff8360b01c1615159052565b508461010084015280610120840152615434818401856152e0565b82815260406020820152815160408201526000602083015160e060608401526155ec6101208401826148d9565b905060408401516080840152606084015160a0840152608084015160c084015260a0840151603f19808584030160e086015261562883836148d9565b925060c0860151915080858403016101008601525061543482826148d9565b600083516156598184602088016148ad565b83519083019061566d8183602088016148ad565b01949350505050565b82815260406020820152600061359b60408301846148d9565b60208082526032908201527f4552433732313a207472616e7366657220746f206e6f6e20455243373231526560408201527131b2b4bb32b91034b6b83632b6b2b73a32b960711b606082015260800190565b7f416363657373436f6e74726f6c3a206163636f756e74200000000000000000008152600083516157198160178501602088016148ad565b7001034b99036b4b9b9b4b733903937b6329607d1b601791840191820152835161574a8160288401602088016148ad565b01602801949350505050565b6001600160a01b0385811682528416602082015260408101839052608060608201819052600090615434908301846148d9565b60006020828403121561579b57600080fd5b8151613ed28161487a565b60006000198214156157ba576157ba615011565b5060010190565b6000826157d0576157d061520b565b500690565b60008160001904831182151516156157ef576157ef615011565b50029056feb19546dff01e856fb3f010c267a7b1c60363cf8a4664e21cc89c26224620214e4d2e7a1e3f5dd6e203f087b15756ccf0e4ccd947fe1b639a38540089a1e47f63a26469706673582212202c957721f33575f528468ab0a8ce16e6943846d401ccf0f902bb8d1d71ef00d964736f6c63430008090033",
  "linkReferences": {},
  "deployedLinkReferences": {}
}