{
  "_format": "hh-sol-artifact-1",
  "contractName": "TicketGenerator",
  "sourceName": "contracts/TicketGenerator.sol",
  "abi": [
    {
      "inputs": [
        {
          "internalType": "address",
          "name": "_tokenAddress",
          "type": "address"
        },
        {
          "internalType": "address",
          "name": "_souvenirGeneratorAddress",
          "type": "address"
        }
      ],
      "stateMutability": "nonpayable",
      "type": "constructor"
    },
    {
      "anonymous": false,
      "inputs": [
        {
          "indexed": true,
          "internalType": "bytes32",
          "name": "offerId",
          "type": "bytes32"
        },
        {
          "indexed": true,
          "internalType": "address",
          "name": "buyer",
          "type": "address"
        },
        {
          "indexed": true,
          "internalType": "address",
          "name": "seller",
          "type": "address"
        },
        {
          "indexed": false,
          "internalType": "bytes32",
          "name": "eventId",
          "type": "bytes32"
        },
        {
          "indexed": false,
          "internalType": "bytes32",
          "name": "ticketTypeId",
          "type": "bytes32"
        },
        {
          "indexed": false,
          "internalType": "uint256",
          "name": "ticketId",
          "type": "uint256"
        },
        {
          "indexed": false,
          "internalType": "string",
          "name": "tokenURI",
          "type": "string"
        },
        {
          "indexed": false,
          "internalType": "uint256",
          "name": "price",
          "type": "uint256"
        }
      ],
      "name": "AcceptBuyOffer",
      "type": "event"
    },
    {
      "anonymous": false,
      "inputs": [
        {
          "indexed": true,
          "internalType": "bytes32",
          "name": "offerId",
          "type": "bytes32"
        },
        {
          "indexed": true,
          "internalType": "address",
          "name": "buyer",
          "type": "address"
        },
        {
          "indexed": true,
          "internalType": "address",
          "name": "seller",
          "type": "address"
        },
        {
          "indexed": false,
          "internalType": "bytes32",
          "name": "eventId",
          "type": "bytes32"
        },
        {
          "indexed": false,
          "internalType": "bytes32",
          "name": "ticketTypeId",
          "type": "bytes32"
        },
        {
          "indexed": false,
          "internalType": "uint256",
          "name": "ticketId",
          "type": "uint256"
        },
        {
          "indexed": false,
          "internalType": "string",
          "name": "tokenURI",
          "type": "string"
        },
        {
          "indexed": false,
          "internalType": "uint256",
          "name": "price",
          "type": "uint256"
        }
      ],
      "name": "AcceptSellOffer",
      "type": "event"
    },
    {
      "anonymous": false,
      "inputs": [
        {
          "indexed": true,
          "internalType": "address",
          "name": "owner",
          "type": "address"
        },
        {
          "indexed": true,
          "internalType": "address",
          "name": "approved",
          "type": "address"
        },
        {
          "indexed": true,
          "internalType": "uint256",
          "name": "tokenId",
          "type": "uint256"
        }
      ],
      "name": "Approval",
      "type": "event"
    },
    {
      "anonymous": false,
      "inputs": [
        {
          "indexed": true,
          "internalType": "address",
          "name": "owner",
          "type": "address"
        },
        {
          "indexed": true,
          "internalType": "address",
          "name": "operator",
          "type": "address"
        },
        {
          "indexed": false,
          "internalType": "bool",
          "name": "approved",
          "type": "bool"
        }
      ],
      "name": "ApprovalForAll",
      "type": "event"
    },
    {
      "anonymous": false,
      "inputs": [
        {
          "indexed": true,
          "internalType": "address",
          "name": "account",
          "type": "address"
        }
      ],
      "name": "BecomeOrganizer",
      "type": "event"
    },
    {
      "anonymous": false,
      "inputs": [
        {
          "indexed": true,
          "internalType": "address",
          "name": "buyer",
          "type": "address"
        },
        {
          "indexed": true,
          "internalType": "address",
          "name": "owner",
          "type": "address"
        },
        {
          "indexed": false,
          "internalType": "bytes32",
          "name": "eventId",
          "type": "bytes32"
        },
        {
          "indexed": false,
          "internalType": "bytes32",
          "name": "ticketTypeId",
          "type": "bytes32"
        },
        {
          "indexed": false,
          "internalType": "uint256",
          "name": "tokenId",
          "type": "uint256"
        },
        {
          "indexed": false,
          "internalType": "string",
          "name": "tokenURI",
          "type": "string"
        }
      ],
      "name": "BuyTicket",
      "type": "event"
    },
    {
      "anonymous": false,
      "inputs": [
        {
          "indexed": true,
          "internalType": "bytes32",
          "name": "offerId",
          "type": "bytes32"
        },
        {
          "indexed": true,
          "internalType": "address",
          "name": "sender",
          "type": "address"
        }
      ],
      "name": "CancelOffer",
      "type": "event"
    },
    {
      "anonymous": false,
      "inputs": [
        {
          "indexed": false,
          "internalType": "bytes32",
          "name": "offerId",
          "type": "bytes32"
        },
        {
          "indexed": true,
          "internalType": "address",
          "name": "buyer",
          "type": "address"
        },
        {
          "indexed": false,
          "internalType": "bytes32",
          "name": "eventId",
          "type": "bytes32"
        },
        {
          "indexed": false,
          "internalType": "bytes32",
          "name": "ticketTypeId",
          "type": "bytes32"
        },
        {
          "indexed": false,
          "internalType": "uint256",
          "name": "price",
          "type": "uint256"
        },
        {
          "indexed": false,
          "internalType": "uint256",
          "name": "deadline",
          "type": "uint256"
        }
      ],
      "name": "CreateBuyOffer",
      "type": "event"
    },
    {
      "anonymous": false,
      "inputs": [
        {
          "indexed": true,
          "internalType": "address",
          "name": "creator",
          "type": "address"
        },
        {
          "indexed": false,
          "internalType": "bytes32",
          "name": "eventId",
          "type": "bytes32"
        },
        {
          "indexed": false,
          "internalType": "string",
          "name": "name",
          "type": "string"
        },
        {
          "indexed": false,
          "internalType": "string",
          "name": "description",
          "type": "string"
        },
        {
          "indexed": false,
          "internalType": "string",
          "name": "eventStorage",
          "type": "string"
        },
        {
          "indexed": false,
          "internalType": "string",
          "name": "location",
          "type": "string"
        },
        {
          "indexed": false,
          "internalType": "uint256",
          "name": "startTime",
          "type": "uint256"
        },
        {
          "indexed": false,
          "internalType": "uint256",
          "name": "endTime",
          "type": "uint256"
        }
      ],
      "name": "CreateEvent",
      "type": "event"
    },
    {
      "anonymous": false,
      "inputs": [
        {
          "indexed": true,
          "internalType": "bytes32",
          "name": "offerId",
          "type": "bytes32"
        },
        {
          "indexed": true,
          "internalType": "address",
          "name": "seller",
          "type": "address"
        },
        {
          "indexed": false,
          "internalType": "bytes32",
          "name": "eventId",
          "type": "bytes32"
        },
        {
          "indexed": false,
          "internalType": "bytes32",
          "name": "ticketTypeId",
          "type": "bytes32"
        },
        {
          "indexed": false,
          "internalType": "uint256",
          "name": "ticketId",
          "type": "uint256"
        },
        {
          "indexed": false,
          "internalType": "uint256",
          "name": "price",
          "type": "uint256"
        }
      ],
      "name": "CreateSellOffer",
      "type": "event"
    },
    {
      "anonymous": false,
      "inputs": [
        {
          "indexed": true,
          "internalType": "address",
          "name": "creator",
          "type": "address"
        },
        {
          "indexed": false,
          "internalType": "bytes32",
          "name": "eventId",
          "type": "bytes32"
        },
        {
          "components": [
            {
              "internalType": "bytes32",
              "name": "id",
              "type": "bytes32"
            },
            {
              "internalType": "string",
              "name": "name",
              "type": "string"
            },
            {
              "internalType": "uint256",
              "name": "price",
              "type": "uint256"
            },
            {
              "internalType": "uint256",
              "name": "maxSupply",
              "type": "uint256"
            },
            {
              "internalType": "uint256",
              "name": "currentSupply",
              "type": "uint256"
            },
            {
              "internalType": "string",
              "name": "tokenURI",
              "type": "string"
            },
            {
              "internalType": "string",
              "name": "souvenirTokenURI",
              "type": "string"
            }
          ],
          "indexed": false,
          "internalType": "struct Structs.TicketType",
          "name": "ticketType",
          "type": "tuple"
        }
      ],
      "name": "CreateTicketType",
      "type": "event"
    },
    {
      "anonymous": false,
      "inputs": [
        {
          "indexed": true,
          "internalType": "address",
          "name": "creator",
          "type": "address"
        },
        {
          "indexed": false,
          "internalType": "bytes32",
          "name": "eventId",
          "type": "bytes32"
        }
      ],
      "name": "DeleteEvent",
      "type": "event"
    },
    {
      "anonymous": false,
      "inputs": [
        {
          "indexed": true,
          "internalType": "address",
          "name": "creator",
          "type": "address"
        },
        {
          "indexed": false,
          "internalType": "bytes32",
          "name": "eventId",
          "type": "bytes32"
        },
        {
          "indexed": false,
          "internalType": "bytes32",
          "name": "ticketTypeId",
          "type": "bytes32"
        }
      ],
      "name": "DeleteTicketType",
      "type": "event"
    },
    {
      "anonymous": false,
      "inputs": [
        {
          "indexed": true,
          "internalType": "address",
          "name": "sender",
          "type": "address"
        },
        {
          "indexed": false,
          "internalType": "uint256",
          "name": "amount",
          "type": "uint256"
        }
      ],
      "name": "Deposit",
      "type": "event"
    },
    {
      "anonymous": false,
      "inputs": [
        {
          "indexed": true,
          "internalType": "address",
          "name": "owner",
          "type": "address"
        },
        {
          "components": [
            {
              "internalType": "uint256",
              "name": "id",
              "type": "uint256"
            },
            {
              "internalType": "bytes32",
              "name": "eventId",
              "type": "bytes32"
            },
            {
              "internalType": "bytes32",
              "name": "ticketTypeId",
              "type": "bytes32"
            },
            {
              "internalType": "uint256",
              "name": "souvenirId",
              "type": "uint256"
            },
            {
              "internalType": "address",
              "name": "owner",
              "type": "address"
            },
            {
              "internalType": "bool",
              "name": "souvenirMinted",
              "type": "bool"
            },
            {
              "internalType": "bool",
              "name": "usable",
              "type": "bool"
            },
            {
              "internalType": "bool",
              "name": "used",
              "type": "bool"
            }
          ],
          "indexed": false,
          "internalType": "struct Structs.Ticket",
          "name": "ticket",
          "type": "tuple"
        },
        {
          "indexed": false,
          "internalType": "uint256",
          "name": "tokenId",
          "type": "uint256"
        },
        {
          "indexed": false,
          "internalType": "string",
          "name": "tokenURI",
          "type": "string"
        }
      ],
      "name": "GenerateSouvenir",
      "type": "event"
    },
    {
      "anonymous": false,
      "inputs": [
        {
          "indexed": true,
          "internalType": "bytes32",
          "name": "role",
          "type": "bytes32"
        },
        {
          "indexed": true,
          "internalType": "bytes32",
          "name": "previousAdminRole",
          "type": "bytes32"
        },
        {
          "indexed": true,
          "internalType": "bytes32",
          "name": "newAdminRole",
          "type": "bytes32"
        }
      ],
      "name": "RoleAdminChanged",
      "type": "event"
    },
    {
      "anonymous": false,
      "inputs": [
        {
          "indexed": true,
          "internalType": "bytes32",
          "name": "role",
          "type": "bytes32"
        },
        {
          "indexed": true,
          "internalType": "address",
          "name": "account",
          "type": "address"
        },
        {
          "indexed": true,
          "internalType": "address",
          "name": "sender",
          "type": "address"
        }
      ],
      "name": "RoleGranted",
      "type": "event"
    },
    {
      "anonymous": false,
      "inputs": [
        {
          "indexed": true,
          "internalType": "bytes32",
          "name": "role",
          "type": "bytes32"
        },
        {
          "indexed": true,
          "internalType": "address",
          "name": "account",
          "type": "address"
        },
        {
          "indexed": true,
          "internalType": "address",
          "name": "sender",
          "type": "address"
        }
      ],
      "name": "RoleRevoked",
      "type": "event"
    },
    {
      "anonymous": false,
      "inputs": [
        {
          "indexed": true,
          "internalType": "address",
          "name": "from",
          "type": "address"
        },
        {
          "indexed": true,
          "internalType": "address",
          "name": "to",
          "type": "address"
        },
        {
          "indexed": true,
          "internalType": "uint256",
          "name": "tokenId",
          "type": "uint256"
        }
      ],
      "name": "Transfer",
      "type": "event"
    },
    {
      "anonymous": false,
      "inputs": [
        {
          "indexed": true,
          "internalType": "address",
          "name": "sender",
          "type": "address"
        },
        {
          "indexed": true,
          "internalType": "address",
          "name": "receiver",
          "type": "address"
        },
        {
          "indexed": false,
          "internalType": "uint256",
          "name": "tokenId",
          "type": "uint256"
        }
      ],
      "name": "TransferTicket",
      "type": "event"
    },
    {
      "anonymous": false,
      "inputs": [
        {
          "indexed": true,
          "internalType": "address",
          "name": "creator",
          "type": "address"
        },
        {
          "indexed": false,
          "internalType": "bytes32",
          "name": "eventId",
          "type": "bytes32"
        },
        {
          "indexed": false,
          "internalType": "string",
          "name": "name",
          "type": "string"
        },
        {
          "indexed": false,
          "internalType": "string",
          "name": "description",
          "type": "string"
        },
        {
          "indexed": false,
          "internalType": "string",
          "name": "eventStorage",
          "type": "string"
        },
        {
          "indexed": false,
          "internalType": "string",
          "name": "location",
          "type": "string"
        },
        {
          "indexed": false,
          "internalType": "uint256",
          "name": "startTime",
          "type": "uint256"
        },
        {
          "indexed": false,
          "internalType": "uint256",
          "name": "endTime",
          "type": "uint256"
        }
      ],
      "name": "UpdateEvent",
      "type": "event"
    },
    {
      "anonymous": false,
      "inputs": [
        {
          "indexed": true,
          "internalType": "address",
          "name": "creator",
          "type": "address"
        },
        {
          "indexed": false,
          "internalType": "bytes32",
          "name": "eventId",
          "type": "bytes32"
        },
        {
          "components": [
            {
              "internalType": "bytes32",
              "name": "id",
              "type": "bytes32"
            },
            {
              "internalType": "string",
              "name": "name",
              "type": "string"
            },
            {
              "internalType": "uint256",
              "name": "price",
              "type": "uint256"
            },
            {
              "internalType": "uint256",
              "name": "maxSupply",
              "type": "uint256"
            },
            {
              "internalType": "uint256",
              "name": "currentSupply",
              "type": "uint256"
            },
            {
              "internalType": "string",
              "name": "tokenURI",
              "type": "string"
            },
            {
              "internalType": "string",
              "name": "souvenirTokenURI",
              "type": "string"
            }
          ],
          "indexed": false,
          "internalType": "struct Structs.TicketType",
          "name": "ticketType",
          "type": "tuple"
        }
      ],
      "name": "UpdateTicketType",
      "type": "event"
    },
    {
      "anonymous": false,
      "inputs": [
        {
          "indexed": true,
          "internalType": "address",
          "name": "sender",
          "type": "address"
        },
        {
          "indexed": false,
          "internalType": "uint256",
          "name": "ticketId",
          "type": "uint256"
        }
      ],
      "name": "UseTicket",
      "type": "event"
    },
    {
      "anonymous": false,
      "inputs": [
        {
          "indexed": true,
          "internalType": "address",
          "name": "receiver",
          "type": "address"
        },
        {
          "indexed": false,
          "internalType": "uint256",
          "name": "amount",
          "type": "uint256"
        }
      ],
      "name": "Withdraw",
      "type": "event"
    },
    {
      "inputs": [],
      "name": "DEFAULT_ADMIN_ROLE",
      "outputs": [
        {
          "internalType": "bytes32",
          "name": "",
          "type": "bytes32"
        }
      ],
      "stateMutability": "view",
      "type": "function"
    },
    {
      "inputs": [],
      "name": "ORGANIZER_ROLE",
      "outputs": [
        {
          "internalType": "bytes32",
          "name": "",
          "type": "bytes32"
        }
      ],
      "stateMutability": "view",
      "type": "function"
    },
    {
      "inputs": [],
      "name": "OWNER_ROLE",
      "outputs": [
        {
          "internalType": "bytes32",
          "name": "",
          "type": "bytes32"
        }
      ],
      "stateMutability": "view",
      "type": "function"
    },
    {
      "inputs": [
        {
          "internalType": "bytes32",
          "name": "id",
          "type": "bytes32"
        },
        {
          "internalType": "uint256",
          "name": "ticketId",
          "type": "uint256"
        }
      ],
      "name": "acceptBuyOffer",
      "outputs": [],
      "stateMutability": "nonpayable",
      "type": "function"
    },
    {
      "inputs": [
        {
          "internalType": "bytes32",
          "name": "id",
          "type": "bytes32"
        },
        {
          "internalType": "uint256",
          "name": "deadline",
          "type": "uint256"
        },
        {
          "internalType": "uint8",
          "name": "v",
          "type": "uint8"
        },
        {
          "internalType": "bytes32",
          "name": "r",
          "type": "bytes32"
        },
        {
          "internalType": "bytes32",
          "name": "s",
          "type": "bytes32"
        }
      ],
      "name": "acceptSellOffer",
      "outputs": [],
      "stateMutability": "nonpayable",
      "type": "function"
    },
    {
      "inputs": [
        {
          "internalType": "address",
          "name": "to",
          "type": "address"
        },
        {
          "internalType": "uint256",
          "name": "tokenId",
          "type": "uint256"
        }
      ],
      "name": "approve",
      "outputs": [],
      "stateMutability": "nonpayable",
      "type": "function"
    },
    {
      "inputs": [
        {
          "internalType": "address",
          "name": "owner",
          "type": "address"
        }
      ],
      "name": "balanceOf",
      "outputs": [
        {
          "internalType": "uint256",
          "name": "",
          "type": "uint256"
        }
      ],
      "stateMutability": "view",
      "type": "function"
    },
    {
      "inputs": [],
      "name": "becomeOrganizer",
      "outputs": [],
      "stateMutability": "nonpayable",
      "type": "function"
    },
    {
      "inputs": [
        {
          "internalType": "bytes32",
          "name": "_eventId",
          "type": "bytes32"
        },
        {
          "internalType": "bytes32",
          "name": "_ticketTypeId",
          "type": "bytes32"
        },
        {
          "internalType": "address",
          "name": "_recipient",
          "type": "address"
        },
        {
          "internalType": "uint256",
          "name": "deadline",
          "type": "uint256"
        },
        {
          "internalType": "uint8",
          "name": "v",
          "type": "uint8"
        },
        {
          "internalType": "bytes32",
          "name": "r",
          "type": "bytes32"
        },
        {
          "internalType": "bytes32",
          "name": "s",
          "type": "bytes32"
        },
        {
          "internalType": "uint256",
          "name": "amount",
          "type": "uint256"
        }
      ],
      "name": "buyTicket",
      "outputs": [
        {
          "internalType": "uint256",
          "name": "",
          "type": "uint256"
        }
      ],
      "stateMutability": "nonpayable",
      "type": "function"
    },
    {
      "inputs": [
        {
          "internalType": "bytes32",
          "name": "id",
          "type": "bytes32"
        }
      ],
      "name": "cancelOffer",
      "outputs": [],
      "stateMutability": "nonpayable",
      "type": "function"
    },
    {
      "inputs": [
        {
          "internalType": "bytes32",
          "name": "eventId",
          "type": "bytes32"
        },
        {
          "internalType": "bytes32",
          "name": "ticketTypeId",
          "type": "bytes32"
        },
        {
          "internalType": "uint256",
          "name": "price",
          "type": "uint256"
        },
        {
          "internalType": "uint256",
          "name": "deadline",
          "type": "uint256"
        },
        {
          "internalType": "uint8",
          "name": "v",
          "type": "uint8"
        },
        {
          "internalType": "bytes32",
          "name": "r",
          "type": "bytes32"
        },
        {
          "internalType": "bytes32",
          "name": "s",
          "type": "bytes32"
        }
      ],
      "name": "createBuyOffer",
      "outputs": [],
      "stateMutability": "nonpayable",
      "type": "function"
    },
    {
      "inputs": [
        {
          "internalType": "string",
          "name": "_name",
          "type": "string"
        },
        {
          "internalType": "string",
          "name": "_description",
          "type": "string"
        },
        {
          "internalType": "string",
          "name": "eventStorage",
          "type": "string"
        },
        {
          "internalType": "string",
          "name": "location",
          "type": "string"
        },
        {
          "internalType": "uint256",
          "name": "startTime",
          "type": "uint256"
        },
        {
          "internalType": "uint256",
          "name": "endTime",
          "type": "uint256"
        }
      ],
      "name": "createEvent",
      "outputs": [],
      "stateMutability": "nonpayable",
      "type": "function"
    },
    {
      "inputs": [
        {
          "internalType": "bytes32",
          "name": "eventId",
          "type": "bytes32"
        },
        {
          "internalType": "bytes32",
          "name": "ticketTypeId",
          "type": "bytes32"
        },
        {
          "internalType": "uint256",
          "name": "ticketId",
          "type": "uint256"
        },
        {
          "internalType": "uint256",
          "name": "price",
          "type": "uint256"
        }
      ],
      "name": "createSellOffer",
      "outputs": [],
      "stateMutability": "nonpayable",
      "type": "function"
    },
    {
      "inputs": [
        {
          "internalType": "bytes32",
          "name": "_eventId",
          "type": "bytes32"
        },
        {
          "internalType": "string",
          "name": "_ticketName",
          "type": "string"
        },
        {
          "internalType": "string",
          "name": "_tokenURI",
          "type": "string"
        },
        {
          "internalType": "string",
          "name": "_souvenirTokenURI",
          "type": "string"
        },
        {
          "internalType": "uint256",
          "name": "_price",
          "type": "uint256"
        },
        {
          "internalType": "uint256",
          "name": "_maxSupply",
          "type": "uint256"
        }
      ],
      "name": "createTicketType",
      "outputs": [],
      "stateMutability": "nonpayable",
      "type": "function"
    },
    {
      "inputs": [
        {
          "internalType": "bytes32",
          "name": "_eventId",
          "type": "bytes32"
        }
      ],
      "name": "deleteEvent",
      "outputs": [],
      "stateMutability": "nonpayable",
      "type": "function"
    },
    {
      "inputs": [
        {
          "internalType": "bytes32",
          "name": "_eventId",
          "type": "bytes32"
        },
        {
          "internalType": "bytes32",
          "name": "_ticketTypeId",
          "type": "bytes32"
        }
      ],
      "name": "deleteTicketType",
      "outputs": [],
      "stateMutability": "nonpayable",
      "type": "function"
    },
    {
      "inputs": [],
      "name": "deposit",
      "outputs": [],
      "stateMutability": "payable",
      "type": "function"
    },
    {
      "inputs": [
        {
          "internalType": "uint256",
          "name": "tokenId",
          "type": "uint256"
        }
      ],
      "name": "getApproved",
      "outputs": [
        {
          "internalType": "address",
          "name": "",
          "type": "address"
        }
      ],
      "stateMutability": "view",
      "type": "function"
    },
    {
      "inputs": [
        {
          "internalType": "bytes32",
          "name": "role",
          "type": "bytes32"
        }
      ],
      "name": "getRoleAdmin",
      "outputs": [
        {
          "internalType": "bytes32",
          "name": "",
          "type": "bytes32"
        }
      ],
      "stateMutability": "view",
      "type": "function"
    },
    {
      "inputs": [
        {
          "internalType": "uint256",
          "name": "_ticketId",
          "type": "uint256"
        }
      ],
      "name": "getSouvenir",
      "outputs": [
        {
          "internalType": "uint256",
          "name": "",
          "type": "uint256"
        }
      ],
      "stateMutability": "nonpayable",
      "type": "function"
    },
    {
      "inputs": [
        {
          "internalType": "bytes32",
          "name": "role",
          "type": "bytes32"
        },
        {
          "internalType": "address",
          "name": "account",
          "type": "address"
        }
      ],
      "name": "grantRole",
      "outputs": [],
      "stateMutability": "nonpayable",
      "type": "function"
    },
    {
      "inputs": [
        {
          "internalType": "bytes32",
          "name": "role",
          "type": "bytes32"
        },
        {
          "internalType": "address",
          "name": "account",
          "type": "address"
        }
      ],
      "name": "hasRole",
      "outputs": [
        {
          "internalType": "bool",
          "name": "",
          "type": "bool"
        }
      ],
      "stateMutability": "view",
      "type": "function"
    },
    {
      "inputs": [
        {
          "internalType": "address",
          "name": "owner",
          "type": "address"
        },
        {
          "internalType": "address",
          "name": "operator",
          "type": "address"
        }
      ],
      "name": "isApprovedForAll",
      "outputs": [
        {
          "internalType": "bool",
          "name": "",
          "type": "bool"
        }
      ],
      "stateMutability": "view",
      "type": "function"
    },
    {
      "inputs": [],
      "name": "name",
      "outputs": [
        {
          "internalType": "string",
          "name": "",
          "type": "string"
        }
      ],
      "stateMutability": "view",
      "type": "function"
    },
    {
      "inputs": [
        {
          "internalType": "uint256",
          "name": "tokenId",
          "type": "uint256"
        }
      ],
      "name": "ownerOf",
      "outputs": [
        {
          "internalType": "address",
          "name": "",
          "type": "address"
        }
      ],
      "stateMutability": "view",
      "type": "function"
    },
    {
      "inputs": [],
      "name": "ownerWithdraw",
      "outputs": [],
      "stateMutability": "nonpayable",
      "type": "function"
    },
    {
      "inputs": [
        {
          "internalType": "bytes32",
          "name": "role",
          "type": "bytes32"
        },
        {
          "internalType": "address",
          "name": "account",
          "type": "address"
        }
      ],
      "name": "renounceRole",
      "outputs": [],
      "stateMutability": "nonpayable",
      "type": "function"
    },
    {
      "inputs": [
        {
          "internalType": "bytes32",
          "name": "role",
          "type": "bytes32"
        },
        {
          "internalType": "address",
          "name": "account",
          "type": "address"
        }
      ],
      "name": "revokeRole",
      "outputs": [],
      "stateMutability": "nonpayable",
      "type": "function"
    },
    {
      "inputs": [
        {
          "internalType": "address",
          "name": "from",
          "type": "address"
        },
        {
          "internalType": "address",
          "name": "to",
          "type": "address"
        },
        {
          "internalType": "uint256",
          "name": "tokenId",
          "type": "uint256"
        }
      ],
      "name": "safeTransferFrom",
      "outputs": [],
      "stateMutability": "nonpayable",
      "type": "function"
    },
    {
      "inputs": [
        {
          "internalType": "address",
          "name": "from",
          "type": "address"
        },
        {
          "internalType": "address",
          "name": "to",
          "type": "address"
        },
        {
          "internalType": "uint256",
          "name": "tokenId",
          "type": "uint256"
        },
        {
          "internalType": "bytes",
          "name": "data",
          "type": "bytes"
        }
      ],
      "name": "safeTransferFrom",
      "outputs": [],
      "stateMutability": "nonpayable",
      "type": "function"
    },
    {
      "inputs": [
        {
          "internalType": "address",
          "name": "operator",
          "type": "address"
        },
        {
          "internalType": "bool",
          "name": "approved",
          "type": "bool"
        }
      ],
      "name": "setApprovalForAll",
      "outputs": [],
      "stateMutability": "nonpayable",
      "type": "function"
    },
    {
      "inputs": [
        {
          "internalType": "uint256",
          "name": "_organizerDeposit",
          "type": "uint256"
        }
      ],
      "name": "setOrganizerDeposit",
      "outputs": [],
      "stateMutability": "nonpayable",
      "type": "function"
    },
    {
      "inputs": [
        {
          "internalType": "address",
          "name": "_souvenirGeneratorAddress",
          "type": "address"
        }
      ],
      "name": "setSouvenirGeneratorContract",
      "outputs": [],
      "stateMutability": "nonpayable",
      "type": "function"
    },
    {
      "inputs": [
        {
          "internalType": "address",
          "name": "_tokenAddress",
          "type": "address"
        }
      ],
      "name": "setTIKContract",
      "outputs": [],
      "stateMutability": "nonpayable",
      "type": "function"
    },
    {
      "inputs": [
        {
          "internalType": "bytes4",
          "name": "interfaceId",
          "type": "bytes4"
        }
      ],
      "name": "supportsInterface",
      "outputs": [
        {
          "internalType": "bool",
          "name": "",
          "type": "bool"
        }
      ],
      "stateMutability": "view",
      "type": "function"
    },
    {
      "inputs": [],
      "name": "symbol",
      "outputs": [
        {
          "internalType": "string",
          "name": "",
          "type": "string"
        }
      ],
      "stateMutability": "view",
      "type": "function"
    },
    {
      "inputs": [
        {
          "internalType": "uint256",
          "name": "tokenId",
          "type": "uint256"
        }
      ],
      "name": "tokenURI",
      "outputs": [
        {
          "internalType": "string",
          "name": "",
          "type": "string"
        }
      ],
      "stateMutability": "view",
      "type": "function"
    },
    {
      "inputs": [
        {
          "internalType": "address",
          "name": "from",
          "type": "address"
        },
        {
          "internalType": "address",
          "name": "to",
          "type": "address"
        },
        {
          "internalType": "uint256",
          "name": "tokenId",
          "type": "uint256"
        }
      ],
      "name": "transferFrom",
      "outputs": [],
      "stateMutability": "nonpayable",
      "type": "function"
    },
    {
      "inputs": [
        {
          "internalType": "bytes32",
          "name": "_eventId",
          "type": "bytes32"
        },
        {
          "internalType": "string",
          "name": "_name",
          "type": "string"
        },
        {
          "internalType": "string",
          "name": "_description",
          "type": "string"
        },
        {
          "internalType": "string",
          "name": "eventStorage",
          "type": "string"
        },
        {
          "internalType": "string",
          "name": "location",
          "type": "string"
        },
        {
          "internalType": "uint256",
          "name": "startTime",
          "type": "uint256"
        },
        {
          "internalType": "uint256",
          "name": "endTime",
          "type": "uint256"
        }
      ],
      "name": "updateEvent",
      "outputs": [],
      "stateMutability": "nonpayable",
      "type": "function"
    },
    {
      "inputs": [
        {
          "internalType": "bytes32",
          "name": "_eventId",
          "type": "bytes32"
        },
        {
          "internalType": "bytes32",
          "name": "_ticketTypeId",
          "type": "bytes32"
        },
        {
          "internalType": "string",
          "name": "_ticketName",
          "type": "string"
        },
        {
          "internalType": "string",
          "name": "_tokenURI",
          "type": "string"
        },
        {
          "internalType": "string",
          "name": "_souvenirTokenURI",
          "type": "string"
        },
        {
          "internalType": "uint256",
          "name": "_price",
          "type": "uint256"
        },
        {
          "internalType": "uint256",
          "name": "_maxSupply",
          "type": "uint256"
        }
      ],
      "name": "updateTicketType",
      "outputs": [],
      "stateMutability": "nonpayable",
      "type": "function"
    },
    {
      "inputs": [
        {
          "internalType": "uint256",
          "name": "_ticketId",
          "type": "uint256"
        }
      ],
      "name": "useTicket",
      "outputs": [],
      "stateMutability": "nonpayable",
      "type": "function"
    },
    {
      "inputs": [
        {
          "internalType": "uint256",
          "name": "amount",
          "type": "uint256"
        }
      ],
      "name": "userWithdraw",
      "outputs": [],
      "stateMutability": "nonpayable",
      "type": "function"
    }
  ],
  "bytecode": "0x60806040526000600f55600060105566038d7ea4c680006011553480156200002657600080fd5b5060405162005a1038038062005a10833981016040819052620000499162000293565b604080518082018252600a815269151a58dad95d0813919560b21b60208083019182528351808501909452600384526213919560ea1b9084015281519192916200009691600191620001d0565b508051620000ac906002906020840190620001d0565b5050600980546001600160a01b038085166001600160a01b031992831617909255600a805492861692909116919091179055506200010b7fb19546dff01e856fb3f010c267a7b1c60363cf8a4664e21cc89c26224620214e3362000120565b6200011860003362000120565b505062000308565b6200012c828262000130565b5050565b6000828152602081815260408083206001600160a01b038516845290915290205460ff166200012c576000828152602081815260408083206001600160a01b03851684529091529020805460ff191660011790556200018c3390565b6001600160a01b0316816001600160a01b0316837f2f8788117e7eff1d82e926ec794901d17c78024a50270940304540a733656f0d60405160405180910390a45050565b828054620001de90620002cb565b90600052602060002090601f0160209004810192826200020257600085556200024d565b82601f106200021d57805160ff19168380011785556200024d565b828001600101855582156200024d579182015b828111156200024d57825182559160200191906001019062000230565b506200025b9291506200025f565b5090565b5b808211156200025b576000815560010162000260565b80516001600160a01b03811681146200028e57600080fd5b919050565b60008060408385031215620002a757600080fd5b620002b28362000276565b9150620002c26020840162000276565b90509250929050565b600181811c90821680620002e057607f821691505b602082108114156200030257634e487b7160e01b600052602260045260246000fd5b50919050565b6156f880620003186000396000f3fe6080604052600436106102515760003560e01c806363113c6a11610139578063b88d4fde116100b6578063d547741f1161007a578063d547741f146106e3578063d8827ae514610703578063e58378bb14610723578063e5bdaeb714610745578063e985e9c514610765578063f952279e146107ae57600080fd5b8063b88d4fde1461065b578063baab45fb1461067b578063c1b9db441461069b578063c87b56dd146106bb578063d0e30db0146106db57600080fd5b806395d89b41116100fd57806395d89b41146105d1578063a217fddf146105e6578063a22cb465146105fb578063a38c7eb21461061b578063ae1e45541461063b57600080fd5b806363113c6a1461052f5780636352211e1461054f57806370a082311461056f5780637909cb591461058f57806391d14854146105b157600080fd5b806326606448116101d25780633b9056bf116101965780633b9056bf1461047a5780634109ba1f1461049a57806342842e0e146104ba5780634311de8f146104da57806352c0cb6c146104ef57806356f725721461050f57600080fd5b806326606448146103da5780632d32165f146103fa5780632d3e40941461041a5780632f2ff15d1461043a57806336568abe1461045a57600080fd5b806315cd972d1161021957806315cd972d1461031c5780631cc844bc1461033c5780631ef791d61461035c57806323b872dd1461037c578063248a9ca31461039c57600080fd5b806301ffc9a71461025657806306fdde031461028b57806307b17fc9146102ad578063081812fc146102c4578063095ea7b3146102fc575b600080fd5b34801561026257600080fd5b50610276610271366004614870565b6107ce565b60405190151581526020015b60405180910390f35b34801561029757600080fd5b506102a06107df565b60405161028291906148e5565b3480156102b957600080fd5b506102c2610871565b005b3480156102d057600080fd5b506102e46102df3660046148f8565b610a7b565b6040516001600160a01b039091168152602001610282565b34801561030857600080fd5b506102c261031736600461492d565b610aa2565b34801561032857600080fd5b506102c2610337366004614a03565b610bb8565b34801561034857600080fd5b506102c26103573660046148f8565b610d69565b34801561036857600080fd5b506102c2610377366004614ac2565b610f2e565b34801561038857600080fd5b506102c2610397366004614ae4565b6111af565b3480156103a857600080fd5b506103cc6103b73660046148f8565b60009081526020819052604090206001015490565b604051908152602001610282565b3480156103e657600080fd5b506102c26103f53660046148f8565b6111e0565b34801561040657600080fd5b506102c2610415366004614ac2565b611437565b34801561042657600080fd5b506103cc610435366004614b31565b6117b2565b34801561044657600080fd5b506102c2610455366004614b9c565b611d3a565b34801561046657600080fd5b506102c2610475366004614b9c565b611d5f565b34801561048657600080fd5b506102c26104953660046148f8565b611ddd565b3480156104a657600080fd5b506102c26104b5366004614bc8565b61200d565b3480156104c657600080fd5b506102c26104d5366004614ae4565b6121bf565b3480156104e657600080fd5b506102c26121da565b3480156104fb57600080fd5b506102c261050a366004614c92565b6122e2565b34801561051b57600080fd5b506102c261052a366004614cad565b61231d565b34801561053b57600080fd5b506102c261054a366004614c92565b612613565b34801561055b57600080fd5b506102e461056a3660046148f8565b61264e565b34801561057b57600080fd5b506103cc61058a366004614c92565b6126ae565b34801561059b57600080fd5b506103cc6000805160206156a383398151915281565b3480156105bd57600080fd5b506102766105cc366004614b9c565b612734565b3480156105dd57600080fd5b506102a061275d565b3480156105f257600080fd5b506103cc600081565b34801561060757600080fd5b506102c2610616366004614ced565b61276c565b34801561062757600080fd5b506103cc6106363660046148f8565b612777565b34801561064757600080fd5b506102c2610656366004614d24565b612ab0565b34801561066757600080fd5b506102c2610676366004614d6b565b612f23565b34801561068757600080fd5b506102c2610696366004614de7565b612f5b565b3480156106a757600080fd5b506102c26106b6366004614e28565b613168565b3480156106c757600080fd5b506102a06106d63660046148f8565b613470565b6102c2613581565b3480156106ef57600080fd5b506102c26106fe366004614b9c565b613632565b34801561070f57600080fd5b506102c261071e366004614e84565b613657565b34801561072f57600080fd5b506103cc60008051602061568383398151915281565b34801561075157600080fd5b506102c26107603660046148f8565b613906565b34801561077157600080fd5b50610276610780366004614ebc565b6001600160a01b03918216600090815260066020908152604080832093909416825291909152205460ff1690565b3480156107ba57600080fd5b506102c26107c93660046148f8565b613924565b60006107d982613abe565b92915050565b6060600180546107ee90614ee6565b80601f016020809104026020016040519081016040528092919081815260200182805461081a90614ee6565b80156108675780601f1061083c57610100808354040283529160200191610867565b820191906000526020600020905b81548152906001019060200180831161084a57829003601f168201915b5050505050905090565b6108896000805160206156a383398151915233612734565b156108db5760405162461bcd60e51b815260206004820152601e60248201527f43616c6c657220697320616c726561647920616e206f7267616e697a6572000060448201526064015b60405180910390fd5b601154600a546040516370a0823160e01b81523360048201526001600160a01b03909116906370a082319060240160206040518083038186803b15801561092157600080fd5b505afa158015610935573d6000803e3d6000fd5b505050506040513d601f19601f820116820180604052508101906109599190614f21565b10156109b55760405162461bcd60e51b815260206004820152602560248201527f4e6f7420656e6f75676820746f6b656e7320746f206265636f6d65206f7267616044820152643734bd32b960d91b60648201526084016108d2565b600a54601154604051632770a7eb60e21b815233600482015260248101919091526001600160a01b0390911690639dc29fac90604401600060405180830381600087803b158015610a0557600080fd5b505af1158015610a19573d6000803e3d6000fd5b50505050610a356000805160206156a383398151915233613afe565b60115460106000828254610a499190614f50565b909155505060405133907f05f859dfb18830d36af71675c4fa21aae688563692ab047927d4209bc3270c5f90600090a2565b6000610a8682613b08565b506000908152600560205260409020546001600160a01b031690565b6000610aad8261264e565b9050806001600160a01b0316836001600160a01b03161415610b1b5760405162461bcd60e51b815260206004820152602160248201527f4552433732313a20617070726f76616c20746f2063757272656e74206f776e656044820152603960f91b60648201526084016108d2565b336001600160a01b0382161480610b375750610b378133610780565b610ba95760405162461bcd60e51b815260206004820152603e60248201527f4552433732313a20617070726f76652063616c6c6572206973206e6f7420746f60448201527f6b656e206f776e6572206e6f7220617070726f76656420666f7220616c6c000060648201526084016108d2565b610bb38383613b5b565b505050565b6000805160206156a3833981519152610bd081613bc9565b600087604051602001610be391906148e5565b60408051601f1981840301815291815281516020928301206000818152600b90935291205490915015610c4f5760405162461bcd60e51b81526020600482015260146024820152734576656e7420616c72656164792065786973747360601b60448201526064016108d2565b6000818152600b602090815260409091208281556001810180546001600160a01b031916331790558951610c8b926002909201918b019061470d565b506000818152600b602090815260409091208851610cb1926005909201918a019061470d565b506000818152600b602090815260409091208751610cd79260079092019189019061470d565b506000818152600b602090815260409091208651610cfd9260069092019188019061470d565b506000818152600b602052604090819020600381018690556004018490555133907fba44e3dea1f095c62db0d9f6facba383bf1c67dd759f22d118d3c81b5fbb36dd90610d579084908c908c908c908c908c908c90614f68565b60405180910390a25050505050505050565b6000818152600b60205260409020548190610d965760405162461bcd60e51b81526004016108d290614fd2565b6000805160206156a3833981519152610dae81613bc9565b6000838152600b60205260409020600101546001600160a01b03163314610e175760405162461bcd60e51b815260206004820152601f60248201527f4f6e6c79206f7267616e697a65722063616e2072656d6f7665206576656e740060448201526064016108d2565b6000838152600b602052604090206008015415610e765760405162461bcd60e51b815260206004820152601c60248201527f4576656e74207374696c6c20686173207469636b65742074797065730000000060448201526064016108d2565b6000838152600b602052604081208181556001810180546001600160a01b031916905590610ea76002830182614791565b60038201600090556004820160009055600582016000610ec79190614791565b610ed5600683016000614791565b610ee3600783016000614791565b610ef16008830160006147cb565b505060405183815233907f6e3bc81a96d2f5065ad94a6a93273d83748be7ace6c49f293c543738f62a5b6a906020015b60405180910390a2505050565b6000828152600b60205260409020548290610f5b5760405162461bcd60e51b81526004016108d290614fd2565b6000838152600b60209081526040808320858452600a0190915290205483908390610f985760405162461bcd60e51b81526004016108d290615000565b6000805160206156a3833981519152610fb081613bc9565b6000868152600b6020526040902060018101546001600160a01b0316331461102d5760405162461bcd60e51b815260206004820152602a60248201527f4f6e6c7920746865206f7267616e697a65722063616e2072656d6f7665207469604482015269636b657420747970657360b01b60648201526084016108d2565b6000868152600a8201602052604081208181559061104e6001830182614791565b6002820160009055600382016000905560048201600090556005820160006110769190614791565b611084600683016000614791565b50506000868152600982016020526040812054600883015460ff90911691906110af90600190615037565b90506000836008018260ff16815481106110cb576110cb61505a565b6000918252602080832090910154808352600987019091526040808320805460ff881660ff1991821681179092558d855291909320805490911690556008860180549193508392909181106111225761112261505a565b6000918252602090912001556008840180548061114157611141615070565b60019003818190600052602060002001600090559055336001600160a01b03167fd7e867a3c1b30b85f1c4060ae5f328a610ab1b13aabd5415372dd1c8637154ab8b8b60405161119b929190918252602082015260400190565b60405180910390a250505050505050505050565b6111b93382613bd3565b6111d55760405162461bcd60e51b81526004016108d290615086565b610bb3838383613c51565b806111ea81613ded565b6112065760405162461bcd60e51b81526004016108d2906150d4565b6000805160206156a383398151915261121e81613bc9565b6000838152600d6020526040902060040154600160b01b900460ff16156112805760405162461bcd60e51b8152602060048201526016602482015275151a58dad95d081a5cc8185b1c9958591e481d5cd95960521b60448201526064016108d2565b6000838152600d602090815260408083206001908101548452600b90925290912001546001600160a01b031633146112ee5760405162461bcd60e51b81526020600482015260116024820152702737ba103a34329037b933b0b734bd32b960791b60448201526064016108d2565b6000838152600d60209081526040808320600101548352600b90915290206004015415611377576000838152600d60209081526040808320600101548352600b90915290206004015442106113775760405162461bcd60e51b815260206004820152600f60248201526e115d995b9d081a185cc8195b991959608a1b60448201526064016108d2565b6000838152600d60209081526040808320600101548352600b9091529020600301544210156113e05760405162461bcd60e51b8152602060048201526015602482015274115d995b9d081a185cc81b9bdd081cdd185c9d1959605a1b60448201526064016108d2565b6000838152600d602052604090819020600401805461ffff60a81b1916600160b01b1790555133907f31684b65477a7d1fd4edef84ea40d8f3d6c7531a2e48dfdf9c8c55c8ec5496f990610f219086815260200190565b6000828152600e602052604090205482906114645760405162461bcd60e51b81526004016108d290615103565b6000838152600e6020526040902060068101546001600160a01b03163314156114cf5760405162461bcd60e51b815260206004820152601a60248201527f43616e6e6f742062757920796f7572206f776e207469636b657400000000000060448201526064016108d2565b600481810154600a546006840154604051636eb1769f60e11b81526001600160a01b0391821694810194909452306024850152919291169063dd62ed3e9060440160206040518083038186803b15801561152857600080fd5b505afa15801561153c573d6000803e3d6000fd5b505050506040513d601f19601f820116820180604052508101906115609190614f21565b101561157e5760405162461bcd60e51b81526004016108d290615131565b60038101839055600a5460068201546004808401546040516323b872dd60e01b81526001600160a01b0393841692810192909252336024830152604482015260009291909116906323b872dd90606401602060405180830381600087803b1580156115e857600080fd5b505af11580156115fc573d6000803e3d6000fd5b505050506040513d601f19601f820116820180604052508101906116209190615168565b90508061163f5760405162461bcd60e51b81526004016108d290615185565b600682015460038301546116609133916001600160a01b0390911690613e0a565b60068201805460ff60a01b198116600160a01b178255600580850180546001600160a01b0319908116339081179092556003870180546000908152600d60209081526040808320600490810180549096166001600160a01b03998a1617909555835483528083208501805460ff60a81b1916600160a81b179055975460018b015460028c01549454818552600b84528a8520868652600a0190935292899020948b0154985195989716968d967f7290e6fa19a97e2b68363bf3455b9fa2fa8b741ea3cb84b7b3eabcb93fd246ec9661173f96949594909101919061524e565b60405180910390a4505050600091825250600e60205260408120818155600181018290556002810182905560038101829055600481018290556005810180546001600160a01b03191690556006810180546001600160a81b03191690556007810191909155600801805461ffff19169055565b6000888152600b602052604081205489906117df5760405162461bcd60e51b81526004016108d290614fd2565b60008a8152600b602090815260408083208c8452600a019091529020548a908a9061181c5760405162461bcd60e51b81526004016108d290615000565b60008c8152600b602090815260408083208e8452600a8101909252909120600481015461188b5760405162461bcd60e51b815260206004820152601f60248201527f5469636b6574732066726f6d2074686973207479706520736f6c64206f75740060448201526064016108d2565b8a1561191157600a60009054906101000a90046001600160a01b03166001600160a01b031663d505accf33308a8f8f8f8f6040518863ffffffff1660e01b81526004016118de9796959493929190615285565b600060405180830381600087803b1580156118f857600080fd5b505af115801561190c573d6000803e3d6000fd5b505050505b6002810154600a54604051636eb1769f60e11b81523360048201523060248201526001600160a01b039091169063dd62ed3e9060440160206040518083038186803b15801561195f57600080fd5b505afa158015611973573d6000803e3d6000fd5b505050506040513d601f19601f820116820180604052508101906119979190614f21565b10156119b55760405162461bcd60e51b81526004016108d290615131565b600a54600183015460028301546040516323b872dd60e01b81523360048201526001600160a01b039283166024820152604481019190915260009291909116906323b872dd90606401602060405180830381600087803b158015611a1857600080fd5b505af1158015611a2c573d6000803e3d6000fd5b505050506040513d601f19601f82011682018060405250810190611a509190615168565b905080611a6f5760405162461bcd60e51b81526004016108d290615185565b600482018054906000611a81836152c6565b91905055506000611b1e8e846005018054611a9b90614ee6565b80601f0160208091040260200160405190810160405280929190818152602001828054611ac790614ee6565b8015611b145780601f10611ae957610100808354040283529160200191611b14565b820191906000526020600020905b815481529060010190602001808311611af757829003601f168201915b5050505050613e81565b6040805161010081018252600080825260208201819052918101829052606081018290526080810182905260a0810182905260c0810182905260e08101919091529091508181600001818152505084600001548160200181815250508f8160400181815250508e81608001906001600160a01b031690816001600160a01b03168152505060018160c001901515908115158152505060008160a001901515908115158152505060008160e001901515908115158152505080600d60008481526020019081526020016000206000820151816000015560208201518160010155604082015181600201556060820151816003015560808201518160040160006101000a8154816001600160a01b0302191690836001600160a01b0316021790555060a08201518160040160146101000a81548160ff02191690831515021790555060c08201518160040160156101000a81548160ff02191690831515021790555060e08201518160040160166101000a81548160ff021916908315150217905550905050600c8290806001815401808255809150506001900390600052602060002001600090919091909150558e6001600160a01b0316336001600160a01b03167fc7ec5a63397c2e4326b9522abeedaab52d40b2ae3118d9f95f5ab2ee4abf03a4836020015184604001518689600501604051611d1e94939291906152dd565b60405180910390a3509f9e505050505050505050505050505050565b600082815260208190526040902060010154611d5581613bc9565b610bb38383613eb9565b6001600160a01b0381163314611dcf5760405162461bcd60e51b815260206004820152602f60248201527f416363657373436f6e74726f6c3a2063616e206f6e6c792072656e6f756e636560448201526e103937b632b9903337b91039b2b63360891b60648201526084016108d2565b611dd98282613f3d565b5050565b600a546040516370a0823160e01b81523360048201526000916001600160a01b0316906370a082319060240160206040518083038186803b158015611e2157600080fd5b505afa158015611e35573d6000803e3d6000fd5b505050506040513d601f19601f82011682018060405250810190611e599190614f21565b905080821115611eab5760405162461bcd60e51b815260206004820152601a60248201527f4e6f7420656e6f75676820746f2062652077697468647261776e00000000000060448201526064016108d2565b600f54821115611efd5760405162461bcd60e51b815260206004820152601e60248201527f57697468647261772069732063757272656e746c792064697361626c6564000060448201526064016108d2565b604051600090339084156108fc0290859084818181858888f19350505050905080611f585760405162461bcd60e51b815260206004820152600b60248201526a1cd95b990819985a5b195960aa1b60448201526064016108d2565b600a54604051632770a7eb60e21b8152336004820152602481018590526001600160a01b0390911690639dc29fac90604401600060405180830381600087803b158015611fa457600080fd5b505af1158015611fb8573d6000803e3d6000fd5b50506040518581523392507f884edad9ce6fa2440d8a54cc123490eb96d2768479d49ff9c7366125a9424364915060200160405180910390a282600f6000828254612003919061530c565b9091555050505050565b6000878152600b6020526040902054879061203a5760405162461bcd60e51b81526004016108d290614fd2565b6000805160206156a383398151915261205281613bc9565b6000898152600b60205260409020600101546001600160a01b031633146120bb5760405162461bcd60e51b815260206004820152601d60248201527f4f6e6c79206f7267616e697a65722063616e2065646974206576656e7400000060448201526064016108d2565b6000898152600b6020908152604090912089516120e0926002909201918b019061470d565b506000898152600b602090815260409091208851612106926005909201918a019061470d565b506000898152600b60209081526040909120875161212c9260079092019189019061470d565b506000898152600b6020908152604090912086516121529260069092019188019061470d565b506000898152600b602052604090819020600381018690556004018490555133907fc6c3b5ce58b3196884cdaee9a17eb22ca93be1fe7ed9dc66fcb99d4c5148d13b906121ac908c908c908c908c908c908c908c90614f68565b60405180910390a2505050505050505050565b610bb383838360405180602001604052806000815250612f23565b6000805160206156838339815191526121f281613bc9565b6000601054116122445760405162461bcd60e51b815260206004820152601a60248201527f4e6f7420656e6f75676820746f2062652077697468647261776e00000000000060448201526064016108d2565b601054604051600091339181156108fc02919084818181858888f193505050509050806122a15760405162461bcd60e51b815260206004820152600b60248201526a1cd95b990819985a5b195960aa1b60448201526064016108d2565b60105460405190815233907f884edad9ce6fa2440d8a54cc123490eb96d2768479d49ff9c7366125a94243649060200160405180910390a250506000601055565b6000805160206156838339815191526122fa81613bc9565b50600980546001600160a01b0319166001600160a01b0392909216919091179055565b6000848152600b6020526040902054849061234a5760405162461bcd60e51b81526004016108d290614fd2565b6000858152600b60209081526040808320878452600a01909152902054859085906123875760405162461bcd60e51b81526004016108d290615000565b8461239181613ded565b6123ad5760405162461bcd60e51b81526004016108d2906150d4565b85336123b88261264e565b6001600160a01b0316146123de5760405162461bcd60e51b81526004016108d290615323565b604080513360208201529081018a9052606081018990526080810188905260009060a00160408051808303601f1901815291815281516020928301206000818152600e909352912060080154909150610100900460ff16156124945760405162461bcd60e51b815260206004820152602960248201527f53656c6c206f6666657220616c72656164792065786973747320666f722074686044820152681a5cc81d1a58dad95d60ba1b60648201526084016108d2565b61249c6147e9565b8181523360a0820181815260208084018e815260408086018f8152606087018f8152608088018f81526000610100808b018281526101208c0183815260016101408e018181528f8652600e8c528986208f5181559a51918b0191909155965160028a015594516003890155925160048089019190915598516005880180546001600160a01b039283166001600160a01b031990911617905560c08c015160068901805460e08f01511515600160a01b026001600160a81b03199091169290931691909117919091179055915160078701559151600890950180549351151590910261ff00199515159590951661ffff19909316929092179390931790558d8252600d909252819020909101805460ff60a81b191690555183907f0f27c48668db2e12a5e88bc77cf8b459181c7ee1e6264ddb55242efe89d9d039906125fe908f908f908f908f9093845260208401929092526040830152606082015260800190565b60405180910390a35050505050505050505050565b60008051602061568383398151915261262b81613bc9565b50600a80546001600160a01b0319166001600160a01b0392909216919091179055565b6000818152600360205260408120546001600160a01b0316806107d95760405162461bcd60e51b8152602060048201526018602482015277115490cdcc8c4e881a5b9d985b1a59081d1bdad95b88125160421b60448201526064016108d2565b60006001600160a01b0382166127185760405162461bcd60e51b815260206004820152602960248201527f4552433732313a2061646472657373207a65726f206973206e6f7420612076616044820152683634b21037bbb732b960b91b60648201526084016108d2565b506001600160a01b031660009081526004602052604090205490565b6000918252602082815260408084206001600160a01b0393909316845291905290205460ff1690565b6060600280546107ee90614ee6565b611dd9338383613fa2565b60008161278381613ded565b61279f5760405162461bcd60e51b81526004016108d2906150d4565b82336127aa8261264e565b6001600160a01b0316146127d05760405162461bcd60e51b81526004016108d290615323565b6000848152600d602090815260409182902082516101008101845281548152600182015492810192909252600281015492820192909252600382015460608201526004909101546001600160a01b038116608083015260ff600160a01b8204811615801560a0850152600160a81b83048216151560c0850152600160b01b90920416151560e08301526128a55760405162461bcd60e51b815260206004820152601760248201527f536f7576656e697220616c7265616479206d696e74656400000000000000000060448201526064016108d2565b8060e001516128f65760405162461bcd60e51b815260206004820152601d60248201527f5469636b6574207374696c6c206861736e2774206265656e207573656400000060448201526064016108d2565b6009546020808301516000908152600b82526040808220818601518352600a019092528181209151630d385de160e01b815290926001600160a01b031691630d385de19161294e91339160069091019060040161536b565b602060405180830381600087803b15801561296857600080fd5b505af115801561297c573d6000803e3d6000fd5b505050506040513d601f19601f820116820180604052508101906129a09190614f21565b600160a084018181526060850183815260008a8152600d6020908152604080832089518155828a0151968101879055818a01805160028301559451600382015560808a0151600482018054975160c08d015160e08e01511515600160b01b0260ff60b01b19911515600160a81b029190911661ffff60a81b19921515600160a01b026001600160a81b0319909b166001600160a01b039095169490941799909917169190911796909617909555948252600b815284822092518252600a909201909152829020915192935033927fbfb0d88738cabb67e80487f01fe7851fe075d3a6314462e7576e719ef025892a92612a9f929186916006019061538f565b60405180910390a295945050505050565b6000858152600e60205260409020548590612add5760405162461bcd60e51b81526004016108d290615103565b6000868152600e6020526040902060058101546001600160a01b0316331415612b485760405162461bcd60e51b815260206004820152601a60248201527f43616e6e6f742062757920796f7572206f776e207469636b657400000000000060448201526064016108d2565b600a5460048083015460405163d505accf60e01b81526001600160a01b039093169263d505accf92612b8692339230928d918d918d918d9101615285565b600060405180830381600087803b158015612ba057600080fd5b505af1158015612bb4573d6000803e3d6000fd5b50505050600481810154600a54604051636eb1769f60e11b8152339381019390935230602484015290916001600160a01b039091169063dd62ed3e9060440160206040518083038186803b158015612c0b57600080fd5b505afa158015612c1f573d6000803e3d6000fd5b505050506040513d601f19601f82011682018060405250810190612c439190614f21565b1015612c615760405162461bcd60e51b81526004016108d290615131565b600a5460058201546004808401546040516323b872dd60e01b815233928101929092526001600160a01b039283166024830152604482015260009291909116906323b872dd90606401602060405180830381600087803b158015612cc457600080fd5b505af1158015612cd8573d6000803e3d6000fd5b505050506040513d601f19601f82011682018060405250810190612cfc9190615168565b905080612d1b5760405162461bcd60e51b81526004016108d290615185565b60058201546003830154612d3a916001600160a01b0316903390613e0a565b60018260060160146101000a81548160ff021916908315150217905550338260060160006101000a8154816001600160a01b0302191690836001600160a01b031602179055506001600d60008460030154815260200190815260200160002060040160156101000a81548160ff0219169083151502179055508160060160009054906101000a90046001600160a01b0316600d60008460030154815260200190815260200160002060040160006101000a8154816001600160a01b0302191690836001600160a01b03160217905550336001600160a01b03168260050160009054906101000a90046001600160a01b03166001600160a01b0316897f74d4a4b83241ac6e92c85cb30050e3a85c7c42122aeef8712fc2f603a3a8c3cb856001015486600201548760030154600b60008a600101548152602001908152602001600020600a0160008a6002015481526020019081526020016000206005018960040154604051612ead95949392919061524e565b60405180910390a450505060009485525050600e602052505060408120818155600181018290556002810182905560038101829055600481018290556005810180546001600160a01b03191690556006810180546001600160a81b03191690556007810191909155600801805461ffff19169055565b612f2d3383613bd3565b612f495760405162461bcd60e51b81526004016108d290615086565b612f5584848484614069565b50505050565b6000878152600b60205260409020548790612f885760405162461bcd60e51b81526004016108d290614fd2565b6000888152600b602090815260408083208a8452600a0190915290205488908890612fc55760405162461bcd60e51b81526004016108d290615000565b6000805160206156a3833981519152612fdd81613bc9565b60008b8152600b60205260409020600101546001600160a01b031633146130575760405162461bcd60e51b815260206004820152602860248201527f4f6e6c7920746865206f7267616e697a65722063616e2065646974207469636b604482015267657420747970657360c01b60648201526084016108d2565b6040805160e0810182528b815260208082018c81528284018a9052606083018990526080830189905260a083018c905260c083018b905260008f8152600b83528481208f8252600a0183529390932082518155925180519293849390926130c592600185019291019061470d565b5060408201516002820155606082015160038201556080820151600482015560a082015180516130ff91600584019160209091019061470d565b5060c0820151805161311b91600684019160209091019061470d565b50506040513391507ffc051c354a57b794e7a2a34dc7a0ab81839aab32ad19ecc48bc4f2a549d7e46990613152908f908590615423565b60405180910390a2505050505050505050505050565b6000878152600b602052604090205487906131955760405162461bcd60e51b81526004016108d290614fd2565b6000888152600b602090815260408083208a8452600a01909152902054889088906131d25760405162461bcd60e51b81526004016108d290615000565b604080513360208083018290528284018e9052606083018d905260ff8a16608084015260a0830189905260c08084018990528451808503909101815260e08401948590528051910120600a5463d505accf60e01b909452926001600160a01b03169163d505accf916132529130908e908e908e908e908e9060e401615285565b600060405180830381600087803b15801561326c57600080fd5b505af1158015613280573d6000803e3d6000fd5b5050505061328c6147e9565b81816000018181525050338160c001906001600160a01b031690816001600160a01b0316815250508b8160200181815250508a81604001818152505089816080018181525050888161010001818152505060018161012001901515908115158152505060008161014001901515908115158152505080600e6000848152602001908152602001600020600082015181600001556020820151816001015560408201518160020155606082015181600301556080820151816004015560a08201518160050160006101000a8154816001600160a01b0302191690836001600160a01b0316021790555060c08201518160060160006101000a8154816001600160a01b0302191690836001600160a01b0316021790555060e08201518160060160146101000a81548160ff02191690831515021790555061010082015181600701556101208201518160080160006101000a81548160ff0219169083151502179055506101408201518160080160016101000a81548160ff021916908315150217905550905050336001600160a01b03167f8c0532da8a9f0675da764e7b35fbb8c2c8868976193fc36ffad259ddb5675ca4838e8e8e8e604051613152959493929190948552602085019390935260408401919091526060830152608082015260a00190565b606061347b82613b08565b6000828152600760205260408120805461349490614ee6565b80601f01602080910402602001604051908101604052809291908181526020018280546134c090614ee6565b801561350d5780601f106134e25761010080835404028352916020019161350d565b820191906000526020600020905b8154815290600101906020018083116134f057829003601f168201915b50505050509050600061352b60408051602081019091526000815290565b905080516000141561353e575092915050565b8151156135705780826040516020016135589291906154ab565b60405160208183030381529060405292505050919050565b6135798461409c565b949350505050565b600a546040516340c10f1960e01b81523360048201523460248201526001600160a01b03909116906340c10f1990604401600060405180830381600087803b1580156135cc57600080fd5b505af11580156135e0573d6000803e3d6000fd5b5050505034600f60008282546135f69190614f50565b909155505060405134815233907fe1fffcc4923d04b559f4d29a8bfc6cda04eb5b0d3c460751c2402c5c5cc9109c9060200160405180910390a2565b60008281526020819052604090206001015461364d81613bc9565b610bb38383613f3d565b6000868152600b602052604090205486906136845760405162461bcd60e51b81526004016108d290614fd2565b6000805160206156a383398151915261369c81613bc9565b600088886040516020016136b19291906154da565b60408051601f19818403018152918152815160209283012060008c8152600b9093529120600101549091506001600160a01b031633146137595760405162461bcd60e51b815260206004820152603760248201527f4f6e6c7920746865206f7267616e697a6572206f662074686973206576656e7460448201527f2063616e20637265617465207469636b6574207479706500000000000000000060648201526084016108d2565b6000898152600b60209081526040808320848452600a01909152902054156137c35760405162461bcd60e51b815260206004820152601a60248201527f5469636b6574207479706520616c72656164792065786973747300000000000060448201526064016108d2565b6040805160e08101825282815260208082018b8152828401899052606083018890526080830188905260a083018b905260c083018a905260008d8152600b8352848120868252600a01835293909320825181559251805192938493909261383192600185019291019061470d565b5060408201516002820155606082015160038201556080820151600482015560a0820151805161386b91600584019160209091019061470d565b5060c0820151805161388791600684019160209091019061470d565b50505060008a8152600b6020818152604080842060088101805488875260099092018452828620805460ff191660ff9093169290921790915592825282546001810184559284529220018390555133907f86f1c49c5e96f57ffd1bbdcf5973aa010e8c5bb16218eaace76fa50c7e66b5b79061119b908d908590615423565b60008051602061568383398151915261391e81613bc9565b50601155565b6000818152600e602052604090205481906139515760405162461bcd60e51b81526004016108d290615103565b6000828152600e6020526040902060068101546001600160a01b0316331480156139845750600881015460ff1615156001145b806139b5575060058101546001600160a01b0316331480156139b55750600881015460ff6101009091041615156001145b613a015760405162461bcd60e51b815260206004820152601c60248201527f4e6f74207468652063726561746f72206f6620746865206f666665720000000060448201526064016108d2565b6000838152600e602081815260408084206003810180548652600d84528286206004908101805460ff60a81b1916600160a81b179055898752949093528481556001810185905560028101859055918490559181018390556005810180546001600160a01b03191690556006810180546001600160a81b031916905560078101839055600801805461ffff1916905551339185917f74aeca155f6310e463cf88472fe14b61a7990f14c88a8f0a03b10306a88da8429190a3505050565b60006001600160e01b031982166380ac58cd60e01b1480613aef57506001600160e01b03198216635b5e139f60e01b145b806107d957506107d98261410f565b611dd98282613eb9565b613b1181613ded565b613b585760405162461bcd60e51b8152602060048201526018602482015277115490cdcc8c4e881a5b9d985b1a59081d1bdad95b88125160421b60448201526064016108d2565b50565b600081815260056020526040902080546001600160a01b0319166001600160a01b0384169081179091558190613b908261264e565b6001600160a01b03167f8c5be1e5ebec7d5bd14f71427d1e84f3dd0314c0f7b2291e5b200ac8c7c3b92560405160405180910390a45050565b613b588133614144565b600080613bdf8361264e565b9050806001600160a01b0316846001600160a01b03161480613c2657506001600160a01b0380821660009081526006602090815260408083209388168352929052205460ff165b806135795750836001600160a01b0316613c3f84610a7b565b6001600160a01b031614949350505050565b826001600160a01b0316613c648261264e565b6001600160a01b031614613cc85760405162461bcd60e51b815260206004820152602560248201527f4552433732313a207472616e736665722066726f6d20696e636f72726563742060448201526437bbb732b960d91b60648201526084016108d2565b6001600160a01b038216613d2a5760405162461bcd60e51b8152602060048201526024808201527f4552433732313a207472616e7366657220746f20746865207a65726f206164646044820152637265737360e01b60648201526084016108d2565b613d35600082613b5b565b6001600160a01b0383166000908152600460205260408120805460019290613d5e90849061530c565b90915550506001600160a01b0382166000908152600460205260408120805460019290613d8c908490614f50565b909155505060008181526003602052604080822080546001600160a01b0319166001600160a01b0386811691821790925591518493918716917fddf252ad1be2c89b69c2b068fc378daa952ba7f163c4a11628f55a4df523b3ef91a4505050565b6000908152600360205260409020546001600160a01b0316151590565b613e15838383613c51565b6000818152600d602090815260409182902060040180546001600160a01b0319166001600160a01b038681169182179092559251848152908616917f235a69dc2480d40b13f4bee2b08a32b678f03ca558ff46eba22ce16ace78b6ad91015b60405180910390a3505050565b6000613e91600880546001019055565b6000613e9c60085490565b9050613ea884826141a8565b613eb281846142db565b9392505050565b613ec38282612734565b611dd9576000828152602081815260408083206001600160a01b03851684529091529020805460ff19166001179055613ef93390565b6001600160a01b0316816001600160a01b0316837f2f8788117e7eff1d82e926ec794901d17c78024a50270940304540a733656f0d60405160405180910390a45050565b613f478282612734565b15611dd9576000828152602081815260408083206001600160a01b0385168085529252808320805460ff1916905551339285917ff6391f5c32d9c69d2a47ea670b442974b53935d1edc7fd64eb21e047a839171b9190a45050565b816001600160a01b0316836001600160a01b031614156140045760405162461bcd60e51b815260206004820152601960248201527f4552433732313a20617070726f766520746f2063616c6c65720000000000000060448201526064016108d2565b6001600160a01b03838116600081815260066020908152604080832094871680845294825291829020805460ff191686151590811790915591519182527f17307eab39ab6107e8899845ad3d59bd9653f200f220920489ca2b5937696c319101613e74565b614074848484613c51565b61408084848484614366565b612f555760405162461bcd60e51b81526004016108d2906154f3565b60606140a782613b08565b60006140be60408051602081019091526000815290565b905060008151116140de5760405180602001604052806000815250613eb2565b806140e884614473565b6040516020016140f99291906154ab565b6040516020818303038152906040529392505050565b60006001600160e01b03198216637965db0b60e01b14806107d957506301ffc9a760e01b6001600160e01b03198316146107d9565b61414e8282612734565b611dd957614166816001600160a01b03166014614571565b614171836020614571565b604051602001614182929190615545565b60408051601f198184030181529082905262461bcd60e51b82526108d2916004016148e5565b6001600160a01b0382166141fe5760405162461bcd60e51b815260206004820181905260248201527f4552433732313a206d696e7420746f20746865207a65726f206164647265737360448201526064016108d2565b61420781613ded565b156142545760405162461bcd60e51b815260206004820152601c60248201527f4552433732313a20746f6b656e20616c7265616479206d696e7465640000000060448201526064016108d2565b6001600160a01b038216600090815260046020526040812080546001929061427d908490614f50565b909155505060008181526003602052604080822080546001600160a01b0319166001600160a01b03861690811790915590518392907fddf252ad1be2c89b69c2b068fc378daa952ba7f163c4a11628f55a4df523b3ef908290a45050565b6142e482613ded565b6143475760405162461bcd60e51b815260206004820152602e60248201527f45524337323155524953746f726167653a2055524920736574206f66206e6f6e60448201526d32bc34b9ba32b73a103a37b5b2b760911b60648201526084016108d2565b60008281526007602090815260409091208251610bb39284019061470d565b60006001600160a01b0384163b1561446857604051630a85bd0160e11b81526001600160a01b0385169063150b7a02906143aa9033908990889088906004016155ba565b602060405180830381600087803b1580156143c457600080fd5b505af19250505080156143f4575060408051601f3d908101601f191682019092526143f1918101906155ed565b60015b61444e573d808015614422576040519150601f19603f3d011682016040523d82523d6000602084013e614427565b606091505b5080516144465760405162461bcd60e51b81526004016108d2906154f3565b805181602001fd5b6001600160e01b031916630a85bd0160e11b149050613579565b506001949350505050565b6060816144975750506040805180820190915260018152600360fc1b602082015290565b8160005b81156144c157806144ab8161560a565b91506144ba9050600a8361563b565b915061449b565b60008167ffffffffffffffff8111156144dc576144dc614957565b6040519080825280601f01601f191660200182016040528015614506576020820181803683370190505b5090505b84156135795761451b60018361530c565b9150614528600a8661564f565b614533906030614f50565b60f81b8183815181106145485761454861505a565b60200101906001600160f81b031916908160001a90535061456a600a8661563b565b945061450a565b60606000614580836002615663565b61458b906002614f50565b67ffffffffffffffff8111156145a3576145a3614957565b6040519080825280601f01601f1916602001820160405280156145cd576020820181803683370190505b509050600360fc1b816000815181106145e8576145e861505a565b60200101906001600160f81b031916908160001a905350600f60fb1b816001815181106146175761461761505a565b60200101906001600160f81b031916908160001a905350600061463b846002615663565b614646906001614f50565b90505b60018111156146be576f181899199a1a9b1b9c1cb0b131b232b360811b85600f166010811061467a5761467a61505a565b1a60f81b8282815181106146905761469061505a565b60200101906001600160f81b031916908160001a90535060049490941c936146b7816152c6565b9050614649565b508315613eb25760405162461bcd60e51b815260206004820181905260248201527f537472696e67733a20686578206c656e67746820696e73756666696369656e7460448201526064016108d2565b82805461471990614ee6565b90600052602060002090601f01602090048101928261473b5760008555614781565b82601f1061475457805160ff1916838001178555614781565b82800160010185558215614781579182015b82811115614781578251825591602001919060010190614766565b5061478d929150614845565b5090565b50805461479d90614ee6565b6000825580601f106147ad575050565b601f016020900490600052602060002090810190613b589190614845565b5080546000825590600052602060002090810190613b589190614845565b6040805161016081018252600080825260208201819052918101829052606081018290526080810182905260a0810182905260c0810182905260e081018290526101008101829052610120810182905261014081019190915290565b5b8082111561478d5760008155600101614846565b6001600160e01b031981168114613b5857600080fd5b60006020828403121561488257600080fd5b8135613eb28161485a565b60005b838110156148a8578181015183820152602001614890565b83811115612f555750506000910152565b600081518084526148d181602086016020860161488d565b601f01601f19169290920160200192915050565b602081526000613eb260208301846148b9565b60006020828403121561490a57600080fd5b5035919050565b80356001600160a01b038116811461492857600080fd5b919050565b6000806040838503121561494057600080fd5b61494983614911565b946020939093013593505050565b634e487b7160e01b600052604160045260246000fd5b600067ffffffffffffffff8084111561498857614988614957565b604051601f8501601f19908116603f011681019082821181831017156149b0576149b0614957565b816040528093508581528686860111156149c957600080fd5b858560208301376000602087830101525050509392505050565b600082601f8301126149f457600080fd5b613eb28383356020850161496d565b60008060008060008060c08789031215614a1c57600080fd5b863567ffffffffffffffff80821115614a3457600080fd5b614a408a838b016149e3565b97506020890135915080821115614a5657600080fd5b614a628a838b016149e3565b96506040890135915080821115614a7857600080fd5b614a848a838b016149e3565b95506060890135915080821115614a9a57600080fd5b50614aa789828a016149e3565b9350506080870135915060a087013590509295509295509295565b60008060408385031215614ad557600080fd5b50508035926020909101359150565b600080600060608486031215614af957600080fd5b614b0284614911565b9250614b1060208501614911565b9150604084013590509250925092565b803560ff8116811461492857600080fd5b600080600080600080600080610100898b031215614b4e57600080fd5b8835975060208901359650614b6560408a01614911565b955060608901359450614b7a60808a01614b20565b979a969950949793969560a0850135955060c08501359460e001359350915050565b60008060408385031215614baf57600080fd5b82359150614bbf60208401614911565b90509250929050565b600080600080600080600060e0888a031215614be357600080fd5b87359650602088013567ffffffffffffffff80821115614c0257600080fd5b614c0e8b838c016149e3565b975060408a0135915080821115614c2457600080fd5b614c308b838c016149e3565b965060608a0135915080821115614c4657600080fd5b614c528b838c016149e3565b955060808a0135915080821115614c6857600080fd5b50614c758a828b016149e3565b93505060a0880135915060c0880135905092959891949750929550565b600060208284031215614ca457600080fd5b613eb282614911565b60008060008060808587031215614cc357600080fd5b5050823594602084013594506040840135936060013592509050565b8015158114613b5857600080fd5b60008060408385031215614d0057600080fd5b614d0983614911565b91506020830135614d1981614cdf565b809150509250929050565b600080600080600060a08688031215614d3c57600080fd5b8535945060208601359350614d5360408701614b20565b94979396509394606081013594506080013592915050565b60008060008060808587031215614d8157600080fd5b614d8a85614911565b9350614d9860208601614911565b925060408501359150606085013567ffffffffffffffff811115614dbb57600080fd5b8501601f81018713614dcc57600080fd5b614ddb8782356020840161496d565b91505092959194509250565b600080600080600080600060e0888a031215614e0257600080fd5b8735965060208801359550604088013567ffffffffffffffff80821115614c2457600080fd5b600080600080600080600060e0888a031215614e4357600080fd5b87359650602088013595506040880135945060608801359350614e6860808901614b20565b925060a0880135915060c0880135905092959891949750929550565b60008060008060008060c08789031215614e9d57600080fd5b86359550602087013567ffffffffffffffff80821115614a5657600080fd5b60008060408385031215614ecf57600080fd5b614ed883614911565b9150614bbf60208401614911565b600181811c90821680614efa57607f821691505b60208210811415614f1b57634e487b7160e01b600052602260045260246000fd5b50919050565b600060208284031215614f3357600080fd5b5051919050565b634e487b7160e01b600052601160045260246000fd5b60008219821115614f6357614f63614f3a565b500190565b87815260e060208201526000614f8160e08301896148b9565b8281036040840152614f9381896148b9565b90508281036060840152614fa781886148b9565b90508281036080840152614fbb81876148b9565b60a0840195909552505060c0015295945050505050565b602080825260149082015273115d995b9d08191bd95cc81b9bdd08195e1a5cdd60621b604082015260600190565b6020808252601a908201527f5469636b6574207479706520646f6573206e6f74206578697374000000000000604082015260600190565b600060ff821660ff84168082101561505157615051614f3a565b90039392505050565b634e487b7160e01b600052603260045260246000fd5b634e487b7160e01b600052603160045260246000fd5b6020808252602e908201527f4552433732313a2063616c6c6572206973206e6f7420746f6b656e206f776e6560408201526d1c881b9bdc88185c1c1c9bdd995960921b606082015260800190565b602080825260159082015274151a58dad95d08191bd95cc81b9bdd08195e1a5cdd605a1b604082015260600190565b60208082526014908201527313d999995c88191bd95cc81b9bdd08195e1a5cdd60621b604082015260600190565b60208082526017908201527f546f6b656e20616c6c6f77616e636520746f6f206c6f77000000000000000000604082015260600190565b60006020828403121561517a57600080fd5b8151613eb281614cdf565b6020808252600f908201526e1d1c985b9cd9995c8819985a5b1959608a1b604082015260600190565b8054600090600181811c90808316806151c857607f831692505b60208084108214156151ea57634e487b7160e01b600052602260045260246000fd5b83885260208801828015615205576001811461521657615241565b60ff19871682528282019750615241565b60008981526020902060005b8781101561523b57815484820152908601908401615222565b83019850505b5050505050505092915050565b85815284602082015283604082015260a06060820152600061527360a08301856151ae565b90508260808301529695505050505050565b6001600160a01b0397881681529590961660208601526040850193909352606084019190915260ff16608083015260a082015260c081019190915260e00190565b6000816152d5576152d5614f3a565b506000190190565b84815283602082015282604082015260806060820152600061530260808301846151ae565b9695505050505050565b60008282101561531e5761531e614f3a565b500390565b60208082526028908201527f4f6e6c79207469636b6574206f776e65722063616e2063616c6c207468697320604082015267333ab731ba34b7b760c11b606082015260800190565b6001600160a01b0383168152604060208201819052600090613579908301846151ae565b8354815260018401546020820152600284015460408201526003840154606082015260048401546001600160a01b0381166080830152600090610140906153e060a0850160ff8360a01c1615159052565b6153f460c0850160ff8360a81c1615159052565b61540860e0850160ff8360b01c1615159052565b508461010084015280610120840152615302818401856151ae565b82815260406020820152815160408201526000602083015160e060608401526154506101208401826148b9565b905060408401516080840152606084015160a0840152608084015160c084015260a0840151603f19808584030160e086015261548c83836148b9565b925060c0860151915080858403016101008601525061530282826148b9565b600083516154bd81846020880161488d565b8351908301906154d181836020880161488d565b01949350505050565b82815260406020820152600061357960408301846148b9565b60208082526032908201527f4552433732313a207472616e7366657220746f206e6f6e20455243373231526560408201527131b2b4bb32b91034b6b83632b6b2b73a32b960711b606082015260800190565b7f416363657373436f6e74726f6c3a206163636f756e742000000000000000000081526000835161557d81601785016020880161488d565b7001034b99036b4b9b9b4b733903937b6329607d1b60179184019182015283516155ae81602884016020880161488d565b01602801949350505050565b6001600160a01b0385811682528416602082015260408101839052608060608201819052600090615302908301846148b9565b6000602082840312156155ff57600080fd5b8151613eb28161485a565b600060001982141561561e5761561e614f3a565b5060010190565b634e487b7160e01b600052601260045260246000fd5b60008261564a5761564a615625565b500490565b60008261565e5761565e615625565b500690565b600081600019048311821515161561567d5761567d614f3a565b50029056feb19546dff01e856fb3f010c267a7b1c60363cf8a4664e21cc89c26224620214e4d2e7a1e3f5dd6e203f087b15756ccf0e4ccd947fe1b639a38540089a1e47f63a26469706673582212200e4e9c437932e811ca5ea410e75546768b8ccef2ef5c6f31bf0ad64049fe34f364736f6c63430008090033",
  "linkReferences": {},
  "deployedLinkReferences": {}
}