{
  "_format": "hh-sol-artifact-1",
  "contractName": "TicketGenerator",
  "sourceName": "contracts/TicketGenerator.sol",
  "abi": [
    {
      "inputs": [
        {
          "internalType": "address",
          "name": "_tokenAddress",
          "type": "address"
        },
        {
          "internalType": "address",
          "name": "_souvenirGeneratorAddress",
          "type": "address"
        }
      ],
      "stateMutability": "nonpayable",
      "type": "constructor"
    },
    {
      "anonymous": false,
      "inputs": [
        {
          "indexed": true,
          "internalType": "address",
          "name": "owner",
          "type": "address"
        },
        {
          "indexed": true,
          "internalType": "address",
          "name": "approved",
          "type": "address"
        },
        {
          "indexed": true,
          "internalType": "uint256",
          "name": "tokenId",
          "type": "uint256"
        }
      ],
      "name": "Approval",
      "type": "event"
    },
    {
      "anonymous": false,
      "inputs": [
        {
          "indexed": true,
          "internalType": "address",
          "name": "owner",
          "type": "address"
        },
        {
          "indexed": true,
          "internalType": "address",
          "name": "operator",
          "type": "address"
        },
        {
          "indexed": false,
          "internalType": "bool",
          "name": "approved",
          "type": "bool"
        }
      ],
      "name": "ApprovalForAll",
      "type": "event"
    },
    {
      "anonymous": false,
      "inputs": [
        {
          "indexed": true,
          "internalType": "address",
          "name": "creator",
          "type": "address"
        },
        {
          "indexed": false,
          "internalType": "bytes32",
          "name": "eventId",
          "type": "bytes32"
        },
        {
          "indexed": false,
          "internalType": "string",
          "name": "name",
          "type": "string"
        },
        {
          "indexed": false,
          "internalType": "string",
          "name": "description",
          "type": "string"
        },
        {
          "indexed": false,
          "internalType": "bytes",
          "name": "eventStorage",
          "type": "bytes"
        }
      ],
      "name": "CreateEvent",
      "type": "event"
    },
    {
      "anonymous": false,
      "inputs": [
        {
          "indexed": true,
          "internalType": "address",
          "name": "creator",
          "type": "address"
        },
        {
          "indexed": false,
          "internalType": "bytes32",
          "name": "eventId",
          "type": "bytes32"
        },
        {
          "components": [
            {
              "internalType": "bytes32",
              "name": "id",
              "type": "bytes32"
            },
            {
              "internalType": "uint256",
              "name": "price",
              "type": "uint256"
            },
            {
              "internalType": "uint256",
              "name": "maxSupply",
              "type": "uint256"
            },
            {
              "internalType": "uint256",
              "name": "currentSupply",
              "type": "uint256"
            },
            {
              "internalType": "string",
              "name": "tokenURI",
              "type": "string"
            },
            {
              "internalType": "string",
              "name": "souvenirTokenURI",
              "type": "string"
            }
          ],
          "indexed": false,
          "internalType": "struct Structs.TicketType",
          "name": "ticketType",
          "type": "tuple"
        }
      ],
      "name": "CreateTicketType",
      "type": "event"
    },
    {
      "anonymous": false,
      "inputs": [
        {
          "indexed": true,
          "internalType": "address",
          "name": "creator",
          "type": "address"
        },
        {
          "indexed": false,
          "internalType": "bytes32",
          "name": "eventId",
          "type": "bytes32"
        }
      ],
      "name": "DeleteEvent",
      "type": "event"
    },
    {
      "anonymous": false,
      "inputs": [
        {
          "indexed": true,
          "internalType": "address",
          "name": "creator",
          "type": "address"
        },
        {
          "indexed": false,
          "internalType": "bytes32",
          "name": "eventId",
          "type": "bytes32"
        },
        {
          "indexed": false,
          "internalType": "bytes32",
          "name": "ticketTypeId",
          "type": "bytes32"
        }
      ],
      "name": "DeleteTickeyType",
      "type": "event"
    },
    {
      "anonymous": false,
      "inputs": [
        {
          "indexed": true,
          "internalType": "address",
          "name": "sender",
          "type": "address"
        },
        {
          "indexed": false,
          "internalType": "uint256",
          "name": "amount",
          "type": "uint256"
        }
      ],
      "name": "Deposit",
      "type": "event"
    },
    {
      "anonymous": false,
      "inputs": [
        {
          "indexed": true,
          "internalType": "address",
          "name": "creator",
          "type": "address"
        },
        {
          "indexed": true,
          "internalType": "address",
          "name": "receiver",
          "type": "address"
        },
        {
          "indexed": false,
          "internalType": "uint256",
          "name": "tokenId",
          "type": "uint256"
        },
        {
          "indexed": false,
          "internalType": "string",
          "name": "tokenURI",
          "type": "string"
        }
      ],
      "name": "GenerateTicket",
      "type": "event"
    },
    {
      "anonymous": false,
      "inputs": [
        {
          "indexed": true,
          "internalType": "bytes32",
          "name": "role",
          "type": "bytes32"
        },
        {
          "indexed": true,
          "internalType": "bytes32",
          "name": "previousAdminRole",
          "type": "bytes32"
        },
        {
          "indexed": true,
          "internalType": "bytes32",
          "name": "newAdminRole",
          "type": "bytes32"
        }
      ],
      "name": "RoleAdminChanged",
      "type": "event"
    },
    {
      "anonymous": false,
      "inputs": [
        {
          "indexed": true,
          "internalType": "bytes32",
          "name": "role",
          "type": "bytes32"
        },
        {
          "indexed": true,
          "internalType": "address",
          "name": "account",
          "type": "address"
        },
        {
          "indexed": true,
          "internalType": "address",
          "name": "sender",
          "type": "address"
        }
      ],
      "name": "RoleGranted",
      "type": "event"
    },
    {
      "anonymous": false,
      "inputs": [
        {
          "indexed": true,
          "internalType": "bytes32",
          "name": "role",
          "type": "bytes32"
        },
        {
          "indexed": true,
          "internalType": "address",
          "name": "account",
          "type": "address"
        },
        {
          "indexed": true,
          "internalType": "address",
          "name": "sender",
          "type": "address"
        }
      ],
      "name": "RoleRevoked",
      "type": "event"
    },
    {
      "anonymous": false,
      "inputs": [
        {
          "indexed": true,
          "internalType": "address",
          "name": "from",
          "type": "address"
        },
        {
          "indexed": true,
          "internalType": "address",
          "name": "to",
          "type": "address"
        },
        {
          "indexed": true,
          "internalType": "uint256",
          "name": "tokenId",
          "type": "uint256"
        }
      ],
      "name": "Transfer",
      "type": "event"
    },
    {
      "anonymous": false,
      "inputs": [
        {
          "indexed": true,
          "internalType": "address",
          "name": "sender",
          "type": "address"
        },
        {
          "indexed": true,
          "internalType": "address",
          "name": "receiver",
          "type": "address"
        },
        {
          "indexed": false,
          "internalType": "uint256",
          "name": "tokenId",
          "type": "uint256"
        }
      ],
      "name": "TransferTicket",
      "type": "event"
    },
    {
      "anonymous": false,
      "inputs": [
        {
          "indexed": true,
          "internalType": "address",
          "name": "receiver",
          "type": "address"
        },
        {
          "indexed": false,
          "internalType": "uint256",
          "name": "amount",
          "type": "uint256"
        }
      ],
      "name": "Withdraw",
      "type": "event"
    },
    {
      "inputs": [],
      "name": "DEFAULT_ADMIN_ROLE",
      "outputs": [
        {
          "internalType": "bytes32",
          "name": "",
          "type": "bytes32"
        }
      ],
      "stateMutability": "view",
      "type": "function"
    },
    {
      "inputs": [],
      "name": "EVENT_ORGANIZER",
      "outputs": [
        {
          "internalType": "bytes32",
          "name": "",
          "type": "bytes32"
        }
      ],
      "stateMutability": "view",
      "type": "function"
    },
    {
      "inputs": [],
      "name": "MINTER_ROLE",
      "outputs": [
        {
          "internalType": "bytes32",
          "name": "",
          "type": "bytes32"
        }
      ],
      "stateMutability": "view",
      "type": "function"
    },
    {
      "inputs": [],
      "name": "OWNER_ROLE",
      "outputs": [
        {
          "internalType": "bytes32",
          "name": "",
          "type": "bytes32"
        }
      ],
      "stateMutability": "view",
      "type": "function"
    },
    {
      "inputs": [
        {
          "internalType": "address",
          "name": "to",
          "type": "address"
        },
        {
          "internalType": "uint256",
          "name": "tokenId",
          "type": "uint256"
        }
      ],
      "name": "approve",
      "outputs": [],
      "stateMutability": "nonpayable",
      "type": "function"
    },
    {
      "inputs": [
        {
          "internalType": "address",
          "name": "owner",
          "type": "address"
        }
      ],
      "name": "balanceOf",
      "outputs": [
        {
          "internalType": "uint256",
          "name": "",
          "type": "uint256"
        }
      ],
      "stateMutability": "view",
      "type": "function"
    },
    {
      "inputs": [
        {
          "internalType": "bytes32",
          "name": "_eventId",
          "type": "bytes32"
        },
        {
          "internalType": "bytes32",
          "name": "_ticketTypeId",
          "type": "bytes32"
        },
        {
          "internalType": "address",
          "name": "_recepient",
          "type": "address"
        },
        {
          "internalType": "uint256",
          "name": "deadline",
          "type": "uint256"
        },
        {
          "internalType": "uint8",
          "name": "v",
          "type": "uint8"
        },
        {
          "internalType": "bytes32",
          "name": "r",
          "type": "bytes32"
        },
        {
          "internalType": "bytes32",
          "name": "s",
          "type": "bytes32"
        }
      ],
      "name": "buyTicket",
      "outputs": [
        {
          "internalType": "uint256",
          "name": "",
          "type": "uint256"
        }
      ],
      "stateMutability": "nonpayable",
      "type": "function"
    },
    {
      "inputs": [
        {
          "internalType": "bytes32",
          "name": "_eventId",
          "type": "bytes32"
        },
        {
          "internalType": "string",
          "name": "_name",
          "type": "string"
        },
        {
          "internalType": "string",
          "name": "_description",
          "type": "string"
        },
        {
          "internalType": "bytes",
          "name": "eventStorage",
          "type": "bytes"
        }
      ],
      "name": "createEvent",
      "outputs": [],
      "stateMutability": "nonpayable",
      "type": "function"
    },
    {
      "inputs": [
        {
          "internalType": "bytes32",
          "name": "_eventId",
          "type": "bytes32"
        },
        {
          "internalType": "bytes32",
          "name": "_ticketTypeId",
          "type": "bytes32"
        },
        {
          "internalType": "string",
          "name": "_tokenURI",
          "type": "string"
        },
        {
          "internalType": "string",
          "name": "_souvenirTokenURI",
          "type": "string"
        },
        {
          "internalType": "uint256",
          "name": "_price",
          "type": "uint256"
        },
        {
          "internalType": "uint256",
          "name": "_maxSupply",
          "type": "uint256"
        }
      ],
      "name": "createTicketType",
      "outputs": [],
      "stateMutability": "nonpayable",
      "type": "function"
    },
    {
      "inputs": [
        {
          "internalType": "bytes32",
          "name": "_eventId",
          "type": "bytes32"
        }
      ],
      "name": "deleteEvent",
      "outputs": [],
      "stateMutability": "nonpayable",
      "type": "function"
    },
    {
      "inputs": [],
      "name": "deposit",
      "outputs": [],
      "stateMutability": "payable",
      "type": "function"
    },
    {
      "inputs": [
        {
          "internalType": "uint256",
          "name": "tokenId",
          "type": "uint256"
        }
      ],
      "name": "getApproved",
      "outputs": [
        {
          "internalType": "address",
          "name": "",
          "type": "address"
        }
      ],
      "stateMutability": "view",
      "type": "function"
    },
    {
      "inputs": [
        {
          "internalType": "bytes32",
          "name": "_eventId",
          "type": "bytes32"
        }
      ],
      "name": "getEvent",
      "outputs": [
        {
          "internalType": "bytes32",
          "name": "",
          "type": "bytes32"
        }
      ],
      "stateMutability": "view",
      "type": "function"
    },
    {
      "inputs": [
        {
          "internalType": "uint256",
          "name": "_tokenId",
          "type": "uint256"
        }
      ],
      "name": "getMetadata",
      "outputs": [
        {
          "internalType": "string",
          "name": "",
          "type": "string"
        }
      ],
      "stateMutability": "view",
      "type": "function"
    },
    {
      "inputs": [
        {
          "internalType": "bytes32",
          "name": "role",
          "type": "bytes32"
        }
      ],
      "name": "getRoleAdmin",
      "outputs": [
        {
          "internalType": "bytes32",
          "name": "",
          "type": "bytes32"
        }
      ],
      "stateMutability": "view",
      "type": "function"
    },
    {
      "inputs": [
        {
          "internalType": "bytes32",
          "name": "_eventId",
          "type": "bytes32"
        },
        {
          "internalType": "bytes32",
          "name": "_ticketTypeId",
          "type": "bytes32"
        },
        {
          "internalType": "uint256",
          "name": "_ticketId",
          "type": "uint256"
        },
        {
          "internalType": "address",
          "name": "_recepient",
          "type": "address"
        }
      ],
      "name": "getSouvenir",
      "outputs": [
        {
          "internalType": "uint256",
          "name": "",
          "type": "uint256"
        }
      ],
      "stateMutability": "nonpayable",
      "type": "function"
    },
    {
      "inputs": [
        {
          "internalType": "uint256",
          "name": "_ticketId",
          "type": "uint256"
        }
      ],
      "name": "getTicket",
      "outputs": [
        {
          "components": [
            {
              "internalType": "uint256",
              "name": "id",
              "type": "uint256"
            },
            {
              "internalType": "bytes32",
              "name": "eventId",
              "type": "bytes32"
            },
            {
              "internalType": "bytes32",
              "name": "ticketTypeId",
              "type": "bytes32"
            },
            {
              "internalType": "uint256",
              "name": "souvenirId",
              "type": "uint256"
            },
            {
              "internalType": "address",
              "name": "owner",
              "type": "address"
            },
            {
              "internalType": "bool",
              "name": "souvenirMinted",
              "type": "bool"
            }
          ],
          "internalType": "struct Structs.Ticket",
          "name": "",
          "type": "tuple"
        }
      ],
      "stateMutability": "view",
      "type": "function"
    },
    {
      "inputs": [
        {
          "internalType": "bytes32",
          "name": "_eventId",
          "type": "bytes32"
        },
        {
          "internalType": "bytes32",
          "name": "_ticketTypeId",
          "type": "bytes32"
        }
      ],
      "name": "getTicketType",
      "outputs": [
        {
          "components": [
            {
              "internalType": "bytes32",
              "name": "id",
              "type": "bytes32"
            },
            {
              "internalType": "uint256",
              "name": "price",
              "type": "uint256"
            },
            {
              "internalType": "uint256",
              "name": "maxSupply",
              "type": "uint256"
            },
            {
              "internalType": "uint256",
              "name": "currentSupply",
              "type": "uint256"
            },
            {
              "internalType": "string",
              "name": "tokenURI",
              "type": "string"
            },
            {
              "internalType": "string",
              "name": "souvenirTokenURI",
              "type": "string"
            }
          ],
          "internalType": "struct Structs.TicketType",
          "name": "",
          "type": "tuple"
        }
      ],
      "stateMutability": "view",
      "type": "function"
    },
    {
      "inputs": [
        {
          "internalType": "bytes32",
          "name": "role",
          "type": "bytes32"
        },
        {
          "internalType": "address",
          "name": "account",
          "type": "address"
        }
      ],
      "name": "grantRole",
      "outputs": [],
      "stateMutability": "nonpayable",
      "type": "function"
    },
    {
      "inputs": [
        {
          "internalType": "bytes32",
          "name": "role",
          "type": "bytes32"
        },
        {
          "internalType": "address",
          "name": "account",
          "type": "address"
        }
      ],
      "name": "hasRole",
      "outputs": [
        {
          "internalType": "bool",
          "name": "",
          "type": "bool"
        }
      ],
      "stateMutability": "view",
      "type": "function"
    },
    {
      "inputs": [
        {
          "internalType": "address",
          "name": "owner",
          "type": "address"
        },
        {
          "internalType": "address",
          "name": "operator",
          "type": "address"
        }
      ],
      "name": "isApprovedForAll",
      "outputs": [
        {
          "internalType": "bool",
          "name": "",
          "type": "bool"
        }
      ],
      "stateMutability": "view",
      "type": "function"
    },
    {
      "inputs": [],
      "name": "name",
      "outputs": [
        {
          "internalType": "string",
          "name": "",
          "type": "string"
        }
      ],
      "stateMutability": "view",
      "type": "function"
    },
    {
      "inputs": [
        {
          "internalType": "uint256",
          "name": "tokenId",
          "type": "uint256"
        }
      ],
      "name": "ownerOf",
      "outputs": [
        {
          "internalType": "address",
          "name": "",
          "type": "address"
        }
      ],
      "stateMutability": "view",
      "type": "function"
    },
    {
      "inputs": [
        {
          "internalType": "bytes32",
          "name": "_eventId",
          "type": "bytes32"
        },
        {
          "internalType": "bytes32",
          "name": "_ticketTypeId",
          "type": "bytes32"
        }
      ],
      "name": "removeTicketType",
      "outputs": [],
      "stateMutability": "nonpayable",
      "type": "function"
    },
    {
      "inputs": [
        {
          "internalType": "bytes32",
          "name": "role",
          "type": "bytes32"
        },
        {
          "internalType": "address",
          "name": "account",
          "type": "address"
        }
      ],
      "name": "renounceRole",
      "outputs": [],
      "stateMutability": "nonpayable",
      "type": "function"
    },
    {
      "inputs": [
        {
          "internalType": "bytes32",
          "name": "role",
          "type": "bytes32"
        },
        {
          "internalType": "address",
          "name": "account",
          "type": "address"
        }
      ],
      "name": "revokeRole",
      "outputs": [],
      "stateMutability": "nonpayable",
      "type": "function"
    },
    {
      "inputs": [
        {
          "internalType": "address",
          "name": "from",
          "type": "address"
        },
        {
          "internalType": "address",
          "name": "to",
          "type": "address"
        },
        {
          "internalType": "uint256",
          "name": "tokenId",
          "type": "uint256"
        }
      ],
      "name": "safeTransferFrom",
      "outputs": [],
      "stateMutability": "nonpayable",
      "type": "function"
    },
    {
      "inputs": [
        {
          "internalType": "address",
          "name": "from",
          "type": "address"
        },
        {
          "internalType": "address",
          "name": "to",
          "type": "address"
        },
        {
          "internalType": "uint256",
          "name": "tokenId",
          "type": "uint256"
        },
        {
          "internalType": "bytes",
          "name": "data",
          "type": "bytes"
        }
      ],
      "name": "safeTransferFrom",
      "outputs": [],
      "stateMutability": "nonpayable",
      "type": "function"
    },
    {
      "inputs": [
        {
          "internalType": "address",
          "name": "operator",
          "type": "address"
        },
        {
          "internalType": "bool",
          "name": "approved",
          "type": "bool"
        }
      ],
      "name": "setApprovalForAll",
      "outputs": [],
      "stateMutability": "nonpayable",
      "type": "function"
    },
    {
      "inputs": [
        {
          "internalType": "bytes4",
          "name": "interfaceId",
          "type": "bytes4"
        }
      ],
      "name": "supportsInterface",
      "outputs": [
        {
          "internalType": "bool",
          "name": "",
          "type": "bool"
        }
      ],
      "stateMutability": "view",
      "type": "function"
    },
    {
      "inputs": [],
      "name": "symbol",
      "outputs": [
        {
          "internalType": "string",
          "name": "",
          "type": "string"
        }
      ],
      "stateMutability": "view",
      "type": "function"
    },
    {
      "inputs": [
        {
          "internalType": "uint256",
          "name": "tokenId",
          "type": "uint256"
        }
      ],
      "name": "tokenURI",
      "outputs": [
        {
          "internalType": "string",
          "name": "",
          "type": "string"
        }
      ],
      "stateMutability": "view",
      "type": "function"
    },
    {
      "inputs": [
        {
          "internalType": "address",
          "name": "from",
          "type": "address"
        },
        {
          "internalType": "address",
          "name": "to",
          "type": "address"
        },
        {
          "internalType": "uint256",
          "name": "tokenId",
          "type": "uint256"
        }
      ],
      "name": "transferFrom",
      "outputs": [],
      "stateMutability": "nonpayable",
      "type": "function"
    },
    {
      "inputs": [
        {
          "internalType": "address",
          "name": "_recepient",
          "type": "address"
        },
        {
          "internalType": "uint256",
          "name": "_tokenId",
          "type": "uint256"
        }
      ],
      "name": "transferTicket",
      "outputs": [],
      "stateMutability": "nonpayable",
      "type": "function"
    },
    {
      "inputs": [],
      "name": "withdraw",
      "outputs": [],
      "stateMutability": "nonpayable",
      "type": "function"
    }
  ],
  "bytecode": "0x60806040526000600f5560006010553480156200001b57600080fd5b5060405162003d1438038062003d148339810160408190526200003e91620002b4565b604080518082018252600a815269151a58dad95d0813919560b21b60208083019182528351808501909452600384526213919560ea1b9084015281519192916200008b91600191620001f1565b508051620000a1906002906020840190620001f1565b5050600980546001600160a01b038085166001600160a01b031992831617909255600a80549286169290911691909117905550620001007fb19546dff01e856fb3f010c267a7b1c60363cf8a4664e21cc89c26224620214e3362000141565b6200012c7f53862b9283a999da1172fde49c49acd6f83e50293944751a01acf430817ebf353362000141565b6200013960003362000141565b505062000329565b6200014d828262000151565b5050565b6000828152602081815260408083206001600160a01b038516845290915290205460ff166200014d576000828152602081815260408083206001600160a01b03851684529091529020805460ff19166001179055620001ad3390565b6001600160a01b0316816001600160a01b0316837f2f8788117e7eff1d82e926ec794901d17c78024a50270940304540a733656f0d60405160405180910390a45050565b828054620001ff90620002ec565b90600052602060002090601f0160209004810192826200022357600085556200026e565b82601f106200023e57805160ff19168380011785556200026e565b828001600101855582156200026e579182015b828111156200026e57825182559160200191906001019062000251565b506200027c92915062000280565b5090565b5b808211156200027c576000815560010162000281565b80516001600160a01b0381168114620002af57600080fd5b919050565b60008060408385031215620002c857600080fd5b620002d38362000297565b9150620002e36020840162000297565b90509250929050565b600181811c908216806200030157607f821691505b602082108114156200032357634e487b7160e01b600052602260045260246000fd5b50919050565b6139db80620003396000396000f3fe6080604052600436106102045760003560e01c806391d1485411610118578063c87b56dd116100a0578063d547741f1161006f578063d547741f14610652578063dacdd37714610672578063e58378bb14610694578063e985e9c5146106c8578063fc23fe5e1461071157600080fd5b8063c87b56dd146105c9578063d0e30db0146105e9578063d3a81930146105f1578063d53913931461061e57600080fd5b8063a22cb465116100e7578063a22cb46514610529578063a574cea414610549578063addece2a14610569578063affe384d14610589578063b88d4fde146105a957600080fd5b806391d14854146104bf578063930d8fd9146104df57806395d89b41146104ff578063a217fddf1461051457600080fd5b80632f2ff15d1161019b57806351958a561161016a57806351958a56146103cd5780636352211e146103ed57806370a082311461040d5780637dc379fa1461042d5780638c172fa21461049f57600080fd5b80632f2ff15d1461035857806336568abe146103785780633ccfd60b1461039857806342842e0e146103ad57600080fd5b8063095ea7b3116101d7578063095ea7b3146102c65780631cc844bc146102e857806323b872dd14610308578063248a9ca31461032857600080fd5b806301ffc9a71461020957806306fdde031461023e57806307c8825914610260578063081812fc1461028e575b600080fd5b34801561021557600080fd5b50610229610224366004612f58565b610731565b60405190151581526020015b60405180910390f35b34801561024a57600080fd5b50610253610742565b6040516102359190612fcd565b34801561026c57600080fd5b5061028061027b366004612ffc565b6107d4565b604051908152602001610235565b34801561029a57600080fd5b506102ae6102a9366004613068565b610cf2565b6040516001600160a01b039091168152602001610235565b3480156102d257600080fd5b506102e66102e1366004613081565b610d19565b005b3480156102f457600080fd5b506102e6610303366004613068565b610e2f565b34801561031457600080fd5b506102e66103233660046130ab565b610fb5565b34801561033457600080fd5b50610280610343366004613068565b60009081526020819052604090206001015490565b34801561036457600080fd5b506102e66103733660046130e7565b610fe6565b34801561038457600080fd5b506102e66103933660046130e7565b61100b565b3480156103a457600080fd5b506102e6611089565b3480156103b957600080fd5b506102e66103c83660046130ab565b611268565b3480156103d957600080fd5b506102e66103e8366004613081565b611283565b3480156103f957600080fd5b506102ae610408366004613068565b611365565b34801561041957600080fd5b50610280610428366004613113565b6113c5565b34801561043957600080fd5b5061044d610448366004613068565b61144b565b6040516102359190815181526020808301519082015260408083015190820152606080830151908201526080808301516001600160a01b03169082015260a09182015115159181019190915260c00190565b3480156104ab57600080fd5b506102806104ba366004613068565b61154a565b3480156104cb57600080fd5b506102296104da3660046130e7565b61158b565b3480156104eb57600080fd5b506102806104fa36600461312e565b6115b4565b34801561050b57600080fd5b50610253611813565b34801561052057600080fd5b50610280600081565b34801561053557600080fd5b506102e661054436600461317b565b611822565b34801561055557600080fd5b50610253610564366004613068565b61182d565b34801561057557600080fd5b506102e66105843660046131b2565b611838565b34801561059557600080fd5b506102e66105a4366004613277565b6119e5565b3480156105b557600080fd5b506102e66105c4366004613309565b611b0d565b3480156105d557600080fd5b506102536105e4366004613068565b611b45565b6102e6611c56565b3480156105fd57600080fd5b5061061161060c3660046131b2565b611d07565b60405161023591906133c4565b34801561062a57600080fd5b506102807f9f2df0fed2c77648de5860a4cc508cd0818c85b8b8a1ab4ceeef8d981c8956a681565b34801561065e57600080fd5b506102e661066d3660046130e7565b611f36565b34801561067e57600080fd5b5061028060008051602061398683398151915281565b3480156106a057600080fd5b506102807fb19546dff01e856fb3f010c267a7b1c60363cf8a4664e21cc89c26224620214e81565b3480156106d457600080fd5b506102296106e33660046133d7565b6001600160a01b03918216600090815260066020908152604080832093909416825291909152205460ff1690565b34801561071d57600080fd5b506102e661072c366004613401565b611f5b565b600061073c826121b7565b92915050565b6060600180546107519061348a565b80601f016020809104026020016040519081016040528092919081815260200182805461077d9061348a565b80156107ca5780601f1061079f576101008083540402835291602001916107ca565b820191906000526020600020905b8154815290600101906020018083116107ad57829003601f168201915b5050505050905090565b6000878152600c6020526040812054889061080a5760405162461bcd60e51b8152600401610801906134bf565b60405180910390fd5b6000898152600c602090815260408083208b8452600301909152902054899089906108475760405162461bcd60e51b8152600401610801906134ed565b60008b8152600c602090815260408083208d84526003908101909252909120908101546108b65760405162461bcd60e51b815260206004820152601f60248201527f5469636b6574732066726f6d2074686973207479706520736f6c64206f7574006044820152606401610801565b600a54600182015460405163d505accf60e01b81523360048201523060248201526044810191909152606481018b905260ff8a16608482015260a4810189905260c481018890526001600160a01b039091169063d505accf9060e401600060405180830381600087803b15801561092c57600080fd5b505af1158015610940573d6000803e3d6000fd5b505050506001810154600a54604051636eb1769f60e11b81523360048201523060248201526001600160a01b039091169063dd62ed3e9060440160206040518083038186803b15801561099257600080fd5b505afa1580156109a6573d6000803e3d6000fd5b505050506040513d601f19601f820116820180604052508101906109ca9190613524565b1015610a185760405162461bcd60e51b815260206004820152601760248201527f546f6b656e20616c6c6f77616e636520746f6f206c6f770000000000000000006044820152606401610801565b600a5460018201546040516323b872dd60e01b815233600482015230602482015260448101919091526000916001600160a01b0316906323b872dd90606401602060405180830381600087803b158015610a7157600080fd5b505af1158015610a85573d6000803e3d6000fd5b505050506040513d601f19601f82011682018060405250810190610aa9919061353d565b905080610aea5760405162461bcd60e51b815260206004820152600f60248201526e1d1c985b9cd9995c8819985a5b1959608a1b6044820152606401610801565b600382018054906000610afc83613570565b91905055506000610b998c846004018054610b169061348a565b80601f0160208091040260200160405190810160405280929190818152602001828054610b429061348a565b8015610b8f5780601f10610b6457610100808354040283529160200191610b8f565b820191906000526020600020905b815481529060010190602001808311610b7257829003601f168201915b50505050506121f7565b9050610bd36040805160c081018252600080825260208201819052918101829052606081018290526080810182905260a081019190915290565b818160000181815250508e8160200181815250508d8160400181815250508c81608001906001600160a01b031690816001600160a01b03168152505080600e60008481526020019081526020016000206000820151816000015560208201518160010155604082015181600201556060820151816003015560808201518160040160006101000a8154816001600160a01b0302191690836001600160a01b0316021790555060a08201518160040160146101000a81548160ff021916908315150217905550905050600d8290806001815401808255809150506001900390600052602060002001600090919091909150558360010154600f6000828254610cda9190613587565b90915550919f9e505050505050505050505050505050565b6000610cfd8261227c565b506000908152600560205260409020546001600160a01b031690565b6000610d2482611365565b9050806001600160a01b0316836001600160a01b03161415610d925760405162461bcd60e51b815260206004820152602160248201527f4552433732313a20617070726f76616c20746f2063757272656e74206f776e656044820152603960f91b6064820152608401610801565b336001600160a01b0382161480610dae5750610dae81336106e3565b610e205760405162461bcd60e51b815260206004820152603e60248201527f4552433732313a20617070726f76652063616c6c6572206973206e6f7420746f60448201527f6b656e206f776e6572206e6f7220617070726f76656420666f7220616c6c00006064820152608401610801565b610e2a83836122de565b505050565b6000818152600c60205260409020548190610e5c5760405162461bcd60e51b8152600401610801906134bf565b610e746000805160206139868339815191523361158b565b610e905760405162461bcd60e51b81526004016108019061359f565b6000828152600c6020908152604080832033845260010190915290205460ff16610efc5760405162461bcd60e51b815260206004820152601f60248201527f4f6e6c79206f7267616e697a65722063616e2072656d6f7665206576656e74006044820152606401610801565b6000828152600c602052604090206002015415610f5b5760405162461bcd60e51b815260206004820152601c60248201527f4576656e74207374696c6c20686173207469636b6574207479706573000000006044820152606401610801565b6000828152600c6020526040812081815590610f7a6002830182612e51565b505060405182815233907f6e3bc81a96d2f5065ad94a6a93273d83748be7ace6c49f293c543738f62a5b6a9060200160405180910390a25050565b610fbf338261234c565b610fdb5760405162461bcd60e51b8152600401610801906135eb565b610e2a8383836123ca565b60008281526020819052604090206001015461100181612566565b610e2a8383612570565b6001600160a01b038116331461107b5760405162461bcd60e51b815260206004820152602f60248201527f416363657373436f6e74726f6c3a2063616e206f6e6c792072656e6f756e636560448201526e103937b632b9903337b91039b2b63360891b6064820152608401610801565b61108582826125f4565b5050565b6110b37fb19546dff01e856fb3f010c267a7b1c60363cf8a4664e21cc89c26224620214e3361158b565b6110f85760405162461bcd60e51b815260206004820152601660248201527521b0b63632b91034b9903737ba1030b71037bbb732b960511b6044820152606401610801565b6000600f541161114a5760405162461bcd60e51b815260206004820152601760248201527f4e6f206665657320746f2062652077697468647261776e0000000000000000006044820152606401610801565b600f54604051600091339181156108fc02919084818181858888f193505050509050806111a75760405162461bcd60e51b815260206004820152600b60248201526a1cd95b990819985a5b195960aa1b6044820152606401610801565b600a54600f54604051632770a7eb60e21b815230600482015260248101919091526001600160a01b0390911690639dc29fac90604401600060405180830381600087803b1580156111f757600080fd5b505af115801561120b573d6000803e3d6000fd5b5050600f546040519081523392507f884edad9ce6fa2440d8a54cc123490eb96d2768479d49ff9c7366125a9424364915060200160405180910390a2600f546010600082825461125b9190613639565b90915550506000600f5550565b610e2a83838360405180602001604052806000815250611b0d565b61128d338261234c565b6112f35760405162461bcd60e51b815260206004820152603160248201527f4552433732313a207472616e736665722063616c6c6572206973206e6f74206f6044820152701ddb995c881b9bdc88185c1c1c9bdd9959607a1b6064820152608401610801565b6112fe3383836123ca565b6000818152600e602090815260409182902060040180546001600160a01b0319166001600160a01b038616908117909155915183815233917f235a69dc2480d40b13f4bee2b08a32b678f03ca558ff46eba22ce16ace78b6ad910160405180910390a35050565b6000818152600360205260408120546001600160a01b03168061073c5760405162461bcd60e51b8152602060048201526018602482015277115490cdcc8c4e881a5b9d985b1a59081d1bdad95b88125160421b6044820152606401610801565b60006001600160a01b03821661142f5760405162461bcd60e51b815260206004820152602960248201527f4552433732313a2061646472657373207a65726f206973206e6f7420612076616044820152683634b21037bbb732b960b91b6064820152608401610801565b506001600160a01b031660009081526004602052604090205490565b6040805160c081018252600080825260208201819052918101829052606081018290526080810182905260a081019190915260008281526003602052604090205482906001600160a01b03166114db5760405162461bcd60e51b8152602060048201526015602482015274151a58dad95d08191bd95cc81b9bdd08195e1a5cdd605a1b6044820152606401610801565b6000838152600e6020908152604091829020825160c08101845281548152600182015492810192909252600281015492820192909252600382015460608201526004909101546001600160a01b0381166080830152600160a01b900460ff16151560a082015291505b50919050565b6000818152600c602052604081205482906115775760405162461bcd60e51b8152600401610801906134bf565b50506000908152600c602052604090205490565b6000918252602082815260408084206001600160a01b0393909316845291905290205460ff1690565b6000848152600c602052604081205485906115e15760405162461bcd60e51b8152600401610801906134bf565b6000868152600c602090815260408083208884526003019091529020548690869061161e5760405162461bcd60e51b8152600401610801906134ed565b60008681526003602052604090205486906001600160a01b031661167c5760405162461bcd60e51b8152602060048201526015602482015274151a58dad95d08191bd95cc81b9bdd08195e1a5cdd605a1b6044820152606401610801565b6000878152600e6020908152604091829020825160c08101845281548152600182015492810192909252600281015492820192909252600382015460608201526004909101546001600160a01b0381166080830152600160a01b900460ff1615801560a083015261172f5760405162461bcd60e51b815260206004820152601760248201527f536f7576656e697220616c7265616479206d696e7465640000000000000000006044820152606401610801565b60095460008b8152600c602090815260408083208d84526003019091528082209051630d385de160e01b815291926001600160a01b031691630d385de19161177f918c9160050190600401613650565b602060405180830381600087803b15801561179957600080fd5b505af11580156117ad573d6000803e3d6000fd5b505050506040513d601f19601f820116820180604052508101906117d19190613524565b600160a084015260608301819052604080518082019091526002815261257360f01b60208201529091506118059082612659565b9a9950505050505050505050565b6060600280546107519061348a565b61108533838361269e565b606061073c82611b45565b6000828152600c602052604090205482906118655760405162461bcd60e51b8152600401610801906134bf565b6000838152600c60209081526040808320858452600301909152902054839083906118a25760405162461bcd60e51b8152600401610801906134ed565b6118ba6000805160206139868339815191523361158b565b6118d65760405162461bcd60e51b81526004016108019061359f565b6000858152600c6020908152604080832033845260010190915290205460ff166119505760405162461bcd60e51b815260206004820152602560248201527f4f6e6c79206f7267616e697a65722063616e2072656d6f7665207469636b6574604482015264207479706560d81b6064820152608401610801565b6000858152600c60209081526040808320878452600390810190925282208281556001810183905560028101839055908101829055906119936004830182612e6f565b6119a1600583016000612e6f565b5050604080518681526020810186905233917fb410e6f99b84b07294f81fef7fc54f574ff6305a91ad7aa82c9e05deb5ca0091910160405180910390a25050505050565b6119fd6000805160206139868339815191523361158b565b611a195760405162461bcd60e51b81526004016108019061359f565b6000848152600c602052604090205415611a6c5760405162461bcd60e51b81526020600482015260146024820152734576656e7420616c72656164792065786973747360601b6044820152606401610801565b600b805460018181019092557f0175b7a638427703f0dbe7bb9bbf987a2551717b34e79f33b5b1008d1fa01db9018590556000858152600c602090815260408083208881553380855290850190925291829020805460ff1916909317909255517f0fecb2af2f85ae435e0306569748aa2f0226d624df259aaee1f8cc3859da62d890611aff908790879087908790613709565b60405180910390a250505050565b611b17338361234c565b611b335760405162461bcd60e51b8152600401610801906135eb565b611b3f8484848461276d565b50505050565b6060611b508261227c565b60008281526007602052604081208054611b699061348a565b80601f0160208091040260200160405190810160405280929190818152602001828054611b959061348a565b8015611be25780601f10611bb757610100808354040283529160200191611be2565b820191906000526020600020905b815481529060010190602001808311611bc557829003601f168201915b505050505090506000611c0060408051602081019091526000815290565b9050805160001415611c13575092915050565b815115611c45578082604051602001611c2d929190613753565b60405160208183030381529060405292505050919050565b611c4e846127a0565b949350505050565b600a546040516340c10f1960e01b81523360048201523460248201526001600160a01b03909116906340c10f1990604401600060405180830381600087803b158015611ca157600080fd5b505af1158015611cb5573d6000803e3d6000fd5b505050503460106000828254611ccb9190613587565b909155505060405134815233907fe1fffcc4923d04b559f4d29a8bfc6cda04eb5b0d3c460751c2402c5c5cc9109c9060200160405180910390a2565b611d436040518060c001604052806000801916815260200160008152602001600081526020016000815260200160608152602001606081525090565b6000838152600c60205260409020548390611d705760405162461bcd60e51b8152600401610801906134bf565b6000848152600c6020908152604080832086845260030190915290205484908490611dad5760405162461bcd60e51b8152600401610801906134ed565b600c600087815260200190815260200160002060030160008681526020019081526020016000206040518060c001604052908160008201548152602001600182015481526020016002820154815260200160038201548152602001600482018054611e179061348a565b80601f0160208091040260200160405190810160405280929190818152602001828054611e439061348a565b8015611e905780601f10611e6557610100808354040283529160200191611e90565b820191906000526020600020905b815481529060010190602001808311611e7357829003601f168201915b50505050508152602001600582018054611ea99061348a565b80601f0160208091040260200160405190810160405280929190818152602001828054611ed59061348a565b8015611f225780601f10611ef757610100808354040283529160200191611f22565b820191906000526020600020905b815481529060010190602001808311611f0557829003601f168201915b505050505081525050935050505092915050565b600082815260208190526040902060010154611f5181612566565b610e2a83836125f4565b6000868152600c60205260409020548690611f885760405162461bcd60e51b8152600401610801906134bf565b611fa06000805160206139868339815191523361158b565b611fbc5760405162461bcd60e51b81526004016108019061359f565b6000878152600c6020908152604080832033845260010190915290205460ff166120455760405162461bcd60e51b815260206004820152603460248201527f4f6e6c79206f7267616e697a657273206f662074686973206576656e742063616044820152736e20637265617465207469636b6574207479706560601b6064820152608401610801565b6000878152600c60209081526040808320898452600301909152902054156120af5760405162461bcd60e51b815260206004820152601a60248201527f5469636b6574207479706520616c7265616479206578697374730000000000006044820152606401610801565b6040805160c081018252878152602080820186815282840186815260608401878152608085018b815260a086018b905260008e8152600c86528781208e82526003908101875297902086518155935160018501559151600284015551948201949094559251805192938493909261212d926004850192910190612ea9565b5060a08201518051612149916005840191602090910190612ea9565b5050506000888152600c60209081526040808320600201805460018101825590845291909220018890555133907fb12e5250774e62b03975512db2cd5e95db1cd459b3f80d4d17856a08598dadd4906121a5908b908590613782565b60405180910390a25050505050505050565b60006001600160e01b031982166380ac58cd60e01b14806121e857506001600160e01b03198216635b5e139f60e01b145b8061073c575061073c82612814565b6000612207600880546001019055565b600061221260085490565b905061221e8482612849565b612228818461298b565b836001600160a01b0316336001600160a01b03167f3bfd449b4868a01647da19bf179397e8853acef45f717b1a679952bc67693cdd838660405161226d92919061379b565b60405180910390a39392505050565b6000818152600360205260409020546001600160a01b03166122db5760405162461bcd60e51b8152602060048201526018602482015277115490cdcc8c4e881a5b9d985b1a59081d1bdad95b88125160421b6044820152606401610801565b50565b600081815260056020526040902080546001600160a01b0319166001600160a01b038416908117909155819061231382611365565b6001600160a01b03167f8c5be1e5ebec7d5bd14f71427d1e84f3dd0314c0f7b2291e5b200ac8c7c3b92560405160405180910390a45050565b60008061235883611365565b9050806001600160a01b0316846001600160a01b0316148061239f57506001600160a01b0380821660009081526006602090815260408083209388168352929052205460ff165b80611c4e5750836001600160a01b03166123b884610cf2565b6001600160a01b031614949350505050565b826001600160a01b03166123dd82611365565b6001600160a01b0316146124415760405162461bcd60e51b815260206004820152602560248201527f4552433732313a207472616e736665722066726f6d20696e636f72726563742060448201526437bbb732b960d91b6064820152608401610801565b6001600160a01b0382166124a35760405162461bcd60e51b8152602060048201526024808201527f4552433732313a207472616e7366657220746f20746865207a65726f206164646044820152637265737360e01b6064820152608401610801565b6124ae6000826122de565b6001600160a01b03831660009081526004602052604081208054600192906124d7908490613639565b90915550506001600160a01b0382166000908152600460205260408120805460019290612505908490613587565b909155505060008181526003602052604080822080546001600160a01b0319166001600160a01b0386811691821790925591518493918716917fddf252ad1be2c89b69c2b068fc378daa952ba7f163c4a11628f55a4df523b3ef91a4505050565b6122db8133612a25565b61257a828261158b565b611085576000828152602081815260408083206001600160a01b03851684529091529020805460ff191660011790556125b03390565b6001600160a01b0316816001600160a01b0316837f2f8788117e7eff1d82e926ec794901d17c78024a50270940304540a733656f0d60405160405180910390a45050565b6125fe828261158b565b15611085576000828152602081815260408083206001600160a01b0385168085529252808320805460ff1916905551339285917ff6391f5c32d9c69d2a47ea670b442974b53935d1edc7fd64eb21e047a839171b9190a45050565b611085828260405160240161266f9291906137b4565b60408051601f198184030181529190526020810180516001600160e01b0316632d839cb360e21b179052612a89565b816001600160a01b0316836001600160a01b031614156127005760405162461bcd60e51b815260206004820152601960248201527f4552433732313a20617070726f766520746f2063616c6c6572000000000000006044820152606401610801565b6001600160a01b03838116600081815260066020908152604080832094871680845294825291829020805460ff191686151590811790915591519182527f17307eab39ab6107e8899845ad3d59bd9653f200f220920489ca2b5937696c31910160405180910390a3505050565b6127788484846123ca565b61278484848484612aaa565b611b3f5760405162461bcd60e51b8152600401610801906137d6565b60606127ab8261227c565b60006127c260408051602081019091526000815290565b905060008151116127e2576040518060200160405280600081525061280d565b806127ec84612bb7565b6040516020016127fd929190613753565b6040516020818303038152906040525b9392505050565b60006001600160e01b03198216637965db0b60e01b148061073c57506301ffc9a760e01b6001600160e01b031983161461073c565b6001600160a01b03821661289f5760405162461bcd60e51b815260206004820181905260248201527f4552433732313a206d696e7420746f20746865207a65726f20616464726573736044820152606401610801565b6000818152600360205260409020546001600160a01b0316156129045760405162461bcd60e51b815260206004820152601c60248201527f4552433732313a20746f6b656e20616c7265616479206d696e746564000000006044820152606401610801565b6001600160a01b038216600090815260046020526040812080546001929061292d908490613587565b909155505060008181526003602052604080822080546001600160a01b0319166001600160a01b03861690811790915590518392907fddf252ad1be2c89b69c2b068fc378daa952ba7f163c4a11628f55a4df523b3ef908290a45050565b6000828152600360205260409020546001600160a01b0316612a065760405162461bcd60e51b815260206004820152602e60248201527f45524337323155524953746f726167653a2055524920736574206f66206e6f6e60448201526d32bc34b9ba32b73a103a37b5b2b760911b6064820152608401610801565b60008281526007602090815260409091208251610e2a92840190612ea9565b612a2f828261158b565b61108557612a47816001600160a01b03166014612cb5565b612a52836020612cb5565b604051602001612a63929190613828565b60408051601f198184030181529082905262461bcd60e51b825261080191600401612fcd565b80516a636f6e736f6c652e6c6f67602083016000808483855afa5050505050565b60006001600160a01b0384163b15612bac57604051630a85bd0160e11b81526001600160a01b0385169063150b7a0290612aee90339089908890889060040161389d565b602060405180830381600087803b158015612b0857600080fd5b505af1925050508015612b38575060408051601f3d908101601f19168201909252612b35918101906138da565b60015b612b92573d808015612b66576040519150601f19603f3d011682016040523d82523d6000602084013e612b6b565b606091505b508051612b8a5760405162461bcd60e51b8152600401610801906137d6565b805181602001fd5b6001600160e01b031916630a85bd0160e11b149050611c4e565b506001949350505050565b606081612bdb5750506040805180820190915260018152600360fc1b602082015290565b8160005b8115612c055780612bef816138f7565b9150612bfe9050600a83613928565b9150612bdf565b60008167ffffffffffffffff811115612c2057612c206131d4565b6040519080825280601f01601f191660200182016040528015612c4a576020820181803683370190505b5090505b8415611c4e57612c5f600183613639565b9150612c6c600a8661393c565b612c77906030613587565b60f81b818381518110612c8c57612c8c613950565b60200101906001600160f81b031916908160001a905350612cae600a86613928565b9450612c4e565b60606000612cc4836002613966565b612ccf906002613587565b67ffffffffffffffff811115612ce757612ce76131d4565b6040519080825280601f01601f191660200182016040528015612d11576020820181803683370190505b509050600360fc1b81600081518110612d2c57612d2c613950565b60200101906001600160f81b031916908160001a905350600f60fb1b81600181518110612d5b57612d5b613950565b60200101906001600160f81b031916908160001a9053506000612d7f846002613966565b612d8a906001613587565b90505b6001811115612e02576f181899199a1a9b1b9c1cb0b131b232b360811b85600f1660108110612dbe57612dbe613950565b1a60f81b828281518110612dd457612dd4613950565b60200101906001600160f81b031916908160001a90535060049490941c93612dfb81613570565b9050612d8d565b50831561280d5760405162461bcd60e51b815260206004820181905260248201527f537472696e67733a20686578206c656e67746820696e73756666696369656e746044820152606401610801565b50805460008255906000526020600020908101906122db9190612f2d565b508054612e7b9061348a565b6000825580601f10612e8b575050565b601f0160209004906000526020600020908101906122db9190612f2d565b828054612eb59061348a565b90600052602060002090601f016020900481019282612ed75760008555612f1d565b82601f10612ef057805160ff1916838001178555612f1d565b82800160010185558215612f1d579182015b82811115612f1d578251825591602001919060010190612f02565b50612f29929150612f2d565b5090565b5b80821115612f295760008155600101612f2e565b6001600160e01b0319811681146122db57600080fd5b600060208284031215612f6a57600080fd5b813561280d81612f42565b60005b83811015612f90578181015183820152602001612f78565b83811115611b3f5750506000910152565b60008151808452612fb9816020860160208601612f75565b601f01601f19169290920160200192915050565b60208152600061280d6020830184612fa1565b80356001600160a01b0381168114612ff757600080fd5b919050565b600080600080600080600060e0888a03121561301757600080fd5b873596506020880135955061302e60408901612fe0565b945060608801359350608088013560ff8116811461304b57600080fd5b9699959850939692959460a0840135945060c09093013592915050565b60006020828403121561307a57600080fd5b5035919050565b6000806040838503121561309457600080fd5b61309d83612fe0565b946020939093013593505050565b6000806000606084860312156130c057600080fd5b6130c984612fe0565b92506130d760208501612fe0565b9150604084013590509250925092565b600080604083850312156130fa57600080fd5b8235915061310a60208401612fe0565b90509250929050565b60006020828403121561312557600080fd5b61280d82612fe0565b6000806000806080858703121561314457600080fd5b84359350602085013592506040850135915061316260608601612fe0565b905092959194509250565b80151581146122db57600080fd5b6000806040838503121561318e57600080fd5b61319783612fe0565b915060208301356131a78161316d565b809150509250929050565b600080604083850312156131c557600080fd5b50508035926020909101359150565b634e487b7160e01b600052604160045260246000fd5b600082601f8301126131fb57600080fd5b813567ffffffffffffffff80821115613216576132166131d4565b604051601f8301601f19908116603f0116810190828211818310171561323e5761323e6131d4565b8160405283815286602085880101111561325757600080fd5b836020870160208301376000602085830101528094505050505092915050565b6000806000806080858703121561328d57600080fd5b84359350602085013567ffffffffffffffff808211156132ac57600080fd5b6132b8888389016131ea565b945060408701359150808211156132ce57600080fd5b6132da888389016131ea565b935060608701359150808211156132f057600080fd5b506132fd878288016131ea565b91505092959194509250565b6000806000806080858703121561331f57600080fd5b61332885612fe0565b935061333660208601612fe0565b925060408501359150606085013567ffffffffffffffff81111561335957600080fd5b6132fd878288016131ea565b805182526020810151602083015260408101516040830152606081015160608301526000608082015160c060808501526133a260c0850182612fa1565b905060a083015184820360a08601526133bb8282612fa1565b95945050505050565b60208152600061280d6020830184613365565b600080604083850312156133ea57600080fd5b6133f383612fe0565b915061310a60208401612fe0565b60008060008060008060c0878903121561341a57600080fd5b8635955060208701359450604087013567ffffffffffffffff8082111561344057600080fd5b61344c8a838b016131ea565b9550606089013591508082111561346257600080fd5b5061346f89828a016131ea565b9350506080870135915060a087013590509295509295509295565b600181811c9082168061349e57607f821691505b6020821081141561154457634e487b7160e01b600052602260045260246000fd5b602080825260149082015273115d995b9d08191bd95cc81b9bdd08195e1a5cdd60621b604082015260600190565b6020808252601a908201527f5469636b6574207479706520646f6573206e6f74206578697374000000000000604082015260600190565b60006020828403121561353657600080fd5b5051919050565b60006020828403121561354f57600080fd5b815161280d8161316d565b634e487b7160e01b600052601160045260246000fd5b60008161357f5761357f61355a565b506000190190565b6000821982111561359a5761359a61355a565b500190565b6020808252602c908201527f4f6e6c79206576656e74206f7267616e697a6572732063616e2063616c6c207460408201526b3434b990333ab731ba34b7b760a11b606082015260800190565b6020808252602e908201527f4552433732313a2063616c6c6572206973206e6f7420746f6b656e206f776e6560408201526d1c881b9bdc88185c1c1c9bdd995960921b606082015260800190565b60008282101561364b5761364b61355a565b500390565b60018060a01b0383168152600060206040818401526000845481600182811c91508083168061368057607f831692505b85831081141561369e57634e487b7160e01b85526022600452602485fd5b60408801839052606088018180156136bd57600181146136ce576136f9565b60ff198616825287820196506136f9565b60008b81526020902060005b868110156136f3578154848201529085019089016136da565b83019750505b50949a9950505050505050505050565b8481526080602082015260006137226080830186612fa1565b82810360408401526137348186612fa1565b905082810360608401526137488185612fa1565b979650505050505050565b60008351613765818460208801612f75565b835190830190613779818360208801612f75565b01949350505050565b828152604060208201526000611c4e6040830184613365565b828152604060208201526000611c4e6040830184612fa1565b6040815260006137c76040830185612fa1565b90508260208301529392505050565b60208082526032908201527f4552433732313a207472616e7366657220746f206e6f6e20455243373231526560408201527131b2b4bb32b91034b6b83632b6b2b73a32b960711b606082015260800190565b7f416363657373436f6e74726f6c3a206163636f756e7420000000000000000000815260008351613860816017850160208801612f75565b7001034b99036b4b9b9b4b733903937b6329607d1b6017918401918201528351613891816028840160208801612f75565b01602801949350505050565b6001600160a01b03858116825284166020820152604081018390526080606082018190526000906138d090830184612fa1565b9695505050505050565b6000602082840312156138ec57600080fd5b815161280d81612f42565b600060001982141561390b5761390b61355a565b5060010190565b634e487b7160e01b600052601260045260246000fd5b60008261393757613937613912565b500490565b60008261394b5761394b613912565b500690565b634e487b7160e01b600052603260045260246000fd5b60008160001904831182151516156139805761398061355a565b50029056fe53862b9283a999da1172fde49c49acd6f83e50293944751a01acf430817ebf35a2646970667358221220e49dd72158d69b8e49ef29cb50825090af7d7d24cf109018f3f51dd8120f09b764736f6c63430008090033",
  "linkReferences": {},
  "deployedLinkReferences": {}
}