{
  "_format": "hh-sol-artifact-1",
  "contractName": "TicketGenerator",
  "sourceName": "contracts/TicketGenerator.sol",
  "abi": [
    {
      "inputs": [
        {
          "internalType": "address",
          "name": "_tokenAddress",
          "type": "address"
        },
        {
          "internalType": "address",
          "name": "_souvenirGeneratorAddress",
          "type": "address"
        }
      ],
      "stateMutability": "nonpayable",
      "type": "constructor"
    },
    {
      "anonymous": false,
      "inputs": [
        {
          "indexed": true,
          "internalType": "bytes32",
          "name": "offerId",
          "type": "bytes32"
        },
        {
          "indexed": true,
          "internalType": "address",
          "name": "buyer",
          "type": "address"
        },
        {
          "indexed": true,
          "internalType": "address",
          "name": "seller",
          "type": "address"
        },
        {
          "indexed": false,
          "internalType": "bytes32",
          "name": "eventId",
          "type": "bytes32"
        },
        {
          "indexed": false,
          "internalType": "bytes32",
          "name": "ticketTypeId",
          "type": "bytes32"
        },
        {
          "indexed": false,
          "internalType": "uint256",
          "name": "ticketId",
          "type": "uint256"
        },
        {
          "indexed": false,
          "internalType": "string",
          "name": "tokenURI",
          "type": "string"
        },
        {
          "indexed": false,
          "internalType": "uint256",
          "name": "price",
          "type": "uint256"
        }
      ],
      "name": "AcceptBuyOffer",
      "type": "event"
    },
    {
      "anonymous": false,
      "inputs": [
        {
          "indexed": true,
          "internalType": "bytes32",
          "name": "offerId",
          "type": "bytes32"
        },
        {
          "indexed": true,
          "internalType": "address",
          "name": "buyer",
          "type": "address"
        },
        {
          "indexed": true,
          "internalType": "address",
          "name": "seller",
          "type": "address"
        },
        {
          "indexed": false,
          "internalType": "bytes32",
          "name": "eventId",
          "type": "bytes32"
        },
        {
          "indexed": false,
          "internalType": "bytes32",
          "name": "ticketTypeId",
          "type": "bytes32"
        },
        {
          "indexed": false,
          "internalType": "uint256",
          "name": "ticketId",
          "type": "uint256"
        },
        {
          "indexed": false,
          "internalType": "string",
          "name": "tokenURI",
          "type": "string"
        },
        {
          "indexed": false,
          "internalType": "uint256",
          "name": "price",
          "type": "uint256"
        }
      ],
      "name": "AcceptSellOffer",
      "type": "event"
    },
    {
      "anonymous": false,
      "inputs": [
        {
          "indexed": true,
          "internalType": "address",
          "name": "owner",
          "type": "address"
        },
        {
          "indexed": true,
          "internalType": "address",
          "name": "approved",
          "type": "address"
        },
        {
          "indexed": true,
          "internalType": "uint256",
          "name": "tokenId",
          "type": "uint256"
        }
      ],
      "name": "Approval",
      "type": "event"
    },
    {
      "anonymous": false,
      "inputs": [
        {
          "indexed": true,
          "internalType": "address",
          "name": "owner",
          "type": "address"
        },
        {
          "indexed": true,
          "internalType": "address",
          "name": "operator",
          "type": "address"
        },
        {
          "indexed": false,
          "internalType": "bool",
          "name": "approved",
          "type": "bool"
        }
      ],
      "name": "ApprovalForAll",
      "type": "event"
    },
    {
      "anonymous": false,
      "inputs": [
        {
          "indexed": true,
          "internalType": "address",
          "name": "buyer",
          "type": "address"
        },
        {
          "indexed": true,
          "internalType": "address",
          "name": "owner",
          "type": "address"
        },
        {
          "indexed": false,
          "internalType": "bytes32",
          "name": "eventId",
          "type": "bytes32"
        },
        {
          "indexed": false,
          "internalType": "bytes32",
          "name": "ticketTypeId",
          "type": "bytes32"
        },
        {
          "indexed": false,
          "internalType": "uint256",
          "name": "tokenId",
          "type": "uint256"
        },
        {
          "indexed": false,
          "internalType": "string",
          "name": "tokenURI",
          "type": "string"
        },
        {
          "indexed": false,
          "internalType": "uint256",
          "name": "eventStartTime",
          "type": "uint256"
        }
      ],
      "name": "BuyTicket",
      "type": "event"
    },
    {
      "anonymous": false,
      "inputs": [
        {
          "indexed": true,
          "internalType": "bytes32",
          "name": "offerId",
          "type": "bytes32"
        },
        {
          "indexed": true,
          "internalType": "address",
          "name": "sender",
          "type": "address"
        }
      ],
      "name": "CancelOffer",
      "type": "event"
    },
    {
      "anonymous": false,
      "inputs": [
        {
          "indexed": false,
          "internalType": "bytes32",
          "name": "offerId",
          "type": "bytes32"
        },
        {
          "indexed": true,
          "internalType": "address",
          "name": "buyer",
          "type": "address"
        },
        {
          "indexed": false,
          "internalType": "bytes32",
          "name": "eventId",
          "type": "bytes32"
        },
        {
          "indexed": false,
          "internalType": "bytes32",
          "name": "ticketTypeId",
          "type": "bytes32"
        },
        {
          "indexed": false,
          "internalType": "uint256",
          "name": "price",
          "type": "uint256"
        },
        {
          "indexed": false,
          "internalType": "uint256",
          "name": "deadline",
          "type": "uint256"
        }
      ],
      "name": "CreateBuyOffer",
      "type": "event"
    },
    {
      "anonymous": false,
      "inputs": [
        {
          "indexed": true,
          "internalType": "address",
          "name": "creator",
          "type": "address"
        },
        {
          "indexed": false,
          "internalType": "bytes32",
          "name": "eventId",
          "type": "bytes32"
        },
        {
          "indexed": false,
          "internalType": "string",
          "name": "name",
          "type": "string"
        },
        {
          "indexed": false,
          "internalType": "string",
          "name": "description",
          "type": "string"
        },
        {
          "indexed": false,
          "internalType": "string",
          "name": "eventStorage",
          "type": "string"
        },
        {
          "indexed": false,
          "internalType": "uint256",
          "name": "startTime",
          "type": "uint256"
        },
        {
          "indexed": false,
          "internalType": "uint256",
          "name": "endTime",
          "type": "uint256"
        }
      ],
      "name": "CreateEvent",
      "type": "event"
    },
    {
      "anonymous": false,
      "inputs": [
        {
          "indexed": true,
          "internalType": "bytes32",
          "name": "offerId",
          "type": "bytes32"
        },
        {
          "indexed": true,
          "internalType": "address",
          "name": "seller",
          "type": "address"
        },
        {
          "indexed": false,
          "internalType": "bytes32",
          "name": "eventId",
          "type": "bytes32"
        },
        {
          "indexed": false,
          "internalType": "bytes32",
          "name": "ticketTypeId",
          "type": "bytes32"
        },
        {
          "indexed": false,
          "internalType": "uint256",
          "name": "ticketId",
          "type": "uint256"
        },
        {
          "indexed": false,
          "internalType": "uint256",
          "name": "price",
          "type": "uint256"
        }
      ],
      "name": "CreateSellOffer",
      "type": "event"
    },
    {
      "anonymous": false,
      "inputs": [
        {
          "indexed": true,
          "internalType": "address",
          "name": "creator",
          "type": "address"
        },
        {
          "indexed": false,
          "internalType": "bytes32",
          "name": "eventId",
          "type": "bytes32"
        },
        {
          "components": [
            {
              "internalType": "bytes32",
              "name": "id",
              "type": "bytes32"
            },
            {
              "internalType": "string",
              "name": "name",
              "type": "string"
            },
            {
              "internalType": "uint256",
              "name": "price",
              "type": "uint256"
            },
            {
              "internalType": "uint256",
              "name": "maxSupply",
              "type": "uint256"
            },
            {
              "internalType": "uint256",
              "name": "currentSupply",
              "type": "uint256"
            },
            {
              "internalType": "string",
              "name": "tokenURI",
              "type": "string"
            },
            {
              "internalType": "string",
              "name": "souvenirTokenURI",
              "type": "string"
            }
          ],
          "indexed": false,
          "internalType": "struct Structs.TicketType",
          "name": "ticketType",
          "type": "tuple"
        }
      ],
      "name": "CreateTicketType",
      "type": "event"
    },
    {
      "anonymous": false,
      "inputs": [
        {
          "indexed": true,
          "internalType": "address",
          "name": "creator",
          "type": "address"
        },
        {
          "indexed": false,
          "internalType": "bytes32",
          "name": "eventId",
          "type": "bytes32"
        }
      ],
      "name": "DeleteEvent",
      "type": "event"
    },
    {
      "anonymous": false,
      "inputs": [
        {
          "indexed": true,
          "internalType": "address",
          "name": "creator",
          "type": "address"
        },
        {
          "indexed": false,
          "internalType": "bytes32",
          "name": "eventId",
          "type": "bytes32"
        },
        {
          "indexed": false,
          "internalType": "bytes32",
          "name": "ticketTypeId",
          "type": "bytes32"
        }
      ],
      "name": "DeleteTickeyType",
      "type": "event"
    },
    {
      "anonymous": false,
      "inputs": [
        {
          "indexed": true,
          "internalType": "address",
          "name": "sender",
          "type": "address"
        },
        {
          "indexed": false,
          "internalType": "uint256",
          "name": "amount",
          "type": "uint256"
        }
      ],
      "name": "Deposit",
      "type": "event"
    },
    {
      "anonymous": false,
      "inputs": [
        {
          "indexed": true,
          "internalType": "address",
          "name": "creator",
          "type": "address"
        },
        {
          "indexed": true,
          "internalType": "address",
          "name": "receiver",
          "type": "address"
        },
        {
          "indexed": false,
          "internalType": "uint256",
          "name": "tokenId",
          "type": "uint256"
        },
        {
          "indexed": false,
          "internalType": "string",
          "name": "tokenURI",
          "type": "string"
        }
      ],
      "name": "GenerateTicket",
      "type": "event"
    },
    {
      "anonymous": false,
      "inputs": [
        {
          "indexed": true,
          "internalType": "bytes32",
          "name": "role",
          "type": "bytes32"
        },
        {
          "indexed": true,
          "internalType": "bytes32",
          "name": "previousAdminRole",
          "type": "bytes32"
        },
        {
          "indexed": true,
          "internalType": "bytes32",
          "name": "newAdminRole",
          "type": "bytes32"
        }
      ],
      "name": "RoleAdminChanged",
      "type": "event"
    },
    {
      "anonymous": false,
      "inputs": [
        {
          "indexed": true,
          "internalType": "bytes32",
          "name": "role",
          "type": "bytes32"
        },
        {
          "indexed": true,
          "internalType": "address",
          "name": "account",
          "type": "address"
        },
        {
          "indexed": true,
          "internalType": "address",
          "name": "sender",
          "type": "address"
        }
      ],
      "name": "RoleGranted",
      "type": "event"
    },
    {
      "anonymous": false,
      "inputs": [
        {
          "indexed": true,
          "internalType": "bytes32",
          "name": "role",
          "type": "bytes32"
        },
        {
          "indexed": true,
          "internalType": "address",
          "name": "account",
          "type": "address"
        },
        {
          "indexed": true,
          "internalType": "address",
          "name": "sender",
          "type": "address"
        }
      ],
      "name": "RoleRevoked",
      "type": "event"
    },
    {
      "anonymous": false,
      "inputs": [
        {
          "indexed": true,
          "internalType": "address",
          "name": "from",
          "type": "address"
        },
        {
          "indexed": true,
          "internalType": "address",
          "name": "to",
          "type": "address"
        },
        {
          "indexed": true,
          "internalType": "uint256",
          "name": "tokenId",
          "type": "uint256"
        }
      ],
      "name": "Transfer",
      "type": "event"
    },
    {
      "anonymous": false,
      "inputs": [
        {
          "indexed": true,
          "internalType": "address",
          "name": "sender",
          "type": "address"
        },
        {
          "indexed": true,
          "internalType": "address",
          "name": "receiver",
          "type": "address"
        },
        {
          "indexed": false,
          "internalType": "uint256",
          "name": "tokenId",
          "type": "uint256"
        }
      ],
      "name": "TransferTicket",
      "type": "event"
    },
    {
      "anonymous": false,
      "inputs": [
        {
          "indexed": true,
          "internalType": "address",
          "name": "creator",
          "type": "address"
        },
        {
          "indexed": false,
          "internalType": "bytes32",
          "name": "eventId",
          "type": "bytes32"
        },
        {
          "indexed": false,
          "internalType": "string",
          "name": "name",
          "type": "string"
        },
        {
          "indexed": false,
          "internalType": "string",
          "name": "description",
          "type": "string"
        },
        {
          "indexed": false,
          "internalType": "string",
          "name": "eventStorage",
          "type": "string"
        },
        {
          "indexed": false,
          "internalType": "uint256",
          "name": "startTime",
          "type": "uint256"
        },
        {
          "indexed": false,
          "internalType": "uint256",
          "name": "endTime",
          "type": "uint256"
        }
      ],
      "name": "UpdateEvent",
      "type": "event"
    },
    {
      "anonymous": false,
      "inputs": [
        {
          "indexed": true,
          "internalType": "address",
          "name": "creator",
          "type": "address"
        },
        {
          "indexed": false,
          "internalType": "bytes32",
          "name": "eventId",
          "type": "bytes32"
        },
        {
          "components": [
            {
              "internalType": "bytes32",
              "name": "id",
              "type": "bytes32"
            },
            {
              "internalType": "string",
              "name": "name",
              "type": "string"
            },
            {
              "internalType": "uint256",
              "name": "price",
              "type": "uint256"
            },
            {
              "internalType": "uint256",
              "name": "maxSupply",
              "type": "uint256"
            },
            {
              "internalType": "uint256",
              "name": "currentSupply",
              "type": "uint256"
            },
            {
              "internalType": "string",
              "name": "tokenURI",
              "type": "string"
            },
            {
              "internalType": "string",
              "name": "souvenirTokenURI",
              "type": "string"
            }
          ],
          "indexed": false,
          "internalType": "struct Structs.TicketType",
          "name": "ticketType",
          "type": "tuple"
        }
      ],
      "name": "UpdateTicketType",
      "type": "event"
    },
    {
      "anonymous": false,
      "inputs": [
        {
          "indexed": true,
          "internalType": "address",
          "name": "sender",
          "type": "address"
        },
        {
          "indexed": false,
          "internalType": "uint256",
          "name": "ticketId",
          "type": "uint256"
        }
      ],
      "name": "UseTicket",
      "type": "event"
    },
    {
      "anonymous": false,
      "inputs": [
        {
          "indexed": true,
          "internalType": "address",
          "name": "receiver",
          "type": "address"
        },
        {
          "indexed": false,
          "internalType": "uint256",
          "name": "amount",
          "type": "uint256"
        }
      ],
      "name": "Withdraw",
      "type": "event"
    },
    {
      "inputs": [],
      "name": "DEFAULT_ADMIN_ROLE",
      "outputs": [
        {
          "internalType": "bytes32",
          "name": "",
          "type": "bytes32"
        }
      ],
      "stateMutability": "view",
      "type": "function"
    },
    {
      "inputs": [],
      "name": "MINTER_ROLE",
      "outputs": [
        {
          "internalType": "bytes32",
          "name": "",
          "type": "bytes32"
        }
      ],
      "stateMutability": "view",
      "type": "function"
    },
    {
      "inputs": [],
      "name": "ORGANIZER_ROLE",
      "outputs": [
        {
          "internalType": "bytes32",
          "name": "",
          "type": "bytes32"
        }
      ],
      "stateMutability": "view",
      "type": "function"
    },
    {
      "inputs": [],
      "name": "OWNER_ROLE",
      "outputs": [
        {
          "internalType": "bytes32",
          "name": "",
          "type": "bytes32"
        }
      ],
      "stateMutability": "view",
      "type": "function"
    },
    {
      "inputs": [
        {
          "internalType": "bytes32",
          "name": "id",
          "type": "bytes32"
        },
        {
          "internalType": "uint256",
          "name": "ticketId",
          "type": "uint256"
        }
      ],
      "name": "acceptBuyOffer",
      "outputs": [],
      "stateMutability": "nonpayable",
      "type": "function"
    },
    {
      "inputs": [
        {
          "internalType": "bytes32",
          "name": "id",
          "type": "bytes32"
        },
        {
          "internalType": "uint256",
          "name": "deadline",
          "type": "uint256"
        },
        {
          "internalType": "uint8",
          "name": "v",
          "type": "uint8"
        },
        {
          "internalType": "bytes32",
          "name": "r",
          "type": "bytes32"
        },
        {
          "internalType": "bytes32",
          "name": "s",
          "type": "bytes32"
        }
      ],
      "name": "acceptSellOffer",
      "outputs": [],
      "stateMutability": "nonpayable",
      "type": "function"
    },
    {
      "inputs": [
        {
          "internalType": "address",
          "name": "to",
          "type": "address"
        },
        {
          "internalType": "uint256",
          "name": "tokenId",
          "type": "uint256"
        }
      ],
      "name": "approve",
      "outputs": [],
      "stateMutability": "nonpayable",
      "type": "function"
    },
    {
      "inputs": [
        {
          "internalType": "address",
          "name": "owner",
          "type": "address"
        }
      ],
      "name": "balanceOf",
      "outputs": [
        {
          "internalType": "uint256",
          "name": "",
          "type": "uint256"
        }
      ],
      "stateMutability": "view",
      "type": "function"
    },
    {
      "inputs": [],
      "name": "becomeOrganizer",
      "outputs": [],
      "stateMutability": "nonpayable",
      "type": "function"
    },
    {
      "inputs": [
        {
          "internalType": "bytes32",
          "name": "_eventId",
          "type": "bytes32"
        },
        {
          "internalType": "bytes32",
          "name": "_ticketTypeId",
          "type": "bytes32"
        },
        {
          "internalType": "address",
          "name": "_recipient",
          "type": "address"
        }
      ],
      "name": "buyTicket",
      "outputs": [
        {
          "internalType": "uint256",
          "name": "",
          "type": "uint256"
        }
      ],
      "stateMutability": "nonpayable",
      "type": "function"
    },
    {
      "inputs": [
        {
          "internalType": "bytes32",
          "name": "id",
          "type": "bytes32"
        }
      ],
      "name": "cancelOffer",
      "outputs": [],
      "stateMutability": "nonpayable",
      "type": "function"
    },
    {
      "inputs": [
        {
          "internalType": "bytes32",
          "name": "id",
          "type": "bytes32"
        },
        {
          "internalType": "bytes32",
          "name": "eventId",
          "type": "bytes32"
        },
        {
          "internalType": "bytes32",
          "name": "ticketTypeId",
          "type": "bytes32"
        },
        {
          "internalType": "uint256",
          "name": "price",
          "type": "uint256"
        },
        {
          "internalType": "uint256",
          "name": "deadline",
          "type": "uint256"
        },
        {
          "internalType": "uint8",
          "name": "v",
          "type": "uint8"
        },
        {
          "internalType": "bytes32",
          "name": "r",
          "type": "bytes32"
        },
        {
          "internalType": "bytes32",
          "name": "s",
          "type": "bytes32"
        }
      ],
      "name": "createBuyOffer",
      "outputs": [],
      "stateMutability": "nonpayable",
      "type": "function"
    },
    {
      "inputs": [
        {
          "internalType": "bytes32",
          "name": "_eventId",
          "type": "bytes32"
        },
        {
          "internalType": "string",
          "name": "_name",
          "type": "string"
        },
        {
          "internalType": "string",
          "name": "_description",
          "type": "string"
        },
        {
          "internalType": "string",
          "name": "eventStorage",
          "type": "string"
        },
        {
          "internalType": "uint256",
          "name": "startTime",
          "type": "uint256"
        },
        {
          "internalType": "uint256",
          "name": "endTime",
          "type": "uint256"
        }
      ],
      "name": "createEvent",
      "outputs": [],
      "stateMutability": "nonpayable",
      "type": "function"
    },
    {
      "inputs": [
        {
          "internalType": "bytes32",
          "name": "id",
          "type": "bytes32"
        },
        {
          "internalType": "bytes32",
          "name": "eventId",
          "type": "bytes32"
        },
        {
          "internalType": "bytes32",
          "name": "ticketTypeId",
          "type": "bytes32"
        },
        {
          "internalType": "uint256",
          "name": "ticketId",
          "type": "uint256"
        },
        {
          "internalType": "uint256",
          "name": "price",
          "type": "uint256"
        }
      ],
      "name": "createSellOffer",
      "outputs": [],
      "stateMutability": "nonpayable",
      "type": "function"
    },
    {
      "inputs": [
        {
          "internalType": "bytes32",
          "name": "_eventId",
          "type": "bytes32"
        },
        {
          "internalType": "bytes32",
          "name": "_ticketTypeId",
          "type": "bytes32"
        },
        {
          "internalType": "string",
          "name": "_ticketName",
          "type": "string"
        },
        {
          "internalType": "string",
          "name": "_tokenURI",
          "type": "string"
        },
        {
          "internalType": "string",
          "name": "_souvenirTokenURI",
          "type": "string"
        },
        {
          "internalType": "uint256",
          "name": "_price",
          "type": "uint256"
        },
        {
          "internalType": "uint256",
          "name": "_maxSupply",
          "type": "uint256"
        }
      ],
      "name": "createTicketType",
      "outputs": [],
      "stateMutability": "nonpayable",
      "type": "function"
    },
    {
      "inputs": [
        {
          "internalType": "bytes32",
          "name": "_eventId",
          "type": "bytes32"
        }
      ],
      "name": "deleteEvent",
      "outputs": [],
      "stateMutability": "nonpayable",
      "type": "function"
    },
    {
      "inputs": [],
      "name": "deposit",
      "outputs": [],
      "stateMutability": "payable",
      "type": "function"
    },
    {
      "inputs": [
        {
          "internalType": "uint256",
          "name": "tokenId",
          "type": "uint256"
        }
      ],
      "name": "getApproved",
      "outputs": [
        {
          "internalType": "address",
          "name": "",
          "type": "address"
        }
      ],
      "stateMutability": "view",
      "type": "function"
    },
    {
      "inputs": [
        {
          "internalType": "bytes32",
          "name": "_eventId",
          "type": "bytes32"
        }
      ],
      "name": "getEvent",
      "outputs": [
        {
          "internalType": "address",
          "name": "",
          "type": "address"
        },
        {
          "internalType": "string",
          "name": "",
          "type": "string"
        },
        {
          "internalType": "string",
          "name": "",
          "type": "string"
        },
        {
          "internalType": "string",
          "name": "",
          "type": "string"
        },
        {
          "internalType": "uint256",
          "name": "",
          "type": "uint256"
        },
        {
          "internalType": "uint256",
          "name": "",
          "type": "uint256"
        },
        {
          "internalType": "bytes32[]",
          "name": "",
          "type": "bytes32[]"
        }
      ],
      "stateMutability": "view",
      "type": "function"
    },
    {
      "inputs": [
        {
          "internalType": "uint256",
          "name": "_tokenId",
          "type": "uint256"
        }
      ],
      "name": "getMetadata",
      "outputs": [
        {
          "internalType": "string",
          "name": "",
          "type": "string"
        }
      ],
      "stateMutability": "view",
      "type": "function"
    },
    {
      "inputs": [
        {
          "internalType": "bytes32",
          "name": "id",
          "type": "bytes32"
        }
      ],
      "name": "getOffer",
      "outputs": [
        {
          "components": [
            {
              "internalType": "bytes32",
              "name": "id",
              "type": "bytes32"
            },
            {
              "internalType": "bytes32",
              "name": "eventId",
              "type": "bytes32"
            },
            {
              "internalType": "bytes32",
              "name": "ticketTypeId",
              "type": "bytes32"
            },
            {
              "internalType": "uint256",
              "name": "ticketId",
              "type": "uint256"
            },
            {
              "internalType": "uint256",
              "name": "price",
              "type": "uint256"
            },
            {
              "internalType": "address",
              "name": "seller",
              "type": "address"
            },
            {
              "internalType": "address",
              "name": "buyer",
              "type": "address"
            },
            {
              "internalType": "bool",
              "name": "accepted",
              "type": "bool"
            },
            {
              "internalType": "uint256",
              "name": "deadline",
              "type": "uint256"
            },
            {
              "internalType": "bool",
              "name": "buyOffer",
              "type": "bool"
            },
            {
              "internalType": "bool",
              "name": "sellOffer",
              "type": "bool"
            }
          ],
          "internalType": "struct Structs.Offer",
          "name": "",
          "type": "tuple"
        }
      ],
      "stateMutability": "view",
      "type": "function"
    },
    {
      "inputs": [
        {
          "internalType": "bytes32",
          "name": "role",
          "type": "bytes32"
        }
      ],
      "name": "getRoleAdmin",
      "outputs": [
        {
          "internalType": "bytes32",
          "name": "",
          "type": "bytes32"
        }
      ],
      "stateMutability": "view",
      "type": "function"
    },
    {
      "inputs": [
        {
          "internalType": "uint256",
          "name": "_ticketId",
          "type": "uint256"
        }
      ],
      "name": "getSouvenir",
      "outputs": [
        {
          "internalType": "uint256",
          "name": "",
          "type": "uint256"
        }
      ],
      "stateMutability": "nonpayable",
      "type": "function"
    },
    {
      "inputs": [
        {
          "internalType": "uint256",
          "name": "_ticketId",
          "type": "uint256"
        }
      ],
      "name": "getTicket",
      "outputs": [
        {
          "components": [
            {
              "internalType": "uint256",
              "name": "id",
              "type": "uint256"
            },
            {
              "internalType": "bytes32",
              "name": "eventId",
              "type": "bytes32"
            },
            {
              "internalType": "bytes32",
              "name": "ticketTypeId",
              "type": "bytes32"
            },
            {
              "internalType": "uint256",
              "name": "souvenirId",
              "type": "uint256"
            },
            {
              "internalType": "address",
              "name": "owner",
              "type": "address"
            },
            {
              "internalType": "bool",
              "name": "souvenirMinted",
              "type": "bool"
            },
            {
              "internalType": "bool",
              "name": "usable",
              "type": "bool"
            }
          ],
          "internalType": "struct Structs.Ticket",
          "name": "",
          "type": "tuple"
        }
      ],
      "stateMutability": "view",
      "type": "function"
    },
    {
      "inputs": [
        {
          "internalType": "bytes32",
          "name": "_eventId",
          "type": "bytes32"
        },
        {
          "internalType": "bytes32",
          "name": "_ticketTypeId",
          "type": "bytes32"
        }
      ],
      "name": "getTicketType",
      "outputs": [
        {
          "components": [
            {
              "internalType": "bytes32",
              "name": "id",
              "type": "bytes32"
            },
            {
              "internalType": "string",
              "name": "name",
              "type": "string"
            },
            {
              "internalType": "uint256",
              "name": "price",
              "type": "uint256"
            },
            {
              "internalType": "uint256",
              "name": "maxSupply",
              "type": "uint256"
            },
            {
              "internalType": "uint256",
              "name": "currentSupply",
              "type": "uint256"
            },
            {
              "internalType": "string",
              "name": "tokenURI",
              "type": "string"
            },
            {
              "internalType": "string",
              "name": "souvenirTokenURI",
              "type": "string"
            }
          ],
          "internalType": "struct Structs.TicketType",
          "name": "",
          "type": "tuple"
        }
      ],
      "stateMutability": "view",
      "type": "function"
    },
    {
      "inputs": [
        {
          "internalType": "bytes32",
          "name": "role",
          "type": "bytes32"
        },
        {
          "internalType": "address",
          "name": "account",
          "type": "address"
        }
      ],
      "name": "grantRole",
      "outputs": [],
      "stateMutability": "nonpayable",
      "type": "function"
    },
    {
      "inputs": [
        {
          "internalType": "bytes32",
          "name": "role",
          "type": "bytes32"
        },
        {
          "internalType": "address",
          "name": "account",
          "type": "address"
        }
      ],
      "name": "hasRole",
      "outputs": [
        {
          "internalType": "bool",
          "name": "",
          "type": "bool"
        }
      ],
      "stateMutability": "view",
      "type": "function"
    },
    {
      "inputs": [
        {
          "internalType": "address",
          "name": "owner",
          "type": "address"
        },
        {
          "internalType": "address",
          "name": "operator",
          "type": "address"
        }
      ],
      "name": "isApprovedForAll",
      "outputs": [
        {
          "internalType": "bool",
          "name": "",
          "type": "bool"
        }
      ],
      "stateMutability": "view",
      "type": "function"
    },
    {
      "inputs": [],
      "name": "name",
      "outputs": [
        {
          "internalType": "string",
          "name": "",
          "type": "string"
        }
      ],
      "stateMutability": "view",
      "type": "function"
    },
    {
      "inputs": [
        {
          "internalType": "uint256",
          "name": "tokenId",
          "type": "uint256"
        }
      ],
      "name": "ownerOf",
      "outputs": [
        {
          "internalType": "address",
          "name": "",
          "type": "address"
        }
      ],
      "stateMutability": "view",
      "type": "function"
    },
    {
      "inputs": [],
      "name": "ownerWithdraw",
      "outputs": [],
      "stateMutability": "nonpayable",
      "type": "function"
    },
    {
      "inputs": [
        {
          "internalType": "bytes32",
          "name": "_eventId",
          "type": "bytes32"
        },
        {
          "internalType": "bytes32",
          "name": "_ticketTypeId",
          "type": "bytes32"
        }
      ],
      "name": "removeTicketType",
      "outputs": [],
      "stateMutability": "nonpayable",
      "type": "function"
    },
    {
      "inputs": [
        {
          "internalType": "bytes32",
          "name": "role",
          "type": "bytes32"
        },
        {
          "internalType": "address",
          "name": "account",
          "type": "address"
        }
      ],
      "name": "renounceRole",
      "outputs": [],
      "stateMutability": "nonpayable",
      "type": "function"
    },
    {
      "inputs": [
        {
          "internalType": "bytes32",
          "name": "role",
          "type": "bytes32"
        },
        {
          "internalType": "address",
          "name": "account",
          "type": "address"
        }
      ],
      "name": "revokeRole",
      "outputs": [],
      "stateMutability": "nonpayable",
      "type": "function"
    },
    {
      "inputs": [
        {
          "internalType": "address",
          "name": "from",
          "type": "address"
        },
        {
          "internalType": "address",
          "name": "to",
          "type": "address"
        },
        {
          "internalType": "uint256",
          "name": "tokenId",
          "type": "uint256"
        }
      ],
      "name": "safeTransferFrom",
      "outputs": [],
      "stateMutability": "nonpayable",
      "type": "function"
    },
    {
      "inputs": [
        {
          "internalType": "address",
          "name": "from",
          "type": "address"
        },
        {
          "internalType": "address",
          "name": "to",
          "type": "address"
        },
        {
          "internalType": "uint256",
          "name": "tokenId",
          "type": "uint256"
        },
        {
          "internalType": "bytes",
          "name": "data",
          "type": "bytes"
        }
      ],
      "name": "safeTransferFrom",
      "outputs": [],
      "stateMutability": "nonpayable",
      "type": "function"
    },
    {
      "inputs": [
        {
          "internalType": "address",
          "name": "operator",
          "type": "address"
        },
        {
          "internalType": "bool",
          "name": "approved",
          "type": "bool"
        }
      ],
      "name": "setApprovalForAll",
      "outputs": [],
      "stateMutability": "nonpayable",
      "type": "function"
    },
    {
      "inputs": [
        {
          "internalType": "uint256",
          "name": "_organizerDeposit",
          "type": "uint256"
        }
      ],
      "name": "setOrganizerDeposit",
      "outputs": [],
      "stateMutability": "nonpayable",
      "type": "function"
    },
    {
      "inputs": [
        {
          "internalType": "address",
          "name": "_souvenirGeneratorAddress",
          "type": "address"
        }
      ],
      "name": "setSouvenirGeneratorContract",
      "outputs": [],
      "stateMutability": "nonpayable",
      "type": "function"
    },
    {
      "inputs": [
        {
          "internalType": "address",
          "name": "_tokenAddress",
          "type": "address"
        }
      ],
      "name": "setTIKContract",
      "outputs": [],
      "stateMutability": "nonpayable",
      "type": "function"
    },
    {
      "inputs": [
        {
          "internalType": "bytes4",
          "name": "interfaceId",
          "type": "bytes4"
        }
      ],
      "name": "supportsInterface",
      "outputs": [
        {
          "internalType": "bool",
          "name": "",
          "type": "bool"
        }
      ],
      "stateMutability": "view",
      "type": "function"
    },
    {
      "inputs": [],
      "name": "symbol",
      "outputs": [
        {
          "internalType": "string",
          "name": "",
          "type": "string"
        }
      ],
      "stateMutability": "view",
      "type": "function"
    },
    {
      "inputs": [
        {
          "internalType": "uint256",
          "name": "amount",
          "type": "uint256"
        },
        {
          "internalType": "uint256",
          "name": "deadline",
          "type": "uint256"
        },
        {
          "internalType": "uint8",
          "name": "v",
          "type": "uint8"
        },
        {
          "internalType": "bytes32",
          "name": "r",
          "type": "bytes32"
        },
        {
          "internalType": "bytes32",
          "name": "s",
          "type": "bytes32"
        }
      ],
      "name": "ticketPurchasePermit",
      "outputs": [],
      "stateMutability": "nonpayable",
      "type": "function"
    },
    {
      "inputs": [
        {
          "internalType": "uint256",
          "name": "tokenId",
          "type": "uint256"
        }
      ],
      "name": "tokenURI",
      "outputs": [
        {
          "internalType": "string",
          "name": "",
          "type": "string"
        }
      ],
      "stateMutability": "view",
      "type": "function"
    },
    {
      "inputs": [
        {
          "internalType": "address",
          "name": "from",
          "type": "address"
        },
        {
          "internalType": "address",
          "name": "to",
          "type": "address"
        },
        {
          "internalType": "uint256",
          "name": "tokenId",
          "type": "uint256"
        }
      ],
      "name": "transferFrom",
      "outputs": [],
      "stateMutability": "nonpayable",
      "type": "function"
    },
    {
      "inputs": [
        {
          "internalType": "bytes32",
          "name": "_eventId",
          "type": "bytes32"
        },
        {
          "internalType": "string",
          "name": "_name",
          "type": "string"
        },
        {
          "internalType": "string",
          "name": "_description",
          "type": "string"
        },
        {
          "internalType": "string",
          "name": "eventStorage",
          "type": "string"
        },
        {
          "internalType": "uint256",
          "name": "startTime",
          "type": "uint256"
        },
        {
          "internalType": "uint256",
          "name": "endTime",
          "type": "uint256"
        }
      ],
      "name": "updateEvent",
      "outputs": [],
      "stateMutability": "nonpayable",
      "type": "function"
    },
    {
      "inputs": [
        {
          "internalType": "bytes32",
          "name": "_eventId",
          "type": "bytes32"
        },
        {
          "internalType": "bytes32",
          "name": "_ticketTypeId",
          "type": "bytes32"
        },
        {
          "internalType": "string",
          "name": "_ticketName",
          "type": "string"
        },
        {
          "internalType": "string",
          "name": "_tokenURI",
          "type": "string"
        },
        {
          "internalType": "string",
          "name": "_souvenirTokenURI",
          "type": "string"
        },
        {
          "internalType": "uint256",
          "name": "_price",
          "type": "uint256"
        },
        {
          "internalType": "uint256",
          "name": "_maxSupply",
          "type": "uint256"
        }
      ],
      "name": "updateTicketType",
      "outputs": [],
      "stateMutability": "nonpayable",
      "type": "function"
    },
    {
      "inputs": [
        {
          "internalType": "uint256",
          "name": "_ticketId",
          "type": "uint256"
        }
      ],
      "name": "useTicket",
      "outputs": [],
      "stateMutability": "nonpayable",
      "type": "function"
    },
    {
      "inputs": [
        {
          "internalType": "uint256",
          "name": "amount",
          "type": "uint256"
        }
      ],
      "name": "userWithdraw",
      "outputs": [],
      "stateMutability": "nonpayable",
      "type": "function"
    }
  ],
  "bytecode": "0x60806040526000601055600060115566038d7ea4c680006012553480156200002657600080fd5b5060405162006071380380620060718339810160408190526200004991620002bf565b604080518082018252600a815269151a58dad95d0813919560b21b60208083019182528351808501909452600384526213919560ea1b9084015281519192916200009691600191620001fc565b508051620000ac906002906020840190620001fc565b5050600980546001600160a01b038085166001600160a01b031992831617909255600a805492861692909116919091179055506200010b7fb19546dff01e856fb3f010c267a7b1c60363cf8a4664e21cc89c26224620214e336200014c565b620001377f4d2e7a1e3f5dd6e203f087b15756ccf0e4ccd947fe1b639a38540089a1e47f63336200014c565b620001446000336200014c565b505062000334565b6200015882826200015c565b5050565b6000828152602081815260408083206001600160a01b038516845290915290205460ff1662000158576000828152602081815260408083206001600160a01b03851684529091529020805460ff19166001179055620001b83390565b6001600160a01b0316816001600160a01b0316837f2f8788117e7eff1d82e926ec794901d17c78024a50270940304540a733656f0d60405160405180910390a45050565b8280546200020a90620002f7565b90600052602060002090601f0160209004810192826200022e576000855562000279565b82601f106200024957805160ff191683800117855562000279565b8280016001018555821562000279579182015b82811115620002795782518255916020019190600101906200025c565b50620002879291506200028b565b5090565b5b808211156200028757600081556001016200028c565b80516001600160a01b0381168114620002ba57600080fd5b919050565b60008060408385031215620002d357600080fd5b620002de83620002a2565b9150620002ee60208401620002a2565b90509250929050565b600181811c908216806200030c57607f821691505b602082108114156200032e57634e487b7160e01b600052602260045260246000fd5b50919050565b615d2d80620003446000396000f3fe6080604052600436106102ae5760003560e01c80637dc379fa11610175578063b88d4fde116100dc578063d539139311610095578063e58378bb1161006f578063e58378bb146108ff578063e5bdaeb714610921578063e985e9c514610941578063f952279e1461098a57600080fd5b8063d53913931461087e578063d547741f146108b2578063d597b8c8146108d257600080fd5b8063b88d4fde146107c9578063baab45fb146107e9578063c87b56dd14610809578063ceed06d514610829578063d0e30db014610849578063d3a819301461085157600080fd5b8063a38c7eb21161012e578063a38c7eb214610709578063a43329ad14610729578063a574cea414610749578063addece2a14610769578063ae1e455414610789578063b64babc2146107a957600080fd5b80637dc379fa146105ee5780638c172fa21461066c57806391d148541461069f57806395d89b41146106bf578063a217fddf146106d4578063a22cb465146106e957600080fd5b80632f2ff15d1161021957806352c0cb6c116101d257806352c0cb6c1461052c5780635c9d690e1461054c57806363113c6a1461056c5780636352211e1461058c57806370a08231146105ac5780637909cb59146105cc57600080fd5b80632f2ff15d1461047757806336568abe146104975780633b9056bf146104b7578063419cc0ec146104d757806342842e0e146104f75780634311de8f1461051757600080fd5b80631cc844bc1161026b5780631cc844bc146103a757806323b872dd146103c7578063248a9ca3146103e757806326606448146104175780632ae563c1146104375780632d32165f1461045757600080fd5b806301ffc9a7146102b3578063042e7ea9146102e857806306fdde031461031657806307b17fc914610338578063081812fc1461034f578063095ea7b314610387575b600080fd5b3480156102bf57600080fd5b506102d36102ce366004614eb3565b6109aa565b60405190151581526020015b60405180910390f35b3480156102f457600080fd5b50610308610303366004614eec565b6109bb565b6040519081526020016102df565b34801561032257600080fd5b5061032b610e1b565b6040516102df9190614f79565b34801561034457600080fd5b5061034d610ead565b005b34801561035b57600080fd5b5061036f61036a366004614f8c565b611087565b6040516001600160a01b0390911681526020016102df565b34801561039357600080fd5b5061034d6103a2366004614fa5565b6110ae565b3480156103b357600080fd5b5061034d6103c2366004614f8c565b6111c4565b3480156103d357600080fd5b5061034d6103e2366004614fcf565b611395565b3480156103f357600080fd5b50610308610402366004614f8c565b60009081526020819052604090206001015490565b34801561042357600080fd5b5061034d610432366004614f8c565b6113c6565b34801561044357600080fd5b5061034d6104523660046150b7565b611611565b34801561046357600080fd5b5061034d61047236600461515b565b6117b6565b34801561048357600080fd5b5061034d61049236600461517d565b611b03565b3480156104a357600080fd5b5061034d6104b236600461517d565b611b28565b3480156104c357600080fd5b5061034d6104d2366004614f8c565b611ba6565b3480156104e357600080fd5b5061034d6104f23660046151ba565b611dd6565b34801561050357600080fd5b5061034d610512366004614fcf565b611e4b565b34801561052357600080fd5b5061034d611e66565b34801561053857600080fd5b5061034d610547366004615201565b611fb2565b34801561055857600080fd5b5061034d6105673660046150b7565b612008565b34801561057857600080fd5b5061034d610587366004615201565b6121ac565b34801561059857600080fd5b5061036f6105a7366004614f8c565b612202565b3480156105b857600080fd5b506103086105c7366004615201565b612262565b3480156105d857600080fd5b50610308600080516020615cd883398151915281565b3480156105fa57600080fd5b5061060e610609366004614f8c565b6122e8565b6040516102df9190815181526020808301519082015260408083015190820152606080830151908201526080808301516001600160a01b03169082015260a08083015115159082015260c09182015115159181019190915260e00190565b34801561067857600080fd5b5061068c610687366004614f8c565b6123ff565b6040516102df979695949392919061521c565b3480156106ab57600080fd5b506102d36106ba36600461517d565b612689565b3480156106cb57600080fd5b5061032b6126b2565b3480156106e057600080fd5b50610308600081565b3480156106f557600080fd5b5061034d6107043660046152ca565b6126c1565b34801561071557600080fd5b50610308610724366004614f8c565b6126cc565b34801561073557600080fd5b5061034d610744366004615301565b612936565b34801561075557600080fd5b5061032b610764366004614f8c565b612ba3565b34801561077557600080fd5b5061034d61078436600461515b565b612bae565b34801561079557600080fd5b5061034d6107a43660046151ba565b612e32565b3480156107b557600080fd5b5061034d6107c4366004615367565b6131db565b3480156107d557600080fd5b5061034d6107e43660046153a2565b61343a565b3480156107f557600080fd5b5061034d61080436600461541e565b613472565b34801561081557600080fd5b5061032b610824366004614f8c565b613661565b34801561083557600080fd5b5061034d61084436600461541e565b613772565b61034d613a0f565b34801561085d57600080fd5b5061087161086c36600461515b565b613ac0565b6040516102df9190615546565b34801561088a57600080fd5b506103087f9f2df0fed2c77648de5860a4cc508cd0818c85b8b8a1ab4ceeef8d981c8956a681565b3480156108be57600080fd5b5061034d6108cd36600461517d565b613d7a565b3480156108de57600080fd5b506108f26108ed366004614f8c565b613d9f565b6040516102df9190615559565b34801561090b57600080fd5b50610308600080516020615cb883398151915281565b34801561092d57600080fd5b5061034d61093c366004614f8c565b613eaf565b34801561094d57600080fd5b506102d361095c366004615604565b6001600160a01b03918216600090815260066020908152604080832093909416825291909152205460ff1690565b34801561099657600080fd5b5061034d6109a5366004614f8c565b613ee8565b60006109b5826140a3565b92915050565b6000838152600c602052604081205484906109f15760405162461bcd60e51b81526004016109e89061562e565b60405180910390fd5b6000858152600c6020908152604080832087845260090190915290205485908590610a2e5760405162461bcd60e51b81526004016109e89061565c565b6000878152600c60209081526040808320898452600981019092529091206004810154610a9d5760405162461bcd60e51b815260206004820152601f60248201527f5469636b6574732066726f6d2074686973207479706520736f6c64206f75740060448201526064016109e8565b6002810154600a54604051636eb1769f60e11b81523360048201523060248201526001600160a01b039091169063dd62ed3e9060440160206040518083038186803b158015610aeb57600080fd5b505afa158015610aff573d6000803e3d6000fd5b505050506040513d601f19601f82011682018060405250810190610b239190615693565b1015610b415760405162461bcd60e51b81526004016109e8906156ac565b600a54600183015460028301546040516323b872dd60e01b81523360048201526001600160a01b039283166024820152604481019190915260009291909116906323b872dd90606401602060405180830381600087803b158015610ba457600080fd5b505af1158015610bb8573d6000803e3d6000fd5b505050506040513d601f19601f82011682018060405250810190610bdc91906156e3565b905080610bfb5760405162461bcd60e51b81526004016109e890615700565b600482018054906000610c0d8361573f565b91905055506000610caa89846005018054610c2790615756565b80601f0160208091040260200160405190810160405280929190818152602001828054610c5390615756565b8015610ca05780601f10610c7557610100808354040283529160200191610ca0565b820191906000526020600020905b815481529060010190602001808311610c8357829003601f168201915b50505050506140e3565b9050610ceb6040805160e081018252600080825260208201819052918101829052606081018290526080810182905260a0810182905260c081019190915290565b81815260208082018d815260408084018e81526001600160a01b03808f1660808701818152600160c0890181815260008b8152600e9099528689208a5181558851818401558651600282015560608b015160038083019190915593516004909101805460a08d015193511515600160a81b0260ff60a81b19941515600160a01b026001600160a81b03199092169390981692909217919091179190911694909417909355600d805493840181559096527fd7b6990105719101dabeb77144f2a3385c8033acd3af97e9423a695e81ad1eb590910187905592519051938901549151929333937fa315c04ae5193ef2d9052d2616973c434126e9e2232a0e6b1b693a8289b3caec93610e04939291899160058d019161582b565b60405180910390a3509a9950505050505050505050565b606060018054610e2a90615756565b80601f0160208091040260200160405190810160405280929190818152602001828054610e5690615756565b8015610ea35780601f10610e7857610100808354040283529160200191610ea3565b820191906000526020600020905b815481529060010190602001808311610e8657829003601f168201915b5050505050905090565b610ec5600080516020615cd883398151915233612689565b15610f125760405162461bcd60e51b815260206004820152601e60248201527f43616c6c657220697320616c726561647920616e206f7267616e697a6572000060448201526064016109e8565b601254600a546040516370a0823160e01b81523360048201526001600160a01b03909116906370a082319060240160206040518083038186803b158015610f5857600080fd5b505afa158015610f6c573d6000803e3d6000fd5b505050506040513d601f19601f82011682018060405250810190610f909190615693565b1015610fec5760405162461bcd60e51b815260206004820152602560248201527f4e6f7420656e6f75676820746f6b656e7320746f206265636f6d65206f7267616044820152643734bd32b960d91b60648201526084016109e8565b600a54601254604051632770a7eb60e21b815233600482015260248101919091526001600160a01b0390911690639dc29fac90604401600060405180830381600087803b15801561103c57600080fd5b505af1158015611050573d6000803e3d6000fd5b5050505061106c600080516020615cd883398151915233614168565b601254601160008282546110809190615862565b9091555050565b600061109282614172565b506000908152600560205260409020546001600160a01b031690565b60006110b982612202565b9050806001600160a01b0316836001600160a01b031614156111275760405162461bcd60e51b815260206004820152602160248201527f4552433732313a20617070726f76616c20746f2063757272656e74206f776e656044820152603960f91b60648201526084016109e8565b336001600160a01b03821614806111435750611143813361095c565b6111b55760405162461bcd60e51b815260206004820152603e60248201527f4552433732313a20617070726f76652063616c6c6572206973206e6f7420746f60448201527f6b656e206f776e6572206e6f7220617070726f76656420666f7220616c6c000060648201526084016109e8565b6111bf83836141d4565b505050565b6000818152600c602052604090205481906111f15760405162461bcd60e51b81526004016109e89061562e565b611209600080516020615cd883398151915233612689565b6112255760405162461bcd60e51b81526004016109e89061587a565b6000828152600c60205260409020600101546001600160a01b0316331461128e5760405162461bcd60e51b815260206004820152601f60248201527f4f6e6c79206f7267616e697a65722063616e2072656d6f7665206576656e740060448201526064016109e8565b6000828152600c6020526040902060070154156112ed5760405162461bcd60e51b815260206004820152601c60248201527f4576656e74207374696c6c20686173207469636b65742074797065730000000060448201526064016109e8565b6000828152600c602052604081208181556001810180546001600160a01b03191690559061131e6002830182614d50565b6003820160009055600482016000905560058201600061133e9190614d50565b61134c600683016000614d50565b61135a600783016000614d8a565b505060405182815233907f6e3bc81a96d2f5065ad94a6a93273d83748be7ace6c49f293c543738f62a5b6a9060200160405180910390a25050565b61139f3382614242565b6113bb5760405162461bcd60e51b81526004016109e8906158c6565b6111bf8383836142c0565b6113de600080516020615cd883398151915233612689565b6113fa5760405162461bcd60e51b81526004016109e89061587a565b6000818152600e6020526040902060040154600160a81b900460ff166114565760405162461bcd60e51b81526020600482015260116024820152705469636b6574206e6f7420757361626c6560781b60448201526064016109e8565b6000818152600e602090815260408083206001908101548452600c90925290912001546001600160a01b031633146114c45760405162461bcd60e51b81526020600482015260116024820152702737ba103a34329037b933b0b734bd32b960791b60448201526064016109e8565b6000818152600e60209081526040808320600101548352600c9091529020600401541561154d576000818152600e60209081526040808320600101548352600c909152902060040154421061154d5760405162461bcd60e51b815260206004820152600f60248201526e115d995b9d081a185cc8195b991959608a1b60448201526064016109e8565b6000818152600e60209081526040808320600101548352600c9091529020600301544210156115b65760405162461bcd60e51b8152602060048201526015602482015274115d995b9d081a185cc81b9bdd081cdd185c9d1959605a1b60448201526064016109e8565b6000818152600e602052604090819020600401805460ff60a81b191690555133907f31684b65477a7d1fd4edef84ea40d8f3d6c7531a2e48dfdf9c8c55c8ec5496f9906116069084815260200190565b60405180910390a250565b611629600080516020615cd883398151915233612689565b6116455760405162461bcd60e51b81526004016109e89061587a565b6000868152600c6020526040902054156116985760405162461bcd60e51b81526020600482015260146024820152734576656e7420616c72656164792065786973747360601b60448201526064016109e8565b600b805460018181019092557f0175b7a638427703f0dbe7bb9bbf987a2551717b34e79f33b5b1008d1fa01db9018790556000878152600c6020908152604090912088815591820180546001600160a01b0319163317905586516117029260020191880190614da8565b506000868152600c60209081526040909120855161172892600590920191870190614da8565b506000868152600c60209081526040909120845161174e92600690920191860190614da8565b506000868152600c602052604090819020600381018490556004018290555133907f7504b7211fc397a6d4b4a91cead765e14abf7680c1e7671c31087fc8d2c7256e906117a690899089908990899089908990615914565b60405180910390a2505050505050565b6000828152600f6020526040902060068101546001600160a01b03163314156118215760405162461bcd60e51b815260206004820152601a60248201527f43616e6e6f742062757920796f7572206f776e207469636b657400000000000060448201526064016109e8565b600481810154600a546006840154604051636eb1769f60e11b81526001600160a01b0391821694810194909452306024850152919291169063dd62ed3e9060440160206040518083038186803b15801561187a57600080fd5b505afa15801561188e573d6000803e3d6000fd5b505050506040513d601f19601f820116820180604052508101906118b29190615693565b10156118d05760405162461bcd60e51b81526004016109e8906156ac565b60038101829055600a5460068201546004808401546040516323b872dd60e01b81526001600160a01b0393841692810192909252336024830152604482015260009291909116906323b872dd90606401602060405180830381600087803b15801561193a57600080fd5b505af115801561194e573d6000803e3d6000fd5b505050506040513d601f19601f8201168201806040525081019061197291906156e3565b9050806119915760405162461bcd60e51b81526004016109e890615700565b600682015460038301546119b29133916001600160a01b039091169061445c565b60068201805460ff60a01b198116600160a01b178255600580850180546001600160a01b0319908116339081179092556003870180546000908152600e60209081526040808320600490810180549096166001600160a01b03998a1617909555835483528083208501805460ff60a81b1916600160a81b179055975460018b015460028c01549454818552600c84528a852086865260090190935292899020948b0154985195989716968c967f7290e6fa19a97e2b68363bf3455b9fa2fa8b741ea3cb84b7b3eabcb93fd246ec96611a9196949594909101919061582b565b60405180910390a45050506000908152600f60205260408120818155600181018290556002810182905560038101829055600481018290556005810180546001600160a01b03191690556006810180546001600160a81b03191690556007810191909155600801805461ffff19169055565b600082815260208190526040902060010154611b1e816144d3565b6111bf83836144dd565b6001600160a01b0381163314611b985760405162461bcd60e51b815260206004820152602f60248201527f416363657373436f6e74726f6c3a2063616e206f6e6c792072656e6f756e636560448201526e103937b632b9903337b91039b2b63360891b60648201526084016109e8565b611ba28282614561565b5050565b600a546040516370a0823160e01b81523360048201526000916001600160a01b0316906370a082319060240160206040518083038186803b158015611bea57600080fd5b505afa158015611bfe573d6000803e3d6000fd5b505050506040513d601f19601f82011682018060405250810190611c229190615693565b905080821115611c745760405162461bcd60e51b815260206004820152601a60248201527f4e6f7420656e6f75676820746f2062652077697468647261776e00000000000060448201526064016109e8565b601054821115611cc65760405162461bcd60e51b815260206004820152601e60248201527f57697468647261772069732063757272656e746c792064697361626c6564000060448201526064016109e8565b604051600090339084156108fc0290859084818181858888f19350505050905080611d215760405162461bcd60e51b815260206004820152600b60248201526a1cd95b990819985a5b195960aa1b60448201526064016109e8565b600a54604051632770a7eb60e21b8152336004820152602481018590526001600160a01b0390911690639dc29fac90604401600060405180830381600087803b158015611d6d57600080fd5b505af1158015611d81573d6000803e3d6000fd5b50506040518581523392507f884edad9ce6fa2440d8a54cc123490eb96d2768479d49ff9c7366125a9424364915060200160405180910390a28260106000828254611dcc9190615969565b9091555050505050565b600a5460405163d505accf60e01b81526001600160a01b039091169063d505accf90611e1290339030908a908a908a908a908a90600401615980565b600060405180830381600087803b158015611e2c57600080fd5b505af1158015611e40573d6000803e3d6000fd5b505050505050505050565b6111bf8383836040518060200160405280600081525061343a565b611e7e600080516020615cb883398151915233612689565b611ec35760405162461bcd60e51b815260206004820152601660248201527521b0b63632b91034b9903737ba1030b71037bbb732b960511b60448201526064016109e8565b600060115411611f155760405162461bcd60e51b815260206004820152601a60248201527f4e6f7420656e6f75676820746f2062652077697468647261776e00000000000060448201526064016109e8565b601154604051600091339181156108fc02919084818181858888f19350505050905080611f725760405162461bcd60e51b815260206004820152600b60248201526a1cd95b990819985a5b195960aa1b60448201526064016109e8565b60115460405190815233907f884edad9ce6fa2440d8a54cc123490eb96d2768479d49ff9c7366125a94243649060200160405180910390a2506000601155565b611fca600080516020615cb883398151915233612689565b611fe65760405162461bcd60e51b81526004016109e8906159c1565b600980546001600160a01b0319166001600160a01b0392909216919091179055565b6000868152600c602052604090205486906120355760405162461bcd60e51b81526004016109e89061562e565b61204d600080516020615cd883398151915233612689565b6120695760405162461bcd60e51b81526004016109e89061587a565b6000878152600c60205260409020600101546001600160a01b031633146120d25760405162461bcd60e51b815260206004820152601d60248201527f4f6e6c79206f7267616e697a65722063616e2065646974206576656e7400000060448201526064016109e8565b6000878152600c6020908152604090912087516120f792600290920191890190614da8565b506000878152600c60209081526040909120865161211d92600590920191880190614da8565b506000878152600c60209081526040909120855161214392600690920191870190614da8565b506000878152600c602052604090819020600381018590556004018390555133907fc261b9e16c24735219b284c636efee4491a482920a229627b9f62b9eec64cf269061219b908a908a908a908a908a908a90615914565b60405180910390a250505050505050565b6121c4600080516020615cb883398151915233612689565b6121e05760405162461bcd60e51b81526004016109e8906159c1565b600a80546001600160a01b0319166001600160a01b0392909216919091179055565b6000818152600360205260408120546001600160a01b0316806109b55760405162461bcd60e51b8152602060048201526018602482015277115490cdcc8c4e881a5b9d985b1a59081d1bdad95b88125160421b60448201526064016109e8565b60006001600160a01b0382166122cc5760405162461bcd60e51b815260206004820152602960248201527f4552433732313a2061646472657373207a65726f206973206e6f7420612076616044820152683634b21037bbb732b960b91b60648201526084016109e8565b506001600160a01b031660009081526004602052604090205490565b6040805160e081018252600080825260208201819052918101829052606081018290526080810182905260a0810182905260c081019190915260008281526003602052604090205482906001600160a01b031661237f5760405162461bcd60e51b8152602060048201526015602482015274151a58dad95d08191bd95cc81b9bdd08195e1a5cdd605a1b60448201526064016109e8565b6000838152600e6020908152604091829020825160e08101845281548152600182015492810192909252600281015492820192909252600382015460608201526004909101546001600160a01b038116608083015260ff600160a01b82048116151560a0840152600160a81b90910416151560c082015291505b50919050565b6000818152600c60205260408120546060908190819084908190839088906124395760405162461bcd60e51b81526004016109e89061562e565b6000898152600c602052604090206001810154600382015460048301546002840180546001600160a01b03909416939092600586019260068701926007880190869061248490615756565b80601f01602080910402602001604051908101604052809291908181526020018280546124b090615756565b80156124fd5780601f106124d2576101008083540402835291602001916124fd565b820191906000526020600020905b8154815290600101906020018083116124e057829003601f168201915b5050505050955084805461251090615756565b80601f016020809104026020016040519081016040528092919081815260200182805461253c90615756565b80156125895780601f1061255e57610100808354040283529160200191612589565b820191906000526020600020905b81548152906001019060200180831161256c57829003601f168201915b5050505050945083805461259c90615756565b80601f01602080910402602001604051908101604052809291908181526020018280546125c890615756565b80156126155780601f106125ea57610100808354040283529160200191612615565b820191906000526020600020905b8154815290600101906020018083116125f857829003601f168201915b505050505093508080548060200260200160405190810160405280929190818152602001828054801561266757602002820191906000526020600020905b815481526020019060010190808311612653575b5050505050905098509850985098509850985098505050919395979092949650565b6000918252602082815260408084206001600160a01b0393909316845291905290205460ff1690565b606060028054610e2a90615756565b611ba23383836145c6565b60008181526003602052604081205482906001600160a01b031661272a5760405162461bcd60e51b8152602060048201526015602482015274151a58dad95d08191bd95cc81b9bdd08195e1a5cdd605a1b60448201526064016109e8565b823361273582612202565b6001600160a01b03161461275b5760405162461bcd60e51b81526004016109e890615a02565b6000848152600e6020908152604091829020825160e08101845281548152600182015492810192909252600281015492820192909252600382015460608201526004909101546001600160a01b038116608083015260ff600160a01b8204811615801560a0850152600160a81b90920416151560c083015261281f5760405162461bcd60e51b815260206004820152601760248201527f536f7576656e697220616c7265616479206d696e74656400000000000000000060448201526064016109e8565b8060c00151156128715760405162461bcd60e51b815260206004820152601d60248201527f5469636b6574207374696c6c206861736e2774206265656e207573656400000060448201526064016109e8565b600980546020808401516000908152600c825260408082208187015183529094019091528281209251630d385de160e01b815290926001600160a01b0390921691630d385de1916128cc913391600690910190600401615a4a565b602060405180830381600087803b1580156128e657600080fd5b505af11580156128fa573d6000803e3d6000fd5b505050506040513d601f19601f8201168201806040525081019061291e9190615693565b600160a0840152606090920182905250949350505050565b600a5460405163d505accf60e01b81526001600160a01b039091169063d505accf9061297290339030908a908a908a908a908a90600401615980565b600060405180830381600087803b15801561298c57600080fd5b505af11580156129a0573d6000803e3d6000fd5b505050506129ac614e2c565b88816000018181525050338160c001906001600160a01b031690816001600160a01b031681525050878160200181815250508681604001818152505085816080018181525050848161010001818152505060018161012001901515908115158152505060008161014001901515908115158152505080600f60008b8152602001908152602001600020600082015181600001556020820151816001015560408201518160020155606082015181600301556080820151816004015560a08201518160050160006101000a8154816001600160a01b0302191690836001600160a01b0316021790555060c08201518160060160006101000a8154816001600160a01b0302191690836001600160a01b0316021790555060e08201518160060160146101000a81548160ff02191690831515021790555061010082015181600701556101208201518160080160006101000a81548160ff0219169083151502179055506101408201518160080160016101000a81548160ff021916908315150217905550905050336001600160a01b03167f8c0532da8a9f0675da764e7b35fbb8c2c8868976193fc36ffad259ddb5675ca48a8a8a8a8a604051612b90959493929190948552602085019390935260408401919091526060830152608082015260a00190565b60405180910390a2505050505050505050565b60606109b582613661565b6000828152600c60205260409020548290612bdb5760405162461bcd60e51b81526004016109e89061562e565b6000838152600c6020908152604080832085845260090190915290205483908390612c185760405162461bcd60e51b81526004016109e89061565c565b612c30600080516020615cd883398151915233612689565b612c4c5760405162461bcd60e51b81526004016109e89061587a565b6000858152600c6020526040902060018101546001600160a01b03163314612cc45760405162461bcd60e51b815260206004820152602560248201527f4f6e6c79206f7267616e697a65722063616e2072656d6f7665207469636b6574604482015264207479706560d81b60648201526084016109e8565b6000858152600982016020526040812081815590612ce56001830182614d50565b600282016000905560038201600090556004820160009055600582016000612d0d9190614d50565b612d1b600683016000614d50565b50506000858152600882016020526040812054600783015460ff9091169190612d4690600190615a6e565b90506000836007018260ff1681548110612d6257612d62615a91565b6000918252602080832090910154808352600887019091526040808320805460ff881660ff1991821681179092558c85529190932080549091169055600786018054919350839290918110612db957612db9615a91565b60009182526020909120015560078401805480612dd857612dd8615aa7565b60019003818190600052602060002001600090559055336001600160a01b03167fb410e6f99b84b07294f81fef7fc54f574ff6305a91ad7aa82c9e05deb5ca00918a8a604051612b90929190918252602082015260400190565b6000858152600f6020526040902060058101546001600160a01b0316331415612e9d5760405162461bcd60e51b815260206004820152601a60248201527f43616e6e6f742062757920796f7572206f776e207469636b657400000000000060448201526064016109e8565b600a5460048083015460405163d505accf60e01b81526001600160a01b039093169263d505accf92612edb92339230928c918c918c918c9101615980565b600060405180830381600087803b158015612ef557600080fd5b505af1158015612f09573d6000803e3d6000fd5b50505050600481810154600a54604051636eb1769f60e11b8152339381019390935230602484015290916001600160a01b039091169063dd62ed3e9060440160206040518083038186803b158015612f6057600080fd5b505afa158015612f74573d6000803e3d6000fd5b505050506040513d601f19601f82011682018060405250810190612f989190615693565b1015612fb65760405162461bcd60e51b81526004016109e8906156ac565b600a5460058201546004808401546040516323b872dd60e01b815233928101929092526001600160a01b039283166024830152604482015260009291909116906323b872dd90606401602060405180830381600087803b15801561301957600080fd5b505af115801561302d573d6000803e3d6000fd5b505050506040513d601f19601f8201168201806040525081019061305191906156e3565b9050806130705760405162461bcd60e51b81526004016109e890615700565b6005820154600383015461308f916001600160a01b031690339061445c565b6006820180546001600160a81b03191633908117600160a01b1782556003840180546000908152600e602090815260408083206004908101805460ff60a81b1916600160a81b179055955484548452818420870180546001600160a01b0319166001600160a01b039283161790556005808a015460018b015460028c01549754818852600c875285882089895260090190965295849020988b0154935197989216968f967f74d4a4b83241ac6e92c85cb30050e3a85c7c42122aeef8712fc2f603a3a8c3cb9661316696909591949093019161582b565b60405180910390a450505060009384525050600f6020525060408120818155600181018290556002810182905560038101829055600481018290556005810180546001600160a01b03191690556006810180546001600160a81b03191690556007810191909155600801805461ffff19169055565b81336131e682612202565b6001600160a01b03161461320c5760405162461bcd60e51b81526004016109e890615a02565b613214614e2c565b86816000018181525050338160a001906001600160a01b031690816001600160a01b0316815250508581602001818152505084816040018181525050838160600181815250508281608001818152505060008161010001818152505060008161012001901515908115158152505060018161014001901515908115158152505080600f6000898152602001908152602001600020600082015181600001556020820151816001015560408201518160020155606082015181600301556080820151816004015560a08201518160050160006101000a8154816001600160a01b0302191690836001600160a01b0316021790555060c08201518160060160006101000a8154816001600160a01b0302191690836001600160a01b0316021790555060e08201518160060160146101000a81548160ff02191690831515021790555061010082015181600701556101208201518160080160006101000a81548160ff0219169083151502179055506101408201518160080160016101000a81548160ff0219169083151502179055509050506000600e600086815260200190815260200160002060040160156101000a81548160ff021916908315150217905550336001600160a01b0316877f0f27c48668db2e12a5e88bc77cf8b459181c7ee1e6264ddb55242efe89d9d03988888888604051613429949392919093845260208401929092526040830152606082015260800190565b60405180910390a350505050505050565b6134443383614242565b6134605760405162461bcd60e51b81526004016109e8906158c6565b61346c8484848461468d565b50505050565b6000878152600c6020526040902054879061349f5760405162461bcd60e51b81526004016109e89061562e565b6000888152600c602090815260408083208a8452600901909152902054889088906134dc5760405162461bcd60e51b81526004016109e89061565c565b60008a8152600c60205260409020600101546001600160a01b031633146135515760405162461bcd60e51b815260206004820152602360248201527f4f6e6c79206f7267616e697a65722063616e2065646974207469636b6574207460448201526279706560e81b60648201526084016109e8565b6040805160e0810182528a815260208082018b8152828401899052606083018890526080830188905260a083018b905260c083018a905260008e8152600c83528481208e825260090183529390932082518155925180519293849390926135bf926001850192910190614da8565b5060408201516002820155606082015160038201556080820151600482015560a082015180516135f9916005840191602090910190614da8565b5060c08201518051613615916006840191602090910190614da8565b50506040513391507ffc051c354a57b794e7a2a34dc7a0ab81839aab32ad19ecc48bc4f2a549d7e4699061364c908e908590615abd565b60405180910390a25050505050505050505050565b606061366c82614172565b6000828152600760205260408120805461368590615756565b80601f01602080910402602001604051908101604052809291908181526020018280546136b190615756565b80156136fe5780601f106136d3576101008083540402835291602001916136fe565b820191906000526020600020905b8154815290600101906020018083116136e157829003601f168201915b50505050509050600061371c60408051602081019091526000815290565b905080516000141561372f575092915050565b815115613761578082604051602001613749929190615ad6565b60405160208183030381529060405292505050919050565b61376a846146c0565b949350505050565b6000878152600c6020526040902054879061379f5760405162461bcd60e51b81526004016109e89061562e565b6137b7600080516020615cd883398151915233612689565b6137d35760405162461bcd60e51b81526004016109e89061587a565b6000888152600c60205260409020600101546001600160a01b031633146138625760405162461bcd60e51b815260206004820152603760248201527f4f6e6c7920746865206f7267616e697a6572206f662074686973206576656e7460448201527f2063616e20637265617465207469636b6574207479706500000000000000000060648201526084016109e8565b6000888152600c602090815260408083208a8452600901909152902054156138cc5760405162461bcd60e51b815260206004820152601a60248201527f5469636b6574207479706520616c72656164792065786973747300000000000060448201526064016109e8565b6040805160e0810182528881526020808201898152828401879052606083018690526080830186905260a0830189905260c0830188905260008c8152600c83528481208c8252600901835293909320825181559251805192938493909261393a926001850192910190614da8565b5060408201516002820155606082015160038201556080820151600482015560a08201518051613974916005840191602090910190614da8565b5060c08201518051613990916006840191602090910190614da8565b5050506000898152600c602081815260408084206007810180548e875260089092018452828620805460ff191660ff9093169290921790915592825282546001810184559284529220018990555133907f86f1c49c5e96f57ffd1bbdcf5973aa010e8c5bb16218eaace76fa50c7e66b5b790612b90908c908590615abd565b600a546040516340c10f1960e01b81523360048201523460248201526001600160a01b03909116906340c10f1990604401600060405180830381600087803b158015613a5a57600080fd5b505af1158015613a6e573d6000803e3d6000fd5b505050503460106000828254613a849190615862565b909155505060405134815233907fe1fffcc4923d04b559f4d29a8bfc6cda04eb5b0d3c460751c2402c5c5cc9109c9060200160405180910390a2565b613b036040518060e00160405280600080191681526020016060815260200160008152602001600081526020016000815260200160608152602001606081525090565b6000838152600c60205260409020548390613b305760405162461bcd60e51b81526004016109e89061562e565b6000848152600c6020908152604080832086845260090190915290205484908490613b6d5760405162461bcd60e51b81526004016109e89061565c565b6000868152600c60209081526040808320888452600901825291829020825160e08101909352805483526001810180549192840191613bab90615756565b80601f0160208091040260200160405190810160405280929190818152602001828054613bd790615756565b8015613c245780601f10613bf957610100808354040283529160200191613c24565b820191906000526020600020905b815481529060010190602001808311613c0757829003601f168201915b50505050508152602001600282015481526020016003820154815260200160048201548152602001600582018054613c5b90615756565b80601f0160208091040260200160405190810160405280929190818152602001828054613c8790615756565b8015613cd45780601f10613ca957610100808354040283529160200191613cd4565b820191906000526020600020905b815481529060010190602001808311613cb757829003601f168201915b50505050508152602001600682018054613ced90615756565b80601f0160208091040260200160405190810160405280929190818152602001828054613d1990615756565b8015613d665780601f10613d3b57610100808354040283529160200191613d66565b820191906000526020600020905b815481529060010190602001808311613d4957829003601f168201915b505050505081525050935050505092915050565b600082815260208190526040902060010154613d95816144d3565b6111bf8383614561565b613da7614e2c565b6000828152600f60205260409020548290613dfb5760405162461bcd60e51b815260206004820152601460248201527313d999995c88191bd95cc81b9bdd08195e1a5cdd60621b60448201526064016109e8565b50506000908152600f602090815260409182902082516101608101845281548152600182015492810192909252600281015492820192909252600382015460608201526004820154608082015260058201546001600160a01b0390811660a0830152600683015490811660c0830152600160a01b900460ff908116151560e0830152600783015461010080840191909152600890930154808216151561012084015292909204909116151561014082015290565b613ec7600080516020615cb883398151915233612689565b613ee35760405162461bcd60e51b81526004016109e8906159c1565b601255565b6000818152600f6020526040902060068101546001600160a01b031633148015613f1b5750600881015460ff1615156001145b80613f46575060058101546001600160a01b031633148015613f465750600881015460ff1615156001145b613f925760405162461bcd60e51b815260206004820152601760248201527f4e6f7420746865206275796572206f722073656c6c657200000000000000000060448201526064016109e8565b6006810154600160a01b900460ff1615613fe75760405162461bcd60e51b815260206004820152601660248201527513d999995c88185b1c9958591e481858d8d95c1d195960521b60448201526064016109e8565b6000828152600f602081815260408084206003810180548652600e84528286206004908101805460ff60a81b1916600160a81b179055888752949093528481556001810185905560028101859055918490559181018390556005810180546001600160a01b03191690556006810180546001600160a81b031916905560078101839055600801805461ffff1916905551339184917f74aeca155f6310e463cf88472fe14b61a7990f14c88a8f0a03b10306a88da8429190a35050565b60006001600160e01b031982166380ac58cd60e01b14806140d457506001600160e01b03198216635b5e139f60e01b145b806109b557506109b582614734565b60006140f3600880546001019055565b60006140fe60085490565b905061410a8482614769565b61411481846148ab565b836001600160a01b0316336001600160a01b03167f3bfd449b4868a01647da19bf179397e8853acef45f717b1a679952bc67693cdd8386604051614159929190615b05565b60405180910390a39392505050565b611ba282826144dd565b6000818152600360205260409020546001600160a01b03166141d15760405162461bcd60e51b8152602060048201526018602482015277115490cdcc8c4e881a5b9d985b1a59081d1bdad95b88125160421b60448201526064016109e8565b50565b600081815260056020526040902080546001600160a01b0319166001600160a01b038416908117909155819061420982612202565b6001600160a01b03167f8c5be1e5ebec7d5bd14f71427d1e84f3dd0314c0f7b2291e5b200ac8c7c3b92560405160405180910390a45050565b60008061424e83612202565b9050806001600160a01b0316846001600160a01b0316148061429557506001600160a01b0380821660009081526006602090815260408083209388168352929052205460ff165b8061376a5750836001600160a01b03166142ae84611087565b6001600160a01b031614949350505050565b826001600160a01b03166142d382612202565b6001600160a01b0316146143375760405162461bcd60e51b815260206004820152602560248201527f4552433732313a207472616e736665722066726f6d20696e636f72726563742060448201526437bbb732b960d91b60648201526084016109e8565b6001600160a01b0382166143995760405162461bcd60e51b8152602060048201526024808201527f4552433732313a207472616e7366657220746f20746865207a65726f206164646044820152637265737360e01b60648201526084016109e8565b6143a46000826141d4565b6001600160a01b03831660009081526004602052604081208054600192906143cd908490615969565b90915550506001600160a01b03821660009081526004602052604081208054600192906143fb908490615862565b909155505060008181526003602052604080822080546001600160a01b0319166001600160a01b0386811691821790925591518493918716917fddf252ad1be2c89b69c2b068fc378daa952ba7f163c4a11628f55a4df523b3ef91a4505050565b6144678383836142c0565b6000818152600e602090815260409182902060040180546001600160a01b0319166001600160a01b038681169182179092559251848152908616917f235a69dc2480d40b13f4bee2b08a32b678f03ca558ff46eba22ce16ace78b6ad91015b60405180910390a3505050565b6141d18133614945565b6144e78282612689565b611ba2576000828152602081815260408083206001600160a01b03851684529091529020805460ff1916600117905561451d3390565b6001600160a01b0316816001600160a01b0316837f2f8788117e7eff1d82e926ec794901d17c78024a50270940304540a733656f0d60405160405180910390a45050565b61456b8282612689565b15611ba2576000828152602081815260408083206001600160a01b0385168085529252808320805460ff1916905551339285917ff6391f5c32d9c69d2a47ea670b442974b53935d1edc7fd64eb21e047a839171b9190a45050565b816001600160a01b0316836001600160a01b031614156146285760405162461bcd60e51b815260206004820152601960248201527f4552433732313a20617070726f766520746f2063616c6c65720000000000000060448201526064016109e8565b6001600160a01b03838116600081815260066020908152604080832094871680845294825291829020805460ff191686151590811790915591519182527f17307eab39ab6107e8899845ad3d59bd9653f200f220920489ca2b5937696c3191016144c6565b6146988484846142c0565b6146a4848484846149a9565b61346c5760405162461bcd60e51b81526004016109e890615b1e565b60606146cb82614172565b60006146e260408051602081019091526000815290565b90506000815111614702576040518060200160405280600081525061472d565b8061470c84614ab6565b60405160200161471d929190615ad6565b6040516020818303038152906040525b9392505050565b60006001600160e01b03198216637965db0b60e01b14806109b557506301ffc9a760e01b6001600160e01b03198316146109b5565b6001600160a01b0382166147bf5760405162461bcd60e51b815260206004820181905260248201527f4552433732313a206d696e7420746f20746865207a65726f206164647265737360448201526064016109e8565b6000818152600360205260409020546001600160a01b0316156148245760405162461bcd60e51b815260206004820152601c60248201527f4552433732313a20746f6b656e20616c7265616479206d696e7465640000000060448201526064016109e8565b6001600160a01b038216600090815260046020526040812080546001929061484d908490615862565b909155505060008181526003602052604080822080546001600160a01b0319166001600160a01b03861690811790915590518392907fddf252ad1be2c89b69c2b068fc378daa952ba7f163c4a11628f55a4df523b3ef908290a45050565b6000828152600360205260409020546001600160a01b03166149265760405162461bcd60e51b815260206004820152602e60248201527f45524337323155524953746f726167653a2055524920736574206f66206e6f6e60448201526d32bc34b9ba32b73a103a37b5b2b760911b60648201526084016109e8565b600082815260076020908152604090912082516111bf92840190614da8565b61494f8282612689565b611ba257614967816001600160a01b03166014614bb4565b614972836020614bb4565b604051602001614983929190615b70565b60408051601f198184030181529082905262461bcd60e51b82526109e891600401614f79565b60006001600160a01b0384163b15614aab57604051630a85bd0160e11b81526001600160a01b0385169063150b7a02906149ed903390899088908890600401615be5565b602060405180830381600087803b158015614a0757600080fd5b505af1925050508015614a37575060408051601f3d908101601f19168201909252614a3491810190615c22565b60015b614a91573d808015614a65576040519150601f19603f3d011682016040523d82523d6000602084013e614a6a565b606091505b508051614a895760405162461bcd60e51b81526004016109e890615b1e565b805181602001fd5b6001600160e01b031916630a85bd0160e11b14905061376a565b506001949350505050565b606081614ada5750506040805180820190915260018152600360fc1b602082015290565b8160005b8115614b045780614aee81615c3f565b9150614afd9050600a83615c70565b9150614ade565b60008167ffffffffffffffff811115614b1f57614b1f61500b565b6040519080825280601f01601f191660200182016040528015614b49576020820181803683370190505b5090505b841561376a57614b5e600183615969565b9150614b6b600a86615c84565b614b76906030615862565b60f81b818381518110614b8b57614b8b615a91565b60200101906001600160f81b031916908160001a905350614bad600a86615c70565b9450614b4d565b60606000614bc3836002615c98565b614bce906002615862565b67ffffffffffffffff811115614be657614be661500b565b6040519080825280601f01601f191660200182016040528015614c10576020820181803683370190505b509050600360fc1b81600081518110614c2b57614c2b615a91565b60200101906001600160f81b031916908160001a905350600f60fb1b81600181518110614c5a57614c5a615a91565b60200101906001600160f81b031916908160001a9053506000614c7e846002615c98565b614c89906001615862565b90505b6001811115614d01576f181899199a1a9b1b9c1cb0b131b232b360811b85600f1660108110614cbd57614cbd615a91565b1a60f81b828281518110614cd357614cd3615a91565b60200101906001600160f81b031916908160001a90535060049490941c93614cfa8161573f565b9050614c8c565b50831561472d5760405162461bcd60e51b815260206004820181905260248201527f537472696e67733a20686578206c656e67746820696e73756666696369656e7460448201526064016109e8565b508054614d5c90615756565b6000825580601f10614d6c575050565b601f0160209004906000526020600020908101906141d19190614e88565b50805460008255906000526020600020908101906141d19190614e88565b828054614db490615756565b90600052602060002090601f016020900481019282614dd65760008555614e1c565b82601f10614def57805160ff1916838001178555614e1c565b82800160010185558215614e1c579182015b82811115614e1c578251825591602001919060010190614e01565b50614e28929150614e88565b5090565b6040805161016081018252600080825260208201819052918101829052606081018290526080810182905260a0810182905260c0810182905260e081018290526101008101829052610120810182905261014081019190915290565b5b80821115614e285760008155600101614e89565b6001600160e01b0319811681146141d157600080fd5b600060208284031215614ec557600080fd5b813561472d81614e9d565b80356001600160a01b0381168114614ee757600080fd5b919050565b600080600060608486031215614f0157600080fd5b8335925060208401359150614f1860408501614ed0565b90509250925092565b60005b83811015614f3c578181015183820152602001614f24565b8381111561346c5750506000910152565b60008151808452614f65816020860160208601614f21565b601f01601f19169290920160200192915050565b60208152600061472d6020830184614f4d565b600060208284031215614f9e57600080fd5b5035919050565b60008060408385031215614fb857600080fd5b614fc183614ed0565b946020939093013593505050565b600080600060608486031215614fe457600080fd5b614fed84614ed0565b9250614ffb60208501614ed0565b9150604084013590509250925092565b634e487b7160e01b600052604160045260246000fd5b600067ffffffffffffffff8084111561503c5761503c61500b565b604051601f8501601f19908116603f011681019082821181831017156150645761506461500b565b8160405280935085815286868601111561507d57600080fd5b858560208301376000602087830101525050509392505050565b600082601f8301126150a857600080fd5b61472d83833560208501615021565b60008060008060008060c087890312156150d057600080fd5b86359550602087013567ffffffffffffffff808211156150ef57600080fd5b6150fb8a838b01615097565b9650604089013591508082111561511157600080fd5b61511d8a838b01615097565b9550606089013591508082111561513357600080fd5b5061514089828a01615097565b9350506080870135915060a087013590509295509295509295565b6000806040838503121561516e57600080fd5b50508035926020909101359150565b6000806040838503121561519057600080fd5b823591506151a060208401614ed0565b90509250929050565b803560ff81168114614ee757600080fd5b600080600080600060a086880312156151d257600080fd5b85359450602086013593506151e9604087016151a9565b94979396509394606081013594506080013592915050565b60006020828403121561521357600080fd5b61472d82614ed0565b6001600160a01b038816815260e060208083018290526000916152419084018a614f4d565b8381036040850152615253818a614f4d565b905083810360608501526152678189614f4d565b6080850188905260a0850187905284810360c0860152855180825283870192509083019060005b818110156152aa5783518352928401929184019160010161528e565b50909c9b505050505050505050505050565b80151581146141d157600080fd5b600080604083850312156152dd57600080fd5b6152e683614ed0565b915060208301356152f6816152bc565b809150509250929050565b600080600080600080600080610100898b03121561531e57600080fd5b883597506020890135965060408901359550606089013594506080890135935061534a60a08a016151a9565b925060c0890135915060e089013590509295985092959890939650565b600080600080600060a0868803121561537f57600080fd5b505083359560208501359550604085013594606081013594506080013592509050565b600080600080608085870312156153b857600080fd5b6153c185614ed0565b93506153cf60208601614ed0565b925060408501359150606085013567ffffffffffffffff8111156153f257600080fd5b8501601f8101871361540357600080fd5b61541287823560208401615021565b91505092959194509250565b600080600080600080600060e0888a03121561543957600080fd5b8735965060208801359550604088013567ffffffffffffffff8082111561545f57600080fd5b61546b8b838c01615097565b965060608a013591508082111561548157600080fd5b61548d8b838c01615097565b955060808a01359150808211156154a357600080fd5b506154b08a828b01615097565b93505060a0880135915060c0880135905092959891949750929550565b805182526000602082015160e060208501526154ec60e0850182614f4d565b905060408301516040850152606083015160608501526080830151608085015260a083015184820360a08601526155238282614f4d565b91505060c083015184820360c086015261553d8282614f4d565b95945050505050565b60208152600061472d60208301846154cd565b600061016082019050825182526020830151602083015260408301516040830152606083015160608301526080830151608083015260a08301516155a860a08401826001600160a01b03169052565b5060c08301516155c360c08401826001600160a01b03169052565b5060e08301516155d760e084018215159052565b50610100838101519083015261012080840151151590830152610140928301511515929091019190915290565b6000806040838503121561561757600080fd5b61562083614ed0565b91506151a060208401614ed0565b602080825260149082015273115d995b9d08191bd95cc81b9bdd08195e1a5cdd60621b604082015260600190565b6020808252601a908201527f5469636b6574207479706520646f6573206e6f74206578697374000000000000604082015260600190565b6000602082840312156156a557600080fd5b5051919050565b60208082526017908201527f546f6b656e20616c6c6f77616e636520746f6f206c6f77000000000000000000604082015260600190565b6000602082840312156156f557600080fd5b815161472d816152bc565b6020808252600f908201526e1d1c985b9cd9995c8819985a5b1959608a1b604082015260600190565b634e487b7160e01b600052601160045260246000fd5b60008161574e5761574e615729565b506000190190565b600181811c9082168061576a57607f821691505b602082108114156123f957634e487b7160e01b600052602260045260246000fd5b8054600090600181811c90808316806157a557607f831692505b60208084108214156157c757634e487b7160e01b600052602260045260246000fd5b838852602088018280156157e257600181146157f35761581e565b60ff1987168252828201975061581e565b60008981526020902060005b87811015615818578154848201529086019084016157ff565b83019850505b5050505050505092915050565b85815284602082015283604082015260a06060820152600061585060a083018561578b565b90508260808301529695505050505050565b6000821982111561587557615875615729565b500190565b6020808252602c908201527f4f6e6c79206576656e74206f7267616e697a6572732063616e2063616c6c207460408201526b3434b990333ab731ba34b7b760a11b606082015260800190565b6020808252602e908201527f4552433732313a2063616c6c6572206973206e6f7420746f6b656e206f776e6560408201526d1c881b9bdc88185c1c1c9bdd995960921b606082015260800190565b86815260c06020820152600061592d60c0830188614f4d565b828103604084015261593f8188614f4d565b905082810360608401526159538187614f4d565b6080840195909552505060a00152949350505050565b60008282101561597b5761597b615729565b500390565b6001600160a01b0397881681529590961660208601526040850193909352606084019190915260ff16608083015260a082015260c081019190915260e00190565b60208082526021908201527f4f6e6c79206f776e65722063616e2063616c6c20746869732066756e6374696f6040820152603760f91b606082015260800190565b60208082526028908201527f4f6e6c79207469636b6574206f776e65722063616e2063616c6c207468697320604082015267333ab731ba34b7b760c11b606082015260800190565b6001600160a01b038316815260406020820181905260009061376a9083018461578b565b600060ff821660ff841680821015615a8857615a88615729565b90039392505050565b634e487b7160e01b600052603260045260246000fd5b634e487b7160e01b600052603160045260246000fd5b82815260406020820152600061376a60408301846154cd565b60008351615ae8818460208801614f21565b835190830190615afc818360208801614f21565b01949350505050565b82815260406020820152600061376a6040830184614f4d565b60208082526032908201527f4552433732313a207472616e7366657220746f206e6f6e20455243373231526560408201527131b2b4bb32b91034b6b83632b6b2b73a32b960711b606082015260800190565b7f416363657373436f6e74726f6c3a206163636f756e7420000000000000000000815260008351615ba8816017850160208801614f21565b7001034b99036b4b9b9b4b733903937b6329607d1b6017918401918201528351615bd9816028840160208801614f21565b01602801949350505050565b6001600160a01b0385811682528416602082015260408101839052608060608201819052600090615c1890830184614f4d565b9695505050505050565b600060208284031215615c3457600080fd5b815161472d81614e9d565b6000600019821415615c5357615c53615729565b5060010190565b634e487b7160e01b600052601260045260246000fd5b600082615c7f57615c7f615c5a565b500490565b600082615c9357615c93615c5a565b500690565b6000816000190483118215151615615cb257615cb2615729565b50029056feb19546dff01e856fb3f010c267a7b1c60363cf8a4664e21cc89c26224620214e4d2e7a1e3f5dd6e203f087b15756ccf0e4ccd947fe1b639a38540089a1e47f63a2646970667358221220ff2915fe621dd2181a11eb69e94b8be10424114048627158e1af90dca24b6b6f64736f6c63430008090033",
  "linkReferences": {},
  "deployedLinkReferences": {}
}