{
  "_format": "hh-sol-artifact-1",
  "contractName": "TIK",
  "sourceName": "contracts/TIK.sol",
  "abi": [
    {
      "inputs": [],
      "stateMutability": "nonpayable",
      "type": "constructor"
    },
    {
      "anonymous": false,
      "inputs": [
        {
          "indexed": true,
          "internalType": "address",
          "name": "owner",
          "type": "address"
        },
        {
          "indexed": true,
          "internalType": "address",
          "name": "spender",
          "type": "address"
        },
        {
          "indexed": false,
          "internalType": "uint256",
          "name": "value",
          "type": "uint256"
        }
      ],
      "name": "Approval",
      "type": "event"
    },
    {
      "anonymous": false,
      "inputs": [
        {
          "indexed": true,
          "internalType": "address",
          "name": "previousOwner",
          "type": "address"
        },
        {
          "indexed": true,
          "internalType": "address",
          "name": "newOwner",
          "type": "address"
        }
      ],
      "name": "OwnershipTransferred",
      "type": "event"
    },
    {
      "anonymous": false,
      "inputs": [
        {
          "indexed": true,
          "internalType": "address",
          "name": "from",
          "type": "address"
        },
        {
          "indexed": true,
          "internalType": "address",
          "name": "to",
          "type": "address"
        },
        {
          "indexed": false,
          "internalType": "uint256",
          "name": "value",
          "type": "uint256"
        }
      ],
      "name": "Transfer",
      "type": "event"
    },
    {
      "inputs": [],
      "name": "DOMAIN_SEPARATOR",
      "outputs": [
        {
          "internalType": "bytes32",
          "name": "",
          "type": "bytes32"
        }
      ],
      "stateMutability": "view",
      "type": "function"
    },
    {
      "inputs": [],
      "name": "PERMIT_TYPEHASH",
      "outputs": [
        {
          "internalType": "bytes32",
          "name": "",
          "type": "bytes32"
        }
      ],
      "stateMutability": "view",
      "type": "function"
    },
    {
      "inputs": [
        {
          "internalType": "address",
          "name": "owner",
          "type": "address"
        },
        {
          "internalType": "address",
          "name": "spender",
          "type": "address"
        }
      ],
      "name": "allowance",
      "outputs": [
        {
          "internalType": "uint256",
          "name": "",
          "type": "uint256"
        }
      ],
      "stateMutability": "view",
      "type": "function"
    },
    {
      "inputs": [
        {
          "internalType": "address",
          "name": "spender",
          "type": "address"
        },
        {
          "internalType": "uint256",
          "name": "amount",
          "type": "uint256"
        }
      ],
      "name": "approve",
      "outputs": [
        {
          "internalType": "bool",
          "name": "",
          "type": "bool"
        }
      ],
      "stateMutability": "nonpayable",
      "type": "function"
    },
    {
      "inputs": [
        {
          "internalType": "address",
          "name": "account",
          "type": "address"
        }
      ],
      "name": "balanceOf",
      "outputs": [
        {
          "internalType": "uint256",
          "name": "",
          "type": "uint256"
        }
      ],
      "stateMutability": "view",
      "type": "function"
    },
    {
      "inputs": [
        {
          "internalType": "address",
          "name": "account",
          "type": "address"
        },
        {
          "internalType": "uint256",
          "name": "amount",
          "type": "uint256"
        }
      ],
      "name": "burn",
      "outputs": [],
      "stateMutability": "nonpayable",
      "type": "function"
    },
    {
      "inputs": [],
      "name": "decimals",
      "outputs": [
        {
          "internalType": "uint8",
          "name": "",
          "type": "uint8"
        }
      ],
      "stateMutability": "view",
      "type": "function"
    },
    {
      "inputs": [
        {
          "internalType": "address",
          "name": "spender",
          "type": "address"
        },
        {
          "internalType": "uint256",
          "name": "subtractedValue",
          "type": "uint256"
        }
      ],
      "name": "decreaseAllowance",
      "outputs": [
        {
          "internalType": "bool",
          "name": "",
          "type": "bool"
        }
      ],
      "stateMutability": "nonpayable",
      "type": "function"
    },
    {
      "inputs": [
        {
          "internalType": "address",
          "name": "spender",
          "type": "address"
        },
        {
          "internalType": "uint256",
          "name": "addedValue",
          "type": "uint256"
        }
      ],
      "name": "increaseAllowance",
      "outputs": [
        {
          "internalType": "bool",
          "name": "",
          "type": "bool"
        }
      ],
      "stateMutability": "nonpayable",
      "type": "function"
    },
    {
      "inputs": [
        {
          "internalType": "address",
          "name": "account",
          "type": "address"
        },
        {
          "internalType": "uint256",
          "name": "amount",
          "type": "uint256"
        }
      ],
      "name": "mint",
      "outputs": [],
      "stateMutability": "nonpayable",
      "type": "function"
    },
    {
      "inputs": [],
      "name": "name",
      "outputs": [
        {
          "internalType": "string",
          "name": "",
          "type": "string"
        }
      ],
      "stateMutability": "view",
      "type": "function"
    },
    {
      "inputs": [
        {
          "internalType": "address",
          "name": "",
          "type": "address"
        }
      ],
      "name": "nonces",
      "outputs": [
        {
          "internalType": "uint256",
          "name": "",
          "type": "uint256"
        }
      ],
      "stateMutability": "view",
      "type": "function"
    },
    {
      "inputs": [],
      "name": "owner",
      "outputs": [
        {
          "internalType": "address",
          "name": "",
          "type": "address"
        }
      ],
      "stateMutability": "view",
      "type": "function"
    },
    {
      "inputs": [
        {
          "internalType": "address",
          "name": "owner",
          "type": "address"
        },
        {
          "internalType": "address",
          "name": "spender",
          "type": "address"
        },
        {
          "internalType": "uint256",
          "name": "value",
          "type": "uint256"
        },
        {
          "internalType": "uint256",
          "name": "deadline",
          "type": "uint256"
        },
        {
          "internalType": "uint8",
          "name": "v",
          "type": "uint8"
        },
        {
          "internalType": "bytes32",
          "name": "r",
          "type": "bytes32"
        },
        {
          "internalType": "bytes32",
          "name": "s",
          "type": "bytes32"
        }
      ],
      "name": "permit",
      "outputs": [],
      "stateMutability": "nonpayable",
      "type": "function"
    },
    {
      "inputs": [],
      "name": "renounceOwnership",
      "outputs": [],
      "stateMutability": "nonpayable",
      "type": "function"
    },
    {
      "inputs": [
        {
          "internalType": "address",
          "name": "_ticketContractAddress",
          "type": "address"
        }
      ],
      "name": "setTicketContractAddress",
      "outputs": [],
      "stateMutability": "nonpayable",
      "type": "function"
    },
    {
      "inputs": [],
      "name": "symbol",
      "outputs": [
        {
          "internalType": "string",
          "name": "",
          "type": "string"
        }
      ],
      "stateMutability": "view",
      "type": "function"
    },
    {
      "inputs": [],
      "name": "totalSupply",
      "outputs": [
        {
          "internalType": "uint256",
          "name": "",
          "type": "uint256"
        }
      ],
      "stateMutability": "view",
      "type": "function"
    },
    {
      "inputs": [
        {
          "internalType": "address",
          "name": "to",
          "type": "address"
        },
        {
          "internalType": "uint256",
          "name": "amount",
          "type": "uint256"
        }
      ],
      "name": "transfer",
      "outputs": [
        {
          "internalType": "bool",
          "name": "",
          "type": "bool"
        }
      ],
      "stateMutability": "nonpayable",
      "type": "function"
    },
    {
      "inputs": [
        {
          "internalType": "address",
          "name": "from",
          "type": "address"
        },
        {
          "internalType": "address",
          "name": "to",
          "type": "address"
        },
        {
          "internalType": "uint256",
          "name": "amount",
          "type": "uint256"
        }
      ],
      "name": "transferFrom",
      "outputs": [
        {
          "internalType": "bool",
          "name": "",
          "type": "bool"
        }
      ],
      "stateMutability": "nonpayable",
      "type": "function"
    },
    {
      "inputs": [
        {
          "internalType": "address",
          "name": "newOwner",
          "type": "address"
        }
      ],
      "name": "transferOwnership",
      "outputs": [],
      "stateMutability": "nonpayable",
      "type": "function"
    }
  ],
  "bytecode": "0x60806040523480156200001157600080fd5b506040518060400160405280600c81526020016b2a34b1b5b2ba102a37b5b2b760a11b8152506040518060400160405280600381526020016254494b60e81b81525081600390805190602001906200006b929190620001c7565b50805162000081906004906020840190620001c7565b5050506200009e620000986200017160201b60201c565b62000175565b604080518082018252600c81526b2a34b1b5b2ba102a37b5b2b760a11b6020918201528151808301835260018152603160f81b9082015281517f91ab3d17e3a50a9d89e63fd30b92be7f5336b03b287bb946787a83a9d62a2766818301527f2709693daf54a2fe46ad2ed2252288b4b7b045a341a4dbb02cba3bc4f8029bf6818401527fc89efdaa54c0f20c7adf612882df0950f5a951637e0307cdcb4c672f298b8bc66060820152306080808301919091528351808303909101815260a09091019092528151910120600655620002aa565b3390565b600580546001600160a01b038381166001600160a01b0319831681179093556040519116919082907f8be0079c531659141344cd1fd0a4f28419497f9722a3daafe3b4186f6b6457e090600090a35050565b828054620001d5906200026d565b90600052602060002090601f016020900481019282620001f9576000855562000244565b82601f106200021457805160ff191683800117855562000244565b8280016001018555821562000244579182015b828111156200024457825182559160200191906001019062000227565b506200025292915062000256565b5090565b5b8082111562000252576000815560010162000257565b600181811c908216806200028257607f821691505b60208210811415620002a457634e487b7160e01b600052602260045260246000fd5b50919050565b61113380620002ba6000396000f3fe608060405234801561001057600080fd5b50600436106101375760003560e01c8063715018a6116100b85780639dc29fac1161007c5780639dc29fac14610290578063a457c2d7146102a3578063a9059cbb146102b6578063d505accf146102c9578063dd62ed3e146102dc578063f2fde38b146102ef57600080fd5b8063715018a6146102325780637ecebe001461023a5780638da5cb5b1461025a57806392826b481461027557806395d89b411461028857600080fd5b8063313ce567116100ff578063313ce567146101c95780633644e515146101d857806339509351146101e157806340c10f19146101f457806370a082311461020957600080fd5b806306fdde031461013c578063095ea7b31461015a57806318160ddd1461017d57806323b872dd1461018f57806330adf81f146101a2575b600080fd5b610144610302565b6040516101519190610e73565b60405180910390f35b61016d610168366004610ee4565b610394565b6040519015158152602001610151565b6002545b604051908152602001610151565b61016d61019d366004610f0e565b6103ac565b6101817f6e71edae12b1b97f4d1f60370fef10105fa2faae0126114a169c64845d6126c981565b60405160128152602001610151565b61018160065481565b61016d6101ef366004610ee4565b6103d0565b610207610202366004610ee4565b6103f2565b005b610181610217366004610f4a565b6001600160a01b031660009081526020819052604090205490565b610207610433565b610181610248366004610f4a565b60076020526000908152604090205481565b6005546040516001600160a01b039091168152602001610151565b610207610283366004610f4a565b610447565b610144610471565b61020761029e366004610ee4565b610480565b61016d6102b1366004610ee4565b6104b4565b61016d6102c4366004610ee4565b61052f565b6102076102d7366004610f6c565b61053d565b6101816102ea366004610fdf565b610791565b6102076102fd366004610f4a565b6107bc565b60606003805461031190611012565b80601f016020809104026020016040519081016040528092919081815260200182805461033d90611012565b801561038a5780601f1061035f5761010080835404028352916020019161038a565b820191906000526020600020905b81548152906001019060200180831161036d57829003601f168201915b5050505050905090565b6000336103a2818585610835565b5060019392505050565b6000336103ba85828561095a565b6103c58585856109d4565b506001949350505050565b6000336103a28185856103e38383610791565b6103ed9190611063565b610835565b6008546001600160a01b031633146104255760405162461bcd60e51b815260040161041c9061107b565b60405180910390fd5b61042f8282610ba2565b5050565b61043b610c81565b6104456000610cdb565b565b61044f610c81565b600880546001600160a01b0319166001600160a01b0392909216919091179055565b60606004805461031190611012565b6008546001600160a01b031633146104aa5760405162461bcd60e51b815260040161041c9061107b565b61042f8282610d2d565b600033816104c28286610791565b9050838110156105225760405162461bcd60e51b815260206004820152602560248201527f45524332303a2064656372656173656420616c6c6f77616e63652062656c6f77604482015264207a65726f60d81b606482015260840161041c565b6103c58286868403610835565b6000336103a28185856109d4565b6008546001600160a01b031633146105675760405162461bcd60e51b815260040161041c9061107b565b428410156105b75760405162461bcd60e51b815260206004820152601860248201527f4552433230576974685065726d69743a20455850495245440000000000000000604482015260640161041c565b6006546001600160a01b038816600090815260076020526040812080549192917f6e71edae12b1b97f4d1f60370fef10105fa2faae0126114a169c64845d6126c9918b918b918b91908761060a836110cb565b909155506040805160208101969096526001600160a01b0394851690860152929091166060840152608083015260a082015260c0810187905260e0016040516020818303038152906040528051906020012060405160200161068392919061190160f01b81526002810192909252602282015260420190565b60408051601f198184030181528282528051602091820120600080855291840180845281905260ff88169284019290925260608301869052608083018590529092509060019060a0016020604051602081039080840390855afa1580156106ee573d6000803e3d6000fd5b5050604051601f1901519150506001600160a01b038116158015906107245750886001600160a01b0316816001600160a01b0316145b61077b5760405162461bcd60e51b815260206004820152602260248201527f4552433230576974685065726d69743a20494e56414c49445f5349474e415455604482015261524560f01b606482015260840161041c565b610786898989610835565b505050505050505050565b6001600160a01b03918216600090815260016020908152604080832093909416825291909152205490565b6107c4610c81565b6001600160a01b0381166108295760405162461bcd60e51b815260206004820152602660248201527f4f776e61626c653a206e6577206f776e657220697320746865207a65726f206160448201526564647265737360d01b606482015260840161041c565b61083281610cdb565b50565b6001600160a01b0383166108975760405162461bcd60e51b8152602060048201526024808201527f45524332303a20617070726f76652066726f6d20746865207a65726f206164646044820152637265737360e01b606482015260840161041c565b6001600160a01b0382166108f85760405162461bcd60e51b815260206004820152602260248201527f45524332303a20617070726f766520746f20746865207a65726f206164647265604482015261737360f01b606482015260840161041c565b6001600160a01b0383811660008181526001602090815260408083209487168084529482529182902085905590518481527f8c5be1e5ebec7d5bd14f71427d1e84f3dd0314c0f7b2291e5b200ac8c7c3b92591015b60405180910390a3505050565b60006109668484610791565b905060001981146109ce57818110156109c15760405162461bcd60e51b815260206004820152601d60248201527f45524332303a20696e73756666696369656e7420616c6c6f77616e6365000000604482015260640161041c565b6109ce8484848403610835565b50505050565b6001600160a01b038316610a385760405162461bcd60e51b815260206004820152602560248201527f45524332303a207472616e736665722066726f6d20746865207a65726f206164604482015264647265737360d81b606482015260840161041c565b6001600160a01b038216610a9a5760405162461bcd60e51b815260206004820152602360248201527f45524332303a207472616e7366657220746f20746865207a65726f206164647260448201526265737360e81b606482015260840161041c565b6001600160a01b03831660009081526020819052604090205481811015610b125760405162461bcd60e51b815260206004820152602660248201527f45524332303a207472616e7366657220616d6f756e7420657863656564732062604482015265616c616e636560d01b606482015260840161041c565b6001600160a01b03808516600090815260208190526040808220858503905591851681529081208054849290610b49908490611063565b92505081905550826001600160a01b0316846001600160a01b03167fddf252ad1be2c89b69c2b068fc378daa952ba7f163c4a11628f55a4df523b3ef84604051610b9591815260200190565b60405180910390a36109ce565b6001600160a01b038216610bf85760405162461bcd60e51b815260206004820152601f60248201527f45524332303a206d696e7420746f20746865207a65726f206164647265737300604482015260640161041c565b8060026000828254610c0a9190611063565b90915550506001600160a01b03821660009081526020819052604081208054839290610c37908490611063565b90915550506040518181526001600160a01b038316906000907fddf252ad1be2c89b69c2b068fc378daa952ba7f163c4a11628f55a4df523b3ef9060200160405180910390a35050565b6005546001600160a01b031633146104455760405162461bcd60e51b815260206004820181905260248201527f4f776e61626c653a2063616c6c6572206973206e6f7420746865206f776e6572604482015260640161041c565b600580546001600160a01b038381166001600160a01b0319831681179093556040519116919082907f8be0079c531659141344cd1fd0a4f28419497f9722a3daafe3b4186f6b6457e090600090a35050565b6001600160a01b038216610d8d5760405162461bcd60e51b815260206004820152602160248201527f45524332303a206275726e2066726f6d20746865207a65726f206164647265736044820152607360f81b606482015260840161041c565b6001600160a01b03821660009081526020819052604090205481811015610e015760405162461bcd60e51b815260206004820152602260248201527f45524332303a206275726e20616d6f756e7420657863656564732062616c616e604482015261636560f01b606482015260840161041c565b6001600160a01b0383166000908152602081905260408120838303905560028054849290610e309084906110e6565b90915550506040518281526000906001600160a01b038516907fddf252ad1be2c89b69c2b068fc378daa952ba7f163c4a11628f55a4df523b3ef9060200161094d565b600060208083528351808285015260005b81811015610ea057858101830151858201604001528201610e84565b81811115610eb2576000604083870101525b50601f01601f1916929092016040019392505050565b80356001600160a01b0381168114610edf57600080fd5b919050565b60008060408385031215610ef757600080fd5b610f0083610ec8565b946020939093013593505050565b600080600060608486031215610f2357600080fd5b610f2c84610ec8565b9250610f3a60208501610ec8565b9150604084013590509250925092565b600060208284031215610f5c57600080fd5b610f6582610ec8565b9392505050565b600080600080600080600060e0888a031215610f8757600080fd5b610f9088610ec8565b9650610f9e60208901610ec8565b95506040880135945060608801359350608088013560ff81168114610fc257600080fd5b9699959850939692959460a0840135945060c09093013592915050565b60008060408385031215610ff257600080fd5b610ffb83610ec8565b915061100960208401610ec8565b90509250929050565b600181811c9082168061102657607f821691505b6020821081141561104757634e487b7160e01b600052602260045260246000fd5b50919050565b634e487b7160e01b600052601160045260246000fd5b600082198211156110765761107661104d565b500190565b60208082526030908201527f54494b3a204f6e6c79205469636b657420636f6e74726163742063616e20636160408201526f3636103a3434b990333ab731ba34b7b760811b606082015260800190565b60006000198214156110df576110df61104d565b5060010190565b6000828210156110f8576110f861104d565b50039056fea26469706673582212209d491978e822ee66433499232672dd25538c09ceb3deb00c5fd50a8132dfa38d64736f6c63430008090033",
  "linkReferences": {},
  "deployedLinkReferences": {}
}